{
	"data": {
		"bytecode": {
			"linkReferences": {
				"AddressSet.sol": {
					"AddressSet": [
						{
							"length": 20,
							"start": 160
						},
						{
							"length": 20,
							"start": 4367
						},
						{
							"length": 20,
							"start": 4962
						},
						{
							"length": 20,
							"start": 8209
						},
						{
							"length": 20,
							"start": 8358
						},
						{
							"length": 20,
							"start": 8684
						},
						{
							"length": 20,
							"start": 9419
						},
						{
							"length": 20,
							"start": 10599
						},
						{
							"length": 20,
							"start": 11359
						},
						{
							"length": 20,
							"start": 11820
						},
						{
							"length": 20,
							"start": 13031
						},
						{
							"length": 20,
							"start": 15915
						},
						{
							"length": 20,
							"start": 17813
						},
						{
							"length": 20,
							"start": 18031
						}
					]
				}
			},
			"object": "6080604052610708600255662386f26fc1000060035560006006556000600755600060085560006009556000600a556000600b55655af3107a4000600e553480156200004a57600080fd5b5060405162005fcd38038062005fcd8339810160408190526200006d9162000117565b600080546001600160a01b03191633908117909155604051639f75f0a360e01b815260106004820152602481019190915273__$1c537defa8d8abb880144579cecc12eeda$__90639f75f0a39060440160006040518083038186803b158015620000d657600080fd5b505af4158015620000eb573d6000803e3d6000fd5b5050600180546001600160a01b0319166001600160a01b03949094169390931790925550620001499050565b6000602082840312156200012a57600080fd5b81516001600160a01b03811681146200014257600080fd5b9392505050565b615e7480620001596000396000f3fe60806040526004361061049e5760003560e01c80637f66ef3b1161025e578063a50ffda511610143578063e43e5541116100bb578063f1850af81161008a578063f2dd45661161006f578063f2dd456614610d92578063f2fde38b14610db2578063f97b57ec14610dd257600080fd5b8063f1850af814610d6a578063f1f959a614610d7f57600080fd5b8063e43e554114610cff578063ece7643514610d1f578063eed3198614610d3f578063f1294ef614610d5457600080fd5b8063ceeabbf611610112578063d846ceae116100f7578063d846ceae14610c70578063da37499c14610ca5578063dccb445b14610cd257600080fd5b8063ceeabbf614610c2e578063d2aca65914610c4357600080fd5b8063a50ffda514610bb9578063a8d088bb14610bd9578063c1c2214514610bee578063c6e64e5314610c0e57600080fd5b80638da5cb5b116101d65780639c281430116101a55780639db1ff161161018a5780639db1ff1614610b635780639ede054c14610b79578063a01bad5214610b9957600080fd5b80639c28143014610b205780639d76ea5814610b3657600080fd5b80638da5cb5b14610a9d5780639661cb0d14610aca57806398adcc9714610ae0578063991d73b514610b0057600080fd5b8063862b092b1161022d57806388235d181161021257806388235d1814610a2d578063892ff8bd14610a5a5780638b6ed67d14610a7057600080fd5b8063862b092b146109de578063878d7d8714610a0057600080fd5b80637f66ef3b1461095c57806381b5479d1461098957806381d2fd9c146109a957806382b2e257146109c957600080fd5b8063424f3c8e1161038457806366eb399f116102fc5780636f865e6f116102cb57806376678d84116102b057806376678d84146108ca5780637adbf973146108ea5780637dc0d1d01461090a57600080fd5b80636f865e6f14610894578063713abeb9146108aa57600080fd5b806366eb399f146108255780636b32810b146108455780636ca80026146108675780636f7ab8d11461086757600080fd5b806359d1bd801161035357806365837e571161033857806365837e57146107d057806366059a16146107f0578063668009951461081057600080fd5b806359d1bd80146107835780635a2f7133146107a357600080fd5b8063424f3c8e146107185780634f51327714610738578063563d3ca314610758578063572d47211461076e57600080fd5b806321c0b342116104175780632a4e4553116103e6578063384e491d116103cb578063384e491d146106b65780634078eeb2146106d657806341be8b94146106eb57600080fd5b80632a4e455314610676578063303f2f0f1461069657600080fd5b806321c0b3421461060c57806324600fc31461062c57806324f65ee71461064157806326767f901461065657600080fd5b80631654d42c1161046e578063198e14f811610453578063198e14f81461059f5780631dff6a9f146105bf5780631f39cc1b146105ec57600080fd5b80631654d42c1461055957806317fc30d41461056f57600080fd5b806275c377146104aa5780630410fd63146104cc57806304f32a1d1461050b57806309bae5131461052b57600080fd5b366104a557005b600080fd5b3480156104b657600080fd5b506104ca6104c53660046149df565b610dff565b005b3480156104d857600080fd5b506104ec6104e73660046149fc565b610e85565b6040516105029a99989796959493929190614a8b565b60405180910390f35b34801561051757600080fd5b506104ca6105263660046149fc565b610f81565b34801561053757600080fd5b5061054b6105463660046149df565b611089565b604051908152602001610502565b34801561056557600080fd5b5061054b60075481565b34801561057b57600080fd5b5061058f61058a3660046149df565b611125565b6040519015158152602001610502565b3480156105ab57600080fd5b5061058f6105ba3660046149df565b6111bb565b3480156105cb57600080fd5b506105df6105da366004614c19565b611243565b6040516105029190614da4565b3480156105f857600080fd5b506104ca6106073660046149df565b6114d2565b34801561061857600080fd5b506104ca610627366004614e24565b61159a565b34801561063857600080fd5b506104ca611b69565b34801561064d57600080fd5b5061054b611d4a565b34801561066257600080fd5b506104ca610671366004614e6b565b611de6565b34801561068257600080fd5b5061058f6106913660046149df565b611f6f565b3480156106a257600080fd5b5061058f6106b13660046149df565b611fe4565b3480156106c257600080fd5b506104ca6106d1366004614e99565b61203d565b3480156106e257600080fd5b5061054b6121e0565b3480156106f757600080fd5b5061070b610706366004614ec5565b612279565b6040516105029190614f8d565b34801561072457600080fd5b506104ca610733366004615097565b61233d565b34801561074457600080fd5b506105df6107533660046150e7565b612493565b34801561076457600080fd5b5061054b60025481565b34801561077a57600080fd5b506105df612560565b34801561078f57600080fd5b506104ca61079e366004614e99565b6127d9565b3480156107af57600080fd5b506107c36107be366004614ec5565b612936565b604051610502919061511c565b3480156107dc57600080fd5b506105df6107eb3660046150e7565b6129f3565b3480156107fc57600080fd5b506104ca61080b366004614e99565b612ad1565b34801561081c57600080fd5b5061054b612c2e565b34801561083157600080fd5b506104ca610840366004614e6b565b612c9e565b34801561085157600080fd5b5061085a612dfc565b60405161050291906151e0565b34801561087357600080fd5b506108876108823660046149fc565b612eb2565b604051610502919061523a565b3480156108a057600080fd5b5061054b60095481565b3480156108b657600080fd5b506104ca6108c53660046149df565b613091565b3480156108d657600080fd5b506104ca6108e5366004615097565b613159565b3480156108f657600080fd5b506104ca6109053660046149df565b6132af565b34801561091657600080fd5b506012546109379073ffffffffffffffffffffffffffffffffffffffff1681565b60405173ffffffffffffffffffffffffffffffffffffffff9091168152602001610502565b34801561096857600080fd5b5061097c61097736600461524d565b613377565b6040516105029190615345565b34801561099557600080fd5b506108876109a43660046149df565b61342e565b3480156109b557600080fd5b506104ca6109c43660046149fc565b6135c0565b3480156109d557600080fd5b5061054b613646565b3480156109ea57600080fd5b506109f36136b5565b60405161050291906153b8565b348015610a0c57600080fd5b50610a20610a1b3660046149df565b61376b565b60405161050291906153cb565b348015610a3957600080fd5b50610a4d610a48366004614e6b565b613872565b60405161050291906153de565b348015610a6657600080fd5b5061054b600e5481565b348015610a7c57600080fd5b50600d546109379073ffffffffffffffffffffffffffffffffffffffff1681565b348015610aa957600080fd5b506000546109379073ffffffffffffffffffffffffffffffffffffffff1681565b348015610ad657600080fd5b5061054b600a5481565b348015610aec57600080fd5b5061085a610afb366004614ec5565b6139aa565b348015610b0c57600080fd5b506109f3610b1b3660046149df565b613a67565b348015610b2c57600080fd5b5061054b60035481565b348015610b4257600080fd5b506001546109379073ffffffffffffffffffffffffffffffffffffffff1681565b348015610b6f57600080fd5b5061054b60085481565b348015610b8557600080fd5b50610937610b943660046149df565b613b1e565b348015610ba557600080fd5b506104ca610bb43660046149fc565b613bb3565b348015610bc557600080fd5b5061054b610bd43660046149df565b613c39565b348015610be557600080fd5b5061085a613c92565b348015610bfa57600080fd5b506104ca610c093660046149df565b613d0c565b348015610c1a57600080fd5b50610937610c293660046153f1565b613dd4565b348015610c3a57600080fd5b5061054b61440a565b348015610c4f57600080fd5b50600f546109379073ffffffffffffffffffffffffffffffffffffffff1681565b348015610c7c57600080fd5b5061054b610c8b3660046149df565b73ffffffffffffffffffffffffffffffffffffffff163190565b348015610cb157600080fd5b506013546109379073ffffffffffffffffffffffffffffffffffffffff1681565b348015610cde57600080fd5b5061054b610ced3660046149df565b60056020526000908152604090205481565b348015610d0b57600080fd5b506105df610d1a3660046150e7565b614476565b348015610d2b57600080fd5b506104ca610d3a366004615097565b6144e1565b348015610d4b57600080fd5b5061054b614637565b348015610d6057600080fd5b5061054b600b5481565b348015610d7657600080fd5b506109f36146a7565b348015610d8b57600080fd5b504761054b565b348015610d9e57600080fd5b506104ca610dad3660046149df565b614717565b348015610dbe57600080fd5b506104ca610dcd3660046149df565b6147df565b348015610dde57600080fd5b50600c546109379073ffffffffffffffffffffffffffffffffffffffff1681565b600f546040517e75c37700000000000000000000000000000000000000000000000000000000815273ffffffffffffffffffffffffffffffffffffffff8381166004830152909116906275c37790602401600060405180830381600087803b158015610e6a57600080fd5b505af1158015610e7e573d6000803e3d6000fd5b5050505050565b60046020819052600091825260409091208054600182015460028301546003840154948401546005850154600686015460078701546008880154600989018054989a979973ffffffffffffffffffffffffffffffffffffffff9788169998881698968816979596949593949390921692610efe90615441565b80601f0160208091040260200160405190810160405280929190818152602001828054610f2a90615441565b8015610f775780601f10610f4c57610100808354040283529160200191610f77565b820191906000526020600020905b815481529060010190602001808311610f5a57829003601f168201915b505050505090508a565b6040517f2fc4d7920000000000000000000000000000000000000000000000000000000081526010600482015233602482015273__$1c537defa8d8abb880144579cecc12eeda$__90632fc4d79290604401602060405180830381865af4158015610ff0573d6000803e3d6000fd5b505050506040513d601f19601f82011682018060405250810190611014919061548f565b1515600114611084576040517f08c379a000000000000000000000000000000000000000000000000000000000815260206004820152601160248201527f4f6e6c7920666f72206d616e616765727300000000000000000000000000000060448201526064015b60405180910390fd5b600e55565b600f546040517f2ba33db400000000000000000000000000000000000000000000000000000000815273ffffffffffffffffffffffffffffffffffffffff83811660048301526000921690632ba33db4906024015b602060405180830381865afa1580156110fb573d6000803e3d6000fd5b505050506040513d601f19601f8201168201806040525081019061111f91906154ac565b92915050565b600c546040517f17fc30d400000000000000000000000000000000000000000000000000000000815273ffffffffffffffffffffffffffffffffffffffff838116600483015260009216906317fc30d4906024015b602060405180830381865afa158015611197573d6000803e3d6000fd5b505050506040513d601f19601f8201168201806040525081019061111f919061548f565b6040517f2fc4d7920000000000000000000000000000000000000000000000000000000081526010600482015273ffffffffffffffffffffffffffffffffffffffff8216602482015260009073__$1c537defa8d8abb880144579cecc12eeda$__90632fc4d79290604401602060405180830381865af4158015611197573d6000803e3d6000fd5b60606000825167ffffffffffffffff81111561126157611261614b06565b60405190808252806020026020018201604052801561134057816020015b61132d6040518061014001604052806000815260200160008152602001600073ffffffffffffffffffffffffffffffffffffffff168152602001600073ffffffffffffffffffffffffffffffffffffffff168152602001600073ffffffffffffffffffffffffffffffffffffffff168152602001600081526020016000815260200160008152602001600073ffffffffffffffffffffffffffffffffffffffff168152602001606081525090565b81526020019060019003908161127f5790505b50905060005b83518110156114cb5760046000858381518110611365576113656154c5565b602090810291909101810151825281810192909252604090810160002081516101408101835281548152600182015493810193909352600281015473ffffffffffffffffffffffffffffffffffffffff90811692840192909252600381015482166060840152600481015482166080840152600581015460a0840152600681015460c0840152600781015460e084015260088101549091166101008301526009810180546101208401919061141990615441565b80601f016020809104026020016040519081016040528092919081815260200182805461144590615441565b80156114925780601f1061146757610100808354040283529160200191611492565b820191906000526020600020905b81548152906001019060200180831161147557829003601f168201915b5050505050815250508282815181106114ad576114ad6154c5565b602002602001018190525080806114c390615523565b915050611346565b5092915050565b60005473ffffffffffffffffffffffffffffffffffffffff163314611553576040517f08c379a000000000000000000000000000000000000000000000000000000000815260206004820152600e60248201527f4f6e6c7920666f72206f776e6572000000000000000000000000000000000000604482015260640161107b565b601380547fffffffffffffffffffffffff00000000000000000000000000000000000000001673ffffffffffffffffffffffffffffffffffffffff92909216919091179055565b33600090815260056020526040902054611610576040517f08c379a000000000000000000000000000000000000000000000000000000000815260206004820152601460248201527f43616c6c206e6f742066726f6d20726f75746572000000000000000000000000604482015260640161107b565b3360009081526005602081815260408084205480855260049092529092200154611696576040517f08c379a000000000000000000000000000000000000000000000000000000000815260206004820152601860248201527f5468697320636f6465206e6f74206d696e746564207965740000000000000000604482015260640161107b565b6000818152600460205260409020600601541561170f576040517f08c379a000000000000000000000000000000000000000000000000000000000815260206004820152601960248201527f5468697320636f646520616c726561647920636c61696d656400000000000000604482015260640161107b565b6000818152600460205260409020600781015460059091015442916117339161555c565b1161179a576040517f08c379a000000000000000000000000000000000000000000000000000000000815260206004820152601160248201527f5172436f64652069732065787069726564000000000000000000000000000000604482015260640161107b565b600d546000828152600460208190526040918290206001015491517f59ef735600000000000000000000000000000000000000000000000000000000815273ffffffffffffffffffffffffffffffffffffffff87811692820192909252602481019290925260448201849052909116906359ef735690606401600060405180830381600087803b15801561182d57600080fd5b505af1158015611841573d6000803e3d6000fd5b50506008805492509050600061185683615523565b9091555050600c54600082815260046020819052604091829020600281015460019091015492517f59ef735600000000000000000000000000000000000000000000000000000000815273ffffffffffffffffffffffffffffffffffffffff918216928101929092526024820185905260448201929092529116906359ef735690606401600060405180830381600087803b1580156118f457600080fd5b505af1158015611908573d6000803e3d6000fd5b505050600082815260046020526040812060010154600a8054919350919061193190849061555c565b90915550506000818152600460208190526040918290206003810180547fffffffffffffffffffffffff000000000000000000000000000000000000000090811673ffffffffffffffffffffffffffffffffffffffff8981169182179093558385018054909216888416179091554260068401556001805493015494517fa9059cbb0000000000000000000000000000000000000000000000000000000081529384015260248301939093529091169063a9059cbb906044016020604051808303816000875af1158015611a09573d6000803e3d6000fd5b505050506040513d601f19601f82011682018060405250810190611a2d919061548f565b5060035473ffffffffffffffffffffffffffffffffffffffff84163190811015611b635760008473ffffffffffffffffffffffffffffffffffffffff1631600354611a789190615574565b905080600b6000828254611a8c919061555c565b9091555050600d546040517f6ff9716900000000000000000000000000000000000000000000000000000000815273ffffffffffffffffffffffffffffffffffffffff87811660048301526024820184905290911690636ff9716990604401600060405180830381600087803b158015611b0557600080fd5b505af1158015611b19573d6000803e3d6000fd5b505060405173ffffffffffffffffffffffffffffffffffffffff8816925083156108fc02915083906000818181858888f19350505050158015611b60573d6000803e3d6000fd5b50505b50505050565b60005473ffffffffffffffffffffffffffffffffffffffff163314611bea576040517f08c379a000000000000000000000000000000000000000000000000000000000815260206004820152600e60248201527f4f6e6c7920666f72206f776e6572000000000000000000000000000000000000604482015260640161107b565b6001546040517f70a0823100000000000000000000000000000000000000000000000000000000815230600482015273ffffffffffffffffffffffffffffffffffffffff9091169063a9059cbb90339083906370a0823190602401602060405180830381865afa158015611c62573d6000803e3d6000fd5b505050506040513d601f19601f82011682018060405250810190611c8691906154ac565b6040517fffffffff0000000000000000000000000000000000000000000000000000000060e085901b16815273ffffffffffffffffffffffffffffffffffffffff909216600483015260248201526044016020604051808303816000875af1158015611cf6573d6000803e3d6000fd5b505050506040513d601f19601f82011682018060405250810190611d1a919061548f565b5060405133904780156108fc02916000818181858888f19350505050158015611d47573d6000803e3d6000fd5b50565b600154604080517f313ce567000000000000000000000000000000000000000000000000000000008152905160009273ffffffffffffffffffffffffffffffffffffffff169163313ce5679160048083019260209291908290030181865afa158015611dba573d6000803e3d6000fd5b505050506040513d601f19601f82011682018060405250810190611dde919061558b565b60ff16905090565b60005473ffffffffffffffffffffffffffffffffffffffff163314611e67576040517f08c379a000000000000000000000000000000000000000000000000000000000815260206004820152600e60248201527f4f6e6c7920666f72206f776e6572000000000000000000000000000000000000604482015260640161107b565b8015611f02576040517f9f75f0a30000000000000000000000000000000000000000000000000000000081526010600482015273ffffffffffffffffffffffffffffffffffffffff8316602482015273__$1c537defa8d8abb880144579cecc12eeda$__90639f75f0a3906044015b60006040518083038186803b158015611eee57600080fd5b505af4158015611b60573d6000803e3d6000fd5b6040517fa8afef950000000000000000000000000000000000000000000000000000000081526010600482015273ffffffffffffffffffffffffffffffffffffffff8316602482015273__$1c537defa8d8abb880144579cecc12eeda$__9063a8afef9590604401611ed6565b73ffffffffffffffffffffffffffffffffffffffff811660009081526005602052604081205415611fdc5773ffffffffffffffffffffffffffffffffffffffff82166000908152600560209081526040808320548352600490915290206006015415611fdc57600161111f565b600092915050565b600f546040517f303f2f0f00000000000000000000000000000000000000000000000000000000815273ffffffffffffffffffffffffffffffffffffffff8381166004830152600092169063303f2f0f9060240161117a565b60125473ffffffffffffffffffffffffffffffffffffffff163314806120f157506040517f2fc4d7920000000000000000000000000000000000000000000000000000000081526010600482015233602482015273__$1c537defa8d8abb880144579cecc12eeda$__90632fc4d79290604401602060405180830381865af41580156120cd573d6000803e3d6000fd5b505050506040513d601f19601f820116820180604052508101906120f1919061548f565b612157576040517f08c379a000000000000000000000000000000000000000000000000000000000815260206004820152601a60248201527f4f6e6c7920666f72206f7261636c65206f72206d616e61676572000000000000604482015260640161107b565b600c546040517f384e491d00000000000000000000000000000000000000000000000000000000815273ffffffffffffffffffffffffffffffffffffffff8481166004830152602482018490529091169063384e491d906044015b600060405180830381600087803b1580156121cc57600080fd5b505af1158015611b60573d6000803e3d6000fd5b600d54604080517f4078eeb2000000000000000000000000000000000000000000000000000000008152905160009273ffffffffffffffffffffffffffffffffffffffff1691634078eeb29160048083019260209291908290030181865afa158015612250573d6000803e3d6000fd5b505050506040513d601f19601f8201168201806040525081019061227491906154ac565b905090565b600d546040517f41be8b94000000000000000000000000000000000000000000000000000000008152600481018490526024810183905260609173ffffffffffffffffffffffffffffffffffffffff16906341be8b9490604401600060405180830381865afa1580156122f0573d6000803e3d6000fd5b505050506040513d6000823e601f3d9081017fffffffffffffffffffffffffffffffffffffffffffffffffffffffffffffffe016820160405261233691908101906156cc565b9392505050565b6040517f2fc4d7920000000000000000000000000000000000000000000000000000000081526010600482015233602482015273__$1c537defa8d8abb880144579cecc12eeda$__90632fc4d79290604401602060405180830381865af41580156123ac573d6000803e3d6000fd5b505050506040513d601f19601f820116820180604052508101906123d0919061548f565b151560011461243b576040517f08c379a000000000000000000000000000000000000000000000000000000000815260206004820152601160248201527f4f6e6c7920666f72206d616e6167657273000000000000000000000000000000604482015260640161107b565b600c546040517f424f3c8e00000000000000000000000000000000000000000000000000000000815273ffffffffffffffffffffffffffffffffffffffff9091169063424f3c8e906121b2908590859060040161577d565b600d546040517f4f51327700000000000000000000000000000000000000000000000000000000815273ffffffffffffffffffffffffffffffffffffffff858116600483015260248201859052604482018490526060921690634f51327790606401600060405180830381865afa158015612512573d6000803e3d6000fd5b505050506040513d6000823e601f3d9081017fffffffffffffffffffffffffffffffffffffffffffffffffffffffffffffffe016820160405261255891908101906157f1565b949350505050565b6060600060075467ffffffffffffffff81111561257f5761257f614b06565b60405190808252806020026020018201604052801561265e57816020015b61264b6040518061014001604052806000815260200160008152602001600073ffffffffffffffffffffffffffffffffffffffff168152602001600073ffffffffffffffffffffffffffffffffffffffff168152602001600073ffffffffffffffffffffffffffffffffffffffff168152602001600081526020016000815260200160008152602001600073ffffffffffffffffffffffffffffffffffffffff168152602001606081525090565b81526020019060019003908161259d5790505b50905060015b60065481116127d35760008181526004602081815260409283902083516101408101855281548152600182015492810192909252600281015473ffffffffffffffffffffffffffffffffffffffff908116948301949094526003810154841660608301529182015483166080820152600582015460a0820152600682015460c0820152600782015460e082015260088201549092166101008301526009810180546101208401919061271590615441565b80601f016020809104026020016040519081016040528092919081815260200182805461274190615441565b801561278e5780601f106127635761010080835404028352916020019161278e565b820191906000526020600020905b81548152906001019060200180831161277157829003601f168201915b505050505081525050826001836127a59190615574565b815181106127b5576127b56154c5565b602002602001018190525080806127cb90615523565b915050612664565b50919050565b6040517f2fc4d7920000000000000000000000000000000000000000000000000000000081526010600482015233602482015273__$1c537defa8d8abb880144579cecc12eeda$__90632fc4d79290604401602060405180830381865af4158015612848573d6000803e3d6000fd5b505050506040513d601f19601f8201168201806040525081019061286c919061548f565b15156001146128d7576040517f08c379a000000000000000000000000000000000000000000000000000000000815260206004820152601160248201527f4f6e6c7920666f72206d616e6167657273000000000000000000000000000000604482015260640161107b565b600c546040517f59d1bd8000000000000000000000000000000000000000000000000000000000815273ffffffffffffffffffffffffffffffffffffffff848116600483015260248201849052909116906359d1bd80906044016121b2565b600f546040517f5a2f7133000000000000000000000000000000000000000000000000000000008152600481018490526024810183905260609173ffffffffffffffffffffffffffffffffffffffff1690635a2f713390604401600060405180830381865afa1580156129ad573d6000803e3d6000fd5b505050506040513d6000823e601f3d9081017fffffffffffffffffffffffffffffffffffffffffffffffffffffffffffffffe0168201604052612336919081019061596b565b600c546040517fc804bd1300000000000000000000000000000000000000000000000000000000815273ffffffffffffffffffffffffffffffffffffffff8581166004830152602482018590526044820184905260609260009291169063c804bd13906064015b600060405180830381865afa158015612a77573d6000803e3d6000fd5b505050506040513d6000823e601f3d9081017fffffffffffffffffffffffffffffffffffffffffffffffffffffffffffffffe0168201604052612abd9190810190615a96565b9050612ac881611243565b95945050505050565b6040517f2fc4d7920000000000000000000000000000000000000000000000000000000081526010600482015233602482015273__$1c537defa8d8abb880144579cecc12eeda$__90632fc4d79290604401602060405180830381865af4158015612b40573d6000803e3d6000fd5b505050506040513d601f19601f82011682018060405250810190612b64919061548f565b1515600114612bcf576040517f08c379a000000000000000000000000000000000000000000000000000000000815260206004820152601160248201527f4f6e6c7920666f72206d616e6167657273000000000000000000000000000000604482015260640161107b565b600c546040517f66059a1600000000000000000000000000000000000000000000000000000000815273ffffffffffffffffffffffffffffffffffffffff848116600483015260248201849052909116906366059a16906044016121b2565b600f54604080517f66800995000000000000000000000000000000000000000000000000000000008152905160009273ffffffffffffffffffffffffffffffffffffffff169163668009959160048083019260209291908290030181865afa158015612250573d6000803e3d6000fd5b6040517f2fc4d7920000000000000000000000000000000000000000000000000000000081526010600482015233602482015273__$1c537defa8d8abb880144579cecc12eeda$__90632fc4d79290604401602060405180830381865af4158015612d0d573d6000803e3d6000fd5b505050506040513d601f19601f82011682018060405250810190612d31919061548f565b1515600114612d9c576040517f08c379a000000000000000000000000000000000000000000000000000000000815260206004820152601160248201527f4f6e6c7920666f72206d616e6167657273000000000000000000000000000000604482015260640161107b565b600c546040517f66eb399f00000000000000000000000000000000000000000000000000000000815273ffffffffffffffffffffffffffffffffffffffff84811660048301528315156024830152909116906366eb399f906044016121b2565b600c54604080517f6b32810b000000000000000000000000000000000000000000000000000000008152905160609273ffffffffffffffffffffffffffffffffffffffff1691636b32810b9160048083019260009291908290030181865afa158015612e6c573d6000803e3d6000fd5b505050506040513d6000823e601f3d9081017fffffffffffffffffffffffffffffffffffffffffffffffffffffffffffffffe01682016040526122749190810190615acb565b612f606040518061014001604052806000815260200160008152602001600073ffffffffffffffffffffffffffffffffffffffff168152602001600073ffffffffffffffffffffffffffffffffffffffff168152602001600073ffffffffffffffffffffffffffffffffffffffff168152602001600081526020016000815260200160008152602001600073ffffffffffffffffffffffffffffffffffffffff168152602001606081525090565b60008281526004602081815260409283902083516101408101855281548152600182015492810192909252600281015473ffffffffffffffffffffffffffffffffffffffff908116948301949094526003810154841660608301529182015483166080820152600582015460a0820152600682015460c0820152600782015460e082015260088201549092166101008301526009810180546101208401919061300890615441565b80601f016020809104026020016040519081016040528092919081815260200182805461303490615441565b80156130815780601f1061305657610100808354040283529160200191613081565b820191906000526020600020905b81548152906001019060200180831161306457829003601f168201915b5050505050815250509050919050565b60005473ffffffffffffffffffffffffffffffffffffffff163314613112576040517f08c379a000000000000000000000000000000000000000000000000000000000815260206004820152600e60248201527f4f6e6c7920666f72206f776e6572000000000000000000000000000000000000604482015260640161107b565b600f80547fffffffffffffffffffffffff00000000000000000000000000000000000000001673ffffffffffffffffffffffffffffffffffffffff92909216919091179055565b6040517f2fc4d7920000000000000000000000000000000000000000000000000000000081526010600482015233602482015273__$1c537defa8d8abb880144579cecc12eeda$__90632fc4d79290604401602060405180830381865af41580156131c8573d6000803e3d6000fd5b505050506040513d601f19601f820116820180604052508101906131ec919061548f565b1515600114613257576040517f08c379a000000000000000000000000000000000000000000000000000000000815260206004820152601160248201527f4f6e6c7920666f72206d616e6167657273000000000000000000000000000000604482015260640161107b565b600f546040517f76678d8400000000000000000000000000000000000000000000000000000000815273ffffffffffffffffffffffffffffffffffffffff909116906376678d84906121b2908590859060040161577d565b60005473ffffffffffffffffffffffffffffffffffffffff163314613330576040517f08c379a000000000000000000000000000000000000000000000000000000000815260206004820152600e60248201527f4f6e6c7920666f72206f776e6572000000000000000000000000000000000000604482015260640161107b565b601280547fffffffffffffffffffffffff00000000000000000000000000000000000000001673ffffffffffffffffffffffffffffffffffffffff92909216919091179055565b600c546040517f7f66ef3b000000000000000000000000000000000000000000000000000000008152821515600482015260609173ffffffffffffffffffffffffffffffffffffffff1690637f66ef3b90602401600060405180830381865afa1580156133e8573d6000803e3d6000fd5b505050506040513d6000823e601f3d9081017fffffffffffffffffffffffffffffffffffffffffffffffffffffffffffffffe016820160405261111f9190810190615c73565b6134dc6040518061014001604052806000815260200160008152602001600073ffffffffffffffffffffffffffffffffffffffff168152602001600073ffffffffffffffffffffffffffffffffffffffff168152602001600073ffffffffffffffffffffffffffffffffffffffff168152602001600081526020016000815260200160008152602001600073ffffffffffffffffffffffffffffffffffffffff168152602001606081525090565b73ffffffffffffffffffffffffffffffffffffffff8216600090815260056020526040902054156135bb5773ffffffffffffffffffffffffffffffffffffffff808316600090815260056020818152604080842054845260048083529381902081516101408101835281548152600182015493810193909352600281015486169183019190915260038101548516606083015292830154841660808201529082015460a0820152600682015460c0820152600782015460e082015260088201549092166101008301526009810180546101208401919061300890615441565b919050565b60005473ffffffffffffffffffffffffffffffffffffffff163314613641576040517f08c379a000000000000000000000000000000000000000000000000000000000815260206004820152600e60248201527f4f6e6c7920666f72206f776e6572000000000000000000000000000000000000604482015260640161107b565b600355565b6001546040517f70a0823100000000000000000000000000000000000000000000000000000000815230600482015260009173ffffffffffffffffffffffffffffffffffffffff16906370a0823190602401602060405180830381865afa158015612250573d6000803e3d6000fd5b600154604080517f06fdde03000000000000000000000000000000000000000000000000000000008152905160609273ffffffffffffffffffffffffffffffffffffffff16916306fdde039160048083019260009291908290030181865afa158015613725573d6000803e3d6000fd5b505050506040513d6000823e601f3d9081017fffffffffffffffffffffffffffffffffffffffffffffffffffffffffffffffe01682016040526122749190810190615d17565b6137bc6040518060c00160405280600073ffffffffffffffffffffffffffffffffffffffff168152602001600081526020016060815260200160008152602001600081526020016000151581525090565b600d546040517f878d7d8700000000000000000000000000000000000000000000000000000000815273ffffffffffffffffffffffffffffffffffffffff84811660048301529091169063878d7d8790602401600060405180830381865afa15801561382c573d6000803e3d6000fd5b505050506040513d6000823e601f3d9081017fffffffffffffffffffffffffffffffffffffffffffffffffffffffffffffffe016820160405261111f9190810190615d4c565b6138ec604051806101800160405280600073ffffffffffffffffffffffffffffffffffffffff16815260200160008152602001606081526020016000815260200160008152602001600081526020016060815260200160608152602001606081526020016000815260200160008152602001600081525090565b600c546040517f88235d1800000000000000000000000000000000000000000000000000000000815273ffffffffffffffffffffffffffffffffffffffff85811660048301528415156024830152909116906388235d1890604401600060405180830381865afa158015613964573d6000803e3d6000fd5b505050506040513d6000823e601f3d9081017fffffffffffffffffffffffffffffffffffffffffffffffffffffffffffffffe01682016040526123369190810190615d81565b600d546040517f98adcc97000000000000000000000000000000000000000000000000000000008152600481018490526024810183905260609173ffffffffffffffffffffffffffffffffffffffff16906398adcc9790604401600060405180830381865afa158015613a21573d6000803e3d6000fd5b505050506040513d6000823e601f3d9081017fffffffffffffffffffffffffffffffffffffffffffffffffffffffffffffffe01682016040526123369190810190615acb565b600f546040517f98d7a15200000000000000000000000000000000000000000000000000000000815273ffffffffffffffffffffffffffffffffffffffff838116600483015260609216906398d7a15290602401600060405180830381865afa158015613ad8573d6000803e3d6000fd5b505050506040513d6000823e601f3d9081017fffffffffffffffffffffffffffffffffffffffffffffffffffffffffffffffe016820160405261111f9190810190615d17565b600f546040517f6e54f5a600000000000000000000000000000000000000000000000000000000815273ffffffffffffffffffffffffffffffffffffffff83811660048301526000921690636e54f5a690602401602060405180830381865afa158015613b8f573d6000803e3d6000fd5b505050506040513d601f19601f8201168201806040525081019061111f9190615db6565b60005473ffffffffffffffffffffffffffffffffffffffff163314613c34576040517f08c379a000000000000000000000000000000000000000000000000000000000815260206004820152600e60248201527f4f6e6c7920666f72206f776e6572000000000000000000000000000000000000604482015260640161107b565b600255565b6001546040517f70a0823100000000000000000000000000000000000000000000000000000000815273ffffffffffffffffffffffffffffffffffffffff838116600483015260009216906370a08231906024016110de565b6040517f23935eee00000000000000000000000000000000000000000000000000000000815260106004820152600060248201819052604482015260609073__$1c537defa8d8abb880144579cecc12eeda$__906323935eee90606401600060405180830381865af4158015612e6c573d6000803e3d6000fd5b60005473ffffffffffffffffffffffffffffffffffffffff163314613d8d576040517f08c379a000000000000000000000000000000000000000000000000000000000815260206004820152600e60248201527f4f6e6c7920666f72206f776e6572000000000000000000000000000000000000604482015260640161107b565b600d80547fffffffffffffffffffffffff00000000000000000000000000000000000000001673ffffffffffffffffffffffffffffffffffffffff92909216919091179055565b600c546040517f17fc30d400000000000000000000000000000000000000000000000000000000815233600482015260009173ffffffffffffffffffffffffffffffffffffffff16906317fc30d490602401602060405180830381865afa158015613e43573d6000803e3d6000fd5b505050506040513d601f19601f82011682018060405250810190613e67919061548f565b1515600114613ed2576040517f08c379a000000000000000000000000000000000000000000000000000000000815260206004820152601060248201527f4f6e6c7920666f72206d696e7465727300000000000000000000000000000000604482015260640161107b565b60008411613f3c576040517f08c379a000000000000000000000000000000000000000000000000000000000815260206004820152601b60248201527f416d6f756e74206d7573742062652067726561746572207a65726f0000000000604482015260640161107b565b60008315613f4a5783613f4e565b6002545b601354600154600c546040517f183101d3000000000000000000000000000000000000000000000000000000008152336004820181905294955060009473ffffffffffffffffffffffffffffffffffffffff9485169463705fc4e39481169391928c9242928a9291169063183101d390602401600060405180830381865afa158015613fde573d6000803e3d6000fd5b505050506040513d6000823e601f3d9081017fffffffffffffffffffffffffffffffffffffffffffffffffffffffffffffffe01682016040526140249190810190615d17565b8b6040518863ffffffff1660e01b81526004016140479796959493929190615dd3565b6020604051808303816000875af1158015614066573d6000803e3d6000fd5b505050506040513d601f19601f8201168201806040525081019061408a9190615db6565b60068054919250600061409c83615523565b919050555060405180610140016040528060065481526020018781526020013373ffffffffffffffffffffffffffffffffffffffff168152602001600073ffffffffffffffffffffffffffffffffffffffff168152602001600073ffffffffffffffffffffffffffffffffffffffff168152602001428152602001600081526020018381526020018273ffffffffffffffffffffffffffffffffffffffff16815260200185815250600460006006548152602001908152602001600020600082015181600001556020820151816001015560408201518160020160006101000a81548173ffffffffffffffffffffffffffffffffffffffff021916908373ffffffffffffffffffffffffffffffffffffffff16021790555060608201518160030160006101000a81548173ffffffffffffffffffffffffffffffffffffffff021916908373ffffffffffffffffffffffffffffffffffffffff16021790555060808201518160040160006101000a81548173ffffffffffffffffffffffffffffffffffffffff021916908373ffffffffffffffffffffffffffffffffffffffff16021790555060a0820151816005015560c0820151816006015560e082015181600701556101008201518160080160006101000a81548173ffffffffffffffffffffffffffffffffffffffff021916908373ffffffffffffffffffffffffffffffffffffffff1602179055506101208201518160090190805190602001906142c5929190614924565b505060065473ffffffffffffffffffffffffffffffffffffffff83166000908152600560205260408120919091556009805489935090919061430890849061555c565b9091555050600c546006546040517fd5fc8f0800000000000000000000000000000000000000000000000000000000815233600482015260248101899052604481019190915273ffffffffffffffffffffffffffffffffffffffff9091169063d5fc8f0890606401600060405180830381600087803b15801561438a57600080fd5b505af115801561439e573d6000803e3d6000fd5b5050600780549250905060006143b383615523565b909155505060405173ffffffffffffffffffffffffffffffffffffffff821681527f12a2dcd8d60f7d320a97f9b2f6bca5b67c1bb9808b27c28915c541eed450d05f9060200160405180910390a195945050505050565b6040517fc3d3c7500000000000000000000000000000000000000000000000000000000081526010600482015260009073__$1c537defa8d8abb880144579cecc12eeda$__9063c3d3c75090602401602060405180830381865af4158015612250573d6000803e3d6000fd5b600c546040517f7c84677100000000000000000000000000000000000000000000000000000000815273ffffffffffffffffffffffffffffffffffffffff85811660048301526024820185905260448201849052606092600092911690637c84677190606401612a5a565b6040517f2fc4d7920000000000000000000000000000000000000000000000000000000081526010600482015233602482015273__$1c537defa8d8abb880144579cecc12eeda$__90632fc4d79290604401602060405180830381865af4158015614550573d6000803e3d6000fd5b505050506040513d601f19601f82011682018060405250810190614574919061548f565b15156001146145df576040517f08c379a000000000000000000000000000000000000000000000000000000000815260206004820152601160248201527f4f6e6c7920666f72206d616e6167657273000000000000000000000000000000604482015260640161107b565b600c546040517fece7643500000000000000000000000000000000000000000000000000000000815273ffffffffffffffffffffffffffffffffffffffff9091169063ece76435906121b2908590859060040161577d565b600c54604080517feed31986000000000000000000000000000000000000000000000000000000008152905160009273ffffffffffffffffffffffffffffffffffffffff169163eed319869160048083019260209291908290030181865afa158015612250573d6000803e3d6000fd5b600154604080517f95d89b41000000000000000000000000000000000000000000000000000000008152905160609273ffffffffffffffffffffffffffffffffffffffff16916395d89b419160048083019260009291908290030181865afa158015613725573d6000803e3d6000fd5b60005473ffffffffffffffffffffffffffffffffffffffff163314614798576040517f08c379a000000000000000000000000000000000000000000000000000000000815260206004820152600e60248201527f4f6e6c7920666f72206f776e6572000000000000000000000000000000000000604482015260640161107b565b600c80547fffffffffffffffffffffffff00000000000000000000000000000000000000001673ffffffffffffffffffffffffffffffffffffffff92909216919091179055565b60005473ffffffffffffffffffffffffffffffffffffffff163314614860576040517f08c379a000000000000000000000000000000000000000000000000000000000815260206004820152600e60248201527f4f6e6c7920666f72206f776e6572000000000000000000000000000000000000604482015260640161107b565b73ffffffffffffffffffffffffffffffffffffffff81166148dd576040517f08c379a000000000000000000000000000000000000000000000000000000000815260206004820152601a60248201527f4f776e657220616464726573732063616e74206265207a65726f000000000000604482015260640161107b565b600080547fffffffffffffffffffffffff00000000000000000000000000000000000000001673ffffffffffffffffffffffffffffffffffffffff92909216919091179055565b82805461493090615441565b90600052602060002090601f0160209004810192826149525760008555614998565b82601f1061496b57805160ff1916838001178555614998565b82800160010185558215614998579182015b8281111561499857825182559160200191906001019061497d565b506149a49291506149a8565b5090565b5b808211156149a457600081556001016149a9565b73ffffffffffffffffffffffffffffffffffffffff81168114611d4757600080fd5b6000602082840312156149f157600080fd5b8135612336816149bd565b600060208284031215614a0e57600080fd5b5035919050565b60005b83811015614a30578181015183820152602001614a18565b83811115611b635750506000910152565b60008151808452614a59816020860160208601614a15565b601f017fffffffffffffffffffffffffffffffffffffffffffffffffffffffffffffffe0169290920160200192915050565b60006101408c83528b602084015273ffffffffffffffffffffffffffffffffffffffff808c166040850152808b166060850152808a1660808501528860a08501528760c08501528660e08501528086166101008501525080610120840152614af581840185614a41565b9d9c50505050505050505050505050565b7f4e487b7100000000000000000000000000000000000000000000000000000000600052604160045260246000fd5b604051610140810167ffffffffffffffff81118282101715614b5957614b59614b06565b60405290565b6040516080810167ffffffffffffffff81118282101715614b5957614b59614b06565b604051610180810167ffffffffffffffff81118282101715614b5957614b59614b06565b604051601f82017fffffffffffffffffffffffffffffffffffffffffffffffffffffffffffffffe016810167ffffffffffffffff81118282101715614bed57614bed614b06565b604052919050565b600067ffffffffffffffff821115614c0f57614c0f614b06565b5060051b60200190565b60006020808385031215614c2c57600080fd5b823567ffffffffffffffff811115614c4357600080fd5b8301601f81018513614c5457600080fd5b8035614c67614c6282614bf5565b614ba6565b81815260059190911b82018301908381019087831115614c8657600080fd5b928401925b82841015614ca457833582529284019290840190614c8b565b979650505050505050565b600061014082518452602083015160208501526040830151614ce9604086018273ffffffffffffffffffffffffffffffffffffffff169052565b506060830151614d11606086018273ffffffffffffffffffffffffffffffffffffffff169052565b506080830151614d39608086018273ffffffffffffffffffffffffffffffffffffffff169052565b5060a083015160a085015260c083015160c085015260e083015160e085015261010080840151614d808287018273ffffffffffffffffffffffffffffffffffffffff169052565b5050610120808401518282870152614d9a83870182614a41565b9695505050505050565b6000602080830181845280855180835260408601915060408160051b870101925083870160005b82811015614e17577fffffffffffffffffffffffffffffffffffffffffffffffffffffffffffffffc0888603018452614e05858351614caf565b94509285019290850190600101614dcb565b5092979650505050505050565b60008060408385031215614e3757600080fd5b8235614e42816149bd565b91506020830135614e52816149bd565b809150509250929050565b8015158114611d4757600080fd5b60008060408385031215614e7e57600080fd5b8235614e89816149bd565b91506020830135614e5281614e5d565b60008060408385031215614eac57600080fd5b8235614eb7816149bd565b946020939093013593505050565b60008060408385031215614ed857600080fd5b50508035926020909101359150565b600081518084526020808501945080840160005b83811015614f1757815187529582019590820190600101614efb565b509495945050505050565b73ffffffffffffffffffffffffffffffffffffffff8151168252602081015160208301526000604082015160c06040850152614f6160c0850182614ee7565b9050606083015160608501526080830151608085015260a0830151151560a08501528091505092915050565b6000602080830181845280855180835260408601915060408160051b870101925083870160005b82811015614e17577fffffffffffffffffffffffffffffffffffffffffffffffffffffffffffffffc0888603018452614fee858351614f22565b94509285019290850190600101614fb4565b600067ffffffffffffffff82111561501a5761501a614b06565b50601f017fffffffffffffffffffffffffffffffffffffffffffffffffffffffffffffffe01660200190565b600082601f83011261505757600080fd5b8135615065614c6282615000565b81815284602083860101111561507a57600080fd5b816020850160208301376000918101602001919091529392505050565b600080604083850312156150aa57600080fd5b82356150b5816149bd565b9150602083013567ffffffffffffffff8111156150d157600080fd5b6150dd85828601615046565b9150509250929050565b6000806000606084860312156150fc57600080fd5b8335615107816149bd565b95602085013595506040909401359392505050565b60006020808301818452808551808352604092508286019150828160051b87010184880160005b838110156151d2577fffffffffffffffffffffffffffffffffffffffffffffffffffffffffffffffc08984030185528151608073ffffffffffffffffffffffffffffffffffffffff808351168652808a840151168a870152508782015181898701526151b182870182614a41565b60609384015196909301959095525094870194925090860190600101615143565b509098975050505050505050565b6020808252825182820181905260009190848201906040850190845b8181101561522e57835173ffffffffffffffffffffffffffffffffffffffff16835292840192918401916001016151fc565b50909695505050505050565b6020815260006123366020830184614caf565b60006020828403121561525f57600080fd5b813561233681614e5d565b805173ffffffffffffffffffffffffffffffffffffffff16825260006101806020830151602085015260408301518160408601526152aa82860182614a41565b915050606083015160608501526080830151608085015260a083015160a085015260c083015184820360c08601526152e28282614ee7565b91505060e083015184820360e08601526152fc8282614ee7565b91505061010080840151858303828701526153178382614ee7565b6101208681015190880152610140808701519088015261016095860151959096019490945250929392505050565b6000602080830181845280855180835260408601915060408160051b870101925083870160005b82811015614e17577fffffffffffffffffffffffffffffffffffffffffffffffffffffffffffffffc08886030184526153a685835161526a565b9450928501929085019060010161536c565b6020815260006123366020830184614a41565b6020815260006123366020830184614f22565b602081526000612336602083018461526a565b60008060006060848603121561540657600080fd5b8335925060208401359150604084013567ffffffffffffffff81111561542b57600080fd5b61543786828701615046565b9150509250925092565b600181811c9082168061545557607f821691505b602082108114156127d3577f4e487b7100000000000000000000000000000000000000000000000000000000600052602260045260246000fd5b6000602082840312156154a157600080fd5b815161233681614e5d565b6000602082840312156154be57600080fd5b5051919050565b7f4e487b7100000000000000000000000000000000000000000000000000000000600052603260045260246000fd5b7f4e487b7100000000000000000000000000000000000000000000000000000000600052601160045260246000fd5b60007fffffffffffffffffffffffffffffffffffffffffffffffffffffffffffffffff821415615555576155556154f4565b5060010190565b6000821982111561556f5761556f6154f4565b500190565b600082821015615586576155866154f4565b500390565b60006020828403121561559d57600080fd5b815160ff8116811461233657600080fd5b80516135bb816149bd565b600082601f8301126155ca57600080fd5b815160206155da614c6283614bf5565b82815260059290921b840181019181810190868411156155f957600080fd5b8286015b8481101561561457805183529183019183016155fd565b509695505050505050565b600060c0828403121561563157600080fd5b60405160c0810167ffffffffffffffff828210818311171561565557615655614b06565b8160405282935084519150615669826149bd565b81835260208501516020840152604085015191508082111561568a57600080fd5b50615697858286016155b9565b604083015250606083015160608201526080830151608082015260a08301516156bf81614e5d565b60a0919091015292915050565b600060208083850312156156df57600080fd5b825167ffffffffffffffff808211156156f757600080fd5b818501915085601f83011261570b57600080fd5b8151615719614c6282614bf5565b81815260059190911b8301840190848101908883111561573857600080fd5b8585015b83811015615770578051858111156157545760008081fd5b6157628b89838a010161561f565b84525091860191860161573c565b5098975050505050505050565b73ffffffffffffffffffffffffffffffffffffffff831681526040602082015260006125586040830184614a41565b600082601f8301126157bd57600080fd5b81516157cb614c6282615000565b8181528460208386010111156157e057600080fd5b612558826020830160208701614a15565b6000602080838503121561580457600080fd5b825167ffffffffffffffff8082111561581c57600080fd5b818501915085601f83011261583057600080fd5b815161583e614c6282614bf5565b81815260059190911b8301840190848101908883111561585d57600080fd5b8585015b83811015615770578051858111156158795760008081fd5b8601610140818c037fffffffffffffffffffffffffffffffffffffffffffffffffffffffffffffffe0018113156158b05760008081fd5b6158b8614b35565b8983015181526040808401518b83015260606158d58186016155ae565b82840152608091506158e88286016155ae565b9083015260a06158f98582016155ae565b8284015260c0915081850151818401525060e0808501518284015261010091508185015181840152506101206159308186016155ae565b8383015292840151928984111561594957600091508182fd5b6159578f8d868801016157ac565b908301525085525050918601918601615861565b6000602080838503121561597e57600080fd5b825167ffffffffffffffff8082111561599657600080fd5b818501915085601f8301126159aa57600080fd5b81516159b8614c6282614bf5565b81815260059190911b830184019084810190888311156159d757600080fd5b8585015b83811015615770578051858111156159f257600080fd5b86016080818c037fffffffffffffffffffffffffffffffffffffffffffffffffffffffffffffffe0011215615a275760008081fd5b615a2f614b5f565b88820151615a3c816149bd565b8152604082810151615a4d816149bd565b828b015260608381015189811115615a655760008081fd5b615a738f8d838801016157ac565b9284019290925260809390930151928201929092528452509186019186016159db565b600060208284031215615aa857600080fd5b815167ffffffffffffffff811115615abf57600080fd5b612558848285016155b9565b60006020808385031215615ade57600080fd5b825167ffffffffffffffff811115615af557600080fd5b8301601f81018513615b0657600080fd5b8051615b14614c6282614bf5565b81815260059190911b82018301908381019087831115615b3357600080fd5b928401925b82841015614ca4578351615b4b816149bd565b82529284019290840190615b38565b60006101808284031215615b6d57600080fd5b615b75614b82565b9050615b80826155ae565b815260208201516020820152604082015167ffffffffffffffff80821115615ba757600080fd5b615bb3858386016157ac565b6040840152606084015160608401526080840151608084015260a084015160a084015260c0840151915080821115615bea57600080fd5b615bf6858386016155b9565b60c084015260e0840151915080821115615c0f57600080fd5b615c1b858386016155b9565b60e084015261010091508184015181811115615c3657600080fd5b615c42868287016155b9565b8385015250505061012080830151818301525061014080830151818301525061016080830151818301525092915050565b60006020808385031215615c8657600080fd5b825167ffffffffffffffff80821115615c9e57600080fd5b818501915085601f830112615cb257600080fd5b8151615cc0614c6282614bf5565b81815260059190911b83018401908481019088831115615cdf57600080fd5b8585015b8381101561577057805185811115615cfb5760008081fd5b615d098b89838a0101615b5a565b845250918601918601615ce3565b600060208284031215615d2957600080fd5b815167ffffffffffffffff811115615d4057600080fd5b612558848285016157ac565b600060208284031215615d5e57600080fd5b815167ffffffffffffffff811115615d7557600080fd5b6125588482850161561f565b600060208284031215615d9357600080fd5b815167ffffffffffffffff811115615daa57600080fd5b61255884828501615b5a565b600060208284031215615dc857600080fd5b8151612336816149bd565b600073ffffffffffffffffffffffffffffffffffffffff808a16835280891660208401525086604083015285606083015284608083015260e060a0830152615e1e60e0830185614a41565b82810360c0840152615e308185614a41565b9a995050505050505050505056fea26469706673582212205e74950d07174f82c6b8b4c7f7eb618bca83f381c9f9940535a8658aeabc0c4664736f6c634300080c0033",
			"opcodes": "PUSH1 0x80 PUSH1 0x40 MSTORE PUSH2 0x708 PUSH1 0x2 SSTORE PUSH7 0x2386F26FC10000 PUSH1 0x3 SSTORE PUSH1 0x0 PUSH1 0x6 SSTORE PUSH1 0x0 PUSH1 0x7 SSTORE PUSH1 0x0 PUSH1 0x8 SSTORE PUSH1 0x0 PUSH1 0x9 SSTORE PUSH1 0x0 PUSH1 0xA SSTORE PUSH1 0x0 PUSH1 0xB SSTORE PUSH6 0x5AF3107A4000 PUSH1 0xE SSTORE CALLVALUE DUP1 ISZERO PUSH3 0x4A JUMPI PUSH1 0x0 DUP1 REVERT JUMPDEST POP PUSH1 0x40 MLOAD PUSH3 0x5FCD CODESIZE SUB DUP1 PUSH3 0x5FCD DUP4 CODECOPY DUP2 ADD PUSH1 0x40 DUP2 SWAP1 MSTORE PUSH3 0x6D SWAP2 PUSH3 0x117 JUMP JUMPDEST PUSH1 0x0 DUP1 SLOAD PUSH1 0x1 PUSH1 0x1 PUSH1 0xA0 SHL SUB NOT AND CALLER SWAP1 DUP2 OR SWAP1 SWAP2 SSTORE PUSH1 0x40 MLOAD PUSH4 0x9F75F0A3 PUSH1 0xE0 SHL DUP2 MSTORE PUSH1 0x10 PUSH1 0x4 DUP3 ADD MSTORE PUSH1 0x24 DUP2 ADD SWAP2 SWAP1 SWAP2 MSTORE PUSH20 0x0 SWAP1 PUSH4 0x9F75F0A3 SWAP1 PUSH1 0x44 ADD PUSH1 0x0 PUSH1 0x40 MLOAD DUP1 DUP4 SUB DUP2 DUP7 DUP1 EXTCODESIZE ISZERO DUP1 ISZERO PUSH3 0xD6 JUMPI PUSH1 0x0 DUP1 REVERT JUMPDEST POP GAS DELEGATECALL ISZERO DUP1 ISZERO PUSH3 0xEB JUMPI RETURNDATASIZE PUSH1 0x0 DUP1 RETURNDATACOPY RETURNDATASIZE PUSH1 0x0 REVERT JUMPDEST POP POP PUSH1 0x1 DUP1 SLOAD PUSH1 0x1 PUSH1 0x1 PUSH1 0xA0 SHL SUB NOT AND PUSH1 0x1 PUSH1 0x1 PUSH1 0xA0 SHL SUB SWAP5 SWAP1 SWAP5 AND SWAP4 SWAP1 SWAP4 OR SWAP1 SWAP3 SSTORE POP PUSH3 0x149 SWAP1 POP JUMP JUMPDEST PUSH1 0x0 PUSH1 0x20 DUP3 DUP5 SUB SLT ISZERO PUSH3 0x12A JUMPI PUSH1 0x0 DUP1 REVERT JUMPDEST DUP2 MLOAD PUSH1 0x1 PUSH1 0x1 PUSH1 0xA0 SHL SUB DUP2 AND DUP2 EQ PUSH3 0x142 JUMPI PUSH1 0x0 DUP1 REVERT JUMPDEST SWAP4 SWAP3 POP POP POP JUMP JUMPDEST PUSH2 0x5E74 DUP1 PUSH3 0x159 PUSH1 0x0 CODECOPY PUSH1 0x0 RETURN INVALID PUSH1 0x80 PUSH1 0x40 MSTORE PUSH1 0x4 CALLDATASIZE LT PUSH2 0x49E JUMPI PUSH1 0x0 CALLDATALOAD PUSH1 0xE0 SHR DUP1 PUSH4 0x7F66EF3B GT PUSH2 0x25E JUMPI DUP1 PUSH4 0xA50FFDA5 GT PUSH2 0x143 JUMPI DUP1 PUSH4 0xE43E5541 GT PUSH2 0xBB JUMPI DUP1 PUSH4 0xF1850AF8 GT PUSH2 0x8A JUMPI DUP1 PUSH4 0xF2DD4566 GT PUSH2 0x6F JUMPI DUP1 PUSH4 0xF2DD4566 EQ PUSH2 0xD92 JUMPI DUP1 PUSH4 0xF2FDE38B EQ PUSH2 0xDB2 JUMPI DUP1 PUSH4 0xF97B57EC EQ PUSH2 0xDD2 JUMPI PUSH1 0x0 DUP1 REVERT JUMPDEST DUP1 PUSH4 0xF1850AF8 EQ PUSH2 0xD6A JUMPI DUP1 PUSH4 0xF1F959A6 EQ PUSH2 0xD7F JUMPI PUSH1 0x0 DUP1 REVERT JUMPDEST DUP1 PUSH4 0xE43E5541 EQ PUSH2 0xCFF JUMPI DUP1 PUSH4 0xECE76435 EQ PUSH2 0xD1F JUMPI DUP1 PUSH4 0xEED31986 EQ PUSH2 0xD3F JUMPI DUP1 PUSH4 0xF1294EF6 EQ PUSH2 0xD54 JUMPI PUSH1 0x0 DUP1 REVERT JUMPDEST DUP1 PUSH4 0xCEEABBF6 GT PUSH2 0x112 JUMPI DUP1 PUSH4 0xD846CEAE GT PUSH2 0xF7 JUMPI DUP1 PUSH4 0xD846CEAE EQ PUSH2 0xC70 JUMPI DUP1 PUSH4 0xDA37499C EQ PUSH2 0xCA5 JUMPI DUP1 PUSH4 0xDCCB445B EQ PUSH2 0xCD2 JUMPI PUSH1 0x0 DUP1 REVERT JUMPDEST DUP1 PUSH4 0xCEEABBF6 EQ PUSH2 0xC2E JUMPI DUP1 PUSH4 0xD2ACA659 EQ PUSH2 0xC43 JUMPI PUSH1 0x0 DUP1 REVERT JUMPDEST DUP1 PUSH4 0xA50FFDA5 EQ PUSH2 0xBB9 JUMPI DUP1 PUSH4 0xA8D088BB EQ PUSH2 0xBD9 JUMPI DUP1 PUSH4 0xC1C22145 EQ PUSH2 0xBEE JUMPI DUP1 PUSH4 0xC6E64E53 EQ PUSH2 0xC0E JUMPI PUSH1 0x0 DUP1 REVERT JUMPDEST DUP1 PUSH4 0x8DA5CB5B GT PUSH2 0x1D6 JUMPI DUP1 PUSH4 0x9C281430 GT PUSH2 0x1A5 JUMPI DUP1 PUSH4 0x9DB1FF16 GT PUSH2 0x18A JUMPI DUP1 PUSH4 0x9DB1FF16 EQ PUSH2 0xB63 JUMPI DUP1 PUSH4 0x9EDE054C EQ PUSH2 0xB79 JUMPI DUP1 PUSH4 0xA01BAD52 EQ PUSH2 0xB99 JUMPI PUSH1 0x0 DUP1 REVERT JUMPDEST DUP1 PUSH4 0x9C281430 EQ PUSH2 0xB20 JUMPI DUP1 PUSH4 0x9D76EA58 EQ PUSH2 0xB36 JUMPI PUSH1 0x0 DUP1 REVERT JUMPDEST DUP1 PUSH4 0x8DA5CB5B EQ PUSH2 0xA9D JUMPI DUP1 PUSH4 0x9661CB0D EQ PUSH2 0xACA JUMPI DUP1 PUSH4 0x98ADCC97 EQ PUSH2 0xAE0 JUMPI DUP1 PUSH4 0x991D73B5 EQ PUSH2 0xB00 JUMPI PUSH1 0x0 DUP1 REVERT JUMPDEST DUP1 PUSH4 0x862B092B GT PUSH2 0x22D JUMPI DUP1 PUSH4 0x88235D18 GT PUSH2 0x212 JUMPI DUP1 PUSH4 0x88235D18 EQ PUSH2 0xA2D JUMPI DUP1 PUSH4 0x892FF8BD EQ PUSH2 0xA5A JUMPI DUP1 PUSH4 0x8B6ED67D EQ PUSH2 0xA70 JUMPI PUSH1 0x0 DUP1 REVERT JUMPDEST DUP1 PUSH4 0x862B092B EQ PUSH2 0x9DE JUMPI DUP1 PUSH4 0x878D7D87 EQ PUSH2 0xA00 JUMPI PUSH1 0x0 DUP1 REVERT JUMPDEST DUP1 PUSH4 0x7F66EF3B EQ PUSH2 0x95C JUMPI DUP1 PUSH4 0x81B5479D EQ PUSH2 0x989 JUMPI DUP1 PUSH4 0x81D2FD9C EQ PUSH2 0x9A9 JUMPI DUP1 PUSH4 0x82B2E257 EQ PUSH2 0x9C9 JUMPI PUSH1 0x0 DUP1 REVERT JUMPDEST DUP1 PUSH4 0x424F3C8E GT PUSH2 0x384 JUMPI DUP1 PUSH4 0x66EB399F GT PUSH2 0x2FC JUMPI DUP1 PUSH4 0x6F865E6F GT PUSH2 0x2CB JUMPI DUP1 PUSH4 0x76678D84 GT PUSH2 0x2B0 JUMPI DUP1 PUSH4 0x76678D84 EQ PUSH2 0x8CA JUMPI DUP1 PUSH4 0x7ADBF973 EQ PUSH2 0x8EA JUMPI DUP1 PUSH4 0x7DC0D1D0 EQ PUSH2 0x90A JUMPI PUSH1 0x0 DUP1 REVERT JUMPDEST DUP1 PUSH4 0x6F865E6F EQ PUSH2 0x894 JUMPI DUP1 PUSH4 0x713ABEB9 EQ PUSH2 0x8AA JUMPI PUSH1 0x0 DUP1 REVERT JUMPDEST DUP1 PUSH4 0x66EB399F EQ PUSH2 0x825 JUMPI DUP1 PUSH4 0x6B32810B EQ PUSH2 0x845 JUMPI DUP1 PUSH4 0x6CA80026 EQ PUSH2 0x867 JUMPI DUP1 PUSH4 0x6F7AB8D1 EQ PUSH2 0x867 JUMPI PUSH1 0x0 DUP1 REVERT JUMPDEST DUP1 PUSH4 0x59D1BD80 GT PUSH2 0x353 JUMPI DUP1 PUSH4 0x65837E57 GT PUSH2 0x338 JUMPI DUP1 PUSH4 0x65837E57 EQ PUSH2 0x7D0 JUMPI DUP1 PUSH4 0x66059A16 EQ PUSH2 0x7F0 JUMPI DUP1 PUSH4 0x66800995 EQ PUSH2 0x810 JUMPI PUSH1 0x0 DUP1 REVERT JUMPDEST DUP1 PUSH4 0x59D1BD80 EQ PUSH2 0x783 JUMPI DUP1 PUSH4 0x5A2F7133 EQ PUSH2 0x7A3 JUMPI PUSH1 0x0 DUP1 REVERT JUMPDEST DUP1 PUSH4 0x424F3C8E EQ PUSH2 0x718 JUMPI DUP1 PUSH4 0x4F513277 EQ PUSH2 0x738 JUMPI DUP1 PUSH4 0x563D3CA3 EQ PUSH2 0x758 JUMPI DUP1 PUSH4 0x572D4721 EQ PUSH2 0x76E JUMPI PUSH1 0x0 DUP1 REVERT JUMPDEST DUP1 PUSH4 0x21C0B342 GT PUSH2 0x417 JUMPI DUP1 PUSH4 0x2A4E4553 GT PUSH2 0x3E6 JUMPI DUP1 PUSH4 0x384E491D GT PUSH2 0x3CB JUMPI DUP1 PUSH4 0x384E491D EQ PUSH2 0x6B6 JUMPI DUP1 PUSH4 0x4078EEB2 EQ PUSH2 0x6D6 JUMPI DUP1 PUSH4 0x41BE8B94 EQ PUSH2 0x6EB JUMPI PUSH1 0x0 DUP1 REVERT JUMPDEST DUP1 PUSH4 0x2A4E4553 EQ PUSH2 0x676 JUMPI DUP1 PUSH4 0x303F2F0F EQ PUSH2 0x696 JUMPI PUSH1 0x0 DUP1 REVERT JUMPDEST DUP1 PUSH4 0x21C0B342 EQ PUSH2 0x60C JUMPI DUP1 PUSH4 0x24600FC3 EQ PUSH2 0x62C JUMPI DUP1 PUSH4 0x24F65EE7 EQ PUSH2 0x641 JUMPI DUP1 PUSH4 0x26767F90 EQ PUSH2 0x656 JUMPI PUSH1 0x0 DUP1 REVERT JUMPDEST DUP1 PUSH4 0x1654D42C GT PUSH2 0x46E JUMPI DUP1 PUSH4 0x198E14F8 GT PUSH2 0x453 JUMPI DUP1 PUSH4 0x198E14F8 EQ PUSH2 0x59F JUMPI DUP1 PUSH4 0x1DFF6A9F EQ PUSH2 0x5BF JUMPI DUP1 PUSH4 0x1F39CC1B EQ PUSH2 0x5EC JUMPI PUSH1 0x0 DUP1 REVERT JUMPDEST DUP1 PUSH4 0x1654D42C EQ PUSH2 0x559 JUMPI DUP1 PUSH4 0x17FC30D4 EQ PUSH2 0x56F JUMPI PUSH1 0x0 DUP1 REVERT JUMPDEST DUP1 PUSH3 0x75C377 EQ PUSH2 0x4AA JUMPI DUP1 PUSH4 0x410FD63 EQ PUSH2 0x4CC JUMPI DUP1 PUSH4 0x4F32A1D EQ PUSH2 0x50B JUMPI DUP1 PUSH4 0x9BAE513 EQ PUSH2 0x52B JUMPI PUSH1 0x0 DUP1 REVERT JUMPDEST CALLDATASIZE PUSH2 0x4A5 JUMPI STOP JUMPDEST PUSH1 0x0 DUP1 REVERT JUMPDEST CALLVALUE DUP1 ISZERO PUSH2 0x4B6 JUMPI PUSH1 0x0 DUP1 REVERT JUMPDEST POP PUSH2 0x4CA PUSH2 0x4C5 CALLDATASIZE PUSH1 0x4 PUSH2 0x49DF JUMP JUMPDEST PUSH2 0xDFF JUMP JUMPDEST STOP JUMPDEST CALLVALUE DUP1 ISZERO PUSH2 0x4D8 JUMPI PUSH1 0x0 DUP1 REVERT JUMPDEST POP PUSH2 0x4EC PUSH2 0x4E7 CALLDATASIZE PUSH1 0x4 PUSH2 0x49FC JUMP JUMPDEST PUSH2 0xE85 JUMP JUMPDEST PUSH1 0x40 MLOAD PUSH2 0x502 SWAP11 SWAP10 SWAP9 SWAP8 SWAP7 SWAP6 SWAP5 SWAP4 SWAP3 SWAP2 SWAP1 PUSH2 0x4A8B JUMP JUMPDEST PUSH1 0x40 MLOAD DUP1 SWAP2 SUB SWAP1 RETURN JUMPDEST CALLVALUE DUP1 ISZERO PUSH2 0x517 JUMPI PUSH1 0x0 DUP1 REVERT JUMPDEST POP PUSH2 0x4CA PUSH2 0x526 CALLDATASIZE PUSH1 0x4 PUSH2 0x49FC JUMP JUMPDEST PUSH2 0xF81 JUMP JUMPDEST CALLVALUE DUP1 ISZERO PUSH2 0x537 JUMPI PUSH1 0x0 DUP1 REVERT JUMPDEST POP PUSH2 0x54B PUSH2 0x546 CALLDATASIZE PUSH1 0x4 PUSH2 0x49DF JUMP JUMPDEST PUSH2 0x1089 JUMP JUMPDEST PUSH1 0x40 MLOAD SWAP1 DUP2 MSTORE PUSH1 0x20 ADD PUSH2 0x502 JUMP JUMPDEST CALLVALUE DUP1 ISZERO PUSH2 0x565 JUMPI PUSH1 0x0 DUP1 REVERT JUMPDEST POP PUSH2 0x54B PUSH1 0x7 SLOAD DUP2 JUMP JUMPDEST CALLVALUE DUP1 ISZERO PUSH2 0x57B JUMPI PUSH1 0x0 DUP1 REVERT JUMPDEST POP PUSH2 0x58F PUSH2 0x58A CALLDATASIZE PUSH1 0x4 PUSH2 0x49DF JUMP JUMPDEST PUSH2 0x1125 JUMP JUMPDEST PUSH1 0x40 MLOAD SWAP1 ISZERO ISZERO DUP2 MSTORE PUSH1 0x20 ADD PUSH2 0x502 JUMP JUMPDEST CALLVALUE DUP1 ISZERO PUSH2 0x5AB JUMPI PUSH1 0x0 DUP1 REVERT JUMPDEST POP PUSH2 0x58F PUSH2 0x5BA CALLDATASIZE PUSH1 0x4 PUSH2 0x49DF JUMP JUMPDEST PUSH2 0x11BB JUMP JUMPDEST CALLVALUE DUP1 ISZERO PUSH2 0x5CB JUMPI PUSH1 0x0 DUP1 REVERT JUMPDEST POP PUSH2 0x5DF PUSH2 0x5DA CALLDATASIZE PUSH1 0x4 PUSH2 0x4C19 JUMP JUMPDEST PUSH2 0x1243 JUMP JUMPDEST PUSH1 0x40 MLOAD PUSH2 0x502 SWAP2 SWAP1 PUSH2 0x4DA4 JUMP JUMPDEST CALLVALUE DUP1 ISZERO PUSH2 0x5F8 JUMPI PUSH1 0x0 DUP1 REVERT JUMPDEST POP PUSH2 0x4CA PUSH2 0x607 CALLDATASIZE PUSH1 0x4 PUSH2 0x49DF JUMP JUMPDEST PUSH2 0x14D2 JUMP JUMPDEST CALLVALUE DUP1 ISZERO PUSH2 0x618 JUMPI PUSH1 0x0 DUP1 REVERT JUMPDEST POP PUSH2 0x4CA PUSH2 0x627 CALLDATASIZE PUSH1 0x4 PUSH2 0x4E24 JUMP JUMPDEST PUSH2 0x159A JUMP JUMPDEST CALLVALUE DUP1 ISZERO PUSH2 0x638 JUMPI PUSH1 0x0 DUP1 REVERT JUMPDEST POP PUSH2 0x4CA PUSH2 0x1B69 JUMP JUMPDEST CALLVALUE DUP1 ISZERO PUSH2 0x64D JUMPI PUSH1 0x0 DUP1 REVERT JUMPDEST POP PUSH2 0x54B PUSH2 0x1D4A JUMP JUMPDEST CALLVALUE DUP1 ISZERO PUSH2 0x662 JUMPI PUSH1 0x0 DUP1 REVERT JUMPDEST POP PUSH2 0x4CA PUSH2 0x671 CALLDATASIZE PUSH1 0x4 PUSH2 0x4E6B JUMP JUMPDEST PUSH2 0x1DE6 JUMP JUMPDEST CALLVALUE DUP1 ISZERO PUSH2 0x682 JUMPI PUSH1 0x0 DUP1 REVERT JUMPDEST POP PUSH2 0x58F PUSH2 0x691 CALLDATASIZE PUSH1 0x4 PUSH2 0x49DF JUMP JUMPDEST PUSH2 0x1F6F JUMP JUMPDEST CALLVALUE DUP1 ISZERO PUSH2 0x6A2 JUMPI PUSH1 0x0 DUP1 REVERT JUMPDEST POP PUSH2 0x58F PUSH2 0x6B1 CALLDATASIZE PUSH1 0x4 PUSH2 0x49DF JUMP JUMPDEST PUSH2 0x1FE4 JUMP JUMPDEST CALLVALUE DUP1 ISZERO PUSH2 0x6C2 JUMPI PUSH1 0x0 DUP1 REVERT JUMPDEST POP PUSH2 0x4CA PUSH2 0x6D1 CALLDATASIZE PUSH1 0x4 PUSH2 0x4E99 JUMP JUMPDEST PUSH2 0x203D JUMP JUMPDEST CALLVALUE DUP1 ISZERO PUSH2 0x6E2 JUMPI PUSH1 0x0 DUP1 REVERT JUMPDEST POP PUSH2 0x54B PUSH2 0x21E0 JUMP JUMPDEST CALLVALUE DUP1 ISZERO PUSH2 0x6F7 JUMPI PUSH1 0x0 DUP1 REVERT JUMPDEST POP PUSH2 0x70B PUSH2 0x706 CALLDATASIZE PUSH1 0x4 PUSH2 0x4EC5 JUMP JUMPDEST PUSH2 0x2279 JUMP JUMPDEST PUSH1 0x40 MLOAD PUSH2 0x502 SWAP2 SWAP1 PUSH2 0x4F8D JUMP JUMPDEST CALLVALUE DUP1 ISZERO PUSH2 0x724 JUMPI PUSH1 0x0 DUP1 REVERT JUMPDEST POP PUSH2 0x4CA PUSH2 0x733 CALLDATASIZE PUSH1 0x4 PUSH2 0x5097 JUMP JUMPDEST PUSH2 0x233D JUMP JUMPDEST CALLVALUE DUP1 ISZERO PUSH2 0x744 JUMPI PUSH1 0x0 DUP1 REVERT JUMPDEST POP PUSH2 0x5DF PUSH2 0x753 CALLDATASIZE PUSH1 0x4 PUSH2 0x50E7 JUMP JUMPDEST PUSH2 0x2493 JUMP JUMPDEST CALLVALUE DUP1 ISZERO PUSH2 0x764 JUMPI PUSH1 0x0 DUP1 REVERT JUMPDEST POP PUSH2 0x54B PUSH1 0x2 SLOAD DUP2 JUMP JUMPDEST CALLVALUE DUP1 ISZERO PUSH2 0x77A JUMPI PUSH1 0x0 DUP1 REVERT JUMPDEST POP PUSH2 0x5DF PUSH2 0x2560 JUMP JUMPDEST CALLVALUE DUP1 ISZERO PUSH2 0x78F JUMPI PUSH1 0x0 DUP1 REVERT JUMPDEST POP PUSH2 0x4CA PUSH2 0x79E CALLDATASIZE PUSH1 0x4 PUSH2 0x4E99 JUMP JUMPDEST PUSH2 0x27D9 JUMP JUMPDEST CALLVALUE DUP1 ISZERO PUSH2 0x7AF JUMPI PUSH1 0x0 DUP1 REVERT JUMPDEST POP PUSH2 0x7C3 PUSH2 0x7BE CALLDATASIZE PUSH1 0x4 PUSH2 0x4EC5 JUMP JUMPDEST PUSH2 0x2936 JUMP JUMPDEST PUSH1 0x40 MLOAD PUSH2 0x502 SWAP2 SWAP1 PUSH2 0x511C JUMP JUMPDEST CALLVALUE DUP1 ISZERO PUSH2 0x7DC JUMPI PUSH1 0x0 DUP1 REVERT JUMPDEST POP PUSH2 0x5DF PUSH2 0x7EB CALLDATASIZE PUSH1 0x4 PUSH2 0x50E7 JUMP JUMPDEST PUSH2 0x29F3 JUMP JUMPDEST CALLVALUE DUP1 ISZERO PUSH2 0x7FC JUMPI PUSH1 0x0 DUP1 REVERT JUMPDEST POP PUSH2 0x4CA PUSH2 0x80B CALLDATASIZE PUSH1 0x4 PUSH2 0x4E99 JUMP JUMPDEST PUSH2 0x2AD1 JUMP JUMPDEST CALLVALUE DUP1 ISZERO PUSH2 0x81C JUMPI PUSH1 0x0 DUP1 REVERT JUMPDEST POP PUSH2 0x54B PUSH2 0x2C2E JUMP JUMPDEST CALLVALUE DUP1 ISZERO PUSH2 0x831 JUMPI PUSH1 0x0 DUP1 REVERT JUMPDEST POP PUSH2 0x4CA PUSH2 0x840 CALLDATASIZE PUSH1 0x4 PUSH2 0x4E6B JUMP JUMPDEST PUSH2 0x2C9E JUMP JUMPDEST CALLVALUE DUP1 ISZERO PUSH2 0x851 JUMPI PUSH1 0x0 DUP1 REVERT JUMPDEST POP PUSH2 0x85A PUSH2 0x2DFC JUMP JUMPDEST PUSH1 0x40 MLOAD PUSH2 0x502 SWAP2 SWAP1 PUSH2 0x51E0 JUMP JUMPDEST CALLVALUE DUP1 ISZERO PUSH2 0x873 JUMPI PUSH1 0x0 DUP1 REVERT JUMPDEST POP PUSH2 0x887 PUSH2 0x882 CALLDATASIZE PUSH1 0x4 PUSH2 0x49FC JUMP JUMPDEST PUSH2 0x2EB2 JUMP JUMPDEST PUSH1 0x40 MLOAD PUSH2 0x502 SWAP2 SWAP1 PUSH2 0x523A JUMP JUMPDEST CALLVALUE DUP1 ISZERO PUSH2 0x8A0 JUMPI PUSH1 0x0 DUP1 REVERT JUMPDEST POP PUSH2 0x54B PUSH1 0x9 SLOAD DUP2 JUMP JUMPDEST CALLVALUE DUP1 ISZERO PUSH2 0x8B6 JUMPI PUSH1 0x0 DUP1 REVERT JUMPDEST POP PUSH2 0x4CA PUSH2 0x8C5 CALLDATASIZE PUSH1 0x4 PUSH2 0x49DF JUMP JUMPDEST PUSH2 0x3091 JUMP JUMPDEST CALLVALUE DUP1 ISZERO PUSH2 0x8D6 JUMPI PUSH1 0x0 DUP1 REVERT JUMPDEST POP PUSH2 0x4CA PUSH2 0x8E5 CALLDATASIZE PUSH1 0x4 PUSH2 0x5097 JUMP JUMPDEST PUSH2 0x3159 JUMP JUMPDEST CALLVALUE DUP1 ISZERO PUSH2 0x8F6 JUMPI PUSH1 0x0 DUP1 REVERT JUMPDEST POP PUSH2 0x4CA PUSH2 0x905 CALLDATASIZE PUSH1 0x4 PUSH2 0x49DF JUMP JUMPDEST PUSH2 0x32AF JUMP JUMPDEST CALLVALUE DUP1 ISZERO PUSH2 0x916 JUMPI PUSH1 0x0 DUP1 REVERT JUMPDEST POP PUSH1 0x12 SLOAD PUSH2 0x937 SWAP1 PUSH20 0xFFFFFFFFFFFFFFFFFFFFFFFFFFFFFFFFFFFFFFFF AND DUP2 JUMP JUMPDEST PUSH1 0x40 MLOAD PUSH20 0xFFFFFFFFFFFFFFFFFFFFFFFFFFFFFFFFFFFFFFFF SWAP1 SWAP2 AND DUP2 MSTORE PUSH1 0x20 ADD PUSH2 0x502 JUMP JUMPDEST CALLVALUE DUP1 ISZERO PUSH2 0x968 JUMPI PUSH1 0x0 DUP1 REVERT JUMPDEST POP PUSH2 0x97C PUSH2 0x977 CALLDATASIZE PUSH1 0x4 PUSH2 0x524D JUMP JUMPDEST PUSH2 0x3377 JUMP JUMPDEST PUSH1 0x40 MLOAD PUSH2 0x502 SWAP2 SWAP1 PUSH2 0x5345 JUMP JUMPDEST CALLVALUE DUP1 ISZERO PUSH2 0x995 JUMPI PUSH1 0x0 DUP1 REVERT JUMPDEST POP PUSH2 0x887 PUSH2 0x9A4 CALLDATASIZE PUSH1 0x4 PUSH2 0x49DF JUMP JUMPDEST PUSH2 0x342E JUMP JUMPDEST CALLVALUE DUP1 ISZERO PUSH2 0x9B5 JUMPI PUSH1 0x0 DUP1 REVERT JUMPDEST POP PUSH2 0x4CA PUSH2 0x9C4 CALLDATASIZE PUSH1 0x4 PUSH2 0x49FC JUMP JUMPDEST PUSH2 0x35C0 JUMP JUMPDEST CALLVALUE DUP1 ISZERO PUSH2 0x9D5 JUMPI PUSH1 0x0 DUP1 REVERT JUMPDEST POP PUSH2 0x54B PUSH2 0x3646 JUMP JUMPDEST CALLVALUE DUP1 ISZERO PUSH2 0x9EA JUMPI PUSH1 0x0 DUP1 REVERT JUMPDEST POP PUSH2 0x9F3 PUSH2 0x36B5 JUMP JUMPDEST PUSH1 0x40 MLOAD PUSH2 0x502 SWAP2 SWAP1 PUSH2 0x53B8 JUMP JUMPDEST CALLVALUE DUP1 ISZERO PUSH2 0xA0C JUMPI PUSH1 0x0 DUP1 REVERT JUMPDEST POP PUSH2 0xA20 PUSH2 0xA1B CALLDATASIZE PUSH1 0x4 PUSH2 0x49DF JUMP JUMPDEST PUSH2 0x376B JUMP JUMPDEST PUSH1 0x40 MLOAD PUSH2 0x502 SWAP2 SWAP1 PUSH2 0x53CB JUMP JUMPDEST CALLVALUE DUP1 ISZERO PUSH2 0xA39 JUMPI PUSH1 0x0 DUP1 REVERT JUMPDEST POP PUSH2 0xA4D PUSH2 0xA48 CALLDATASIZE PUSH1 0x4 PUSH2 0x4E6B JUMP JUMPDEST PUSH2 0x3872 JUMP JUMPDEST PUSH1 0x40 MLOAD PUSH2 0x502 SWAP2 SWAP1 PUSH2 0x53DE JUMP JUMPDEST CALLVALUE DUP1 ISZERO PUSH2 0xA66 JUMPI PUSH1 0x0 DUP1 REVERT JUMPDEST POP PUSH2 0x54B PUSH1 0xE SLOAD DUP2 JUMP JUMPDEST CALLVALUE DUP1 ISZERO PUSH2 0xA7C JUMPI PUSH1 0x0 DUP1 REVERT JUMPDEST POP PUSH1 0xD SLOAD PUSH2 0x937 SWAP1 PUSH20 0xFFFFFFFFFFFFFFFFFFFFFFFFFFFFFFFFFFFFFFFF AND DUP2 JUMP JUMPDEST CALLVALUE DUP1 ISZERO PUSH2 0xAA9 JUMPI PUSH1 0x0 DUP1 REVERT JUMPDEST POP PUSH1 0x0 SLOAD PUSH2 0x937 SWAP1 PUSH20 0xFFFFFFFFFFFFFFFFFFFFFFFFFFFFFFFFFFFFFFFF AND DUP2 JUMP JUMPDEST CALLVALUE DUP1 ISZERO PUSH2 0xAD6 JUMPI PUSH1 0x0 DUP1 REVERT JUMPDEST POP PUSH2 0x54B PUSH1 0xA SLOAD DUP2 JUMP JUMPDEST CALLVALUE DUP1 ISZERO PUSH2 0xAEC JUMPI PUSH1 0x0 DUP1 REVERT JUMPDEST POP PUSH2 0x85A PUSH2 0xAFB CALLDATASIZE PUSH1 0x4 PUSH2 0x4EC5 JUMP JUMPDEST PUSH2 0x39AA JUMP JUMPDEST CALLVALUE DUP1 ISZERO PUSH2 0xB0C JUMPI PUSH1 0x0 DUP1 REVERT JUMPDEST POP PUSH2 0x9F3 PUSH2 0xB1B CALLDATASIZE PUSH1 0x4 PUSH2 0x49DF JUMP JUMPDEST PUSH2 0x3A67 JUMP JUMPDEST CALLVALUE DUP1 ISZERO PUSH2 0xB2C JUMPI PUSH1 0x0 DUP1 REVERT JUMPDEST POP PUSH2 0x54B PUSH1 0x3 SLOAD DUP2 JUMP JUMPDEST CALLVALUE DUP1 ISZERO PUSH2 0xB42 JUMPI PUSH1 0x0 DUP1 REVERT JUMPDEST POP PUSH1 0x1 SLOAD PUSH2 0x937 SWAP1 PUSH20 0xFFFFFFFFFFFFFFFFFFFFFFFFFFFFFFFFFFFFFFFF AND DUP2 JUMP JUMPDEST CALLVALUE DUP1 ISZERO PUSH2 0xB6F JUMPI PUSH1 0x0 DUP1 REVERT JUMPDEST POP PUSH2 0x54B PUSH1 0x8 SLOAD DUP2 JUMP JUMPDEST CALLVALUE DUP1 ISZERO PUSH2 0xB85 JUMPI PUSH1 0x0 DUP1 REVERT JUMPDEST POP PUSH2 0x937 PUSH2 0xB94 CALLDATASIZE PUSH1 0x4 PUSH2 0x49DF JUMP JUMPDEST PUSH2 0x3B1E JUMP JUMPDEST CALLVALUE DUP1 ISZERO PUSH2 0xBA5 JUMPI PUSH1 0x0 DUP1 REVERT JUMPDEST POP PUSH2 0x4CA PUSH2 0xBB4 CALLDATASIZE PUSH1 0x4 PUSH2 0x49FC JUMP JUMPDEST PUSH2 0x3BB3 JUMP JUMPDEST CALLVALUE DUP1 ISZERO PUSH2 0xBC5 JUMPI PUSH1 0x0 DUP1 REVERT JUMPDEST POP PUSH2 0x54B PUSH2 0xBD4 CALLDATASIZE PUSH1 0x4 PUSH2 0x49DF JUMP JUMPDEST PUSH2 0x3C39 JUMP JUMPDEST CALLVALUE DUP1 ISZERO PUSH2 0xBE5 JUMPI PUSH1 0x0 DUP1 REVERT JUMPDEST POP PUSH2 0x85A PUSH2 0x3C92 JUMP JUMPDEST CALLVALUE DUP1 ISZERO PUSH2 0xBFA JUMPI PUSH1 0x0 DUP1 REVERT JUMPDEST POP PUSH2 0x4CA PUSH2 0xC09 CALLDATASIZE PUSH1 0x4 PUSH2 0x49DF JUMP JUMPDEST PUSH2 0x3D0C JUMP JUMPDEST CALLVALUE DUP1 ISZERO PUSH2 0xC1A JUMPI PUSH1 0x0 DUP1 REVERT JUMPDEST POP PUSH2 0x937 PUSH2 0xC29 CALLDATASIZE PUSH1 0x4 PUSH2 0x53F1 JUMP JUMPDEST PUSH2 0x3DD4 JUMP JUMPDEST CALLVALUE DUP1 ISZERO PUSH2 0xC3A JUMPI PUSH1 0x0 DUP1 REVERT JUMPDEST POP PUSH2 0x54B PUSH2 0x440A JUMP JUMPDEST CALLVALUE DUP1 ISZERO PUSH2 0xC4F JUMPI PUSH1 0x0 DUP1 REVERT JUMPDEST POP PUSH1 0xF SLOAD PUSH2 0x937 SWAP1 PUSH20 0xFFFFFFFFFFFFFFFFFFFFFFFFFFFFFFFFFFFFFFFF AND DUP2 JUMP JUMPDEST CALLVALUE DUP1 ISZERO PUSH2 0xC7C JUMPI PUSH1 0x0 DUP1 REVERT JUMPDEST POP PUSH2 0x54B PUSH2 0xC8B CALLDATASIZE PUSH1 0x4 PUSH2 0x49DF JUMP JUMPDEST PUSH20 0xFFFFFFFFFFFFFFFFFFFFFFFFFFFFFFFFFFFFFFFF AND BALANCE SWAP1 JUMP JUMPDEST CALLVALUE DUP1 ISZERO PUSH2 0xCB1 JUMPI PUSH1 0x0 DUP1 REVERT JUMPDEST POP PUSH1 0x13 SLOAD PUSH2 0x937 SWAP1 PUSH20 0xFFFFFFFFFFFFFFFFFFFFFFFFFFFFFFFFFFFFFFFF AND DUP2 JUMP JUMPDEST CALLVALUE DUP1 ISZERO PUSH2 0xCDE JUMPI PUSH1 0x0 DUP1 REVERT JUMPDEST POP PUSH2 0x54B PUSH2 0xCED CALLDATASIZE PUSH1 0x4 PUSH2 0x49DF JUMP JUMPDEST PUSH1 0x5 PUSH1 0x20 MSTORE PUSH1 0x0 SWAP1 DUP2 MSTORE PUSH1 0x40 SWAP1 KECCAK256 SLOAD DUP2 JUMP JUMPDEST CALLVALUE DUP1 ISZERO PUSH2 0xD0B JUMPI PUSH1 0x0 DUP1 REVERT JUMPDEST POP PUSH2 0x5DF PUSH2 0xD1A CALLDATASIZE PUSH1 0x4 PUSH2 0x50E7 JUMP JUMPDEST PUSH2 0x4476 JUMP JUMPDEST CALLVALUE DUP1 ISZERO PUSH2 0xD2B JUMPI PUSH1 0x0 DUP1 REVERT JUMPDEST POP PUSH2 0x4CA PUSH2 0xD3A CALLDATASIZE PUSH1 0x4 PUSH2 0x5097 JUMP JUMPDEST PUSH2 0x44E1 JUMP JUMPDEST CALLVALUE DUP1 ISZERO PUSH2 0xD4B JUMPI PUSH1 0x0 DUP1 REVERT JUMPDEST POP PUSH2 0x54B PUSH2 0x4637 JUMP JUMPDEST CALLVALUE DUP1 ISZERO PUSH2 0xD60 JUMPI PUSH1 0x0 DUP1 REVERT JUMPDEST POP PUSH2 0x54B PUSH1 0xB SLOAD DUP2 JUMP JUMPDEST CALLVALUE DUP1 ISZERO PUSH2 0xD76 JUMPI PUSH1 0x0 DUP1 REVERT JUMPDEST POP PUSH2 0x9F3 PUSH2 0x46A7 JUMP JUMPDEST CALLVALUE DUP1 ISZERO PUSH2 0xD8B JUMPI PUSH1 0x0 DUP1 REVERT JUMPDEST POP SELFBALANCE PUSH2 0x54B JUMP JUMPDEST CALLVALUE DUP1 ISZERO PUSH2 0xD9E JUMPI PUSH1 0x0 DUP1 REVERT JUMPDEST POP PUSH2 0x4CA PUSH2 0xDAD CALLDATASIZE PUSH1 0x4 PUSH2 0x49DF JUMP JUMPDEST PUSH2 0x4717 JUMP JUMPDEST CALLVALUE DUP1 ISZERO PUSH2 0xDBE JUMPI PUSH1 0x0 DUP1 REVERT JUMPDEST POP PUSH2 0x4CA PUSH2 0xDCD CALLDATASIZE PUSH1 0x4 PUSH2 0x49DF JUMP JUMPDEST PUSH2 0x47DF JUMP JUMPDEST CALLVALUE DUP1 ISZERO PUSH2 0xDDE JUMPI PUSH1 0x0 DUP1 REVERT JUMPDEST POP PUSH1 0xC SLOAD PUSH2 0x937 SWAP1 PUSH20 0xFFFFFFFFFFFFFFFFFFFFFFFFFFFFFFFFFFFFFFFF AND DUP2 JUMP JUMPDEST PUSH1 0xF SLOAD PUSH1 0x40 MLOAD PUSH31 0x75C37700000000000000000000000000000000000000000000000000000000 DUP2 MSTORE PUSH20 0xFFFFFFFFFFFFFFFFFFFFFFFFFFFFFFFFFFFFFFFF DUP4 DUP2 AND PUSH1 0x4 DUP4 ADD MSTORE SWAP1 SWAP2 AND SWAP1 PUSH3 0x75C377 SWAP1 PUSH1 0x24 ADD PUSH1 0x0 PUSH1 0x40 MLOAD DUP1 DUP4 SUB DUP2 PUSH1 0x0 DUP8 DUP1 EXTCODESIZE ISZERO DUP1 ISZERO PUSH2 0xE6A JUMPI PUSH1 0x0 DUP1 REVERT JUMPDEST POP GAS CALL ISZERO DUP1 ISZERO PUSH2 0xE7E JUMPI RETURNDATASIZE PUSH1 0x0 DUP1 RETURNDATACOPY RETURNDATASIZE PUSH1 0x0 REVERT JUMPDEST POP POP POP POP POP JUMP JUMPDEST PUSH1 0x4 PUSH1 0x20 DUP2 SWAP1 MSTORE PUSH1 0x0 SWAP2 DUP3 MSTORE PUSH1 0x40 SWAP1 SWAP2 KECCAK256 DUP1 SLOAD PUSH1 0x1 DUP3 ADD SLOAD PUSH1 0x2 DUP4 ADD SLOAD PUSH1 0x3 DUP5 ADD SLOAD SWAP5 DUP5 ADD SLOAD PUSH1 0x5 DUP6 ADD SLOAD PUSH1 0x6 DUP7 ADD SLOAD PUSH1 0x7 DUP8 ADD SLOAD PUSH1 0x8 DUP9 ADD SLOAD PUSH1 0x9 DUP10 ADD DUP1 SLOAD SWAP9 SWAP11 SWAP8 SWAP10 PUSH20 0xFFFFFFFFFFFFFFFFFFFFFFFFFFFFFFFFFFFFFFFF SWAP8 DUP9 AND SWAP10 SWAP9 DUP9 AND SWAP9 SWAP7 DUP9 AND SWAP8 SWAP6 SWAP7 SWAP5 SWAP6 SWAP4 SWAP5 SWAP4 SWAP1 SWAP3 AND SWAP3 PUSH2 0xEFE SWAP1 PUSH2 0x5441 JUMP JUMPDEST DUP1 PUSH1 0x1F ADD PUSH1 0x20 DUP1 SWAP2 DIV MUL PUSH1 0x20 ADD PUSH1 0x40 MLOAD SWAP1 DUP2 ADD PUSH1 0x40 MSTORE DUP1 SWAP3 SWAP2 SWAP1 DUP2 DUP2 MSTORE PUSH1 0x20 ADD DUP3 DUP1 SLOAD PUSH2 0xF2A SWAP1 PUSH2 0x5441 JUMP JUMPDEST DUP1 ISZERO PUSH2 0xF77 JUMPI DUP1 PUSH1 0x1F LT PUSH2 0xF4C JUMPI PUSH2 0x100 DUP1 DUP4 SLOAD DIV MUL DUP4 MSTORE SWAP2 PUSH1 0x20 ADD SWAP2 PUSH2 0xF77 JUMP JUMPDEST DUP3 ADD SWAP2 SWAP1 PUSH1 0x0 MSTORE PUSH1 0x20 PUSH1 0x0 KECCAK256 SWAP1 JUMPDEST DUP2 SLOAD DUP2 MSTORE SWAP1 PUSH1 0x1 ADD SWAP1 PUSH1 0x20 ADD DUP1 DUP4 GT PUSH2 0xF5A JUMPI DUP3 SWAP1 SUB PUSH1 0x1F AND DUP3 ADD SWAP2 JUMPDEST POP POP POP POP POP SWAP1 POP DUP11 JUMP JUMPDEST PUSH1 0x40 MLOAD PUSH32 0x2FC4D79200000000000000000000000000000000000000000000000000000000 DUP2 MSTORE PUSH1 0x10 PUSH1 0x4 DUP3 ADD MSTORE CALLER PUSH1 0x24 DUP3 ADD MSTORE PUSH20 0x0 SWAP1 PUSH4 0x2FC4D792 SWAP1 PUSH1 0x44 ADD PUSH1 0x20 PUSH1 0x40 MLOAD DUP1 DUP4 SUB DUP2 DUP7 GAS DELEGATECALL ISZERO DUP1 ISZERO PUSH2 0xFF0 JUMPI RETURNDATASIZE PUSH1 0x0 DUP1 RETURNDATACOPY RETURNDATASIZE PUSH1 0x0 REVERT JUMPDEST POP POP POP POP PUSH1 0x40 MLOAD RETURNDATASIZE PUSH1 0x1F NOT PUSH1 0x1F DUP3 ADD AND DUP3 ADD DUP1 PUSH1 0x40 MSTORE POP DUP2 ADD SWAP1 PUSH2 0x1014 SWAP2 SWAP1 PUSH2 0x548F JUMP JUMPDEST ISZERO ISZERO PUSH1 0x1 EQ PUSH2 0x1084 JUMPI PUSH1 0x40 MLOAD PUSH32 0x8C379A000000000000000000000000000000000000000000000000000000000 DUP2 MSTORE PUSH1 0x20 PUSH1 0x4 DUP3 ADD MSTORE PUSH1 0x11 PUSH1 0x24 DUP3 ADD MSTORE PUSH32 0x4F6E6C7920666F72206D616E6167657273000000000000000000000000000000 PUSH1 0x44 DUP3 ADD MSTORE PUSH1 0x64 ADD JUMPDEST PUSH1 0x40 MLOAD DUP1 SWAP2 SUB SWAP1 REVERT JUMPDEST PUSH1 0xE SSTORE JUMP JUMPDEST PUSH1 0xF SLOAD PUSH1 0x40 MLOAD PUSH32 0x2BA33DB400000000000000000000000000000000000000000000000000000000 DUP2 MSTORE PUSH20 0xFFFFFFFFFFFFFFFFFFFFFFFFFFFFFFFFFFFFFFFF DUP4 DUP2 AND PUSH1 0x4 DUP4 ADD MSTORE PUSH1 0x0 SWAP3 AND SWAP1 PUSH4 0x2BA33DB4 SWAP1 PUSH1 0x24 ADD JUMPDEST PUSH1 0x20 PUSH1 0x40 MLOAD DUP1 DUP4 SUB DUP2 DUP7 GAS STATICCALL ISZERO DUP1 ISZERO PUSH2 0x10FB JUMPI RETURNDATASIZE PUSH1 0x0 DUP1 RETURNDATACOPY RETURNDATASIZE PUSH1 0x0 REVERT JUMPDEST POP POP POP POP PUSH1 0x40 MLOAD RETURNDATASIZE PUSH1 0x1F NOT PUSH1 0x1F DUP3 ADD AND DUP3 ADD DUP1 PUSH1 0x40 MSTORE POP DUP2 ADD SWAP1 PUSH2 0x111F SWAP2 SWAP1 PUSH2 0x54AC JUMP JUMPDEST SWAP3 SWAP2 POP POP JUMP JUMPDEST PUSH1 0xC SLOAD PUSH1 0x40 MLOAD PUSH32 0x17FC30D400000000000000000000000000000000000000000000000000000000 DUP2 MSTORE PUSH20 0xFFFFFFFFFFFFFFFFFFFFFFFFFFFFFFFFFFFFFFFF DUP4 DUP2 AND PUSH1 0x4 DUP4 ADD MSTORE PUSH1 0x0 SWAP3 AND SWAP1 PUSH4 0x17FC30D4 SWAP1 PUSH1 0x24 ADD JUMPDEST PUSH1 0x20 PUSH1 0x40 MLOAD DUP1 DUP4 SUB DUP2 DUP7 GAS STATICCALL ISZERO DUP1 ISZERO PUSH2 0x1197 JUMPI RETURNDATASIZE PUSH1 0x0 DUP1 RETURNDATACOPY RETURNDATASIZE PUSH1 0x0 REVERT JUMPDEST POP POP POP POP PUSH1 0x40 MLOAD RETURNDATASIZE PUSH1 0x1F NOT PUSH1 0x1F DUP3 ADD AND DUP3 ADD DUP1 PUSH1 0x40 MSTORE POP DUP2 ADD SWAP1 PUSH2 0x111F SWAP2 SWAP1 PUSH2 0x548F JUMP JUMPDEST PUSH1 0x40 MLOAD PUSH32 0x2FC4D79200000000000000000000000000000000000000000000000000000000 DUP2 MSTORE PUSH1 0x10 PUSH1 0x4 DUP3 ADD MSTORE PUSH20 0xFFFFFFFFFFFFFFFFFFFFFFFFFFFFFFFFFFFFFFFF DUP3 AND PUSH1 0x24 DUP3 ADD MSTORE PUSH1 0x0 SWAP1 PUSH20 0x0 SWAP1 PUSH4 0x2FC4D792 SWAP1 PUSH1 0x44 ADD PUSH1 0x20 PUSH1 0x40 MLOAD DUP1 DUP4 SUB DUP2 DUP7 GAS DELEGATECALL ISZERO DUP1 ISZERO PUSH2 0x1197 JUMPI RETURNDATASIZE PUSH1 0x0 DUP1 RETURNDATACOPY RETURNDATASIZE PUSH1 0x0 REVERT JUMPDEST PUSH1 0x60 PUSH1 0x0 DUP3 MLOAD PUSH8 0xFFFFFFFFFFFFFFFF DUP2 GT ISZERO PUSH2 0x1261 JUMPI PUSH2 0x1261 PUSH2 0x4B06 JUMP JUMPDEST PUSH1 0x40 MLOAD SWAP1 DUP1 DUP3 MSTORE DUP1 PUSH1 0x20 MUL PUSH1 0x20 ADD DUP3 ADD PUSH1 0x40 MSTORE DUP1 ISZERO PUSH2 0x1340 JUMPI DUP2 PUSH1 0x20 ADD JUMPDEST PUSH2 0x132D PUSH1 0x40 MLOAD DUP1 PUSH2 0x140 ADD PUSH1 0x40 MSTORE DUP1 PUSH1 0x0 DUP2 MSTORE PUSH1 0x20 ADD PUSH1 0x0 DUP2 MSTORE PUSH1 0x20 ADD PUSH1 0x0 PUSH20 0xFFFFFFFFFFFFFFFFFFFFFFFFFFFFFFFFFFFFFFFF AND DUP2 MSTORE PUSH1 0x20 ADD PUSH1 0x0 PUSH20 0xFFFFFFFFFFFFFFFFFFFFFFFFFFFFFFFFFFFFFFFF AND DUP2 MSTORE PUSH1 0x20 ADD PUSH1 0x0 PUSH20 0xFFFFFFFFFFFFFFFFFFFFFFFFFFFFFFFFFFFFFFFF AND DUP2 MSTORE PUSH1 0x20 ADD PUSH1 0x0 DUP2 MSTORE PUSH1 0x20 ADD PUSH1 0x0 DUP2 MSTORE PUSH1 0x20 ADD PUSH1 0x0 DUP2 MSTORE PUSH1 0x20 ADD PUSH1 0x0 PUSH20 0xFFFFFFFFFFFFFFFFFFFFFFFFFFFFFFFFFFFFFFFF AND DUP2 MSTORE PUSH1 0x20 ADD PUSH1 0x60 DUP2 MSTORE POP SWAP1 JUMP JUMPDEST DUP2 MSTORE PUSH1 0x20 ADD SWAP1 PUSH1 0x1 SWAP1 SUB SWAP1 DUP2 PUSH2 0x127F JUMPI SWAP1 POP JUMPDEST POP SWAP1 POP PUSH1 0x0 JUMPDEST DUP4 MLOAD DUP2 LT ISZERO PUSH2 0x14CB JUMPI PUSH1 0x4 PUSH1 0x0 DUP6 DUP4 DUP2 MLOAD DUP2 LT PUSH2 0x1365 JUMPI PUSH2 0x1365 PUSH2 0x54C5 JUMP JUMPDEST PUSH1 0x20 SWAP1 DUP2 MUL SWAP2 SWAP1 SWAP2 ADD DUP2 ADD MLOAD DUP3 MSTORE DUP2 DUP2 ADD SWAP3 SWAP1 SWAP3 MSTORE PUSH1 0x40 SWAP1 DUP2 ADD PUSH1 0x0 KECCAK256 DUP2 MLOAD PUSH2 0x140 DUP2 ADD DUP4 MSTORE DUP2 SLOAD DUP2 MSTORE PUSH1 0x1 DUP3 ADD SLOAD SWAP4 DUP2 ADD SWAP4 SWAP1 SWAP4 MSTORE PUSH1 0x2 DUP2 ADD SLOAD PUSH20 0xFFFFFFFFFFFFFFFFFFFFFFFFFFFFFFFFFFFFFFFF SWAP1 DUP2 AND SWAP3 DUP5 ADD SWAP3 SWAP1 SWAP3 MSTORE PUSH1 0x3 DUP2 ADD SLOAD DUP3 AND PUSH1 0x60 DUP5 ADD MSTORE PUSH1 0x4 DUP2 ADD SLOAD DUP3 AND PUSH1 0x80 DUP5 ADD MSTORE PUSH1 0x5 DUP2 ADD SLOAD PUSH1 0xA0 DUP5 ADD MSTORE PUSH1 0x6 DUP2 ADD SLOAD PUSH1 0xC0 DUP5 ADD MSTORE PUSH1 0x7 DUP2 ADD SLOAD PUSH1 0xE0 DUP5 ADD MSTORE PUSH1 0x8 DUP2 ADD SLOAD SWAP1 SWAP2 AND PUSH2 0x100 DUP4 ADD MSTORE PUSH1 0x9 DUP2 ADD DUP1 SLOAD PUSH2 0x120 DUP5 ADD SWAP2 SWAP1 PUSH2 0x1419 SWAP1 PUSH2 0x5441 JUMP JUMPDEST DUP1 PUSH1 0x1F ADD PUSH1 0x20 DUP1 SWAP2 DIV MUL PUSH1 0x20 ADD PUSH1 0x40 MLOAD SWAP1 DUP2 ADD PUSH1 0x40 MSTORE DUP1 SWAP3 SWAP2 SWAP1 DUP2 DUP2 MSTORE PUSH1 0x20 ADD DUP3 DUP1 SLOAD PUSH2 0x1445 SWAP1 PUSH2 0x5441 JUMP JUMPDEST DUP1 ISZERO PUSH2 0x1492 JUMPI DUP1 PUSH1 0x1F LT PUSH2 0x1467 JUMPI PUSH2 0x100 DUP1 DUP4 SLOAD DIV MUL DUP4 MSTORE SWAP2 PUSH1 0x20 ADD SWAP2 PUSH2 0x1492 JUMP JUMPDEST DUP3 ADD SWAP2 SWAP1 PUSH1 0x0 MSTORE PUSH1 0x20 PUSH1 0x0 KECCAK256 SWAP1 JUMPDEST DUP2 SLOAD DUP2 MSTORE SWAP1 PUSH1 0x1 ADD SWAP1 PUSH1 0x20 ADD DUP1 DUP4 GT PUSH2 0x1475 JUMPI DUP3 SWAP1 SUB PUSH1 0x1F AND DUP3 ADD SWAP2 JUMPDEST POP POP POP POP POP DUP2 MSTORE POP POP DUP3 DUP3 DUP2 MLOAD DUP2 LT PUSH2 0x14AD JUMPI PUSH2 0x14AD PUSH2 0x54C5 JUMP JUMPDEST PUSH1 0x20 MUL PUSH1 0x20 ADD ADD DUP2 SWAP1 MSTORE POP DUP1 DUP1 PUSH2 0x14C3 SWAP1 PUSH2 0x5523 JUMP JUMPDEST SWAP2 POP POP PUSH2 0x1346 JUMP JUMPDEST POP SWAP3 SWAP2 POP POP JUMP JUMPDEST PUSH1 0x0 SLOAD PUSH20 0xFFFFFFFFFFFFFFFFFFFFFFFFFFFFFFFFFFFFFFFF AND CALLER EQ PUSH2 0x1553 JUMPI PUSH1 0x40 MLOAD PUSH32 0x8C379A000000000000000000000000000000000000000000000000000000000 DUP2 MSTORE PUSH1 0x20 PUSH1 0x4 DUP3 ADD MSTORE PUSH1 0xE PUSH1 0x24 DUP3 ADD MSTORE PUSH32 0x4F6E6C7920666F72206F776E6572000000000000000000000000000000000000 PUSH1 0x44 DUP3 ADD MSTORE PUSH1 0x64 ADD PUSH2 0x107B JUMP JUMPDEST PUSH1 0x13 DUP1 SLOAD PUSH32 0xFFFFFFFFFFFFFFFFFFFFFFFF0000000000000000000000000000000000000000 AND PUSH20 0xFFFFFFFFFFFFFFFFFFFFFFFFFFFFFFFFFFFFFFFF SWAP3 SWAP1 SWAP3 AND SWAP2 SWAP1 SWAP2 OR SWAP1 SSTORE JUMP JUMPDEST CALLER PUSH1 0x0 SWAP1 DUP2 MSTORE PUSH1 0x5 PUSH1 0x20 MSTORE PUSH1 0x40 SWAP1 KECCAK256 SLOAD PUSH2 0x1610 JUMPI PUSH1 0x40 MLOAD PUSH32 0x8C379A000000000000000000000000000000000000000000000000000000000 DUP2 MSTORE PUSH1 0x20 PUSH1 0x4 DUP3 ADD MSTORE PUSH1 0x14 PUSH1 0x24 DUP3 ADD MSTORE PUSH32 0x43616C6C206E6F742066726F6D20726F75746572000000000000000000000000 PUSH1 0x44 DUP3 ADD MSTORE PUSH1 0x64 ADD PUSH2 0x107B JUMP JUMPDEST CALLER PUSH1 0x0 SWAP1 DUP2 MSTORE PUSH1 0x5 PUSH1 0x20 DUP2 DUP2 MSTORE PUSH1 0x40 DUP1 DUP5 KECCAK256 SLOAD DUP1 DUP6 MSTORE PUSH1 0x4 SWAP1 SWAP3 MSTORE SWAP1 SWAP3 KECCAK256 ADD SLOAD PUSH2 0x1696 JUMPI PUSH1 0x40 MLOAD PUSH32 0x8C379A000000000000000000000000000000000000000000000000000000000 DUP2 MSTORE PUSH1 0x20 PUSH1 0x4 DUP3 ADD MSTORE PUSH1 0x18 PUSH1 0x24 DUP3 ADD MSTORE PUSH32 0x5468697320636F6465206E6F74206D696E746564207965740000000000000000 PUSH1 0x44 DUP3 ADD MSTORE PUSH1 0x64 ADD PUSH2 0x107B JUMP JUMPDEST PUSH1 0x0 DUP2 DUP2 MSTORE PUSH1 0x4 PUSH1 0x20 MSTORE PUSH1 0x40 SWAP1 KECCAK256 PUSH1 0x6 ADD SLOAD ISZERO PUSH2 0x170F JUMPI PUSH1 0x40 MLOAD PUSH32 0x8C379A000000000000000000000000000000000000000000000000000000000 DUP2 MSTORE PUSH1 0x20 PUSH1 0x4 DUP3 ADD MSTORE PUSH1 0x19 PUSH1 0x24 DUP3 ADD MSTORE PUSH32 0x5468697320636F646520616C726561647920636C61696D656400000000000000 PUSH1 0x44 DUP3 ADD MSTORE PUSH1 0x64 ADD PUSH2 0x107B JUMP JUMPDEST PUSH1 0x0 DUP2 DUP2 MSTORE PUSH1 0x4 PUSH1 0x20 MSTORE PUSH1 0x40 SWAP1 KECCAK256 PUSH1 0x7 DUP2 ADD SLOAD PUSH1 0x5 SWAP1 SWAP2 ADD SLOAD TIMESTAMP SWAP2 PUSH2 0x1733 SWAP2 PUSH2 0x555C JUMP JUMPDEST GT PUSH2 0x179A JUMPI PUSH1 0x40 MLOAD PUSH32 0x8C379A000000000000000000000000000000000000000000000000000000000 DUP2 MSTORE PUSH1 0x20 PUSH1 0x4 DUP3 ADD MSTORE PUSH1 0x11 PUSH1 0x24 DUP3 ADD MSTORE PUSH32 0x5172436F64652069732065787069726564000000000000000000000000000000 PUSH1 0x44 DUP3 ADD MSTORE PUSH1 0x64 ADD PUSH2 0x107B JUMP JUMPDEST PUSH1 0xD SLOAD PUSH1 0x0 DUP3 DUP2 MSTORE PUSH1 0x4 PUSH1 0x20 DUP2 SWAP1 MSTORE PUSH1 0x40 SWAP2 DUP3 SWAP1 KECCAK256 PUSH1 0x1 ADD SLOAD SWAP2 MLOAD PUSH32 0x59EF735600000000000000000000000000000000000000000000000000000000 DUP2 MSTORE PUSH20 0xFFFFFFFFFFFFFFFFFFFFFFFFFFFFFFFFFFFFFFFF DUP8 DUP2 AND SWAP3 DUP3 ADD SWAP3 SWAP1 SWAP3 MSTORE PUSH1 0x24 DUP2 ADD SWAP3 SWAP1 SWAP3 MSTORE PUSH1 0x44 DUP3 ADD DUP5 SWAP1 MSTORE SWAP1 SWAP2 AND SWAP1 PUSH4 0x59EF7356 SWAP1 PUSH1 0x64 ADD PUSH1 0x0 PUSH1 0x40 MLOAD DUP1 DUP4 SUB DUP2 PUSH1 0x0 DUP8 DUP1 EXTCODESIZE ISZERO DUP1 ISZERO PUSH2 0x182D JUMPI PUSH1 0x0 DUP1 REVERT JUMPDEST POP GAS CALL ISZERO DUP1 ISZERO PUSH2 0x1841 JUMPI RETURNDATASIZE PUSH1 0x0 DUP1 RETURNDATACOPY RETURNDATASIZE PUSH1 0x0 REVERT JUMPDEST POP POP PUSH1 0x8 DUP1 SLOAD SWAP3 POP SWAP1 POP PUSH1 0x0 PUSH2 0x1856 DUP4 PUSH2 0x5523 JUMP JUMPDEST SWAP1 SWAP2 SSTORE POP POP PUSH1 0xC SLOAD PUSH1 0x0 DUP3 DUP2 MSTORE PUSH1 0x4 PUSH1 0x20 DUP2 SWAP1 MSTORE PUSH1 0x40 SWAP2 DUP3 SWAP1 KECCAK256 PUSH1 0x2 DUP2 ADD SLOAD PUSH1 0x1 SWAP1 SWAP2 ADD SLOAD SWAP3 MLOAD PUSH32 0x59EF735600000000000000000000000000000000000000000000000000000000 DUP2 MSTORE PUSH20 0xFFFFFFFFFFFFFFFFFFFFFFFFFFFFFFFFFFFFFFFF SWAP2 DUP3 AND SWAP3 DUP2 ADD SWAP3 SWAP1 SWAP3 MSTORE PUSH1 0x24 DUP3 ADD DUP6 SWAP1 MSTORE PUSH1 0x44 DUP3 ADD SWAP3 SWAP1 SWAP3 MSTORE SWAP2 AND SWAP1 PUSH4 0x59EF7356 SWAP1 PUSH1 0x64 ADD PUSH1 0x0 PUSH1 0x40 MLOAD DUP1 DUP4 SUB DUP2 PUSH1 0x0 DUP8 DUP1 EXTCODESIZE ISZERO DUP1 ISZERO PUSH2 0x18F4 JUMPI PUSH1 0x0 DUP1 REVERT JUMPDEST POP GAS CALL ISZERO DUP1 ISZERO PUSH2 0x1908 JUMPI RETURNDATASIZE PUSH1 0x0 DUP1 RETURNDATACOPY RETURNDATASIZE PUSH1 0x0 REVERT JUMPDEST POP POP POP PUSH1 0x0 DUP3 DUP2 MSTORE PUSH1 0x4 PUSH1 0x20 MSTORE PUSH1 0x40 DUP2 KECCAK256 PUSH1 0x1 ADD SLOAD PUSH1 0xA DUP1 SLOAD SWAP2 SWAP4 POP SWAP2 SWAP1 PUSH2 0x1931 SWAP1 DUP5 SWAP1 PUSH2 0x555C JUMP JUMPDEST SWAP1 SWAP2 SSTORE POP POP PUSH1 0x0 DUP2 DUP2 MSTORE PUSH1 0x4 PUSH1 0x20 DUP2 SWAP1 MSTORE PUSH1 0x40 SWAP2 DUP3 SWAP1 KECCAK256 PUSH1 0x3 DUP2 ADD DUP1 SLOAD PUSH32 0xFFFFFFFFFFFFFFFFFFFFFFFF0000000000000000000000000000000000000000 SWAP1 DUP2 AND PUSH20 0xFFFFFFFFFFFFFFFFFFFFFFFFFFFFFFFFFFFFFFFF DUP10 DUP2 AND SWAP2 DUP3 OR SWAP1 SWAP4 SSTORE DUP4 DUP6 ADD DUP1 SLOAD SWAP1 SWAP3 AND DUP9 DUP5 AND OR SWAP1 SWAP2 SSTORE TIMESTAMP PUSH1 0x6 DUP5 ADD SSTORE PUSH1 0x1 DUP1 SLOAD SWAP4 ADD SLOAD SWAP5 MLOAD PUSH32 0xA9059CBB00000000000000000000000000000000000000000000000000000000 DUP2 MSTORE SWAP4 DUP5 ADD MSTORE PUSH1 0x24 DUP4 ADD SWAP4 SWAP1 SWAP4 MSTORE SWAP1 SWAP2 AND SWAP1 PUSH4 0xA9059CBB SWAP1 PUSH1 0x44 ADD PUSH1 0x20 PUSH1 0x40 MLOAD DUP1 DUP4 SUB DUP2 PUSH1 0x0 DUP8 GAS CALL ISZERO DUP1 ISZERO PUSH2 0x1A09 JUMPI RETURNDATASIZE PUSH1 0x0 DUP1 RETURNDATACOPY RETURNDATASIZE PUSH1 0x0 REVERT JUMPDEST POP POP POP POP PUSH1 0x40 MLOAD RETURNDATASIZE PUSH1 0x1F NOT PUSH1 0x1F DUP3 ADD AND DUP3 ADD DUP1 PUSH1 0x40 MSTORE POP DUP2 ADD SWAP1 PUSH2 0x1A2D SWAP2 SWAP1 PUSH2 0x548F JUMP JUMPDEST POP PUSH1 0x3 SLOAD PUSH20 0xFFFFFFFFFFFFFFFFFFFFFFFFFFFFFFFFFFFFFFFF DUP5 AND BALANCE SWAP1 DUP2 LT ISZERO PUSH2 0x1B63 JUMPI PUSH1 0x0 DUP5 PUSH20 0xFFFFFFFFFFFFFFFFFFFFFFFFFFFFFFFFFFFFFFFF AND BALANCE PUSH1 0x3 SLOAD PUSH2 0x1A78 SWAP2 SWAP1 PUSH2 0x5574 JUMP JUMPDEST SWAP1 POP DUP1 PUSH1 0xB PUSH1 0x0 DUP3 DUP3 SLOAD PUSH2 0x1A8C SWAP2 SWAP1 PUSH2 0x555C JUMP JUMPDEST SWAP1 SWAP2 SSTORE POP POP PUSH1 0xD SLOAD PUSH1 0x40 MLOAD PUSH32 0x6FF9716900000000000000000000000000000000000000000000000000000000 DUP2 MSTORE PUSH20 0xFFFFFFFFFFFFFFFFFFFFFFFFFFFFFFFFFFFFFFFF DUP8 DUP2 AND PUSH1 0x4 DUP4 ADD MSTORE PUSH1 0x24 DUP3 ADD DUP5 SWAP1 MSTORE SWAP1 SWAP2 AND SWAP1 PUSH4 0x6FF97169 SWAP1 PUSH1 0x44 ADD PUSH1 0x0 PUSH1 0x40 MLOAD DUP1 DUP4 SUB DUP2 PUSH1 0x0 DUP8 DUP1 EXTCODESIZE ISZERO DUP1 ISZERO PUSH2 0x1B05 JUMPI PUSH1 0x0 DUP1 REVERT JUMPDEST POP GAS CALL ISZERO DUP1 ISZERO PUSH2 0x1B19 JUMPI RETURNDATASIZE PUSH1 0x0 DUP1 RETURNDATACOPY RETURNDATASIZE PUSH1 0x0 REVERT JUMPDEST POP POP PUSH1 0x40 MLOAD PUSH20 0xFFFFFFFFFFFFFFFFFFFFFFFFFFFFFFFFFFFFFFFF DUP9 AND SWAP3 POP DUP4 ISZERO PUSH2 0x8FC MUL SWAP2 POP DUP4 SWAP1 PUSH1 0x0 DUP2 DUP2 DUP2 DUP6 DUP9 DUP9 CALL SWAP4 POP POP POP POP ISZERO DUP1 ISZERO PUSH2 0x1B60 JUMPI RETURNDATASIZE PUSH1 0x0 DUP1 RETURNDATACOPY RETURNDATASIZE PUSH1 0x0 REVERT JUMPDEST POP POP JUMPDEST POP POP POP POP JUMP JUMPDEST PUSH1 0x0 SLOAD PUSH20 0xFFFFFFFFFFFFFFFFFFFFFFFFFFFFFFFFFFFFFFFF AND CALLER EQ PUSH2 0x1BEA JUMPI PUSH1 0x40 MLOAD PUSH32 0x8C379A000000000000000000000000000000000000000000000000000000000 DUP2 MSTORE PUSH1 0x20 PUSH1 0x4 DUP3 ADD MSTORE PUSH1 0xE PUSH1 0x24 DUP3 ADD MSTORE PUSH32 0x4F6E6C7920666F72206F776E6572000000000000000000000000000000000000 PUSH1 0x44 DUP3 ADD MSTORE PUSH1 0x64 ADD PUSH2 0x107B JUMP JUMPDEST PUSH1 0x1 SLOAD PUSH1 0x40 MLOAD PUSH32 0x70A0823100000000000000000000000000000000000000000000000000000000 DUP2 MSTORE ADDRESS PUSH1 0x4 DUP3 ADD MSTORE PUSH20 0xFFFFFFFFFFFFFFFFFFFFFFFFFFFFFFFFFFFFFFFF SWAP1 SWAP2 AND SWAP1 PUSH4 0xA9059CBB SWAP1 CALLER SWAP1 DUP4 SWAP1 PUSH4 0x70A08231 SWAP1 PUSH1 0x24 ADD PUSH1 0x20 PUSH1 0x40 MLOAD DUP1 DUP4 SUB DUP2 DUP7 GAS STATICCALL ISZERO DUP1 ISZERO PUSH2 0x1C62 JUMPI RETURNDATASIZE PUSH1 0x0 DUP1 RETURNDATACOPY RETURNDATASIZE PUSH1 0x0 REVERT JUMPDEST POP POP POP POP PUSH1 0x40 MLOAD RETURNDATASIZE PUSH1 0x1F NOT PUSH1 0x1F DUP3 ADD AND DUP3 ADD DUP1 PUSH1 0x40 MSTORE POP DUP2 ADD SWAP1 PUSH2 0x1C86 SWAP2 SWAP1 PUSH2 0x54AC JUMP JUMPDEST PUSH1 0x40 MLOAD PUSH32 0xFFFFFFFF00000000000000000000000000000000000000000000000000000000 PUSH1 0xE0 DUP6 SWAP1 SHL AND DUP2 MSTORE PUSH20 0xFFFFFFFFFFFFFFFFFFFFFFFFFFFFFFFFFFFFFFFF SWAP1 SWAP3 AND PUSH1 0x4 DUP4 ADD MSTORE PUSH1 0x24 DUP3 ADD MSTORE PUSH1 0x44 ADD PUSH1 0x20 PUSH1 0x40 MLOAD DUP1 DUP4 SUB DUP2 PUSH1 0x0 DUP8 GAS CALL ISZERO DUP1 ISZERO PUSH2 0x1CF6 JUMPI RETURNDATASIZE PUSH1 0x0 DUP1 RETURNDATACOPY RETURNDATASIZE PUSH1 0x0 REVERT JUMPDEST POP POP POP POP PUSH1 0x40 MLOAD RETURNDATASIZE PUSH1 0x1F NOT PUSH1 0x1F DUP3 ADD AND DUP3 ADD DUP1 PUSH1 0x40 MSTORE POP DUP2 ADD SWAP1 PUSH2 0x1D1A SWAP2 SWAP1 PUSH2 0x548F JUMP JUMPDEST POP PUSH1 0x40 MLOAD CALLER SWAP1 SELFBALANCE DUP1 ISZERO PUSH2 0x8FC MUL SWAP2 PUSH1 0x0 DUP2 DUP2 DUP2 DUP6 DUP9 DUP9 CALL SWAP4 POP POP POP POP ISZERO DUP1 ISZERO PUSH2 0x1D47 JUMPI RETURNDATASIZE PUSH1 0x0 DUP1 RETURNDATACOPY RETURNDATASIZE PUSH1 0x0 REVERT JUMPDEST POP JUMP JUMPDEST PUSH1 0x1 SLOAD PUSH1 0x40 DUP1 MLOAD PUSH32 0x313CE56700000000000000000000000000000000000000000000000000000000 DUP2 MSTORE SWAP1 MLOAD PUSH1 0x0 SWAP3 PUSH20 0xFFFFFFFFFFFFFFFFFFFFFFFFFFFFFFFFFFFFFFFF AND SWAP2 PUSH4 0x313CE567 SWAP2 PUSH1 0x4 DUP1 DUP4 ADD SWAP3 PUSH1 0x20 SWAP3 SWAP2 SWAP1 DUP3 SWAP1 SUB ADD DUP2 DUP7 GAS STATICCALL ISZERO DUP1 ISZERO PUSH2 0x1DBA JUMPI RETURNDATASIZE PUSH1 0x0 DUP1 RETURNDATACOPY RETURNDATASIZE PUSH1 0x0 REVERT JUMPDEST POP POP POP POP PUSH1 0x40 MLOAD RETURNDATASIZE PUSH1 0x1F NOT PUSH1 0x1F DUP3 ADD AND DUP3 ADD DUP1 PUSH1 0x40 MSTORE POP DUP2 ADD SWAP1 PUSH2 0x1DDE SWAP2 SWAP1 PUSH2 0x558B JUMP JUMPDEST PUSH1 0xFF AND SWAP1 POP SWAP1 JUMP JUMPDEST PUSH1 0x0 SLOAD PUSH20 0xFFFFFFFFFFFFFFFFFFFFFFFFFFFFFFFFFFFFFFFF AND CALLER EQ PUSH2 0x1E67 JUMPI PUSH1 0x40 MLOAD PUSH32 0x8C379A000000000000000000000000000000000000000000000000000000000 DUP2 MSTORE PUSH1 0x20 PUSH1 0x4 DUP3 ADD MSTORE PUSH1 0xE PUSH1 0x24 DUP3 ADD MSTORE PUSH32 0x4F6E6C7920666F72206F776E6572000000000000000000000000000000000000 PUSH1 0x44 DUP3 ADD MSTORE PUSH1 0x64 ADD PUSH2 0x107B JUMP JUMPDEST DUP1 ISZERO PUSH2 0x1F02 JUMPI PUSH1 0x40 MLOAD PUSH32 0x9F75F0A300000000000000000000000000000000000000000000000000000000 DUP2 MSTORE PUSH1 0x10 PUSH1 0x4 DUP3 ADD MSTORE PUSH20 0xFFFFFFFFFFFFFFFFFFFFFFFFFFFFFFFFFFFFFFFF DUP4 AND PUSH1 0x24 DUP3 ADD MSTORE PUSH20 0x0 SWAP1 PUSH4 0x9F75F0A3 SWAP1 PUSH1 0x44 ADD JUMPDEST PUSH1 0x0 PUSH1 0x40 MLOAD DUP1 DUP4 SUB DUP2 DUP7 DUP1 EXTCODESIZE ISZERO DUP1 ISZERO PUSH2 0x1EEE JUMPI PUSH1 0x0 DUP1 REVERT JUMPDEST POP GAS DELEGATECALL ISZERO DUP1 ISZERO PUSH2 0x1B60 JUMPI RETURNDATASIZE PUSH1 0x0 DUP1 RETURNDATACOPY RETURNDATASIZE PUSH1 0x0 REVERT JUMPDEST PUSH1 0x40 MLOAD PUSH32 0xA8AFEF9500000000000000000000000000000000000000000000000000000000 DUP2 MSTORE PUSH1 0x10 PUSH1 0x4 DUP3 ADD MSTORE PUSH20 0xFFFFFFFFFFFFFFFFFFFFFFFFFFFFFFFFFFFFFFFF DUP4 AND PUSH1 0x24 DUP3 ADD MSTORE PUSH20 0x0 SWAP1 PUSH4 0xA8AFEF95 SWAP1 PUSH1 0x44 ADD PUSH2 0x1ED6 JUMP JUMPDEST PUSH20 0xFFFFFFFFFFFFFFFFFFFFFFFFFFFFFFFFFFFFFFFF DUP2 AND PUSH1 0x0 SWAP1 DUP2 MSTORE PUSH1 0x5 PUSH1 0x20 MSTORE PUSH1 0x40 DUP2 KECCAK256 SLOAD ISZERO PUSH2 0x1FDC JUMPI PUSH20 0xFFFFFFFFFFFFFFFFFFFFFFFFFFFFFFFFFFFFFFFF DUP3 AND PUSH1 0x0 SWAP1 DUP2 MSTORE PUSH1 0x5 PUSH1 0x20 SWAP1 DUP2 MSTORE PUSH1 0x40 DUP1 DUP4 KECCAK256 SLOAD DUP4 MSTORE PUSH1 0x4 SWAP1 SWAP2 MSTORE SWAP1 KECCAK256 PUSH1 0x6 ADD SLOAD ISZERO PUSH2 0x1FDC JUMPI PUSH1 0x1 PUSH2 0x111F JUMP JUMPDEST PUSH1 0x0 SWAP3 SWAP2 POP POP JUMP JUMPDEST PUSH1 0xF SLOAD PUSH1 0x40 MLOAD PUSH32 0x303F2F0F00000000000000000000000000000000000000000000000000000000 DUP2 MSTORE PUSH20 0xFFFFFFFFFFFFFFFFFFFFFFFFFFFFFFFFFFFFFFFF DUP4 DUP2 AND PUSH1 0x4 DUP4 ADD MSTORE PUSH1 0x0 SWAP3 AND SWAP1 PUSH4 0x303F2F0F SWAP1 PUSH1 0x24 ADD PUSH2 0x117A JUMP JUMPDEST PUSH1 0x12 SLOAD PUSH20 0xFFFFFFFFFFFFFFFFFFFFFFFFFFFFFFFFFFFFFFFF AND CALLER EQ DUP1 PUSH2 0x20F1 JUMPI POP PUSH1 0x40 MLOAD PUSH32 0x2FC4D79200000000000000000000000000000000000000000000000000000000 DUP2 MSTORE PUSH1 0x10 PUSH1 0x4 DUP3 ADD MSTORE CALLER PUSH1 0x24 DUP3 ADD MSTORE PUSH20 0x0 SWAP1 PUSH4 0x2FC4D792 SWAP1 PUSH1 0x44 ADD PUSH1 0x20 PUSH1 0x40 MLOAD DUP1 DUP4 SUB DUP2 DUP7 GAS DELEGATECALL ISZERO DUP1 ISZERO PUSH2 0x20CD JUMPI RETURNDATASIZE PUSH1 0x0 DUP1 RETURNDATACOPY RETURNDATASIZE PUSH1 0x0 REVERT JUMPDEST POP POP POP POP PUSH1 0x40 MLOAD RETURNDATASIZE PUSH1 0x1F NOT PUSH1 0x1F DUP3 ADD AND DUP3 ADD DUP1 PUSH1 0x40 MSTORE POP DUP2 ADD SWAP1 PUSH2 0x20F1 SWAP2 SWAP1 PUSH2 0x548F JUMP JUMPDEST PUSH2 0x2157 JUMPI PUSH1 0x40 MLOAD PUSH32 0x8C379A000000000000000000000000000000000000000000000000000000000 DUP2 MSTORE PUSH1 0x20 PUSH1 0x4 DUP3 ADD MSTORE PUSH1 0x1A PUSH1 0x24 DUP3 ADD MSTORE PUSH32 0x4F6E6C7920666F72206F7261636C65206F72206D616E61676572000000000000 PUSH1 0x44 DUP3 ADD MSTORE PUSH1 0x64 ADD PUSH2 0x107B JUMP JUMPDEST PUSH1 0xC SLOAD PUSH1 0x40 MLOAD PUSH32 0x384E491D00000000000000000000000000000000000000000000000000000000 DUP2 MSTORE PUSH20 0xFFFFFFFFFFFFFFFFFFFFFFFFFFFFFFFFFFFFFFFF DUP5 DUP2 AND PUSH1 0x4 DUP4 ADD MSTORE PUSH1 0x24 DUP3 ADD DUP5 SWAP1 MSTORE SWAP1 SWAP2 AND SWAP1 PUSH4 0x384E491D SWAP1 PUSH1 0x44 ADD JUMPDEST PUSH1 0x0 PUSH1 0x40 MLOAD DUP1 DUP4 SUB DUP2 PUSH1 0x0 DUP8 DUP1 EXTCODESIZE ISZERO DUP1 ISZERO PUSH2 0x21CC JUMPI PUSH1 0x0 DUP1 REVERT JUMPDEST POP GAS CALL ISZERO DUP1 ISZERO PUSH2 0x1B60 JUMPI RETURNDATASIZE PUSH1 0x0 DUP1 RETURNDATACOPY RETURNDATASIZE PUSH1 0x0 REVERT JUMPDEST PUSH1 0xD SLOAD PUSH1 0x40 DUP1 MLOAD PUSH32 0x4078EEB200000000000000000000000000000000000000000000000000000000 DUP2 MSTORE SWAP1 MLOAD PUSH1 0x0 SWAP3 PUSH20 0xFFFFFFFFFFFFFFFFFFFFFFFFFFFFFFFFFFFFFFFF AND SWAP2 PUSH4 0x4078EEB2 SWAP2 PUSH1 0x4 DUP1 DUP4 ADD SWAP3 PUSH1 0x20 SWAP3 SWAP2 SWAP1 DUP3 SWAP1 SUB ADD DUP2 DUP7 GAS STATICCALL ISZERO DUP1 ISZERO PUSH2 0x2250 JUMPI RETURNDATASIZE PUSH1 0x0 DUP1 RETURNDATACOPY RETURNDATASIZE PUSH1 0x0 REVERT JUMPDEST POP POP POP POP PUSH1 0x40 MLOAD RETURNDATASIZE PUSH1 0x1F NOT PUSH1 0x1F DUP3 ADD AND DUP3 ADD DUP1 PUSH1 0x40 MSTORE POP DUP2 ADD SWAP1 PUSH2 0x2274 SWAP2 SWAP1 PUSH2 0x54AC JUMP JUMPDEST SWAP1 POP SWAP1 JUMP JUMPDEST PUSH1 0xD SLOAD PUSH1 0x40 MLOAD PUSH32 0x41BE8B9400000000000000000000000000000000000000000000000000000000 DUP2 MSTORE PUSH1 0x4 DUP2 ADD DUP5 SWAP1 MSTORE PUSH1 0x24 DUP2 ADD DUP4 SWAP1 MSTORE PUSH1 0x60 SWAP2 PUSH20 0xFFFFFFFFFFFFFFFFFFFFFFFFFFFFFFFFFFFFFFFF AND SWAP1 PUSH4 0x41BE8B94 SWAP1 PUSH1 0x44 ADD PUSH1 0x0 PUSH1 0x40 MLOAD DUP1 DUP4 SUB DUP2 DUP7 GAS STATICCALL ISZERO DUP1 ISZERO PUSH2 0x22F0 JUMPI RETURNDATASIZE PUSH1 0x0 DUP1 RETURNDATACOPY RETURNDATASIZE PUSH1 0x0 REVERT JUMPDEST POP POP POP POP PUSH1 0x40 MLOAD RETURNDATASIZE PUSH1 0x0 DUP3 RETURNDATACOPY PUSH1 0x1F RETURNDATASIZE SWAP1 DUP2 ADD PUSH32 0xFFFFFFFFFFFFFFFFFFFFFFFFFFFFFFFFFFFFFFFFFFFFFFFFFFFFFFFFFFFFFFE0 AND DUP3 ADD PUSH1 0x40 MSTORE PUSH2 0x2336 SWAP2 SWAP1 DUP2 ADD SWAP1 PUSH2 0x56CC JUMP JUMPDEST SWAP4 SWAP3 POP POP POP JUMP JUMPDEST PUSH1 0x40 MLOAD PUSH32 0x2FC4D79200000000000000000000000000000000000000000000000000000000 DUP2 MSTORE PUSH1 0x10 PUSH1 0x4 DUP3 ADD MSTORE CALLER PUSH1 0x24 DUP3 ADD MSTORE PUSH20 0x0 SWAP1 PUSH4 0x2FC4D792 SWAP1 PUSH1 0x44 ADD PUSH1 0x20 PUSH1 0x40 MLOAD DUP1 DUP4 SUB DUP2 DUP7 GAS DELEGATECALL ISZERO DUP1 ISZERO PUSH2 0x23AC JUMPI RETURNDATASIZE PUSH1 0x0 DUP1 RETURNDATACOPY RETURNDATASIZE PUSH1 0x0 REVERT JUMPDEST POP POP POP POP PUSH1 0x40 MLOAD RETURNDATASIZE PUSH1 0x1F NOT PUSH1 0x1F DUP3 ADD AND DUP3 ADD DUP1 PUSH1 0x40 MSTORE POP DUP2 ADD SWAP1 PUSH2 0x23D0 SWAP2 SWAP1 PUSH2 0x548F JUMP JUMPDEST ISZERO ISZERO PUSH1 0x1 EQ PUSH2 0x243B JUMPI PUSH1 0x40 MLOAD PUSH32 0x8C379A000000000000000000000000000000000000000000000000000000000 DUP2 MSTORE PUSH1 0x20 PUSH1 0x4 DUP3 ADD MSTORE PUSH1 0x11 PUSH1 0x24 DUP3 ADD MSTORE PUSH32 0x4F6E6C7920666F72206D616E6167657273000000000000000000000000000000 PUSH1 0x44 DUP3 ADD MSTORE PUSH1 0x64 ADD PUSH2 0x107B JUMP JUMPDEST PUSH1 0xC SLOAD PUSH1 0x40 MLOAD PUSH32 0x424F3C8E00000000000000000000000000000000000000000000000000000000 DUP2 MSTORE PUSH20 0xFFFFFFFFFFFFFFFFFFFFFFFFFFFFFFFFFFFFFFFF SWAP1 SWAP2 AND SWAP1 PUSH4 0x424F3C8E SWAP1 PUSH2 0x21B2 SWAP1 DUP6 SWAP1 DUP6 SWAP1 PUSH1 0x4 ADD PUSH2 0x577D JUMP JUMPDEST PUSH1 0xD SLOAD PUSH1 0x40 MLOAD PUSH32 0x4F51327700000000000000000000000000000000000000000000000000000000 DUP2 MSTORE PUSH20 0xFFFFFFFFFFFFFFFFFFFFFFFFFFFFFFFFFFFFFFFF DUP6 DUP2 AND PUSH1 0x4 DUP4 ADD MSTORE PUSH1 0x24 DUP3 ADD DUP6 SWAP1 MSTORE PUSH1 0x44 DUP3 ADD DUP5 SWAP1 MSTORE PUSH1 0x60 SWAP3 AND SWAP1 PUSH4 0x4F513277 SWAP1 PUSH1 0x64 ADD PUSH1 0x0 PUSH1 0x40 MLOAD DUP1 DUP4 SUB DUP2 DUP7 GAS STATICCALL ISZERO DUP1 ISZERO PUSH2 0x2512 JUMPI RETURNDATASIZE PUSH1 0x0 DUP1 RETURNDATACOPY RETURNDATASIZE PUSH1 0x0 REVERT JUMPDEST POP POP POP POP PUSH1 0x40 MLOAD RETURNDATASIZE PUSH1 0x0 DUP3 RETURNDATACOPY PUSH1 0x1F RETURNDATASIZE SWAP1 DUP2 ADD PUSH32 0xFFFFFFFFFFFFFFFFFFFFFFFFFFFFFFFFFFFFFFFFFFFFFFFFFFFFFFFFFFFFFFE0 AND DUP3 ADD PUSH1 0x40 MSTORE PUSH2 0x2558 SWAP2 SWAP1 DUP2 ADD SWAP1 PUSH2 0x57F1 JUMP JUMPDEST SWAP5 SWAP4 POP POP POP POP JUMP JUMPDEST PUSH1 0x60 PUSH1 0x0 PUSH1 0x7 SLOAD PUSH8 0xFFFFFFFFFFFFFFFF DUP2 GT ISZERO PUSH2 0x257F JUMPI PUSH2 0x257F PUSH2 0x4B06 JUMP JUMPDEST PUSH1 0x40 MLOAD SWAP1 DUP1 DUP3 MSTORE DUP1 PUSH1 0x20 MUL PUSH1 0x20 ADD DUP3 ADD PUSH1 0x40 MSTORE DUP1 ISZERO PUSH2 0x265E JUMPI DUP2 PUSH1 0x20 ADD JUMPDEST PUSH2 0x264B PUSH1 0x40 MLOAD DUP1 PUSH2 0x140 ADD PUSH1 0x40 MSTORE DUP1 PUSH1 0x0 DUP2 MSTORE PUSH1 0x20 ADD PUSH1 0x0 DUP2 MSTORE PUSH1 0x20 ADD PUSH1 0x0 PUSH20 0xFFFFFFFFFFFFFFFFFFFFFFFFFFFFFFFFFFFFFFFF AND DUP2 MSTORE PUSH1 0x20 ADD PUSH1 0x0 PUSH20 0xFFFFFFFFFFFFFFFFFFFFFFFFFFFFFFFFFFFFFFFF AND DUP2 MSTORE PUSH1 0x20 ADD PUSH1 0x0 PUSH20 0xFFFFFFFFFFFFFFFFFFFFFFFFFFFFFFFFFFFFFFFF AND DUP2 MSTORE PUSH1 0x20 ADD PUSH1 0x0 DUP2 MSTORE PUSH1 0x20 ADD PUSH1 0x0 DUP2 MSTORE PUSH1 0x20 ADD PUSH1 0x0 DUP2 MSTORE PUSH1 0x20 ADD PUSH1 0x0 PUSH20 0xFFFFFFFFFFFFFFFFFFFFFFFFFFFFFFFFFFFFFFFF AND DUP2 MSTORE PUSH1 0x20 ADD PUSH1 0x60 DUP2 MSTORE POP SWAP1 JUMP JUMPDEST DUP2 MSTORE PUSH1 0x20 ADD SWAP1 PUSH1 0x1 SWAP1 SUB SWAP1 DUP2 PUSH2 0x259D JUMPI SWAP1 POP JUMPDEST POP SWAP1 POP PUSH1 0x1 JUMPDEST PUSH1 0x6 SLOAD DUP2 GT PUSH2 0x27D3 JUMPI PUSH1 0x0 DUP2 DUP2 MSTORE PUSH1 0x4 PUSH1 0x20 DUP2 DUP2 MSTORE PUSH1 0x40 SWAP3 DUP4 SWAP1 KECCAK256 DUP4 MLOAD PUSH2 0x140 DUP2 ADD DUP6 MSTORE DUP2 SLOAD DUP2 MSTORE PUSH1 0x1 DUP3 ADD SLOAD SWAP3 DUP2 ADD SWAP3 SWAP1 SWAP3 MSTORE PUSH1 0x2 DUP2 ADD SLOAD PUSH20 0xFFFFFFFFFFFFFFFFFFFFFFFFFFFFFFFFFFFFFFFF SWAP1 DUP2 AND SWAP5 DUP4 ADD SWAP5 SWAP1 SWAP5 MSTORE PUSH1 0x3 DUP2 ADD SLOAD DUP5 AND PUSH1 0x60 DUP4 ADD MSTORE SWAP2 DUP3 ADD SLOAD DUP4 AND PUSH1 0x80 DUP3 ADD MSTORE PUSH1 0x5 DUP3 ADD SLOAD PUSH1 0xA0 DUP3 ADD MSTORE PUSH1 0x6 DUP3 ADD SLOAD PUSH1 0xC0 DUP3 ADD MSTORE PUSH1 0x7 DUP3 ADD SLOAD PUSH1 0xE0 DUP3 ADD MSTORE PUSH1 0x8 DUP3 ADD SLOAD SWAP1 SWAP3 AND PUSH2 0x100 DUP4 ADD MSTORE PUSH1 0x9 DUP2 ADD DUP1 SLOAD PUSH2 0x120 DUP5 ADD SWAP2 SWAP1 PUSH2 0x2715 SWAP1 PUSH2 0x5441 JUMP JUMPDEST DUP1 PUSH1 0x1F ADD PUSH1 0x20 DUP1 SWAP2 DIV MUL PUSH1 0x20 ADD PUSH1 0x40 MLOAD SWAP1 DUP2 ADD PUSH1 0x40 MSTORE DUP1 SWAP3 SWAP2 SWAP1 DUP2 DUP2 MSTORE PUSH1 0x20 ADD DUP3 DUP1 SLOAD PUSH2 0x2741 SWAP1 PUSH2 0x5441 JUMP JUMPDEST DUP1 ISZERO PUSH2 0x278E JUMPI DUP1 PUSH1 0x1F LT PUSH2 0x2763 JUMPI PUSH2 0x100 DUP1 DUP4 SLOAD DIV MUL DUP4 MSTORE SWAP2 PUSH1 0x20 ADD SWAP2 PUSH2 0x278E JUMP JUMPDEST DUP3 ADD SWAP2 SWAP1 PUSH1 0x0 MSTORE PUSH1 0x20 PUSH1 0x0 KECCAK256 SWAP1 JUMPDEST DUP2 SLOAD DUP2 MSTORE SWAP1 PUSH1 0x1 ADD SWAP1 PUSH1 0x20 ADD DUP1 DUP4 GT PUSH2 0x2771 JUMPI DUP3 SWAP1 SUB PUSH1 0x1F AND DUP3 ADD SWAP2 JUMPDEST POP POP POP POP POP DUP2 MSTORE POP POP DUP3 PUSH1 0x1 DUP4 PUSH2 0x27A5 SWAP2 SWAP1 PUSH2 0x5574 JUMP JUMPDEST DUP2 MLOAD DUP2 LT PUSH2 0x27B5 JUMPI PUSH2 0x27B5 PUSH2 0x54C5 JUMP JUMPDEST PUSH1 0x20 MUL PUSH1 0x20 ADD ADD DUP2 SWAP1 MSTORE POP DUP1 DUP1 PUSH2 0x27CB SWAP1 PUSH2 0x5523 JUMP JUMPDEST SWAP2 POP POP PUSH2 0x2664 JUMP JUMPDEST POP SWAP2 SWAP1 POP JUMP JUMPDEST PUSH1 0x40 MLOAD PUSH32 0x2FC4D79200000000000000000000000000000000000000000000000000000000 DUP2 MSTORE PUSH1 0x10 PUSH1 0x4 DUP3 ADD MSTORE CALLER PUSH1 0x24 DUP3 ADD MSTORE PUSH20 0x0 SWAP1 PUSH4 0x2FC4D792 SWAP1 PUSH1 0x44 ADD PUSH1 0x20 PUSH1 0x40 MLOAD DUP1 DUP4 SUB DUP2 DUP7 GAS DELEGATECALL ISZERO DUP1 ISZERO PUSH2 0x2848 JUMPI RETURNDATASIZE PUSH1 0x0 DUP1 RETURNDATACOPY RETURNDATASIZE PUSH1 0x0 REVERT JUMPDEST POP POP POP POP PUSH1 0x40 MLOAD RETURNDATASIZE PUSH1 0x1F NOT PUSH1 0x1F DUP3 ADD AND DUP3 ADD DUP1 PUSH1 0x40 MSTORE POP DUP2 ADD SWAP1 PUSH2 0x286C SWAP2 SWAP1 PUSH2 0x548F JUMP JUMPDEST ISZERO ISZERO PUSH1 0x1 EQ PUSH2 0x28D7 JUMPI PUSH1 0x40 MLOAD PUSH32 0x8C379A000000000000000000000000000000000000000000000000000000000 DUP2 MSTORE PUSH1 0x20 PUSH1 0x4 DUP3 ADD MSTORE PUSH1 0x11 PUSH1 0x24 DUP3 ADD MSTORE PUSH32 0x4F6E6C7920666F72206D616E6167657273000000000000000000000000000000 PUSH1 0x44 DUP3 ADD MSTORE PUSH1 0x64 ADD PUSH2 0x107B JUMP JUMPDEST PUSH1 0xC SLOAD PUSH1 0x40 MLOAD PUSH32 0x59D1BD8000000000000000000000000000000000000000000000000000000000 DUP2 MSTORE PUSH20 0xFFFFFFFFFFFFFFFFFFFFFFFFFFFFFFFFFFFFFFFF DUP5 DUP2 AND PUSH1 0x4 DUP4 ADD MSTORE PUSH1 0x24 DUP3 ADD DUP5 SWAP1 MSTORE SWAP1 SWAP2 AND SWAP1 PUSH4 0x59D1BD80 SWAP1 PUSH1 0x44 ADD PUSH2 0x21B2 JUMP JUMPDEST PUSH1 0xF SLOAD PUSH1 0x40 MLOAD PUSH32 0x5A2F713300000000000000000000000000000000000000000000000000000000 DUP2 MSTORE PUSH1 0x4 DUP2 ADD DUP5 SWAP1 MSTORE PUSH1 0x24 DUP2 ADD DUP4 SWAP1 MSTORE PUSH1 0x60 SWAP2 PUSH20 0xFFFFFFFFFFFFFFFFFFFFFFFFFFFFFFFFFFFFFFFF AND SWAP1 PUSH4 0x5A2F7133 SWAP1 PUSH1 0x44 ADD PUSH1 0x0 PUSH1 0x40 MLOAD DUP1 DUP4 SUB DUP2 DUP7 GAS STATICCALL ISZERO DUP1 ISZERO PUSH2 0x29AD JUMPI RETURNDATASIZE PUSH1 0x0 DUP1 RETURNDATACOPY RETURNDATASIZE PUSH1 0x0 REVERT JUMPDEST POP POP POP POP PUSH1 0x40 MLOAD RETURNDATASIZE PUSH1 0x0 DUP3 RETURNDATACOPY PUSH1 0x1F RETURNDATASIZE SWAP1 DUP2 ADD PUSH32 0xFFFFFFFFFFFFFFFFFFFFFFFFFFFFFFFFFFFFFFFFFFFFFFFFFFFFFFFFFFFFFFE0 AND DUP3 ADD PUSH1 0x40 MSTORE PUSH2 0x2336 SWAP2 SWAP1 DUP2 ADD SWAP1 PUSH2 0x596B JUMP JUMPDEST PUSH1 0xC SLOAD PUSH1 0x40 MLOAD PUSH32 0xC804BD1300000000000000000000000000000000000000000000000000000000 DUP2 MSTORE PUSH20 0xFFFFFFFFFFFFFFFFFFFFFFFFFFFFFFFFFFFFFFFF DUP6 DUP2 AND PUSH1 0x4 DUP4 ADD MSTORE PUSH1 0x24 DUP3 ADD DUP6 SWAP1 MSTORE PUSH1 0x44 DUP3 ADD DUP5 SWAP1 MSTORE PUSH1 0x60 SWAP3 PUSH1 0x0 SWAP3 SWAP2 AND SWAP1 PUSH4 0xC804BD13 SWAP1 PUSH1 0x64 ADD JUMPDEST PUSH1 0x0 PUSH1 0x40 MLOAD DUP1 DUP4 SUB DUP2 DUP7 GAS STATICCALL ISZERO DUP1 ISZERO PUSH2 0x2A77 JUMPI RETURNDATASIZE PUSH1 0x0 DUP1 RETURNDATACOPY RETURNDATASIZE PUSH1 0x0 REVERT JUMPDEST POP POP POP POP PUSH1 0x40 MLOAD RETURNDATASIZE PUSH1 0x0 DUP3 RETURNDATACOPY PUSH1 0x1F RETURNDATASIZE SWAP1 DUP2 ADD PUSH32 0xFFFFFFFFFFFFFFFFFFFFFFFFFFFFFFFFFFFFFFFFFFFFFFFFFFFFFFFFFFFFFFE0 AND DUP3 ADD PUSH1 0x40 MSTORE PUSH2 0x2ABD SWAP2 SWAP1 DUP2 ADD SWAP1 PUSH2 0x5A96 JUMP JUMPDEST SWAP1 POP PUSH2 0x2AC8 DUP2 PUSH2 0x1243 JUMP JUMPDEST SWAP6 SWAP5 POP POP POP POP POP JUMP JUMPDEST PUSH1 0x40 MLOAD PUSH32 0x2FC4D79200000000000000000000000000000000000000000000000000000000 DUP2 MSTORE PUSH1 0x10 PUSH1 0x4 DUP3 ADD MSTORE CALLER PUSH1 0x24 DUP3 ADD MSTORE PUSH20 0x0 SWAP1 PUSH4 0x2FC4D792 SWAP1 PUSH1 0x44 ADD PUSH1 0x20 PUSH1 0x40 MLOAD DUP1 DUP4 SUB DUP2 DUP7 GAS DELEGATECALL ISZERO DUP1 ISZERO PUSH2 0x2B40 JUMPI RETURNDATASIZE PUSH1 0x0 DUP1 RETURNDATACOPY RETURNDATASIZE PUSH1 0x0 REVERT JUMPDEST POP POP POP POP PUSH1 0x40 MLOAD RETURNDATASIZE PUSH1 0x1F NOT PUSH1 0x1F DUP3 ADD AND DUP3 ADD DUP1 PUSH1 0x40 MSTORE POP DUP2 ADD SWAP1 PUSH2 0x2B64 SWAP2 SWAP1 PUSH2 0x548F JUMP JUMPDEST ISZERO ISZERO PUSH1 0x1 EQ PUSH2 0x2BCF JUMPI PUSH1 0x40 MLOAD PUSH32 0x8C379A000000000000000000000000000000000000000000000000000000000 DUP2 MSTORE PUSH1 0x20 PUSH1 0x4 DUP3 ADD MSTORE PUSH1 0x11 PUSH1 0x24 DUP3 ADD MSTORE PUSH32 0x4F6E6C7920666F72206D616E6167657273000000000000000000000000000000 PUSH1 0x44 DUP3 ADD MSTORE PUSH1 0x64 ADD PUSH2 0x107B JUMP JUMPDEST PUSH1 0xC SLOAD PUSH1 0x40 MLOAD PUSH32 0x66059A1600000000000000000000000000000000000000000000000000000000 DUP2 MSTORE PUSH20 0xFFFFFFFFFFFFFFFFFFFFFFFFFFFFFFFFFFFFFFFF DUP5 DUP2 AND PUSH1 0x4 DUP4 ADD MSTORE PUSH1 0x24 DUP3 ADD DUP5 SWAP1 MSTORE SWAP1 SWAP2 AND SWAP1 PUSH4 0x66059A16 SWAP1 PUSH1 0x44 ADD PUSH2 0x21B2 JUMP JUMPDEST PUSH1 0xF SLOAD PUSH1 0x40 DUP1 MLOAD PUSH32 0x6680099500000000000000000000000000000000000000000000000000000000 DUP2 MSTORE SWAP1 MLOAD PUSH1 0x0 SWAP3 PUSH20 0xFFFFFFFFFFFFFFFFFFFFFFFFFFFFFFFFFFFFFFFF AND SWAP2 PUSH4 0x66800995 SWAP2 PUSH1 0x4 DUP1 DUP4 ADD SWAP3 PUSH1 0x20 SWAP3 SWAP2 SWAP1 DUP3 SWAP1 SUB ADD DUP2 DUP7 GAS STATICCALL ISZERO DUP1 ISZERO PUSH2 0x2250 JUMPI RETURNDATASIZE PUSH1 0x0 DUP1 RETURNDATACOPY RETURNDATASIZE PUSH1 0x0 REVERT JUMPDEST PUSH1 0x40 MLOAD PUSH32 0x2FC4D79200000000000000000000000000000000000000000000000000000000 DUP2 MSTORE PUSH1 0x10 PUSH1 0x4 DUP3 ADD MSTORE CALLER PUSH1 0x24 DUP3 ADD MSTORE PUSH20 0x0 SWAP1 PUSH4 0x2FC4D792 SWAP1 PUSH1 0x44 ADD PUSH1 0x20 PUSH1 0x40 MLOAD DUP1 DUP4 SUB DUP2 DUP7 GAS DELEGATECALL ISZERO DUP1 ISZERO PUSH2 0x2D0D JUMPI RETURNDATASIZE PUSH1 0x0 DUP1 RETURNDATACOPY RETURNDATASIZE PUSH1 0x0 REVERT JUMPDEST POP POP POP POP PUSH1 0x40 MLOAD RETURNDATASIZE PUSH1 0x1F NOT PUSH1 0x1F DUP3 ADD AND DUP3 ADD DUP1 PUSH1 0x40 MSTORE POP DUP2 ADD SWAP1 PUSH2 0x2D31 SWAP2 SWAP1 PUSH2 0x548F JUMP JUMPDEST ISZERO ISZERO PUSH1 0x1 EQ PUSH2 0x2D9C JUMPI PUSH1 0x40 MLOAD PUSH32 0x8C379A000000000000000000000000000000000000000000000000000000000 DUP2 MSTORE PUSH1 0x20 PUSH1 0x4 DUP3 ADD MSTORE PUSH1 0x11 PUSH1 0x24 DUP3 ADD MSTORE PUSH32 0x4F6E6C7920666F72206D616E6167657273000000000000000000000000000000 PUSH1 0x44 DUP3 ADD MSTORE PUSH1 0x64 ADD PUSH2 0x107B JUMP JUMPDEST PUSH1 0xC SLOAD PUSH1 0x40 MLOAD PUSH32 0x66EB399F00000000000000000000000000000000000000000000000000000000 DUP2 MSTORE PUSH20 0xFFFFFFFFFFFFFFFFFFFFFFFFFFFFFFFFFFFFFFFF DUP5 DUP2 AND PUSH1 0x4 DUP4 ADD MSTORE DUP4 ISZERO ISZERO PUSH1 0x24 DUP4 ADD MSTORE SWAP1 SWAP2 AND SWAP1 PUSH4 0x66EB399F SWAP1 PUSH1 0x44 ADD PUSH2 0x21B2 JUMP JUMPDEST PUSH1 0xC SLOAD PUSH1 0x40 DUP1 MLOAD PUSH32 0x6B32810B00000000000000000000000000000000000000000000000000000000 DUP2 MSTORE SWAP1 MLOAD PUSH1 0x60 SWAP3 PUSH20 0xFFFFFFFFFFFFFFFFFFFFFFFFFFFFFFFFFFFFFFFF AND SWAP2 PUSH4 0x6B32810B SWAP2 PUSH1 0x4 DUP1 DUP4 ADD SWAP3 PUSH1 0x0 SWAP3 SWAP2 SWAP1 DUP3 SWAP1 SUB ADD DUP2 DUP7 GAS STATICCALL ISZERO DUP1 ISZERO PUSH2 0x2E6C JUMPI RETURNDATASIZE PUSH1 0x0 DUP1 RETURNDATACOPY RETURNDATASIZE PUSH1 0x0 REVERT JUMPDEST POP POP POP POP PUSH1 0x40 MLOAD RETURNDATASIZE PUSH1 0x0 DUP3 RETURNDATACOPY PUSH1 0x1F RETURNDATASIZE SWAP1 DUP2 ADD PUSH32 0xFFFFFFFFFFFFFFFFFFFFFFFFFFFFFFFFFFFFFFFFFFFFFFFFFFFFFFFFFFFFFFE0 AND DUP3 ADD PUSH1 0x40 MSTORE PUSH2 0x2274 SWAP2 SWAP1 DUP2 ADD SWAP1 PUSH2 0x5ACB JUMP JUMPDEST PUSH2 0x2F60 PUSH1 0x40 MLOAD DUP1 PUSH2 0x140 ADD PUSH1 0x40 MSTORE DUP1 PUSH1 0x0 DUP2 MSTORE PUSH1 0x20 ADD PUSH1 0x0 DUP2 MSTORE PUSH1 0x20 ADD PUSH1 0x0 PUSH20 0xFFFFFFFFFFFFFFFFFFFFFFFFFFFFFFFFFFFFFFFF AND DUP2 MSTORE PUSH1 0x20 ADD PUSH1 0x0 PUSH20 0xFFFFFFFFFFFFFFFFFFFFFFFFFFFFFFFFFFFFFFFF AND DUP2 MSTORE PUSH1 0x20 ADD PUSH1 0x0 PUSH20 0xFFFFFFFFFFFFFFFFFFFFFFFFFFFFFFFFFFFFFFFF AND DUP2 MSTORE PUSH1 0x20 ADD PUSH1 0x0 DUP2 MSTORE PUSH1 0x20 ADD PUSH1 0x0 DUP2 MSTORE PUSH1 0x20 ADD PUSH1 0x0 DUP2 MSTORE PUSH1 0x20 ADD PUSH1 0x0 PUSH20 0xFFFFFFFFFFFFFFFFFFFFFFFFFFFFFFFFFFFFFFFF AND DUP2 MSTORE PUSH1 0x20 ADD PUSH1 0x60 DUP2 MSTORE POP SWAP1 JUMP JUMPDEST PUSH1 0x0 DUP3 DUP2 MSTORE PUSH1 0x4 PUSH1 0x20 DUP2 DUP2 MSTORE PUSH1 0x40 SWAP3 DUP4 SWAP1 KECCAK256 DUP4 MLOAD PUSH2 0x140 DUP2 ADD DUP6 MSTORE DUP2 SLOAD DUP2 MSTORE PUSH1 0x1 DUP3 ADD SLOAD SWAP3 DUP2 ADD SWAP3 SWAP1 SWAP3 MSTORE PUSH1 0x2 DUP2 ADD SLOAD PUSH20 0xFFFFFFFFFFFFFFFFFFFFFFFFFFFFFFFFFFFFFFFF SWAP1 DUP2 AND SWAP5 DUP4 ADD SWAP5 SWAP1 SWAP5 MSTORE PUSH1 0x3 DUP2 ADD SLOAD DUP5 AND PUSH1 0x60 DUP4 ADD MSTORE SWAP2 DUP3 ADD SLOAD DUP4 AND PUSH1 0x80 DUP3 ADD MSTORE PUSH1 0x5 DUP3 ADD SLOAD PUSH1 0xA0 DUP3 ADD MSTORE PUSH1 0x6 DUP3 ADD SLOAD PUSH1 0xC0 DUP3 ADD MSTORE PUSH1 0x7 DUP3 ADD SLOAD PUSH1 0xE0 DUP3 ADD MSTORE PUSH1 0x8 DUP3 ADD SLOAD SWAP1 SWAP3 AND PUSH2 0x100 DUP4 ADD MSTORE PUSH1 0x9 DUP2 ADD DUP1 SLOAD PUSH2 0x120 DUP5 ADD SWAP2 SWAP1 PUSH2 0x3008 SWAP1 PUSH2 0x5441 JUMP JUMPDEST DUP1 PUSH1 0x1F ADD PUSH1 0x20 DUP1 SWAP2 DIV MUL PUSH1 0x20 ADD PUSH1 0x40 MLOAD SWAP1 DUP2 ADD PUSH1 0x40 MSTORE DUP1 SWAP3 SWAP2 SWAP1 DUP2 DUP2 MSTORE PUSH1 0x20 ADD DUP3 DUP1 SLOAD PUSH2 0x3034 SWAP1 PUSH2 0x5441 JUMP JUMPDEST DUP1 ISZERO PUSH2 0x3081 JUMPI DUP1 PUSH1 0x1F LT PUSH2 0x3056 JUMPI PUSH2 0x100 DUP1 DUP4 SLOAD DIV MUL DUP4 MSTORE SWAP2 PUSH1 0x20 ADD SWAP2 PUSH2 0x3081 JUMP JUMPDEST DUP3 ADD SWAP2 SWAP1 PUSH1 0x0 MSTORE PUSH1 0x20 PUSH1 0x0 KECCAK256 SWAP1 JUMPDEST DUP2 SLOAD DUP2 MSTORE SWAP1 PUSH1 0x1 ADD SWAP1 PUSH1 0x20 ADD DUP1 DUP4 GT PUSH2 0x3064 JUMPI DUP3 SWAP1 SUB PUSH1 0x1F AND DUP3 ADD SWAP2 JUMPDEST POP POP POP POP POP DUP2 MSTORE POP POP SWAP1 POP SWAP2 SWAP1 POP JUMP JUMPDEST PUSH1 0x0 SLOAD PUSH20 0xFFFFFFFFFFFFFFFFFFFFFFFFFFFFFFFFFFFFFFFF AND CALLER EQ PUSH2 0x3112 JUMPI PUSH1 0x40 MLOAD PUSH32 0x8C379A000000000000000000000000000000000000000000000000000000000 DUP2 MSTORE PUSH1 0x20 PUSH1 0x4 DUP3 ADD MSTORE PUSH1 0xE PUSH1 0x24 DUP3 ADD MSTORE PUSH32 0x4F6E6C7920666F72206F776E6572000000000000000000000000000000000000 PUSH1 0x44 DUP3 ADD MSTORE PUSH1 0x64 ADD PUSH2 0x107B JUMP JUMPDEST PUSH1 0xF DUP1 SLOAD PUSH32 0xFFFFFFFFFFFFFFFFFFFFFFFF0000000000000000000000000000000000000000 AND PUSH20 0xFFFFFFFFFFFFFFFFFFFFFFFFFFFFFFFFFFFFFFFF SWAP3 SWAP1 SWAP3 AND SWAP2 SWAP1 SWAP2 OR SWAP1 SSTORE JUMP JUMPDEST PUSH1 0x40 MLOAD PUSH32 0x2FC4D79200000000000000000000000000000000000000000000000000000000 DUP2 MSTORE PUSH1 0x10 PUSH1 0x4 DUP3 ADD MSTORE CALLER PUSH1 0x24 DUP3 ADD MSTORE PUSH20 0x0 SWAP1 PUSH4 0x2FC4D792 SWAP1 PUSH1 0x44 ADD PUSH1 0x20 PUSH1 0x40 MLOAD DUP1 DUP4 SUB DUP2 DUP7 GAS DELEGATECALL ISZERO DUP1 ISZERO PUSH2 0x31C8 JUMPI RETURNDATASIZE PUSH1 0x0 DUP1 RETURNDATACOPY RETURNDATASIZE PUSH1 0x0 REVERT JUMPDEST POP POP POP POP PUSH1 0x40 MLOAD RETURNDATASIZE PUSH1 0x1F NOT PUSH1 0x1F DUP3 ADD AND DUP3 ADD DUP1 PUSH1 0x40 MSTORE POP DUP2 ADD SWAP1 PUSH2 0x31EC SWAP2 SWAP1 PUSH2 0x548F JUMP JUMPDEST ISZERO ISZERO PUSH1 0x1 EQ PUSH2 0x3257 JUMPI PUSH1 0x40 MLOAD PUSH32 0x8C379A000000000000000000000000000000000000000000000000000000000 DUP2 MSTORE PUSH1 0x20 PUSH1 0x4 DUP3 ADD MSTORE PUSH1 0x11 PUSH1 0x24 DUP3 ADD MSTORE PUSH32 0x4F6E6C7920666F72206D616E6167657273000000000000000000000000000000 PUSH1 0x44 DUP3 ADD MSTORE PUSH1 0x64 ADD PUSH2 0x107B JUMP JUMPDEST PUSH1 0xF SLOAD PUSH1 0x40 MLOAD PUSH32 0x76678D8400000000000000000000000000000000000000000000000000000000 DUP2 MSTORE PUSH20 0xFFFFFFFFFFFFFFFFFFFFFFFFFFFFFFFFFFFFFFFF SWAP1 SWAP2 AND SWAP1 PUSH4 0x76678D84 SWAP1 PUSH2 0x21B2 SWAP1 DUP6 SWAP1 DUP6 SWAP1 PUSH1 0x4 ADD PUSH2 0x577D JUMP JUMPDEST PUSH1 0x0 SLOAD PUSH20 0xFFFFFFFFFFFFFFFFFFFFFFFFFFFFFFFFFFFFFFFF AND CALLER EQ PUSH2 0x3330 JUMPI PUSH1 0x40 MLOAD PUSH32 0x8C379A000000000000000000000000000000000000000000000000000000000 DUP2 MSTORE PUSH1 0x20 PUSH1 0x4 DUP3 ADD MSTORE PUSH1 0xE PUSH1 0x24 DUP3 ADD MSTORE PUSH32 0x4F6E6C7920666F72206F776E6572000000000000000000000000000000000000 PUSH1 0x44 DUP3 ADD MSTORE PUSH1 0x64 ADD PUSH2 0x107B JUMP JUMPDEST PUSH1 0x12 DUP1 SLOAD PUSH32 0xFFFFFFFFFFFFFFFFFFFFFFFF0000000000000000000000000000000000000000 AND PUSH20 0xFFFFFFFFFFFFFFFFFFFFFFFFFFFFFFFFFFFFFFFF SWAP3 SWAP1 SWAP3 AND SWAP2 SWAP1 SWAP2 OR SWAP1 SSTORE JUMP JUMPDEST PUSH1 0xC SLOAD PUSH1 0x40 MLOAD PUSH32 0x7F66EF3B00000000000000000000000000000000000000000000000000000000 DUP2 MSTORE DUP3 ISZERO ISZERO PUSH1 0x4 DUP3 ADD MSTORE PUSH1 0x60 SWAP2 PUSH20 0xFFFFFFFFFFFFFFFFFFFFFFFFFFFFFFFFFFFFFFFF AND SWAP1 PUSH4 0x7F66EF3B SWAP1 PUSH1 0x24 ADD PUSH1 0x0 PUSH1 0x40 MLOAD DUP1 DUP4 SUB DUP2 DUP7 GAS STATICCALL ISZERO DUP1 ISZERO PUSH2 0x33E8 JUMPI RETURNDATASIZE PUSH1 0x0 DUP1 RETURNDATACOPY RETURNDATASIZE PUSH1 0x0 REVERT JUMPDEST POP POP POP POP PUSH1 0x40 MLOAD RETURNDATASIZE PUSH1 0x0 DUP3 RETURNDATACOPY PUSH1 0x1F RETURNDATASIZE SWAP1 DUP2 ADD PUSH32 0xFFFFFFFFFFFFFFFFFFFFFFFFFFFFFFFFFFFFFFFFFFFFFFFFFFFFFFFFFFFFFFE0 AND DUP3 ADD PUSH1 0x40 MSTORE PUSH2 0x111F SWAP2 SWAP1 DUP2 ADD SWAP1 PUSH2 0x5C73 JUMP JUMPDEST PUSH2 0x34DC PUSH1 0x40 MLOAD DUP1 PUSH2 0x140 ADD PUSH1 0x40 MSTORE DUP1 PUSH1 0x0 DUP2 MSTORE PUSH1 0x20 ADD PUSH1 0x0 DUP2 MSTORE PUSH1 0x20 ADD PUSH1 0x0 PUSH20 0xFFFFFFFFFFFFFFFFFFFFFFFFFFFFFFFFFFFFFFFF AND DUP2 MSTORE PUSH1 0x20 ADD PUSH1 0x0 PUSH20 0xFFFFFFFFFFFFFFFFFFFFFFFFFFFFFFFFFFFFFFFF AND DUP2 MSTORE PUSH1 0x20 ADD PUSH1 0x0 PUSH20 0xFFFFFFFFFFFFFFFFFFFFFFFFFFFFFFFFFFFFFFFF AND DUP2 MSTORE PUSH1 0x20 ADD PUSH1 0x0 DUP2 MSTORE PUSH1 0x20 ADD PUSH1 0x0 DUP2 MSTORE PUSH1 0x20 ADD PUSH1 0x0 DUP2 MSTORE PUSH1 0x20 ADD PUSH1 0x0 PUSH20 0xFFFFFFFFFFFFFFFFFFFFFFFFFFFFFFFFFFFFFFFF AND DUP2 MSTORE PUSH1 0x20 ADD PUSH1 0x60 DUP2 MSTORE POP SWAP1 JUMP JUMPDEST PUSH20 0xFFFFFFFFFFFFFFFFFFFFFFFFFFFFFFFFFFFFFFFF DUP3 AND PUSH1 0x0 SWAP1 DUP2 MSTORE PUSH1 0x5 PUSH1 0x20 MSTORE PUSH1 0x40 SWAP1 KECCAK256 SLOAD ISZERO PUSH2 0x35BB JUMPI PUSH20 0xFFFFFFFFFFFFFFFFFFFFFFFFFFFFFFFFFFFFFFFF DUP1 DUP4 AND PUSH1 0x0 SWAP1 DUP2 MSTORE PUSH1 0x5 PUSH1 0x20 DUP2 DUP2 MSTORE PUSH1 0x40 DUP1 DUP5 KECCAK256 SLOAD DUP5 MSTORE PUSH1 0x4 DUP1 DUP4 MSTORE SWAP4 DUP2 SWAP1 KECCAK256 DUP2 MLOAD PUSH2 0x140 DUP2 ADD DUP4 MSTORE DUP2 SLOAD DUP2 MSTORE PUSH1 0x1 DUP3 ADD SLOAD SWAP4 DUP2 ADD SWAP4 SWAP1 SWAP4 MSTORE PUSH1 0x2 DUP2 ADD SLOAD DUP7 AND SWAP2 DUP4 ADD SWAP2 SWAP1 SWAP2 MSTORE PUSH1 0x3 DUP2 ADD SLOAD DUP6 AND PUSH1 0x60 DUP4 ADD MSTORE SWAP3 DUP4 ADD SLOAD DUP5 AND PUSH1 0x80 DUP3 ADD MSTORE SWAP1 DUP3 ADD SLOAD PUSH1 0xA0 DUP3 ADD MSTORE PUSH1 0x6 DUP3 ADD SLOAD PUSH1 0xC0 DUP3 ADD MSTORE PUSH1 0x7 DUP3 ADD SLOAD PUSH1 0xE0 DUP3 ADD MSTORE PUSH1 0x8 DUP3 ADD SLOAD SWAP1 SWAP3 AND PUSH2 0x100 DUP4 ADD MSTORE PUSH1 0x9 DUP2 ADD DUP1 SLOAD PUSH2 0x120 DUP5 ADD SWAP2 SWAP1 PUSH2 0x3008 SWAP1 PUSH2 0x5441 JUMP JUMPDEST SWAP2 SWAP1 POP JUMP JUMPDEST PUSH1 0x0 SLOAD PUSH20 0xFFFFFFFFFFFFFFFFFFFFFFFFFFFFFFFFFFFFFFFF AND CALLER EQ PUSH2 0x3641 JUMPI PUSH1 0x40 MLOAD PUSH32 0x8C379A000000000000000000000000000000000000000000000000000000000 DUP2 MSTORE PUSH1 0x20 PUSH1 0x4 DUP3 ADD MSTORE PUSH1 0xE PUSH1 0x24 DUP3 ADD MSTORE PUSH32 0x4F6E6C7920666F72206F776E6572000000000000000000000000000000000000 PUSH1 0x44 DUP3 ADD MSTORE PUSH1 0x64 ADD PUSH2 0x107B JUMP JUMPDEST PUSH1 0x3 SSTORE JUMP JUMPDEST PUSH1 0x1 SLOAD PUSH1 0x40 MLOAD PUSH32 0x70A0823100000000000000000000000000000000000000000000000000000000 DUP2 MSTORE ADDRESS PUSH1 0x4 DUP3 ADD MSTORE PUSH1 0x0 SWAP2 PUSH20 0xFFFFFFFFFFFFFFFFFFFFFFFFFFFFFFFFFFFFFFFF AND SWAP1 PUSH4 0x70A08231 SWAP1 PUSH1 0x24 ADD PUSH1 0x20 PUSH1 0x40 MLOAD DUP1 DUP4 SUB DUP2 DUP7 GAS STATICCALL ISZERO DUP1 ISZERO PUSH2 0x2250 JUMPI RETURNDATASIZE PUSH1 0x0 DUP1 RETURNDATACOPY RETURNDATASIZE PUSH1 0x0 REVERT JUMPDEST PUSH1 0x1 SLOAD PUSH1 0x40 DUP1 MLOAD PUSH32 0x6FDDE0300000000000000000000000000000000000000000000000000000000 DUP2 MSTORE SWAP1 MLOAD PUSH1 0x60 SWAP3 PUSH20 0xFFFFFFFFFFFFFFFFFFFFFFFFFFFFFFFFFFFFFFFF AND SWAP2 PUSH4 0x6FDDE03 SWAP2 PUSH1 0x4 DUP1 DUP4 ADD SWAP3 PUSH1 0x0 SWAP3 SWAP2 SWAP1 DUP3 SWAP1 SUB ADD DUP2 DUP7 GAS STATICCALL ISZERO DUP1 ISZERO PUSH2 0x3725 JUMPI RETURNDATASIZE PUSH1 0x0 DUP1 RETURNDATACOPY RETURNDATASIZE PUSH1 0x0 REVERT JUMPDEST POP POP POP POP PUSH1 0x40 MLOAD RETURNDATASIZE PUSH1 0x0 DUP3 RETURNDATACOPY PUSH1 0x1F RETURNDATASIZE SWAP1 DUP2 ADD PUSH32 0xFFFFFFFFFFFFFFFFFFFFFFFFFFFFFFFFFFFFFFFFFFFFFFFFFFFFFFFFFFFFFFE0 AND DUP3 ADD PUSH1 0x40 MSTORE PUSH2 0x2274 SWAP2 SWAP1 DUP2 ADD SWAP1 PUSH2 0x5D17 JUMP JUMPDEST PUSH2 0x37BC PUSH1 0x40 MLOAD DUP1 PUSH1 0xC0 ADD PUSH1 0x40 MSTORE DUP1 PUSH1 0x0 PUSH20 0xFFFFFFFFFFFFFFFFFFFFFFFFFFFFFFFFFFFFFFFF AND DUP2 MSTORE PUSH1 0x20 ADD PUSH1 0x0 DUP2 MSTORE PUSH1 0x20 ADD PUSH1 0x60 DUP2 MSTORE PUSH1 0x20 ADD PUSH1 0x0 DUP2 MSTORE PUSH1 0x20 ADD PUSH1 0x0 DUP2 MSTORE PUSH1 0x20 ADD PUSH1 0x0 ISZERO ISZERO DUP2 MSTORE POP SWAP1 JUMP JUMPDEST PUSH1 0xD SLOAD PUSH1 0x40 MLOAD PUSH32 0x878D7D8700000000000000000000000000000000000000000000000000000000 DUP2 MSTORE PUSH20 0xFFFFFFFFFFFFFFFFFFFFFFFFFFFFFFFFFFFFFFFF DUP5 DUP2 AND PUSH1 0x4 DUP4 ADD MSTORE SWAP1 SWAP2 AND SWAP1 PUSH4 0x878D7D87 SWAP1 PUSH1 0x24 ADD PUSH1 0x0 PUSH1 0x40 MLOAD DUP1 DUP4 SUB DUP2 DUP7 GAS STATICCALL ISZERO DUP1 ISZERO PUSH2 0x382C JUMPI RETURNDATASIZE PUSH1 0x0 DUP1 RETURNDATACOPY RETURNDATASIZE PUSH1 0x0 REVERT JUMPDEST POP POP POP POP PUSH1 0x40 MLOAD RETURNDATASIZE PUSH1 0x0 DUP3 RETURNDATACOPY PUSH1 0x1F RETURNDATASIZE SWAP1 DUP2 ADD PUSH32 0xFFFFFFFFFFFFFFFFFFFFFFFFFFFFFFFFFFFFFFFFFFFFFFFFFFFFFFFFFFFFFFE0 AND DUP3 ADD PUSH1 0x40 MSTORE PUSH2 0x111F SWAP2 SWAP1 DUP2 ADD SWAP1 PUSH2 0x5D4C JUMP JUMPDEST PUSH2 0x38EC PUSH1 0x40 MLOAD DUP1 PUSH2 0x180 ADD PUSH1 0x40 MSTORE DUP1 PUSH1 0x0 PUSH20 0xFFFFFFFFFFFFFFFFFFFFFFFFFFFFFFFFFFFFFFFF AND DUP2 MSTORE PUSH1 0x20 ADD PUSH1 0x0 DUP2 MSTORE PUSH1 0x20 ADD PUSH1 0x60 DUP2 MSTORE PUSH1 0x20 ADD PUSH1 0x0 DUP2 MSTORE PUSH1 0x20 ADD PUSH1 0x0 DUP2 MSTORE PUSH1 0x20 ADD PUSH1 0x0 DUP2 MSTORE PUSH1 0x20 ADD PUSH1 0x60 DUP2 MSTORE PUSH1 0x20 ADD PUSH1 0x60 DUP2 MSTORE PUSH1 0x20 ADD PUSH1 0x60 DUP2 MSTORE PUSH1 0x20 ADD PUSH1 0x0 DUP2 MSTORE PUSH1 0x20 ADD PUSH1 0x0 DUP2 MSTORE PUSH1 0x20 ADD PUSH1 0x0 DUP2 MSTORE POP SWAP1 JUMP JUMPDEST PUSH1 0xC SLOAD PUSH1 0x40 MLOAD PUSH32 0x88235D1800000000000000000000000000000000000000000000000000000000 DUP2 MSTORE PUSH20 0xFFFFFFFFFFFFFFFFFFFFFFFFFFFFFFFFFFFFFFFF DUP6 DUP2 AND PUSH1 0x4 DUP4 ADD MSTORE DUP5 ISZERO ISZERO PUSH1 0x24 DUP4 ADD MSTORE SWAP1 SWAP2 AND SWAP1 PUSH4 0x88235D18 SWAP1 PUSH1 0x44 ADD PUSH1 0x0 PUSH1 0x40 MLOAD DUP1 DUP4 SUB DUP2 DUP7 GAS STATICCALL ISZERO DUP1 ISZERO PUSH2 0x3964 JUMPI RETURNDATASIZE PUSH1 0x0 DUP1 RETURNDATACOPY RETURNDATASIZE PUSH1 0x0 REVERT JUMPDEST POP POP POP POP PUSH1 0x40 MLOAD RETURNDATASIZE PUSH1 0x0 DUP3 RETURNDATACOPY PUSH1 0x1F RETURNDATASIZE SWAP1 DUP2 ADD PUSH32 0xFFFFFFFFFFFFFFFFFFFFFFFFFFFFFFFFFFFFFFFFFFFFFFFFFFFFFFFFFFFFFFE0 AND DUP3 ADD PUSH1 0x40 MSTORE PUSH2 0x2336 SWAP2 SWAP1 DUP2 ADD SWAP1 PUSH2 0x5D81 JUMP JUMPDEST PUSH1 0xD SLOAD PUSH1 0x40 MLOAD PUSH32 0x98ADCC9700000000000000000000000000000000000000000000000000000000 DUP2 MSTORE PUSH1 0x4 DUP2 ADD DUP5 SWAP1 MSTORE PUSH1 0x24 DUP2 ADD DUP4 SWAP1 MSTORE PUSH1 0x60 SWAP2 PUSH20 0xFFFFFFFFFFFFFFFFFFFFFFFFFFFFFFFFFFFFFFFF AND SWAP1 PUSH4 0x98ADCC97 SWAP1 PUSH1 0x44 ADD PUSH1 0x0 PUSH1 0x40 MLOAD DUP1 DUP4 SUB DUP2 DUP7 GAS STATICCALL ISZERO DUP1 ISZERO PUSH2 0x3A21 JUMPI RETURNDATASIZE PUSH1 0x0 DUP1 RETURNDATACOPY RETURNDATASIZE PUSH1 0x0 REVERT JUMPDEST POP POP POP POP PUSH1 0x40 MLOAD RETURNDATASIZE PUSH1 0x0 DUP3 RETURNDATACOPY PUSH1 0x1F RETURNDATASIZE SWAP1 DUP2 ADD PUSH32 0xFFFFFFFFFFFFFFFFFFFFFFFFFFFFFFFFFFFFFFFFFFFFFFFFFFFFFFFFFFFFFFE0 AND DUP3 ADD PUSH1 0x40 MSTORE PUSH2 0x2336 SWAP2 SWAP1 DUP2 ADD SWAP1 PUSH2 0x5ACB JUMP JUMPDEST PUSH1 0xF SLOAD PUSH1 0x40 MLOAD PUSH32 0x98D7A15200000000000000000000000000000000000000000000000000000000 DUP2 MSTORE PUSH20 0xFFFFFFFFFFFFFFFFFFFFFFFFFFFFFFFFFFFFFFFF DUP4 DUP2 AND PUSH1 0x4 DUP4 ADD MSTORE PUSH1 0x60 SWAP3 AND SWAP1 PUSH4 0x98D7A152 SWAP1 PUSH1 0x24 ADD PUSH1 0x0 PUSH1 0x40 MLOAD DUP1 DUP4 SUB DUP2 DUP7 GAS STATICCALL ISZERO DUP1 ISZERO PUSH2 0x3AD8 JUMPI RETURNDATASIZE PUSH1 0x0 DUP1 RETURNDATACOPY RETURNDATASIZE PUSH1 0x0 REVERT JUMPDEST POP POP POP POP PUSH1 0x40 MLOAD RETURNDATASIZE PUSH1 0x0 DUP3 RETURNDATACOPY PUSH1 0x1F RETURNDATASIZE SWAP1 DUP2 ADD PUSH32 0xFFFFFFFFFFFFFFFFFFFFFFFFFFFFFFFFFFFFFFFFFFFFFFFFFFFFFFFFFFFFFFE0 AND DUP3 ADD PUSH1 0x40 MSTORE PUSH2 0x111F SWAP2 SWAP1 DUP2 ADD SWAP1 PUSH2 0x5D17 JUMP JUMPDEST PUSH1 0xF SLOAD PUSH1 0x40 MLOAD PUSH32 0x6E54F5A600000000000000000000000000000000000000000000000000000000 DUP2 MSTORE PUSH20 0xFFFFFFFFFFFFFFFFFFFFFFFFFFFFFFFFFFFFFFFF DUP4 DUP2 AND PUSH1 0x4 DUP4 ADD MSTORE PUSH1 0x0 SWAP3 AND SWAP1 PUSH4 0x6E54F5A6 SWAP1 PUSH1 0x24 ADD PUSH1 0x20 PUSH1 0x40 MLOAD DUP1 DUP4 SUB DUP2 DUP7 GAS STATICCALL ISZERO DUP1 ISZERO PUSH2 0x3B8F JUMPI RETURNDATASIZE PUSH1 0x0 DUP1 RETURNDATACOPY RETURNDATASIZE PUSH1 0x0 REVERT JUMPDEST POP POP POP POP PUSH1 0x40 MLOAD RETURNDATASIZE PUSH1 0x1F NOT PUSH1 0x1F DUP3 ADD AND DUP3 ADD DUP1 PUSH1 0x40 MSTORE POP DUP2 ADD SWAP1 PUSH2 0x111F SWAP2 SWAP1 PUSH2 0x5DB6 JUMP JUMPDEST PUSH1 0x0 SLOAD PUSH20 0xFFFFFFFFFFFFFFFFFFFFFFFFFFFFFFFFFFFFFFFF AND CALLER EQ PUSH2 0x3C34 JUMPI PUSH1 0x40 MLOAD PUSH32 0x8C379A000000000000000000000000000000000000000000000000000000000 DUP2 MSTORE PUSH1 0x20 PUSH1 0x4 DUP3 ADD MSTORE PUSH1 0xE PUSH1 0x24 DUP3 ADD MSTORE PUSH32 0x4F6E6C7920666F72206F776E6572000000000000000000000000000000000000 PUSH1 0x44 DUP3 ADD MSTORE PUSH1 0x64 ADD PUSH2 0x107B JUMP JUMPDEST PUSH1 0x2 SSTORE JUMP JUMPDEST PUSH1 0x1 SLOAD PUSH1 0x40 MLOAD PUSH32 0x70A0823100000000000000000000000000000000000000000000000000000000 DUP2 MSTORE PUSH20 0xFFFFFFFFFFFFFFFFFFFFFFFFFFFFFFFFFFFFFFFF DUP4 DUP2 AND PUSH1 0x4 DUP4 ADD MSTORE PUSH1 0x0 SWAP3 AND SWAP1 PUSH4 0x70A08231 SWAP1 PUSH1 0x24 ADD PUSH2 0x10DE JUMP JUMPDEST PUSH1 0x40 MLOAD PUSH32 0x23935EEE00000000000000000000000000000000000000000000000000000000 DUP2 MSTORE PUSH1 0x10 PUSH1 0x4 DUP3 ADD MSTORE PUSH1 0x0 PUSH1 0x24 DUP3 ADD DUP2 SWAP1 MSTORE PUSH1 0x44 DUP3 ADD MSTORE PUSH1 0x60 SWAP1 PUSH20 0x0 SWAP1 PUSH4 0x23935EEE SWAP1 PUSH1 0x64 ADD PUSH1 0x0 PUSH1 0x40 MLOAD DUP1 DUP4 SUB DUP2 DUP7 GAS DELEGATECALL ISZERO DUP1 ISZERO PUSH2 0x2E6C JUMPI RETURNDATASIZE PUSH1 0x0 DUP1 RETURNDATACOPY RETURNDATASIZE PUSH1 0x0 REVERT JUMPDEST PUSH1 0x0 SLOAD PUSH20 0xFFFFFFFFFFFFFFFFFFFFFFFFFFFFFFFFFFFFFFFF AND CALLER EQ PUSH2 0x3D8D JUMPI PUSH1 0x40 MLOAD PUSH32 0x8C379A000000000000000000000000000000000000000000000000000000000 DUP2 MSTORE PUSH1 0x20 PUSH1 0x4 DUP3 ADD MSTORE PUSH1 0xE PUSH1 0x24 DUP3 ADD MSTORE PUSH32 0x4F6E6C7920666F72206F776E6572000000000000000000000000000000000000 PUSH1 0x44 DUP3 ADD MSTORE PUSH1 0x64 ADD PUSH2 0x107B JUMP JUMPDEST PUSH1 0xD DUP1 SLOAD PUSH32 0xFFFFFFFFFFFFFFFFFFFFFFFF0000000000000000000000000000000000000000 AND PUSH20 0xFFFFFFFFFFFFFFFFFFFFFFFFFFFFFFFFFFFFFFFF SWAP3 SWAP1 SWAP3 AND SWAP2 SWAP1 SWAP2 OR SWAP1 SSTORE JUMP JUMPDEST PUSH1 0xC SLOAD PUSH1 0x40 MLOAD PUSH32 0x17FC30D400000000000000000000000000000000000000000000000000000000 DUP2 MSTORE CALLER PUSH1 0x4 DUP3 ADD MSTORE PUSH1 0x0 SWAP2 PUSH20 0xFFFFFFFFFFFFFFFFFFFFFFFFFFFFFFFFFFFFFFFF AND SWAP1 PUSH4 0x17FC30D4 SWAP1 PUSH1 0x24 ADD PUSH1 0x20 PUSH1 0x40 MLOAD DUP1 DUP4 SUB DUP2 DUP7 GAS STATICCALL ISZERO DUP1 ISZERO PUSH2 0x3E43 JUMPI RETURNDATASIZE PUSH1 0x0 DUP1 RETURNDATACOPY RETURNDATASIZE PUSH1 0x0 REVERT JUMPDEST POP POP POP POP PUSH1 0x40 MLOAD RETURNDATASIZE PUSH1 0x1F NOT PUSH1 0x1F DUP3 ADD AND DUP3 ADD DUP1 PUSH1 0x40 MSTORE POP DUP2 ADD SWAP1 PUSH2 0x3E67 SWAP2 SWAP1 PUSH2 0x548F JUMP JUMPDEST ISZERO ISZERO PUSH1 0x1 EQ PUSH2 0x3ED2 JUMPI PUSH1 0x40 MLOAD PUSH32 0x8C379A000000000000000000000000000000000000000000000000000000000 DUP2 MSTORE PUSH1 0x20 PUSH1 0x4 DUP3 ADD MSTORE PUSH1 0x10 PUSH1 0x24 DUP3 ADD MSTORE PUSH32 0x4F6E6C7920666F72206D696E7465727300000000000000000000000000000000 PUSH1 0x44 DUP3 ADD MSTORE PUSH1 0x64 ADD PUSH2 0x107B JUMP JUMPDEST PUSH1 0x0 DUP5 GT PUSH2 0x3F3C JUMPI PUSH1 0x40 MLOAD PUSH32 0x8C379A000000000000000000000000000000000000000000000000000000000 DUP2 MSTORE PUSH1 0x20 PUSH1 0x4 DUP3 ADD MSTORE PUSH1 0x1B PUSH1 0x24 DUP3 ADD MSTORE PUSH32 0x416D6F756E74206D7573742062652067726561746572207A65726F0000000000 PUSH1 0x44 DUP3 ADD MSTORE PUSH1 0x64 ADD PUSH2 0x107B JUMP JUMPDEST PUSH1 0x0 DUP4 ISZERO PUSH2 0x3F4A JUMPI DUP4 PUSH2 0x3F4E JUMP JUMPDEST PUSH1 0x2 SLOAD JUMPDEST PUSH1 0x13 SLOAD PUSH1 0x1 SLOAD PUSH1 0xC SLOAD PUSH1 0x40 MLOAD PUSH32 0x183101D300000000000000000000000000000000000000000000000000000000 DUP2 MSTORE CALLER PUSH1 0x4 DUP3 ADD DUP2 SWAP1 MSTORE SWAP5 SWAP6 POP PUSH1 0x0 SWAP5 PUSH20 0xFFFFFFFFFFFFFFFFFFFFFFFFFFFFFFFFFFFFFFFF SWAP5 DUP6 AND SWAP5 PUSH4 0x705FC4E3 SWAP5 DUP2 AND SWAP4 SWAP2 SWAP3 DUP13 SWAP3 TIMESTAMP SWAP3 DUP11 SWAP3 SWAP2 AND SWAP1 PUSH4 0x183101D3 SWAP1 PUSH1 0x24 ADD PUSH1 0x0 PUSH1 0x40 MLOAD DUP1 DUP4 SUB DUP2 DUP7 GAS STATICCALL ISZERO DUP1 ISZERO PUSH2 0x3FDE JUMPI RETURNDATASIZE PUSH1 0x0 DUP1 RETURNDATACOPY RETURNDATASIZE PUSH1 0x0 REVERT JUMPDEST POP POP POP POP PUSH1 0x40 MLOAD RETURNDATASIZE PUSH1 0x0 DUP3 RETURNDATACOPY PUSH1 0x1F RETURNDATASIZE SWAP1 DUP2 ADD PUSH32 0xFFFFFFFFFFFFFFFFFFFFFFFFFFFFFFFFFFFFFFFFFFFFFFFFFFFFFFFFFFFFFFE0 AND DUP3 ADD PUSH1 0x40 MSTORE PUSH2 0x4024 SWAP2 SWAP1 DUP2 ADD SWAP1 PUSH2 0x5D17 JUMP JUMPDEST DUP12 PUSH1 0x40 MLOAD DUP9 PUSH4 0xFFFFFFFF AND PUSH1 0xE0 SHL DUP2 MSTORE PUSH1 0x4 ADD PUSH2 0x4047 SWAP8 SWAP7 SWAP6 SWAP5 SWAP4 SWAP3 SWAP2 SWAP1 PUSH2 0x5DD3 JUMP JUMPDEST PUSH1 0x20 PUSH1 0x40 MLOAD DUP1 DUP4 SUB DUP2 PUSH1 0x0 DUP8 GAS CALL ISZERO DUP1 ISZERO PUSH2 0x4066 JUMPI RETURNDATASIZE PUSH1 0x0 DUP1 RETURNDATACOPY RETURNDATASIZE PUSH1 0x0 REVERT JUMPDEST POP POP POP POP PUSH1 0x40 MLOAD RETURNDATASIZE PUSH1 0x1F NOT PUSH1 0x1F DUP3 ADD AND DUP3 ADD DUP1 PUSH1 0x40 MSTORE POP DUP2 ADD SWAP1 PUSH2 0x408A SWAP2 SWAP1 PUSH2 0x5DB6 JUMP JUMPDEST PUSH1 0x6 DUP1 SLOAD SWAP2 SWAP3 POP PUSH1 0x0 PUSH2 0x409C DUP4 PUSH2 0x5523 JUMP JUMPDEST SWAP2 SWAP1 POP SSTORE POP PUSH1 0x40 MLOAD DUP1 PUSH2 0x140 ADD PUSH1 0x40 MSTORE DUP1 PUSH1 0x6 SLOAD DUP2 MSTORE PUSH1 0x20 ADD DUP8 DUP2 MSTORE PUSH1 0x20 ADD CALLER PUSH20 0xFFFFFFFFFFFFFFFFFFFFFFFFFFFFFFFFFFFFFFFF AND DUP2 MSTORE PUSH1 0x20 ADD PUSH1 0x0 PUSH20 0xFFFFFFFFFFFFFFFFFFFFFFFFFFFFFFFFFFFFFFFF AND DUP2 MSTORE PUSH1 0x20 ADD PUSH1 0x0 PUSH20 0xFFFFFFFFFFFFFFFFFFFFFFFFFFFFFFFFFFFFFFFF AND DUP2 MSTORE PUSH1 0x20 ADD TIMESTAMP DUP2 MSTORE PUSH1 0x20 ADD PUSH1 0x0 DUP2 MSTORE PUSH1 0x20 ADD DUP4 DUP2 MSTORE PUSH1 0x20 ADD DUP3 PUSH20 0xFFFFFFFFFFFFFFFFFFFFFFFFFFFFFFFFFFFFFFFF AND DUP2 MSTORE PUSH1 0x20 ADD DUP6 DUP2 MSTORE POP PUSH1 0x4 PUSH1 0x0 PUSH1 0x6 SLOAD DUP2 MSTORE PUSH1 0x20 ADD SWAP1 DUP2 MSTORE PUSH1 0x20 ADD PUSH1 0x0 KECCAK256 PUSH1 0x0 DUP3 ADD MLOAD DUP2 PUSH1 0x0 ADD SSTORE PUSH1 0x20 DUP3 ADD MLOAD DUP2 PUSH1 0x1 ADD SSTORE PUSH1 0x40 DUP3 ADD MLOAD DUP2 PUSH1 0x2 ADD PUSH1 0x0 PUSH2 0x100 EXP DUP2 SLOAD DUP2 PUSH20 0xFFFFFFFFFFFFFFFFFFFFFFFFFFFFFFFFFFFFFFFF MUL NOT AND SWAP1 DUP4 PUSH20 0xFFFFFFFFFFFFFFFFFFFFFFFFFFFFFFFFFFFFFFFF AND MUL OR SWAP1 SSTORE POP PUSH1 0x60 DUP3 ADD MLOAD DUP2 PUSH1 0x3 ADD PUSH1 0x0 PUSH2 0x100 EXP DUP2 SLOAD DUP2 PUSH20 0xFFFFFFFFFFFFFFFFFFFFFFFFFFFFFFFFFFFFFFFF MUL NOT AND SWAP1 DUP4 PUSH20 0xFFFFFFFFFFFFFFFFFFFFFFFFFFFFFFFFFFFFFFFF AND MUL OR SWAP1 SSTORE POP PUSH1 0x80 DUP3 ADD MLOAD DUP2 PUSH1 0x4 ADD PUSH1 0x0 PUSH2 0x100 EXP DUP2 SLOAD DUP2 PUSH20 0xFFFFFFFFFFFFFFFFFFFFFFFFFFFFFFFFFFFFFFFF MUL NOT AND SWAP1 DUP4 PUSH20 0xFFFFFFFFFFFFFFFFFFFFFFFFFFFFFFFFFFFFFFFF AND MUL OR SWAP1 SSTORE POP PUSH1 0xA0 DUP3 ADD MLOAD DUP2 PUSH1 0x5 ADD SSTORE PUSH1 0xC0 DUP3 ADD MLOAD DUP2 PUSH1 0x6 ADD SSTORE PUSH1 0xE0 DUP3 ADD MLOAD DUP2 PUSH1 0x7 ADD SSTORE PUSH2 0x100 DUP3 ADD MLOAD DUP2 PUSH1 0x8 ADD PUSH1 0x0 PUSH2 0x100 EXP DUP2 SLOAD DUP2 PUSH20 0xFFFFFFFFFFFFFFFFFFFFFFFFFFFFFFFFFFFFFFFF MUL NOT AND SWAP1 DUP4 PUSH20 0xFFFFFFFFFFFFFFFFFFFFFFFFFFFFFFFFFFFFFFFF AND MUL OR SWAP1 SSTORE POP PUSH2 0x120 DUP3 ADD MLOAD DUP2 PUSH1 0x9 ADD SWAP1 DUP1 MLOAD SWAP1 PUSH1 0x20 ADD SWAP1 PUSH2 0x42C5 SWAP3 SWAP2 SWAP1 PUSH2 0x4924 JUMP JUMPDEST POP POP PUSH1 0x6 SLOAD PUSH20 0xFFFFFFFFFFFFFFFFFFFFFFFFFFFFFFFFFFFFFFFF DUP4 AND PUSH1 0x0 SWAP1 DUP2 MSTORE PUSH1 0x5 PUSH1 0x20 MSTORE PUSH1 0x40 DUP2 KECCAK256 SWAP2 SWAP1 SWAP2 SSTORE PUSH1 0x9 DUP1 SLOAD DUP10 SWAP4 POP SWAP1 SWAP2 SWAP1 PUSH2 0x4308 SWAP1 DUP5 SWAP1 PUSH2 0x555C JUMP JUMPDEST SWAP1 SWAP2 SSTORE POP POP PUSH1 0xC SLOAD PUSH1 0x6 SLOAD PUSH1 0x40 MLOAD PUSH32 0xD5FC8F0800000000000000000000000000000000000000000000000000000000 DUP2 MSTORE CALLER PUSH1 0x4 DUP3 ADD MSTORE PUSH1 0x24 DUP2 ADD DUP10 SWAP1 MSTORE PUSH1 0x44 DUP2 ADD SWAP2 SWAP1 SWAP2 MSTORE PUSH20 0xFFFFFFFFFFFFFFFFFFFFFFFFFFFFFFFFFFFFFFFF SWAP1 SWAP2 AND SWAP1 PUSH4 0xD5FC8F08 SWAP1 PUSH1 0x64 ADD PUSH1 0x0 PUSH1 0x40 MLOAD DUP1 DUP4 SUB DUP2 PUSH1 0x0 DUP8 DUP1 EXTCODESIZE ISZERO DUP1 ISZERO PUSH2 0x438A JUMPI PUSH1 0x0 DUP1 REVERT JUMPDEST POP GAS CALL ISZERO DUP1 ISZERO PUSH2 0x439E JUMPI RETURNDATASIZE PUSH1 0x0 DUP1 RETURNDATACOPY RETURNDATASIZE PUSH1 0x0 REVERT JUMPDEST POP POP PUSH1 0x7 DUP1 SLOAD SWAP3 POP SWAP1 POP PUSH1 0x0 PUSH2 0x43B3 DUP4 PUSH2 0x5523 JUMP JUMPDEST SWAP1 SWAP2 SSTORE POP POP PUSH1 0x40 MLOAD PUSH20 0xFFFFFFFFFFFFFFFFFFFFFFFFFFFFFFFFFFFFFFFF DUP3 AND DUP2 MSTORE PUSH32 0x12A2DCD8D60F7D320A97F9B2F6BCA5B67C1BB9808B27C28915C541EED450D05F SWAP1 PUSH1 0x20 ADD PUSH1 0x40 MLOAD DUP1 SWAP2 SUB SWAP1 LOG1 SWAP6 SWAP5 POP POP POP POP POP JUMP JUMPDEST PUSH1 0x40 MLOAD PUSH32 0xC3D3C75000000000000000000000000000000000000000000000000000000000 DUP2 MSTORE PUSH1 0x10 PUSH1 0x4 DUP3 ADD MSTORE PUSH1 0x0 SWAP1 PUSH20 0x0 SWAP1 PUSH4 0xC3D3C750 SWAP1 PUSH1 0x24 ADD PUSH1 0x20 PUSH1 0x40 MLOAD DUP1 DUP4 SUB DUP2 DUP7 GAS DELEGATECALL ISZERO DUP1 ISZERO PUSH2 0x2250 JUMPI RETURNDATASIZE PUSH1 0x0 DUP1 RETURNDATACOPY RETURNDATASIZE PUSH1 0x0 REVERT JUMPDEST PUSH1 0xC SLOAD PUSH1 0x40 MLOAD PUSH32 0x7C84677100000000000000000000000000000000000000000000000000000000 DUP2 MSTORE PUSH20 0xFFFFFFFFFFFFFFFFFFFFFFFFFFFFFFFFFFFFFFFF DUP6 DUP2 AND PUSH1 0x4 DUP4 ADD MSTORE PUSH1 0x24 DUP3 ADD DUP6 SWAP1 MSTORE PUSH1 0x44 DUP3 ADD DUP5 SWAP1 MSTORE PUSH1 0x60 SWAP3 PUSH1 0x0 SWAP3 SWAP2 AND SWAP1 PUSH4 0x7C846771 SWAP1 PUSH1 0x64 ADD PUSH2 0x2A5A JUMP JUMPDEST PUSH1 0x40 MLOAD PUSH32 0x2FC4D79200000000000000000000000000000000000000000000000000000000 DUP2 MSTORE PUSH1 0x10 PUSH1 0x4 DUP3 ADD MSTORE CALLER PUSH1 0x24 DUP3 ADD MSTORE PUSH20 0x0 SWAP1 PUSH4 0x2FC4D792 SWAP1 PUSH1 0x44 ADD PUSH1 0x20 PUSH1 0x40 MLOAD DUP1 DUP4 SUB DUP2 DUP7 GAS DELEGATECALL ISZERO DUP1 ISZERO PUSH2 0x4550 JUMPI RETURNDATASIZE PUSH1 0x0 DUP1 RETURNDATACOPY RETURNDATASIZE PUSH1 0x0 REVERT JUMPDEST POP POP POP POP PUSH1 0x40 MLOAD RETURNDATASIZE PUSH1 0x1F NOT PUSH1 0x1F DUP3 ADD AND DUP3 ADD DUP1 PUSH1 0x40 MSTORE POP DUP2 ADD SWAP1 PUSH2 0x4574 SWAP2 SWAP1 PUSH2 0x548F JUMP JUMPDEST ISZERO ISZERO PUSH1 0x1 EQ PUSH2 0x45DF JUMPI PUSH1 0x40 MLOAD PUSH32 0x8C379A000000000000000000000000000000000000000000000000000000000 DUP2 MSTORE PUSH1 0x20 PUSH1 0x4 DUP3 ADD MSTORE PUSH1 0x11 PUSH1 0x24 DUP3 ADD MSTORE PUSH32 0x4F6E6C7920666F72206D616E6167657273000000000000000000000000000000 PUSH1 0x44 DUP3 ADD MSTORE PUSH1 0x64 ADD PUSH2 0x107B JUMP JUMPDEST PUSH1 0xC SLOAD PUSH1 0x40 MLOAD PUSH32 0xECE7643500000000000000000000000000000000000000000000000000000000 DUP2 MSTORE PUSH20 0xFFFFFFFFFFFFFFFFFFFFFFFFFFFFFFFFFFFFFFFF SWAP1 SWAP2 AND SWAP1 PUSH4 0xECE76435 SWAP1 PUSH2 0x21B2 SWAP1 DUP6 SWAP1 DUP6 SWAP1 PUSH1 0x4 ADD PUSH2 0x577D JUMP JUMPDEST PUSH1 0xC SLOAD PUSH1 0x40 DUP1 MLOAD PUSH32 0xEED3198600000000000000000000000000000000000000000000000000000000 DUP2 MSTORE SWAP1 MLOAD PUSH1 0x0 SWAP3 PUSH20 0xFFFFFFFFFFFFFFFFFFFFFFFFFFFFFFFFFFFFFFFF AND SWAP2 PUSH4 0xEED31986 SWAP2 PUSH1 0x4 DUP1 DUP4 ADD SWAP3 PUSH1 0x20 SWAP3 SWAP2 SWAP1 DUP3 SWAP1 SUB ADD DUP2 DUP7 GAS STATICCALL ISZERO DUP1 ISZERO PUSH2 0x2250 JUMPI RETURNDATASIZE PUSH1 0x0 DUP1 RETURNDATACOPY RETURNDATASIZE PUSH1 0x0 REVERT JUMPDEST PUSH1 0x1 SLOAD PUSH1 0x40 DUP1 MLOAD PUSH32 0x95D89B4100000000000000000000000000000000000000000000000000000000 DUP2 MSTORE SWAP1 MLOAD PUSH1 0x60 SWAP3 PUSH20 0xFFFFFFFFFFFFFFFFFFFFFFFFFFFFFFFFFFFFFFFF AND SWAP2 PUSH4 0x95D89B41 SWAP2 PUSH1 0x4 DUP1 DUP4 ADD SWAP3 PUSH1 0x0 SWAP3 SWAP2 SWAP1 DUP3 SWAP1 SUB ADD DUP2 DUP7 GAS STATICCALL ISZERO DUP1 ISZERO PUSH2 0x3725 JUMPI RETURNDATASIZE PUSH1 0x0 DUP1 RETURNDATACOPY RETURNDATASIZE PUSH1 0x0 REVERT JUMPDEST PUSH1 0x0 SLOAD PUSH20 0xFFFFFFFFFFFFFFFFFFFFFFFFFFFFFFFFFFFFFFFF AND CALLER EQ PUSH2 0x4798 JUMPI PUSH1 0x40 MLOAD PUSH32 0x8C379A000000000000000000000000000000000000000000000000000000000 DUP2 MSTORE PUSH1 0x20 PUSH1 0x4 DUP3 ADD MSTORE PUSH1 0xE PUSH1 0x24 DUP3 ADD MSTORE PUSH32 0x4F6E6C7920666F72206F776E6572000000000000000000000000000000000000 PUSH1 0x44 DUP3 ADD MSTORE PUSH1 0x64 ADD PUSH2 0x107B JUMP JUMPDEST PUSH1 0xC DUP1 SLOAD PUSH32 0xFFFFFFFFFFFFFFFFFFFFFFFF0000000000000000000000000000000000000000 AND PUSH20 0xFFFFFFFFFFFFFFFFFFFFFFFFFFFFFFFFFFFFFFFF SWAP3 SWAP1 SWAP3 AND SWAP2 SWAP1 SWAP2 OR SWAP1 SSTORE JUMP JUMPDEST PUSH1 0x0 SLOAD PUSH20 0xFFFFFFFFFFFFFFFFFFFFFFFFFFFFFFFFFFFFFFFF AND CALLER EQ PUSH2 0x4860 JUMPI PUSH1 0x40 MLOAD PUSH32 0x8C379A000000000000000000000000000000000000000000000000000000000 DUP2 MSTORE PUSH1 0x20 PUSH1 0x4 DUP3 ADD MSTORE PUSH1 0xE PUSH1 0x24 DUP3 ADD MSTORE PUSH32 0x4F6E6C7920666F72206F776E6572000000000000000000000000000000000000 PUSH1 0x44 DUP3 ADD MSTORE PUSH1 0x64 ADD PUSH2 0x107B JUMP JUMPDEST PUSH20 0xFFFFFFFFFFFFFFFFFFFFFFFFFFFFFFFFFFFFFFFF DUP2 AND PUSH2 0x48DD JUMPI PUSH1 0x40 MLOAD PUSH32 0x8C379A000000000000000000000000000000000000000000000000000000000 DUP2 MSTORE PUSH1 0x20 PUSH1 0x4 DUP3 ADD MSTORE PUSH1 0x1A PUSH1 0x24 DUP3 ADD MSTORE PUSH32 0x4F776E657220616464726573732063616E74206265207A65726F000000000000 PUSH1 0x44 DUP3 ADD MSTORE PUSH1 0x64 ADD PUSH2 0x107B JUMP JUMPDEST PUSH1 0x0 DUP1 SLOAD PUSH32 0xFFFFFFFFFFFFFFFFFFFFFFFF0000000000000000000000000000000000000000 AND PUSH20 0xFFFFFFFFFFFFFFFFFFFFFFFFFFFFFFFFFFFFFFFF SWAP3 SWAP1 SWAP3 AND SWAP2 SWAP1 SWAP2 OR SWAP1 SSTORE JUMP JUMPDEST DUP3 DUP1 SLOAD PUSH2 0x4930 SWAP1 PUSH2 0x5441 JUMP JUMPDEST SWAP1 PUSH1 0x0 MSTORE PUSH1 0x20 PUSH1 0x0 KECCAK256 SWAP1 PUSH1 0x1F ADD PUSH1 0x20 SWAP1 DIV DUP2 ADD SWAP3 DUP3 PUSH2 0x4952 JUMPI PUSH1 0x0 DUP6 SSTORE PUSH2 0x4998 JUMP JUMPDEST DUP3 PUSH1 0x1F LT PUSH2 0x496B JUMPI DUP1 MLOAD PUSH1 0xFF NOT AND DUP4 DUP1 ADD OR DUP6 SSTORE PUSH2 0x4998 JUMP JUMPDEST DUP3 DUP1 ADD PUSH1 0x1 ADD DUP6 SSTORE DUP3 ISZERO PUSH2 0x4998 JUMPI SWAP2 DUP3 ADD JUMPDEST DUP3 DUP2 GT ISZERO PUSH2 0x4998 JUMPI DUP3 MLOAD DUP3 SSTORE SWAP2 PUSH1 0x20 ADD SWAP2 SWAP1 PUSH1 0x1 ADD SWAP1 PUSH2 0x497D JUMP JUMPDEST POP PUSH2 0x49A4 SWAP3 SWAP2 POP PUSH2 0x49A8 JUMP JUMPDEST POP SWAP1 JUMP JUMPDEST JUMPDEST DUP1 DUP3 GT ISZERO PUSH2 0x49A4 JUMPI PUSH1 0x0 DUP2 SSTORE PUSH1 0x1 ADD PUSH2 0x49A9 JUMP JUMPDEST PUSH20 0xFFFFFFFFFFFFFFFFFFFFFFFFFFFFFFFFFFFFFFFF DUP2 AND DUP2 EQ PUSH2 0x1D47 JUMPI PUSH1 0x0 DUP1 REVERT JUMPDEST PUSH1 0x0 PUSH1 0x20 DUP3 DUP5 SUB SLT ISZERO PUSH2 0x49F1 JUMPI PUSH1 0x0 DUP1 REVERT JUMPDEST DUP2 CALLDATALOAD PUSH2 0x2336 DUP2 PUSH2 0x49BD JUMP JUMPDEST PUSH1 0x0 PUSH1 0x20 DUP3 DUP5 SUB SLT ISZERO PUSH2 0x4A0E JUMPI PUSH1 0x0 DUP1 REVERT JUMPDEST POP CALLDATALOAD SWAP2 SWAP1 POP JUMP JUMPDEST PUSH1 0x0 JUMPDEST DUP4 DUP2 LT ISZERO PUSH2 0x4A30 JUMPI DUP2 DUP2 ADD MLOAD DUP4 DUP3 ADD MSTORE PUSH1 0x20 ADD PUSH2 0x4A18 JUMP JUMPDEST DUP4 DUP2 GT ISZERO PUSH2 0x1B63 JUMPI POP POP PUSH1 0x0 SWAP2 ADD MSTORE JUMP JUMPDEST PUSH1 0x0 DUP2 MLOAD DUP1 DUP5 MSTORE PUSH2 0x4A59 DUP2 PUSH1 0x20 DUP7 ADD PUSH1 0x20 DUP7 ADD PUSH2 0x4A15 JUMP JUMPDEST PUSH1 0x1F ADD PUSH32 0xFFFFFFFFFFFFFFFFFFFFFFFFFFFFFFFFFFFFFFFFFFFFFFFFFFFFFFFFFFFFFFE0 AND SWAP3 SWAP1 SWAP3 ADD PUSH1 0x20 ADD SWAP3 SWAP2 POP POP JUMP JUMPDEST PUSH1 0x0 PUSH2 0x140 DUP13 DUP4 MSTORE DUP12 PUSH1 0x20 DUP5 ADD MSTORE PUSH20 0xFFFFFFFFFFFFFFFFFFFFFFFFFFFFFFFFFFFFFFFF DUP1 DUP13 AND PUSH1 0x40 DUP6 ADD MSTORE DUP1 DUP12 AND PUSH1 0x60 DUP6 ADD MSTORE DUP1 DUP11 AND PUSH1 0x80 DUP6 ADD MSTORE DUP9 PUSH1 0xA0 DUP6 ADD MSTORE DUP8 PUSH1 0xC0 DUP6 ADD MSTORE DUP7 PUSH1 0xE0 DUP6 ADD MSTORE DUP1 DUP7 AND PUSH2 0x100 DUP6 ADD MSTORE POP DUP1 PUSH2 0x120 DUP5 ADD MSTORE PUSH2 0x4AF5 DUP2 DUP5 ADD DUP6 PUSH2 0x4A41 JUMP JUMPDEST SWAP14 SWAP13 POP POP POP POP POP POP POP POP POP POP POP POP POP JUMP JUMPDEST PUSH32 0x4E487B7100000000000000000000000000000000000000000000000000000000 PUSH1 0x0 MSTORE PUSH1 0x41 PUSH1 0x4 MSTORE PUSH1 0x24 PUSH1 0x0 REVERT JUMPDEST PUSH1 0x40 MLOAD PUSH2 0x140 DUP2 ADD PUSH8 0xFFFFFFFFFFFFFFFF DUP2 GT DUP3 DUP3 LT OR ISZERO PUSH2 0x4B59 JUMPI PUSH2 0x4B59 PUSH2 0x4B06 JUMP JUMPDEST PUSH1 0x40 MSTORE SWAP1 JUMP JUMPDEST PUSH1 0x40 MLOAD PUSH1 0x80 DUP2 ADD PUSH8 0xFFFFFFFFFFFFFFFF DUP2 GT DUP3 DUP3 LT OR ISZERO PUSH2 0x4B59 JUMPI PUSH2 0x4B59 PUSH2 0x4B06 JUMP JUMPDEST PUSH1 0x40 MLOAD PUSH2 0x180 DUP2 ADD PUSH8 0xFFFFFFFFFFFFFFFF DUP2 GT DUP3 DUP3 LT OR ISZERO PUSH2 0x4B59 JUMPI PUSH2 0x4B59 PUSH2 0x4B06 JUMP JUMPDEST PUSH1 0x40 MLOAD PUSH1 0x1F DUP3 ADD PUSH32 0xFFFFFFFFFFFFFFFFFFFFFFFFFFFFFFFFFFFFFFFFFFFFFFFFFFFFFFFFFFFFFFE0 AND DUP2 ADD PUSH8 0xFFFFFFFFFFFFFFFF DUP2 GT DUP3 DUP3 LT OR ISZERO PUSH2 0x4BED JUMPI PUSH2 0x4BED PUSH2 0x4B06 JUMP JUMPDEST PUSH1 0x40 MSTORE SWAP2 SWAP1 POP JUMP JUMPDEST PUSH1 0x0 PUSH8 0xFFFFFFFFFFFFFFFF DUP3 GT ISZERO PUSH2 0x4C0F JUMPI PUSH2 0x4C0F PUSH2 0x4B06 JUMP JUMPDEST POP PUSH1 0x5 SHL PUSH1 0x20 ADD SWAP1 JUMP JUMPDEST PUSH1 0x0 PUSH1 0x20 DUP1 DUP4 DUP6 SUB SLT ISZERO PUSH2 0x4C2C JUMPI PUSH1 0x0 DUP1 REVERT JUMPDEST DUP3 CALLDATALOAD PUSH8 0xFFFFFFFFFFFFFFFF DUP2 GT ISZERO PUSH2 0x4C43 JUMPI PUSH1 0x0 DUP1 REVERT JUMPDEST DUP4 ADD PUSH1 0x1F DUP2 ADD DUP6 SGT PUSH2 0x4C54 JUMPI PUSH1 0x0 DUP1 REVERT JUMPDEST DUP1 CALLDATALOAD PUSH2 0x4C67 PUSH2 0x4C62 DUP3 PUSH2 0x4BF5 JUMP JUMPDEST PUSH2 0x4BA6 JUMP JUMPDEST DUP2 DUP2 MSTORE PUSH1 0x5 SWAP2 SWAP1 SWAP2 SHL DUP3 ADD DUP4 ADD SWAP1 DUP4 DUP2 ADD SWAP1 DUP8 DUP4 GT ISZERO PUSH2 0x4C86 JUMPI PUSH1 0x0 DUP1 REVERT JUMPDEST SWAP3 DUP5 ADD SWAP3 JUMPDEST DUP3 DUP5 LT ISZERO PUSH2 0x4CA4 JUMPI DUP4 CALLDATALOAD DUP3 MSTORE SWAP3 DUP5 ADD SWAP3 SWAP1 DUP5 ADD SWAP1 PUSH2 0x4C8B JUMP JUMPDEST SWAP8 SWAP7 POP POP POP POP POP POP POP JUMP JUMPDEST PUSH1 0x0 PUSH2 0x140 DUP3 MLOAD DUP5 MSTORE PUSH1 0x20 DUP4 ADD MLOAD PUSH1 0x20 DUP6 ADD MSTORE PUSH1 0x40 DUP4 ADD MLOAD PUSH2 0x4CE9 PUSH1 0x40 DUP7 ADD DUP3 PUSH20 0xFFFFFFFFFFFFFFFFFFFFFFFFFFFFFFFFFFFFFFFF AND SWAP1 MSTORE JUMP JUMPDEST POP PUSH1 0x60 DUP4 ADD MLOAD PUSH2 0x4D11 PUSH1 0x60 DUP7 ADD DUP3 PUSH20 0xFFFFFFFFFFFFFFFFFFFFFFFFFFFFFFFFFFFFFFFF AND SWAP1 MSTORE JUMP JUMPDEST POP PUSH1 0x80 DUP4 ADD MLOAD PUSH2 0x4D39 PUSH1 0x80 DUP7 ADD DUP3 PUSH20 0xFFFFFFFFFFFFFFFFFFFFFFFFFFFFFFFFFFFFFFFF AND SWAP1 MSTORE JUMP JUMPDEST POP PUSH1 0xA0 DUP4 ADD MLOAD PUSH1 0xA0 DUP6 ADD MSTORE PUSH1 0xC0 DUP4 ADD MLOAD PUSH1 0xC0 DUP6 ADD MSTORE PUSH1 0xE0 DUP4 ADD MLOAD PUSH1 0xE0 DUP6 ADD MSTORE PUSH2 0x100 DUP1 DUP5 ADD MLOAD PUSH2 0x4D80 DUP3 DUP8 ADD DUP3 PUSH20 0xFFFFFFFFFFFFFFFFFFFFFFFFFFFFFFFFFFFFFFFF AND SWAP1 MSTORE JUMP JUMPDEST POP POP PUSH2 0x120 DUP1 DUP5 ADD MLOAD DUP3 DUP3 DUP8 ADD MSTORE PUSH2 0x4D9A DUP4 DUP8 ADD DUP3 PUSH2 0x4A41 JUMP JUMPDEST SWAP7 SWAP6 POP POP POP POP POP POP JUMP JUMPDEST PUSH1 0x0 PUSH1 0x20 DUP1 DUP4 ADD DUP2 DUP5 MSTORE DUP1 DUP6 MLOAD DUP1 DUP4 MSTORE PUSH1 0x40 DUP7 ADD SWAP2 POP PUSH1 0x40 DUP2 PUSH1 0x5 SHL DUP8 ADD ADD SWAP3 POP DUP4 DUP8 ADD PUSH1 0x0 JUMPDEST DUP3 DUP2 LT ISZERO PUSH2 0x4E17 JUMPI PUSH32 0xFFFFFFFFFFFFFFFFFFFFFFFFFFFFFFFFFFFFFFFFFFFFFFFFFFFFFFFFFFFFFFC0 DUP9 DUP7 SUB ADD DUP5 MSTORE PUSH2 0x4E05 DUP6 DUP4 MLOAD PUSH2 0x4CAF JUMP JUMPDEST SWAP5 POP SWAP3 DUP6 ADD SWAP3 SWAP1 DUP6 ADD SWAP1 PUSH1 0x1 ADD PUSH2 0x4DCB JUMP JUMPDEST POP SWAP3 SWAP8 SWAP7 POP POP POP POP POP POP POP JUMP JUMPDEST PUSH1 0x0 DUP1 PUSH1 0x40 DUP4 DUP6 SUB SLT ISZERO PUSH2 0x4E37 JUMPI PUSH1 0x0 DUP1 REVERT JUMPDEST DUP3 CALLDATALOAD PUSH2 0x4E42 DUP2 PUSH2 0x49BD JUMP JUMPDEST SWAP2 POP PUSH1 0x20 DUP4 ADD CALLDATALOAD PUSH2 0x4E52 DUP2 PUSH2 0x49BD JUMP JUMPDEST DUP1 SWAP2 POP POP SWAP3 POP SWAP3 SWAP1 POP JUMP JUMPDEST DUP1 ISZERO ISZERO DUP2 EQ PUSH2 0x1D47 JUMPI PUSH1 0x0 DUP1 REVERT JUMPDEST PUSH1 0x0 DUP1 PUSH1 0x40 DUP4 DUP6 SUB SLT ISZERO PUSH2 0x4E7E JUMPI PUSH1 0x0 DUP1 REVERT JUMPDEST DUP3 CALLDATALOAD PUSH2 0x4E89 DUP2 PUSH2 0x49BD JUMP JUMPDEST SWAP2 POP PUSH1 0x20 DUP4 ADD CALLDATALOAD PUSH2 0x4E52 DUP2 PUSH2 0x4E5D JUMP JUMPDEST PUSH1 0x0 DUP1 PUSH1 0x40 DUP4 DUP6 SUB SLT ISZERO PUSH2 0x4EAC JUMPI PUSH1 0x0 DUP1 REVERT JUMPDEST DUP3 CALLDATALOAD PUSH2 0x4EB7 DUP2 PUSH2 0x49BD JUMP JUMPDEST SWAP5 PUSH1 0x20 SWAP4 SWAP1 SWAP4 ADD CALLDATALOAD SWAP4 POP POP POP JUMP JUMPDEST PUSH1 0x0 DUP1 PUSH1 0x40 DUP4 DUP6 SUB SLT ISZERO PUSH2 0x4ED8 JUMPI PUSH1 0x0 DUP1 REVERT JUMPDEST POP POP DUP1 CALLDATALOAD SWAP3 PUSH1 0x20 SWAP1 SWAP2 ADD CALLDATALOAD SWAP2 POP JUMP JUMPDEST PUSH1 0x0 DUP2 MLOAD DUP1 DUP5 MSTORE PUSH1 0x20 DUP1 DUP6 ADD SWAP5 POP DUP1 DUP5 ADD PUSH1 0x0 JUMPDEST DUP4 DUP2 LT ISZERO PUSH2 0x4F17 JUMPI DUP2 MLOAD DUP8 MSTORE SWAP6 DUP3 ADD SWAP6 SWAP1 DUP3 ADD SWAP1 PUSH1 0x1 ADD PUSH2 0x4EFB JUMP JUMPDEST POP SWAP5 SWAP6 SWAP5 POP POP POP POP POP JUMP JUMPDEST PUSH20 0xFFFFFFFFFFFFFFFFFFFFFFFFFFFFFFFFFFFFFFFF DUP2 MLOAD AND DUP3 MSTORE PUSH1 0x20 DUP2 ADD MLOAD PUSH1 0x20 DUP4 ADD MSTORE PUSH1 0x0 PUSH1 0x40 DUP3 ADD MLOAD PUSH1 0xC0 PUSH1 0x40 DUP6 ADD MSTORE PUSH2 0x4F61 PUSH1 0xC0 DUP6 ADD DUP3 PUSH2 0x4EE7 JUMP JUMPDEST SWAP1 POP PUSH1 0x60 DUP4 ADD MLOAD PUSH1 0x60 DUP6 ADD MSTORE PUSH1 0x80 DUP4 ADD MLOAD PUSH1 0x80 DUP6 ADD MSTORE PUSH1 0xA0 DUP4 ADD MLOAD ISZERO ISZERO PUSH1 0xA0 DUP6 ADD MSTORE DUP1 SWAP2 POP POP SWAP3 SWAP2 POP POP JUMP JUMPDEST PUSH1 0x0 PUSH1 0x20 DUP1 DUP4 ADD DUP2 DUP5 MSTORE DUP1 DUP6 MLOAD DUP1 DUP4 MSTORE PUSH1 0x40 DUP7 ADD SWAP2 POP PUSH1 0x40 DUP2 PUSH1 0x5 SHL DUP8 ADD ADD SWAP3 POP DUP4 DUP8 ADD PUSH1 0x0 JUMPDEST DUP3 DUP2 LT ISZERO PUSH2 0x4E17 JUMPI PUSH32 0xFFFFFFFFFFFFFFFFFFFFFFFFFFFFFFFFFFFFFFFFFFFFFFFFFFFFFFFFFFFFFFC0 DUP9 DUP7 SUB ADD DUP5 MSTORE PUSH2 0x4FEE DUP6 DUP4 MLOAD PUSH2 0x4F22 JUMP JUMPDEST SWAP5 POP SWAP3 DUP6 ADD SWAP3 SWAP1 DUP6 ADD SWAP1 PUSH1 0x1 ADD PUSH2 0x4FB4 JUMP JUMPDEST PUSH1 0x0 PUSH8 0xFFFFFFFFFFFFFFFF DUP3 GT ISZERO PUSH2 0x501A JUMPI PUSH2 0x501A PUSH2 0x4B06 JUMP JUMPDEST POP PUSH1 0x1F ADD PUSH32 0xFFFFFFFFFFFFFFFFFFFFFFFFFFFFFFFFFFFFFFFFFFFFFFFFFFFFFFFFFFFFFFE0 AND PUSH1 0x20 ADD SWAP1 JUMP JUMPDEST PUSH1 0x0 DUP3 PUSH1 0x1F DUP4 ADD SLT PUSH2 0x5057 JUMPI PUSH1 0x0 DUP1 REVERT JUMPDEST DUP2 CALLDATALOAD PUSH2 0x5065 PUSH2 0x4C62 DUP3 PUSH2 0x5000 JUMP JUMPDEST DUP2 DUP2 MSTORE DUP5 PUSH1 0x20 DUP4 DUP7 ADD ADD GT ISZERO PUSH2 0x507A JUMPI PUSH1 0x0 DUP1 REVERT JUMPDEST DUP2 PUSH1 0x20 DUP6 ADD PUSH1 0x20 DUP4 ADD CALLDATACOPY PUSH1 0x0 SWAP2 DUP2 ADD PUSH1 0x20 ADD SWAP2 SWAP1 SWAP2 MSTORE SWAP4 SWAP3 POP POP POP JUMP JUMPDEST PUSH1 0x0 DUP1 PUSH1 0x40 DUP4 DUP6 SUB SLT ISZERO PUSH2 0x50AA JUMPI PUSH1 0x0 DUP1 REVERT JUMPDEST DUP3 CALLDATALOAD PUSH2 0x50B5 DUP2 PUSH2 0x49BD JUMP JUMPDEST SWAP2 POP PUSH1 0x20 DUP4 ADD CALLDATALOAD PUSH8 0xFFFFFFFFFFFFFFFF DUP2 GT ISZERO PUSH2 0x50D1 JUMPI PUSH1 0x0 DUP1 REVERT JUMPDEST PUSH2 0x50DD DUP6 DUP3 DUP7 ADD PUSH2 0x5046 JUMP JUMPDEST SWAP2 POP POP SWAP3 POP SWAP3 SWAP1 POP JUMP JUMPDEST PUSH1 0x0 DUP1 PUSH1 0x0 PUSH1 0x60 DUP5 DUP7 SUB SLT ISZERO PUSH2 0x50FC JUMPI PUSH1 0x0 DUP1 REVERT JUMPDEST DUP4 CALLDATALOAD PUSH2 0x5107 DUP2 PUSH2 0x49BD JUMP JUMPDEST SWAP6 PUSH1 0x20 DUP6 ADD CALLDATALOAD SWAP6 POP PUSH1 0x40 SWAP1 SWAP5 ADD CALLDATALOAD SWAP4 SWAP3 POP POP POP JUMP JUMPDEST PUSH1 0x0 PUSH1 0x20 DUP1 DUP4 ADD DUP2 DUP5 MSTORE DUP1 DUP6 MLOAD DUP1 DUP4 MSTORE PUSH1 0x40 SWAP3 POP DUP3 DUP7 ADD SWAP2 POP DUP3 DUP2 PUSH1 0x5 SHL DUP8 ADD ADD DUP5 DUP9 ADD PUSH1 0x0 JUMPDEST DUP4 DUP2 LT ISZERO PUSH2 0x51D2 JUMPI PUSH32 0xFFFFFFFFFFFFFFFFFFFFFFFFFFFFFFFFFFFFFFFFFFFFFFFFFFFFFFFFFFFFFFC0 DUP10 DUP5 SUB ADD DUP6 MSTORE DUP2 MLOAD PUSH1 0x80 PUSH20 0xFFFFFFFFFFFFFFFFFFFFFFFFFFFFFFFFFFFFFFFF DUP1 DUP4 MLOAD AND DUP7 MSTORE DUP1 DUP11 DUP5 ADD MLOAD AND DUP11 DUP8 ADD MSTORE POP DUP8 DUP3 ADD MLOAD DUP2 DUP10 DUP8 ADD MSTORE PUSH2 0x51B1 DUP3 DUP8 ADD DUP3 PUSH2 0x4A41 JUMP JUMPDEST PUSH1 0x60 SWAP4 DUP5 ADD MLOAD SWAP7 SWAP1 SWAP4 ADD SWAP6 SWAP1 SWAP6 MSTORE POP SWAP5 DUP8 ADD SWAP5 SWAP3 POP SWAP1 DUP7 ADD SWAP1 PUSH1 0x1 ADD PUSH2 0x5143 JUMP JUMPDEST POP SWAP1 SWAP9 SWAP8 POP POP POP POP POP POP POP POP JUMP JUMPDEST PUSH1 0x20 DUP1 DUP3 MSTORE DUP3 MLOAD DUP3 DUP3 ADD DUP2 SWAP1 MSTORE PUSH1 0x0 SWAP2 SWAP1 DUP5 DUP3 ADD SWAP1 PUSH1 0x40 DUP6 ADD SWAP1 DUP5 JUMPDEST DUP2 DUP2 LT ISZERO PUSH2 0x522E JUMPI DUP4 MLOAD PUSH20 0xFFFFFFFFFFFFFFFFFFFFFFFFFFFFFFFFFFFFFFFF AND DUP4 MSTORE SWAP3 DUP5 ADD SWAP3 SWAP2 DUP5 ADD SWAP2 PUSH1 0x1 ADD PUSH2 0x51FC JUMP JUMPDEST POP SWAP1 SWAP7 SWAP6 POP POP POP POP POP POP JUMP JUMPDEST PUSH1 0x20 DUP2 MSTORE PUSH1 0x0 PUSH2 0x2336 PUSH1 0x20 DUP4 ADD DUP5 PUSH2 0x4CAF JUMP JUMPDEST PUSH1 0x0 PUSH1 0x20 DUP3 DUP5 SUB SLT ISZERO PUSH2 0x525F JUMPI PUSH1 0x0 DUP1 REVERT JUMPDEST DUP2 CALLDATALOAD PUSH2 0x2336 DUP2 PUSH2 0x4E5D JUMP JUMPDEST DUP1 MLOAD PUSH20 0xFFFFFFFFFFFFFFFFFFFFFFFFFFFFFFFFFFFFFFFF AND DUP3 MSTORE PUSH1 0x0 PUSH2 0x180 PUSH1 0x20 DUP4 ADD MLOAD PUSH1 0x20 DUP6 ADD MSTORE PUSH1 0x40 DUP4 ADD MLOAD DUP2 PUSH1 0x40 DUP7 ADD MSTORE PUSH2 0x52AA DUP3 DUP7 ADD DUP3 PUSH2 0x4A41 JUMP JUMPDEST SWAP2 POP POP PUSH1 0x60 DUP4 ADD MLOAD PUSH1 0x60 DUP6 ADD MSTORE PUSH1 0x80 DUP4 ADD MLOAD PUSH1 0x80 DUP6 ADD MSTORE PUSH1 0xA0 DUP4 ADD MLOAD PUSH1 0xA0 DUP6 ADD MSTORE PUSH1 0xC0 DUP4 ADD MLOAD DUP5 DUP3 SUB PUSH1 0xC0 DUP7 ADD MSTORE PUSH2 0x52E2 DUP3 DUP3 PUSH2 0x4EE7 JUMP JUMPDEST SWAP2 POP POP PUSH1 0xE0 DUP4 ADD MLOAD DUP5 DUP3 SUB PUSH1 0xE0 DUP7 ADD MSTORE PUSH2 0x52FC DUP3 DUP3 PUSH2 0x4EE7 JUMP JUMPDEST SWAP2 POP POP PUSH2 0x100 DUP1 DUP5 ADD MLOAD DUP6 DUP4 SUB DUP3 DUP8 ADD MSTORE PUSH2 0x5317 DUP4 DUP3 PUSH2 0x4EE7 JUMP JUMPDEST PUSH2 0x120 DUP7 DUP2 ADD MLOAD SWAP1 DUP9 ADD MSTORE PUSH2 0x140 DUP1 DUP8 ADD MLOAD SWAP1 DUP9 ADD MSTORE PUSH2 0x160 SWAP6 DUP7 ADD MLOAD SWAP6 SWAP1 SWAP7 ADD SWAP5 SWAP1 SWAP5 MSTORE POP SWAP3 SWAP4 SWAP3 POP POP POP JUMP JUMPDEST PUSH1 0x0 PUSH1 0x20 DUP1 DUP4 ADD DUP2 DUP5 MSTORE DUP1 DUP6 MLOAD DUP1 DUP4 MSTORE PUSH1 0x40 DUP7 ADD SWAP2 POP PUSH1 0x40 DUP2 PUSH1 0x5 SHL DUP8 ADD ADD SWAP3 POP DUP4 DUP8 ADD PUSH1 0x0 JUMPDEST DUP3 DUP2 LT ISZERO PUSH2 0x4E17 JUMPI PUSH32 0xFFFFFFFFFFFFFFFFFFFFFFFFFFFFFFFFFFFFFFFFFFFFFFFFFFFFFFFFFFFFFFC0 DUP9 DUP7 SUB ADD DUP5 MSTORE PUSH2 0x53A6 DUP6 DUP4 MLOAD PUSH2 0x526A JUMP JUMPDEST SWAP5 POP SWAP3 DUP6 ADD SWAP3 SWAP1 DUP6 ADD SWAP1 PUSH1 0x1 ADD PUSH2 0x536C JUMP JUMPDEST PUSH1 0x20 DUP2 MSTORE PUSH1 0x0 PUSH2 0x2336 PUSH1 0x20 DUP4 ADD DUP5 PUSH2 0x4A41 JUMP JUMPDEST PUSH1 0x20 DUP2 MSTORE PUSH1 0x0 PUSH2 0x2336 PUSH1 0x20 DUP4 ADD DUP5 PUSH2 0x4F22 JUMP JUMPDEST PUSH1 0x20 DUP2 MSTORE PUSH1 0x0 PUSH2 0x2336 PUSH1 0x20 DUP4 ADD DUP5 PUSH2 0x526A JUMP JUMPDEST PUSH1 0x0 DUP1 PUSH1 0x0 PUSH1 0x60 DUP5 DUP7 SUB SLT ISZERO PUSH2 0x5406 JUMPI PUSH1 0x0 DUP1 REVERT JUMPDEST DUP4 CALLDATALOAD SWAP3 POP PUSH1 0x20 DUP5 ADD CALLDATALOAD SWAP2 POP PUSH1 0x40 DUP5 ADD CALLDATALOAD PUSH8 0xFFFFFFFFFFFFFFFF DUP2 GT ISZERO PUSH2 0x542B JUMPI PUSH1 0x0 DUP1 REVERT JUMPDEST PUSH2 0x5437 DUP7 DUP3 DUP8 ADD PUSH2 0x5046 JUMP JUMPDEST SWAP2 POP POP SWAP3 POP SWAP3 POP SWAP3 JUMP JUMPDEST PUSH1 0x1 DUP2 DUP2 SHR SWAP1 DUP3 AND DUP1 PUSH2 0x5455 JUMPI PUSH1 0x7F DUP3 AND SWAP2 POP JUMPDEST PUSH1 0x20 DUP3 LT DUP2 EQ ISZERO PUSH2 0x27D3 JUMPI PUSH32 0x4E487B7100000000000000000000000000000000000000000000000000000000 PUSH1 0x0 MSTORE PUSH1 0x22 PUSH1 0x4 MSTORE PUSH1 0x24 PUSH1 0x0 REVERT JUMPDEST PUSH1 0x0 PUSH1 0x20 DUP3 DUP5 SUB SLT ISZERO PUSH2 0x54A1 JUMPI PUSH1 0x0 DUP1 REVERT JUMPDEST DUP2 MLOAD PUSH2 0x2336 DUP2 PUSH2 0x4E5D JUMP JUMPDEST PUSH1 0x0 PUSH1 0x20 DUP3 DUP5 SUB SLT ISZERO PUSH2 0x54BE JUMPI PUSH1 0x0 DUP1 REVERT JUMPDEST POP MLOAD SWAP2 SWAP1 POP JUMP JUMPDEST PUSH32 0x4E487B7100000000000000000000000000000000000000000000000000000000 PUSH1 0x0 MSTORE PUSH1 0x32 PUSH1 0x4 MSTORE PUSH1 0x24 PUSH1 0x0 REVERT JUMPDEST PUSH32 0x4E487B7100000000000000000000000000000000000000000000000000000000 PUSH1 0x0 MSTORE PUSH1 0x11 PUSH1 0x4 MSTORE PUSH1 0x24 PUSH1 0x0 REVERT JUMPDEST PUSH1 0x0 PUSH32 0xFFFFFFFFFFFFFFFFFFFFFFFFFFFFFFFFFFFFFFFFFFFFFFFFFFFFFFFFFFFFFFFF DUP3 EQ ISZERO PUSH2 0x5555 JUMPI PUSH2 0x5555 PUSH2 0x54F4 JUMP JUMPDEST POP PUSH1 0x1 ADD SWAP1 JUMP JUMPDEST PUSH1 0x0 DUP3 NOT DUP3 GT ISZERO PUSH2 0x556F JUMPI PUSH2 0x556F PUSH2 0x54F4 JUMP JUMPDEST POP ADD SWAP1 JUMP JUMPDEST PUSH1 0x0 DUP3 DUP3 LT ISZERO PUSH2 0x5586 JUMPI PUSH2 0x5586 PUSH2 0x54F4 JUMP JUMPDEST POP SUB SWAP1 JUMP JUMPDEST PUSH1 0x0 PUSH1 0x20 DUP3 DUP5 SUB SLT ISZERO PUSH2 0x559D JUMPI PUSH1 0x0 DUP1 REVERT JUMPDEST DUP2 MLOAD PUSH1 0xFF DUP2 AND DUP2 EQ PUSH2 0x2336 JUMPI PUSH1 0x0 DUP1 REVERT JUMPDEST DUP1 MLOAD PUSH2 0x35BB DUP2 PUSH2 0x49BD JUMP JUMPDEST PUSH1 0x0 DUP3 PUSH1 0x1F DUP4 ADD SLT PUSH2 0x55CA JUMPI PUSH1 0x0 DUP1 REVERT JUMPDEST DUP2 MLOAD PUSH1 0x20 PUSH2 0x55DA PUSH2 0x4C62 DUP4 PUSH2 0x4BF5 JUMP JUMPDEST DUP3 DUP2 MSTORE PUSH1 0x5 SWAP3 SWAP1 SWAP3 SHL DUP5 ADD DUP2 ADD SWAP2 DUP2 DUP2 ADD SWAP1 DUP7 DUP5 GT ISZERO PUSH2 0x55F9 JUMPI PUSH1 0x0 DUP1 REVERT JUMPDEST DUP3 DUP7 ADD JUMPDEST DUP5 DUP2 LT ISZERO PUSH2 0x5614 JUMPI DUP1 MLOAD DUP4 MSTORE SWAP2 DUP4 ADD SWAP2 DUP4 ADD PUSH2 0x55FD JUMP JUMPDEST POP SWAP7 SWAP6 POP POP POP POP POP POP JUMP JUMPDEST PUSH1 0x0 PUSH1 0xC0 DUP3 DUP5 SUB SLT ISZERO PUSH2 0x5631 JUMPI PUSH1 0x0 DUP1 REVERT JUMPDEST PUSH1 0x40 MLOAD PUSH1 0xC0 DUP2 ADD PUSH8 0xFFFFFFFFFFFFFFFF DUP3 DUP3 LT DUP2 DUP4 GT OR ISZERO PUSH2 0x5655 JUMPI PUSH2 0x5655 PUSH2 0x4B06 JUMP JUMPDEST DUP2 PUSH1 0x40 MSTORE DUP3 SWAP4 POP DUP5 MLOAD SWAP2 POP PUSH2 0x5669 DUP3 PUSH2 0x49BD JUMP JUMPDEST DUP2 DUP4 MSTORE PUSH1 0x20 DUP6 ADD MLOAD PUSH1 0x20 DUP5 ADD MSTORE PUSH1 0x40 DUP6 ADD MLOAD SWAP2 POP DUP1 DUP3 GT ISZERO PUSH2 0x568A JUMPI PUSH1 0x0 DUP1 REVERT JUMPDEST POP PUSH2 0x5697 DUP6 DUP3 DUP7 ADD PUSH2 0x55B9 JUMP JUMPDEST PUSH1 0x40 DUP4 ADD MSTORE POP PUSH1 0x60 DUP4 ADD MLOAD PUSH1 0x60 DUP3 ADD MSTORE PUSH1 0x80 DUP4 ADD MLOAD PUSH1 0x80 DUP3 ADD MSTORE PUSH1 0xA0 DUP4 ADD MLOAD PUSH2 0x56BF DUP2 PUSH2 0x4E5D JUMP JUMPDEST PUSH1 0xA0 SWAP2 SWAP1 SWAP2 ADD MSTORE SWAP3 SWAP2 POP POP JUMP JUMPDEST PUSH1 0x0 PUSH1 0x20 DUP1 DUP4 DUP6 SUB SLT ISZERO PUSH2 0x56DF JUMPI PUSH1 0x0 DUP1 REVERT JUMPDEST DUP3 MLOAD PUSH8 0xFFFFFFFFFFFFFFFF DUP1 DUP3 GT ISZERO PUSH2 0x56F7 JUMPI PUSH1 0x0 DUP1 REVERT JUMPDEST DUP2 DUP6 ADD SWAP2 POP DUP6 PUSH1 0x1F DUP4 ADD SLT PUSH2 0x570B JUMPI PUSH1 0x0 DUP1 REVERT JUMPDEST DUP2 MLOAD PUSH2 0x5719 PUSH2 0x4C62 DUP3 PUSH2 0x4BF5 JUMP JUMPDEST DUP2 DUP2 MSTORE PUSH1 0x5 SWAP2 SWAP1 SWAP2 SHL DUP4 ADD DUP5 ADD SWAP1 DUP5 DUP2 ADD SWAP1 DUP9 DUP4 GT ISZERO PUSH2 0x5738 JUMPI PUSH1 0x0 DUP1 REVERT JUMPDEST DUP6 DUP6 ADD JUMPDEST DUP4 DUP2 LT ISZERO PUSH2 0x5770 JUMPI DUP1 MLOAD DUP6 DUP2 GT ISZERO PUSH2 0x5754 JUMPI PUSH1 0x0 DUP1 DUP2 REVERT JUMPDEST PUSH2 0x5762 DUP12 DUP10 DUP4 DUP11 ADD ADD PUSH2 0x561F JUMP JUMPDEST DUP5 MSTORE POP SWAP2 DUP7 ADD SWAP2 DUP7 ADD PUSH2 0x573C JUMP JUMPDEST POP SWAP9 SWAP8 POP POP POP POP POP POP POP POP JUMP JUMPDEST PUSH20 0xFFFFFFFFFFFFFFFFFFFFFFFFFFFFFFFFFFFFFFFF DUP4 AND DUP2 MSTORE PUSH1 0x40 PUSH1 0x20 DUP3 ADD MSTORE PUSH1 0x0 PUSH2 0x2558 PUSH1 0x40 DUP4 ADD DUP5 PUSH2 0x4A41 JUMP JUMPDEST PUSH1 0x0 DUP3 PUSH1 0x1F DUP4 ADD SLT PUSH2 0x57BD JUMPI PUSH1 0x0 DUP1 REVERT JUMPDEST DUP2 MLOAD PUSH2 0x57CB PUSH2 0x4C62 DUP3 PUSH2 0x5000 JUMP JUMPDEST DUP2 DUP2 MSTORE DUP5 PUSH1 0x20 DUP4 DUP7 ADD ADD GT ISZERO PUSH2 0x57E0 JUMPI PUSH1 0x0 DUP1 REVERT JUMPDEST PUSH2 0x2558 DUP3 PUSH1 0x20 DUP4 ADD PUSH1 0x20 DUP8 ADD PUSH2 0x4A15 JUMP JUMPDEST PUSH1 0x0 PUSH1 0x20 DUP1 DUP4 DUP6 SUB SLT ISZERO PUSH2 0x5804 JUMPI PUSH1 0x0 DUP1 REVERT JUMPDEST DUP3 MLOAD PUSH8 0xFFFFFFFFFFFFFFFF DUP1 DUP3 GT ISZERO PUSH2 0x581C JUMPI PUSH1 0x0 DUP1 REVERT JUMPDEST DUP2 DUP6 ADD SWAP2 POP DUP6 PUSH1 0x1F DUP4 ADD SLT PUSH2 0x5830 JUMPI PUSH1 0x0 DUP1 REVERT JUMPDEST DUP2 MLOAD PUSH2 0x583E PUSH2 0x4C62 DUP3 PUSH2 0x4BF5 JUMP JUMPDEST DUP2 DUP2 MSTORE PUSH1 0x5 SWAP2 SWAP1 SWAP2 SHL DUP4 ADD DUP5 ADD SWAP1 DUP5 DUP2 ADD SWAP1 DUP9 DUP4 GT ISZERO PUSH2 0x585D JUMPI PUSH1 0x0 DUP1 REVERT JUMPDEST DUP6 DUP6 ADD JUMPDEST DUP4 DUP2 LT ISZERO PUSH2 0x5770 JUMPI DUP1 MLOAD DUP6 DUP2 GT ISZERO PUSH2 0x5879 JUMPI PUSH1 0x0 DUP1 DUP2 REVERT JUMPDEST DUP7 ADD PUSH2 0x140 DUP2 DUP13 SUB PUSH32 0xFFFFFFFFFFFFFFFFFFFFFFFFFFFFFFFFFFFFFFFFFFFFFFFFFFFFFFFFFFFFFFE0 ADD DUP2 SGT ISZERO PUSH2 0x58B0 JUMPI PUSH1 0x0 DUP1 DUP2 REVERT JUMPDEST PUSH2 0x58B8 PUSH2 0x4B35 JUMP JUMPDEST DUP10 DUP4 ADD MLOAD DUP2 MSTORE PUSH1 0x40 DUP1 DUP5 ADD MLOAD DUP12 DUP4 ADD MSTORE PUSH1 0x60 PUSH2 0x58D5 DUP2 DUP7 ADD PUSH2 0x55AE JUMP JUMPDEST DUP3 DUP5 ADD MSTORE PUSH1 0x80 SWAP2 POP PUSH2 0x58E8 DUP3 DUP7 ADD PUSH2 0x55AE JUMP JUMPDEST SWAP1 DUP4 ADD MSTORE PUSH1 0xA0 PUSH2 0x58F9 DUP6 DUP3 ADD PUSH2 0x55AE JUMP JUMPDEST DUP3 DUP5 ADD MSTORE PUSH1 0xC0 SWAP2 POP DUP2 DUP6 ADD MLOAD DUP2 DUP5 ADD MSTORE POP PUSH1 0xE0 DUP1 DUP6 ADD MLOAD DUP3 DUP5 ADD MSTORE PUSH2 0x100 SWAP2 POP DUP2 DUP6 ADD MLOAD DUP2 DUP5 ADD MSTORE POP PUSH2 0x120 PUSH2 0x5930 DUP2 DUP7 ADD PUSH2 0x55AE JUMP JUMPDEST DUP4 DUP4 ADD MSTORE SWAP3 DUP5 ADD MLOAD SWAP3 DUP10 DUP5 GT ISZERO PUSH2 0x5949 JUMPI PUSH1 0x0 SWAP2 POP DUP2 DUP3 REVERT JUMPDEST PUSH2 0x5957 DUP16 DUP14 DUP7 DUP9 ADD ADD PUSH2 0x57AC JUMP JUMPDEST SWAP1 DUP4 ADD MSTORE POP DUP6 MSTORE POP POP SWAP2 DUP7 ADD SWAP2 DUP7 ADD PUSH2 0x5861 JUMP JUMPDEST PUSH1 0x0 PUSH1 0x20 DUP1 DUP4 DUP6 SUB SLT ISZERO PUSH2 0x597E JUMPI PUSH1 0x0 DUP1 REVERT JUMPDEST DUP3 MLOAD PUSH8 0xFFFFFFFFFFFFFFFF DUP1 DUP3 GT ISZERO PUSH2 0x5996 JUMPI PUSH1 0x0 DUP1 REVERT JUMPDEST DUP2 DUP6 ADD SWAP2 POP DUP6 PUSH1 0x1F DUP4 ADD SLT PUSH2 0x59AA JUMPI PUSH1 0x0 DUP1 REVERT JUMPDEST DUP2 MLOAD PUSH2 0x59B8 PUSH2 0x4C62 DUP3 PUSH2 0x4BF5 JUMP JUMPDEST DUP2 DUP2 MSTORE PUSH1 0x5 SWAP2 SWAP1 SWAP2 SHL DUP4 ADD DUP5 ADD SWAP1 DUP5 DUP2 ADD SWAP1 DUP9 DUP4 GT ISZERO PUSH2 0x59D7 JUMPI PUSH1 0x0 DUP1 REVERT JUMPDEST DUP6 DUP6 ADD JUMPDEST DUP4 DUP2 LT ISZERO PUSH2 0x5770 JUMPI DUP1 MLOAD DUP6 DUP2 GT ISZERO PUSH2 0x59F2 JUMPI PUSH1 0x0 DUP1 REVERT JUMPDEST DUP7 ADD PUSH1 0x80 DUP2 DUP13 SUB PUSH32 0xFFFFFFFFFFFFFFFFFFFFFFFFFFFFFFFFFFFFFFFFFFFFFFFFFFFFFFFFFFFFFFE0 ADD SLT ISZERO PUSH2 0x5A27 JUMPI PUSH1 0x0 DUP1 DUP2 REVERT JUMPDEST PUSH2 0x5A2F PUSH2 0x4B5F JUMP JUMPDEST DUP9 DUP3 ADD MLOAD PUSH2 0x5A3C DUP2 PUSH2 0x49BD JUMP JUMPDEST DUP2 MSTORE PUSH1 0x40 DUP3 DUP2 ADD MLOAD PUSH2 0x5A4D DUP2 PUSH2 0x49BD JUMP JUMPDEST DUP3 DUP12 ADD MSTORE PUSH1 0x60 DUP4 DUP2 ADD MLOAD DUP10 DUP2 GT ISZERO PUSH2 0x5A65 JUMPI PUSH1 0x0 DUP1 DUP2 REVERT JUMPDEST PUSH2 0x5A73 DUP16 DUP14 DUP4 DUP9 ADD ADD PUSH2 0x57AC JUMP JUMPDEST SWAP3 DUP5 ADD SWAP3 SWAP1 SWAP3 MSTORE PUSH1 0x80 SWAP4 SWAP1 SWAP4 ADD MLOAD SWAP3 DUP3 ADD SWAP3 SWAP1 SWAP3 MSTORE DUP5 MSTORE POP SWAP2 DUP7 ADD SWAP2 DUP7 ADD PUSH2 0x59DB JUMP JUMPDEST PUSH1 0x0 PUSH1 0x20 DUP3 DUP5 SUB SLT ISZERO PUSH2 0x5AA8 JUMPI PUSH1 0x0 DUP1 REVERT JUMPDEST DUP2 MLOAD PUSH8 0xFFFFFFFFFFFFFFFF DUP2 GT ISZERO PUSH2 0x5ABF JUMPI PUSH1 0x0 DUP1 REVERT JUMPDEST PUSH2 0x2558 DUP5 DUP3 DUP6 ADD PUSH2 0x55B9 JUMP JUMPDEST PUSH1 0x0 PUSH1 0x20 DUP1 DUP4 DUP6 SUB SLT ISZERO PUSH2 0x5ADE JUMPI PUSH1 0x0 DUP1 REVERT JUMPDEST DUP3 MLOAD PUSH8 0xFFFFFFFFFFFFFFFF DUP2 GT ISZERO PUSH2 0x5AF5 JUMPI PUSH1 0x0 DUP1 REVERT JUMPDEST DUP4 ADD PUSH1 0x1F DUP2 ADD DUP6 SGT PUSH2 0x5B06 JUMPI PUSH1 0x0 DUP1 REVERT JUMPDEST DUP1 MLOAD PUSH2 0x5B14 PUSH2 0x4C62 DUP3 PUSH2 0x4BF5 JUMP JUMPDEST DUP2 DUP2 MSTORE PUSH1 0x5 SWAP2 SWAP1 SWAP2 SHL DUP3 ADD DUP4 ADD SWAP1 DUP4 DUP2 ADD SWAP1 DUP8 DUP4 GT ISZERO PUSH2 0x5B33 JUMPI PUSH1 0x0 DUP1 REVERT JUMPDEST SWAP3 DUP5 ADD SWAP3 JUMPDEST DUP3 DUP5 LT ISZERO PUSH2 0x4CA4 JUMPI DUP4 MLOAD PUSH2 0x5B4B DUP2 PUSH2 0x49BD JUMP JUMPDEST DUP3 MSTORE SWAP3 DUP5 ADD SWAP3 SWAP1 DUP5 ADD SWAP1 PUSH2 0x5B38 JUMP JUMPDEST PUSH1 0x0 PUSH2 0x180 DUP3 DUP5 SUB SLT ISZERO PUSH2 0x5B6D JUMPI PUSH1 0x0 DUP1 REVERT JUMPDEST PUSH2 0x5B75 PUSH2 0x4B82 JUMP JUMPDEST SWAP1 POP PUSH2 0x5B80 DUP3 PUSH2 0x55AE JUMP JUMPDEST DUP2 MSTORE PUSH1 0x20 DUP3 ADD MLOAD PUSH1 0x20 DUP3 ADD MSTORE PUSH1 0x40 DUP3 ADD MLOAD PUSH8 0xFFFFFFFFFFFFFFFF DUP1 DUP3 GT ISZERO PUSH2 0x5BA7 JUMPI PUSH1 0x0 DUP1 REVERT JUMPDEST PUSH2 0x5BB3 DUP6 DUP4 DUP7 ADD PUSH2 0x57AC JUMP JUMPDEST PUSH1 0x40 DUP5 ADD MSTORE PUSH1 0x60 DUP5 ADD MLOAD PUSH1 0x60 DUP5 ADD MSTORE PUSH1 0x80 DUP5 ADD MLOAD PUSH1 0x80 DUP5 ADD MSTORE PUSH1 0xA0 DUP5 ADD MLOAD PUSH1 0xA0 DUP5 ADD MSTORE PUSH1 0xC0 DUP5 ADD MLOAD SWAP2 POP DUP1 DUP3 GT ISZERO PUSH2 0x5BEA JUMPI PUSH1 0x0 DUP1 REVERT JUMPDEST PUSH2 0x5BF6 DUP6 DUP4 DUP7 ADD PUSH2 0x55B9 JUMP JUMPDEST PUSH1 0xC0 DUP5 ADD MSTORE PUSH1 0xE0 DUP5 ADD MLOAD SWAP2 POP DUP1 DUP3 GT ISZERO PUSH2 0x5C0F JUMPI PUSH1 0x0 DUP1 REVERT JUMPDEST PUSH2 0x5C1B DUP6 DUP4 DUP7 ADD PUSH2 0x55B9 JUMP JUMPDEST PUSH1 0xE0 DUP5 ADD MSTORE PUSH2 0x100 SWAP2 POP DUP2 DUP5 ADD MLOAD DUP2 DUP2 GT ISZERO PUSH2 0x5C36 JUMPI PUSH1 0x0 DUP1 REVERT JUMPDEST PUSH2 0x5C42 DUP7 DUP3 DUP8 ADD PUSH2 0x55B9 JUMP JUMPDEST DUP4 DUP6 ADD MSTORE POP POP POP PUSH2 0x120 DUP1 DUP4 ADD MLOAD DUP2 DUP4 ADD MSTORE POP PUSH2 0x140 DUP1 DUP4 ADD MLOAD DUP2 DUP4 ADD MSTORE POP PUSH2 0x160 DUP1 DUP4 ADD MLOAD DUP2 DUP4 ADD MSTORE POP SWAP3 SWAP2 POP POP JUMP JUMPDEST PUSH1 0x0 PUSH1 0x20 DUP1 DUP4 DUP6 SUB SLT ISZERO PUSH2 0x5C86 JUMPI PUSH1 0x0 DUP1 REVERT JUMPDEST DUP3 MLOAD PUSH8 0xFFFFFFFFFFFFFFFF DUP1 DUP3 GT ISZERO PUSH2 0x5C9E JUMPI PUSH1 0x0 DUP1 REVERT JUMPDEST DUP2 DUP6 ADD SWAP2 POP DUP6 PUSH1 0x1F DUP4 ADD SLT PUSH2 0x5CB2 JUMPI PUSH1 0x0 DUP1 REVERT JUMPDEST DUP2 MLOAD PUSH2 0x5CC0 PUSH2 0x4C62 DUP3 PUSH2 0x4BF5 JUMP JUMPDEST DUP2 DUP2 MSTORE PUSH1 0x5 SWAP2 SWAP1 SWAP2 SHL DUP4 ADD DUP5 ADD SWAP1 DUP5 DUP2 ADD SWAP1 DUP9 DUP4 GT ISZERO PUSH2 0x5CDF JUMPI PUSH1 0x0 DUP1 REVERT JUMPDEST DUP6 DUP6 ADD JUMPDEST DUP4 DUP2 LT ISZERO PUSH2 0x5770 JUMPI DUP1 MLOAD DUP6 DUP2 GT ISZERO PUSH2 0x5CFB JUMPI PUSH1 0x0 DUP1 DUP2 REVERT JUMPDEST PUSH2 0x5D09 DUP12 DUP10 DUP4 DUP11 ADD ADD PUSH2 0x5B5A JUMP JUMPDEST DUP5 MSTORE POP SWAP2 DUP7 ADD SWAP2 DUP7 ADD PUSH2 0x5CE3 JUMP JUMPDEST PUSH1 0x0 PUSH1 0x20 DUP3 DUP5 SUB SLT ISZERO PUSH2 0x5D29 JUMPI PUSH1 0x0 DUP1 REVERT JUMPDEST DUP2 MLOAD PUSH8 0xFFFFFFFFFFFFFFFF DUP2 GT ISZERO PUSH2 0x5D40 JUMPI PUSH1 0x0 DUP1 REVERT JUMPDEST PUSH2 0x2558 DUP5 DUP3 DUP6 ADD PUSH2 0x57AC JUMP JUMPDEST PUSH1 0x0 PUSH1 0x20 DUP3 DUP5 SUB SLT ISZERO PUSH2 0x5D5E JUMPI PUSH1 0x0 DUP1 REVERT JUMPDEST DUP2 MLOAD PUSH8 0xFFFFFFFFFFFFFFFF DUP2 GT ISZERO PUSH2 0x5D75 JUMPI PUSH1 0x0 DUP1 REVERT JUMPDEST PUSH2 0x2558 DUP5 DUP3 DUP6 ADD PUSH2 0x561F JUMP JUMPDEST PUSH1 0x0 PUSH1 0x20 DUP3 DUP5 SUB SLT ISZERO PUSH2 0x5D93 JUMPI PUSH1 0x0 DUP1 REVERT JUMPDEST DUP2 MLOAD PUSH8 0xFFFFFFFFFFFFFFFF DUP2 GT ISZERO PUSH2 0x5DAA JUMPI PUSH1 0x0 DUP1 REVERT JUMPDEST PUSH2 0x2558 DUP5 DUP3 DUP6 ADD PUSH2 0x5B5A JUMP JUMPDEST PUSH1 0x0 PUSH1 0x20 DUP3 DUP5 SUB SLT ISZERO PUSH2 0x5DC8 JUMPI PUSH1 0x0 DUP1 REVERT JUMPDEST DUP2 MLOAD PUSH2 0x2336 DUP2 PUSH2 0x49BD JUMP JUMPDEST PUSH1 0x0 PUSH20 0xFFFFFFFFFFFFFFFFFFFFFFFFFFFFFFFFFFFFFFFF DUP1 DUP11 AND DUP4 MSTORE DUP1 DUP10 AND PUSH1 0x20 DUP5 ADD MSTORE POP DUP7 PUSH1 0x40 DUP4 ADD MSTORE DUP6 PUSH1 0x60 DUP4 ADD MSTORE DUP5 PUSH1 0x80 DUP4 ADD MSTORE PUSH1 0xE0 PUSH1 0xA0 DUP4 ADD MSTORE PUSH2 0x5E1E PUSH1 0xE0 DUP4 ADD DUP6 PUSH2 0x4A41 JUMP JUMPDEST DUP3 DUP2 SUB PUSH1 0xC0 DUP5 ADD MSTORE PUSH2 0x5E30 DUP2 DUP6 PUSH2 0x4A41 JUMP JUMPDEST SWAP11 SWAP10 POP POP POP POP POP POP POP POP POP POP JUMP INVALID LOG2 PUSH5 0x6970667358 0x22 SLT KECCAK256 0x5E PUSH21 0x950D07174F82C6B8B4C7F7EB618BCA83F381C9F994 SDIV CALLDATALOAD 0xA8 PUSH6 0x8AEABC0C4664 PUSH20 0x6F6C634300080C00330000000000000000000000 "
		},
		"gasEstimates": {
			"creation": {
				"codeDepositCost": "4836000",
				"executionCost": "infinite",
				"totalCost": "infinite"
			},
			"external": {
				"_qrCodes(uint256)": "infinite",
				"addClaimerBan(address,string)": "infinite",
				"addMinter(address,string)": "infinite",
				"addMinterBalance(address,uint256)": "infinite",
				"banlist()": "2425",
				"claim(address,address)": "infinite",
				"claimers()": "2447",
				"codeTL()": "2408",
				"delClaimerBan(address)": "infinite",
				"deployerQRCodeClaimer()": "2424",
				"faucetAmount()": "2385",
				"getAddressNativeBalance(address)": "3027",
				"getAddressTokenBalance(address)": "infinite",
				"getAllQrCodes()": "infinite",
				"getBannedClaimers(uint256,uint256)": "infinite",
				"getBannedClaimersCount()": "infinite",
				"getBannedClaimersWhen(address)": "infinite",
				"getBannedClaimersWho(address)": "infinite",
				"getBannedClaimersWhy(address)": "infinite",
				"getClaimedQrCodes(address,uint256,uint256)": "infinite",
				"getClaimerInfo(address)": "infinite",
				"getClaimers(uint256,uint256)": "infinite",
				"getClaimersCount()": "infinite",
				"getClaimersInfo(uint256,uint256)": "infinite",
				"getFaucetBalance()": "305",
				"getIsManager(address)": "infinite",
				"getIsMinter(address)": "infinite",
				"getManagers()": "infinite",
				"getManagersCount()": "infinite",
				"getMinterClimedQrCodes(address,uint256,uint256)": "infinite",
				"getMinterInfo(address,bool)": "infinite",
				"getMinterQrCodes(address,uint256,uint256)": "infinite",
				"getMinters()": "infinite",
				"getMintersCount()": "infinite",
				"getMintersInfo(bool)": "infinite",
				"getQrCode(uint256)": "infinite",
				"getQrCodeByAddress(address)": "infinite",
				"getQrCodesByIds(uint256[])": "infinite",
				"getTokenBalance()": "infinite",
				"getTokenDecimals()": "infinite",
				"getTokenName()": "infinite",
				"getTokenSymbol()": "infinite",
				"isBannedClaimer(address)": "infinite",
				"isQrCodeClaimed(address)": "7029",
				"maxMintAmountPerQrCodeGlobal()": "2407",
				"mint(uint256,uint256,string)": "infinite",
				"minters()": "2445",
				"oracle()": "2446",
				"owner()": "2381",
				"qrCodes(uint256)": "infinite",
				"qrCodesLength()": "2387",
				"qrCodesRouters(address)": "2634",
				"setBanList(address)": "26766",
				"setClaimers(address)": "26766",
				"setCodeTL(uint256)": "24585",
				"setDeployerQRCodeClaimer(address)": "26789",
				"setFaucetAmount(uint256)": "24565",
				"setIsManager(address,bool)": "infinite",
				"setIsMinter(address,bool)": "infinite",
				"setMaxMintAmountPerQrCode(address,uint256)": "infinite",
				"setMaxMintAmountPerQrCodeGlobal(uint256)": "infinite",
				"setMinterBalance(address,uint256)": "infinite",
				"setMinterName(address,string)": "infinite",
				"setMinters(address)": "26742",
				"setOracle(address)": "26765",
				"tokenAddress()": "2425",
				"totalClaimedAmount()": "2385",
				"totalFaucetAmount()": "2428",
				"totalMintedAmount()": "2385",
				"totalQrCodesClaimed()": "2384",
				"transferOwnership(address)": "26787",
				"withdrawFunds()": "infinite"
			}
		},
		"methodIdentifiers": {
			"_qrCodes(uint256)": "0410fd63",
			"addClaimerBan(address,string)": "76678d84",
			"addMinter(address,string)": "424f3c8e",
			"addMinterBalance(address,uint256)": "384e491d",
			"banlist()": "d2aca659",
			"claim(address,address)": "21c0b342",
			"claimers()": "8b6ed67d",
			"codeTL()": "563d3ca3",
			"delClaimerBan(address)": "0075c377",
			"deployerQRCodeClaimer()": "da37499c",
			"faucetAmount()": "9c281430",
			"getAddressNativeBalance(address)": "d846ceae",
			"getAddressTokenBalance(address)": "a50ffda5",
			"getAllQrCodes()": "572d4721",
			"getBannedClaimers(uint256,uint256)": "5a2f7133",
			"getBannedClaimersCount()": "66800995",
			"getBannedClaimersWhen(address)": "09bae513",
			"getBannedClaimersWho(address)": "9ede054c",
			"getBannedClaimersWhy(address)": "991d73b5",
			"getClaimedQrCodes(address,uint256,uint256)": "4f513277",
			"getClaimerInfo(address)": "878d7d87",
			"getClaimers(uint256,uint256)": "98adcc97",
			"getClaimersCount()": "4078eeb2",
			"getClaimersInfo(uint256,uint256)": "41be8b94",
			"getFaucetBalance()": "f1f959a6",
			"getIsManager(address)": "198e14f8",
			"getIsMinter(address)": "17fc30d4",
			"getManagers()": "a8d088bb",
			"getManagersCount()": "ceeabbf6",
			"getMinterClimedQrCodes(address,uint256,uint256)": "65837e57",
			"getMinterInfo(address,bool)": "88235d18",
			"getMinterQrCodes(address,uint256,uint256)": "e43e5541",
			"getMinters()": "6b32810b",
			"getMintersCount()": "eed31986",
			"getMintersInfo(bool)": "7f66ef3b",
			"getQrCode(uint256)": "6f7ab8d1",
			"getQrCodeByAddress(address)": "81b5479d",
			"getQrCodesByIds(uint256[])": "1dff6a9f",
			"getTokenBalance()": "82b2e257",
			"getTokenDecimals()": "24f65ee7",
			"getTokenName()": "862b092b",
			"getTokenSymbol()": "f1850af8",
			"isBannedClaimer(address)": "303f2f0f",
			"isQrCodeClaimed(address)": "2a4e4553",
			"maxMintAmountPerQrCodeGlobal()": "892ff8bd",
			"mint(uint256,uint256,string)": "c6e64e53",
			"minters()": "f97b57ec",
			"oracle()": "7dc0d1d0",
			"owner()": "8da5cb5b",
			"qrCodes(uint256)": "6ca80026",
			"qrCodesLength()": "1654d42c",
			"qrCodesRouters(address)": "dccb445b",
			"setBanList(address)": "713abeb9",
			"setClaimers(address)": "c1c22145",
			"setCodeTL(uint256)": "a01bad52",
			"setDeployerQRCodeClaimer(address)": "1f39cc1b",
			"setFaucetAmount(uint256)": "81d2fd9c",
			"setIsManager(address,bool)": "26767f90",
			"setIsMinter(address,bool)": "66eb399f",
			"setMaxMintAmountPerQrCode(address,uint256)": "59d1bd80",
			"setMaxMintAmountPerQrCodeGlobal(uint256)": "04f32a1d",
			"setMinterBalance(address,uint256)": "66059a16",
			"setMinterName(address,string)": "ece76435",
			"setMinters(address)": "f2dd4566",
			"setOracle(address)": "7adbf973",
			"tokenAddress()": "9d76ea58",
			"totalClaimedAmount()": "9661cb0d",
			"totalFaucetAmount()": "f1294ef6",
			"totalMintedAmount()": "6f865e6f",
			"totalQrCodesClaimed()": "9db1ff16",
			"transferOwnership(address)": "f2fde38b",
			"withdrawFunds()": "24600fc3"
		}
	},
	"abi": [
		{
			"inputs": [
				{
					"internalType": "address",
					"name": "_tokenAddress",
					"type": "address"
				}
			],
			"stateMutability": "nonpayable",
			"type": "constructor"
		},
		{
			"anonymous": false,
			"inputs": [
				{
					"indexed": false,
					"internalType": "address",
					"name": "qrcode",
					"type": "address"
				}
			],
			"name": "QrCodeMinted",
			"type": "event"
		},
		{
			"inputs": [
				{
					"internalType": "uint256",
					"name": "",
					"type": "uint256"
				}
			],
			"name": "_qrCodes",
			"outputs": [
				{
					"internalType": "uint256",
					"name": "id",
					"type": "uint256"
				},
				{
					"internalType": "uint256",
					"name": "amount",
					"type": "uint256"
				},
				{
					"internalType": "address",
					"name": "minter",
					"type": "address"
				},
				{
					"internalType": "address",
					"name": "claimer",
					"type": "address"
				},
				{
					"internalType": "address",
					"name": "claimer_call",
					"type": "address"
				},
				{
					"internalType": "uint256",
					"name": "minted_at",
					"type": "uint256"
				},
				{
					"internalType": "uint256",
					"name": "claimed_at",
					"type": "uint256"
				},
				{
					"internalType": "uint256",
					"name": "timelife",
					"type": "uint256"
				},
				{
					"internalType": "address",
					"name": "router",
					"type": "address"
				},
				{
					"internalType": "string",
					"name": "message",
					"type": "string"
				}
			],
			"stateMutability": "view",
			"type": "function"
		},
		{
			"inputs": [
				{
					"internalType": "address",
					"name": "claimer",
					"type": "address"
				},
				{
					"internalType": "string",
					"name": "why",
					"type": "string"
				}
			],
			"name": "addClaimerBan",
			"outputs": [],
			"stateMutability": "nonpayable",
			"type": "function"
		},
		{
			"inputs": [
				{
					"internalType": "address",
					"name": "minter",
					"type": "address"
				},
				{
					"internalType": "string",
					"name": "name",
					"type": "string"
				}
			],
			"name": "addMinter",
			"outputs": [],
			"stateMutability": "nonpayable",
			"type": "function"
		},
		{
			"inputs": [
				{
					"internalType": "address",
					"name": "minter",
					"type": "address"
				},
				{
					"internalType": "uint256",
					"name": "amount",
					"type": "uint256"
				}
			],
			"name": "addMinterBalance",
			"outputs": [],
			"stateMutability": "nonpayable",
			"type": "function"
		},
		{
			"inputs": [],
			"name": "banlist",
			"outputs": [
				{
					"internalType": "contract IBannedClaimers",
					"name": "",
					"type": "address"
				}
			],
			"stateMutability": "view",
			"type": "function"
		},
		{
			"inputs": [
				{
					"internalType": "address",
					"name": "claimer",
					"type": "address"
				},
				{
					"internalType": "address",
					"name": "claimer_call",
					"type": "address"
				}
			],
			"name": "claim",
			"outputs": [],
			"stateMutability": "nonpayable",
			"type": "function"
		},
		{
			"inputs": [],
			"name": "claimers",
			"outputs": [
				{
					"internalType": "contract IQRCodeClaimers",
					"name": "",
					"type": "address"
				}
			],
			"stateMutability": "view",
			"type": "function"
		},
		{
			"inputs": [],
			"name": "codeTL",
			"outputs": [
				{
					"internalType": "uint256",
					"name": "",
					"type": "uint256"
				}
			],
			"stateMutability": "view",
			"type": "function"
		},
		{
			"inputs": [
				{
					"internalType": "address",
					"name": "claimer",
					"type": "address"
				}
			],
			"name": "delClaimerBan",
			"outputs": [],
			"stateMutability": "nonpayable",
			"type": "function"
		},
		{
			"inputs": [],
			"name": "deployerQRCodeClaimer",
			"outputs": [
				{
					"internalType": "contract IDeployerQRCodeClaimer",
					"name": "",
					"type": "address"
				}
			],
			"stateMutability": "view",
			"type": "function"
		},
		{
			"inputs": [],
			"name": "faucetAmount",
			"outputs": [
				{
					"internalType": "uint256",
					"name": "",
					"type": "uint256"
				}
			],
			"stateMutability": "view",
			"type": "function"
		},
		{
			"inputs": [
				{
					"internalType": "address",
					"name": "_address",
					"type": "address"
				}
			],
			"name": "getAddressNativeBalance",
			"outputs": [
				{
					"internalType": "uint256",
					"name": "",
					"type": "uint256"
				}
			],
			"stateMutability": "view",
			"type": "function"
		},
		{
			"inputs": [
				{
					"internalType": "address",
					"name": "_address",
					"type": "address"
				}
			],
			"name": "getAddressTokenBalance",
			"outputs": [
				{
					"internalType": "uint256",
					"name": "",
					"type": "uint256"
				}
			],
			"stateMutability": "view",
			"type": "function"
		},
		{
			"inputs": [],
			"name": "getAllQrCodes",
			"outputs": [
				{
					"components": [
						{
							"internalType": "uint256",
							"name": "id",
							"type": "uint256"
						},
						{
							"internalType": "uint256",
							"name": "amount",
							"type": "uint256"
						},
						{
							"internalType": "address",
							"name": "minter",
							"type": "address"
						},
						{
							"internalType": "address",
							"name": "claimer",
							"type": "address"
						},
						{
							"internalType": "address",
							"name": "claimer_call",
							"type": "address"
						},
						{
							"internalType": "uint256",
							"name": "minted_at",
							"type": "uint256"
						},
						{
							"internalType": "uint256",
							"name": "claimed_at",
							"type": "uint256"
						},
						{
							"internalType": "uint256",
							"name": "timelife",
							"type": "uint256"
						},
						{
							"internalType": "address",
							"name": "router",
							"type": "address"
						},
						{
							"internalType": "string",
							"name": "message",
							"type": "string"
						}
					],
					"internalType": "struct IQRCodeFactory.QRCODE[]",
					"name": "",
					"type": "tuple[]"
				}
			],
			"stateMutability": "view",
			"type": "function"
		},
		{
			"inputs": [
				{
					"internalType": "uint256",
					"name": "offset",
					"type": "uint256"
				},
				{
					"internalType": "uint256",
					"name": "limit",
					"type": "uint256"
				}
			],
			"name": "getBannedClaimers",
			"outputs": [
				{
					"components": [
						{
							"internalType": "address",
							"name": "claimer",
							"type": "address"
						},
						{
							"internalType": "address",
							"name": "who",
							"type": "address"
						},
						{
							"internalType": "string",
							"name": "why",
							"type": "string"
						},
						{
							"internalType": "uint256",
							"name": "when",
							"type": "uint256"
						}
					],
					"internalType": "struct IBannedClaimers.BannedClaimer[]",
					"name": "",
					"type": "tuple[]"
				}
			],
			"stateMutability": "view",
			"type": "function"
		},
		{
			"inputs": [],
			"name": "getBannedClaimersCount",
			"outputs": [
				{
					"internalType": "uint256",
					"name": "",
					"type": "uint256"
				}
			],
			"stateMutability": "view",
			"type": "function"
		},
		{
			"inputs": [
				{
					"internalType": "address",
					"name": "claimer",
					"type": "address"
				}
			],
			"name": "getBannedClaimersWhen",
			"outputs": [
				{
					"internalType": "uint256",
					"name": "",
					"type": "uint256"
				}
			],
			"stateMutability": "view",
			"type": "function"
		},
		{
			"inputs": [
				{
					"internalType": "address",
					"name": "claimer",
					"type": "address"
				}
			],
			"name": "getBannedClaimersWho",
			"outputs": [
				{
					"internalType": "address",
					"name": "",
					"type": "address"
				}
			],
			"stateMutability": "view",
			"type": "function"
		},
		{
			"inputs": [
				{
					"internalType": "address",
					"name": "claimer",
					"type": "address"
				}
			],
			"name": "getBannedClaimersWhy",
			"outputs": [
				{
					"internalType": "string",
					"name": "",
					"type": "string"
				}
			],
			"stateMutability": "view",
			"type": "function"
		},
		{
			"inputs": [
				{
					"internalType": "address",
					"name": "claimer",
					"type": "address"
				},
				{
					"internalType": "uint256",
					"name": "offset",
					"type": "uint256"
				},
				{
					"internalType": "uint256",
					"name": "limit",
					"type": "uint256"
				}
			],
			"name": "getClaimedQrCodes",
			"outputs": [
				{
					"components": [
						{
							"internalType": "uint256",
							"name": "id",
							"type": "uint256"
						},
						{
							"internalType": "uint256",
							"name": "amount",
							"type": "uint256"
						},
						{
							"internalType": "address",
							"name": "minter",
							"type": "address"
						},
						{
							"internalType": "address",
							"name": "claimer",
							"type": "address"
						},
						{
							"internalType": "address",
							"name": "claimer_call",
							"type": "address"
						},
						{
							"internalType": "uint256",
							"name": "minted_at",
							"type": "uint256"
						},
						{
							"internalType": "uint256",
							"name": "claimed_at",
							"type": "uint256"
						},
						{
							"internalType": "uint256",
							"name": "timelife",
							"type": "uint256"
						},
						{
							"internalType": "address",
							"name": "router",
							"type": "address"
						},
						{
							"internalType": "string",
							"name": "message",
							"type": "string"
						}
					],
					"internalType": "struct IQRCodeFactory.QRCODE[]",
					"name": "",
					"type": "tuple[]"
				}
			],
			"stateMutability": "view",
			"type": "function"
		},
		{
			"inputs": [
				{
					"internalType": "address",
					"name": "claimer",
					"type": "address"
				}
			],
			"name": "getClaimerInfo",
			"outputs": [
				{
					"components": [
						{
							"internalType": "address",
							"name": "claimerAddress",
							"type": "address"
						},
						{
							"internalType": "uint256",
							"name": "claimedAmount",
							"type": "uint256"
						},
						{
							"internalType": "uint256[]",
							"name": "claimedQrCodes",
							"type": "uint256[]"
						},
						{
							"internalType": "uint256",
							"name": "claimedQrCodesCount",
							"type": "uint256"
						},
						{
							"internalType": "uint256",
							"name": "faucetUsed",
							"type": "uint256"
						},
						{
							"internalType": "bool",
							"name": "isBanned",
							"type": "bool"
						}
					],
					"internalType": "struct IQRCodeClaimers.ClaimerInfo",
					"name": "ret",
					"type": "tuple"
				}
			],
			"stateMutability": "view",
			"type": "function"
		},
		{
			"inputs": [
				{
					"internalType": "uint256",
					"name": "offset",
					"type": "uint256"
				},
				{
					"internalType": "uint256",
					"name": "limit",
					"type": "uint256"
				}
			],
			"name": "getClaimers",
			"outputs": [
				{
					"internalType": "address[]",
					"name": "",
					"type": "address[]"
				}
			],
			"stateMutability": "view",
			"type": "function"
		},
		{
			"inputs": [],
			"name": "getClaimersCount",
			"outputs": [
				{
					"internalType": "uint256",
					"name": "",
					"type": "uint256"
				}
			],
			"stateMutability": "view",
			"type": "function"
		},
		{
			"inputs": [
				{
					"internalType": "uint256",
					"name": "offset",
					"type": "uint256"
				},
				{
					"internalType": "uint256",
					"name": "limit",
					"type": "uint256"
				}
			],
			"name": "getClaimersInfo",
			"outputs": [
				{
					"components": [
						{
							"internalType": "address",
							"name": "claimerAddress",
							"type": "address"
						},
						{
							"internalType": "uint256",
							"name": "claimedAmount",
							"type": "uint256"
						},
						{
							"internalType": "uint256[]",
							"name": "claimedQrCodes",
							"type": "uint256[]"
						},
						{
							"internalType": "uint256",
							"name": "claimedQrCodesCount",
							"type": "uint256"
						},
						{
							"internalType": "uint256",
							"name": "faucetUsed",
							"type": "uint256"
						},
						{
							"internalType": "bool",
							"name": "isBanned",
							"type": "bool"
						}
					],
					"internalType": "struct IQRCodeClaimers.ClaimerInfo[]",
					"name": "",
					"type": "tuple[]"
				}
			],
			"stateMutability": "view",
			"type": "function"
		},
		{
			"inputs": [],
			"name": "getFaucetBalance",
			"outputs": [
				{
					"internalType": "uint256",
					"name": "",
					"type": "uint256"
				}
			],
			"stateMutability": "view",
			"type": "function"
		},
		{
			"inputs": [
				{
					"internalType": "address",
					"name": "check",
					"type": "address"
				}
			],
			"name": "getIsManager",
			"outputs": [
				{
					"internalType": "bool",
					"name": "",
					"type": "bool"
				}
			],
			"stateMutability": "view",
			"type": "function"
		},
		{
			"inputs": [
				{
					"internalType": "address",
					"name": "check",
					"type": "address"
				}
			],
			"name": "getIsMinter",
			"outputs": [
				{
					"internalType": "bool",
					"name": "",
					"type": "bool"
				}
			],
			"stateMutability": "view",
			"type": "function"
		},
		{
			"inputs": [],
			"name": "getManagers",
			"outputs": [
				{
					"internalType": "address[]",
					"name": "",
					"type": "address[]"
				}
			],
			"stateMutability": "view",
			"type": "function"
		},
		{
			"inputs": [],
			"name": "getManagersCount",
			"outputs": [
				{
					"internalType": "uint256",
					"name": "",
					"type": "uint256"
				}
			],
			"stateMutability": "view",
			"type": "function"
		},
		{
			"inputs": [
				{
					"internalType": "address",
					"name": "minter",
					"type": "address"
				},
				{
					"internalType": "uint256",
					"name": "offset",
					"type": "uint256"
				},
				{
					"internalType": "uint256",
					"name": "limit",
					"type": "uint256"
				}
			],
			"name": "getMinterClimedQrCodes",
			"outputs": [
				{
					"components": [
						{
							"internalType": "uint256",
							"name": "id",
							"type": "uint256"
						},
						{
							"internalType": "uint256",
							"name": "amount",
							"type": "uint256"
						},
						{
							"internalType": "address",
							"name": "minter",
							"type": "address"
						},
						{
							"internalType": "address",
							"name": "claimer",
							"type": "address"
						},
						{
							"internalType": "address",
							"name": "claimer_call",
							"type": "address"
						},
						{
							"internalType": "uint256",
							"name": "minted_at",
							"type": "uint256"
						},
						{
							"internalType": "uint256",
							"name": "claimed_at",
							"type": "uint256"
						},
						{
							"internalType": "uint256",
							"name": "timelife",
							"type": "uint256"
						},
						{
							"internalType": "address",
							"name": "router",
							"type": "address"
						},
						{
							"internalType": "string",
							"name": "message",
							"type": "string"
						}
					],
					"internalType": "struct IQRCodeFactory.QRCODE[]",
					"name": "",
					"type": "tuple[]"
				}
			],
			"stateMutability": "view",
			"type": "function"
		},
		{
			"inputs": [
				{
					"internalType": "address",
					"name": "minter",
					"type": "address"
				},
				{
					"internalType": "bool",
					"name": "skipCodesIds",
					"type": "bool"
				}
			],
			"name": "getMinterInfo",
			"outputs": [
				{
					"components": [
						{
							"internalType": "address",
							"name": "minterAddress",
							"type": "address"
						},
						{
							"internalType": "uint256",
							"name": "energy",
							"type": "uint256"
						},
						{
							"internalType": "string",
							"name": "name",
							"type": "string"
						},
						{
							"internalType": "uint256",
							"name": "mintedAmount",
							"type": "uint256"
						},
						{
							"internalType": "uint256",
							"name": "claimedAmount",
							"type": "uint256"
						},
						{
							"internalType": "uint256",
							"name": "notClaimedAmount",
							"type": "uint256"
						},
						{
							"internalType": "uint256[]",
							"name": "mintedQrCodes",
							"type": "uint256[]"
						},
						{
							"internalType": "uint256[]",
							"name": "claimedQRCodes",
							"type": "uint256[]"
						},
						{
							"internalType": "uint256[]",
							"name": "notClaimedQrCodes",
							"type": "uint256[]"
						},
						{
							"internalType": "uint256",
							"name": "mintedQrCodesCount",
							"type": "uint256"
						},
						{
							"internalType": "uint256",
							"name": "claimedQrCodesCount",
							"type": "uint256"
						},
						{
							"internalType": "uint256",
							"name": "balance",
							"type": "uint256"
						}
					],
					"internalType": "struct IQRCodeMinters.MinterInfo",
					"name": "ret",
					"type": "tuple"
				}
			],
			"stateMutability": "view",
			"type": "function"
		},
		{
			"inputs": [
				{
					"internalType": "address",
					"name": "minter",
					"type": "address"
				},
				{
					"internalType": "uint256",
					"name": "offset",
					"type": "uint256"
				},
				{
					"internalType": "uint256",
					"name": "limit",
					"type": "uint256"
				}
			],
			"name": "getMinterQrCodes",
			"outputs": [
				{
					"components": [
						{
							"internalType": "uint256",
							"name": "id",
							"type": "uint256"
						},
						{
							"internalType": "uint256",
							"name": "amount",
							"type": "uint256"
						},
						{
							"internalType": "address",
							"name": "minter",
							"type": "address"
						},
						{
							"internalType": "address",
							"name": "claimer",
							"type": "address"
						},
						{
							"internalType": "address",
							"name": "claimer_call",
							"type": "address"
						},
						{
							"internalType": "uint256",
							"name": "minted_at",
							"type": "uint256"
						},
						{
							"internalType": "uint256",
							"name": "claimed_at",
							"type": "uint256"
						},
						{
							"internalType": "uint256",
							"name": "timelife",
							"type": "uint256"
						},
						{
							"internalType": "address",
							"name": "router",
							"type": "address"
						},
						{
							"internalType": "string",
							"name": "message",
							"type": "string"
						}
					],
					"internalType": "struct IQRCodeFactory.QRCODE[]",
					"name": "",
					"type": "tuple[]"
				}
			],
			"stateMutability": "view",
			"type": "function"
		},
		{
			"inputs": [],
			"name": "getMinters",
			"outputs": [
				{
					"internalType": "address[]",
					"name": "",
					"type": "address[]"
				}
			],
			"stateMutability": "view",
			"type": "function"
		},
		{
			"inputs": [],
			"name": "getMintersCount",
			"outputs": [
				{
					"internalType": "uint256",
					"name": "",
					"type": "uint256"
				}
			],
			"stateMutability": "view",
			"type": "function"
		},
		{
			"inputs": [
				{
					"internalType": "bool",
					"name": "skipCodesIds",
					"type": "bool"
				}
			],
			"name": "getMintersInfo",
			"outputs": [
				{
					"components": [
						{
							"internalType": "address",
							"name": "minterAddress",
							"type": "address"
						},
						{
							"internalType": "uint256",
							"name": "energy",
							"type": "uint256"
						},
						{
							"internalType": "string",
							"name": "name",
							"type": "string"
						},
						{
							"internalType": "uint256",
							"name": "mintedAmount",
							"type": "uint256"
						},
						{
							"internalType": "uint256",
							"name": "claimedAmount",
							"type": "uint256"
						},
						{
							"internalType": "uint256",
							"name": "notClaimedAmount",
							"type": "uint256"
						},
						{
							"internalType": "uint256[]",
							"name": "mintedQrCodes",
							"type": "uint256[]"
						},
						{
							"internalType": "uint256[]",
							"name": "claimedQRCodes",
							"type": "uint256[]"
						},
						{
							"internalType": "uint256[]",
							"name": "notClaimedQrCodes",
							"type": "uint256[]"
						},
						{
							"internalType": "uint256",
							"name": "mintedQrCodesCount",
							"type": "uint256"
						},
						{
							"internalType": "uint256",
							"name": "claimedQrCodesCount",
							"type": "uint256"
						},
						{
							"internalType": "uint256",
							"name": "balance",
							"type": "uint256"
						}
					],
					"internalType": "struct IQRCodeMinters.MinterInfo[]",
					"name": "",
					"type": "tuple[]"
				}
			],
			"stateMutability": "view",
			"type": "function"
		},
		{
			"inputs": [
				{
					"internalType": "uint256",
					"name": "index",
					"type": "uint256"
				}
			],
			"name": "getQrCode",
			"outputs": [
				{
					"components": [
						{
							"internalType": "uint256",
							"name": "id",
							"type": "uint256"
						},
						{
							"internalType": "uint256",
							"name": "amount",
							"type": "uint256"
						},
						{
							"internalType": "address",
							"name": "minter",
							"type": "address"
						},
						{
							"internalType": "address",
							"name": "claimer",
							"type": "address"
						},
						{
							"internalType": "address",
							"name": "claimer_call",
							"type": "address"
						},
						{
							"internalType": "uint256",
							"name": "minted_at",
							"type": "uint256"
						},
						{
							"internalType": "uint256",
							"name": "claimed_at",
							"type": "uint256"
						},
						{
							"internalType": "uint256",
							"name": "timelife",
							"type": "uint256"
						},
						{
							"internalType": "address",
							"name": "router",
							"type": "address"
						},
						{
							"internalType": "string",
							"name": "message",
							"type": "string"
						}
					],
					"internalType": "struct IQRCodeFactory.QRCODE",
					"name": "",
					"type": "tuple"
				}
			],
			"stateMutability": "view",
			"type": "function"
		},
		{
			"inputs": [
				{
					"internalType": "address",
					"name": "router",
					"type": "address"
				}
			],
			"name": "getQrCodeByAddress",
			"outputs": [
				{
					"components": [
						{
							"internalType": "uint256",
							"name": "id",
							"type": "uint256"
						},
						{
							"internalType": "uint256",
							"name": "amount",
							"type": "uint256"
						},
						{
							"internalType": "address",
							"name": "minter",
							"type": "address"
						},
						{
							"internalType": "address",
							"name": "claimer",
							"type": "address"
						},
						{
							"internalType": "address",
							"name": "claimer_call",
							"type": "address"
						},
						{
							"internalType": "uint256",
							"name": "minted_at",
							"type": "uint256"
						},
						{
							"internalType": "uint256",
							"name": "claimed_at",
							"type": "uint256"
						},
						{
							"internalType": "uint256",
							"name": "timelife",
							"type": "uint256"
						},
						{
							"internalType": "address",
							"name": "router",
							"type": "address"
						},
						{
							"internalType": "string",
							"name": "message",
							"type": "string"
						}
					],
					"internalType": "struct IQRCodeFactory.QRCODE",
					"name": "ret",
					"type": "tuple"
				}
			],
			"stateMutability": "view",
			"type": "function"
		},
		{
			"inputs": [
				{
					"internalType": "uint256[]",
					"name": "ids",
					"type": "uint256[]"
				}
			],
			"name": "getQrCodesByIds",
			"outputs": [
				{
					"components": [
						{
							"internalType": "uint256",
							"name": "id",
							"type": "uint256"
						},
						{
							"internalType": "uint256",
							"name": "amount",
							"type": "uint256"
						},
						{
							"internalType": "address",
							"name": "minter",
							"type": "address"
						},
						{
							"internalType": "address",
							"name": "claimer",
							"type": "address"
						},
						{
							"internalType": "address",
							"name": "claimer_call",
							"type": "address"
						},
						{
							"internalType": "uint256",
							"name": "minted_at",
							"type": "uint256"
						},
						{
							"internalType": "uint256",
							"name": "claimed_at",
							"type": "uint256"
						},
						{
							"internalType": "uint256",
							"name": "timelife",
							"type": "uint256"
						},
						{
							"internalType": "address",
							"name": "router",
							"type": "address"
						},
						{
							"internalType": "string",
							"name": "message",
							"type": "string"
						}
					],
					"internalType": "struct IQRCodeFactory.QRCODE[]",
					"name": "",
					"type": "tuple[]"
				}
			],
			"stateMutability": "view",
			"type": "function"
		},
		{
			"inputs": [],
			"name": "getTokenBalance",
			"outputs": [
				{
					"internalType": "uint256",
					"name": "",
					"type": "uint256"
				}
			],
			"stateMutability": "view",
			"type": "function"
		},
		{
			"inputs": [],
			"name": "getTokenDecimals",
			"outputs": [
				{
					"internalType": "uint256",
					"name": "",
					"type": "uint256"
				}
			],
			"stateMutability": "view",
			"type": "function"
		},
		{
			"inputs": [],
			"name": "getTokenName",
			"outputs": [
				{
					"internalType": "string",
					"name": "",
					"type": "string"
				}
			],
			"stateMutability": "view",
			"type": "function"
		},
		{
			"inputs": [],
			"name": "getTokenSymbol",
			"outputs": [
				{
					"internalType": "string",
					"name": "",
					"type": "string"
				}
			],
			"stateMutability": "view",
			"type": "function"
		},
		{
			"inputs": [
				{
					"internalType": "address",
					"name": "who",
					"type": "address"
				}
			],
			"name": "isBannedClaimer",
			"outputs": [
				{
					"internalType": "bool",
					"name": "",
					"type": "bool"
				}
			],
			"stateMutability": "view",
			"type": "function"
		},
		{
			"inputs": [
				{
					"internalType": "address",
					"name": "router",
					"type": "address"
				}
			],
			"name": "isQrCodeClaimed",
			"outputs": [
				{
					"internalType": "bool",
					"name": "",
					"type": "bool"
				}
			],
			"stateMutability": "view",
			"type": "function"
		},
		{
			"inputs": [],
			"name": "maxMintAmountPerQrCodeGlobal",
			"outputs": [
				{
					"internalType": "uint256",
					"name": "",
					"type": "uint256"
				}
			],
			"stateMutability": "view",
			"type": "function"
		},
		{
			"inputs": [
				{
					"internalType": "uint256",
					"name": "_amount",
					"type": "uint256"
				},
				{
					"internalType": "uint256",
					"name": "_timelife",
					"type": "uint256"
				},
				{
					"internalType": "string",
					"name": "_message",
					"type": "string"
				}
			],
			"name": "mint",
			"outputs": [
				{
					"internalType": "address",
					"name": "",
					"type": "address"
				}
			],
			"stateMutability": "nonpayable",
			"type": "function"
		},
		{
			"inputs": [],
			"name": "minters",
			"outputs": [
				{
					"internalType": "contract IQRCodeMinters",
					"name": "",
					"type": "address"
				}
			],
			"stateMutability": "view",
			"type": "function"
		},
		{
			"inputs": [],
			"name": "oracle",
			"outputs": [
				{
					"internalType": "address",
					"name": "",
					"type": "address"
				}
			],
			"stateMutability": "view",
			"type": "function"
		},
		{
			"inputs": [],
			"name": "owner",
			"outputs": [
				{
					"internalType": "address",
					"name": "",
					"type": "address"
				}
			],
			"stateMutability": "view",
			"type": "function"
		},
		{
			"inputs": [
				{
					"internalType": "uint256",
					"name": "id",
					"type": "uint256"
				}
			],
			"name": "qrCodes",
			"outputs": [
				{
					"components": [
						{
							"internalType": "uint256",
							"name": "id",
							"type": "uint256"
						},
						{
							"internalType": "uint256",
							"name": "amount",
							"type": "uint256"
						},
						{
							"internalType": "address",
							"name": "minter",
							"type": "address"
						},
						{
							"internalType": "address",
							"name": "claimer",
							"type": "address"
						},
						{
							"internalType": "address",
							"name": "claimer_call",
							"type": "address"
						},
						{
							"internalType": "uint256",
							"name": "minted_at",
							"type": "uint256"
						},
						{
							"internalType": "uint256",
							"name": "claimed_at",
							"type": "uint256"
						},
						{
							"internalType": "uint256",
							"name": "timelife",
							"type": "uint256"
						},
						{
							"internalType": "address",
							"name": "router",
							"type": "address"
						},
						{
							"internalType": "string",
							"name": "message",
							"type": "string"
						}
					],
					"internalType": "struct IQRCodeFactory.QRCODE",
					"name": "",
					"type": "tuple"
				}
			],
			"stateMutability": "view",
			"type": "function"
		},
		{
			"inputs": [],
			"name": "qrCodesLength",
			"outputs": [
				{
					"internalType": "uint256",
					"name": "",
					"type": "uint256"
				}
			],
			"stateMutability": "view",
			"type": "function"
		},
		{
			"inputs": [
				{
					"internalType": "address",
					"name": "",
					"type": "address"
				}
			],
			"name": "qrCodesRouters",
			"outputs": [
				{
					"internalType": "uint256",
					"name": "",
					"type": "uint256"
				}
			],
			"stateMutability": "view",
			"type": "function"
		},
		{
			"inputs": [
				{
					"internalType": "address",
					"name": "newBanList",
					"type": "address"
				}
			],
			"name": "setBanList",
			"outputs": [],
			"stateMutability": "nonpayable",
			"type": "function"
		},
		{
			"inputs": [
				{
					"internalType": "address",
					"name": "newClaimers",
					"type": "address"
				}
			],
			"name": "setClaimers",
			"outputs": [],
			"stateMutability": "nonpayable",
			"type": "function"
		},
		{
			"inputs": [
				{
					"internalType": "uint256",
					"name": "_codeTL",
					"type": "uint256"
				}
			],
			"name": "setCodeTL",
			"outputs": [],
			"stateMutability": "nonpayable",
			"type": "function"
		},
		{
			"inputs": [
				{
					"internalType": "address",
					"name": "addr",
					"type": "address"
				}
			],
			"name": "setDeployerQRCodeClaimer",
			"outputs": [],
			"stateMutability": "nonpayable",
			"type": "function"
		},
		{
			"inputs": [
				{
					"internalType": "uint256",
					"name": "_faucetAmount",
					"type": "uint256"
				}
			],
			"name": "setFaucetAmount",
			"outputs": [],
			"stateMutability": "nonpayable",
			"type": "function"
		},
		{
			"inputs": [
				{
					"internalType": "address",
					"name": "who",
					"type": "address"
				},
				{
					"internalType": "bool",
					"name": "isManager",
					"type": "bool"
				}
			],
			"name": "setIsManager",
			"outputs": [],
			"stateMutability": "nonpayable",
			"type": "function"
		},
		{
			"inputs": [
				{
					"internalType": "address",
					"name": "who",
					"type": "address"
				},
				{
					"internalType": "bool",
					"name": "isMinter",
					"type": "bool"
				}
			],
			"name": "setIsMinter",
			"outputs": [],
			"stateMutability": "nonpayable",
			"type": "function"
		},
		{
			"inputs": [
				{
					"internalType": "address",
					"name": "minter",
					"type": "address"
				},
				{
					"internalType": "uint256",
					"name": "newLimit",
					"type": "uint256"
				}
			],
			"name": "setMaxMintAmountPerQrCode",
			"outputs": [],
			"stateMutability": "nonpayable",
			"type": "function"
		},
		{
			"inputs": [
				{
					"internalType": "uint256",
					"name": "newLimit",
					"type": "uint256"
				}
			],
			"name": "setMaxMintAmountPerQrCodeGlobal",
			"outputs": [],
			"stateMutability": "nonpayable",
			"type": "function"
		},
		{
			"inputs": [
				{
					"internalType": "address",
					"name": "minter",
					"type": "address"
				},
				{
					"internalType": "uint256",
					"name": "newBalance",
					"type": "uint256"
				}
			],
			"name": "setMinterBalance",
			"outputs": [],
			"stateMutability": "nonpayable",
			"type": "function"
		},
		{
			"inputs": [
				{
					"internalType": "address",
					"name": "minter",
					"type": "address"
				},
				{
					"internalType": "string",
					"name": "name",
					"type": "string"
				}
			],
			"name": "setMinterName",
			"outputs": [],
			"stateMutability": "nonpayable",
			"type": "function"
		},
		{
			"inputs": [
				{
					"internalType": "address",
					"name": "newMinters",
					"type": "address"
				}
			],
			"name": "setMinters",
			"outputs": [],
			"stateMutability": "nonpayable",
			"type": "function"
		},
		{
			"inputs": [
				{
					"internalType": "address",
					"name": "newOracle",
					"type": "address"
				}
			],
			"name": "setOracle",
			"outputs": [],
			"stateMutability": "nonpayable",
			"type": "function"
		},
		{
			"inputs": [],
			"name": "tokenAddress",
			"outputs": [
				{
					"internalType": "address",
					"name": "",
					"type": "address"
				}
			],
			"stateMutability": "view",
			"type": "function"
		},
		{
			"inputs": [],
			"name": "totalClaimedAmount",
			"outputs": [
				{
					"internalType": "uint256",
					"name": "",
					"type": "uint256"
				}
			],
			"stateMutability": "view",
			"type": "function"
		},
		{
			"inputs": [],
			"name": "totalFaucetAmount",
			"outputs": [
				{
					"internalType": "uint256",
					"name": "",
					"type": "uint256"
				}
			],
			"stateMutability": "view",
			"type": "function"
		},
		{
			"inputs": [],
			"name": "totalMintedAmount",
			"outputs": [
				{
					"internalType": "uint256",
					"name": "",
					"type": "uint256"
				}
			],
			"stateMutability": "view",
			"type": "function"
		},
		{
			"inputs": [],
			"name": "totalQrCodesClaimed",
			"outputs": [
				{
					"internalType": "uint256",
					"name": "",
					"type": "uint256"
				}
			],
			"stateMutability": "view",
			"type": "function"
		},
		{
			"inputs": [
				{
					"internalType": "address",
					"name": "newOwner",
					"type": "address"
				}
			],
			"name": "transferOwnership",
			"outputs": [],
			"stateMutability": "nonpayable",
			"type": "function"
		},
		{
			"inputs": [],
			"name": "withdrawFunds",
			"outputs": [],
			"stateMutability": "nonpayable",
			"type": "function"
		},
		{
			"stateMutability": "payable",
			"type": "receive"
		}
	]
}