{
	"data": {
		"bytecode": {
			"linkReferences": {
				"AddressSet.sol": {
					"AddressSet": [
						{
							"length": 20,
							"start": 160
						},
						{
							"length": 20,
							"start": 265
						},
						{
							"length": 20,
							"start": 3875
						},
						{
							"length": 20,
							"start": 4048
						},
						{
							"length": 20,
							"start": 4161
						},
						{
							"length": 20,
							"start": 4343
						},
						{
							"length": 20,
							"start": 4556
						},
						{
							"length": 20,
							"start": 4695
						},
						{
							"length": 20,
							"start": 4870
						},
						{
							"length": 20,
							"start": 5007
						},
						{
							"length": 20,
							"start": 5792
						},
						{
							"length": 20,
							"start": 6468
						},
						{
							"length": 20,
							"start": 6582
						},
						{
							"length": 20,
							"start": 6735
						},
						{
							"length": 20,
							"start": 6979
						},
						{
							"length": 20,
							"start": 7124
						},
						{
							"length": 20,
							"start": 7452
						},
						{
							"length": 20,
							"start": 7616
						},
						{
							"length": 20,
							"start": 8950
						},
						{
							"length": 20,
							"start": 9169
						},
						{
							"length": 20,
							"start": 9938
						},
						{
							"length": 20,
							"start": 10140
						},
						{
							"length": 20,
							"start": 10190
						},
						{
							"length": 20,
							"start": 10361
						},
						{
							"length": 20,
							"start": 10421
						},
						{
							"length": 20,
							"start": 10505
						},
						{
							"length": 20,
							"start": 11156
						},
						{
							"length": 20,
							"start": 11320
						},
						{
							"length": 20,
							"start": 11980
						},
						{
							"length": 20,
							"start": 12297
						},
						{
							"length": 20,
							"start": 12459
						},
						{
							"length": 20,
							"start": 12770
						},
						{
							"length": 20,
							"start": 12823
						},
						{
							"length": 20,
							"start": 13855
						},
						{
							"length": 20,
							"start": 14749
						},
						{
							"length": 20,
							"start": 14966
						},
						{
							"length": 20,
							"start": 15026
						}
					]
				}
			},
			"object": "6080604052610708600255662386f26fc1000060035560006006556000600755600060085560006009556000600a556000600b55655af3107a4000601a553480156200004a57600080fd5b506040516200550c3803806200550c8339810160408190526200006d9162000182565b600080546001600160a01b03191633908117909155604051639f75f0a360e01b815260216004820152602481019190915273__$1c537defa8d8abb880144579cecc12eeda$__90639f75f0a39060440160006040518083038186803b158015620000d657600080fd5b505af4158015620000eb573d6000803e3d6000fd5b5050604051639f75f0a360e01b8152600c600482015233602482015273__$1c537defa8d8abb880144579cecc12eeda$__9250639f75f0a3915060440160006040518083038186803b1580156200014157600080fd5b505af415801562000156573d6000803e3d6000fd5b5050600180546001600160a01b0319166001600160a01b03949094169390931790925550620001b49050565b6000602082840312156200019557600080fd5b81516001600160a01b0381168114620001ad57600080fd5b9392505050565b61534880620001c46000396000f3fe6080604052600436106200040a5760003560e01c806376678d84116200021b578063ad4ad7ca1162000123578063ece7643511620000ad578063f1850af81162000078578063f1850af81462000ccd578063f1f959a61462000ce5578063f2fde38b1462000cfa578063fbbf8cc31462000d1f57600080fd5b8063ece764351462000c44578063eed319861462000c69578063f09b22031462000c81578063f1294ef61462000cb557600080fd5b8063d3a51ff211620000ee578063d3a51ff21462000b9d578063d846ceae1462000bc2578063dccb445b1462000bee578063e43e55411462000c1f57600080fd5b8063ad4ad7ca1462000afe578063b862251f1462000b2f578063c6e64e531462000b60578063ceeabbf61462000b8557600080fd5b80639661cb0d11620001a55780639db1ff1611620001705780639db1ff161462000a84578063a01bad521462000a9c578063a50ffda51462000ac1578063a8d088bb1462000ae657600080fd5b80639661cb0d1462000a0d57806398adcc971462000a255780639c2814301462000a4a5780639d76ea581462000a6257600080fd5b8063862b092b11620001e6578063862b092b146200095f578063878d7d871462000986578063892ff8bd14620009ba5780638da5cb5b14620009d257600080fd5b806376678d8414620008d857806381b5479d14620008fd57806381d2fd9c146200092257806382b2e257146200094757600080fd5b80634078eeb2116200031f5780635a2f713311620002a95780636b32810b11620002745780636b32810b14620008295780636ca8002614620008505780636f7ab8d1146200088c5780636f865e6f14620008c057600080fd5b80635a2f7133146200079357806366059a1614620007c75780636680099514620007ec57806366eb399f146200080457600080fd5b80634f51327711620002ea5780634f513277146200070a578063563d3ca3146200073e578063572d4721146200075657806359d1bd80146200076e57600080fd5b80634078eeb2146200067457806341be8b94146200068c578063424f3c8e14620006c057806344e2ad9914620006e557600080fd5b80631e83409a11620003a15780632a4e4553116200036c5780632a4e455314620005c85780632e42add714620005ed578063384e491d146200061e5780633e70703e146200064357600080fd5b80631e83409a1462000541578063206855d0146200056657806324f65ee7146200058b57806326767f9014620005a357600080fd5b8063143f338c11620003e2578063143f338c14620004a75780631654d42c14620004ce57806317fc30d414620004e6578063198e14f8146200051c57600080fd5b806275c377146200041757806304e86903146200043e57806304f32a1d146200048257600080fd5b366200041257005b600080fd5b3480156200042457600080fd5b506200043c6200043636600462003d93565b62000d50565b005b3480156200044b57600080fd5b506200046f6200045d36600462003d93565b60166020526000908152604090205481565b6040519081526020015b60405180910390f35b3480156200048f57600080fd5b506200043c620004a136600462003db3565b62000e6e565b348015620004b457600080fd5b50620004bf62000f17565b60405162000479919062003ee4565b348015620004db57600080fd5b506200046f60075481565b348015620004f357600080fd5b506200050b6200050536600462003d93565b62001130565b604051901515815260200162000479565b3480156200052957600080fd5b506200050b6200053b36600462003d93565b620011b9565b3480156200054e57600080fd5b506200043c6200056036600462003d93565b620011f8565b3480156200057357600080fd5b506200046f6200058536600462003f4a565b62001692565b3480156200059857600080fd5b506200046f620016c4565b348015620005b057600080fd5b506200043c620005c236600462003f88565b6200173d565b348015620005d557600080fd5b506200050b620005e736600462003d93565b6200181f565b348015620005fa57600080fd5b506200046f6200060c36600462003d93565b60196020526000908152604090205481565b3480156200062b57600080fd5b506200043c6200063d36600462003f4a565b6200187c565b3480156200065057600080fd5b506200046f6200066236600462003d93565b60126020526000908152604090205481565b3480156200068157600080fd5b506200046f62001966565b3480156200069957600080fd5b50620006b1620006ab36600462003fc6565b620019e6565b60405162000479919062004048565b348015620006cd57600080fd5b506200043c620006df36600462004172565b62001b49565b348015620006f257600080fd5b506200046f6200070436600462003f4a565b62001c86565b3480156200071757600080fd5b506200072f62000729366004620041c8565b62001ca3565b6040516200047991906200429f565b3480156200074b57600080fd5b506200046f60025481565b3480156200076357600080fd5b506200072f62001f58565b3480156200077b57600080fd5b506200043c6200078d36600462003f4a565b62002123565b348015620007a057600080fd5b50620007b8620007b236600462003fc6565b620021e3565b604051620004799190620042f8565b348015620007d457600080fd5b506200043c620007e636600462003f4a565b620024ff565b348015620007f957600080fd5b506200046f620025bf565b3480156200081157600080fd5b506200043c6200082336600462003f88565b620025fb565b3480156200083657600080fd5b50620008416200271e565b60405162000479919062004396565b3480156200085d57600080fd5b50620008756200086f36600462003db3565b620027ab565b6040516200047999989796959493929190620043e5565b3480156200089957600080fd5b50620008b1620008ab36600462003db3565b62002898565b6040516200047991906200444a565b348015620008cd57600080fd5b506200046f60095481565b348015620008e557600080fd5b506200043c620008f736600462004172565b620029c1565b3480156200090a57600080fd5b50620008b16200091c36600462003d93565b62002b34565b3480156200092f57600080fd5b506200043c6200094136600462003db3565b62002bfe565b3480156200095457600080fd5b506200046f62002c30565b3480156200096c57600080fd5b506200097762002c7a565b6040516200047991906200445f565b3480156200099357600080fd5b50620009ab620009a536600462003d93565b62002cef565b60405162000479919062004474565b348015620009c757600080fd5b506200046f601a5481565b348015620009df57600080fd5b50600054620009f4906001600160a01b031681565b6040516001600160a01b03909116815260200162000479565b34801562000a1a57600080fd5b506200046f600a5481565b34801562000a3257600080fd5b506200084162000a4436600462003fc6565b62002ec0565b34801562000a5757600080fd5b506200046f60035481565b34801562000a6f57600080fd5b50600154620009f4906001600160a01b031681565b34801562000a9157600080fd5b506200046f60085481565b34801562000aa957600080fd5b506200043c62000abb36600462003db3565b62002f53565b34801562000ace57600080fd5b506200046f62000ae036600462003d93565b62002f85565b34801562000af357600080fd5b506200084162002ff7565b34801562000b0b57600080fd5b506200046f62000b1d36600462003d93565b60186020526000908152604090205481565b34801562000b3c57600080fd5b506200046f62000b4e36600462003d93565b60116020526000908152604090205481565b34801562000b6d57600080fd5b50620009f462000b7f36600462004489565b62003041565b34801562000b9257600080fd5b506200046f62003442565b34801562000baa57600080fd5b506200097762000bbc36600462003d93565b6200347e565b34801562000bcf57600080fd5b506200046f62000be136600462003d93565b6001600160a01b03163190565b34801562000bfb57600080fd5b506200046f62000c0d36600462003d93565b60056020526000908152604090205481565b34801562000c2c57600080fd5b506200072f62000c3e366004620041c8565b62003520565b34801562000c5157600080fd5b506200043c62000c6336600462004172565b620037ca565b34801562000c7657600080fd5b506200046f62003899565b34801562000c8e57600080fd5b5062000ca662000ca036600462003d93565b620038d5565b604051620004799190620044dd565b34801562000cc257600080fd5b506200046f600b5481565b34801562000cda57600080fd5b506200097762003ae6565b34801562000cf257600080fd5b50476200046f565b34801562000d0757600080fd5b506200043c62000d1936600462003d93565b62003b31565b34801562000d2c57600080fd5b506200046f62000d3e36600462003d93565b600f6020526000908152604090205481565b6040516317e26bc960e11b815273__$1c537defa8d8abb880144579cecc12eeda$__90632fc4d7929062000d8c906021903390600401620044f2565b602060405180830381865af415801562000daa573d6000803e3d6000fd5b505050506040513d601f19601f8201168201806040525081019062000dd0919062004509565b151560011462000dfd5760405162461bcd60e51b815260040162000df49062004529565b60405180910390fd5b60405163a8afef9560e01b815273__$1c537defa8d8abb880144579cecc12eeda$__9063a8afef959062000e3990601c908590600401620044f2565b60006040518083038186803b15801562000e5257600080fd5b505af415801562000e67573d6000803e3d6000fd5b5050505050565b6040516317e26bc960e11b815273__$1c537defa8d8abb880144579cecc12eeda$__90632fc4d7929062000eaa906021903390600401620044f2565b602060405180830381865af415801562000ec8573d6000803e3d6000fd5b505050506040513d601f19601f8201168201806040525081019062000eee919062004509565b151560011462000f125760405162461bcd60e51b815260040162000df49062004529565b601a55565b604051630c3d3c7560e41b8152600c600482015260609060009073__$1c537defa8d8abb880144579cecc12eeda$__9063c3d3c75090602401602060405180830381865af415801562000f6e573d6000803e3d6000fd5b505050506040513d601f19601f8201168201806040525081019062000f94919062004554565b67ffffffffffffffff81111562000faf5762000faf620040a1565b60405190808252806020026020018201604052801562000fec57816020015b62000fd862003bd8565b81526020019060019003908162000fce5790505b50905060005b604051630c3d3c7560e41b8152600c600482015273__$1c537defa8d8abb880144579cecc12eeda$__9063c3d3c75090602401602060405180830381865af415801562001043573d6000803e3d6000fd5b505050506040513d601f19601f8201168201806040525081019062001069919062004554565b8110156200112a57604051630182c6db60e31b8152600c600482015260248101829052620010f49073__$1c537defa8d8abb880144579cecc12eeda$__90630c1636d890604401602060405180830381865af4158015620010ce573d6000803e3d6000fd5b505050506040513d601f19601f8201168201806040525081019062000ca091906200456e565b8282815181106200110957620011096200458e565b602002602001018190525080806200112190620045ba565b91505062000ff2565b50919050565b6040516317e26bc960e11b815260009073__$1c537defa8d8abb880144579cecc12eeda$__90632fc4d792906200116f90600c908690600401620044f2565b602060405180830381865af41580156200118d573d6000803e3d6000fd5b505050506040513d601f19601f82011682018060405250810190620011b3919062004509565b92915050565b6040516317e26bc960e11b815260009073__$1c537defa8d8abb880144579cecc12eeda$__90632fc4d792906200116f906021908690600401620044f2565b336000908152600560205260409020546200124d5760405162461bcd60e51b815260206004820152601460248201527321b0b636103737ba10333937b6903937baba32b960611b604482015260640162000df4565b3360009081526005602090815260408083205480845260049283905292200154620012bb5760405162461bcd60e51b815260206004820152601860248201527f5468697320636f6465206e6f74206d696e746564207965740000000000000000604482015260640162000df4565b600081815260046020526040902060050154156200131c5760405162461bcd60e51b815260206004820152601960248201527f5468697320636f646520616c726561647920636c61696d656400000000000000604482015260640162000df4565b6000818152600460208190526040909120600681015491015442916200134291620045d8565b11620013855760405162461bcd60e51b8152602060048201526011602482015270145c90dbd919481a5cc8195e1c1a5c9959607a1b604482015260640162000df4565b6000818152600460209081526040808320600101546001600160a01b038616845260169092528220805491929091620013c0908490620045d8565b90915550506001600160a01b0382166000818152601760209081526040808320805460018101825590845282842001859055928252601890529081208054916200140a83620045ba565b9091555050600880549060006200142183620045ba565b9091555050600081815260046020908152604080832060018101546002909101546001600160a01b031684526012909252822080549192909162001467908490620045d8565b9091555050600081815260046020526040812060010154600a80549192909162001493908490620045d8565b90915550506000818152600460208190526040918290206003810180546001600160a01b0319166001600160a01b038716179055436005909101559051639f75f0a360e01b815273__$1c537defa8d8abb880144579cecc12eeda$__91639f75f0a3916200150791601491879101620044f2565b60006040518083038186803b1580156200152057600080fd5b505af415801562001535573d6000803e3d6000fd5b50506001805460008581526004602081905260409182902090930154905163a9059cbb60e01b81526001600160a01b03909216945063a9059cbb935062001592928792016001600160a01b03929092168252602082015260400190565b6020604051808303816000875af1158015620015b2573d6000803e3d6000fd5b505050506040513d601f19601f82011682018060405250810190620015d8919062004509565b506003546001600160a01b03831631908110156200168d576000836001600160a01b0316316003546200160c9190620045f3565b905080600b6000828254620016229190620045d8565b90915550506001600160a01b0384166000908152601960205260408120805483929062001651908490620045d8565b90915550506040516001600160a01b0385169082156108fc029083906000818181858888f1935050505015801562000e67573d6000803e3d6000fd5b505050565b60106020528160005260406000208181548110620016af57600080fd5b90600052602060002001600091509150505481565b6001546040805163313ce56760e01b815290516000926001600160a01b03169163313ce5679160048083019260209291908290030181865afa1580156200170f573d6000803e3d6000fd5b505050506040513d601f19601f820116820180604052508101906200173591906200460d565b60ff16905090565b6000546001600160a01b031633146200176a5760405162461bcd60e51b815260040162000df49062004632565b8015620017e357604051639f75f0a360e01b815273__$1c537defa8d8abb880144579cecc12eeda$__90639f75f0a390620017ad906021908690600401620044f2565b60006040518083038186803b158015620017c657600080fd5b505af4158015620017db573d6000803e3d6000fd5b505050505050565b60405163a8afef9560e01b815273__$1c537defa8d8abb880144579cecc12eeda$__9063a8afef9590620017ad906021908690600401620044f2565b6001600160a01b0381166000908152600560205260408120541562001874576001600160a01b0382166000908152600560208181526040808420548452600490915290912001541562001874576001620011b3565b600092915050565b6040516317e26bc960e11b815273__$1c537defa8d8abb880144579cecc12eeda$__90632fc4d79290620018b8906021903390600401620044f2565b602060405180830381865af4158015620018d6573d6000803e3d6000fd5b505050506040513d601f19601f82011682018060405250810190620018fc919062004509565b1515600114620019205760405162461bcd60e51b815260040162000df49062004529565b6001600160a01b03821660009081526013602052604090205462001946908290620045d8565b6001600160a01b0390921660009081526013602052604090209190915550565b604051630c3d3c7560e41b81526014600482015260009073__$1c537defa8d8abb880144579cecc12eeda$__9063c3d3c750906024015b602060405180830381865af4158015620019bb573d6000803e3d6000fd5b505050506040513d601f19601f82011682018060405250810190620019e1919062004554565b905090565b6040516311c9af7760e11b815260146004820152602481018390526044810182905260609060009073__$1c537defa8d8abb880144579cecc12eeda$__906323935eee90606401600060405180830381865af415801562001a4b573d6000803e3d6000fd5b505050506040513d6000823e601f3d908101601f1916820160405262001a7591908101906200465a565b90506000815167ffffffffffffffff81111562001a965762001a96620040a1565b60405190808252806020026020018201604052801562001ad357816020015b62001abf62003c1e565b81526020019060019003908162001ab55790505b50905060005b825181101562001b405762001b0a83828151811062001afc5762001afc6200458e565b602002602001015162002cef565b82828151811062001b1f5762001b1f6200458e565b6020026020010181905250808062001b3790620045ba565b91505062001ad9565b50949350505050565b6040516317e26bc960e11b815273__$1c537defa8d8abb880144579cecc12eeda$__90632fc4d7929062001b85906021903390600401620044f2565b602060405180830381865af415801562001ba3573d6000803e3d6000fd5b505050506040513d601f19601f8201168201806040525081019062001bc9919062004509565b151560011462001bed5760405162461bcd60e51b815260040162000df49062004529565b604051639f75f0a360e01b815273__$1c537defa8d8abb880144579cecc12eeda$__90639f75f0a39062001c2990600c908690600401620044f2565b60006040518083038186803b15801562001c4257600080fd5b505af415801562001c57573d6000803e3d6000fd5b505050506001600160a01b0382166000908152600e6020908152604090912082516200168d9284019062003c5f565b60176020528160005260406000208181548110620016af57600080fd5b6001600160a01b038316600090815260176020526040902054606090821562001cc95750815b600062001cd78286620045d8565b6001600160a01b03871660009081526017602052604090205490915081111562001d1657506001600160a01b0385166000908152601760205260409020545b600062001d248683620045f3565b67ffffffffffffffff81111562001d3f5762001d3f620040a1565b60405190808252806020026020018201604052801562001d7c57816020015b62001d6862003cee565b81526020019060019003908162001d5e5790505b50905060005b62001d8e8784620045f3565b81101562001f4d576001600160a01b0388166000908152601760205260408120805460049291906001908b9062001dc7908790620045f3565b62001dd39190620045f3565b62001ddf9190620045f3565b8154811062001df25762001df26200458e565b6000918252602080832090910154835282810193909352604091820190208151610120810183528154815260018201549381019390935260028101546001600160a01b039081169284019290925260038101548216606084015260048101546080840152600581015460a0840152600681015460c0840152600781015490911660e08301526008810180546101008401919062001e8f9062004719565b80601f016020809104026020016040519081016040528092919081815260200182805462001ebd9062004719565b801562001f0e5780601f1062001ee25761010080835404028352916020019162001f0e565b820191906000526020600020905b81548152906001019060200180831162001ef057829003601f168201915b50505050508152505082828151811062001f2c5762001f2c6200458e565b6020026020010181905250808062001f4490620045ba565b91505062001d82565b509695505050505050565b6060600060075467ffffffffffffffff81111562001f7a5762001f7a620040a1565b60405190808252806020026020018201604052801562001fb757816020015b62001fa362003cee565b81526020019060019003908162001f995790505b50905060015b60065481116200112a576000818152600460208181526040928390208351610120810185528154815260018201549281019290925260028101546001600160a01b0390811694830194909452600381015484166060830152918201546080820152600582015460a0820152600682015460c0820152600782015490921660e083015260088101805461010084019190620020579062004719565b80601f0160208091040260200160405190810160405280929190818152602001828054620020859062004719565b8015620020d65780601f10620020aa57610100808354040283529160200191620020d6565b820191906000526020600020905b815481529060010190602001808311620020b857829003601f168201915b50505050508152505082600183620020ef9190620045f3565b815181106200210257620021026200458e565b602002602001018190525080806200211a90620045ba565b91505062001fbd565b6040516317e26bc960e11b815273__$1c537defa8d8abb880144579cecc12eeda$__90632fc4d792906200215f906021903390600401620044f2565b602060405180830381865af41580156200217d573d6000803e3d6000fd5b505050506040513d601f19601f82011682018060405250810190620021a3919062004509565b1515600114620021c75760405162461bcd60e51b815260040162000df49062004529565b6001600160a01b039091166000908152601b6020526040902055565b6040516311c9af7760e11b8152601c6004820152602481018390526044810182905260609060009073__$1c537defa8d8abb880144579cecc12eeda$__906323935eee90606401600060405180830381865af415801562002248573d6000803e3d6000fd5b505050506040513d6000823e601f3d908101601f191682016040526200227291908101906200465a565b90506000815167ffffffffffffffff811115620022935762002293620040a1565b6040519080825280602002602001820160405280156200230457816020015b620022f0604051806080016040528060006001600160a01b0316815260200160006001600160a01b0316815260200160608152602001600081525090565b815260200190600190039081620022b25790505b50905060005b825181101562001b405760405180608001604052808483815181106200233457620023346200458e565b60200260200101516001600160a01b03168152602001601e60008685815181106200236357620023636200458e565b60200260200101516001600160a01b03166001600160a01b0316815260200190815260200160002060009054906101000a90046001600160a01b03166001600160a01b03168152602001601f6000868581518110620023c657620023c66200458e565b60200260200101516001600160a01b03166001600160a01b031681526020019081526020016000208054620023fb9062004719565b80601f0160208091040260200160405190810160405280929190818152602001828054620024299062004719565b80156200247a5780601f106200244e576101008083540402835291602001916200247a565b820191906000526020600020905b8154815290600101906020018083116200245c57829003601f168201915b50505050508152602001602060008685815181106200249d576200249d6200458e565b60200260200101516001600160a01b03166001600160a01b0316815260200190815260200160002054815250828281518110620024de57620024de6200458e565b60200260200101819052508080620024f690620045ba565b9150506200230a565b6040516317e26bc960e11b815273__$1c537defa8d8abb880144579cecc12eeda$__90632fc4d792906200253b906021903390600401620044f2565b602060405180830381865af415801562002559573d6000803e3d6000fd5b505050506040513d601f19601f820116820180604052508101906200257f919062004509565b1515600114620025a35760405162461bcd60e51b815260040162000df49062004529565b6001600160a01b03909116600090815260136020526040902055565b604051630c3d3c7560e41b8152601c600482015260009073__$1c537defa8d8abb880144579cecc12eeda$__9063c3d3c750906024016200199d565b6040516317e26bc960e11b815273__$1c537defa8d8abb880144579cecc12eeda$__90632fc4d7929062002637906021903390600401620044f2565b602060405180830381865af415801562002655573d6000803e3d6000fd5b505050506040513d601f19601f820116820180604052508101906200267b919062004509565b15156001146200269f5760405162461bcd60e51b815260040162000df49062004529565b8015620026e257604051639f75f0a360e01b815273__$1c537defa8d8abb880144579cecc12eeda$__90639f75f0a390620017ad90600c908690600401620044f2565b60405163a8afef9560e01b815273__$1c537defa8d8abb880144579cecc12eeda$__9063a8afef9590620017ad90600c908690600401620044f2565b6040516311c9af7760e11b8152600c6004820152600060248201819052604482015260609073__$1c537defa8d8abb880144579cecc12eeda$__906323935eee906064015b600060405180830381865af415801562002781573d6000803e3d6000fd5b505050506040513d6000823e601f3d908101601f19168201604052620019e191908101906200465a565b6004602081905260009182526040909120805460018201546002830154600384015494840154600585015460068601546007870154600888018054979996986001600160a01b039687169897871697959694959394909216926200280f9062004719565b80601f01602080910402602001604051908101604052809291908181526020018280546200283d9062004719565b80156200288e5780601f1062002862576101008083540402835291602001916200288e565b820191906000526020600020905b8154815290600101906020018083116200287057829003601f168201915b5050505050905089565b620028a262003cee565b6000828152600460208181526040928390208351610120810185528154815260018201549281019290925260028101546001600160a01b0390811694830194909452600381015484166060830152918201546080820152600582015460a0820152600682015460c0820152600782015490921660e083015260088101805461010084019190620029329062004719565b80601f0160208091040260200160405190810160405280929190818152602001828054620029609062004719565b8015620029b15780601f106200298557610100808354040283529160200191620029b1565b820191906000526020600020905b8154815290600101906020018083116200299357829003601f168201915b5050505050815250509050919050565b6040516317e26bc960e11b815273__$1c537defa8d8abb880144579cecc12eeda$__90632fc4d79290620029fd906021903390600401620044f2565b602060405180830381865af415801562002a1b573d6000803e3d6000fd5b505050506040513d601f19601f8201168201806040525081019062002a41919062004509565b151560011462002a655760405162461bcd60e51b815260040162000df49062004529565b604051639f75f0a360e01b815273__$1c537defa8d8abb880144579cecc12eeda$__90639f75f0a39062002aa190601c908690600401620044f2565b60006040518083038186803b15801562002aba57600080fd5b505af415801562002acf573d6000803e3d6000fd5b5050506001600160a01b0383166000908152601e6020908152604080832080546001600160a01b03191633179055601f8252909120835162002b179350909184019062003c5f565b50506001600160a01b031660009081526020805260409020429055565b62002b3e62003cee565b6001600160a01b0382166000908152600560205260409020541562002bf9576001600160a01b0380831660009081526005602081815260408084205484526004808352938190208151610120810183528154815260018201549381019390935260028101548616918301919091526003810154851660608301529283015460808201529082015460a0820152600682015460c0820152600782015490921660e083015260088101805461010084019190620029329062004719565b919050565b6000546001600160a01b0316331462002c2b5760405162461bcd60e51b815260040162000df49062004632565b600355565b6001546040516370a0823160e01b81523060048201526000916001600160a01b0316906370a0823190602401602060405180830381865afa158015620019bb573d6000803e3d6000fd5b600154604080516306fdde0360e01b815290516060926001600160a01b0316916306fdde039160048083019260009291908290030181865afa15801562002cc5573d6000803e3d6000fd5b505050506040513d6000823e601f3d908101601f19168201604052620019e1919081019062004750565b62002cf962003c1e565b6040516317e26bc960e11b815273__$1c537defa8d8abb880144579cecc12eeda$__90632fc4d7929062002d35906014908690600401620044f2565b602060405180830381865af415801562002d53573d6000803e3d6000fd5b505050506040513d601f19601f8201168201806040525081019062002d79919062004509565b1562002bf9576040805160c0810182526001600160a01b0384168082526000818152601660209081528482205481850152918152601782528390208054845181840281018401865281815293948501939283018282801562002dfb57602002820191906000526020600020905b81548152602001906001019080831162002de6575b50505091835250506001600160a01b03841660008181526018602090815260408083205482860152928252601990528190205481830152516317e26bc960e11b815260609091019073__$1c537defa8d8abb880144579cecc12eeda$__90632fc4d7929062002e7290601c908890600401620044f2565b602060405180830381865af415801562002e90573d6000803e3d6000fd5b505050506040513d601f19601f8201168201806040525081019062002eb6919062004509565b1515905292915050565b6040516311c9af7760e11b815260146004820152602481018390526044810182905260609073__$1c537defa8d8abb880144579cecc12eeda$__906323935eee90606401600060405180830381865af415801562002f22573d6000803e3d6000fd5b505050506040513d6000823e601f3d908101601f1916820160405262002f4c91908101906200465a565b9392505050565b6000546001600160a01b0316331462002f805760405162461bcd60e51b815260040162000df49062004632565b600255565b6001546040516370a0823160e01b81526001600160a01b03838116600483015260009216906370a0823190602401602060405180830381865afa15801562002fd1573d6000803e3d6000fd5b505050506040513d601f19601f82011682018060405250810190620011b3919062004554565b6040516311c9af7760e11b815260216004820152600060248201819052604482015260609073__$1c537defa8d8abb880144579cecc12eeda$__906323935eee9060640162002763565b6040516317e26bc960e11b815260009073__$1c537defa8d8abb880144579cecc12eeda$__90632fc4d792906200308090600c903390600401620044f2565b602060405180830381865af41580156200309e573d6000803e3d6000fd5b505050506040513d601f19601f82011682018060405250810190620030c4919062004509565b15156001146200310a5760405162461bcd60e51b815260206004820152601060248201526f4f6e6c7920666f72206d696e7465727360801b604482015260640162000df4565b600084116200315c5760405162461bcd60e51b815260206004820152601b60248201527f416d6f756e74206d7573742062652067726561746572207a65726f0000000000604482015260640162000df4565b600083156200316c578362003170565b6002545b600154336000818152600e6020526040808220905194955090936001600160a01b0390931692899142918791908a90620031aa9062003d55565b620031bc9796959493929190620047d0565b604051809103906000f080158015620031d9573d6000803e3d6000fd5b50600680549192506000620031ee83620045ba565b91905055506040518061012001604052806006548152602001878152602001336001600160a01b0316815260200160006001600160a01b0316815260200142815260200160008152602001838152602001826001600160a01b0316815260200185815250600460006006548152602001908152602001600020600082015181600001556020820151816001015560408201518160020160006101000a8154816001600160a01b0302191690836001600160a01b0316021790555060608201518160030160006101000a8154816001600160a01b0302191690836001600160a01b031602179055506080820151816004015560a0820151816005015560c0820151816006015560e08201518160070160006101000a8154816001600160a01b0302191690836001600160a01b031602179055506101008201518160080190805190602001906200333f92919062003c5f565b50506006546001600160a01b038316600090815260056020908152604080832093909355338252600f9052908120805489935090919062003382908490620045d8565b9250508190555085600960008282546200339d9190620045d8565b909155505033600081815260106020908152604080832060065481546001810183559185528385209091015592825260119052908120805491620033e183620045ba565b909155505060078054906000620033f883620045ba565b90915550506040516001600160a01b03821681527f12a2dcd8d60f7d320a97f9b2f6bca5b67c1bb9808b27c28915c541eed450d05f9060200160405180910390a195945050505050565b604051630c3d3c7560e41b81526021600482015260009073__$1c537defa8d8abb880144579cecc12eeda$__9063c3d3c750906024016200199d565b600e6020526000908152604090208054620034999062004719565b80601f0160208091040260200160405190810160405280929190818152602001828054620034c79062004719565b8015620035185780601f10620034ec5761010080835404028352916020019162003518565b820191906000526020600020905b815481529060010190602001808311620034fa57829003601f168201915b505050505081565b6001600160a01b0383166000908152601060205260409020546060908215620035465750815b6000620035548286620045d8565b6001600160a01b0387166000908152601060205260409020549091508111156200359357506001600160a01b0385166000908152601060205260409020545b6000620035a18683620045f3565b67ffffffffffffffff811115620035bc57620035bc620040a1565b604051908082528060200260200182016040528015620035f957816020015b620035e562003cee565b815260200190600190039081620035db5790505b50905060005b6200360b8784620045f3565b81101562001f4d576001600160a01b0388166000908152601060205260408120805460049291906001908b9062003644908790620045f3565b620036509190620045f3565b6200365c9190620045f3565b815481106200366f576200366f6200458e565b6000918252602080832090910154835282810193909352604091820190208151610120810183528154815260018201549381019390935260028101546001600160a01b039081169284019290925260038101548216606084015260048101546080840152600581015460a0840152600681015460c0840152600781015490911660e0830152600881018054610100840191906200370c9062004719565b80601f01602080910402602001604051908101604052809291908181526020018280546200373a9062004719565b80156200378b5780601f106200375f576101008083540402835291602001916200378b565b820191906000526020600020905b8154815290600101906020018083116200376d57829003601f168201915b505050505081525050828281518110620037a957620037a96200458e565b60200260200101819052508080620037c190620045ba565b915050620035ff565b6040516317e26bc960e11b815273__$1c537defa8d8abb880144579cecc12eeda$__90632fc4d7929062003806906021903390600401620044f2565b602060405180830381865af415801562003824573d6000803e3d6000fd5b505050506040513d601f19601f820116820180604052508101906200384a919062004509565b15156001146200386e5760405162461bcd60e51b815260040162000df49062004529565b6001600160a01b0382166000908152600e6020908152604090912082516200168d9284019062003c5f565b604051630c3d3c7560e41b8152600c600482015260009073__$1c537defa8d8abb880144579cecc12eeda$__9063c3d3c750906024016200199d565b620038df62003bd8565b6040516317e26bc960e11b815273__$1c537defa8d8abb880144579cecc12eeda$__90632fc4d792906200391b90600c908690600401620044f2565b602060405180830381865af415801562003939573d6000803e3d6000fd5b505050506040513d601f19601f820116820180604052508101906200395f919062004509565b1562002bf9576040805160e0810182526001600160a01b0384168082526000908152600e6020908152929020805491928301916200399d9062004719565b80601f0160208091040260200160405190810160405280929190818152602001828054620039cb9062004719565b801562003a1c5780601f10620039f05761010080835404028352916020019162003a1c565b820191906000526020600020905b815481529060010190602001808311620039fe57829003601f168201915b50505091835250506001600160a01b0384166000818152600f60209081526040808320548286015283835260128252808320548186015292825260108152908290208054835181840281018401909452808452606090940193909183018282801562003aa857602002820191906000526020600020905b81548152602001906001019080831162003a93575b50505091835250506001600160a01b039093166000818152601160209081526040808320548288015292825260139052819020549301929092525090565b600154604080516395d89b4160e01b815290516060926001600160a01b0316916395d89b419160048083019260009291908290030181865afa15801562002cc5573d6000803e3d6000fd5b6000546001600160a01b0316331462003b5e5760405162461bcd60e51b815260040162000df49062004632565b6001600160a01b03811662003bb65760405162461bcd60e51b815260206004820152601a60248201527f4f776e657220616464726573732063616e74206265207a65726f000000000000604482015260640162000df4565b600080546001600160a01b0319166001600160a01b0392909216919091179055565b6040518060e0016040528060006001600160a01b031681526020016060815260200160008152602001600081526020016060815260200160008152602001600081525090565b6040518060c0016040528060006001600160a01b03168152602001600081526020016060815260200160008152602001600081526020016000151581525090565b82805462003c6d9062004719565b90600052602060002090601f01602090048101928262003c91576000855562003cdc565b82601f1062003cac57805160ff191683800117855562003cdc565b8280016001018555821562003cdc579182015b8281111562003cdc57825182559160200191906001019062003cbf565b5062003cea92915062003d63565b5090565b604051806101200160405280600081526020016000815260200160006001600160a01b0316815260200160006001600160a01b0316815260200160008152602001600081526020016000815260200160006001600160a01b03168152602001606081525090565b610a4780620048cc83390190565b5b8082111562003cea576000815560010162003d64565b6001600160a01b038116811462003d9057600080fd5b50565b60006020828403121562003da657600080fd5b813562002f4c8162003d7a565b60006020828403121562003dc657600080fd5b5035919050565b60005b8381101562003dea57818101518382015260200162003dd0565b8381111562003dfa576000848401525b50505050565b6000815180845262003e1a81602086016020860162003dcd565b601f01601f19169290920160200192915050565b600081518084526020808501945080840160005b8381101562003e605781518752958201959082019060010162003e42565b509495945050505050565b60018060a01b0381511682526000602082015160e0602085015262003e9460e085018262003e00565b905060408301516040850152606083015160608501526080830151848203608086015262003ec3828262003e2e565b91505060a083015160a085015260c083015160c08501528091505092915050565b6000602080830181845280855180835260408601915060408160051b870101925083870160005b8281101562003f3d57603f1988860301845262003f2a85835162003e6b565b9450928501929085019060010162003f0b565b5092979650505050505050565b6000806040838503121562003f5e57600080fd5b823562003f6b8162003d7a565b946020939093013593505050565b801515811462003d9057600080fd5b6000806040838503121562003f9c57600080fd5b823562003fa98162003d7a565b9150602083013562003fbb8162003f79565b809150509250929050565b6000806040838503121562003fda57600080fd5b50508035926020909101359150565b60018060a01b038151168252602081015160208301526000604082015160c060408501526200401c60c085018262003e2e565b9050606083015160608501526080830151608085015260a0830151151560a08501528091505092915050565b6000602080830181845280855180835260408601915060408160051b870101925083870160005b8281101562003f3d57603f198886030184526200408e85835162003fe9565b945092850192908501906001016200406f565b634e487b7160e01b600052604160045260246000fd5b604051601f8201601f1916810167ffffffffffffffff81118282101715620040e357620040e3620040a1565b604052919050565b600067ffffffffffffffff821115620041085762004108620040a1565b50601f01601f191660200190565b600082601f8301126200412857600080fd5b81356200413f6200413982620040eb565b620040b7565b8181528460208386010111156200415557600080fd5b816020850160208301376000918101602001919091529392505050565b600080604083850312156200418657600080fd5b8235620041938162003d7a565b9150602083013567ffffffffffffffff811115620041b057600080fd5b620041be8582860162004116565b9150509250929050565b600080600060608486031215620041de57600080fd5b8335620041eb8162003d7a565b95602085013595506040909401359392505050565b6000610120825184526020830151602085015260018060a01b03604084015116604085015260608301516200424060608601826001600160a01b03169052565b506080830151608085015260a083015160a085015260c083015160c085015260e08301516200427a60e08601826001600160a01b03169052565b50610100808401518282870152620042958387018262003e00565b9695505050505050565b6000602080830181845280855180835260408601915060408160051b870101925083870160005b8281101562003f3d57603f19888603018452620042e585835162004200565b94509285019290850190600101620042c6565b60006020808301818452808551808352604092508286019150828160051b87010184880160005b838110156200438857888303603f19018552815180516001600160a01b03908116855288820151168885015286810151608088860181905290620043668287018262003e00565b606093840151969093019590955250948701949250908601906001016200431f565b509098975050505050505050565b6020808252825182820181905260009190848201906040850190845b81811015620043d95783516001600160a01b031683529284019291840191600101620043b2565b50909695505050505050565b60006101208b83528a602084015260018060a01b03808b166040850152808a1660608501528860808501528760a08501528660c085015280861660e085015250806101008401526200443a8184018562003e00565b9c9b505050505050505050505050565b60208152600062002f4c602083018462004200565b60208152600062002f4c602083018462003e00565b60208152600062002f4c602083018462003fe9565b6000806000606084860312156200449f57600080fd5b8335925060208401359150604084013567ffffffffffffffff811115620044c557600080fd5b620044d38682870162004116565b9150509250925092565b60208152600062002f4c602083018462003e6b565b9182526001600160a01b0316602082015260400190565b6000602082840312156200451c57600080fd5b815162002f4c8162003f79565b6020808252601190820152704f6e6c7920666f72206d616e616765727360781b604082015260600190565b6000602082840312156200456757600080fd5b5051919050565b6000602082840312156200458157600080fd5b815162002f4c8162003d7a565b634e487b7160e01b600052603260045260246000fd5b634e487b7160e01b600052601160045260246000fd5b6000600019821415620045d157620045d1620045a4565b5060010190565b60008219821115620045ee57620045ee620045a4565b500190565b600082821015620046085762004608620045a4565b500390565b6000602082840312156200462057600080fd5b815160ff8116811462002f4c57600080fd5b6020808252600e908201526d27b7363c903337b91037bbb732b960911b604082015260600190565b600060208083850312156200466e57600080fd5b825167ffffffffffffffff808211156200468757600080fd5b818501915085601f8301126200469c57600080fd5b815181811115620046b157620046b1620040a1565b8060051b9150620046c4848301620040b7565b8181529183018401918481019088841115620046df57600080fd5b938501935b838510156200470d5784519250620046fc8362003d7a565b8282529385019390850190620046e4565b98975050505050505050565b600181811c908216806200472e57607f821691505b602082108114156200112a57634e487b7160e01b600052602260045260246000fd5b6000602082840312156200476357600080fd5b815167ffffffffffffffff8111156200477b57600080fd5b8201601f810184136200478d57600080fd5b80516200479e6200413982620040eb565b818152856020838501011115620047b457600080fd5b620047c782602083016020860162003dcd565b95945050505050565b6001600160a01b038881168252871660208083019190915260408201879052606082018690526080820185905260e060a083015283546000918291600181811c90828116806200482157607f831692505b8483108114156200484057634e487b7160e01b86526022600452602486fd5b60e0880183905261010088018180156200486357600181146200487557620048a2565b60ff19861682528682019750620048a2565b60008c81526020902060005b868110156200489c5781548482015290850190880162004881565b83019850505b5050505050505082810360c0840152620048bd818562003e00565b9a995050505050505050505056fe60806040523480156200001157600080fd5b5060405162000a4738038062000a478339810160408190526200003491620003e4565b60008054336001600160a01b03199182161782556002805482166001600160a01b038a81169190911790915560038890556009879055600a86905560018054909216908a16908117909155604080516306fdde0360e01b8152905191926306fdde03926004808401938290030181865afa158015620000b7573d6000803e3d6000fd5b505050506040513d6000823e601f3d908101601f19168201604052620000e1919081019062000492565b8051620000f79160049160209091019062000254565b50600160009054906101000a90046001600160a01b03166001600160a01b03166395d89b416040518163ffffffff1660e01b8152600401600060405180830381865afa1580156200014c573d6000803e3d6000fd5b505050506040513d6000823e601f3d908101601f1916820160405262000176919081019062000492565b80516200018c9160059160209091019062000254565b50600160009054906101000a90046001600160a01b03166001600160a01b031663313ce5676040518163ffffffff1660e01b8152600401602060405180830381865afa158015620001e1573d6000803e3d6000fd5b505050506040513d601f19601f82011682018060405250810190620002079190620004d2565b6006805460ff191660ff9290921691909117905581516200023090600790602085019062000254565b5080516200024690600890602084019062000254565b50505050505050506200053b565b8280546200026290620004fe565b90600052602060002090601f016020900481019282620002865760008555620002d1565b82601f10620002a157805160ff1916838001178555620002d1565b82800160010185558215620002d1579182015b82811115620002d1578251825591602001919060010190620002b4565b50620002df929150620002e3565b5090565b5b80821115620002df5760008155600101620002e4565b80516001600160a01b03811681146200031257600080fd5b919050565b634e487b7160e01b600052604160045260246000fd5b600082601f8301126200033f57600080fd5b81516001600160401b03808211156200035c576200035c62000317565b604051601f8301601f19908116603f0116810190828211818310171562000387576200038762000317565b81604052838152602092508683858801011115620003a457600080fd5b600091505b83821015620003c85785820183015181830184015290820190620003a9565b83821115620003da5760008385830101525b9695505050505050565b600080600080600080600060e0888a0312156200040057600080fd5b6200040b88620002fa565b96506200041b60208901620002fa565b604089015160608a015160808b015160a08c0151939950919750955093506001600160401b03808211156200044f57600080fd5b6200045d8b838c016200032d565b935060c08a01519150808211156200047457600080fd5b50620004838a828b016200032d565b91505092959891949750929550565b600060208284031215620004a557600080fd5b81516001600160401b03811115620004bc57600080fd5b620004ca848285016200032d565b949350505050565b600060208284031215620004e557600080fd5b815160ff81168114620004f757600080fd5b9392505050565b600181811c908216806200051357607f821691505b602082108114156200053557634e487b7160e01b600052602260045260246000fd5b50919050565b6104fc806200054b6000396000f3fe608060405234801561001057600080fd5b50600436106100ea5760003560e01c80639c6f0d851161008c578063bb5d40eb11610066578063bb5d40eb146101bd578063c45a0155146101c5578063e21f37ce146101d8578063fc0c546a146101e057600080fd5b80639c6f0d85146101a3578063aa8c217c146101ac578063b39cb699146101b557600080fd5b8063313ce567116100c8578063313ce5671461014d57806357c9ca141461016c5780637eb9385f1461018457806395d89b411461019b57600080fd5b806306fdde03146100ef578063075461721461010d5780631e83409a14610138575b600080fd5b6100f76101f3565b60405161010491906103be565b60405180910390f35b600254610120906001600160a01b031681565b6040516001600160a01b039091168152602001610104565b61014b610146366004610413565b610281565b005b60065461015a9060ff1681565b60405160ff9091168152602001610104565b610174610301565b6040519015158152602001610104565b61018d600a5481565b604051908152602001610104565b6100f7610373565b61018d60095481565b61018d60035481565b6100f7610380565b61017461038d565b600054610120906001600160a01b031681565b6100f76103b1565b600154610120906001600160a01b031681565b6004805461020090610443565b80601f016020809104026020016040519081016040528092919081815260200182805461022c90610443565b80156102795780601f1061024e57610100808354040283529160200191610279565b820191906000526020600020905b81548152906001019060200180831161025c57829003601f168201915b505050505081565b6000546001600160a01b0390811690631e83409a908316156102a357826102a5565b335b6040516001600160e01b031960e084901b1681526001600160a01b039091166004820152602401600060405180830381600087803b1580156102e657600080fd5b505af11580156102fa573d6000803e3d6000fd5b5050505050565b60008054604051632a4e455360e01b81523060048201526001600160a01b0390911690632a4e455390602401602060405180830381865afa15801561034a573d6000803e3d6000fd5b505050506040513d601f19601f8201168201806040525081019061036e919061047e565b905090565b6005805461020090610443565b6007805461020090610443565b600042600a546009546103a091906104a0565b116103ab5750600090565b50600190565b6008805461020090610443565b600060208083528351808285015260005b818110156103eb578581018301518582016040015282016103cf565b818111156103fd576000604083870101525b50601f01601f1916929092016040019392505050565b60006020828403121561042557600080fd5b81356001600160a01b038116811461043c57600080fd5b9392505050565b600181811c9082168061045757607f821691505b6020821081141561047857634e487b7160e01b600052602260045260246000fd5b50919050565b60006020828403121561049057600080fd5b8151801515811461043c57600080fd5b600082198211156104c157634e487b7160e01b600052601160045260246000fd5b50019056fea2646970667358221220b53dd0708331869cc60dacd6e02783129ae73535f5e6b355646dcca264c2252b64736f6c634300080c0033a264697066735822122073acccdc4402585dd8ed470111ad09a4ee6a28fe33749acee6738175874c470164736f6c634300080c0033",
			"opcodes": "PUSH1 0x80 PUSH1 0x40 MSTORE PUSH2 0x708 PUSH1 0x2 SSTORE PUSH7 0x2386F26FC10000 PUSH1 0x3 SSTORE PUSH1 0x0 PUSH1 0x6 SSTORE PUSH1 0x0 PUSH1 0x7 SSTORE PUSH1 0x0 PUSH1 0x8 SSTORE PUSH1 0x0 PUSH1 0x9 SSTORE PUSH1 0x0 PUSH1 0xA SSTORE PUSH1 0x0 PUSH1 0xB SSTORE PUSH6 0x5AF3107A4000 PUSH1 0x1A SSTORE CALLVALUE DUP1 ISZERO PUSH3 0x4A JUMPI PUSH1 0x0 DUP1 REVERT JUMPDEST POP PUSH1 0x40 MLOAD PUSH3 0x550C CODESIZE SUB DUP1 PUSH3 0x550C DUP4 CODECOPY DUP2 ADD PUSH1 0x40 DUP2 SWAP1 MSTORE PUSH3 0x6D SWAP2 PUSH3 0x182 JUMP JUMPDEST PUSH1 0x0 DUP1 SLOAD PUSH1 0x1 PUSH1 0x1 PUSH1 0xA0 SHL SUB NOT AND CALLER SWAP1 DUP2 OR SWAP1 SWAP2 SSTORE PUSH1 0x40 MLOAD PUSH4 0x9F75F0A3 PUSH1 0xE0 SHL DUP2 MSTORE PUSH1 0x21 PUSH1 0x4 DUP3 ADD MSTORE PUSH1 0x24 DUP2 ADD SWAP2 SWAP1 SWAP2 MSTORE PUSH20 0x0 SWAP1 PUSH4 0x9F75F0A3 SWAP1 PUSH1 0x44 ADD PUSH1 0x0 PUSH1 0x40 MLOAD DUP1 DUP4 SUB DUP2 DUP7 DUP1 EXTCODESIZE ISZERO DUP1 ISZERO PUSH3 0xD6 JUMPI PUSH1 0x0 DUP1 REVERT JUMPDEST POP GAS DELEGATECALL ISZERO DUP1 ISZERO PUSH3 0xEB JUMPI RETURNDATASIZE PUSH1 0x0 DUP1 RETURNDATACOPY RETURNDATASIZE PUSH1 0x0 REVERT JUMPDEST POP POP PUSH1 0x40 MLOAD PUSH4 0x9F75F0A3 PUSH1 0xE0 SHL DUP2 MSTORE PUSH1 0xC PUSH1 0x4 DUP3 ADD MSTORE CALLER PUSH1 0x24 DUP3 ADD MSTORE PUSH20 0x0 SWAP3 POP PUSH4 0x9F75F0A3 SWAP2 POP PUSH1 0x44 ADD PUSH1 0x0 PUSH1 0x40 MLOAD DUP1 DUP4 SUB DUP2 DUP7 DUP1 EXTCODESIZE ISZERO DUP1 ISZERO PUSH3 0x141 JUMPI PUSH1 0x0 DUP1 REVERT JUMPDEST POP GAS DELEGATECALL ISZERO DUP1 ISZERO PUSH3 0x156 JUMPI RETURNDATASIZE PUSH1 0x0 DUP1 RETURNDATACOPY RETURNDATASIZE PUSH1 0x0 REVERT JUMPDEST POP POP PUSH1 0x1 DUP1 SLOAD PUSH1 0x1 PUSH1 0x1 PUSH1 0xA0 SHL SUB NOT AND PUSH1 0x1 PUSH1 0x1 PUSH1 0xA0 SHL SUB SWAP5 SWAP1 SWAP5 AND SWAP4 SWAP1 SWAP4 OR SWAP1 SWAP3 SSTORE POP PUSH3 0x1B4 SWAP1 POP JUMP JUMPDEST PUSH1 0x0 PUSH1 0x20 DUP3 DUP5 SUB SLT ISZERO PUSH3 0x195 JUMPI PUSH1 0x0 DUP1 REVERT JUMPDEST DUP2 MLOAD PUSH1 0x1 PUSH1 0x1 PUSH1 0xA0 SHL SUB DUP2 AND DUP2 EQ PUSH3 0x1AD JUMPI PUSH1 0x0 DUP1 REVERT JUMPDEST SWAP4 SWAP3 POP POP POP JUMP JUMPDEST PUSH2 0x5348 DUP1 PUSH3 0x1C4 PUSH1 0x0 CODECOPY PUSH1 0x0 RETURN INVALID PUSH1 0x80 PUSH1 0x40 MSTORE PUSH1 0x4 CALLDATASIZE LT PUSH3 0x40A JUMPI PUSH1 0x0 CALLDATALOAD PUSH1 0xE0 SHR DUP1 PUSH4 0x76678D84 GT PUSH3 0x21B JUMPI DUP1 PUSH4 0xAD4AD7CA GT PUSH3 0x123 JUMPI DUP1 PUSH4 0xECE76435 GT PUSH3 0xAD JUMPI DUP1 PUSH4 0xF1850AF8 GT PUSH3 0x78 JUMPI DUP1 PUSH4 0xF1850AF8 EQ PUSH3 0xCCD JUMPI DUP1 PUSH4 0xF1F959A6 EQ PUSH3 0xCE5 JUMPI DUP1 PUSH4 0xF2FDE38B EQ PUSH3 0xCFA JUMPI DUP1 PUSH4 0xFBBF8CC3 EQ PUSH3 0xD1F JUMPI PUSH1 0x0 DUP1 REVERT JUMPDEST DUP1 PUSH4 0xECE76435 EQ PUSH3 0xC44 JUMPI DUP1 PUSH4 0xEED31986 EQ PUSH3 0xC69 JUMPI DUP1 PUSH4 0xF09B2203 EQ PUSH3 0xC81 JUMPI DUP1 PUSH4 0xF1294EF6 EQ PUSH3 0xCB5 JUMPI PUSH1 0x0 DUP1 REVERT JUMPDEST DUP1 PUSH4 0xD3A51FF2 GT PUSH3 0xEE JUMPI DUP1 PUSH4 0xD3A51FF2 EQ PUSH3 0xB9D JUMPI DUP1 PUSH4 0xD846CEAE EQ PUSH3 0xBC2 JUMPI DUP1 PUSH4 0xDCCB445B EQ PUSH3 0xBEE JUMPI DUP1 PUSH4 0xE43E5541 EQ PUSH3 0xC1F JUMPI PUSH1 0x0 DUP1 REVERT JUMPDEST DUP1 PUSH4 0xAD4AD7CA EQ PUSH3 0xAFE JUMPI DUP1 PUSH4 0xB862251F EQ PUSH3 0xB2F JUMPI DUP1 PUSH4 0xC6E64E53 EQ PUSH3 0xB60 JUMPI DUP1 PUSH4 0xCEEABBF6 EQ PUSH3 0xB85 JUMPI PUSH1 0x0 DUP1 REVERT JUMPDEST DUP1 PUSH4 0x9661CB0D GT PUSH3 0x1A5 JUMPI DUP1 PUSH4 0x9DB1FF16 GT PUSH3 0x170 JUMPI DUP1 PUSH4 0x9DB1FF16 EQ PUSH3 0xA84 JUMPI DUP1 PUSH4 0xA01BAD52 EQ PUSH3 0xA9C JUMPI DUP1 PUSH4 0xA50FFDA5 EQ PUSH3 0xAC1 JUMPI DUP1 PUSH4 0xA8D088BB EQ PUSH3 0xAE6 JUMPI PUSH1 0x0 DUP1 REVERT JUMPDEST DUP1 PUSH4 0x9661CB0D EQ PUSH3 0xA0D JUMPI DUP1 PUSH4 0x98ADCC97 EQ PUSH3 0xA25 JUMPI DUP1 PUSH4 0x9C281430 EQ PUSH3 0xA4A JUMPI DUP1 PUSH4 0x9D76EA58 EQ PUSH3 0xA62 JUMPI PUSH1 0x0 DUP1 REVERT JUMPDEST DUP1 PUSH4 0x862B092B GT PUSH3 0x1E6 JUMPI DUP1 PUSH4 0x862B092B EQ PUSH3 0x95F JUMPI DUP1 PUSH4 0x878D7D87 EQ PUSH3 0x986 JUMPI DUP1 PUSH4 0x892FF8BD EQ PUSH3 0x9BA JUMPI DUP1 PUSH4 0x8DA5CB5B EQ PUSH3 0x9D2 JUMPI PUSH1 0x0 DUP1 REVERT JUMPDEST DUP1 PUSH4 0x76678D84 EQ PUSH3 0x8D8 JUMPI DUP1 PUSH4 0x81B5479D EQ PUSH3 0x8FD JUMPI DUP1 PUSH4 0x81D2FD9C EQ PUSH3 0x922 JUMPI DUP1 PUSH4 0x82B2E257 EQ PUSH3 0x947 JUMPI PUSH1 0x0 DUP1 REVERT JUMPDEST DUP1 PUSH4 0x4078EEB2 GT PUSH3 0x31F JUMPI DUP1 PUSH4 0x5A2F7133 GT PUSH3 0x2A9 JUMPI DUP1 PUSH4 0x6B32810B GT PUSH3 0x274 JUMPI DUP1 PUSH4 0x6B32810B EQ PUSH3 0x829 JUMPI DUP1 PUSH4 0x6CA80026 EQ PUSH3 0x850 JUMPI DUP1 PUSH4 0x6F7AB8D1 EQ PUSH3 0x88C JUMPI DUP1 PUSH4 0x6F865E6F EQ PUSH3 0x8C0 JUMPI PUSH1 0x0 DUP1 REVERT JUMPDEST DUP1 PUSH4 0x5A2F7133 EQ PUSH3 0x793 JUMPI DUP1 PUSH4 0x66059A16 EQ PUSH3 0x7C7 JUMPI DUP1 PUSH4 0x66800995 EQ PUSH3 0x7EC JUMPI DUP1 PUSH4 0x66EB399F EQ PUSH3 0x804 JUMPI PUSH1 0x0 DUP1 REVERT JUMPDEST DUP1 PUSH4 0x4F513277 GT PUSH3 0x2EA JUMPI DUP1 PUSH4 0x4F513277 EQ PUSH3 0x70A JUMPI DUP1 PUSH4 0x563D3CA3 EQ PUSH3 0x73E JUMPI DUP1 PUSH4 0x572D4721 EQ PUSH3 0x756 JUMPI DUP1 PUSH4 0x59D1BD80 EQ PUSH3 0x76E JUMPI PUSH1 0x0 DUP1 REVERT JUMPDEST DUP1 PUSH4 0x4078EEB2 EQ PUSH3 0x674 JUMPI DUP1 PUSH4 0x41BE8B94 EQ PUSH3 0x68C JUMPI DUP1 PUSH4 0x424F3C8E EQ PUSH3 0x6C0 JUMPI DUP1 PUSH4 0x44E2AD99 EQ PUSH3 0x6E5 JUMPI PUSH1 0x0 DUP1 REVERT JUMPDEST DUP1 PUSH4 0x1E83409A GT PUSH3 0x3A1 JUMPI DUP1 PUSH4 0x2A4E4553 GT PUSH3 0x36C JUMPI DUP1 PUSH4 0x2A4E4553 EQ PUSH3 0x5C8 JUMPI DUP1 PUSH4 0x2E42ADD7 EQ PUSH3 0x5ED JUMPI DUP1 PUSH4 0x384E491D EQ PUSH3 0x61E JUMPI DUP1 PUSH4 0x3E70703E EQ PUSH3 0x643 JUMPI PUSH1 0x0 DUP1 REVERT JUMPDEST DUP1 PUSH4 0x1E83409A EQ PUSH3 0x541 JUMPI DUP1 PUSH4 0x206855D0 EQ PUSH3 0x566 JUMPI DUP1 PUSH4 0x24F65EE7 EQ PUSH3 0x58B JUMPI DUP1 PUSH4 0x26767F90 EQ PUSH3 0x5A3 JUMPI PUSH1 0x0 DUP1 REVERT JUMPDEST DUP1 PUSH4 0x143F338C GT PUSH3 0x3E2 JUMPI DUP1 PUSH4 0x143F338C EQ PUSH3 0x4A7 JUMPI DUP1 PUSH4 0x1654D42C EQ PUSH3 0x4CE JUMPI DUP1 PUSH4 0x17FC30D4 EQ PUSH3 0x4E6 JUMPI DUP1 PUSH4 0x198E14F8 EQ PUSH3 0x51C JUMPI PUSH1 0x0 DUP1 REVERT JUMPDEST DUP1 PUSH3 0x75C377 EQ PUSH3 0x417 JUMPI DUP1 PUSH4 0x4E86903 EQ PUSH3 0x43E JUMPI DUP1 PUSH4 0x4F32A1D EQ PUSH3 0x482 JUMPI PUSH1 0x0 DUP1 REVERT JUMPDEST CALLDATASIZE PUSH3 0x412 JUMPI STOP JUMPDEST PUSH1 0x0 DUP1 REVERT JUMPDEST CALLVALUE DUP1 ISZERO PUSH3 0x424 JUMPI PUSH1 0x0 DUP1 REVERT JUMPDEST POP PUSH3 0x43C PUSH3 0x436 CALLDATASIZE PUSH1 0x4 PUSH3 0x3D93 JUMP JUMPDEST PUSH3 0xD50 JUMP JUMPDEST STOP JUMPDEST CALLVALUE DUP1 ISZERO PUSH3 0x44B JUMPI PUSH1 0x0 DUP1 REVERT JUMPDEST POP PUSH3 0x46F PUSH3 0x45D CALLDATASIZE PUSH1 0x4 PUSH3 0x3D93 JUMP JUMPDEST PUSH1 0x16 PUSH1 0x20 MSTORE PUSH1 0x0 SWAP1 DUP2 MSTORE PUSH1 0x40 SWAP1 KECCAK256 SLOAD DUP2 JUMP JUMPDEST PUSH1 0x40 MLOAD SWAP1 DUP2 MSTORE PUSH1 0x20 ADD JUMPDEST PUSH1 0x40 MLOAD DUP1 SWAP2 SUB SWAP1 RETURN JUMPDEST CALLVALUE DUP1 ISZERO PUSH3 0x48F JUMPI PUSH1 0x0 DUP1 REVERT JUMPDEST POP PUSH3 0x43C PUSH3 0x4A1 CALLDATASIZE PUSH1 0x4 PUSH3 0x3DB3 JUMP JUMPDEST PUSH3 0xE6E JUMP JUMPDEST CALLVALUE DUP1 ISZERO PUSH3 0x4B4 JUMPI PUSH1 0x0 DUP1 REVERT JUMPDEST POP PUSH3 0x4BF PUSH3 0xF17 JUMP JUMPDEST PUSH1 0x40 MLOAD PUSH3 0x479 SWAP2 SWAP1 PUSH3 0x3EE4 JUMP JUMPDEST CALLVALUE DUP1 ISZERO PUSH3 0x4DB JUMPI PUSH1 0x0 DUP1 REVERT JUMPDEST POP PUSH3 0x46F PUSH1 0x7 SLOAD DUP2 JUMP JUMPDEST CALLVALUE DUP1 ISZERO PUSH3 0x4F3 JUMPI PUSH1 0x0 DUP1 REVERT JUMPDEST POP PUSH3 0x50B PUSH3 0x505 CALLDATASIZE PUSH1 0x4 PUSH3 0x3D93 JUMP JUMPDEST PUSH3 0x1130 JUMP JUMPDEST PUSH1 0x40 MLOAD SWAP1 ISZERO ISZERO DUP2 MSTORE PUSH1 0x20 ADD PUSH3 0x479 JUMP JUMPDEST CALLVALUE DUP1 ISZERO PUSH3 0x529 JUMPI PUSH1 0x0 DUP1 REVERT JUMPDEST POP PUSH3 0x50B PUSH3 0x53B CALLDATASIZE PUSH1 0x4 PUSH3 0x3D93 JUMP JUMPDEST PUSH3 0x11B9 JUMP JUMPDEST CALLVALUE DUP1 ISZERO PUSH3 0x54E JUMPI PUSH1 0x0 DUP1 REVERT JUMPDEST POP PUSH3 0x43C PUSH3 0x560 CALLDATASIZE PUSH1 0x4 PUSH3 0x3D93 JUMP JUMPDEST PUSH3 0x11F8 JUMP JUMPDEST CALLVALUE DUP1 ISZERO PUSH3 0x573 JUMPI PUSH1 0x0 DUP1 REVERT JUMPDEST POP PUSH3 0x46F PUSH3 0x585 CALLDATASIZE PUSH1 0x4 PUSH3 0x3F4A JUMP JUMPDEST PUSH3 0x1692 JUMP JUMPDEST CALLVALUE DUP1 ISZERO PUSH3 0x598 JUMPI PUSH1 0x0 DUP1 REVERT JUMPDEST POP PUSH3 0x46F PUSH3 0x16C4 JUMP JUMPDEST CALLVALUE DUP1 ISZERO PUSH3 0x5B0 JUMPI PUSH1 0x0 DUP1 REVERT JUMPDEST POP PUSH3 0x43C PUSH3 0x5C2 CALLDATASIZE PUSH1 0x4 PUSH3 0x3F88 JUMP JUMPDEST PUSH3 0x173D JUMP JUMPDEST CALLVALUE DUP1 ISZERO PUSH3 0x5D5 JUMPI PUSH1 0x0 DUP1 REVERT JUMPDEST POP PUSH3 0x50B PUSH3 0x5E7 CALLDATASIZE PUSH1 0x4 PUSH3 0x3D93 JUMP JUMPDEST PUSH3 0x181F JUMP JUMPDEST CALLVALUE DUP1 ISZERO PUSH3 0x5FA JUMPI PUSH1 0x0 DUP1 REVERT JUMPDEST POP PUSH3 0x46F PUSH3 0x60C CALLDATASIZE PUSH1 0x4 PUSH3 0x3D93 JUMP JUMPDEST PUSH1 0x19 PUSH1 0x20 MSTORE PUSH1 0x0 SWAP1 DUP2 MSTORE PUSH1 0x40 SWAP1 KECCAK256 SLOAD DUP2 JUMP JUMPDEST CALLVALUE DUP1 ISZERO PUSH3 0x62B JUMPI PUSH1 0x0 DUP1 REVERT JUMPDEST POP PUSH3 0x43C PUSH3 0x63D CALLDATASIZE PUSH1 0x4 PUSH3 0x3F4A JUMP JUMPDEST PUSH3 0x187C JUMP JUMPDEST CALLVALUE DUP1 ISZERO PUSH3 0x650 JUMPI PUSH1 0x0 DUP1 REVERT JUMPDEST POP PUSH3 0x46F PUSH3 0x662 CALLDATASIZE PUSH1 0x4 PUSH3 0x3D93 JUMP JUMPDEST PUSH1 0x12 PUSH1 0x20 MSTORE PUSH1 0x0 SWAP1 DUP2 MSTORE PUSH1 0x40 SWAP1 KECCAK256 SLOAD DUP2 JUMP JUMPDEST CALLVALUE DUP1 ISZERO PUSH3 0x681 JUMPI PUSH1 0x0 DUP1 REVERT JUMPDEST POP PUSH3 0x46F PUSH3 0x1966 JUMP JUMPDEST CALLVALUE DUP1 ISZERO PUSH3 0x699 JUMPI PUSH1 0x0 DUP1 REVERT JUMPDEST POP PUSH3 0x6B1 PUSH3 0x6AB CALLDATASIZE PUSH1 0x4 PUSH3 0x3FC6 JUMP JUMPDEST PUSH3 0x19E6 JUMP JUMPDEST PUSH1 0x40 MLOAD PUSH3 0x479 SWAP2 SWAP1 PUSH3 0x4048 JUMP JUMPDEST CALLVALUE DUP1 ISZERO PUSH3 0x6CD JUMPI PUSH1 0x0 DUP1 REVERT JUMPDEST POP PUSH3 0x43C PUSH3 0x6DF CALLDATASIZE PUSH1 0x4 PUSH3 0x4172 JUMP JUMPDEST PUSH3 0x1B49 JUMP JUMPDEST CALLVALUE DUP1 ISZERO PUSH3 0x6F2 JUMPI PUSH1 0x0 DUP1 REVERT JUMPDEST POP PUSH3 0x46F PUSH3 0x704 CALLDATASIZE PUSH1 0x4 PUSH3 0x3F4A JUMP JUMPDEST PUSH3 0x1C86 JUMP JUMPDEST CALLVALUE DUP1 ISZERO PUSH3 0x717 JUMPI PUSH1 0x0 DUP1 REVERT JUMPDEST POP PUSH3 0x72F PUSH3 0x729 CALLDATASIZE PUSH1 0x4 PUSH3 0x41C8 JUMP JUMPDEST PUSH3 0x1CA3 JUMP JUMPDEST PUSH1 0x40 MLOAD PUSH3 0x479 SWAP2 SWAP1 PUSH3 0x429F JUMP JUMPDEST CALLVALUE DUP1 ISZERO PUSH3 0x74B JUMPI PUSH1 0x0 DUP1 REVERT JUMPDEST POP PUSH3 0x46F PUSH1 0x2 SLOAD DUP2 JUMP JUMPDEST CALLVALUE DUP1 ISZERO PUSH3 0x763 JUMPI PUSH1 0x0 DUP1 REVERT JUMPDEST POP PUSH3 0x72F PUSH3 0x1F58 JUMP JUMPDEST CALLVALUE DUP1 ISZERO PUSH3 0x77B JUMPI PUSH1 0x0 DUP1 REVERT JUMPDEST POP PUSH3 0x43C PUSH3 0x78D CALLDATASIZE PUSH1 0x4 PUSH3 0x3F4A JUMP JUMPDEST PUSH3 0x2123 JUMP JUMPDEST CALLVALUE DUP1 ISZERO PUSH3 0x7A0 JUMPI PUSH1 0x0 DUP1 REVERT JUMPDEST POP PUSH3 0x7B8 PUSH3 0x7B2 CALLDATASIZE PUSH1 0x4 PUSH3 0x3FC6 JUMP JUMPDEST PUSH3 0x21E3 JUMP JUMPDEST PUSH1 0x40 MLOAD PUSH3 0x479 SWAP2 SWAP1 PUSH3 0x42F8 JUMP JUMPDEST CALLVALUE DUP1 ISZERO PUSH3 0x7D4 JUMPI PUSH1 0x0 DUP1 REVERT JUMPDEST POP PUSH3 0x43C PUSH3 0x7E6 CALLDATASIZE PUSH1 0x4 PUSH3 0x3F4A JUMP JUMPDEST PUSH3 0x24FF JUMP JUMPDEST CALLVALUE DUP1 ISZERO PUSH3 0x7F9 JUMPI PUSH1 0x0 DUP1 REVERT JUMPDEST POP PUSH3 0x46F PUSH3 0x25BF JUMP JUMPDEST CALLVALUE DUP1 ISZERO PUSH3 0x811 JUMPI PUSH1 0x0 DUP1 REVERT JUMPDEST POP PUSH3 0x43C PUSH3 0x823 CALLDATASIZE PUSH1 0x4 PUSH3 0x3F88 JUMP JUMPDEST PUSH3 0x25FB JUMP JUMPDEST CALLVALUE DUP1 ISZERO PUSH3 0x836 JUMPI PUSH1 0x0 DUP1 REVERT JUMPDEST POP PUSH3 0x841 PUSH3 0x271E JUMP JUMPDEST PUSH1 0x40 MLOAD PUSH3 0x479 SWAP2 SWAP1 PUSH3 0x4396 JUMP JUMPDEST CALLVALUE DUP1 ISZERO PUSH3 0x85D JUMPI PUSH1 0x0 DUP1 REVERT JUMPDEST POP PUSH3 0x875 PUSH3 0x86F CALLDATASIZE PUSH1 0x4 PUSH3 0x3DB3 JUMP JUMPDEST PUSH3 0x27AB JUMP JUMPDEST PUSH1 0x40 MLOAD PUSH3 0x479 SWAP10 SWAP9 SWAP8 SWAP7 SWAP6 SWAP5 SWAP4 SWAP3 SWAP2 SWAP1 PUSH3 0x43E5 JUMP JUMPDEST CALLVALUE DUP1 ISZERO PUSH3 0x899 JUMPI PUSH1 0x0 DUP1 REVERT JUMPDEST POP PUSH3 0x8B1 PUSH3 0x8AB CALLDATASIZE PUSH1 0x4 PUSH3 0x3DB3 JUMP JUMPDEST PUSH3 0x2898 JUMP JUMPDEST PUSH1 0x40 MLOAD PUSH3 0x479 SWAP2 SWAP1 PUSH3 0x444A JUMP JUMPDEST CALLVALUE DUP1 ISZERO PUSH3 0x8CD JUMPI PUSH1 0x0 DUP1 REVERT JUMPDEST POP PUSH3 0x46F PUSH1 0x9 SLOAD DUP2 JUMP JUMPDEST CALLVALUE DUP1 ISZERO PUSH3 0x8E5 JUMPI PUSH1 0x0 DUP1 REVERT JUMPDEST POP PUSH3 0x43C PUSH3 0x8F7 CALLDATASIZE PUSH1 0x4 PUSH3 0x4172 JUMP JUMPDEST PUSH3 0x29C1 JUMP JUMPDEST CALLVALUE DUP1 ISZERO PUSH3 0x90A JUMPI PUSH1 0x0 DUP1 REVERT JUMPDEST POP PUSH3 0x8B1 PUSH3 0x91C CALLDATASIZE PUSH1 0x4 PUSH3 0x3D93 JUMP JUMPDEST PUSH3 0x2B34 JUMP JUMPDEST CALLVALUE DUP1 ISZERO PUSH3 0x92F JUMPI PUSH1 0x0 DUP1 REVERT JUMPDEST POP PUSH3 0x43C PUSH3 0x941 CALLDATASIZE PUSH1 0x4 PUSH3 0x3DB3 JUMP JUMPDEST PUSH3 0x2BFE JUMP JUMPDEST CALLVALUE DUP1 ISZERO PUSH3 0x954 JUMPI PUSH1 0x0 DUP1 REVERT JUMPDEST POP PUSH3 0x46F PUSH3 0x2C30 JUMP JUMPDEST CALLVALUE DUP1 ISZERO PUSH3 0x96C JUMPI PUSH1 0x0 DUP1 REVERT JUMPDEST POP PUSH3 0x977 PUSH3 0x2C7A JUMP JUMPDEST PUSH1 0x40 MLOAD PUSH3 0x479 SWAP2 SWAP1 PUSH3 0x445F JUMP JUMPDEST CALLVALUE DUP1 ISZERO PUSH3 0x993 JUMPI PUSH1 0x0 DUP1 REVERT JUMPDEST POP PUSH3 0x9AB PUSH3 0x9A5 CALLDATASIZE PUSH1 0x4 PUSH3 0x3D93 JUMP JUMPDEST PUSH3 0x2CEF JUMP JUMPDEST PUSH1 0x40 MLOAD PUSH3 0x479 SWAP2 SWAP1 PUSH3 0x4474 JUMP JUMPDEST CALLVALUE DUP1 ISZERO PUSH3 0x9C7 JUMPI PUSH1 0x0 DUP1 REVERT JUMPDEST POP PUSH3 0x46F PUSH1 0x1A SLOAD DUP2 JUMP JUMPDEST CALLVALUE DUP1 ISZERO PUSH3 0x9DF JUMPI PUSH1 0x0 DUP1 REVERT JUMPDEST POP PUSH1 0x0 SLOAD PUSH3 0x9F4 SWAP1 PUSH1 0x1 PUSH1 0x1 PUSH1 0xA0 SHL SUB AND DUP2 JUMP JUMPDEST PUSH1 0x40 MLOAD PUSH1 0x1 PUSH1 0x1 PUSH1 0xA0 SHL SUB SWAP1 SWAP2 AND DUP2 MSTORE PUSH1 0x20 ADD PUSH3 0x479 JUMP JUMPDEST CALLVALUE DUP1 ISZERO PUSH3 0xA1A JUMPI PUSH1 0x0 DUP1 REVERT JUMPDEST POP PUSH3 0x46F PUSH1 0xA SLOAD DUP2 JUMP JUMPDEST CALLVALUE DUP1 ISZERO PUSH3 0xA32 JUMPI PUSH1 0x0 DUP1 REVERT JUMPDEST POP PUSH3 0x841 PUSH3 0xA44 CALLDATASIZE PUSH1 0x4 PUSH3 0x3FC6 JUMP JUMPDEST PUSH3 0x2EC0 JUMP JUMPDEST CALLVALUE DUP1 ISZERO PUSH3 0xA57 JUMPI PUSH1 0x0 DUP1 REVERT JUMPDEST POP PUSH3 0x46F PUSH1 0x3 SLOAD DUP2 JUMP JUMPDEST CALLVALUE DUP1 ISZERO PUSH3 0xA6F JUMPI PUSH1 0x0 DUP1 REVERT JUMPDEST POP PUSH1 0x1 SLOAD PUSH3 0x9F4 SWAP1 PUSH1 0x1 PUSH1 0x1 PUSH1 0xA0 SHL SUB AND DUP2 JUMP JUMPDEST CALLVALUE DUP1 ISZERO PUSH3 0xA91 JUMPI PUSH1 0x0 DUP1 REVERT JUMPDEST POP PUSH3 0x46F PUSH1 0x8 SLOAD DUP2 JUMP JUMPDEST CALLVALUE DUP1 ISZERO PUSH3 0xAA9 JUMPI PUSH1 0x0 DUP1 REVERT JUMPDEST POP PUSH3 0x43C PUSH3 0xABB CALLDATASIZE PUSH1 0x4 PUSH3 0x3DB3 JUMP JUMPDEST PUSH3 0x2F53 JUMP JUMPDEST CALLVALUE DUP1 ISZERO PUSH3 0xACE JUMPI PUSH1 0x0 DUP1 REVERT JUMPDEST POP PUSH3 0x46F PUSH3 0xAE0 CALLDATASIZE PUSH1 0x4 PUSH3 0x3D93 JUMP JUMPDEST PUSH3 0x2F85 JUMP JUMPDEST CALLVALUE DUP1 ISZERO PUSH3 0xAF3 JUMPI PUSH1 0x0 DUP1 REVERT JUMPDEST POP PUSH3 0x841 PUSH3 0x2FF7 JUMP JUMPDEST CALLVALUE DUP1 ISZERO PUSH3 0xB0B JUMPI PUSH1 0x0 DUP1 REVERT JUMPDEST POP PUSH3 0x46F PUSH3 0xB1D CALLDATASIZE PUSH1 0x4 PUSH3 0x3D93 JUMP JUMPDEST PUSH1 0x18 PUSH1 0x20 MSTORE PUSH1 0x0 SWAP1 DUP2 MSTORE PUSH1 0x40 SWAP1 KECCAK256 SLOAD DUP2 JUMP JUMPDEST CALLVALUE DUP1 ISZERO PUSH3 0xB3C JUMPI PUSH1 0x0 DUP1 REVERT JUMPDEST POP PUSH3 0x46F PUSH3 0xB4E CALLDATASIZE PUSH1 0x4 PUSH3 0x3D93 JUMP JUMPDEST PUSH1 0x11 PUSH1 0x20 MSTORE PUSH1 0x0 SWAP1 DUP2 MSTORE PUSH1 0x40 SWAP1 KECCAK256 SLOAD DUP2 JUMP JUMPDEST CALLVALUE DUP1 ISZERO PUSH3 0xB6D JUMPI PUSH1 0x0 DUP1 REVERT JUMPDEST POP PUSH3 0x9F4 PUSH3 0xB7F CALLDATASIZE PUSH1 0x4 PUSH3 0x4489 JUMP JUMPDEST PUSH3 0x3041 JUMP JUMPDEST CALLVALUE DUP1 ISZERO PUSH3 0xB92 JUMPI PUSH1 0x0 DUP1 REVERT JUMPDEST POP PUSH3 0x46F PUSH3 0x3442 JUMP JUMPDEST CALLVALUE DUP1 ISZERO PUSH3 0xBAA JUMPI PUSH1 0x0 DUP1 REVERT JUMPDEST POP PUSH3 0x977 PUSH3 0xBBC CALLDATASIZE PUSH1 0x4 PUSH3 0x3D93 JUMP JUMPDEST PUSH3 0x347E JUMP JUMPDEST CALLVALUE DUP1 ISZERO PUSH3 0xBCF JUMPI PUSH1 0x0 DUP1 REVERT JUMPDEST POP PUSH3 0x46F PUSH3 0xBE1 CALLDATASIZE PUSH1 0x4 PUSH3 0x3D93 JUMP JUMPDEST PUSH1 0x1 PUSH1 0x1 PUSH1 0xA0 SHL SUB AND BALANCE SWAP1 JUMP JUMPDEST CALLVALUE DUP1 ISZERO PUSH3 0xBFB JUMPI PUSH1 0x0 DUP1 REVERT JUMPDEST POP PUSH3 0x46F PUSH3 0xC0D CALLDATASIZE PUSH1 0x4 PUSH3 0x3D93 JUMP JUMPDEST PUSH1 0x5 PUSH1 0x20 MSTORE PUSH1 0x0 SWAP1 DUP2 MSTORE PUSH1 0x40 SWAP1 KECCAK256 SLOAD DUP2 JUMP JUMPDEST CALLVALUE DUP1 ISZERO PUSH3 0xC2C JUMPI PUSH1 0x0 DUP1 REVERT JUMPDEST POP PUSH3 0x72F PUSH3 0xC3E CALLDATASIZE PUSH1 0x4 PUSH3 0x41C8 JUMP JUMPDEST PUSH3 0x3520 JUMP JUMPDEST CALLVALUE DUP1 ISZERO PUSH3 0xC51 JUMPI PUSH1 0x0 DUP1 REVERT JUMPDEST POP PUSH3 0x43C PUSH3 0xC63 CALLDATASIZE PUSH1 0x4 PUSH3 0x4172 JUMP JUMPDEST PUSH3 0x37CA JUMP JUMPDEST CALLVALUE DUP1 ISZERO PUSH3 0xC76 JUMPI PUSH1 0x0 DUP1 REVERT JUMPDEST POP PUSH3 0x46F PUSH3 0x3899 JUMP JUMPDEST CALLVALUE DUP1 ISZERO PUSH3 0xC8E JUMPI PUSH1 0x0 DUP1 REVERT JUMPDEST POP PUSH3 0xCA6 PUSH3 0xCA0 CALLDATASIZE PUSH1 0x4 PUSH3 0x3D93 JUMP JUMPDEST PUSH3 0x38D5 JUMP JUMPDEST PUSH1 0x40 MLOAD PUSH3 0x479 SWAP2 SWAP1 PUSH3 0x44DD JUMP JUMPDEST CALLVALUE DUP1 ISZERO PUSH3 0xCC2 JUMPI PUSH1 0x0 DUP1 REVERT JUMPDEST POP PUSH3 0x46F PUSH1 0xB SLOAD DUP2 JUMP JUMPDEST CALLVALUE DUP1 ISZERO PUSH3 0xCDA JUMPI PUSH1 0x0 DUP1 REVERT JUMPDEST POP PUSH3 0x977 PUSH3 0x3AE6 JUMP JUMPDEST CALLVALUE DUP1 ISZERO PUSH3 0xCF2 JUMPI PUSH1 0x0 DUP1 REVERT JUMPDEST POP SELFBALANCE PUSH3 0x46F JUMP JUMPDEST CALLVALUE DUP1 ISZERO PUSH3 0xD07 JUMPI PUSH1 0x0 DUP1 REVERT JUMPDEST POP PUSH3 0x43C PUSH3 0xD19 CALLDATASIZE PUSH1 0x4 PUSH3 0x3D93 JUMP JUMPDEST PUSH3 0x3B31 JUMP JUMPDEST CALLVALUE DUP1 ISZERO PUSH3 0xD2C JUMPI PUSH1 0x0 DUP1 REVERT JUMPDEST POP PUSH3 0x46F PUSH3 0xD3E CALLDATASIZE PUSH1 0x4 PUSH3 0x3D93 JUMP JUMPDEST PUSH1 0xF PUSH1 0x20 MSTORE PUSH1 0x0 SWAP1 DUP2 MSTORE PUSH1 0x40 SWAP1 KECCAK256 SLOAD DUP2 JUMP JUMPDEST PUSH1 0x40 MLOAD PUSH4 0x17E26BC9 PUSH1 0xE1 SHL DUP2 MSTORE PUSH20 0x0 SWAP1 PUSH4 0x2FC4D792 SWAP1 PUSH3 0xD8C SWAP1 PUSH1 0x21 SWAP1 CALLER SWAP1 PUSH1 0x4 ADD PUSH3 0x44F2 JUMP JUMPDEST PUSH1 0x20 PUSH1 0x40 MLOAD DUP1 DUP4 SUB DUP2 DUP7 GAS DELEGATECALL ISZERO DUP1 ISZERO PUSH3 0xDAA JUMPI RETURNDATASIZE PUSH1 0x0 DUP1 RETURNDATACOPY RETURNDATASIZE PUSH1 0x0 REVERT JUMPDEST POP POP POP POP PUSH1 0x40 MLOAD RETURNDATASIZE PUSH1 0x1F NOT PUSH1 0x1F DUP3 ADD AND DUP3 ADD DUP1 PUSH1 0x40 MSTORE POP DUP2 ADD SWAP1 PUSH3 0xDD0 SWAP2 SWAP1 PUSH3 0x4509 JUMP JUMPDEST ISZERO ISZERO PUSH1 0x1 EQ PUSH3 0xDFD JUMPI PUSH1 0x40 MLOAD PUSH3 0x461BCD PUSH1 0xE5 SHL DUP2 MSTORE PUSH1 0x4 ADD PUSH3 0xDF4 SWAP1 PUSH3 0x4529 JUMP JUMPDEST PUSH1 0x40 MLOAD DUP1 SWAP2 SUB SWAP1 REVERT JUMPDEST PUSH1 0x40 MLOAD PUSH4 0xA8AFEF95 PUSH1 0xE0 SHL DUP2 MSTORE PUSH20 0x0 SWAP1 PUSH4 0xA8AFEF95 SWAP1 PUSH3 0xE39 SWAP1 PUSH1 0x1C SWAP1 DUP6 SWAP1 PUSH1 0x4 ADD PUSH3 0x44F2 JUMP JUMPDEST PUSH1 0x0 PUSH1 0x40 MLOAD DUP1 DUP4 SUB DUP2 DUP7 DUP1 EXTCODESIZE ISZERO DUP1 ISZERO PUSH3 0xE52 JUMPI PUSH1 0x0 DUP1 REVERT JUMPDEST POP GAS DELEGATECALL ISZERO DUP1 ISZERO PUSH3 0xE67 JUMPI RETURNDATASIZE PUSH1 0x0 DUP1 RETURNDATACOPY RETURNDATASIZE PUSH1 0x0 REVERT JUMPDEST POP POP POP POP POP JUMP JUMPDEST PUSH1 0x40 MLOAD PUSH4 0x17E26BC9 PUSH1 0xE1 SHL DUP2 MSTORE PUSH20 0x0 SWAP1 PUSH4 0x2FC4D792 SWAP1 PUSH3 0xEAA SWAP1 PUSH1 0x21 SWAP1 CALLER SWAP1 PUSH1 0x4 ADD PUSH3 0x44F2 JUMP JUMPDEST PUSH1 0x20 PUSH1 0x40 MLOAD DUP1 DUP4 SUB DUP2 DUP7 GAS DELEGATECALL ISZERO DUP1 ISZERO PUSH3 0xEC8 JUMPI RETURNDATASIZE PUSH1 0x0 DUP1 RETURNDATACOPY RETURNDATASIZE PUSH1 0x0 REVERT JUMPDEST POP POP POP POP PUSH1 0x40 MLOAD RETURNDATASIZE PUSH1 0x1F NOT PUSH1 0x1F DUP3 ADD AND DUP3 ADD DUP1 PUSH1 0x40 MSTORE POP DUP2 ADD SWAP1 PUSH3 0xEEE SWAP2 SWAP1 PUSH3 0x4509 JUMP JUMPDEST ISZERO ISZERO PUSH1 0x1 EQ PUSH3 0xF12 JUMPI PUSH1 0x40 MLOAD PUSH3 0x461BCD PUSH1 0xE5 SHL DUP2 MSTORE PUSH1 0x4 ADD PUSH3 0xDF4 SWAP1 PUSH3 0x4529 JUMP JUMPDEST PUSH1 0x1A SSTORE JUMP JUMPDEST PUSH1 0x40 MLOAD PUSH4 0xC3D3C75 PUSH1 0xE4 SHL DUP2 MSTORE PUSH1 0xC PUSH1 0x4 DUP3 ADD MSTORE PUSH1 0x60 SWAP1 PUSH1 0x0 SWAP1 PUSH20 0x0 SWAP1 PUSH4 0xC3D3C750 SWAP1 PUSH1 0x24 ADD PUSH1 0x20 PUSH1 0x40 MLOAD DUP1 DUP4 SUB DUP2 DUP7 GAS DELEGATECALL ISZERO DUP1 ISZERO PUSH3 0xF6E JUMPI RETURNDATASIZE PUSH1 0x0 DUP1 RETURNDATACOPY RETURNDATASIZE PUSH1 0x0 REVERT JUMPDEST POP POP POP POP PUSH1 0x40 MLOAD RETURNDATASIZE PUSH1 0x1F NOT PUSH1 0x1F DUP3 ADD AND DUP3 ADD DUP1 PUSH1 0x40 MSTORE POP DUP2 ADD SWAP1 PUSH3 0xF94 SWAP2 SWAP1 PUSH3 0x4554 JUMP JUMPDEST PUSH8 0xFFFFFFFFFFFFFFFF DUP2 GT ISZERO PUSH3 0xFAF JUMPI PUSH3 0xFAF PUSH3 0x40A1 JUMP JUMPDEST PUSH1 0x40 MLOAD SWAP1 DUP1 DUP3 MSTORE DUP1 PUSH1 0x20 MUL PUSH1 0x20 ADD DUP3 ADD PUSH1 0x40 MSTORE DUP1 ISZERO PUSH3 0xFEC JUMPI DUP2 PUSH1 0x20 ADD JUMPDEST PUSH3 0xFD8 PUSH3 0x3BD8 JUMP JUMPDEST DUP2 MSTORE PUSH1 0x20 ADD SWAP1 PUSH1 0x1 SWAP1 SUB SWAP1 DUP2 PUSH3 0xFCE JUMPI SWAP1 POP JUMPDEST POP SWAP1 POP PUSH1 0x0 JUMPDEST PUSH1 0x40 MLOAD PUSH4 0xC3D3C75 PUSH1 0xE4 SHL DUP2 MSTORE PUSH1 0xC PUSH1 0x4 DUP3 ADD MSTORE PUSH20 0x0 SWAP1 PUSH4 0xC3D3C750 SWAP1 PUSH1 0x24 ADD PUSH1 0x20 PUSH1 0x40 MLOAD DUP1 DUP4 SUB DUP2 DUP7 GAS DELEGATECALL ISZERO DUP1 ISZERO PUSH3 0x1043 JUMPI RETURNDATASIZE PUSH1 0x0 DUP1 RETURNDATACOPY RETURNDATASIZE PUSH1 0x0 REVERT JUMPDEST POP POP POP POP PUSH1 0x40 MLOAD RETURNDATASIZE PUSH1 0x1F NOT PUSH1 0x1F DUP3 ADD AND DUP3 ADD DUP1 PUSH1 0x40 MSTORE POP DUP2 ADD SWAP1 PUSH3 0x1069 SWAP2 SWAP1 PUSH3 0x4554 JUMP JUMPDEST DUP2 LT ISZERO PUSH3 0x112A JUMPI PUSH1 0x40 MLOAD PUSH4 0x182C6DB PUSH1 0xE3 SHL DUP2 MSTORE PUSH1 0xC PUSH1 0x4 DUP3 ADD MSTORE PUSH1 0x24 DUP2 ADD DUP3 SWAP1 MSTORE PUSH3 0x10F4 SWAP1 PUSH20 0x0 SWAP1 PUSH4 0xC1636D8 SWAP1 PUSH1 0x44 ADD PUSH1 0x20 PUSH1 0x40 MLOAD DUP1 DUP4 SUB DUP2 DUP7 GAS DELEGATECALL ISZERO DUP1 ISZERO PUSH3 0x10CE JUMPI RETURNDATASIZE PUSH1 0x0 DUP1 RETURNDATACOPY RETURNDATASIZE PUSH1 0x0 REVERT JUMPDEST POP POP POP POP PUSH1 0x40 MLOAD RETURNDATASIZE PUSH1 0x1F NOT PUSH1 0x1F DUP3 ADD AND DUP3 ADD DUP1 PUSH1 0x40 MSTORE POP DUP2 ADD SWAP1 PUSH3 0xCA0 SWAP2 SWAP1 PUSH3 0x456E JUMP JUMPDEST DUP3 DUP3 DUP2 MLOAD DUP2 LT PUSH3 0x1109 JUMPI PUSH3 0x1109 PUSH3 0x458E JUMP JUMPDEST PUSH1 0x20 MUL PUSH1 0x20 ADD ADD DUP2 SWAP1 MSTORE POP DUP1 DUP1 PUSH3 0x1121 SWAP1 PUSH3 0x45BA JUMP JUMPDEST SWAP2 POP POP PUSH3 0xFF2 JUMP JUMPDEST POP SWAP2 SWAP1 POP JUMP JUMPDEST PUSH1 0x40 MLOAD PUSH4 0x17E26BC9 PUSH1 0xE1 SHL DUP2 MSTORE PUSH1 0x0 SWAP1 PUSH20 0x0 SWAP1 PUSH4 0x2FC4D792 SWAP1 PUSH3 0x116F SWAP1 PUSH1 0xC SWAP1 DUP7 SWAP1 PUSH1 0x4 ADD PUSH3 0x44F2 JUMP JUMPDEST PUSH1 0x20 PUSH1 0x40 MLOAD DUP1 DUP4 SUB DUP2 DUP7 GAS DELEGATECALL ISZERO DUP1 ISZERO PUSH3 0x118D JUMPI RETURNDATASIZE PUSH1 0x0 DUP1 RETURNDATACOPY RETURNDATASIZE PUSH1 0x0 REVERT JUMPDEST POP POP POP POP PUSH1 0x40 MLOAD RETURNDATASIZE PUSH1 0x1F NOT PUSH1 0x1F DUP3 ADD AND DUP3 ADD DUP1 PUSH1 0x40 MSTORE POP DUP2 ADD SWAP1 PUSH3 0x11B3 SWAP2 SWAP1 PUSH3 0x4509 JUMP JUMPDEST SWAP3 SWAP2 POP POP JUMP JUMPDEST PUSH1 0x40 MLOAD PUSH4 0x17E26BC9 PUSH1 0xE1 SHL DUP2 MSTORE PUSH1 0x0 SWAP1 PUSH20 0x0 SWAP1 PUSH4 0x2FC4D792 SWAP1 PUSH3 0x116F SWAP1 PUSH1 0x21 SWAP1 DUP7 SWAP1 PUSH1 0x4 ADD PUSH3 0x44F2 JUMP JUMPDEST CALLER PUSH1 0x0 SWAP1 DUP2 MSTORE PUSH1 0x5 PUSH1 0x20 MSTORE PUSH1 0x40 SWAP1 KECCAK256 SLOAD PUSH3 0x124D JUMPI PUSH1 0x40 MLOAD PUSH3 0x461BCD PUSH1 0xE5 SHL DUP2 MSTORE PUSH1 0x20 PUSH1 0x4 DUP3 ADD MSTORE PUSH1 0x14 PUSH1 0x24 DUP3 ADD MSTORE PUSH20 0x21B0B636103737BA10333937B6903937BABA32B9 PUSH1 0x61 SHL PUSH1 0x44 DUP3 ADD MSTORE PUSH1 0x64 ADD PUSH3 0xDF4 JUMP JUMPDEST CALLER PUSH1 0x0 SWAP1 DUP2 MSTORE PUSH1 0x5 PUSH1 0x20 SWAP1 DUP2 MSTORE PUSH1 0x40 DUP1 DUP4 KECCAK256 SLOAD DUP1 DUP5 MSTORE PUSH1 0x4 SWAP3 DUP4 SWAP1 MSTORE SWAP3 KECCAK256 ADD SLOAD PUSH3 0x12BB JUMPI PUSH1 0x40 MLOAD PUSH3 0x461BCD PUSH1 0xE5 SHL DUP2 MSTORE PUSH1 0x20 PUSH1 0x4 DUP3 ADD MSTORE PUSH1 0x18 PUSH1 0x24 DUP3 ADD MSTORE PUSH32 0x5468697320636F6465206E6F74206D696E746564207965740000000000000000 PUSH1 0x44 DUP3 ADD MSTORE PUSH1 0x64 ADD PUSH3 0xDF4 JUMP JUMPDEST PUSH1 0x0 DUP2 DUP2 MSTORE PUSH1 0x4 PUSH1 0x20 MSTORE PUSH1 0x40 SWAP1 KECCAK256 PUSH1 0x5 ADD SLOAD ISZERO PUSH3 0x131C JUMPI PUSH1 0x40 MLOAD PUSH3 0x461BCD PUSH1 0xE5 SHL DUP2 MSTORE PUSH1 0x20 PUSH1 0x4 DUP3 ADD MSTORE PUSH1 0x19 PUSH1 0x24 DUP3 ADD MSTORE PUSH32 0x5468697320636F646520616C726561647920636C61696D656400000000000000 PUSH1 0x44 DUP3 ADD MSTORE PUSH1 0x64 ADD PUSH3 0xDF4 JUMP JUMPDEST PUSH1 0x0 DUP2 DUP2 MSTORE PUSH1 0x4 PUSH1 0x20 DUP2 SWAP1 MSTORE PUSH1 0x40 SWAP1 SWAP2 KECCAK256 PUSH1 0x6 DUP2 ADD SLOAD SWAP2 ADD SLOAD TIMESTAMP SWAP2 PUSH3 0x1342 SWAP2 PUSH3 0x45D8 JUMP JUMPDEST GT PUSH3 0x1385 JUMPI PUSH1 0x40 MLOAD PUSH3 0x461BCD PUSH1 0xE5 SHL DUP2 MSTORE PUSH1 0x20 PUSH1 0x4 DUP3 ADD MSTORE PUSH1 0x11 PUSH1 0x24 DUP3 ADD MSTORE PUSH17 0x145C90DBD919481A5CC8195E1C1A5C9959 PUSH1 0x7A SHL PUSH1 0x44 DUP3 ADD MSTORE PUSH1 0x64 ADD PUSH3 0xDF4 JUMP JUMPDEST PUSH1 0x0 DUP2 DUP2 MSTORE PUSH1 0x4 PUSH1 0x20 SWAP1 DUP2 MSTORE PUSH1 0x40 DUP1 DUP4 KECCAK256 PUSH1 0x1 ADD SLOAD PUSH1 0x1 PUSH1 0x1 PUSH1 0xA0 SHL SUB DUP7 AND DUP5 MSTORE PUSH1 0x16 SWAP1 SWAP3 MSTORE DUP3 KECCAK256 DUP1 SLOAD SWAP2 SWAP3 SWAP1 SWAP2 PUSH3 0x13C0 SWAP1 DUP5 SWAP1 PUSH3 0x45D8 JUMP JUMPDEST SWAP1 SWAP2 SSTORE POP POP PUSH1 0x1 PUSH1 0x1 PUSH1 0xA0 SHL SUB DUP3 AND PUSH1 0x0 DUP2 DUP2 MSTORE PUSH1 0x17 PUSH1 0x20 SWAP1 DUP2 MSTORE PUSH1 0x40 DUP1 DUP4 KECCAK256 DUP1 SLOAD PUSH1 0x1 DUP2 ADD DUP3 SSTORE SWAP1 DUP5 MSTORE DUP3 DUP5 KECCAK256 ADD DUP6 SWAP1 SSTORE SWAP3 DUP3 MSTORE PUSH1 0x18 SWAP1 MSTORE SWAP1 DUP2 KECCAK256 DUP1 SLOAD SWAP2 PUSH3 0x140A DUP4 PUSH3 0x45BA JUMP JUMPDEST SWAP1 SWAP2 SSTORE POP POP PUSH1 0x8 DUP1 SLOAD SWAP1 PUSH1 0x0 PUSH3 0x1421 DUP4 PUSH3 0x45BA JUMP JUMPDEST SWAP1 SWAP2 SSTORE POP POP PUSH1 0x0 DUP2 DUP2 MSTORE PUSH1 0x4 PUSH1 0x20 SWAP1 DUP2 MSTORE PUSH1 0x40 DUP1 DUP4 KECCAK256 PUSH1 0x1 DUP2 ADD SLOAD PUSH1 0x2 SWAP1 SWAP2 ADD SLOAD PUSH1 0x1 PUSH1 0x1 PUSH1 0xA0 SHL SUB AND DUP5 MSTORE PUSH1 0x12 SWAP1 SWAP3 MSTORE DUP3 KECCAK256 DUP1 SLOAD SWAP2 SWAP3 SWAP1 SWAP2 PUSH3 0x1467 SWAP1 DUP5 SWAP1 PUSH3 0x45D8 JUMP JUMPDEST SWAP1 SWAP2 SSTORE POP POP PUSH1 0x0 DUP2 DUP2 MSTORE PUSH1 0x4 PUSH1 0x20 MSTORE PUSH1 0x40 DUP2 KECCAK256 PUSH1 0x1 ADD SLOAD PUSH1 0xA DUP1 SLOAD SWAP2 SWAP3 SWAP1 SWAP2 PUSH3 0x1493 SWAP1 DUP5 SWAP1 PUSH3 0x45D8 JUMP JUMPDEST SWAP1 SWAP2 SSTORE POP POP PUSH1 0x0 DUP2 DUP2 MSTORE PUSH1 0x4 PUSH1 0x20 DUP2 SWAP1 MSTORE PUSH1 0x40 SWAP2 DUP3 SWAP1 KECCAK256 PUSH1 0x3 DUP2 ADD DUP1 SLOAD PUSH1 0x1 PUSH1 0x1 PUSH1 0xA0 SHL SUB NOT AND PUSH1 0x1 PUSH1 0x1 PUSH1 0xA0 SHL SUB DUP8 AND OR SWAP1 SSTORE NUMBER PUSH1 0x5 SWAP1 SWAP2 ADD SSTORE SWAP1 MLOAD PUSH4 0x9F75F0A3 PUSH1 0xE0 SHL DUP2 MSTORE PUSH20 0x0 SWAP2 PUSH4 0x9F75F0A3 SWAP2 PUSH3 0x1507 SWAP2 PUSH1 0x14 SWAP2 DUP8 SWAP2 ADD PUSH3 0x44F2 JUMP JUMPDEST PUSH1 0x0 PUSH1 0x40 MLOAD DUP1 DUP4 SUB DUP2 DUP7 DUP1 EXTCODESIZE ISZERO DUP1 ISZERO PUSH3 0x1520 JUMPI PUSH1 0x0 DUP1 REVERT JUMPDEST POP GAS DELEGATECALL ISZERO DUP1 ISZERO PUSH3 0x1535 JUMPI RETURNDATASIZE PUSH1 0x0 DUP1 RETURNDATACOPY RETURNDATASIZE PUSH1 0x0 REVERT JUMPDEST POP POP PUSH1 0x1 DUP1 SLOAD PUSH1 0x0 DUP6 DUP2 MSTORE PUSH1 0x4 PUSH1 0x20 DUP2 SWAP1 MSTORE PUSH1 0x40 SWAP2 DUP3 SWAP1 KECCAK256 SWAP1 SWAP4 ADD SLOAD SWAP1 MLOAD PUSH4 0xA9059CBB PUSH1 0xE0 SHL DUP2 MSTORE PUSH1 0x1 PUSH1 0x1 PUSH1 0xA0 SHL SUB SWAP1 SWAP3 AND SWAP5 POP PUSH4 0xA9059CBB SWAP4 POP PUSH3 0x1592 SWAP3 DUP8 SWAP3 ADD PUSH1 0x1 PUSH1 0x1 PUSH1 0xA0 SHL SUB SWAP3 SWAP1 SWAP3 AND DUP3 MSTORE PUSH1 0x20 DUP3 ADD MSTORE PUSH1 0x40 ADD SWAP1 JUMP JUMPDEST PUSH1 0x20 PUSH1 0x40 MLOAD DUP1 DUP4 SUB DUP2 PUSH1 0x0 DUP8 GAS CALL ISZERO DUP1 ISZERO PUSH3 0x15B2 JUMPI RETURNDATASIZE PUSH1 0x0 DUP1 RETURNDATACOPY RETURNDATASIZE PUSH1 0x0 REVERT JUMPDEST POP POP POP POP PUSH1 0x40 MLOAD RETURNDATASIZE PUSH1 0x1F NOT PUSH1 0x1F DUP3 ADD AND DUP3 ADD DUP1 PUSH1 0x40 MSTORE POP DUP2 ADD SWAP1 PUSH3 0x15D8 SWAP2 SWAP1 PUSH3 0x4509 JUMP JUMPDEST POP PUSH1 0x3 SLOAD PUSH1 0x1 PUSH1 0x1 PUSH1 0xA0 SHL SUB DUP4 AND BALANCE SWAP1 DUP2 LT ISZERO PUSH3 0x168D JUMPI PUSH1 0x0 DUP4 PUSH1 0x1 PUSH1 0x1 PUSH1 0xA0 SHL SUB AND BALANCE PUSH1 0x3 SLOAD PUSH3 0x160C SWAP2 SWAP1 PUSH3 0x45F3 JUMP JUMPDEST SWAP1 POP DUP1 PUSH1 0xB PUSH1 0x0 DUP3 DUP3 SLOAD PUSH3 0x1622 SWAP2 SWAP1 PUSH3 0x45D8 JUMP JUMPDEST SWAP1 SWAP2 SSTORE POP POP PUSH1 0x1 PUSH1 0x1 PUSH1 0xA0 SHL SUB DUP5 AND PUSH1 0x0 SWAP1 DUP2 MSTORE PUSH1 0x19 PUSH1 0x20 MSTORE PUSH1 0x40 DUP2 KECCAK256 DUP1 SLOAD DUP4 SWAP3 SWAP1 PUSH3 0x1651 SWAP1 DUP5 SWAP1 PUSH3 0x45D8 JUMP JUMPDEST SWAP1 SWAP2 SSTORE POP POP PUSH1 0x40 MLOAD PUSH1 0x1 PUSH1 0x1 PUSH1 0xA0 SHL SUB DUP6 AND SWAP1 DUP3 ISZERO PUSH2 0x8FC MUL SWAP1 DUP4 SWAP1 PUSH1 0x0 DUP2 DUP2 DUP2 DUP6 DUP9 DUP9 CALL SWAP4 POP POP POP POP ISZERO DUP1 ISZERO PUSH3 0xE67 JUMPI RETURNDATASIZE PUSH1 0x0 DUP1 RETURNDATACOPY RETURNDATASIZE PUSH1 0x0 REVERT JUMPDEST POP POP POP JUMP JUMPDEST PUSH1 0x10 PUSH1 0x20 MSTORE DUP2 PUSH1 0x0 MSTORE PUSH1 0x40 PUSH1 0x0 KECCAK256 DUP2 DUP2 SLOAD DUP2 LT PUSH3 0x16AF JUMPI PUSH1 0x0 DUP1 REVERT JUMPDEST SWAP1 PUSH1 0x0 MSTORE PUSH1 0x20 PUSH1 0x0 KECCAK256 ADD PUSH1 0x0 SWAP2 POP SWAP2 POP POP SLOAD DUP2 JUMP JUMPDEST PUSH1 0x1 SLOAD PUSH1 0x40 DUP1 MLOAD PUSH4 0x313CE567 PUSH1 0xE0 SHL DUP2 MSTORE SWAP1 MLOAD PUSH1 0x0 SWAP3 PUSH1 0x1 PUSH1 0x1 PUSH1 0xA0 SHL SUB AND SWAP2 PUSH4 0x313CE567 SWAP2 PUSH1 0x4 DUP1 DUP4 ADD SWAP3 PUSH1 0x20 SWAP3 SWAP2 SWAP1 DUP3 SWAP1 SUB ADD DUP2 DUP7 GAS STATICCALL ISZERO DUP1 ISZERO PUSH3 0x170F JUMPI RETURNDATASIZE PUSH1 0x0 DUP1 RETURNDATACOPY RETURNDATASIZE PUSH1 0x0 REVERT JUMPDEST POP POP POP POP PUSH1 0x40 MLOAD RETURNDATASIZE PUSH1 0x1F NOT PUSH1 0x1F DUP3 ADD AND DUP3 ADD DUP1 PUSH1 0x40 MSTORE POP DUP2 ADD SWAP1 PUSH3 0x1735 SWAP2 SWAP1 PUSH3 0x460D JUMP JUMPDEST PUSH1 0xFF AND SWAP1 POP SWAP1 JUMP JUMPDEST PUSH1 0x0 SLOAD PUSH1 0x1 PUSH1 0x1 PUSH1 0xA0 SHL SUB AND CALLER EQ PUSH3 0x176A JUMPI PUSH1 0x40 MLOAD PUSH3 0x461BCD PUSH1 0xE5 SHL DUP2 MSTORE PUSH1 0x4 ADD PUSH3 0xDF4 SWAP1 PUSH3 0x4632 JUMP JUMPDEST DUP1 ISZERO PUSH3 0x17E3 JUMPI PUSH1 0x40 MLOAD PUSH4 0x9F75F0A3 PUSH1 0xE0 SHL DUP2 MSTORE PUSH20 0x0 SWAP1 PUSH4 0x9F75F0A3 SWAP1 PUSH3 0x17AD SWAP1 PUSH1 0x21 SWAP1 DUP7 SWAP1 PUSH1 0x4 ADD PUSH3 0x44F2 JUMP JUMPDEST PUSH1 0x0 PUSH1 0x40 MLOAD DUP1 DUP4 SUB DUP2 DUP7 DUP1 EXTCODESIZE ISZERO DUP1 ISZERO PUSH3 0x17C6 JUMPI PUSH1 0x0 DUP1 REVERT JUMPDEST POP GAS DELEGATECALL ISZERO DUP1 ISZERO PUSH3 0x17DB JUMPI RETURNDATASIZE PUSH1 0x0 DUP1 RETURNDATACOPY RETURNDATASIZE PUSH1 0x0 REVERT JUMPDEST POP POP POP POP POP POP JUMP JUMPDEST PUSH1 0x40 MLOAD PUSH4 0xA8AFEF95 PUSH1 0xE0 SHL DUP2 MSTORE PUSH20 0x0 SWAP1 PUSH4 0xA8AFEF95 SWAP1 PUSH3 0x17AD SWAP1 PUSH1 0x21 SWAP1 DUP7 SWAP1 PUSH1 0x4 ADD PUSH3 0x44F2 JUMP JUMPDEST PUSH1 0x1 PUSH1 0x1 PUSH1 0xA0 SHL SUB DUP2 AND PUSH1 0x0 SWAP1 DUP2 MSTORE PUSH1 0x5 PUSH1 0x20 MSTORE PUSH1 0x40 DUP2 KECCAK256 SLOAD ISZERO PUSH3 0x1874 JUMPI PUSH1 0x1 PUSH1 0x1 PUSH1 0xA0 SHL SUB DUP3 AND PUSH1 0x0 SWAP1 DUP2 MSTORE PUSH1 0x5 PUSH1 0x20 DUP2 DUP2 MSTORE PUSH1 0x40 DUP1 DUP5 KECCAK256 SLOAD DUP5 MSTORE PUSH1 0x4 SWAP1 SWAP2 MSTORE SWAP1 SWAP2 KECCAK256 ADD SLOAD ISZERO PUSH3 0x1874 JUMPI PUSH1 0x1 PUSH3 0x11B3 JUMP JUMPDEST PUSH1 0x0 SWAP3 SWAP2 POP POP JUMP JUMPDEST PUSH1 0x40 MLOAD PUSH4 0x17E26BC9 PUSH1 0xE1 SHL DUP2 MSTORE PUSH20 0x0 SWAP1 PUSH4 0x2FC4D792 SWAP1 PUSH3 0x18B8 SWAP1 PUSH1 0x21 SWAP1 CALLER SWAP1 PUSH1 0x4 ADD PUSH3 0x44F2 JUMP JUMPDEST PUSH1 0x20 PUSH1 0x40 MLOAD DUP1 DUP4 SUB DUP2 DUP7 GAS DELEGATECALL ISZERO DUP1 ISZERO PUSH3 0x18D6 JUMPI RETURNDATASIZE PUSH1 0x0 DUP1 RETURNDATACOPY RETURNDATASIZE PUSH1 0x0 REVERT JUMPDEST POP POP POP POP PUSH1 0x40 MLOAD RETURNDATASIZE PUSH1 0x1F NOT PUSH1 0x1F DUP3 ADD AND DUP3 ADD DUP1 PUSH1 0x40 MSTORE POP DUP2 ADD SWAP1 PUSH3 0x18FC SWAP2 SWAP1 PUSH3 0x4509 JUMP JUMPDEST ISZERO ISZERO PUSH1 0x1 EQ PUSH3 0x1920 JUMPI PUSH1 0x40 MLOAD PUSH3 0x461BCD PUSH1 0xE5 SHL DUP2 MSTORE PUSH1 0x4 ADD PUSH3 0xDF4 SWAP1 PUSH3 0x4529 JUMP JUMPDEST PUSH1 0x1 PUSH1 0x1 PUSH1 0xA0 SHL SUB DUP3 AND PUSH1 0x0 SWAP1 DUP2 MSTORE PUSH1 0x13 PUSH1 0x20 MSTORE PUSH1 0x40 SWAP1 KECCAK256 SLOAD PUSH3 0x1946 SWAP1 DUP3 SWAP1 PUSH3 0x45D8 JUMP JUMPDEST PUSH1 0x1 PUSH1 0x1 PUSH1 0xA0 SHL SUB SWAP1 SWAP3 AND PUSH1 0x0 SWAP1 DUP2 MSTORE PUSH1 0x13 PUSH1 0x20 MSTORE PUSH1 0x40 SWAP1 KECCAK256 SWAP2 SWAP1 SWAP2 SSTORE POP JUMP JUMPDEST PUSH1 0x40 MLOAD PUSH4 0xC3D3C75 PUSH1 0xE4 SHL DUP2 MSTORE PUSH1 0x14 PUSH1 0x4 DUP3 ADD MSTORE PUSH1 0x0 SWAP1 PUSH20 0x0 SWAP1 PUSH4 0xC3D3C750 SWAP1 PUSH1 0x24 ADD JUMPDEST PUSH1 0x20 PUSH1 0x40 MLOAD DUP1 DUP4 SUB DUP2 DUP7 GAS DELEGATECALL ISZERO DUP1 ISZERO PUSH3 0x19BB JUMPI RETURNDATASIZE PUSH1 0x0 DUP1 RETURNDATACOPY RETURNDATASIZE PUSH1 0x0 REVERT JUMPDEST POP POP POP POP PUSH1 0x40 MLOAD RETURNDATASIZE PUSH1 0x1F NOT PUSH1 0x1F DUP3 ADD AND DUP3 ADD DUP1 PUSH1 0x40 MSTORE POP DUP2 ADD SWAP1 PUSH3 0x19E1 SWAP2 SWAP1 PUSH3 0x4554 JUMP JUMPDEST SWAP1 POP SWAP1 JUMP JUMPDEST PUSH1 0x40 MLOAD PUSH4 0x11C9AF77 PUSH1 0xE1 SHL DUP2 MSTORE PUSH1 0x14 PUSH1 0x4 DUP3 ADD MSTORE PUSH1 0x24 DUP2 ADD DUP4 SWAP1 MSTORE PUSH1 0x44 DUP2 ADD DUP3 SWAP1 MSTORE PUSH1 0x60 SWAP1 PUSH1 0x0 SWAP1 PUSH20 0x0 SWAP1 PUSH4 0x23935EEE SWAP1 PUSH1 0x64 ADD PUSH1 0x0 PUSH1 0x40 MLOAD DUP1 DUP4 SUB DUP2 DUP7 GAS DELEGATECALL ISZERO DUP1 ISZERO PUSH3 0x1A4B JUMPI RETURNDATASIZE PUSH1 0x0 DUP1 RETURNDATACOPY RETURNDATASIZE PUSH1 0x0 REVERT JUMPDEST POP POP POP POP PUSH1 0x40 MLOAD RETURNDATASIZE PUSH1 0x0 DUP3 RETURNDATACOPY PUSH1 0x1F RETURNDATASIZE SWAP1 DUP2 ADD PUSH1 0x1F NOT AND DUP3 ADD PUSH1 0x40 MSTORE PUSH3 0x1A75 SWAP2 SWAP1 DUP2 ADD SWAP1 PUSH3 0x465A JUMP JUMPDEST SWAP1 POP PUSH1 0x0 DUP2 MLOAD PUSH8 0xFFFFFFFFFFFFFFFF DUP2 GT ISZERO PUSH3 0x1A96 JUMPI PUSH3 0x1A96 PUSH3 0x40A1 JUMP JUMPDEST PUSH1 0x40 MLOAD SWAP1 DUP1 DUP3 MSTORE DUP1 PUSH1 0x20 MUL PUSH1 0x20 ADD DUP3 ADD PUSH1 0x40 MSTORE DUP1 ISZERO PUSH3 0x1AD3 JUMPI DUP2 PUSH1 0x20 ADD JUMPDEST PUSH3 0x1ABF PUSH3 0x3C1E JUMP JUMPDEST DUP2 MSTORE PUSH1 0x20 ADD SWAP1 PUSH1 0x1 SWAP1 SUB SWAP1 DUP2 PUSH3 0x1AB5 JUMPI SWAP1 POP JUMPDEST POP SWAP1 POP PUSH1 0x0 JUMPDEST DUP3 MLOAD DUP2 LT ISZERO PUSH3 0x1B40 JUMPI PUSH3 0x1B0A DUP4 DUP3 DUP2 MLOAD DUP2 LT PUSH3 0x1AFC JUMPI PUSH3 0x1AFC PUSH3 0x458E JUMP JUMPDEST PUSH1 0x20 MUL PUSH1 0x20 ADD ADD MLOAD PUSH3 0x2CEF JUMP JUMPDEST DUP3 DUP3 DUP2 MLOAD DUP2 LT PUSH3 0x1B1F JUMPI PUSH3 0x1B1F PUSH3 0x458E JUMP JUMPDEST PUSH1 0x20 MUL PUSH1 0x20 ADD ADD DUP2 SWAP1 MSTORE POP DUP1 DUP1 PUSH3 0x1B37 SWAP1 PUSH3 0x45BA JUMP JUMPDEST SWAP2 POP POP PUSH3 0x1AD9 JUMP JUMPDEST POP SWAP5 SWAP4 POP POP POP POP JUMP JUMPDEST PUSH1 0x40 MLOAD PUSH4 0x17E26BC9 PUSH1 0xE1 SHL DUP2 MSTORE PUSH20 0x0 SWAP1 PUSH4 0x2FC4D792 SWAP1 PUSH3 0x1B85 SWAP1 PUSH1 0x21 SWAP1 CALLER SWAP1 PUSH1 0x4 ADD PUSH3 0x44F2 JUMP JUMPDEST PUSH1 0x20 PUSH1 0x40 MLOAD DUP1 DUP4 SUB DUP2 DUP7 GAS DELEGATECALL ISZERO DUP1 ISZERO PUSH3 0x1BA3 JUMPI RETURNDATASIZE PUSH1 0x0 DUP1 RETURNDATACOPY RETURNDATASIZE PUSH1 0x0 REVERT JUMPDEST POP POP POP POP PUSH1 0x40 MLOAD RETURNDATASIZE PUSH1 0x1F NOT PUSH1 0x1F DUP3 ADD AND DUP3 ADD DUP1 PUSH1 0x40 MSTORE POP DUP2 ADD SWAP1 PUSH3 0x1BC9 SWAP2 SWAP1 PUSH3 0x4509 JUMP JUMPDEST ISZERO ISZERO PUSH1 0x1 EQ PUSH3 0x1BED JUMPI PUSH1 0x40 MLOAD PUSH3 0x461BCD PUSH1 0xE5 SHL DUP2 MSTORE PUSH1 0x4 ADD PUSH3 0xDF4 SWAP1 PUSH3 0x4529 JUMP JUMPDEST PUSH1 0x40 MLOAD PUSH4 0x9F75F0A3 PUSH1 0xE0 SHL DUP2 MSTORE PUSH20 0x0 SWAP1 PUSH4 0x9F75F0A3 SWAP1 PUSH3 0x1C29 SWAP1 PUSH1 0xC SWAP1 DUP7 SWAP1 PUSH1 0x4 ADD PUSH3 0x44F2 JUMP JUMPDEST PUSH1 0x0 PUSH1 0x40 MLOAD DUP1 DUP4 SUB DUP2 DUP7 DUP1 EXTCODESIZE ISZERO DUP1 ISZERO PUSH3 0x1C42 JUMPI PUSH1 0x0 DUP1 REVERT JUMPDEST POP GAS DELEGATECALL ISZERO DUP1 ISZERO PUSH3 0x1C57 JUMPI RETURNDATASIZE PUSH1 0x0 DUP1 RETURNDATACOPY RETURNDATASIZE PUSH1 0x0 REVERT JUMPDEST POP POP POP POP PUSH1 0x1 PUSH1 0x1 PUSH1 0xA0 SHL SUB DUP3 AND PUSH1 0x0 SWAP1 DUP2 MSTORE PUSH1 0xE PUSH1 0x20 SWAP1 DUP2 MSTORE PUSH1 0x40 SWAP1 SWAP2 KECCAK256 DUP3 MLOAD PUSH3 0x168D SWAP3 DUP5 ADD SWAP1 PUSH3 0x3C5F JUMP JUMPDEST PUSH1 0x17 PUSH1 0x20 MSTORE DUP2 PUSH1 0x0 MSTORE PUSH1 0x40 PUSH1 0x0 KECCAK256 DUP2 DUP2 SLOAD DUP2 LT PUSH3 0x16AF JUMPI PUSH1 0x0 DUP1 REVERT JUMPDEST PUSH1 0x1 PUSH1 0x1 PUSH1 0xA0 SHL SUB DUP4 AND PUSH1 0x0 SWAP1 DUP2 MSTORE PUSH1 0x17 PUSH1 0x20 MSTORE PUSH1 0x40 SWAP1 KECCAK256 SLOAD PUSH1 0x60 SWAP1 DUP3 ISZERO PUSH3 0x1CC9 JUMPI POP DUP2 JUMPDEST PUSH1 0x0 PUSH3 0x1CD7 DUP3 DUP7 PUSH3 0x45D8 JUMP JUMPDEST PUSH1 0x1 PUSH1 0x1 PUSH1 0xA0 SHL SUB DUP8 AND PUSH1 0x0 SWAP1 DUP2 MSTORE PUSH1 0x17 PUSH1 0x20 MSTORE PUSH1 0x40 SWAP1 KECCAK256 SLOAD SWAP1 SWAP2 POP DUP2 GT ISZERO PUSH3 0x1D16 JUMPI POP PUSH1 0x1 PUSH1 0x1 PUSH1 0xA0 SHL SUB DUP6 AND PUSH1 0x0 SWAP1 DUP2 MSTORE PUSH1 0x17 PUSH1 0x20 MSTORE PUSH1 0x40 SWAP1 KECCAK256 SLOAD JUMPDEST PUSH1 0x0 PUSH3 0x1D24 DUP7 DUP4 PUSH3 0x45F3 JUMP JUMPDEST PUSH8 0xFFFFFFFFFFFFFFFF DUP2 GT ISZERO PUSH3 0x1D3F JUMPI PUSH3 0x1D3F PUSH3 0x40A1 JUMP JUMPDEST PUSH1 0x40 MLOAD SWAP1 DUP1 DUP3 MSTORE DUP1 PUSH1 0x20 MUL PUSH1 0x20 ADD DUP3 ADD PUSH1 0x40 MSTORE DUP1 ISZERO PUSH3 0x1D7C JUMPI DUP2 PUSH1 0x20 ADD JUMPDEST PUSH3 0x1D68 PUSH3 0x3CEE JUMP JUMPDEST DUP2 MSTORE PUSH1 0x20 ADD SWAP1 PUSH1 0x1 SWAP1 SUB SWAP1 DUP2 PUSH3 0x1D5E JUMPI SWAP1 POP JUMPDEST POP SWAP1 POP PUSH1 0x0 JUMPDEST PUSH3 0x1D8E DUP8 DUP5 PUSH3 0x45F3 JUMP JUMPDEST DUP2 LT ISZERO PUSH3 0x1F4D JUMPI PUSH1 0x1 PUSH1 0x1 PUSH1 0xA0 SHL SUB DUP9 AND PUSH1 0x0 SWAP1 DUP2 MSTORE PUSH1 0x17 PUSH1 0x20 MSTORE PUSH1 0x40 DUP2 KECCAK256 DUP1 SLOAD PUSH1 0x4 SWAP3 SWAP2 SWAP1 PUSH1 0x1 SWAP1 DUP12 SWAP1 PUSH3 0x1DC7 SWAP1 DUP8 SWAP1 PUSH3 0x45F3 JUMP JUMPDEST PUSH3 0x1DD3 SWAP2 SWAP1 PUSH3 0x45F3 JUMP JUMPDEST PUSH3 0x1DDF SWAP2 SWAP1 PUSH3 0x45F3 JUMP JUMPDEST DUP2 SLOAD DUP2 LT PUSH3 0x1DF2 JUMPI PUSH3 0x1DF2 PUSH3 0x458E JUMP JUMPDEST PUSH1 0x0 SWAP2 DUP3 MSTORE PUSH1 0x20 DUP1 DUP4 KECCAK256 SWAP1 SWAP2 ADD SLOAD DUP4 MSTORE DUP3 DUP2 ADD SWAP4 SWAP1 SWAP4 MSTORE PUSH1 0x40 SWAP2 DUP3 ADD SWAP1 KECCAK256 DUP2 MLOAD PUSH2 0x120 DUP2 ADD DUP4 MSTORE DUP2 SLOAD DUP2 MSTORE PUSH1 0x1 DUP3 ADD SLOAD SWAP4 DUP2 ADD SWAP4 SWAP1 SWAP4 MSTORE PUSH1 0x2 DUP2 ADD SLOAD PUSH1 0x1 PUSH1 0x1 PUSH1 0xA0 SHL SUB SWAP1 DUP2 AND SWAP3 DUP5 ADD SWAP3 SWAP1 SWAP3 MSTORE PUSH1 0x3 DUP2 ADD SLOAD DUP3 AND PUSH1 0x60 DUP5 ADD MSTORE PUSH1 0x4 DUP2 ADD SLOAD PUSH1 0x80 DUP5 ADD MSTORE PUSH1 0x5 DUP2 ADD SLOAD PUSH1 0xA0 DUP5 ADD MSTORE PUSH1 0x6 DUP2 ADD SLOAD PUSH1 0xC0 DUP5 ADD MSTORE PUSH1 0x7 DUP2 ADD SLOAD SWAP1 SWAP2 AND PUSH1 0xE0 DUP4 ADD MSTORE PUSH1 0x8 DUP2 ADD DUP1 SLOAD PUSH2 0x100 DUP5 ADD SWAP2 SWAP1 PUSH3 0x1E8F SWAP1 PUSH3 0x4719 JUMP JUMPDEST DUP1 PUSH1 0x1F ADD PUSH1 0x20 DUP1 SWAP2 DIV MUL PUSH1 0x20 ADD PUSH1 0x40 MLOAD SWAP1 DUP2 ADD PUSH1 0x40 MSTORE DUP1 SWAP3 SWAP2 SWAP1 DUP2 DUP2 MSTORE PUSH1 0x20 ADD DUP3 DUP1 SLOAD PUSH3 0x1EBD SWAP1 PUSH3 0x4719 JUMP JUMPDEST DUP1 ISZERO PUSH3 0x1F0E JUMPI DUP1 PUSH1 0x1F LT PUSH3 0x1EE2 JUMPI PUSH2 0x100 DUP1 DUP4 SLOAD DIV MUL DUP4 MSTORE SWAP2 PUSH1 0x20 ADD SWAP2 PUSH3 0x1F0E JUMP JUMPDEST DUP3 ADD SWAP2 SWAP1 PUSH1 0x0 MSTORE PUSH1 0x20 PUSH1 0x0 KECCAK256 SWAP1 JUMPDEST DUP2 SLOAD DUP2 MSTORE SWAP1 PUSH1 0x1 ADD SWAP1 PUSH1 0x20 ADD DUP1 DUP4 GT PUSH3 0x1EF0 JUMPI DUP3 SWAP1 SUB PUSH1 0x1F AND DUP3 ADD SWAP2 JUMPDEST POP POP POP POP POP DUP2 MSTORE POP POP DUP3 DUP3 DUP2 MLOAD DUP2 LT PUSH3 0x1F2C JUMPI PUSH3 0x1F2C PUSH3 0x458E JUMP JUMPDEST PUSH1 0x20 MUL PUSH1 0x20 ADD ADD DUP2 SWAP1 MSTORE POP DUP1 DUP1 PUSH3 0x1F44 SWAP1 PUSH3 0x45BA JUMP JUMPDEST SWAP2 POP POP PUSH3 0x1D82 JUMP JUMPDEST POP SWAP7 SWAP6 POP POP POP POP POP POP JUMP JUMPDEST PUSH1 0x60 PUSH1 0x0 PUSH1 0x7 SLOAD PUSH8 0xFFFFFFFFFFFFFFFF DUP2 GT ISZERO PUSH3 0x1F7A JUMPI PUSH3 0x1F7A PUSH3 0x40A1 JUMP JUMPDEST PUSH1 0x40 MLOAD SWAP1 DUP1 DUP3 MSTORE DUP1 PUSH1 0x20 MUL PUSH1 0x20 ADD DUP3 ADD PUSH1 0x40 MSTORE DUP1 ISZERO PUSH3 0x1FB7 JUMPI DUP2 PUSH1 0x20 ADD JUMPDEST PUSH3 0x1FA3 PUSH3 0x3CEE JUMP JUMPDEST DUP2 MSTORE PUSH1 0x20 ADD SWAP1 PUSH1 0x1 SWAP1 SUB SWAP1 DUP2 PUSH3 0x1F99 JUMPI SWAP1 POP JUMPDEST POP SWAP1 POP PUSH1 0x1 JUMPDEST PUSH1 0x6 SLOAD DUP2 GT PUSH3 0x112A JUMPI PUSH1 0x0 DUP2 DUP2 MSTORE PUSH1 0x4 PUSH1 0x20 DUP2 DUP2 MSTORE PUSH1 0x40 SWAP3 DUP4 SWAP1 KECCAK256 DUP4 MLOAD PUSH2 0x120 DUP2 ADD DUP6 MSTORE DUP2 SLOAD DUP2 MSTORE PUSH1 0x1 DUP3 ADD SLOAD SWAP3 DUP2 ADD SWAP3 SWAP1 SWAP3 MSTORE PUSH1 0x2 DUP2 ADD SLOAD PUSH1 0x1 PUSH1 0x1 PUSH1 0xA0 SHL SUB SWAP1 DUP2 AND SWAP5 DUP4 ADD SWAP5 SWAP1 SWAP5 MSTORE PUSH1 0x3 DUP2 ADD SLOAD DUP5 AND PUSH1 0x60 DUP4 ADD MSTORE SWAP2 DUP3 ADD SLOAD PUSH1 0x80 DUP3 ADD MSTORE PUSH1 0x5 DUP3 ADD SLOAD PUSH1 0xA0 DUP3 ADD MSTORE PUSH1 0x6 DUP3 ADD SLOAD PUSH1 0xC0 DUP3 ADD MSTORE PUSH1 0x7 DUP3 ADD SLOAD SWAP1 SWAP3 AND PUSH1 0xE0 DUP4 ADD MSTORE PUSH1 0x8 DUP2 ADD DUP1 SLOAD PUSH2 0x100 DUP5 ADD SWAP2 SWAP1 PUSH3 0x2057 SWAP1 PUSH3 0x4719 JUMP JUMPDEST DUP1 PUSH1 0x1F ADD PUSH1 0x20 DUP1 SWAP2 DIV MUL PUSH1 0x20 ADD PUSH1 0x40 MLOAD SWAP1 DUP2 ADD PUSH1 0x40 MSTORE DUP1 SWAP3 SWAP2 SWAP1 DUP2 DUP2 MSTORE PUSH1 0x20 ADD DUP3 DUP1 SLOAD PUSH3 0x2085 SWAP1 PUSH3 0x4719 JUMP JUMPDEST DUP1 ISZERO PUSH3 0x20D6 JUMPI DUP1 PUSH1 0x1F LT PUSH3 0x20AA JUMPI PUSH2 0x100 DUP1 DUP4 SLOAD DIV MUL DUP4 MSTORE SWAP2 PUSH1 0x20 ADD SWAP2 PUSH3 0x20D6 JUMP JUMPDEST DUP3 ADD SWAP2 SWAP1 PUSH1 0x0 MSTORE PUSH1 0x20 PUSH1 0x0 KECCAK256 SWAP1 JUMPDEST DUP2 SLOAD DUP2 MSTORE SWAP1 PUSH1 0x1 ADD SWAP1 PUSH1 0x20 ADD DUP1 DUP4 GT PUSH3 0x20B8 JUMPI DUP3 SWAP1 SUB PUSH1 0x1F AND DUP3 ADD SWAP2 JUMPDEST POP POP POP POP POP DUP2 MSTORE POP POP DUP3 PUSH1 0x1 DUP4 PUSH3 0x20EF SWAP2 SWAP1 PUSH3 0x45F3 JUMP JUMPDEST DUP2 MLOAD DUP2 LT PUSH3 0x2102 JUMPI PUSH3 0x2102 PUSH3 0x458E JUMP JUMPDEST PUSH1 0x20 MUL PUSH1 0x20 ADD ADD DUP2 SWAP1 MSTORE POP DUP1 DUP1 PUSH3 0x211A SWAP1 PUSH3 0x45BA JUMP JUMPDEST SWAP2 POP POP PUSH3 0x1FBD JUMP JUMPDEST PUSH1 0x40 MLOAD PUSH4 0x17E26BC9 PUSH1 0xE1 SHL DUP2 MSTORE PUSH20 0x0 SWAP1 PUSH4 0x2FC4D792 SWAP1 PUSH3 0x215F SWAP1 PUSH1 0x21 SWAP1 CALLER SWAP1 PUSH1 0x4 ADD PUSH3 0x44F2 JUMP JUMPDEST PUSH1 0x20 PUSH1 0x40 MLOAD DUP1 DUP4 SUB DUP2 DUP7 GAS DELEGATECALL ISZERO DUP1 ISZERO PUSH3 0x217D JUMPI RETURNDATASIZE PUSH1 0x0 DUP1 RETURNDATACOPY RETURNDATASIZE PUSH1 0x0 REVERT JUMPDEST POP POP POP POP PUSH1 0x40 MLOAD RETURNDATASIZE PUSH1 0x1F NOT PUSH1 0x1F DUP3 ADD AND DUP3 ADD DUP1 PUSH1 0x40 MSTORE POP DUP2 ADD SWAP1 PUSH3 0x21A3 SWAP2 SWAP1 PUSH3 0x4509 JUMP JUMPDEST ISZERO ISZERO PUSH1 0x1 EQ PUSH3 0x21C7 JUMPI PUSH1 0x40 MLOAD PUSH3 0x461BCD PUSH1 0xE5 SHL DUP2 MSTORE PUSH1 0x4 ADD PUSH3 0xDF4 SWAP1 PUSH3 0x4529 JUMP JUMPDEST PUSH1 0x1 PUSH1 0x1 PUSH1 0xA0 SHL SUB SWAP1 SWAP2 AND PUSH1 0x0 SWAP1 DUP2 MSTORE PUSH1 0x1B PUSH1 0x20 MSTORE PUSH1 0x40 SWAP1 KECCAK256 SSTORE JUMP JUMPDEST PUSH1 0x40 MLOAD PUSH4 0x11C9AF77 PUSH1 0xE1 SHL DUP2 MSTORE PUSH1 0x1C PUSH1 0x4 DUP3 ADD MSTORE PUSH1 0x24 DUP2 ADD DUP4 SWAP1 MSTORE PUSH1 0x44 DUP2 ADD DUP3 SWAP1 MSTORE PUSH1 0x60 SWAP1 PUSH1 0x0 SWAP1 PUSH20 0x0 SWAP1 PUSH4 0x23935EEE SWAP1 PUSH1 0x64 ADD PUSH1 0x0 PUSH1 0x40 MLOAD DUP1 DUP4 SUB DUP2 DUP7 GAS DELEGATECALL ISZERO DUP1 ISZERO PUSH3 0x2248 JUMPI RETURNDATASIZE PUSH1 0x0 DUP1 RETURNDATACOPY RETURNDATASIZE PUSH1 0x0 REVERT JUMPDEST POP POP POP POP PUSH1 0x40 MLOAD RETURNDATASIZE PUSH1 0x0 DUP3 RETURNDATACOPY PUSH1 0x1F RETURNDATASIZE SWAP1 DUP2 ADD PUSH1 0x1F NOT AND DUP3 ADD PUSH1 0x40 MSTORE PUSH3 0x2272 SWAP2 SWAP1 DUP2 ADD SWAP1 PUSH3 0x465A JUMP JUMPDEST SWAP1 POP PUSH1 0x0 DUP2 MLOAD PUSH8 0xFFFFFFFFFFFFFFFF DUP2 GT ISZERO PUSH3 0x2293 JUMPI PUSH3 0x2293 PUSH3 0x40A1 JUMP JUMPDEST PUSH1 0x40 MLOAD SWAP1 DUP1 DUP3 MSTORE DUP1 PUSH1 0x20 MUL PUSH1 0x20 ADD DUP3 ADD PUSH1 0x40 MSTORE DUP1 ISZERO PUSH3 0x2304 JUMPI DUP2 PUSH1 0x20 ADD JUMPDEST PUSH3 0x22F0 PUSH1 0x40 MLOAD DUP1 PUSH1 0x80 ADD PUSH1 0x40 MSTORE DUP1 PUSH1 0x0 PUSH1 0x1 PUSH1 0x1 PUSH1 0xA0 SHL SUB AND DUP2 MSTORE PUSH1 0x20 ADD PUSH1 0x0 PUSH1 0x1 PUSH1 0x1 PUSH1 0xA0 SHL SUB AND DUP2 MSTORE PUSH1 0x20 ADD PUSH1 0x60 DUP2 MSTORE PUSH1 0x20 ADD PUSH1 0x0 DUP2 MSTORE POP SWAP1 JUMP JUMPDEST DUP2 MSTORE PUSH1 0x20 ADD SWAP1 PUSH1 0x1 SWAP1 SUB SWAP1 DUP2 PUSH3 0x22B2 JUMPI SWAP1 POP JUMPDEST POP SWAP1 POP PUSH1 0x0 JUMPDEST DUP3 MLOAD DUP2 LT ISZERO PUSH3 0x1B40 JUMPI PUSH1 0x40 MLOAD DUP1 PUSH1 0x80 ADD PUSH1 0x40 MSTORE DUP1 DUP5 DUP4 DUP2 MLOAD DUP2 LT PUSH3 0x2334 JUMPI PUSH3 0x2334 PUSH3 0x458E JUMP JUMPDEST PUSH1 0x20 MUL PUSH1 0x20 ADD ADD MLOAD PUSH1 0x1 PUSH1 0x1 PUSH1 0xA0 SHL SUB AND DUP2 MSTORE PUSH1 0x20 ADD PUSH1 0x1E PUSH1 0x0 DUP7 DUP6 DUP2 MLOAD DUP2 LT PUSH3 0x2363 JUMPI PUSH3 0x2363 PUSH3 0x458E JUMP JUMPDEST PUSH1 0x20 MUL PUSH1 0x20 ADD ADD MLOAD PUSH1 0x1 PUSH1 0x1 PUSH1 0xA0 SHL SUB AND PUSH1 0x1 PUSH1 0x1 PUSH1 0xA0 SHL SUB AND DUP2 MSTORE PUSH1 0x20 ADD SWAP1 DUP2 MSTORE PUSH1 0x20 ADD PUSH1 0x0 KECCAK256 PUSH1 0x0 SWAP1 SLOAD SWAP1 PUSH2 0x100 EXP SWAP1 DIV PUSH1 0x1 PUSH1 0x1 PUSH1 0xA0 SHL SUB AND PUSH1 0x1 PUSH1 0x1 PUSH1 0xA0 SHL SUB AND DUP2 MSTORE PUSH1 0x20 ADD PUSH1 0x1F PUSH1 0x0 DUP7 DUP6 DUP2 MLOAD DUP2 LT PUSH3 0x23C6 JUMPI PUSH3 0x23C6 PUSH3 0x458E JUMP JUMPDEST PUSH1 0x20 MUL PUSH1 0x20 ADD ADD MLOAD PUSH1 0x1 PUSH1 0x1 PUSH1 0xA0 SHL SUB AND PUSH1 0x1 PUSH1 0x1 PUSH1 0xA0 SHL SUB AND DUP2 MSTORE PUSH1 0x20 ADD SWAP1 DUP2 MSTORE PUSH1 0x20 ADD PUSH1 0x0 KECCAK256 DUP1 SLOAD PUSH3 0x23FB SWAP1 PUSH3 0x4719 JUMP JUMPDEST DUP1 PUSH1 0x1F ADD PUSH1 0x20 DUP1 SWAP2 DIV MUL PUSH1 0x20 ADD PUSH1 0x40 MLOAD SWAP1 DUP2 ADD PUSH1 0x40 MSTORE DUP1 SWAP3 SWAP2 SWAP1 DUP2 DUP2 MSTORE PUSH1 0x20 ADD DUP3 DUP1 SLOAD PUSH3 0x2429 SWAP1 PUSH3 0x4719 JUMP JUMPDEST DUP1 ISZERO PUSH3 0x247A JUMPI DUP1 PUSH1 0x1F LT PUSH3 0x244E JUMPI PUSH2 0x100 DUP1 DUP4 SLOAD DIV MUL DUP4 MSTORE SWAP2 PUSH1 0x20 ADD SWAP2 PUSH3 0x247A JUMP JUMPDEST DUP3 ADD SWAP2 SWAP1 PUSH1 0x0 MSTORE PUSH1 0x20 PUSH1 0x0 KECCAK256 SWAP1 JUMPDEST DUP2 SLOAD DUP2 MSTORE SWAP1 PUSH1 0x1 ADD SWAP1 PUSH1 0x20 ADD DUP1 DUP4 GT PUSH3 0x245C JUMPI DUP3 SWAP1 SUB PUSH1 0x1F AND DUP3 ADD SWAP2 JUMPDEST POP POP POP POP POP DUP2 MSTORE PUSH1 0x20 ADD PUSH1 0x20 PUSH1 0x0 DUP7 DUP6 DUP2 MLOAD DUP2 LT PUSH3 0x249D JUMPI PUSH3 0x249D PUSH3 0x458E JUMP JUMPDEST PUSH1 0x20 MUL PUSH1 0x20 ADD ADD MLOAD PUSH1 0x1 PUSH1 0x1 PUSH1 0xA0 SHL SUB AND PUSH1 0x1 PUSH1 0x1 PUSH1 0xA0 SHL SUB AND DUP2 MSTORE PUSH1 0x20 ADD SWAP1 DUP2 MSTORE PUSH1 0x20 ADD PUSH1 0x0 KECCAK256 SLOAD DUP2 MSTORE POP DUP3 DUP3 DUP2 MLOAD DUP2 LT PUSH3 0x24DE JUMPI PUSH3 0x24DE PUSH3 0x458E JUMP JUMPDEST PUSH1 0x20 MUL PUSH1 0x20 ADD ADD DUP2 SWAP1 MSTORE POP DUP1 DUP1 PUSH3 0x24F6 SWAP1 PUSH3 0x45BA JUMP JUMPDEST SWAP2 POP POP PUSH3 0x230A JUMP JUMPDEST PUSH1 0x40 MLOAD PUSH4 0x17E26BC9 PUSH1 0xE1 SHL DUP2 MSTORE PUSH20 0x0 SWAP1 PUSH4 0x2FC4D792 SWAP1 PUSH3 0x253B SWAP1 PUSH1 0x21 SWAP1 CALLER SWAP1 PUSH1 0x4 ADD PUSH3 0x44F2 JUMP JUMPDEST PUSH1 0x20 PUSH1 0x40 MLOAD DUP1 DUP4 SUB DUP2 DUP7 GAS DELEGATECALL ISZERO DUP1 ISZERO PUSH3 0x2559 JUMPI RETURNDATASIZE PUSH1 0x0 DUP1 RETURNDATACOPY RETURNDATASIZE PUSH1 0x0 REVERT JUMPDEST POP POP POP POP PUSH1 0x40 MLOAD RETURNDATASIZE PUSH1 0x1F NOT PUSH1 0x1F DUP3 ADD AND DUP3 ADD DUP1 PUSH1 0x40 MSTORE POP DUP2 ADD SWAP1 PUSH3 0x257F SWAP2 SWAP1 PUSH3 0x4509 JUMP JUMPDEST ISZERO ISZERO PUSH1 0x1 EQ PUSH3 0x25A3 JUMPI PUSH1 0x40 MLOAD PUSH3 0x461BCD PUSH1 0xE5 SHL DUP2 MSTORE PUSH1 0x4 ADD PUSH3 0xDF4 SWAP1 PUSH3 0x4529 JUMP JUMPDEST PUSH1 0x1 PUSH1 0x1 PUSH1 0xA0 SHL SUB SWAP1 SWAP2 AND PUSH1 0x0 SWAP1 DUP2 MSTORE PUSH1 0x13 PUSH1 0x20 MSTORE PUSH1 0x40 SWAP1 KECCAK256 SSTORE JUMP JUMPDEST PUSH1 0x40 MLOAD PUSH4 0xC3D3C75 PUSH1 0xE4 SHL DUP2 MSTORE PUSH1 0x1C PUSH1 0x4 DUP3 ADD MSTORE PUSH1 0x0 SWAP1 PUSH20 0x0 SWAP1 PUSH4 0xC3D3C750 SWAP1 PUSH1 0x24 ADD PUSH3 0x199D JUMP JUMPDEST PUSH1 0x40 MLOAD PUSH4 0x17E26BC9 PUSH1 0xE1 SHL DUP2 MSTORE PUSH20 0x0 SWAP1 PUSH4 0x2FC4D792 SWAP1 PUSH3 0x2637 SWAP1 PUSH1 0x21 SWAP1 CALLER SWAP1 PUSH1 0x4 ADD PUSH3 0x44F2 JUMP JUMPDEST PUSH1 0x20 PUSH1 0x40 MLOAD DUP1 DUP4 SUB DUP2 DUP7 GAS DELEGATECALL ISZERO DUP1 ISZERO PUSH3 0x2655 JUMPI RETURNDATASIZE PUSH1 0x0 DUP1 RETURNDATACOPY RETURNDATASIZE PUSH1 0x0 REVERT JUMPDEST POP POP POP POP PUSH1 0x40 MLOAD RETURNDATASIZE PUSH1 0x1F NOT PUSH1 0x1F DUP3 ADD AND DUP3 ADD DUP1 PUSH1 0x40 MSTORE POP DUP2 ADD SWAP1 PUSH3 0x267B SWAP2 SWAP1 PUSH3 0x4509 JUMP JUMPDEST ISZERO ISZERO PUSH1 0x1 EQ PUSH3 0x269F JUMPI PUSH1 0x40 MLOAD PUSH3 0x461BCD PUSH1 0xE5 SHL DUP2 MSTORE PUSH1 0x4 ADD PUSH3 0xDF4 SWAP1 PUSH3 0x4529 JUMP JUMPDEST DUP1 ISZERO PUSH3 0x26E2 JUMPI PUSH1 0x40 MLOAD PUSH4 0x9F75F0A3 PUSH1 0xE0 SHL DUP2 MSTORE PUSH20 0x0 SWAP1 PUSH4 0x9F75F0A3 SWAP1 PUSH3 0x17AD SWAP1 PUSH1 0xC SWAP1 DUP7 SWAP1 PUSH1 0x4 ADD PUSH3 0x44F2 JUMP JUMPDEST PUSH1 0x40 MLOAD PUSH4 0xA8AFEF95 PUSH1 0xE0 SHL DUP2 MSTORE PUSH20 0x0 SWAP1 PUSH4 0xA8AFEF95 SWAP1 PUSH3 0x17AD SWAP1 PUSH1 0xC SWAP1 DUP7 SWAP1 PUSH1 0x4 ADD PUSH3 0x44F2 JUMP JUMPDEST PUSH1 0x40 MLOAD PUSH4 0x11C9AF77 PUSH1 0xE1 SHL DUP2 MSTORE PUSH1 0xC PUSH1 0x4 DUP3 ADD MSTORE PUSH1 0x0 PUSH1 0x24 DUP3 ADD DUP2 SWAP1 MSTORE PUSH1 0x44 DUP3 ADD MSTORE PUSH1 0x60 SWAP1 PUSH20 0x0 SWAP1 PUSH4 0x23935EEE SWAP1 PUSH1 0x64 ADD JUMPDEST PUSH1 0x0 PUSH1 0x40 MLOAD DUP1 DUP4 SUB DUP2 DUP7 GAS DELEGATECALL ISZERO DUP1 ISZERO PUSH3 0x2781 JUMPI RETURNDATASIZE PUSH1 0x0 DUP1 RETURNDATACOPY RETURNDATASIZE PUSH1 0x0 REVERT JUMPDEST POP POP POP POP PUSH1 0x40 MLOAD RETURNDATASIZE PUSH1 0x0 DUP3 RETURNDATACOPY PUSH1 0x1F RETURNDATASIZE SWAP1 DUP2 ADD PUSH1 0x1F NOT AND DUP3 ADD PUSH1 0x40 MSTORE PUSH3 0x19E1 SWAP2 SWAP1 DUP2 ADD SWAP1 PUSH3 0x465A JUMP JUMPDEST PUSH1 0x4 PUSH1 0x20 DUP2 SWAP1 MSTORE PUSH1 0x0 SWAP2 DUP3 MSTORE PUSH1 0x40 SWAP1 SWAP2 KECCAK256 DUP1 SLOAD PUSH1 0x1 DUP3 ADD SLOAD PUSH1 0x2 DUP4 ADD SLOAD PUSH1 0x3 DUP5 ADD SLOAD SWAP5 DUP5 ADD SLOAD PUSH1 0x5 DUP6 ADD SLOAD PUSH1 0x6 DUP7 ADD SLOAD PUSH1 0x7 DUP8 ADD SLOAD PUSH1 0x8 DUP9 ADD DUP1 SLOAD SWAP8 SWAP10 SWAP7 SWAP9 PUSH1 0x1 PUSH1 0x1 PUSH1 0xA0 SHL SUB SWAP7 DUP8 AND SWAP9 SWAP8 DUP8 AND SWAP8 SWAP6 SWAP7 SWAP5 SWAP6 SWAP4 SWAP5 SWAP1 SWAP3 AND SWAP3 PUSH3 0x280F SWAP1 PUSH3 0x4719 JUMP JUMPDEST DUP1 PUSH1 0x1F ADD PUSH1 0x20 DUP1 SWAP2 DIV MUL PUSH1 0x20 ADD PUSH1 0x40 MLOAD SWAP1 DUP2 ADD PUSH1 0x40 MSTORE DUP1 SWAP3 SWAP2 SWAP1 DUP2 DUP2 MSTORE PUSH1 0x20 ADD DUP3 DUP1 SLOAD PUSH3 0x283D SWAP1 PUSH3 0x4719 JUMP JUMPDEST DUP1 ISZERO PUSH3 0x288E JUMPI DUP1 PUSH1 0x1F LT PUSH3 0x2862 JUMPI PUSH2 0x100 DUP1 DUP4 SLOAD DIV MUL DUP4 MSTORE SWAP2 PUSH1 0x20 ADD SWAP2 PUSH3 0x288E JUMP JUMPDEST DUP3 ADD SWAP2 SWAP1 PUSH1 0x0 MSTORE PUSH1 0x20 PUSH1 0x0 KECCAK256 SWAP1 JUMPDEST DUP2 SLOAD DUP2 MSTORE SWAP1 PUSH1 0x1 ADD SWAP1 PUSH1 0x20 ADD DUP1 DUP4 GT PUSH3 0x2870 JUMPI DUP3 SWAP1 SUB PUSH1 0x1F AND DUP3 ADD SWAP2 JUMPDEST POP POP POP POP POP SWAP1 POP DUP10 JUMP JUMPDEST PUSH3 0x28A2 PUSH3 0x3CEE JUMP JUMPDEST PUSH1 0x0 DUP3 DUP2 MSTORE PUSH1 0x4 PUSH1 0x20 DUP2 DUP2 MSTORE PUSH1 0x40 SWAP3 DUP4 SWAP1 KECCAK256 DUP4 MLOAD PUSH2 0x120 DUP2 ADD DUP6 MSTORE DUP2 SLOAD DUP2 MSTORE PUSH1 0x1 DUP3 ADD SLOAD SWAP3 DUP2 ADD SWAP3 SWAP1 SWAP3 MSTORE PUSH1 0x2 DUP2 ADD SLOAD PUSH1 0x1 PUSH1 0x1 PUSH1 0xA0 SHL SUB SWAP1 DUP2 AND SWAP5 DUP4 ADD SWAP5 SWAP1 SWAP5 MSTORE PUSH1 0x3 DUP2 ADD SLOAD DUP5 AND PUSH1 0x60 DUP4 ADD MSTORE SWAP2 DUP3 ADD SLOAD PUSH1 0x80 DUP3 ADD MSTORE PUSH1 0x5 DUP3 ADD SLOAD PUSH1 0xA0 DUP3 ADD MSTORE PUSH1 0x6 DUP3 ADD SLOAD PUSH1 0xC0 DUP3 ADD MSTORE PUSH1 0x7 DUP3 ADD SLOAD SWAP1 SWAP3 AND PUSH1 0xE0 DUP4 ADD MSTORE PUSH1 0x8 DUP2 ADD DUP1 SLOAD PUSH2 0x100 DUP5 ADD SWAP2 SWAP1 PUSH3 0x2932 SWAP1 PUSH3 0x4719 JUMP JUMPDEST DUP1 PUSH1 0x1F ADD PUSH1 0x20 DUP1 SWAP2 DIV MUL PUSH1 0x20 ADD PUSH1 0x40 MLOAD SWAP1 DUP2 ADD PUSH1 0x40 MSTORE DUP1 SWAP3 SWAP2 SWAP1 DUP2 DUP2 MSTORE PUSH1 0x20 ADD DUP3 DUP1 SLOAD PUSH3 0x2960 SWAP1 PUSH3 0x4719 JUMP JUMPDEST DUP1 ISZERO PUSH3 0x29B1 JUMPI DUP1 PUSH1 0x1F LT PUSH3 0x2985 JUMPI PUSH2 0x100 DUP1 DUP4 SLOAD DIV MUL DUP4 MSTORE SWAP2 PUSH1 0x20 ADD SWAP2 PUSH3 0x29B1 JUMP JUMPDEST DUP3 ADD SWAP2 SWAP1 PUSH1 0x0 MSTORE PUSH1 0x20 PUSH1 0x0 KECCAK256 SWAP1 JUMPDEST DUP2 SLOAD DUP2 MSTORE SWAP1 PUSH1 0x1 ADD SWAP1 PUSH1 0x20 ADD DUP1 DUP4 GT PUSH3 0x2993 JUMPI DUP3 SWAP1 SUB PUSH1 0x1F AND DUP3 ADD SWAP2 JUMPDEST POP POP POP POP POP DUP2 MSTORE POP POP SWAP1 POP SWAP2 SWAP1 POP JUMP JUMPDEST PUSH1 0x40 MLOAD PUSH4 0x17E26BC9 PUSH1 0xE1 SHL DUP2 MSTORE PUSH20 0x0 SWAP1 PUSH4 0x2FC4D792 SWAP1 PUSH3 0x29FD SWAP1 PUSH1 0x21 SWAP1 CALLER SWAP1 PUSH1 0x4 ADD PUSH3 0x44F2 JUMP JUMPDEST PUSH1 0x20 PUSH1 0x40 MLOAD DUP1 DUP4 SUB DUP2 DUP7 GAS DELEGATECALL ISZERO DUP1 ISZERO PUSH3 0x2A1B JUMPI RETURNDATASIZE PUSH1 0x0 DUP1 RETURNDATACOPY RETURNDATASIZE PUSH1 0x0 REVERT JUMPDEST POP POP POP POP PUSH1 0x40 MLOAD RETURNDATASIZE PUSH1 0x1F NOT PUSH1 0x1F DUP3 ADD AND DUP3 ADD DUP1 PUSH1 0x40 MSTORE POP DUP2 ADD SWAP1 PUSH3 0x2A41 SWAP2 SWAP1 PUSH3 0x4509 JUMP JUMPDEST ISZERO ISZERO PUSH1 0x1 EQ PUSH3 0x2A65 JUMPI PUSH1 0x40 MLOAD PUSH3 0x461BCD PUSH1 0xE5 SHL DUP2 MSTORE PUSH1 0x4 ADD PUSH3 0xDF4 SWAP1 PUSH3 0x4529 JUMP JUMPDEST PUSH1 0x40 MLOAD PUSH4 0x9F75F0A3 PUSH1 0xE0 SHL DUP2 MSTORE PUSH20 0x0 SWAP1 PUSH4 0x9F75F0A3 SWAP1 PUSH3 0x2AA1 SWAP1 PUSH1 0x1C SWAP1 DUP7 SWAP1 PUSH1 0x4 ADD PUSH3 0x44F2 JUMP JUMPDEST PUSH1 0x0 PUSH1 0x40 MLOAD DUP1 DUP4 SUB DUP2 DUP7 DUP1 EXTCODESIZE ISZERO DUP1 ISZERO PUSH3 0x2ABA JUMPI PUSH1 0x0 DUP1 REVERT JUMPDEST POP GAS DELEGATECALL ISZERO DUP1 ISZERO PUSH3 0x2ACF JUMPI RETURNDATASIZE PUSH1 0x0 DUP1 RETURNDATACOPY RETURNDATASIZE PUSH1 0x0 REVERT JUMPDEST POP POP POP PUSH1 0x1 PUSH1 0x1 PUSH1 0xA0 SHL SUB DUP4 AND PUSH1 0x0 SWAP1 DUP2 MSTORE PUSH1 0x1E PUSH1 0x20 SWAP1 DUP2 MSTORE PUSH1 0x40 DUP1 DUP4 KECCAK256 DUP1 SLOAD PUSH1 0x1 PUSH1 0x1 PUSH1 0xA0 SHL SUB NOT AND CALLER OR SWAP1 SSTORE PUSH1 0x1F DUP3 MSTORE SWAP1 SWAP2 KECCAK256 DUP4 MLOAD PUSH3 0x2B17 SWAP4 POP SWAP1 SWAP2 DUP5 ADD SWAP1 PUSH3 0x3C5F JUMP JUMPDEST POP POP PUSH1 0x1 PUSH1 0x1 PUSH1 0xA0 SHL SUB AND PUSH1 0x0 SWAP1 DUP2 MSTORE PUSH1 0x20 DUP1 MSTORE PUSH1 0x40 SWAP1 KECCAK256 TIMESTAMP SWAP1 SSTORE JUMP JUMPDEST PUSH3 0x2B3E PUSH3 0x3CEE JUMP JUMPDEST PUSH1 0x1 PUSH1 0x1 PUSH1 0xA0 SHL SUB DUP3 AND PUSH1 0x0 SWAP1 DUP2 MSTORE PUSH1 0x5 PUSH1 0x20 MSTORE PUSH1 0x40 SWAP1 KECCAK256 SLOAD ISZERO PUSH3 0x2BF9 JUMPI PUSH1 0x1 PUSH1 0x1 PUSH1 0xA0 SHL SUB DUP1 DUP4 AND PUSH1 0x0 SWAP1 DUP2 MSTORE PUSH1 0x5 PUSH1 0x20 DUP2 DUP2 MSTORE PUSH1 0x40 DUP1 DUP5 KECCAK256 SLOAD DUP5 MSTORE PUSH1 0x4 DUP1 DUP4 MSTORE SWAP4 DUP2 SWAP1 KECCAK256 DUP2 MLOAD PUSH2 0x120 DUP2 ADD DUP4 MSTORE DUP2 SLOAD DUP2 MSTORE PUSH1 0x1 DUP3 ADD SLOAD SWAP4 DUP2 ADD SWAP4 SWAP1 SWAP4 MSTORE PUSH1 0x2 DUP2 ADD SLOAD DUP7 AND SWAP2 DUP4 ADD SWAP2 SWAP1 SWAP2 MSTORE PUSH1 0x3 DUP2 ADD SLOAD DUP6 AND PUSH1 0x60 DUP4 ADD MSTORE SWAP3 DUP4 ADD SLOAD PUSH1 0x80 DUP3 ADD MSTORE SWAP1 DUP3 ADD SLOAD PUSH1 0xA0 DUP3 ADD MSTORE PUSH1 0x6 DUP3 ADD SLOAD PUSH1 0xC0 DUP3 ADD MSTORE PUSH1 0x7 DUP3 ADD SLOAD SWAP1 SWAP3 AND PUSH1 0xE0 DUP4 ADD MSTORE PUSH1 0x8 DUP2 ADD DUP1 SLOAD PUSH2 0x100 DUP5 ADD SWAP2 SWAP1 PUSH3 0x2932 SWAP1 PUSH3 0x4719 JUMP JUMPDEST SWAP2 SWAP1 POP JUMP JUMPDEST PUSH1 0x0 SLOAD PUSH1 0x1 PUSH1 0x1 PUSH1 0xA0 SHL SUB AND CALLER EQ PUSH3 0x2C2B JUMPI PUSH1 0x40 MLOAD PUSH3 0x461BCD PUSH1 0xE5 SHL DUP2 MSTORE PUSH1 0x4 ADD PUSH3 0xDF4 SWAP1 PUSH3 0x4632 JUMP JUMPDEST PUSH1 0x3 SSTORE JUMP JUMPDEST PUSH1 0x1 SLOAD PUSH1 0x40 MLOAD PUSH4 0x70A08231 PUSH1 0xE0 SHL DUP2 MSTORE ADDRESS PUSH1 0x4 DUP3 ADD MSTORE PUSH1 0x0 SWAP2 PUSH1 0x1 PUSH1 0x1 PUSH1 0xA0 SHL SUB AND SWAP1 PUSH4 0x70A08231 SWAP1 PUSH1 0x24 ADD PUSH1 0x20 PUSH1 0x40 MLOAD DUP1 DUP4 SUB DUP2 DUP7 GAS STATICCALL ISZERO DUP1 ISZERO PUSH3 0x19BB JUMPI RETURNDATASIZE PUSH1 0x0 DUP1 RETURNDATACOPY RETURNDATASIZE PUSH1 0x0 REVERT JUMPDEST PUSH1 0x1 SLOAD PUSH1 0x40 DUP1 MLOAD PUSH4 0x6FDDE03 PUSH1 0xE0 SHL DUP2 MSTORE SWAP1 MLOAD PUSH1 0x60 SWAP3 PUSH1 0x1 PUSH1 0x1 PUSH1 0xA0 SHL SUB AND SWAP2 PUSH4 0x6FDDE03 SWAP2 PUSH1 0x4 DUP1 DUP4 ADD SWAP3 PUSH1 0x0 SWAP3 SWAP2 SWAP1 DUP3 SWAP1 SUB ADD DUP2 DUP7 GAS STATICCALL ISZERO DUP1 ISZERO PUSH3 0x2CC5 JUMPI RETURNDATASIZE PUSH1 0x0 DUP1 RETURNDATACOPY RETURNDATASIZE PUSH1 0x0 REVERT JUMPDEST POP POP POP POP PUSH1 0x40 MLOAD RETURNDATASIZE PUSH1 0x0 DUP3 RETURNDATACOPY PUSH1 0x1F RETURNDATASIZE SWAP1 DUP2 ADD PUSH1 0x1F NOT AND DUP3 ADD PUSH1 0x40 MSTORE PUSH3 0x19E1 SWAP2 SWAP1 DUP2 ADD SWAP1 PUSH3 0x4750 JUMP JUMPDEST PUSH3 0x2CF9 PUSH3 0x3C1E JUMP JUMPDEST PUSH1 0x40 MLOAD PUSH4 0x17E26BC9 PUSH1 0xE1 SHL DUP2 MSTORE PUSH20 0x0 SWAP1 PUSH4 0x2FC4D792 SWAP1 PUSH3 0x2D35 SWAP1 PUSH1 0x14 SWAP1 DUP7 SWAP1 PUSH1 0x4 ADD PUSH3 0x44F2 JUMP JUMPDEST PUSH1 0x20 PUSH1 0x40 MLOAD DUP1 DUP4 SUB DUP2 DUP7 GAS DELEGATECALL ISZERO DUP1 ISZERO PUSH3 0x2D53 JUMPI RETURNDATASIZE PUSH1 0x0 DUP1 RETURNDATACOPY RETURNDATASIZE PUSH1 0x0 REVERT JUMPDEST POP POP POP POP PUSH1 0x40 MLOAD RETURNDATASIZE PUSH1 0x1F NOT PUSH1 0x1F DUP3 ADD AND DUP3 ADD DUP1 PUSH1 0x40 MSTORE POP DUP2 ADD SWAP1 PUSH3 0x2D79 SWAP2 SWAP1 PUSH3 0x4509 JUMP JUMPDEST ISZERO PUSH3 0x2BF9 JUMPI PUSH1 0x40 DUP1 MLOAD PUSH1 0xC0 DUP2 ADD DUP3 MSTORE PUSH1 0x1 PUSH1 0x1 PUSH1 0xA0 SHL SUB DUP5 AND DUP1 DUP3 MSTORE PUSH1 0x0 DUP2 DUP2 MSTORE PUSH1 0x16 PUSH1 0x20 SWAP1 DUP2 MSTORE DUP5 DUP3 KECCAK256 SLOAD DUP2 DUP6 ADD MSTORE SWAP2 DUP2 MSTORE PUSH1 0x17 DUP3 MSTORE DUP4 SWAP1 KECCAK256 DUP1 SLOAD DUP5 MLOAD DUP2 DUP5 MUL DUP2 ADD DUP5 ADD DUP7 MSTORE DUP2 DUP2 MSTORE SWAP4 SWAP5 DUP6 ADD SWAP4 SWAP3 DUP4 ADD DUP3 DUP3 DUP1 ISZERO PUSH3 0x2DFB JUMPI PUSH1 0x20 MUL DUP3 ADD SWAP2 SWAP1 PUSH1 0x0 MSTORE PUSH1 0x20 PUSH1 0x0 KECCAK256 SWAP1 JUMPDEST DUP2 SLOAD DUP2 MSTORE PUSH1 0x20 ADD SWAP1 PUSH1 0x1 ADD SWAP1 DUP1 DUP4 GT PUSH3 0x2DE6 JUMPI JUMPDEST POP POP POP SWAP2 DUP4 MSTORE POP POP PUSH1 0x1 PUSH1 0x1 PUSH1 0xA0 SHL SUB DUP5 AND PUSH1 0x0 DUP2 DUP2 MSTORE PUSH1 0x18 PUSH1 0x20 SWAP1 DUP2 MSTORE PUSH1 0x40 DUP1 DUP4 KECCAK256 SLOAD DUP3 DUP7 ADD MSTORE SWAP3 DUP3 MSTORE PUSH1 0x19 SWAP1 MSTORE DUP2 SWAP1 KECCAK256 SLOAD DUP2 DUP4 ADD MSTORE MLOAD PUSH4 0x17E26BC9 PUSH1 0xE1 SHL DUP2 MSTORE PUSH1 0x60 SWAP1 SWAP2 ADD SWAP1 PUSH20 0x0 SWAP1 PUSH4 0x2FC4D792 SWAP1 PUSH3 0x2E72 SWAP1 PUSH1 0x1C SWAP1 DUP9 SWAP1 PUSH1 0x4 ADD PUSH3 0x44F2 JUMP JUMPDEST PUSH1 0x20 PUSH1 0x40 MLOAD DUP1 DUP4 SUB DUP2 DUP7 GAS DELEGATECALL ISZERO DUP1 ISZERO PUSH3 0x2E90 JUMPI RETURNDATASIZE PUSH1 0x0 DUP1 RETURNDATACOPY RETURNDATASIZE PUSH1 0x0 REVERT JUMPDEST POP POP POP POP PUSH1 0x40 MLOAD RETURNDATASIZE PUSH1 0x1F NOT PUSH1 0x1F DUP3 ADD AND DUP3 ADD DUP1 PUSH1 0x40 MSTORE POP DUP2 ADD SWAP1 PUSH3 0x2EB6 SWAP2 SWAP1 PUSH3 0x4509 JUMP JUMPDEST ISZERO ISZERO SWAP1 MSTORE SWAP3 SWAP2 POP POP JUMP JUMPDEST PUSH1 0x40 MLOAD PUSH4 0x11C9AF77 PUSH1 0xE1 SHL DUP2 MSTORE PUSH1 0x14 PUSH1 0x4 DUP3 ADD MSTORE PUSH1 0x24 DUP2 ADD DUP4 SWAP1 MSTORE PUSH1 0x44 DUP2 ADD DUP3 SWAP1 MSTORE PUSH1 0x60 SWAP1 PUSH20 0x0 SWAP1 PUSH4 0x23935EEE SWAP1 PUSH1 0x64 ADD PUSH1 0x0 PUSH1 0x40 MLOAD DUP1 DUP4 SUB DUP2 DUP7 GAS DELEGATECALL ISZERO DUP1 ISZERO PUSH3 0x2F22 JUMPI RETURNDATASIZE PUSH1 0x0 DUP1 RETURNDATACOPY RETURNDATASIZE PUSH1 0x0 REVERT JUMPDEST POP POP POP POP PUSH1 0x40 MLOAD RETURNDATASIZE PUSH1 0x0 DUP3 RETURNDATACOPY PUSH1 0x1F RETURNDATASIZE SWAP1 DUP2 ADD PUSH1 0x1F NOT AND DUP3 ADD PUSH1 0x40 MSTORE PUSH3 0x2F4C SWAP2 SWAP1 DUP2 ADD SWAP1 PUSH3 0x465A JUMP JUMPDEST SWAP4 SWAP3 POP POP POP JUMP JUMPDEST PUSH1 0x0 SLOAD PUSH1 0x1 PUSH1 0x1 PUSH1 0xA0 SHL SUB AND CALLER EQ PUSH3 0x2F80 JUMPI PUSH1 0x40 MLOAD PUSH3 0x461BCD PUSH1 0xE5 SHL DUP2 MSTORE PUSH1 0x4 ADD PUSH3 0xDF4 SWAP1 PUSH3 0x4632 JUMP JUMPDEST PUSH1 0x2 SSTORE JUMP JUMPDEST PUSH1 0x1 SLOAD PUSH1 0x40 MLOAD PUSH4 0x70A08231 PUSH1 0xE0 SHL DUP2 MSTORE PUSH1 0x1 PUSH1 0x1 PUSH1 0xA0 SHL SUB DUP4 DUP2 AND PUSH1 0x4 DUP4 ADD MSTORE PUSH1 0x0 SWAP3 AND SWAP1 PUSH4 0x70A08231 SWAP1 PUSH1 0x24 ADD PUSH1 0x20 PUSH1 0x40 MLOAD DUP1 DUP4 SUB DUP2 DUP7 GAS STATICCALL ISZERO DUP1 ISZERO PUSH3 0x2FD1 JUMPI RETURNDATASIZE PUSH1 0x0 DUP1 RETURNDATACOPY RETURNDATASIZE PUSH1 0x0 REVERT JUMPDEST POP POP POP POP PUSH1 0x40 MLOAD RETURNDATASIZE PUSH1 0x1F NOT PUSH1 0x1F DUP3 ADD AND DUP3 ADD DUP1 PUSH1 0x40 MSTORE POP DUP2 ADD SWAP1 PUSH3 0x11B3 SWAP2 SWAP1 PUSH3 0x4554 JUMP JUMPDEST PUSH1 0x40 MLOAD PUSH4 0x11C9AF77 PUSH1 0xE1 SHL DUP2 MSTORE PUSH1 0x21 PUSH1 0x4 DUP3 ADD MSTORE PUSH1 0x0 PUSH1 0x24 DUP3 ADD DUP2 SWAP1 MSTORE PUSH1 0x44 DUP3 ADD MSTORE PUSH1 0x60 SWAP1 PUSH20 0x0 SWAP1 PUSH4 0x23935EEE SWAP1 PUSH1 0x64 ADD PUSH3 0x2763 JUMP JUMPDEST PUSH1 0x40 MLOAD PUSH4 0x17E26BC9 PUSH1 0xE1 SHL DUP2 MSTORE PUSH1 0x0 SWAP1 PUSH20 0x0 SWAP1 PUSH4 0x2FC4D792 SWAP1 PUSH3 0x3080 SWAP1 PUSH1 0xC SWAP1 CALLER SWAP1 PUSH1 0x4 ADD PUSH3 0x44F2 JUMP JUMPDEST PUSH1 0x20 PUSH1 0x40 MLOAD DUP1 DUP4 SUB DUP2 DUP7 GAS DELEGATECALL ISZERO DUP1 ISZERO PUSH3 0x309E JUMPI RETURNDATASIZE PUSH1 0x0 DUP1 RETURNDATACOPY RETURNDATASIZE PUSH1 0x0 REVERT JUMPDEST POP POP POP POP PUSH1 0x40 MLOAD RETURNDATASIZE PUSH1 0x1F NOT PUSH1 0x1F DUP3 ADD AND DUP3 ADD DUP1 PUSH1 0x40 MSTORE POP DUP2 ADD SWAP1 PUSH3 0x30C4 SWAP2 SWAP1 PUSH3 0x4509 JUMP JUMPDEST ISZERO ISZERO PUSH1 0x1 EQ PUSH3 0x310A JUMPI PUSH1 0x40 MLOAD PUSH3 0x461BCD PUSH1 0xE5 SHL DUP2 MSTORE PUSH1 0x20 PUSH1 0x4 DUP3 ADD MSTORE PUSH1 0x10 PUSH1 0x24 DUP3 ADD MSTORE PUSH16 0x4F6E6C7920666F72206D696E74657273 PUSH1 0x80 SHL PUSH1 0x44 DUP3 ADD MSTORE PUSH1 0x64 ADD PUSH3 0xDF4 JUMP JUMPDEST PUSH1 0x0 DUP5 GT PUSH3 0x315C JUMPI PUSH1 0x40 MLOAD PUSH3 0x461BCD PUSH1 0xE5 SHL DUP2 MSTORE PUSH1 0x20 PUSH1 0x4 DUP3 ADD MSTORE PUSH1 0x1B PUSH1 0x24 DUP3 ADD MSTORE PUSH32 0x416D6F756E74206D7573742062652067726561746572207A65726F0000000000 PUSH1 0x44 DUP3 ADD MSTORE PUSH1 0x64 ADD PUSH3 0xDF4 JUMP JUMPDEST PUSH1 0x0 DUP4 ISZERO PUSH3 0x316C JUMPI DUP4 PUSH3 0x3170 JUMP JUMPDEST PUSH1 0x2 SLOAD JUMPDEST PUSH1 0x1 SLOAD CALLER PUSH1 0x0 DUP2 DUP2 MSTORE PUSH1 0xE PUSH1 0x20 MSTORE PUSH1 0x40 DUP1 DUP3 KECCAK256 SWAP1 MLOAD SWAP5 SWAP6 POP SWAP1 SWAP4 PUSH1 0x1 PUSH1 0x1 PUSH1 0xA0 SHL SUB SWAP1 SWAP4 AND SWAP3 DUP10 SWAP2 TIMESTAMP SWAP2 DUP8 SWAP2 SWAP1 DUP11 SWAP1 PUSH3 0x31AA SWAP1 PUSH3 0x3D55 JUMP JUMPDEST PUSH3 0x31BC SWAP8 SWAP7 SWAP6 SWAP5 SWAP4 SWAP3 SWAP2 SWAP1 PUSH3 0x47D0 JUMP JUMPDEST PUSH1 0x40 MLOAD DUP1 SWAP2 SUB SWAP1 PUSH1 0x0 CREATE DUP1 ISZERO DUP1 ISZERO PUSH3 0x31D9 JUMPI RETURNDATASIZE PUSH1 0x0 DUP1 RETURNDATACOPY RETURNDATASIZE PUSH1 0x0 REVERT JUMPDEST POP PUSH1 0x6 DUP1 SLOAD SWAP2 SWAP3 POP PUSH1 0x0 PUSH3 0x31EE DUP4 PUSH3 0x45BA JUMP JUMPDEST SWAP2 SWAP1 POP SSTORE POP PUSH1 0x40 MLOAD DUP1 PUSH2 0x120 ADD PUSH1 0x40 MSTORE DUP1 PUSH1 0x6 SLOAD DUP2 MSTORE PUSH1 0x20 ADD DUP8 DUP2 MSTORE PUSH1 0x20 ADD CALLER PUSH1 0x1 PUSH1 0x1 PUSH1 0xA0 SHL SUB AND DUP2 MSTORE PUSH1 0x20 ADD PUSH1 0x0 PUSH1 0x1 PUSH1 0x1 PUSH1 0xA0 SHL SUB AND DUP2 MSTORE PUSH1 0x20 ADD TIMESTAMP DUP2 MSTORE PUSH1 0x20 ADD PUSH1 0x0 DUP2 MSTORE PUSH1 0x20 ADD DUP4 DUP2 MSTORE PUSH1 0x20 ADD DUP3 PUSH1 0x1 PUSH1 0x1 PUSH1 0xA0 SHL SUB AND DUP2 MSTORE PUSH1 0x20 ADD DUP6 DUP2 MSTORE POP PUSH1 0x4 PUSH1 0x0 PUSH1 0x6 SLOAD DUP2 MSTORE PUSH1 0x20 ADD SWAP1 DUP2 MSTORE PUSH1 0x20 ADD PUSH1 0x0 KECCAK256 PUSH1 0x0 DUP3 ADD MLOAD DUP2 PUSH1 0x0 ADD SSTORE PUSH1 0x20 DUP3 ADD MLOAD DUP2 PUSH1 0x1 ADD SSTORE PUSH1 0x40 DUP3 ADD MLOAD DUP2 PUSH1 0x2 ADD PUSH1 0x0 PUSH2 0x100 EXP DUP2 SLOAD DUP2 PUSH1 0x1 PUSH1 0x1 PUSH1 0xA0 SHL SUB MUL NOT AND SWAP1 DUP4 PUSH1 0x1 PUSH1 0x1 PUSH1 0xA0 SHL SUB AND MUL OR SWAP1 SSTORE POP PUSH1 0x60 DUP3 ADD MLOAD DUP2 PUSH1 0x3 ADD PUSH1 0x0 PUSH2 0x100 EXP DUP2 SLOAD DUP2 PUSH1 0x1 PUSH1 0x1 PUSH1 0xA0 SHL SUB MUL NOT AND SWAP1 DUP4 PUSH1 0x1 PUSH1 0x1 PUSH1 0xA0 SHL SUB AND MUL OR SWAP1 SSTORE POP PUSH1 0x80 DUP3 ADD MLOAD DUP2 PUSH1 0x4 ADD SSTORE PUSH1 0xA0 DUP3 ADD MLOAD DUP2 PUSH1 0x5 ADD SSTORE PUSH1 0xC0 DUP3 ADD MLOAD DUP2 PUSH1 0x6 ADD SSTORE PUSH1 0xE0 DUP3 ADD MLOAD DUP2 PUSH1 0x7 ADD PUSH1 0x0 PUSH2 0x100 EXP DUP2 SLOAD DUP2 PUSH1 0x1 PUSH1 0x1 PUSH1 0xA0 SHL SUB MUL NOT AND SWAP1 DUP4 PUSH1 0x1 PUSH1 0x1 PUSH1 0xA0 SHL SUB AND MUL OR SWAP1 SSTORE POP PUSH2 0x100 DUP3 ADD MLOAD DUP2 PUSH1 0x8 ADD SWAP1 DUP1 MLOAD SWAP1 PUSH1 0x20 ADD SWAP1 PUSH3 0x333F SWAP3 SWAP2 SWAP1 PUSH3 0x3C5F JUMP JUMPDEST POP POP PUSH1 0x6 SLOAD PUSH1 0x1 PUSH1 0x1 PUSH1 0xA0 SHL SUB DUP4 AND PUSH1 0x0 SWAP1 DUP2 MSTORE PUSH1 0x5 PUSH1 0x20 SWAP1 DUP2 MSTORE PUSH1 0x40 DUP1 DUP4 KECCAK256 SWAP4 SWAP1 SWAP4 SSTORE CALLER DUP3 MSTORE PUSH1 0xF SWAP1 MSTORE SWAP1 DUP2 KECCAK256 DUP1 SLOAD DUP10 SWAP4 POP SWAP1 SWAP2 SWAP1 PUSH3 0x3382 SWAP1 DUP5 SWAP1 PUSH3 0x45D8 JUMP JUMPDEST SWAP3 POP POP DUP2 SWAP1 SSTORE POP DUP6 PUSH1 0x9 PUSH1 0x0 DUP3 DUP3 SLOAD PUSH3 0x339D SWAP2 SWAP1 PUSH3 0x45D8 JUMP JUMPDEST SWAP1 SWAP2 SSTORE POP POP CALLER PUSH1 0x0 DUP2 DUP2 MSTORE PUSH1 0x10 PUSH1 0x20 SWAP1 DUP2 MSTORE PUSH1 0x40 DUP1 DUP4 KECCAK256 PUSH1 0x6 SLOAD DUP2 SLOAD PUSH1 0x1 DUP2 ADD DUP4 SSTORE SWAP2 DUP6 MSTORE DUP4 DUP6 KECCAK256 SWAP1 SWAP2 ADD SSTORE SWAP3 DUP3 MSTORE PUSH1 0x11 SWAP1 MSTORE SWAP1 DUP2 KECCAK256 DUP1 SLOAD SWAP2 PUSH3 0x33E1 DUP4 PUSH3 0x45BA JUMP JUMPDEST SWAP1 SWAP2 SSTORE POP POP PUSH1 0x7 DUP1 SLOAD SWAP1 PUSH1 0x0 PUSH3 0x33F8 DUP4 PUSH3 0x45BA JUMP JUMPDEST SWAP1 SWAP2 SSTORE POP POP PUSH1 0x40 MLOAD PUSH1 0x1 PUSH1 0x1 PUSH1 0xA0 SHL SUB DUP3 AND DUP2 MSTORE PUSH32 0x12A2DCD8D60F7D320A97F9B2F6BCA5B67C1BB9808B27C28915C541EED450D05F SWAP1 PUSH1 0x20 ADD PUSH1 0x40 MLOAD DUP1 SWAP2 SUB SWAP1 LOG1 SWAP6 SWAP5 POP POP POP POP POP JUMP JUMPDEST PUSH1 0x40 MLOAD PUSH4 0xC3D3C75 PUSH1 0xE4 SHL DUP2 MSTORE PUSH1 0x21 PUSH1 0x4 DUP3 ADD MSTORE PUSH1 0x0 SWAP1 PUSH20 0x0 SWAP1 PUSH4 0xC3D3C750 SWAP1 PUSH1 0x24 ADD PUSH3 0x199D JUMP JUMPDEST PUSH1 0xE PUSH1 0x20 MSTORE PUSH1 0x0 SWAP1 DUP2 MSTORE PUSH1 0x40 SWAP1 KECCAK256 DUP1 SLOAD PUSH3 0x3499 SWAP1 PUSH3 0x4719 JUMP JUMPDEST DUP1 PUSH1 0x1F ADD PUSH1 0x20 DUP1 SWAP2 DIV MUL PUSH1 0x20 ADD PUSH1 0x40 MLOAD SWAP1 DUP2 ADD PUSH1 0x40 MSTORE DUP1 SWAP3 SWAP2 SWAP1 DUP2 DUP2 MSTORE PUSH1 0x20 ADD DUP3 DUP1 SLOAD PUSH3 0x34C7 SWAP1 PUSH3 0x4719 JUMP JUMPDEST DUP1 ISZERO PUSH3 0x3518 JUMPI DUP1 PUSH1 0x1F LT PUSH3 0x34EC JUMPI PUSH2 0x100 DUP1 DUP4 SLOAD DIV MUL DUP4 MSTORE SWAP2 PUSH1 0x20 ADD SWAP2 PUSH3 0x3518 JUMP JUMPDEST DUP3 ADD SWAP2 SWAP1 PUSH1 0x0 MSTORE PUSH1 0x20 PUSH1 0x0 KECCAK256 SWAP1 JUMPDEST DUP2 SLOAD DUP2 MSTORE SWAP1 PUSH1 0x1 ADD SWAP1 PUSH1 0x20 ADD DUP1 DUP4 GT PUSH3 0x34FA JUMPI DUP3 SWAP1 SUB PUSH1 0x1F AND DUP3 ADD SWAP2 JUMPDEST POP POP POP POP POP DUP2 JUMP JUMPDEST PUSH1 0x1 PUSH1 0x1 PUSH1 0xA0 SHL SUB DUP4 AND PUSH1 0x0 SWAP1 DUP2 MSTORE PUSH1 0x10 PUSH1 0x20 MSTORE PUSH1 0x40 SWAP1 KECCAK256 SLOAD PUSH1 0x60 SWAP1 DUP3 ISZERO PUSH3 0x3546 JUMPI POP DUP2 JUMPDEST PUSH1 0x0 PUSH3 0x3554 DUP3 DUP7 PUSH3 0x45D8 JUMP JUMPDEST PUSH1 0x1 PUSH1 0x1 PUSH1 0xA0 SHL SUB DUP8 AND PUSH1 0x0 SWAP1 DUP2 MSTORE PUSH1 0x10 PUSH1 0x20 MSTORE PUSH1 0x40 SWAP1 KECCAK256 SLOAD SWAP1 SWAP2 POP DUP2 GT ISZERO PUSH3 0x3593 JUMPI POP PUSH1 0x1 PUSH1 0x1 PUSH1 0xA0 SHL SUB DUP6 AND PUSH1 0x0 SWAP1 DUP2 MSTORE PUSH1 0x10 PUSH1 0x20 MSTORE PUSH1 0x40 SWAP1 KECCAK256 SLOAD JUMPDEST PUSH1 0x0 PUSH3 0x35A1 DUP7 DUP4 PUSH3 0x45F3 JUMP JUMPDEST PUSH8 0xFFFFFFFFFFFFFFFF DUP2 GT ISZERO PUSH3 0x35BC JUMPI PUSH3 0x35BC PUSH3 0x40A1 JUMP JUMPDEST PUSH1 0x40 MLOAD SWAP1 DUP1 DUP3 MSTORE DUP1 PUSH1 0x20 MUL PUSH1 0x20 ADD DUP3 ADD PUSH1 0x40 MSTORE DUP1 ISZERO PUSH3 0x35F9 JUMPI DUP2 PUSH1 0x20 ADD JUMPDEST PUSH3 0x35E5 PUSH3 0x3CEE JUMP JUMPDEST DUP2 MSTORE PUSH1 0x20 ADD SWAP1 PUSH1 0x1 SWAP1 SUB SWAP1 DUP2 PUSH3 0x35DB JUMPI SWAP1 POP JUMPDEST POP SWAP1 POP PUSH1 0x0 JUMPDEST PUSH3 0x360B DUP8 DUP5 PUSH3 0x45F3 JUMP JUMPDEST DUP2 LT ISZERO PUSH3 0x1F4D JUMPI PUSH1 0x1 PUSH1 0x1 PUSH1 0xA0 SHL SUB DUP9 AND PUSH1 0x0 SWAP1 DUP2 MSTORE PUSH1 0x10 PUSH1 0x20 MSTORE PUSH1 0x40 DUP2 KECCAK256 DUP1 SLOAD PUSH1 0x4 SWAP3 SWAP2 SWAP1 PUSH1 0x1 SWAP1 DUP12 SWAP1 PUSH3 0x3644 SWAP1 DUP8 SWAP1 PUSH3 0x45F3 JUMP JUMPDEST PUSH3 0x3650 SWAP2 SWAP1 PUSH3 0x45F3 JUMP JUMPDEST PUSH3 0x365C SWAP2 SWAP1 PUSH3 0x45F3 JUMP JUMPDEST DUP2 SLOAD DUP2 LT PUSH3 0x366F JUMPI PUSH3 0x366F PUSH3 0x458E JUMP JUMPDEST PUSH1 0x0 SWAP2 DUP3 MSTORE PUSH1 0x20 DUP1 DUP4 KECCAK256 SWAP1 SWAP2 ADD SLOAD DUP4 MSTORE DUP3 DUP2 ADD SWAP4 SWAP1 SWAP4 MSTORE PUSH1 0x40 SWAP2 DUP3 ADD SWAP1 KECCAK256 DUP2 MLOAD PUSH2 0x120 DUP2 ADD DUP4 MSTORE DUP2 SLOAD DUP2 MSTORE PUSH1 0x1 DUP3 ADD SLOAD SWAP4 DUP2 ADD SWAP4 SWAP1 SWAP4 MSTORE PUSH1 0x2 DUP2 ADD SLOAD PUSH1 0x1 PUSH1 0x1 PUSH1 0xA0 SHL SUB SWAP1 DUP2 AND SWAP3 DUP5 ADD SWAP3 SWAP1 SWAP3 MSTORE PUSH1 0x3 DUP2 ADD SLOAD DUP3 AND PUSH1 0x60 DUP5 ADD MSTORE PUSH1 0x4 DUP2 ADD SLOAD PUSH1 0x80 DUP5 ADD MSTORE PUSH1 0x5 DUP2 ADD SLOAD PUSH1 0xA0 DUP5 ADD MSTORE PUSH1 0x6 DUP2 ADD SLOAD PUSH1 0xC0 DUP5 ADD MSTORE PUSH1 0x7 DUP2 ADD SLOAD SWAP1 SWAP2 AND PUSH1 0xE0 DUP4 ADD MSTORE PUSH1 0x8 DUP2 ADD DUP1 SLOAD PUSH2 0x100 DUP5 ADD SWAP2 SWAP1 PUSH3 0x370C SWAP1 PUSH3 0x4719 JUMP JUMPDEST DUP1 PUSH1 0x1F ADD PUSH1 0x20 DUP1 SWAP2 DIV MUL PUSH1 0x20 ADD PUSH1 0x40 MLOAD SWAP1 DUP2 ADD PUSH1 0x40 MSTORE DUP1 SWAP3 SWAP2 SWAP1 DUP2 DUP2 MSTORE PUSH1 0x20 ADD DUP3 DUP1 SLOAD PUSH3 0x373A SWAP1 PUSH3 0x4719 JUMP JUMPDEST DUP1 ISZERO PUSH3 0x378B JUMPI DUP1 PUSH1 0x1F LT PUSH3 0x375F JUMPI PUSH2 0x100 DUP1 DUP4 SLOAD DIV MUL DUP4 MSTORE SWAP2 PUSH1 0x20 ADD SWAP2 PUSH3 0x378B JUMP JUMPDEST DUP3 ADD SWAP2 SWAP1 PUSH1 0x0 MSTORE PUSH1 0x20 PUSH1 0x0 KECCAK256 SWAP1 JUMPDEST DUP2 SLOAD DUP2 MSTORE SWAP1 PUSH1 0x1 ADD SWAP1 PUSH1 0x20 ADD DUP1 DUP4 GT PUSH3 0x376D JUMPI DUP3 SWAP1 SUB PUSH1 0x1F AND DUP3 ADD SWAP2 JUMPDEST POP POP POP POP POP DUP2 MSTORE POP POP DUP3 DUP3 DUP2 MLOAD DUP2 LT PUSH3 0x37A9 JUMPI PUSH3 0x37A9 PUSH3 0x458E JUMP JUMPDEST PUSH1 0x20 MUL PUSH1 0x20 ADD ADD DUP2 SWAP1 MSTORE POP DUP1 DUP1 PUSH3 0x37C1 SWAP1 PUSH3 0x45BA JUMP JUMPDEST SWAP2 POP POP PUSH3 0x35FF JUMP JUMPDEST PUSH1 0x40 MLOAD PUSH4 0x17E26BC9 PUSH1 0xE1 SHL DUP2 MSTORE PUSH20 0x0 SWAP1 PUSH4 0x2FC4D792 SWAP1 PUSH3 0x3806 SWAP1 PUSH1 0x21 SWAP1 CALLER SWAP1 PUSH1 0x4 ADD PUSH3 0x44F2 JUMP JUMPDEST PUSH1 0x20 PUSH1 0x40 MLOAD DUP1 DUP4 SUB DUP2 DUP7 GAS DELEGATECALL ISZERO DUP1 ISZERO PUSH3 0x3824 JUMPI RETURNDATASIZE PUSH1 0x0 DUP1 RETURNDATACOPY RETURNDATASIZE PUSH1 0x0 REVERT JUMPDEST POP POP POP POP PUSH1 0x40 MLOAD RETURNDATASIZE PUSH1 0x1F NOT PUSH1 0x1F DUP3 ADD AND DUP3 ADD DUP1 PUSH1 0x40 MSTORE POP DUP2 ADD SWAP1 PUSH3 0x384A SWAP2 SWAP1 PUSH3 0x4509 JUMP JUMPDEST ISZERO ISZERO PUSH1 0x1 EQ PUSH3 0x386E JUMPI PUSH1 0x40 MLOAD PUSH3 0x461BCD PUSH1 0xE5 SHL DUP2 MSTORE PUSH1 0x4 ADD PUSH3 0xDF4 SWAP1 PUSH3 0x4529 JUMP JUMPDEST PUSH1 0x1 PUSH1 0x1 PUSH1 0xA0 SHL SUB DUP3 AND PUSH1 0x0 SWAP1 DUP2 MSTORE PUSH1 0xE PUSH1 0x20 SWAP1 DUP2 MSTORE PUSH1 0x40 SWAP1 SWAP2 KECCAK256 DUP3 MLOAD PUSH3 0x168D SWAP3 DUP5 ADD SWAP1 PUSH3 0x3C5F JUMP JUMPDEST PUSH1 0x40 MLOAD PUSH4 0xC3D3C75 PUSH1 0xE4 SHL DUP2 MSTORE PUSH1 0xC PUSH1 0x4 DUP3 ADD MSTORE PUSH1 0x0 SWAP1 PUSH20 0x0 SWAP1 PUSH4 0xC3D3C750 SWAP1 PUSH1 0x24 ADD PUSH3 0x199D JUMP JUMPDEST PUSH3 0x38DF PUSH3 0x3BD8 JUMP JUMPDEST PUSH1 0x40 MLOAD PUSH4 0x17E26BC9 PUSH1 0xE1 SHL DUP2 MSTORE PUSH20 0x0 SWAP1 PUSH4 0x2FC4D792 SWAP1 PUSH3 0x391B SWAP1 PUSH1 0xC SWAP1 DUP7 SWAP1 PUSH1 0x4 ADD PUSH3 0x44F2 JUMP JUMPDEST PUSH1 0x20 PUSH1 0x40 MLOAD DUP1 DUP4 SUB DUP2 DUP7 GAS DELEGATECALL ISZERO DUP1 ISZERO PUSH3 0x3939 JUMPI RETURNDATASIZE PUSH1 0x0 DUP1 RETURNDATACOPY RETURNDATASIZE PUSH1 0x0 REVERT JUMPDEST POP POP POP POP PUSH1 0x40 MLOAD RETURNDATASIZE PUSH1 0x1F NOT PUSH1 0x1F DUP3 ADD AND DUP3 ADD DUP1 PUSH1 0x40 MSTORE POP DUP2 ADD SWAP1 PUSH3 0x395F SWAP2 SWAP1 PUSH3 0x4509 JUMP JUMPDEST ISZERO PUSH3 0x2BF9 JUMPI PUSH1 0x40 DUP1 MLOAD PUSH1 0xE0 DUP2 ADD DUP3 MSTORE PUSH1 0x1 PUSH1 0x1 PUSH1 0xA0 SHL SUB DUP5 AND DUP1 DUP3 MSTORE PUSH1 0x0 SWAP1 DUP2 MSTORE PUSH1 0xE PUSH1 0x20 SWAP1 DUP2 MSTORE SWAP3 SWAP1 KECCAK256 DUP1 SLOAD SWAP2 SWAP3 DUP4 ADD SWAP2 PUSH3 0x399D SWAP1 PUSH3 0x4719 JUMP JUMPDEST DUP1 PUSH1 0x1F ADD PUSH1 0x20 DUP1 SWAP2 DIV MUL PUSH1 0x20 ADD PUSH1 0x40 MLOAD SWAP1 DUP2 ADD PUSH1 0x40 MSTORE DUP1 SWAP3 SWAP2 SWAP1 DUP2 DUP2 MSTORE PUSH1 0x20 ADD DUP3 DUP1 SLOAD PUSH3 0x39CB SWAP1 PUSH3 0x4719 JUMP JUMPDEST DUP1 ISZERO PUSH3 0x3A1C JUMPI DUP1 PUSH1 0x1F LT PUSH3 0x39F0 JUMPI PUSH2 0x100 DUP1 DUP4 SLOAD DIV MUL DUP4 MSTORE SWAP2 PUSH1 0x20 ADD SWAP2 PUSH3 0x3A1C JUMP JUMPDEST DUP3 ADD SWAP2 SWAP1 PUSH1 0x0 MSTORE PUSH1 0x20 PUSH1 0x0 KECCAK256 SWAP1 JUMPDEST DUP2 SLOAD DUP2 MSTORE SWAP1 PUSH1 0x1 ADD SWAP1 PUSH1 0x20 ADD DUP1 DUP4 GT PUSH3 0x39FE JUMPI DUP3 SWAP1 SUB PUSH1 0x1F AND DUP3 ADD SWAP2 JUMPDEST POP POP POP SWAP2 DUP4 MSTORE POP POP PUSH1 0x1 PUSH1 0x1 PUSH1 0xA0 SHL SUB DUP5 AND PUSH1 0x0 DUP2 DUP2 MSTORE PUSH1 0xF PUSH1 0x20 SWAP1 DUP2 MSTORE PUSH1 0x40 DUP1 DUP4 KECCAK256 SLOAD DUP3 DUP7 ADD MSTORE DUP4 DUP4 MSTORE PUSH1 0x12 DUP3 MSTORE DUP1 DUP4 KECCAK256 SLOAD DUP2 DUP7 ADD MSTORE SWAP3 DUP3 MSTORE PUSH1 0x10 DUP2 MSTORE SWAP1 DUP3 SWAP1 KECCAK256 DUP1 SLOAD DUP4 MLOAD DUP2 DUP5 MUL DUP2 ADD DUP5 ADD SWAP1 SWAP5 MSTORE DUP1 DUP5 MSTORE PUSH1 0x60 SWAP1 SWAP5 ADD SWAP4 SWAP1 SWAP2 DUP4 ADD DUP3 DUP3 DUP1 ISZERO PUSH3 0x3AA8 JUMPI PUSH1 0x20 MUL DUP3 ADD SWAP2 SWAP1 PUSH1 0x0 MSTORE PUSH1 0x20 PUSH1 0x0 KECCAK256 SWAP1 JUMPDEST DUP2 SLOAD DUP2 MSTORE PUSH1 0x20 ADD SWAP1 PUSH1 0x1 ADD SWAP1 DUP1 DUP4 GT PUSH3 0x3A93 JUMPI JUMPDEST POP POP POP SWAP2 DUP4 MSTORE POP POP PUSH1 0x1 PUSH1 0x1 PUSH1 0xA0 SHL SUB SWAP1 SWAP4 AND PUSH1 0x0 DUP2 DUP2 MSTORE PUSH1 0x11 PUSH1 0x20 SWAP1 DUP2 MSTORE PUSH1 0x40 DUP1 DUP4 KECCAK256 SLOAD DUP3 DUP9 ADD MSTORE SWAP3 DUP3 MSTORE PUSH1 0x13 SWAP1 MSTORE DUP2 SWAP1 KECCAK256 SLOAD SWAP4 ADD SWAP3 SWAP1 SWAP3 MSTORE POP SWAP1 JUMP JUMPDEST PUSH1 0x1 SLOAD PUSH1 0x40 DUP1 MLOAD PUSH4 0x95D89B41 PUSH1 0xE0 SHL DUP2 MSTORE SWAP1 MLOAD PUSH1 0x60 SWAP3 PUSH1 0x1 PUSH1 0x1 PUSH1 0xA0 SHL SUB AND SWAP2 PUSH4 0x95D89B41 SWAP2 PUSH1 0x4 DUP1 DUP4 ADD SWAP3 PUSH1 0x0 SWAP3 SWAP2 SWAP1 DUP3 SWAP1 SUB ADD DUP2 DUP7 GAS STATICCALL ISZERO DUP1 ISZERO PUSH3 0x2CC5 JUMPI RETURNDATASIZE PUSH1 0x0 DUP1 RETURNDATACOPY RETURNDATASIZE PUSH1 0x0 REVERT JUMPDEST PUSH1 0x0 SLOAD PUSH1 0x1 PUSH1 0x1 PUSH1 0xA0 SHL SUB AND CALLER EQ PUSH3 0x3B5E JUMPI PUSH1 0x40 MLOAD PUSH3 0x461BCD PUSH1 0xE5 SHL DUP2 MSTORE PUSH1 0x4 ADD PUSH3 0xDF4 SWAP1 PUSH3 0x4632 JUMP JUMPDEST PUSH1 0x1 PUSH1 0x1 PUSH1 0xA0 SHL SUB DUP2 AND PUSH3 0x3BB6 JUMPI PUSH1 0x40 MLOAD PUSH3 0x461BCD PUSH1 0xE5 SHL DUP2 MSTORE PUSH1 0x20 PUSH1 0x4 DUP3 ADD MSTORE PUSH1 0x1A PUSH1 0x24 DUP3 ADD MSTORE PUSH32 0x4F776E657220616464726573732063616E74206265207A65726F000000000000 PUSH1 0x44 DUP3 ADD MSTORE PUSH1 0x64 ADD PUSH3 0xDF4 JUMP JUMPDEST PUSH1 0x0 DUP1 SLOAD PUSH1 0x1 PUSH1 0x1 PUSH1 0xA0 SHL SUB NOT AND PUSH1 0x1 PUSH1 0x1 PUSH1 0xA0 SHL SUB SWAP3 SWAP1 SWAP3 AND SWAP2 SWAP1 SWAP2 OR SWAP1 SSTORE JUMP JUMPDEST PUSH1 0x40 MLOAD DUP1 PUSH1 0xE0 ADD PUSH1 0x40 MSTORE DUP1 PUSH1 0x0 PUSH1 0x1 PUSH1 0x1 PUSH1 0xA0 SHL SUB AND DUP2 MSTORE PUSH1 0x20 ADD PUSH1 0x60 DUP2 MSTORE PUSH1 0x20 ADD PUSH1 0x0 DUP2 MSTORE PUSH1 0x20 ADD PUSH1 0x0 DUP2 MSTORE PUSH1 0x20 ADD PUSH1 0x60 DUP2 MSTORE PUSH1 0x20 ADD PUSH1 0x0 DUP2 MSTORE PUSH1 0x20 ADD PUSH1 0x0 DUP2 MSTORE POP SWAP1 JUMP JUMPDEST PUSH1 0x40 MLOAD DUP1 PUSH1 0xC0 ADD PUSH1 0x40 MSTORE DUP1 PUSH1 0x0 PUSH1 0x1 PUSH1 0x1 PUSH1 0xA0 SHL SUB AND DUP2 MSTORE PUSH1 0x20 ADD PUSH1 0x0 DUP2 MSTORE PUSH1 0x20 ADD PUSH1 0x60 DUP2 MSTORE PUSH1 0x20 ADD PUSH1 0x0 DUP2 MSTORE PUSH1 0x20 ADD PUSH1 0x0 DUP2 MSTORE PUSH1 0x20 ADD PUSH1 0x0 ISZERO ISZERO DUP2 MSTORE POP SWAP1 JUMP JUMPDEST DUP3 DUP1 SLOAD PUSH3 0x3C6D SWAP1 PUSH3 0x4719 JUMP JUMPDEST SWAP1 PUSH1 0x0 MSTORE PUSH1 0x20 PUSH1 0x0 KECCAK256 SWAP1 PUSH1 0x1F ADD PUSH1 0x20 SWAP1 DIV DUP2 ADD SWAP3 DUP3 PUSH3 0x3C91 JUMPI PUSH1 0x0 DUP6 SSTORE PUSH3 0x3CDC JUMP JUMPDEST DUP3 PUSH1 0x1F LT PUSH3 0x3CAC JUMPI DUP1 MLOAD PUSH1 0xFF NOT AND DUP4 DUP1 ADD OR DUP6 SSTORE PUSH3 0x3CDC JUMP JUMPDEST DUP3 DUP1 ADD PUSH1 0x1 ADD DUP6 SSTORE DUP3 ISZERO PUSH3 0x3CDC JUMPI SWAP2 DUP3 ADD JUMPDEST DUP3 DUP2 GT ISZERO PUSH3 0x3CDC JUMPI DUP3 MLOAD DUP3 SSTORE SWAP2 PUSH1 0x20 ADD SWAP2 SWAP1 PUSH1 0x1 ADD SWAP1 PUSH3 0x3CBF JUMP JUMPDEST POP PUSH3 0x3CEA SWAP3 SWAP2 POP PUSH3 0x3D63 JUMP JUMPDEST POP SWAP1 JUMP JUMPDEST PUSH1 0x40 MLOAD DUP1 PUSH2 0x120 ADD PUSH1 0x40 MSTORE DUP1 PUSH1 0x0 DUP2 MSTORE PUSH1 0x20 ADD PUSH1 0x0 DUP2 MSTORE PUSH1 0x20 ADD PUSH1 0x0 PUSH1 0x1 PUSH1 0x1 PUSH1 0xA0 SHL SUB AND DUP2 MSTORE PUSH1 0x20 ADD PUSH1 0x0 PUSH1 0x1 PUSH1 0x1 PUSH1 0xA0 SHL SUB AND DUP2 MSTORE PUSH1 0x20 ADD PUSH1 0x0 DUP2 MSTORE PUSH1 0x20 ADD PUSH1 0x0 DUP2 MSTORE PUSH1 0x20 ADD PUSH1 0x0 DUP2 MSTORE PUSH1 0x20 ADD PUSH1 0x0 PUSH1 0x1 PUSH1 0x1 PUSH1 0xA0 SHL SUB AND DUP2 MSTORE PUSH1 0x20 ADD PUSH1 0x60 DUP2 MSTORE POP SWAP1 JUMP JUMPDEST PUSH2 0xA47 DUP1 PUSH3 0x48CC DUP4 CODECOPY ADD SWAP1 JUMP JUMPDEST JUMPDEST DUP1 DUP3 GT ISZERO PUSH3 0x3CEA JUMPI PUSH1 0x0 DUP2 SSTORE PUSH1 0x1 ADD PUSH3 0x3D64 JUMP JUMPDEST PUSH1 0x1 PUSH1 0x1 PUSH1 0xA0 SHL SUB DUP2 AND DUP2 EQ PUSH3 0x3D90 JUMPI PUSH1 0x0 DUP1 REVERT JUMPDEST POP JUMP JUMPDEST PUSH1 0x0 PUSH1 0x20 DUP3 DUP5 SUB SLT ISZERO PUSH3 0x3DA6 JUMPI PUSH1 0x0 DUP1 REVERT JUMPDEST DUP2 CALLDATALOAD PUSH3 0x2F4C DUP2 PUSH3 0x3D7A JUMP JUMPDEST PUSH1 0x0 PUSH1 0x20 DUP3 DUP5 SUB SLT ISZERO PUSH3 0x3DC6 JUMPI PUSH1 0x0 DUP1 REVERT JUMPDEST POP CALLDATALOAD SWAP2 SWAP1 POP JUMP JUMPDEST PUSH1 0x0 JUMPDEST DUP4 DUP2 LT ISZERO PUSH3 0x3DEA JUMPI DUP2 DUP2 ADD MLOAD DUP4 DUP3 ADD MSTORE PUSH1 0x20 ADD PUSH3 0x3DD0 JUMP JUMPDEST DUP4 DUP2 GT ISZERO PUSH3 0x3DFA JUMPI PUSH1 0x0 DUP5 DUP5 ADD MSTORE JUMPDEST POP POP POP POP JUMP JUMPDEST PUSH1 0x0 DUP2 MLOAD DUP1 DUP5 MSTORE PUSH3 0x3E1A DUP2 PUSH1 0x20 DUP7 ADD PUSH1 0x20 DUP7 ADD PUSH3 0x3DCD JUMP JUMPDEST PUSH1 0x1F ADD PUSH1 0x1F NOT AND SWAP3 SWAP1 SWAP3 ADD PUSH1 0x20 ADD SWAP3 SWAP2 POP POP JUMP JUMPDEST PUSH1 0x0 DUP2 MLOAD DUP1 DUP5 MSTORE PUSH1 0x20 DUP1 DUP6 ADD SWAP5 POP DUP1 DUP5 ADD PUSH1 0x0 JUMPDEST DUP4 DUP2 LT ISZERO PUSH3 0x3E60 JUMPI DUP2 MLOAD DUP8 MSTORE SWAP6 DUP3 ADD SWAP6 SWAP1 DUP3 ADD SWAP1 PUSH1 0x1 ADD PUSH3 0x3E42 JUMP JUMPDEST POP SWAP5 SWAP6 SWAP5 POP POP POP POP POP JUMP JUMPDEST PUSH1 0x1 DUP1 PUSH1 0xA0 SHL SUB DUP2 MLOAD AND DUP3 MSTORE PUSH1 0x0 PUSH1 0x20 DUP3 ADD MLOAD PUSH1 0xE0 PUSH1 0x20 DUP6 ADD MSTORE PUSH3 0x3E94 PUSH1 0xE0 DUP6 ADD DUP3 PUSH3 0x3E00 JUMP JUMPDEST SWAP1 POP PUSH1 0x40 DUP4 ADD MLOAD PUSH1 0x40 DUP6 ADD MSTORE PUSH1 0x60 DUP4 ADD MLOAD PUSH1 0x60 DUP6 ADD MSTORE PUSH1 0x80 DUP4 ADD MLOAD DUP5 DUP3 SUB PUSH1 0x80 DUP7 ADD MSTORE PUSH3 0x3EC3 DUP3 DUP3 PUSH3 0x3E2E JUMP JUMPDEST SWAP2 POP POP PUSH1 0xA0 DUP4 ADD MLOAD PUSH1 0xA0 DUP6 ADD MSTORE PUSH1 0xC0 DUP4 ADD MLOAD PUSH1 0xC0 DUP6 ADD MSTORE DUP1 SWAP2 POP POP SWAP3 SWAP2 POP POP JUMP JUMPDEST PUSH1 0x0 PUSH1 0x20 DUP1 DUP4 ADD DUP2 DUP5 MSTORE DUP1 DUP6 MLOAD DUP1 DUP4 MSTORE PUSH1 0x40 DUP7 ADD SWAP2 POP PUSH1 0x40 DUP2 PUSH1 0x5 SHL DUP8 ADD ADD SWAP3 POP DUP4 DUP8 ADD PUSH1 0x0 JUMPDEST DUP3 DUP2 LT ISZERO PUSH3 0x3F3D JUMPI PUSH1 0x3F NOT DUP9 DUP7 SUB ADD DUP5 MSTORE PUSH3 0x3F2A DUP6 DUP4 MLOAD PUSH3 0x3E6B JUMP JUMPDEST SWAP5 POP SWAP3 DUP6 ADD SWAP3 SWAP1 DUP6 ADD SWAP1 PUSH1 0x1 ADD PUSH3 0x3F0B JUMP JUMPDEST POP SWAP3 SWAP8 SWAP7 POP POP POP POP POP POP POP JUMP JUMPDEST PUSH1 0x0 DUP1 PUSH1 0x40 DUP4 DUP6 SUB SLT ISZERO PUSH3 0x3F5E JUMPI PUSH1 0x0 DUP1 REVERT JUMPDEST DUP3 CALLDATALOAD PUSH3 0x3F6B DUP2 PUSH3 0x3D7A JUMP JUMPDEST SWAP5 PUSH1 0x20 SWAP4 SWAP1 SWAP4 ADD CALLDATALOAD SWAP4 POP POP POP JUMP JUMPDEST DUP1 ISZERO ISZERO DUP2 EQ PUSH3 0x3D90 JUMPI PUSH1 0x0 DUP1 REVERT JUMPDEST PUSH1 0x0 DUP1 PUSH1 0x40 DUP4 DUP6 SUB SLT ISZERO PUSH3 0x3F9C JUMPI PUSH1 0x0 DUP1 REVERT JUMPDEST DUP3 CALLDATALOAD PUSH3 0x3FA9 DUP2 PUSH3 0x3D7A JUMP JUMPDEST SWAP2 POP PUSH1 0x20 DUP4 ADD CALLDATALOAD PUSH3 0x3FBB DUP2 PUSH3 0x3F79 JUMP JUMPDEST DUP1 SWAP2 POP POP SWAP3 POP SWAP3 SWAP1 POP JUMP JUMPDEST PUSH1 0x0 DUP1 PUSH1 0x40 DUP4 DUP6 SUB SLT ISZERO PUSH3 0x3FDA JUMPI PUSH1 0x0 DUP1 REVERT JUMPDEST POP POP DUP1 CALLDATALOAD SWAP3 PUSH1 0x20 SWAP1 SWAP2 ADD CALLDATALOAD SWAP2 POP JUMP JUMPDEST PUSH1 0x1 DUP1 PUSH1 0xA0 SHL SUB DUP2 MLOAD AND DUP3 MSTORE PUSH1 0x20 DUP2 ADD MLOAD PUSH1 0x20 DUP4 ADD MSTORE PUSH1 0x0 PUSH1 0x40 DUP3 ADD MLOAD PUSH1 0xC0 PUSH1 0x40 DUP6 ADD MSTORE PUSH3 0x401C PUSH1 0xC0 DUP6 ADD DUP3 PUSH3 0x3E2E JUMP JUMPDEST SWAP1 POP PUSH1 0x60 DUP4 ADD MLOAD PUSH1 0x60 DUP6 ADD MSTORE PUSH1 0x80 DUP4 ADD MLOAD PUSH1 0x80 DUP6 ADD MSTORE PUSH1 0xA0 DUP4 ADD MLOAD ISZERO ISZERO PUSH1 0xA0 DUP6 ADD MSTORE DUP1 SWAP2 POP POP SWAP3 SWAP2 POP POP JUMP JUMPDEST PUSH1 0x0 PUSH1 0x20 DUP1 DUP4 ADD DUP2 DUP5 MSTORE DUP1 DUP6 MLOAD DUP1 DUP4 MSTORE PUSH1 0x40 DUP7 ADD SWAP2 POP PUSH1 0x40 DUP2 PUSH1 0x5 SHL DUP8 ADD ADD SWAP3 POP DUP4 DUP8 ADD PUSH1 0x0 JUMPDEST DUP3 DUP2 LT ISZERO PUSH3 0x3F3D JUMPI PUSH1 0x3F NOT DUP9 DUP7 SUB ADD DUP5 MSTORE PUSH3 0x408E DUP6 DUP4 MLOAD PUSH3 0x3FE9 JUMP JUMPDEST SWAP5 POP SWAP3 DUP6 ADD SWAP3 SWAP1 DUP6 ADD SWAP1 PUSH1 0x1 ADD PUSH3 0x406F JUMP JUMPDEST PUSH4 0x4E487B71 PUSH1 0xE0 SHL PUSH1 0x0 MSTORE PUSH1 0x41 PUSH1 0x4 MSTORE PUSH1 0x24 PUSH1 0x0 REVERT JUMPDEST PUSH1 0x40 MLOAD PUSH1 0x1F DUP3 ADD PUSH1 0x1F NOT AND DUP2 ADD PUSH8 0xFFFFFFFFFFFFFFFF DUP2 GT DUP3 DUP3 LT OR ISZERO PUSH3 0x40E3 JUMPI PUSH3 0x40E3 PUSH3 0x40A1 JUMP JUMPDEST PUSH1 0x40 MSTORE SWAP2 SWAP1 POP JUMP JUMPDEST PUSH1 0x0 PUSH8 0xFFFFFFFFFFFFFFFF DUP3 GT ISZERO PUSH3 0x4108 JUMPI PUSH3 0x4108 PUSH3 0x40A1 JUMP JUMPDEST POP PUSH1 0x1F ADD PUSH1 0x1F NOT AND PUSH1 0x20 ADD SWAP1 JUMP JUMPDEST PUSH1 0x0 DUP3 PUSH1 0x1F DUP4 ADD SLT PUSH3 0x4128 JUMPI PUSH1 0x0 DUP1 REVERT JUMPDEST DUP2 CALLDATALOAD PUSH3 0x413F PUSH3 0x4139 DUP3 PUSH3 0x40EB JUMP JUMPDEST PUSH3 0x40B7 JUMP JUMPDEST DUP2 DUP2 MSTORE DUP5 PUSH1 0x20 DUP4 DUP7 ADD ADD GT ISZERO PUSH3 0x4155 JUMPI PUSH1 0x0 DUP1 REVERT JUMPDEST DUP2 PUSH1 0x20 DUP6 ADD PUSH1 0x20 DUP4 ADD CALLDATACOPY PUSH1 0x0 SWAP2 DUP2 ADD PUSH1 0x20 ADD SWAP2 SWAP1 SWAP2 MSTORE SWAP4 SWAP3 POP POP POP JUMP JUMPDEST PUSH1 0x0 DUP1 PUSH1 0x40 DUP4 DUP6 SUB SLT ISZERO PUSH3 0x4186 JUMPI PUSH1 0x0 DUP1 REVERT JUMPDEST DUP3 CALLDATALOAD PUSH3 0x4193 DUP2 PUSH3 0x3D7A JUMP JUMPDEST SWAP2 POP PUSH1 0x20 DUP4 ADD CALLDATALOAD PUSH8 0xFFFFFFFFFFFFFFFF DUP2 GT ISZERO PUSH3 0x41B0 JUMPI PUSH1 0x0 DUP1 REVERT JUMPDEST PUSH3 0x41BE DUP6 DUP3 DUP7 ADD PUSH3 0x4116 JUMP JUMPDEST SWAP2 POP POP SWAP3 POP SWAP3 SWAP1 POP JUMP JUMPDEST PUSH1 0x0 DUP1 PUSH1 0x0 PUSH1 0x60 DUP5 DUP7 SUB SLT ISZERO PUSH3 0x41DE JUMPI PUSH1 0x0 DUP1 REVERT JUMPDEST DUP4 CALLDATALOAD PUSH3 0x41EB DUP2 PUSH3 0x3D7A JUMP JUMPDEST SWAP6 PUSH1 0x20 DUP6 ADD CALLDATALOAD SWAP6 POP PUSH1 0x40 SWAP1 SWAP5 ADD CALLDATALOAD SWAP4 SWAP3 POP POP POP JUMP JUMPDEST PUSH1 0x0 PUSH2 0x120 DUP3 MLOAD DUP5 MSTORE PUSH1 0x20 DUP4 ADD MLOAD PUSH1 0x20 DUP6 ADD MSTORE PUSH1 0x1 DUP1 PUSH1 0xA0 SHL SUB PUSH1 0x40 DUP5 ADD MLOAD AND PUSH1 0x40 DUP6 ADD MSTORE PUSH1 0x60 DUP4 ADD MLOAD PUSH3 0x4240 PUSH1 0x60 DUP7 ADD DUP3 PUSH1 0x1 PUSH1 0x1 PUSH1 0xA0 SHL SUB AND SWAP1 MSTORE JUMP JUMPDEST POP PUSH1 0x80 DUP4 ADD MLOAD PUSH1 0x80 DUP6 ADD MSTORE PUSH1 0xA0 DUP4 ADD MLOAD PUSH1 0xA0 DUP6 ADD MSTORE PUSH1 0xC0 DUP4 ADD MLOAD PUSH1 0xC0 DUP6 ADD MSTORE PUSH1 0xE0 DUP4 ADD MLOAD PUSH3 0x427A PUSH1 0xE0 DUP7 ADD DUP3 PUSH1 0x1 PUSH1 0x1 PUSH1 0xA0 SHL SUB AND SWAP1 MSTORE JUMP JUMPDEST POP PUSH2 0x100 DUP1 DUP5 ADD MLOAD DUP3 DUP3 DUP8 ADD MSTORE PUSH3 0x4295 DUP4 DUP8 ADD DUP3 PUSH3 0x3E00 JUMP JUMPDEST SWAP7 SWAP6 POP POP POP POP POP POP JUMP JUMPDEST PUSH1 0x0 PUSH1 0x20 DUP1 DUP4 ADD DUP2 DUP5 MSTORE DUP1 DUP6 MLOAD DUP1 DUP4 MSTORE PUSH1 0x40 DUP7 ADD SWAP2 POP PUSH1 0x40 DUP2 PUSH1 0x5 SHL DUP8 ADD ADD SWAP3 POP DUP4 DUP8 ADD PUSH1 0x0 JUMPDEST DUP3 DUP2 LT ISZERO PUSH3 0x3F3D JUMPI PUSH1 0x3F NOT DUP9 DUP7 SUB ADD DUP5 MSTORE PUSH3 0x42E5 DUP6 DUP4 MLOAD PUSH3 0x4200 JUMP JUMPDEST SWAP5 POP SWAP3 DUP6 ADD SWAP3 SWAP1 DUP6 ADD SWAP1 PUSH1 0x1 ADD PUSH3 0x42C6 JUMP JUMPDEST PUSH1 0x0 PUSH1 0x20 DUP1 DUP4 ADD DUP2 DUP5 MSTORE DUP1 DUP6 MLOAD DUP1 DUP4 MSTORE PUSH1 0x40 SWAP3 POP DUP3 DUP7 ADD SWAP2 POP DUP3 DUP2 PUSH1 0x5 SHL DUP8 ADD ADD DUP5 DUP9 ADD PUSH1 0x0 JUMPDEST DUP4 DUP2 LT ISZERO PUSH3 0x4388 JUMPI DUP9 DUP4 SUB PUSH1 0x3F NOT ADD DUP6 MSTORE DUP2 MLOAD DUP1 MLOAD PUSH1 0x1 PUSH1 0x1 PUSH1 0xA0 SHL SUB SWAP1 DUP2 AND DUP6 MSTORE DUP9 DUP3 ADD MLOAD AND DUP9 DUP6 ADD MSTORE DUP7 DUP2 ADD MLOAD PUSH1 0x80 DUP9 DUP7 ADD DUP2 SWAP1 MSTORE SWAP1 PUSH3 0x4366 DUP3 DUP8 ADD DUP3 PUSH3 0x3E00 JUMP JUMPDEST PUSH1 0x60 SWAP4 DUP5 ADD MLOAD SWAP7 SWAP1 SWAP4 ADD SWAP6 SWAP1 SWAP6 MSTORE POP SWAP5 DUP8 ADD SWAP5 SWAP3 POP SWAP1 DUP7 ADD SWAP1 PUSH1 0x1 ADD PUSH3 0x431F JUMP JUMPDEST POP SWAP1 SWAP9 SWAP8 POP POP POP POP POP POP POP POP JUMP JUMPDEST PUSH1 0x20 DUP1 DUP3 MSTORE DUP3 MLOAD DUP3 DUP3 ADD DUP2 SWAP1 MSTORE PUSH1 0x0 SWAP2 SWAP1 DUP5 DUP3 ADD SWAP1 PUSH1 0x40 DUP6 ADD SWAP1 DUP5 JUMPDEST DUP2 DUP2 LT ISZERO PUSH3 0x43D9 JUMPI DUP4 MLOAD PUSH1 0x1 PUSH1 0x1 PUSH1 0xA0 SHL SUB AND DUP4 MSTORE SWAP3 DUP5 ADD SWAP3 SWAP2 DUP5 ADD SWAP2 PUSH1 0x1 ADD PUSH3 0x43B2 JUMP JUMPDEST POP SWAP1 SWAP7 SWAP6 POP POP POP POP POP POP JUMP JUMPDEST PUSH1 0x0 PUSH2 0x120 DUP12 DUP4 MSTORE DUP11 PUSH1 0x20 DUP5 ADD MSTORE PUSH1 0x1 DUP1 PUSH1 0xA0 SHL SUB DUP1 DUP12 AND PUSH1 0x40 DUP6 ADD MSTORE DUP1 DUP11 AND PUSH1 0x60 DUP6 ADD MSTORE DUP9 PUSH1 0x80 DUP6 ADD MSTORE DUP8 PUSH1 0xA0 DUP6 ADD MSTORE DUP7 PUSH1 0xC0 DUP6 ADD MSTORE DUP1 DUP7 AND PUSH1 0xE0 DUP6 ADD MSTORE POP DUP1 PUSH2 0x100 DUP5 ADD MSTORE PUSH3 0x443A DUP2 DUP5 ADD DUP6 PUSH3 0x3E00 JUMP JUMPDEST SWAP13 SWAP12 POP POP POP POP POP POP POP POP POP POP POP POP JUMP JUMPDEST PUSH1 0x20 DUP2 MSTORE PUSH1 0x0 PUSH3 0x2F4C PUSH1 0x20 DUP4 ADD DUP5 PUSH3 0x4200 JUMP JUMPDEST PUSH1 0x20 DUP2 MSTORE PUSH1 0x0 PUSH3 0x2F4C PUSH1 0x20 DUP4 ADD DUP5 PUSH3 0x3E00 JUMP JUMPDEST PUSH1 0x20 DUP2 MSTORE PUSH1 0x0 PUSH3 0x2F4C PUSH1 0x20 DUP4 ADD DUP5 PUSH3 0x3FE9 JUMP JUMPDEST PUSH1 0x0 DUP1 PUSH1 0x0 PUSH1 0x60 DUP5 DUP7 SUB SLT ISZERO PUSH3 0x449F JUMPI PUSH1 0x0 DUP1 REVERT JUMPDEST DUP4 CALLDATALOAD SWAP3 POP PUSH1 0x20 DUP5 ADD CALLDATALOAD SWAP2 POP PUSH1 0x40 DUP5 ADD CALLDATALOAD PUSH8 0xFFFFFFFFFFFFFFFF DUP2 GT ISZERO PUSH3 0x44C5 JUMPI PUSH1 0x0 DUP1 REVERT JUMPDEST PUSH3 0x44D3 DUP7 DUP3 DUP8 ADD PUSH3 0x4116 JUMP JUMPDEST SWAP2 POP POP SWAP3 POP SWAP3 POP SWAP3 JUMP JUMPDEST PUSH1 0x20 DUP2 MSTORE PUSH1 0x0 PUSH3 0x2F4C PUSH1 0x20 DUP4 ADD DUP5 PUSH3 0x3E6B JUMP JUMPDEST SWAP2 DUP3 MSTORE PUSH1 0x1 PUSH1 0x1 PUSH1 0xA0 SHL SUB AND PUSH1 0x20 DUP3 ADD MSTORE PUSH1 0x40 ADD SWAP1 JUMP JUMPDEST PUSH1 0x0 PUSH1 0x20 DUP3 DUP5 SUB SLT ISZERO PUSH3 0x451C JUMPI PUSH1 0x0 DUP1 REVERT JUMPDEST DUP2 MLOAD PUSH3 0x2F4C DUP2 PUSH3 0x3F79 JUMP JUMPDEST PUSH1 0x20 DUP1 DUP3 MSTORE PUSH1 0x11 SWAP1 DUP3 ADD MSTORE PUSH17 0x4F6E6C7920666F72206D616E6167657273 PUSH1 0x78 SHL PUSH1 0x40 DUP3 ADD MSTORE PUSH1 0x60 ADD SWAP1 JUMP JUMPDEST PUSH1 0x0 PUSH1 0x20 DUP3 DUP5 SUB SLT ISZERO PUSH3 0x4567 JUMPI PUSH1 0x0 DUP1 REVERT JUMPDEST POP MLOAD SWAP2 SWAP1 POP JUMP JUMPDEST PUSH1 0x0 PUSH1 0x20 DUP3 DUP5 SUB SLT ISZERO PUSH3 0x4581 JUMPI PUSH1 0x0 DUP1 REVERT JUMPDEST DUP2 MLOAD PUSH3 0x2F4C DUP2 PUSH3 0x3D7A JUMP JUMPDEST PUSH4 0x4E487B71 PUSH1 0xE0 SHL PUSH1 0x0 MSTORE PUSH1 0x32 PUSH1 0x4 MSTORE PUSH1 0x24 PUSH1 0x0 REVERT JUMPDEST PUSH4 0x4E487B71 PUSH1 0xE0 SHL PUSH1 0x0 MSTORE PUSH1 0x11 PUSH1 0x4 MSTORE PUSH1 0x24 PUSH1 0x0 REVERT JUMPDEST PUSH1 0x0 PUSH1 0x0 NOT DUP3 EQ ISZERO PUSH3 0x45D1 JUMPI PUSH3 0x45D1 PUSH3 0x45A4 JUMP JUMPDEST POP PUSH1 0x1 ADD SWAP1 JUMP JUMPDEST PUSH1 0x0 DUP3 NOT DUP3 GT ISZERO PUSH3 0x45EE JUMPI PUSH3 0x45EE PUSH3 0x45A4 JUMP JUMPDEST POP ADD SWAP1 JUMP JUMPDEST PUSH1 0x0 DUP3 DUP3 LT ISZERO PUSH3 0x4608 JUMPI PUSH3 0x4608 PUSH3 0x45A4 JUMP JUMPDEST POP SUB SWAP1 JUMP JUMPDEST PUSH1 0x0 PUSH1 0x20 DUP3 DUP5 SUB SLT ISZERO PUSH3 0x4620 JUMPI PUSH1 0x0 DUP1 REVERT JUMPDEST DUP2 MLOAD PUSH1 0xFF DUP2 AND DUP2 EQ PUSH3 0x2F4C JUMPI PUSH1 0x0 DUP1 REVERT JUMPDEST PUSH1 0x20 DUP1 DUP3 MSTORE PUSH1 0xE SWAP1 DUP3 ADD MSTORE PUSH14 0x27B7363C903337B91037BBB732B9 PUSH1 0x91 SHL PUSH1 0x40 DUP3 ADD MSTORE PUSH1 0x60 ADD SWAP1 JUMP JUMPDEST PUSH1 0x0 PUSH1 0x20 DUP1 DUP4 DUP6 SUB SLT ISZERO PUSH3 0x466E JUMPI PUSH1 0x0 DUP1 REVERT JUMPDEST DUP3 MLOAD PUSH8 0xFFFFFFFFFFFFFFFF DUP1 DUP3 GT ISZERO PUSH3 0x4687 JUMPI PUSH1 0x0 DUP1 REVERT JUMPDEST DUP2 DUP6 ADD SWAP2 POP DUP6 PUSH1 0x1F DUP4 ADD SLT PUSH3 0x469C JUMPI PUSH1 0x0 DUP1 REVERT JUMPDEST DUP2 MLOAD DUP2 DUP2 GT ISZERO PUSH3 0x46B1 JUMPI PUSH3 0x46B1 PUSH3 0x40A1 JUMP JUMPDEST DUP1 PUSH1 0x5 SHL SWAP2 POP PUSH3 0x46C4 DUP5 DUP4 ADD PUSH3 0x40B7 JUMP JUMPDEST DUP2 DUP2 MSTORE SWAP2 DUP4 ADD DUP5 ADD SWAP2 DUP5 DUP2 ADD SWAP1 DUP9 DUP5 GT ISZERO PUSH3 0x46DF JUMPI PUSH1 0x0 DUP1 REVERT JUMPDEST SWAP4 DUP6 ADD SWAP4 JUMPDEST DUP4 DUP6 LT ISZERO PUSH3 0x470D JUMPI DUP5 MLOAD SWAP3 POP PUSH3 0x46FC DUP4 PUSH3 0x3D7A JUMP JUMPDEST DUP3 DUP3 MSTORE SWAP4 DUP6 ADD SWAP4 SWAP1 DUP6 ADD SWAP1 PUSH3 0x46E4 JUMP JUMPDEST SWAP9 SWAP8 POP POP POP POP POP POP POP POP JUMP JUMPDEST PUSH1 0x1 DUP2 DUP2 SHR SWAP1 DUP3 AND DUP1 PUSH3 0x472E JUMPI PUSH1 0x7F DUP3 AND SWAP2 POP JUMPDEST PUSH1 0x20 DUP3 LT DUP2 EQ ISZERO PUSH3 0x112A JUMPI PUSH4 0x4E487B71 PUSH1 0xE0 SHL PUSH1 0x0 MSTORE PUSH1 0x22 PUSH1 0x4 MSTORE PUSH1 0x24 PUSH1 0x0 REVERT JUMPDEST PUSH1 0x0 PUSH1 0x20 DUP3 DUP5 SUB SLT ISZERO PUSH3 0x4763 JUMPI PUSH1 0x0 DUP1 REVERT JUMPDEST DUP2 MLOAD PUSH8 0xFFFFFFFFFFFFFFFF DUP2 GT ISZERO PUSH3 0x477B JUMPI PUSH1 0x0 DUP1 REVERT JUMPDEST DUP3 ADD PUSH1 0x1F DUP2 ADD DUP5 SGT PUSH3 0x478D JUMPI PUSH1 0x0 DUP1 REVERT JUMPDEST DUP1 MLOAD PUSH3 0x479E PUSH3 0x4139 DUP3 PUSH3 0x40EB JUMP JUMPDEST DUP2 DUP2 MSTORE DUP6 PUSH1 0x20 DUP4 DUP6 ADD ADD GT ISZERO PUSH3 0x47B4 JUMPI PUSH1 0x0 DUP1 REVERT JUMPDEST PUSH3 0x47C7 DUP3 PUSH1 0x20 DUP4 ADD PUSH1 0x20 DUP7 ADD PUSH3 0x3DCD JUMP JUMPDEST SWAP6 SWAP5 POP POP POP POP POP JUMP JUMPDEST PUSH1 0x1 PUSH1 0x1 PUSH1 0xA0 SHL SUB DUP9 DUP2 AND DUP3 MSTORE DUP8 AND PUSH1 0x20 DUP1 DUP4 ADD SWAP2 SWAP1 SWAP2 MSTORE PUSH1 0x40 DUP3 ADD DUP8 SWAP1 MSTORE PUSH1 0x60 DUP3 ADD DUP7 SWAP1 MSTORE PUSH1 0x80 DUP3 ADD DUP6 SWAP1 MSTORE PUSH1 0xE0 PUSH1 0xA0 DUP4 ADD MSTORE DUP4 SLOAD PUSH1 0x0 SWAP2 DUP3 SWAP2 PUSH1 0x1 DUP2 DUP2 SHR SWAP1 DUP3 DUP2 AND DUP1 PUSH3 0x4821 JUMPI PUSH1 0x7F DUP4 AND SWAP3 POP JUMPDEST DUP5 DUP4 LT DUP2 EQ ISZERO PUSH3 0x4840 JUMPI PUSH4 0x4E487B71 PUSH1 0xE0 SHL DUP7 MSTORE PUSH1 0x22 PUSH1 0x4 MSTORE PUSH1 0x24 DUP7 REVERT JUMPDEST PUSH1 0xE0 DUP9 ADD DUP4 SWAP1 MSTORE PUSH2 0x100 DUP9 ADD DUP2 DUP1 ISZERO PUSH3 0x4863 JUMPI PUSH1 0x1 DUP2 EQ PUSH3 0x4875 JUMPI PUSH3 0x48A2 JUMP JUMPDEST PUSH1 0xFF NOT DUP7 AND DUP3 MSTORE DUP7 DUP3 ADD SWAP8 POP PUSH3 0x48A2 JUMP JUMPDEST PUSH1 0x0 DUP13 DUP2 MSTORE PUSH1 0x20 SWAP1 KECCAK256 PUSH1 0x0 JUMPDEST DUP7 DUP2 LT ISZERO PUSH3 0x489C JUMPI DUP2 SLOAD DUP5 DUP3 ADD MSTORE SWAP1 DUP6 ADD SWAP1 DUP9 ADD PUSH3 0x4881 JUMP JUMPDEST DUP4 ADD SWAP9 POP POP JUMPDEST POP POP POP POP POP POP POP DUP3 DUP2 SUB PUSH1 0xC0 DUP5 ADD MSTORE PUSH3 0x48BD DUP2 DUP6 PUSH3 0x3E00 JUMP JUMPDEST SWAP11 SWAP10 POP POP POP POP POP POP POP POP POP POP JUMP INVALID PUSH1 0x80 PUSH1 0x40 MSTORE CALLVALUE DUP1 ISZERO PUSH3 0x11 JUMPI PUSH1 0x0 DUP1 REVERT JUMPDEST POP PUSH1 0x40 MLOAD PUSH3 0xA47 CODESIZE SUB DUP1 PUSH3 0xA47 DUP4 CODECOPY DUP2 ADD PUSH1 0x40 DUP2 SWAP1 MSTORE PUSH3 0x34 SWAP2 PUSH3 0x3E4 JUMP JUMPDEST PUSH1 0x0 DUP1 SLOAD CALLER PUSH1 0x1 PUSH1 0x1 PUSH1 0xA0 SHL SUB NOT SWAP2 DUP3 AND OR DUP3 SSTORE PUSH1 0x2 DUP1 SLOAD DUP3 AND PUSH1 0x1 PUSH1 0x1 PUSH1 0xA0 SHL SUB DUP11 DUP2 AND SWAP2 SWAP1 SWAP2 OR SWAP1 SWAP2 SSTORE PUSH1 0x3 DUP9 SWAP1 SSTORE PUSH1 0x9 DUP8 SWAP1 SSTORE PUSH1 0xA DUP7 SWAP1 SSTORE PUSH1 0x1 DUP1 SLOAD SWAP1 SWAP3 AND SWAP1 DUP11 AND SWAP1 DUP2 OR SWAP1 SWAP2 SSTORE PUSH1 0x40 DUP1 MLOAD PUSH4 0x6FDDE03 PUSH1 0xE0 SHL DUP2 MSTORE SWAP1 MLOAD SWAP2 SWAP3 PUSH4 0x6FDDE03 SWAP3 PUSH1 0x4 DUP1 DUP5 ADD SWAP4 DUP3 SWAP1 SUB ADD DUP2 DUP7 GAS STATICCALL ISZERO DUP1 ISZERO PUSH3 0xB7 JUMPI RETURNDATASIZE PUSH1 0x0 DUP1 RETURNDATACOPY RETURNDATASIZE PUSH1 0x0 REVERT JUMPDEST POP POP POP POP PUSH1 0x40 MLOAD RETURNDATASIZE PUSH1 0x0 DUP3 RETURNDATACOPY PUSH1 0x1F RETURNDATASIZE SWAP1 DUP2 ADD PUSH1 0x1F NOT AND DUP3 ADD PUSH1 0x40 MSTORE PUSH3 0xE1 SWAP2 SWAP1 DUP2 ADD SWAP1 PUSH3 0x492 JUMP JUMPDEST DUP1 MLOAD PUSH3 0xF7 SWAP2 PUSH1 0x4 SWAP2 PUSH1 0x20 SWAP1 SWAP2 ADD SWAP1 PUSH3 0x254 JUMP JUMPDEST POP PUSH1 0x1 PUSH1 0x0 SWAP1 SLOAD SWAP1 PUSH2 0x100 EXP SWAP1 DIV PUSH1 0x1 PUSH1 0x1 PUSH1 0xA0 SHL SUB AND PUSH1 0x1 PUSH1 0x1 PUSH1 0xA0 SHL SUB AND PUSH4 0x95D89B41 PUSH1 0x40 MLOAD DUP2 PUSH4 0xFFFFFFFF AND PUSH1 0xE0 SHL DUP2 MSTORE PUSH1 0x4 ADD PUSH1 0x0 PUSH1 0x40 MLOAD DUP1 DUP4 SUB DUP2 DUP7 GAS STATICCALL ISZERO DUP1 ISZERO PUSH3 0x14C JUMPI RETURNDATASIZE PUSH1 0x0 DUP1 RETURNDATACOPY RETURNDATASIZE PUSH1 0x0 REVERT JUMPDEST POP POP POP POP PUSH1 0x40 MLOAD RETURNDATASIZE PUSH1 0x0 DUP3 RETURNDATACOPY PUSH1 0x1F RETURNDATASIZE SWAP1 DUP2 ADD PUSH1 0x1F NOT AND DUP3 ADD PUSH1 0x40 MSTORE PUSH3 0x176 SWAP2 SWAP1 DUP2 ADD SWAP1 PUSH3 0x492 JUMP JUMPDEST DUP1 MLOAD PUSH3 0x18C SWAP2 PUSH1 0x5 SWAP2 PUSH1 0x20 SWAP1 SWAP2 ADD SWAP1 PUSH3 0x254 JUMP JUMPDEST POP PUSH1 0x1 PUSH1 0x0 SWAP1 SLOAD SWAP1 PUSH2 0x100 EXP SWAP1 DIV PUSH1 0x1 PUSH1 0x1 PUSH1 0xA0 SHL SUB AND PUSH1 0x1 PUSH1 0x1 PUSH1 0xA0 SHL SUB AND PUSH4 0x313CE567 PUSH1 0x40 MLOAD DUP2 PUSH4 0xFFFFFFFF AND PUSH1 0xE0 SHL DUP2 MSTORE PUSH1 0x4 ADD PUSH1 0x20 PUSH1 0x40 MLOAD DUP1 DUP4 SUB DUP2 DUP7 GAS STATICCALL ISZERO DUP1 ISZERO PUSH3 0x1E1 JUMPI RETURNDATASIZE PUSH1 0x0 DUP1 RETURNDATACOPY RETURNDATASIZE PUSH1 0x0 REVERT JUMPDEST POP POP POP POP PUSH1 0x40 MLOAD RETURNDATASIZE PUSH1 0x1F NOT PUSH1 0x1F DUP3 ADD AND DUP3 ADD DUP1 PUSH1 0x40 MSTORE POP DUP2 ADD SWAP1 PUSH3 0x207 SWAP2 SWAP1 PUSH3 0x4D2 JUMP JUMPDEST PUSH1 0x6 DUP1 SLOAD PUSH1 0xFF NOT AND PUSH1 0xFF SWAP3 SWAP1 SWAP3 AND SWAP2 SWAP1 SWAP2 OR SWAP1 SSTORE DUP2 MLOAD PUSH3 0x230 SWAP1 PUSH1 0x7 SWAP1 PUSH1 0x20 DUP6 ADD SWAP1 PUSH3 0x254 JUMP JUMPDEST POP DUP1 MLOAD PUSH3 0x246 SWAP1 PUSH1 0x8 SWAP1 PUSH1 0x20 DUP5 ADD SWAP1 PUSH3 0x254 JUMP JUMPDEST POP POP POP POP POP POP POP POP PUSH3 0x53B JUMP JUMPDEST DUP3 DUP1 SLOAD PUSH3 0x262 SWAP1 PUSH3 0x4FE JUMP JUMPDEST SWAP1 PUSH1 0x0 MSTORE PUSH1 0x20 PUSH1 0x0 KECCAK256 SWAP1 PUSH1 0x1F ADD PUSH1 0x20 SWAP1 DIV DUP2 ADD SWAP3 DUP3 PUSH3 0x286 JUMPI PUSH1 0x0 DUP6 SSTORE PUSH3 0x2D1 JUMP JUMPDEST DUP3 PUSH1 0x1F LT PUSH3 0x2A1 JUMPI DUP1 MLOAD PUSH1 0xFF NOT AND DUP4 DUP1 ADD OR DUP6 SSTORE PUSH3 0x2D1 JUMP JUMPDEST DUP3 DUP1 ADD PUSH1 0x1 ADD DUP6 SSTORE DUP3 ISZERO PUSH3 0x2D1 JUMPI SWAP2 DUP3 ADD JUMPDEST DUP3 DUP2 GT ISZERO PUSH3 0x2D1 JUMPI DUP3 MLOAD DUP3 SSTORE SWAP2 PUSH1 0x20 ADD SWAP2 SWAP1 PUSH1 0x1 ADD SWAP1 PUSH3 0x2B4 JUMP JUMPDEST POP PUSH3 0x2DF SWAP3 SWAP2 POP PUSH3 0x2E3 JUMP JUMPDEST POP SWAP1 JUMP JUMPDEST JUMPDEST DUP1 DUP3 GT ISZERO PUSH3 0x2DF JUMPI PUSH1 0x0 DUP2 SSTORE PUSH1 0x1 ADD PUSH3 0x2E4 JUMP JUMPDEST DUP1 MLOAD PUSH1 0x1 PUSH1 0x1 PUSH1 0xA0 SHL SUB DUP2 AND DUP2 EQ PUSH3 0x312 JUMPI PUSH1 0x0 DUP1 REVERT JUMPDEST SWAP2 SWAP1 POP JUMP JUMPDEST PUSH4 0x4E487B71 PUSH1 0xE0 SHL PUSH1 0x0 MSTORE PUSH1 0x41 PUSH1 0x4 MSTORE PUSH1 0x24 PUSH1 0x0 REVERT JUMPDEST PUSH1 0x0 DUP3 PUSH1 0x1F DUP4 ADD SLT PUSH3 0x33F JUMPI PUSH1 0x0 DUP1 REVERT JUMPDEST DUP2 MLOAD PUSH1 0x1 PUSH1 0x1 PUSH1 0x40 SHL SUB DUP1 DUP3 GT ISZERO PUSH3 0x35C JUMPI PUSH3 0x35C PUSH3 0x317 JUMP JUMPDEST PUSH1 0x40 MLOAD PUSH1 0x1F DUP4 ADD PUSH1 0x1F NOT SWAP1 DUP2 AND PUSH1 0x3F ADD AND DUP2 ADD SWAP1 DUP3 DUP3 GT DUP2 DUP4 LT OR ISZERO PUSH3 0x387 JUMPI PUSH3 0x387 PUSH3 0x317 JUMP JUMPDEST DUP2 PUSH1 0x40 MSTORE DUP4 DUP2 MSTORE PUSH1 0x20 SWAP3 POP DUP7 DUP4 DUP6 DUP9 ADD ADD GT ISZERO PUSH3 0x3A4 JUMPI PUSH1 0x0 DUP1 REVERT JUMPDEST PUSH1 0x0 SWAP2 POP JUMPDEST DUP4 DUP3 LT ISZERO PUSH3 0x3C8 JUMPI DUP6 DUP3 ADD DUP4 ADD MLOAD DUP2 DUP4 ADD DUP5 ADD MSTORE SWAP1 DUP3 ADD SWAP1 PUSH3 0x3A9 JUMP JUMPDEST DUP4 DUP3 GT ISZERO PUSH3 0x3DA JUMPI PUSH1 0x0 DUP4 DUP6 DUP4 ADD ADD MSTORE JUMPDEST SWAP7 SWAP6 POP POP POP POP POP POP JUMP JUMPDEST PUSH1 0x0 DUP1 PUSH1 0x0 DUP1 PUSH1 0x0 DUP1 PUSH1 0x0 PUSH1 0xE0 DUP9 DUP11 SUB SLT ISZERO PUSH3 0x400 JUMPI PUSH1 0x0 DUP1 REVERT JUMPDEST PUSH3 0x40B DUP9 PUSH3 0x2FA JUMP JUMPDEST SWAP7 POP PUSH3 0x41B PUSH1 0x20 DUP10 ADD PUSH3 0x2FA JUMP JUMPDEST PUSH1 0x40 DUP10 ADD MLOAD PUSH1 0x60 DUP11 ADD MLOAD PUSH1 0x80 DUP12 ADD MLOAD PUSH1 0xA0 DUP13 ADD MLOAD SWAP4 SWAP10 POP SWAP2 SWAP8 POP SWAP6 POP SWAP4 POP PUSH1 0x1 PUSH1 0x1 PUSH1 0x40 SHL SUB DUP1 DUP3 GT ISZERO PUSH3 0x44F JUMPI PUSH1 0x0 DUP1 REVERT JUMPDEST PUSH3 0x45D DUP12 DUP4 DUP13 ADD PUSH3 0x32D JUMP JUMPDEST SWAP4 POP PUSH1 0xC0 DUP11 ADD MLOAD SWAP2 POP DUP1 DUP3 GT ISZERO PUSH3 0x474 JUMPI PUSH1 0x0 DUP1 REVERT JUMPDEST POP PUSH3 0x483 DUP11 DUP3 DUP12 ADD PUSH3 0x32D JUMP JUMPDEST SWAP2 POP POP SWAP3 SWAP6 SWAP9 SWAP2 SWAP5 SWAP8 POP SWAP3 SWAP6 POP JUMP JUMPDEST PUSH1 0x0 PUSH1 0x20 DUP3 DUP5 SUB SLT ISZERO PUSH3 0x4A5 JUMPI PUSH1 0x0 DUP1 REVERT JUMPDEST DUP2 MLOAD PUSH1 0x1 PUSH1 0x1 PUSH1 0x40 SHL SUB DUP2 GT ISZERO PUSH3 0x4BC JUMPI PUSH1 0x0 DUP1 REVERT JUMPDEST PUSH3 0x4CA DUP5 DUP3 DUP6 ADD PUSH3 0x32D JUMP JUMPDEST SWAP5 SWAP4 POP POP POP POP JUMP JUMPDEST PUSH1 0x0 PUSH1 0x20 DUP3 DUP5 SUB SLT ISZERO PUSH3 0x4E5 JUMPI PUSH1 0x0 DUP1 REVERT JUMPDEST DUP2 MLOAD PUSH1 0xFF DUP2 AND DUP2 EQ PUSH3 0x4F7 JUMPI PUSH1 0x0 DUP1 REVERT JUMPDEST SWAP4 SWAP3 POP POP POP JUMP JUMPDEST PUSH1 0x1 DUP2 DUP2 SHR SWAP1 DUP3 AND DUP1 PUSH3 0x513 JUMPI PUSH1 0x7F DUP3 AND SWAP2 POP JUMPDEST PUSH1 0x20 DUP3 LT DUP2 EQ ISZERO PUSH3 0x535 JUMPI PUSH4 0x4E487B71 PUSH1 0xE0 SHL PUSH1 0x0 MSTORE PUSH1 0x22 PUSH1 0x4 MSTORE PUSH1 0x24 PUSH1 0x0 REVERT JUMPDEST POP SWAP2 SWAP1 POP JUMP JUMPDEST PUSH2 0x4FC DUP1 PUSH3 0x54B PUSH1 0x0 CODECOPY PUSH1 0x0 RETURN INVALID PUSH1 0x80 PUSH1 0x40 MSTORE CALLVALUE DUP1 ISZERO PUSH2 0x10 JUMPI PUSH1 0x0 DUP1 REVERT JUMPDEST POP PUSH1 0x4 CALLDATASIZE LT PUSH2 0xEA JUMPI PUSH1 0x0 CALLDATALOAD PUSH1 0xE0 SHR DUP1 PUSH4 0x9C6F0D85 GT PUSH2 0x8C JUMPI DUP1 PUSH4 0xBB5D40EB GT PUSH2 0x66 JUMPI DUP1 PUSH4 0xBB5D40EB EQ PUSH2 0x1BD JUMPI DUP1 PUSH4 0xC45A0155 EQ PUSH2 0x1C5 JUMPI DUP1 PUSH4 0xE21F37CE EQ PUSH2 0x1D8 JUMPI DUP1 PUSH4 0xFC0C546A EQ PUSH2 0x1E0 JUMPI PUSH1 0x0 DUP1 REVERT JUMPDEST DUP1 PUSH4 0x9C6F0D85 EQ PUSH2 0x1A3 JUMPI DUP1 PUSH4 0xAA8C217C EQ PUSH2 0x1AC JUMPI DUP1 PUSH4 0xB39CB699 EQ PUSH2 0x1B5 JUMPI PUSH1 0x0 DUP1 REVERT JUMPDEST DUP1 PUSH4 0x313CE567 GT PUSH2 0xC8 JUMPI DUP1 PUSH4 0x313CE567 EQ PUSH2 0x14D JUMPI DUP1 PUSH4 0x57C9CA14 EQ PUSH2 0x16C JUMPI DUP1 PUSH4 0x7EB9385F EQ PUSH2 0x184 JUMPI DUP1 PUSH4 0x95D89B41 EQ PUSH2 0x19B JUMPI PUSH1 0x0 DUP1 REVERT JUMPDEST DUP1 PUSH4 0x6FDDE03 EQ PUSH2 0xEF JUMPI DUP1 PUSH4 0x7546172 EQ PUSH2 0x10D JUMPI DUP1 PUSH4 0x1E83409A EQ PUSH2 0x138 JUMPI JUMPDEST PUSH1 0x0 DUP1 REVERT JUMPDEST PUSH2 0xF7 PUSH2 0x1F3 JUMP JUMPDEST PUSH1 0x40 MLOAD PUSH2 0x104 SWAP2 SWAP1 PUSH2 0x3BE JUMP JUMPDEST PUSH1 0x40 MLOAD DUP1 SWAP2 SUB SWAP1 RETURN JUMPDEST PUSH1 0x2 SLOAD PUSH2 0x120 SWAP1 PUSH1 0x1 PUSH1 0x1 PUSH1 0xA0 SHL SUB AND DUP2 JUMP JUMPDEST PUSH1 0x40 MLOAD PUSH1 0x1 PUSH1 0x1 PUSH1 0xA0 SHL SUB SWAP1 SWAP2 AND DUP2 MSTORE PUSH1 0x20 ADD PUSH2 0x104 JUMP JUMPDEST PUSH2 0x14B PUSH2 0x146 CALLDATASIZE PUSH1 0x4 PUSH2 0x413 JUMP JUMPDEST PUSH2 0x281 JUMP JUMPDEST STOP JUMPDEST PUSH1 0x6 SLOAD PUSH2 0x15A SWAP1 PUSH1 0xFF AND DUP2 JUMP JUMPDEST PUSH1 0x40 MLOAD PUSH1 0xFF SWAP1 SWAP2 AND DUP2 MSTORE PUSH1 0x20 ADD PUSH2 0x104 JUMP JUMPDEST PUSH2 0x174 PUSH2 0x301 JUMP JUMPDEST PUSH1 0x40 MLOAD SWAP1 ISZERO ISZERO DUP2 MSTORE PUSH1 0x20 ADD PUSH2 0x104 JUMP JUMPDEST PUSH2 0x18D PUSH1 0xA SLOAD DUP2 JUMP JUMPDEST PUSH1 0x40 MLOAD SWAP1 DUP2 MSTORE PUSH1 0x20 ADD PUSH2 0x104 JUMP JUMPDEST PUSH2 0xF7 PUSH2 0x373 JUMP JUMPDEST PUSH2 0x18D PUSH1 0x9 SLOAD DUP2 JUMP JUMPDEST PUSH2 0x18D PUSH1 0x3 SLOAD DUP2 JUMP JUMPDEST PUSH2 0xF7 PUSH2 0x380 JUMP JUMPDEST PUSH2 0x174 PUSH2 0x38D JUMP JUMPDEST PUSH1 0x0 SLOAD PUSH2 0x120 SWAP1 PUSH1 0x1 PUSH1 0x1 PUSH1 0xA0 SHL SUB AND DUP2 JUMP JUMPDEST PUSH2 0xF7 PUSH2 0x3B1 JUMP JUMPDEST PUSH1 0x1 SLOAD PUSH2 0x120 SWAP1 PUSH1 0x1 PUSH1 0x1 PUSH1 0xA0 SHL SUB AND DUP2 JUMP JUMPDEST PUSH1 0x4 DUP1 SLOAD PUSH2 0x200 SWAP1 PUSH2 0x443 JUMP JUMPDEST DUP1 PUSH1 0x1F ADD PUSH1 0x20 DUP1 SWAP2 DIV MUL PUSH1 0x20 ADD PUSH1 0x40 MLOAD SWAP1 DUP2 ADD PUSH1 0x40 MSTORE DUP1 SWAP3 SWAP2 SWAP1 DUP2 DUP2 MSTORE PUSH1 0x20 ADD DUP3 DUP1 SLOAD PUSH2 0x22C SWAP1 PUSH2 0x443 JUMP JUMPDEST DUP1 ISZERO PUSH2 0x279 JUMPI DUP1 PUSH1 0x1F LT PUSH2 0x24E JUMPI PUSH2 0x100 DUP1 DUP4 SLOAD DIV MUL DUP4 MSTORE SWAP2 PUSH1 0x20 ADD SWAP2 PUSH2 0x279 JUMP JUMPDEST DUP3 ADD SWAP2 SWAP1 PUSH1 0x0 MSTORE PUSH1 0x20 PUSH1 0x0 KECCAK256 SWAP1 JUMPDEST DUP2 SLOAD DUP2 MSTORE SWAP1 PUSH1 0x1 ADD SWAP1 PUSH1 0x20 ADD DUP1 DUP4 GT PUSH2 0x25C JUMPI DUP3 SWAP1 SUB PUSH1 0x1F AND DUP3 ADD SWAP2 JUMPDEST POP POP POP POP POP DUP2 JUMP JUMPDEST PUSH1 0x0 SLOAD PUSH1 0x1 PUSH1 0x1 PUSH1 0xA0 SHL SUB SWAP1 DUP2 AND SWAP1 PUSH4 0x1E83409A SWAP1 DUP4 AND ISZERO PUSH2 0x2A3 JUMPI DUP3 PUSH2 0x2A5 JUMP JUMPDEST CALLER JUMPDEST PUSH1 0x40 MLOAD PUSH1 0x1 PUSH1 0x1 PUSH1 0xE0 SHL SUB NOT PUSH1 0xE0 DUP5 SWAP1 SHL AND DUP2 MSTORE PUSH1 0x1 PUSH1 0x1 PUSH1 0xA0 SHL SUB SWAP1 SWAP2 AND PUSH1 0x4 DUP3 ADD MSTORE PUSH1 0x24 ADD PUSH1 0x0 PUSH1 0x40 MLOAD DUP1 DUP4 SUB DUP2 PUSH1 0x0 DUP8 DUP1 EXTCODESIZE ISZERO DUP1 ISZERO PUSH2 0x2E6 JUMPI PUSH1 0x0 DUP1 REVERT JUMPDEST POP GAS CALL ISZERO DUP1 ISZERO PUSH2 0x2FA JUMPI RETURNDATASIZE PUSH1 0x0 DUP1 RETURNDATACOPY RETURNDATASIZE PUSH1 0x0 REVERT JUMPDEST POP POP POP POP POP JUMP JUMPDEST PUSH1 0x0 DUP1 SLOAD PUSH1 0x40 MLOAD PUSH4 0x2A4E4553 PUSH1 0xE0 SHL DUP2 MSTORE ADDRESS PUSH1 0x4 DUP3 ADD MSTORE PUSH1 0x1 PUSH1 0x1 PUSH1 0xA0 SHL SUB SWAP1 SWAP2 AND SWAP1 PUSH4 0x2A4E4553 SWAP1 PUSH1 0x24 ADD PUSH1 0x20 PUSH1 0x40 MLOAD DUP1 DUP4 SUB DUP2 DUP7 GAS STATICCALL ISZERO DUP1 ISZERO PUSH2 0x34A JUMPI RETURNDATASIZE PUSH1 0x0 DUP1 RETURNDATACOPY RETURNDATASIZE PUSH1 0x0 REVERT JUMPDEST POP POP POP POP PUSH1 0x40 MLOAD RETURNDATASIZE PUSH1 0x1F NOT PUSH1 0x1F DUP3 ADD AND DUP3 ADD DUP1 PUSH1 0x40 MSTORE POP DUP2 ADD SWAP1 PUSH2 0x36E SWAP2 SWAP1 PUSH2 0x47E JUMP JUMPDEST SWAP1 POP SWAP1 JUMP JUMPDEST PUSH1 0x5 DUP1 SLOAD PUSH2 0x200 SWAP1 PUSH2 0x443 JUMP JUMPDEST PUSH1 0x7 DUP1 SLOAD PUSH2 0x200 SWAP1 PUSH2 0x443 JUMP JUMPDEST PUSH1 0x0 TIMESTAMP PUSH1 0xA SLOAD PUSH1 0x9 SLOAD PUSH2 0x3A0 SWAP2 SWAP1 PUSH2 0x4A0 JUMP JUMPDEST GT PUSH2 0x3AB JUMPI POP PUSH1 0x0 SWAP1 JUMP JUMPDEST POP PUSH1 0x1 SWAP1 JUMP JUMPDEST PUSH1 0x8 DUP1 SLOAD PUSH2 0x200 SWAP1 PUSH2 0x443 JUMP JUMPDEST PUSH1 0x0 PUSH1 0x20 DUP1 DUP4 MSTORE DUP4 MLOAD DUP1 DUP3 DUP6 ADD MSTORE PUSH1 0x0 JUMPDEST DUP2 DUP2 LT ISZERO PUSH2 0x3EB JUMPI DUP6 DUP2 ADD DUP4 ADD MLOAD DUP6 DUP3 ADD PUSH1 0x40 ADD MSTORE DUP3 ADD PUSH2 0x3CF JUMP JUMPDEST DUP2 DUP2 GT ISZERO PUSH2 0x3FD JUMPI PUSH1 0x0 PUSH1 0x40 DUP4 DUP8 ADD ADD MSTORE JUMPDEST POP PUSH1 0x1F ADD PUSH1 0x1F NOT AND SWAP3 SWAP1 SWAP3 ADD PUSH1 0x40 ADD SWAP4 SWAP3 POP POP POP JUMP JUMPDEST PUSH1 0x0 PUSH1 0x20 DUP3 DUP5 SUB SLT ISZERO PUSH2 0x425 JUMPI PUSH1 0x0 DUP1 REVERT JUMPDEST DUP2 CALLDATALOAD PUSH1 0x1 PUSH1 0x1 PUSH1 0xA0 SHL SUB DUP2 AND DUP2 EQ PUSH2 0x43C JUMPI PUSH1 0x0 DUP1 REVERT JUMPDEST SWAP4 SWAP3 POP POP POP JUMP JUMPDEST PUSH1 0x1 DUP2 DUP2 SHR SWAP1 DUP3 AND DUP1 PUSH2 0x457 JUMPI PUSH1 0x7F DUP3 AND SWAP2 POP JUMPDEST PUSH1 0x20 DUP3 LT DUP2 EQ ISZERO PUSH2 0x478 JUMPI PUSH4 0x4E487B71 PUSH1 0xE0 SHL PUSH1 0x0 MSTORE PUSH1 0x22 PUSH1 0x4 MSTORE PUSH1 0x24 PUSH1 0x0 REVERT JUMPDEST POP SWAP2 SWAP1 POP JUMP JUMPDEST PUSH1 0x0 PUSH1 0x20 DUP3 DUP5 SUB SLT ISZERO PUSH2 0x490 JUMPI PUSH1 0x0 DUP1 REVERT JUMPDEST DUP2 MLOAD DUP1 ISZERO ISZERO DUP2 EQ PUSH2 0x43C JUMPI PUSH1 0x0 DUP1 REVERT JUMPDEST PUSH1 0x0 DUP3 NOT DUP3 GT ISZERO PUSH2 0x4C1 JUMPI PUSH4 0x4E487B71 PUSH1 0xE0 SHL PUSH1 0x0 MSTORE PUSH1 0x11 PUSH1 0x4 MSTORE PUSH1 0x24 PUSH1 0x0 REVERT JUMPDEST POP ADD SWAP1 JUMP INVALID LOG2 PUSH5 0x6970667358 0x22 SLT KECCAK256 0xB5 RETURNDATASIZE 0xD0 PUSH17 0x8331869CC60DACD6E02783129AE73535F5 0xE6 0xB3 SSTORE PUSH5 0x6DCCA264C2 0x25 0x2B PUSH5 0x736F6C6343 STOP ADDMOD 0xC STOP CALLER LOG2 PUSH5 0x6970667358 0x22 SLT KECCAK256 PUSH20 0xACCCDC4402585DD8ED470111AD09A4EE6A28FE33 PUSH21 0x9ACEE6738175874C470164736F6C634300080C0033 "
		},
		"gasEstimates": {
			"creation": {
				"codeDepositCost": "4264000",
				"executionCost": "infinite",
				"totalCost": "infinite"
			},
			"external": {
				"addClaimerBan(address,string)": "infinite",
				"addMinter(address,string)": "infinite",
				"addMinterBalance(address,uint256)": "infinite",
				"claim(address)": "infinite",
				"claimedAmount(address)": "2594",
				"claimedByMinter(address)": "2636",
				"claimedFaucetUsed(address)": "2592",
				"claimedQrCodes(address,uint256)": "4862",
				"claimedQrCodesCount(address)": "2570",
				"codeTL()": "2374",
				"delClaimerBan(address)": "infinite",
				"faucetAmount()": "2396",
				"getAddressNativeBalance(address)": "3040",
				"getAddressTokenBalance(address)": "infinite",
				"getAllQrCodes()": "infinite",
				"getBannedClaimers(uint256,uint256)": "infinite",
				"getBannedClaimersCount()": "infinite",
				"getClaimedQrCodes(address,uint256,uint256)": "infinite",
				"getClaimerInfo(address)": "infinite",
				"getClaimers(uint256,uint256)": "infinite",
				"getClaimersCount()": "infinite",
				"getClaimersInfo(uint256,uint256)": "infinite",
				"getFaucetBalance()": "271",
				"getIsManager(address)": "infinite",
				"getIsMinter(address)": "infinite",
				"getManagers()": "infinite",
				"getManagersCount()": "infinite",
				"getMinterInfo(address)": "infinite",
				"getMinterQrCodes(address,uint256,uint256)": "infinite",
				"getMinters()": "infinite",
				"getMintersCount()": "infinite",
				"getMintersInfo()": "infinite",
				"getQrCode(uint256)": "infinite",
				"getQrCodeByAddress(address)": "infinite",
				"getTokenBalance()": "infinite",
				"getTokenDecimals()": "infinite",
				"getTokenName()": "infinite",
				"getTokenSymbol()": "infinite",
				"isQrCodeClaimed(address)": "7042",
				"maxMintAmountPerQrCodeGlobal()": "2396",
				"mint(uint256,uint256,string)": "infinite",
				"mintedAmount(address)": "2634",
				"mintedQrCodes(address,uint256)": "4818",
				"mintedQrCodesCount(address)": "2592",
				"mintersName(address)": "infinite",
				"owner()": "2471",
				"qrCodes(uint256)": "infinite",
				"qrCodesLength()": "2375",
				"qrCodesRouters(address)": "2613",
				"setCodeTL(uint256)": "24553",
				"setFaucetAmount(uint256)": "24577",
				"setIsManager(address,bool)": "infinite",
				"setIsMinter(address,bool)": "infinite",
				"setMaxMintAmountPerQrCode(address,uint256)": "infinite",
				"setMaxMintAmountPerQrCodeGlobal(uint256)": "infinite",
				"setMinterBalance(address,uint256)": "infinite",
				"setMinterName(address,string)": "infinite",
				"tokenAddress()": "2471",
				"totalClaimedAmount()": "2352",
				"totalFaucetAmount()": "2417",
				"totalMintedAmount()": "2417",
				"totalQrCodesClaimed()": "2351",
				"transferOwnership(address)": "26850"
			}
		},
		"methodIdentifiers": {
			"addClaimerBan(address,string)": "76678d84",
			"addMinter(address,string)": "424f3c8e",
			"addMinterBalance(address,uint256)": "384e491d",
			"claim(address)": "1e83409a",
			"claimedAmount(address)": "04e86903",
			"claimedByMinter(address)": "3e70703e",
			"claimedFaucetUsed(address)": "2e42add7",
			"claimedQrCodes(address,uint256)": "44e2ad99",
			"claimedQrCodesCount(address)": "ad4ad7ca",
			"codeTL()": "563d3ca3",
			"delClaimerBan(address)": "0075c377",
			"faucetAmount()": "9c281430",
			"getAddressNativeBalance(address)": "d846ceae",
			"getAddressTokenBalance(address)": "a50ffda5",
			"getAllQrCodes()": "572d4721",
			"getBannedClaimers(uint256,uint256)": "5a2f7133",
			"getBannedClaimersCount()": "66800995",
			"getClaimedQrCodes(address,uint256,uint256)": "4f513277",
			"getClaimerInfo(address)": "878d7d87",
			"getClaimers(uint256,uint256)": "98adcc97",
			"getClaimersCount()": "4078eeb2",
			"getClaimersInfo(uint256,uint256)": "41be8b94",
			"getFaucetBalance()": "f1f959a6",
			"getIsManager(address)": "198e14f8",
			"getIsMinter(address)": "17fc30d4",
			"getManagers()": "a8d088bb",
			"getManagersCount()": "ceeabbf6",
			"getMinterInfo(address)": "f09b2203",
			"getMinterQrCodes(address,uint256,uint256)": "e43e5541",
			"getMinters()": "6b32810b",
			"getMintersCount()": "eed31986",
			"getMintersInfo()": "143f338c",
			"getQrCode(uint256)": "6f7ab8d1",
			"getQrCodeByAddress(address)": "81b5479d",
			"getTokenBalance()": "82b2e257",
			"getTokenDecimals()": "24f65ee7",
			"getTokenName()": "862b092b",
			"getTokenSymbol()": "f1850af8",
			"isQrCodeClaimed(address)": "2a4e4553",
			"maxMintAmountPerQrCodeGlobal()": "892ff8bd",
			"mint(uint256,uint256,string)": "c6e64e53",
			"mintedAmount(address)": "fbbf8cc3",
			"mintedQrCodes(address,uint256)": "206855d0",
			"mintedQrCodesCount(address)": "b862251f",
			"mintersName(address)": "d3a51ff2",
			"owner()": "8da5cb5b",
			"qrCodes(uint256)": "6ca80026",
			"qrCodesLength()": "1654d42c",
			"qrCodesRouters(address)": "dccb445b",
			"setCodeTL(uint256)": "a01bad52",
			"setFaucetAmount(uint256)": "81d2fd9c",
			"setIsManager(address,bool)": "26767f90",
			"setIsMinter(address,bool)": "66eb399f",
			"setMaxMintAmountPerQrCode(address,uint256)": "59d1bd80",
			"setMaxMintAmountPerQrCodeGlobal(uint256)": "04f32a1d",
			"setMinterBalance(address,uint256)": "66059a16",
			"setMinterName(address,string)": "ece76435",
			"tokenAddress()": "9d76ea58",
			"totalClaimedAmount()": "9661cb0d",
			"totalFaucetAmount()": "f1294ef6",
			"totalMintedAmount()": "6f865e6f",
			"totalQrCodesClaimed()": "9db1ff16",
			"transferOwnership(address)": "f2fde38b"
		}
	},
	"abi": [
		{
			"inputs": [
				{
					"internalType": "address",
					"name": "_tokenAddress",
					"type": "address"
				}
			],
			"stateMutability": "nonpayable",
			"type": "constructor"
		},
		{
			"anonymous": false,
			"inputs": [
				{
					"indexed": false,
					"internalType": "address",
					"name": "qrcode",
					"type": "address"
				}
			],
			"name": "QrCodeMinted",
			"type": "event"
		},
		{
			"inputs": [
				{
					"internalType": "address",
					"name": "claimer",
					"type": "address"
				},
				{
					"internalType": "string",
					"name": "why",
					"type": "string"
				}
			],
			"name": "addClaimerBan",
			"outputs": [],
			"stateMutability": "nonpayable",
			"type": "function"
		},
		{
			"inputs": [
				{
					"internalType": "address",
					"name": "minter",
					"type": "address"
				},
				{
					"internalType": "string",
					"name": "name",
					"type": "string"
				}
			],
			"name": "addMinter",
			"outputs": [],
			"stateMutability": "nonpayable",
			"type": "function"
		},
		{
			"inputs": [
				{
					"internalType": "address",
					"name": "minter",
					"type": "address"
				},
				{
					"internalType": "uint256",
					"name": "amount",
					"type": "uint256"
				}
			],
			"name": "addMinterBalance",
			"outputs": [],
			"stateMutability": "nonpayable",
			"type": "function"
		},
		{
			"inputs": [
				{
					"internalType": "address",
					"name": "claimer",
					"type": "address"
				}
			],
			"name": "claim",
			"outputs": [],
			"stateMutability": "nonpayable",
			"type": "function"
		},
		{
			"inputs": [
				{
					"internalType": "address",
					"name": "",
					"type": "address"
				}
			],
			"name": "claimedAmount",
			"outputs": [
				{
					"internalType": "uint256",
					"name": "",
					"type": "uint256"
				}
			],
			"stateMutability": "view",
			"type": "function"
		},
		{
			"inputs": [
				{
					"internalType": "address",
					"name": "",
					"type": "address"
				}
			],
			"name": "claimedByMinter",
			"outputs": [
				{
					"internalType": "uint256",
					"name": "",
					"type": "uint256"
				}
			],
			"stateMutability": "view",
			"type": "function"
		},
		{
			"inputs": [
				{
					"internalType": "address",
					"name": "",
					"type": "address"
				}
			],
			"name": "claimedFaucetUsed",
			"outputs": [
				{
					"internalType": "uint256",
					"name": "",
					"type": "uint256"
				}
			],
			"stateMutability": "view",
			"type": "function"
		},
		{
			"inputs": [
				{
					"internalType": "address",
					"name": "",
					"type": "address"
				},
				{
					"internalType": "uint256",
					"name": "",
					"type": "uint256"
				}
			],
			"name": "claimedQrCodes",
			"outputs": [
				{
					"internalType": "uint256",
					"name": "",
					"type": "uint256"
				}
			],
			"stateMutability": "view",
			"type": "function"
		},
		{
			"inputs": [
				{
					"internalType": "address",
					"name": "",
					"type": "address"
				}
			],
			"name": "claimedQrCodesCount",
			"outputs": [
				{
					"internalType": "uint256",
					"name": "",
					"type": "uint256"
				}
			],
			"stateMutability": "view",
			"type": "function"
		},
		{
			"inputs": [],
			"name": "codeTL",
			"outputs": [
				{
					"internalType": "uint256",
					"name": "",
					"type": "uint256"
				}
			],
			"stateMutability": "view",
			"type": "function"
		},
		{
			"inputs": [
				{
					"internalType": "address",
					"name": "claimer",
					"type": "address"
				}
			],
			"name": "delClaimerBan",
			"outputs": [],
			"stateMutability": "nonpayable",
			"type": "function"
		},
		{
			"inputs": [],
			"name": "faucetAmount",
			"outputs": [
				{
					"internalType": "uint256",
					"name": "",
					"type": "uint256"
				}
			],
			"stateMutability": "view",
			"type": "function"
		},
		{
			"inputs": [
				{
					"internalType": "address",
					"name": "_address",
					"type": "address"
				}
			],
			"name": "getAddressNativeBalance",
			"outputs": [
				{
					"internalType": "uint256",
					"name": "",
					"type": "uint256"
				}
			],
			"stateMutability": "view",
			"type": "function"
		},
		{
			"inputs": [
				{
					"internalType": "address",
					"name": "_address",
					"type": "address"
				}
			],
			"name": "getAddressTokenBalance",
			"outputs": [
				{
					"internalType": "uint256",
					"name": "",
					"type": "uint256"
				}
			],
			"stateMutability": "view",
			"type": "function"
		},
		{
			"inputs": [],
			"name": "getAllQrCodes",
			"outputs": [
				{
					"components": [
						{
							"internalType": "uint256",
							"name": "id",
							"type": "uint256"
						},
						{
							"internalType": "uint256",
							"name": "amount",
							"type": "uint256"
						},
						{
							"internalType": "address",
							"name": "minter",
							"type": "address"
						},
						{
							"internalType": "address",
							"name": "claimer",
							"type": "address"
						},
						{
							"internalType": "uint256",
							"name": "minted_at",
							"type": "uint256"
						},
						{
							"internalType": "uint256",
							"name": "claimed_at",
							"type": "uint256"
						},
						{
							"internalType": "uint256",
							"name": "timelife",
							"type": "uint256"
						},
						{
							"internalType": "address",
							"name": "router",
							"type": "address"
						},
						{
							"internalType": "string",
							"name": "message",
							"type": "string"
						}
					],
					"internalType": "struct QRCodeFactory.QRCODE[]",
					"name": "",
					"type": "tuple[]"
				}
			],
			"stateMutability": "view",
			"type": "function"
		},
		{
			"inputs": [
				{
					"internalType": "uint256",
					"name": "offset",
					"type": "uint256"
				},
				{
					"internalType": "uint256",
					"name": "limit",
					"type": "uint256"
				}
			],
			"name": "getBannedClaimers",
			"outputs": [
				{
					"components": [
						{
							"internalType": "address",
							"name": "claimer",
							"type": "address"
						},
						{
							"internalType": "address",
							"name": "who",
							"type": "address"
						},
						{
							"internalType": "string",
							"name": "why",
							"type": "string"
						},
						{
							"internalType": "uint256",
							"name": "when",
							"type": "uint256"
						}
					],
					"internalType": "struct QRCodeFactory.BannedClaimer[]",
					"name": "",
					"type": "tuple[]"
				}
			],
			"stateMutability": "view",
			"type": "function"
		},
		{
			"inputs": [],
			"name": "getBannedClaimersCount",
			"outputs": [
				{
					"internalType": "uint256",
					"name": "",
					"type": "uint256"
				}
			],
			"stateMutability": "view",
			"type": "function"
		},
		{
			"inputs": [
				{
					"internalType": "address",
					"name": "claimer",
					"type": "address"
				},
				{
					"internalType": "uint256",
					"name": "offset",
					"type": "uint256"
				},
				{
					"internalType": "uint256",
					"name": "limit",
					"type": "uint256"
				}
			],
			"name": "getClaimedQrCodes",
			"outputs": [
				{
					"components": [
						{
							"internalType": "uint256",
							"name": "id",
							"type": "uint256"
						},
						{
							"internalType": "uint256",
							"name": "amount",
							"type": "uint256"
						},
						{
							"internalType": "address",
							"name": "minter",
							"type": "address"
						},
						{
							"internalType": "address",
							"name": "claimer",
							"type": "address"
						},
						{
							"internalType": "uint256",
							"name": "minted_at",
							"type": "uint256"
						},
						{
							"internalType": "uint256",
							"name": "claimed_at",
							"type": "uint256"
						},
						{
							"internalType": "uint256",
							"name": "timelife",
							"type": "uint256"
						},
						{
							"internalType": "address",
							"name": "router",
							"type": "address"
						},
						{
							"internalType": "string",
							"name": "message",
							"type": "string"
						}
					],
					"internalType": "struct QRCodeFactory.QRCODE[]",
					"name": "",
					"type": "tuple[]"
				}
			],
			"stateMutability": "view",
			"type": "function"
		},
		{
			"inputs": [
				{
					"internalType": "address",
					"name": "claimer",
					"type": "address"
				}
			],
			"name": "getClaimerInfo",
			"outputs": [
				{
					"components": [
						{
							"internalType": "address",
							"name": "claimerAddress",
							"type": "address"
						},
						{
							"internalType": "uint256",
							"name": "claimedAmount",
							"type": "uint256"
						},
						{
							"internalType": "uint256[]",
							"name": "claimedQrCodes",
							"type": "uint256[]"
						},
						{
							"internalType": "uint256",
							"name": "claimedQrCodesCount",
							"type": "uint256"
						},
						{
							"internalType": "uint256",
							"name": "faucetUsed",
							"type": "uint256"
						},
						{
							"internalType": "bool",
							"name": "isBanned",
							"type": "bool"
						}
					],
					"internalType": "struct QRCodeFactory.ClaimerInfo",
					"name": "ret",
					"type": "tuple"
				}
			],
			"stateMutability": "view",
			"type": "function"
		},
		{
			"inputs": [
				{
					"internalType": "uint256",
					"name": "offset",
					"type": "uint256"
				},
				{
					"internalType": "uint256",
					"name": "limit",
					"type": "uint256"
				}
			],
			"name": "getClaimers",
			"outputs": [
				{
					"internalType": "address[]",
					"name": "",
					"type": "address[]"
				}
			],
			"stateMutability": "view",
			"type": "function"
		},
		{
			"inputs": [],
			"name": "getClaimersCount",
			"outputs": [
				{
					"internalType": "uint256",
					"name": "",
					"type": "uint256"
				}
			],
			"stateMutability": "view",
			"type": "function"
		},
		{
			"inputs": [
				{
					"internalType": "uint256",
					"name": "offset",
					"type": "uint256"
				},
				{
					"internalType": "uint256",
					"name": "limit",
					"type": "uint256"
				}
			],
			"name": "getClaimersInfo",
			"outputs": [
				{
					"components": [
						{
							"internalType": "address",
							"name": "claimerAddress",
							"type": "address"
						},
						{
							"internalType": "uint256",
							"name": "claimedAmount",
							"type": "uint256"
						},
						{
							"internalType": "uint256[]",
							"name": "claimedQrCodes",
							"type": "uint256[]"
						},
						{
							"internalType": "uint256",
							"name": "claimedQrCodesCount",
							"type": "uint256"
						},
						{
							"internalType": "uint256",
							"name": "faucetUsed",
							"type": "uint256"
						},
						{
							"internalType": "bool",
							"name": "isBanned",
							"type": "bool"
						}
					],
					"internalType": "struct QRCodeFactory.ClaimerInfo[]",
					"name": "",
					"type": "tuple[]"
				}
			],
			"stateMutability": "view",
			"type": "function"
		},
		{
			"inputs": [],
			"name": "getFaucetBalance",
			"outputs": [
				{
					"internalType": "uint256",
					"name": "",
					"type": "uint256"
				}
			],
			"stateMutability": "view",
			"type": "function"
		},
		{
			"inputs": [
				{
					"internalType": "address",
					"name": "check",
					"type": "address"
				}
			],
			"name": "getIsManager",
			"outputs": [
				{
					"internalType": "bool",
					"name": "",
					"type": "bool"
				}
			],
			"stateMutability": "view",
			"type": "function"
		},
		{
			"inputs": [
				{
					"internalType": "address",
					"name": "check",
					"type": "address"
				}
			],
			"name": "getIsMinter",
			"outputs": [
				{
					"internalType": "bool",
					"name": "",
					"type": "bool"
				}
			],
			"stateMutability": "view",
			"type": "function"
		},
		{
			"inputs": [],
			"name": "getManagers",
			"outputs": [
				{
					"internalType": "address[]",
					"name": "",
					"type": "address[]"
				}
			],
			"stateMutability": "view",
			"type": "function"
		},
		{
			"inputs": [],
			"name": "getManagersCount",
			"outputs": [
				{
					"internalType": "uint256",
					"name": "",
					"type": "uint256"
				}
			],
			"stateMutability": "view",
			"type": "function"
		},
		{
			"inputs": [
				{
					"internalType": "address",
					"name": "minter",
					"type": "address"
				}
			],
			"name": "getMinterInfo",
			"outputs": [
				{
					"components": [
						{
							"internalType": "address",
							"name": "minterAddress",
							"type": "address"
						},
						{
							"internalType": "string",
							"name": "name",
							"type": "string"
						},
						{
							"internalType": "uint256",
							"name": "mintedAmount",
							"type": "uint256"
						},
						{
							"internalType": "uint256",
							"name": "claimedAmount",
							"type": "uint256"
						},
						{
							"internalType": "uint256[]",
							"name": "mintedQrCodes",
							"type": "uint256[]"
						},
						{
							"internalType": "uint256",
							"name": "mintedQrCodesCount",
							"type": "uint256"
						},
						{
							"internalType": "uint256",
							"name": "balance",
							"type": "uint256"
						}
					],
					"internalType": "struct QRCodeFactory.MinterInfo",
					"name": "ret",
					"type": "tuple"
				}
			],
			"stateMutability": "view",
			"type": "function"
		},
		{
			"inputs": [
				{
					"internalType": "address",
					"name": "minter",
					"type": "address"
				},
				{
					"internalType": "uint256",
					"name": "offset",
					"type": "uint256"
				},
				{
					"internalType": "uint256",
					"name": "limit",
					"type": "uint256"
				}
			],
			"name": "getMinterQrCodes",
			"outputs": [
				{
					"components": [
						{
							"internalType": "uint256",
							"name": "id",
							"type": "uint256"
						},
						{
							"internalType": "uint256",
							"name": "amount",
							"type": "uint256"
						},
						{
							"internalType": "address",
							"name": "minter",
							"type": "address"
						},
						{
							"internalType": "address",
							"name": "claimer",
							"type": "address"
						},
						{
							"internalType": "uint256",
							"name": "minted_at",
							"type": "uint256"
						},
						{
							"internalType": "uint256",
							"name": "claimed_at",
							"type": "uint256"
						},
						{
							"internalType": "uint256",
							"name": "timelife",
							"type": "uint256"
						},
						{
							"internalType": "address",
							"name": "router",
							"type": "address"
						},
						{
							"internalType": "string",
							"name": "message",
							"type": "string"
						}
					],
					"internalType": "struct QRCodeFactory.QRCODE[]",
					"name": "",
					"type": "tuple[]"
				}
			],
			"stateMutability": "view",
			"type": "function"
		},
		{
			"inputs": [],
			"name": "getMinters",
			"outputs": [
				{
					"internalType": "address[]",
					"name": "",
					"type": "address[]"
				}
			],
			"stateMutability": "view",
			"type": "function"
		},
		{
			"inputs": [],
			"name": "getMintersCount",
			"outputs": [
				{
					"internalType": "uint256",
					"name": "",
					"type": "uint256"
				}
			],
			"stateMutability": "view",
			"type": "function"
		},
		{
			"inputs": [],
			"name": "getMintersInfo",
			"outputs": [
				{
					"components": [
						{
							"internalType": "address",
							"name": "minterAddress",
							"type": "address"
						},
						{
							"internalType": "string",
							"name": "name",
							"type": "string"
						},
						{
							"internalType": "uint256",
							"name": "mintedAmount",
							"type": "uint256"
						},
						{
							"internalType": "uint256",
							"name": "claimedAmount",
							"type": "uint256"
						},
						{
							"internalType": "uint256[]",
							"name": "mintedQrCodes",
							"type": "uint256[]"
						},
						{
							"internalType": "uint256",
							"name": "mintedQrCodesCount",
							"type": "uint256"
						},
						{
							"internalType": "uint256",
							"name": "balance",
							"type": "uint256"
						}
					],
					"internalType": "struct QRCodeFactory.MinterInfo[]",
					"name": "",
					"type": "tuple[]"
				}
			],
			"stateMutability": "view",
			"type": "function"
		},
		{
			"inputs": [
				{
					"internalType": "uint256",
					"name": "index",
					"type": "uint256"
				}
			],
			"name": "getQrCode",
			"outputs": [
				{
					"components": [
						{
							"internalType": "uint256",
							"name": "id",
							"type": "uint256"
						},
						{
							"internalType": "uint256",
							"name": "amount",
							"type": "uint256"
						},
						{
							"internalType": "address",
							"name": "minter",
							"type": "address"
						},
						{
							"internalType": "address",
							"name": "claimer",
							"type": "address"
						},
						{
							"internalType": "uint256",
							"name": "minted_at",
							"type": "uint256"
						},
						{
							"internalType": "uint256",
							"name": "claimed_at",
							"type": "uint256"
						},
						{
							"internalType": "uint256",
							"name": "timelife",
							"type": "uint256"
						},
						{
							"internalType": "address",
							"name": "router",
							"type": "address"
						},
						{
							"internalType": "string",
							"name": "message",
							"type": "string"
						}
					],
					"internalType": "struct QRCodeFactory.QRCODE",
					"name": "",
					"type": "tuple"
				}
			],
			"stateMutability": "view",
			"type": "function"
		},
		{
			"inputs": [
				{
					"internalType": "address",
					"name": "router",
					"type": "address"
				}
			],
			"name": "getQrCodeByAddress",
			"outputs": [
				{
					"components": [
						{
							"internalType": "uint256",
							"name": "id",
							"type": "uint256"
						},
						{
							"internalType": "uint256",
							"name": "amount",
							"type": "uint256"
						},
						{
							"internalType": "address",
							"name": "minter",
							"type": "address"
						},
						{
							"internalType": "address",
							"name": "claimer",
							"type": "address"
						},
						{
							"internalType": "uint256",
							"name": "minted_at",
							"type": "uint256"
						},
						{
							"internalType": "uint256",
							"name": "claimed_at",
							"type": "uint256"
						},
						{
							"internalType": "uint256",
							"name": "timelife",
							"type": "uint256"
						},
						{
							"internalType": "address",
							"name": "router",
							"type": "address"
						},
						{
							"internalType": "string",
							"name": "message",
							"type": "string"
						}
					],
					"internalType": "struct QRCodeFactory.QRCODE",
					"name": "ret",
					"type": "tuple"
				}
			],
			"stateMutability": "view",
			"type": "function"
		},
		{
			"inputs": [],
			"name": "getTokenBalance",
			"outputs": [
				{
					"internalType": "uint256",
					"name": "",
					"type": "uint256"
				}
			],
			"stateMutability": "view",
			"type": "function"
		},
		{
			"inputs": [],
			"name": "getTokenDecimals",
			"outputs": [
				{
					"internalType": "uint256",
					"name": "",
					"type": "uint256"
				}
			],
			"stateMutability": "view",
			"type": "function"
		},
		{
			"inputs": [],
			"name": "getTokenName",
			"outputs": [
				{
					"internalType": "string",
					"name": "",
					"type": "string"
				}
			],
			"stateMutability": "view",
			"type": "function"
		},
		{
			"inputs": [],
			"name": "getTokenSymbol",
			"outputs": [
				{
					"internalType": "string",
					"name": "",
					"type": "string"
				}
			],
			"stateMutability": "view",
			"type": "function"
		},
		{
			"inputs": [
				{
					"internalType": "address",
					"name": "router",
					"type": "address"
				}
			],
			"name": "isQrCodeClaimed",
			"outputs": [
				{
					"internalType": "bool",
					"name": "",
					"type": "bool"
				}
			],
			"stateMutability": "view",
			"type": "function"
		},
		{
			"inputs": [],
			"name": "maxMintAmountPerQrCodeGlobal",
			"outputs": [
				{
					"internalType": "uint256",
					"name": "",
					"type": "uint256"
				}
			],
			"stateMutability": "view",
			"type": "function"
		},
		{
			"inputs": [
				{
					"internalType": "uint256",
					"name": "_amount",
					"type": "uint256"
				},
				{
					"internalType": "uint256",
					"name": "_timelife",
					"type": "uint256"
				},
				{
					"internalType": "string",
					"name": "_message",
					"type": "string"
				}
			],
			"name": "mint",
			"outputs": [
				{
					"internalType": "address",
					"name": "",
					"type": "address"
				}
			],
			"stateMutability": "nonpayable",
			"type": "function"
		},
		{
			"inputs": [
				{
					"internalType": "address",
					"name": "",
					"type": "address"
				}
			],
			"name": "mintedAmount",
			"outputs": [
				{
					"internalType": "uint256",
					"name": "",
					"type": "uint256"
				}
			],
			"stateMutability": "view",
			"type": "function"
		},
		{
			"inputs": [
				{
					"internalType": "address",
					"name": "",
					"type": "address"
				},
				{
					"internalType": "uint256",
					"name": "",
					"type": "uint256"
				}
			],
			"name": "mintedQrCodes",
			"outputs": [
				{
					"internalType": "uint256",
					"name": "",
					"type": "uint256"
				}
			],
			"stateMutability": "view",
			"type": "function"
		},
		{
			"inputs": [
				{
					"internalType": "address",
					"name": "",
					"type": "address"
				}
			],
			"name": "mintedQrCodesCount",
			"outputs": [
				{
					"internalType": "uint256",
					"name": "",
					"type": "uint256"
				}
			],
			"stateMutability": "view",
			"type": "function"
		},
		{
			"inputs": [
				{
					"internalType": "address",
					"name": "",
					"type": "address"
				}
			],
			"name": "mintersName",
			"outputs": [
				{
					"internalType": "string",
					"name": "",
					"type": "string"
				}
			],
			"stateMutability": "view",
			"type": "function"
		},
		{
			"inputs": [],
			"name": "owner",
			"outputs": [
				{
					"internalType": "address",
					"name": "",
					"type": "address"
				}
			],
			"stateMutability": "view",
			"type": "function"
		},
		{
			"inputs": [
				{
					"internalType": "uint256",
					"name": "",
					"type": "uint256"
				}
			],
			"name": "qrCodes",
			"outputs": [
				{
					"internalType": "uint256",
					"name": "id",
					"type": "uint256"
				},
				{
					"internalType": "uint256",
					"name": "amount",
					"type": "uint256"
				},
				{
					"internalType": "address",
					"name": "minter",
					"type": "address"
				},
				{
					"internalType": "address",
					"name": "claimer",
					"type": "address"
				},
				{
					"internalType": "uint256",
					"name": "minted_at",
					"type": "uint256"
				},
				{
					"internalType": "uint256",
					"name": "claimed_at",
					"type": "uint256"
				},
				{
					"internalType": "uint256",
					"name": "timelife",
					"type": "uint256"
				},
				{
					"internalType": "address",
					"name": "router",
					"type": "address"
				},
				{
					"internalType": "string",
					"name": "message",
					"type": "string"
				}
			],
			"stateMutability": "view",
			"type": "function"
		},
		{
			"inputs": [],
			"name": "qrCodesLength",
			"outputs": [
				{
					"internalType": "uint256",
					"name": "",
					"type": "uint256"
				}
			],
			"stateMutability": "view",
			"type": "function"
		},
		{
			"inputs": [
				{
					"internalType": "address",
					"name": "",
					"type": "address"
				}
			],
			"name": "qrCodesRouters",
			"outputs": [
				{
					"internalType": "uint256",
					"name": "",
					"type": "uint256"
				}
			],
			"stateMutability": "view",
			"type": "function"
		},
		{
			"inputs": [
				{
					"internalType": "uint256",
					"name": "_codeTL",
					"type": "uint256"
				}
			],
			"name": "setCodeTL",
			"outputs": [],
			"stateMutability": "nonpayable",
			"type": "function"
		},
		{
			"inputs": [
				{
					"internalType": "uint256",
					"name": "_faucetAmount",
					"type": "uint256"
				}
			],
			"name": "setFaucetAmount",
			"outputs": [],
			"stateMutability": "nonpayable",
			"type": "function"
		},
		{
			"inputs": [
				{
					"internalType": "address",
					"name": "who",
					"type": "address"
				},
				{
					"internalType": "bool",
					"name": "isManager",
					"type": "bool"
				}
			],
			"name": "setIsManager",
			"outputs": [],
			"stateMutability": "nonpayable",
			"type": "function"
		},
		{
			"inputs": [
				{
					"internalType": "address",
					"name": "who",
					"type": "address"
				},
				{
					"internalType": "bool",
					"name": "isMinter",
					"type": "bool"
				}
			],
			"name": "setIsMinter",
			"outputs": [],
			"stateMutability": "nonpayable",
			"type": "function"
		},
		{
			"inputs": [
				{
					"internalType": "address",
					"name": "minter",
					"type": "address"
				},
				{
					"internalType": "uint256",
					"name": "newLimit",
					"type": "uint256"
				}
			],
			"name": "setMaxMintAmountPerQrCode",
			"outputs": [],
			"stateMutability": "nonpayable",
			"type": "function"
		},
		{
			"inputs": [
				{
					"internalType": "uint256",
					"name": "newLimit",
					"type": "uint256"
				}
			],
			"name": "setMaxMintAmountPerQrCodeGlobal",
			"outputs": [],
			"stateMutability": "nonpayable",
			"type": "function"
		},
		{
			"inputs": [
				{
					"internalType": "address",
					"name": "minter",
					"type": "address"
				},
				{
					"internalType": "uint256",
					"name": "newBalance",
					"type": "uint256"
				}
			],
			"name": "setMinterBalance",
			"outputs": [],
			"stateMutability": "nonpayable",
			"type": "function"
		},
		{
			"inputs": [
				{
					"internalType": "address",
					"name": "minter",
					"type": "address"
				},
				{
					"internalType": "string",
					"name": "name",
					"type": "string"
				}
			],
			"name": "setMinterName",
			"outputs": [],
			"stateMutability": "nonpayable",
			"type": "function"
		},
		{
			"inputs": [],
			"name": "tokenAddress",
			"outputs": [
				{
					"internalType": "address",
					"name": "",
					"type": "address"
				}
			],
			"stateMutability": "view",
			"type": "function"
		},
		{
			"inputs": [],
			"name": "totalClaimedAmount",
			"outputs": [
				{
					"internalType": "uint256",
					"name": "",
					"type": "uint256"
				}
			],
			"stateMutability": "view",
			"type": "function"
		},
		{
			"inputs": [],
			"name": "totalFaucetAmount",
			"outputs": [
				{
					"internalType": "uint256",
					"name": "",
					"type": "uint256"
				}
			],
			"stateMutability": "view",
			"type": "function"
		},
		{
			"inputs": [],
			"name": "totalMintedAmount",
			"outputs": [
				{
					"internalType": "uint256",
					"name": "",
					"type": "uint256"
				}
			],
			"stateMutability": "view",
			"type": "function"
		},
		{
			"inputs": [],
			"name": "totalQrCodesClaimed",
			"outputs": [
				{
					"internalType": "uint256",
					"name": "",
					"type": "uint256"
				}
			],
			"stateMutability": "view",
			"type": "function"
		},
		{
			"inputs": [
				{
					"internalType": "address",
					"name": "newOwner",
					"type": "address"
				}
			],
			"name": "transferOwnership",
			"outputs": [],
			"stateMutability": "nonpayable",
			"type": "function"
		},
		{
			"stateMutability": "payable",
			"type": "receive"
		}
	]
}