{
	"data": {
		"bytecode": {
			"linkReferences": {
				"QRCodeFactory.sol": {
					"AddressSet": [
						{
							"length": 20,
							"start": 160
						},
						{
							"length": 20,
							"start": 265
						},
						{
							"length": 20,
							"start": 3876
						},
						{
							"length": 20,
							"start": 4067
						},
						{
							"length": 20,
							"start": 4280
						},
						{
							"length": 20,
							"start": 4419
						},
						{
							"length": 20,
							"start": 4594
						},
						{
							"length": 20,
							"start": 4731
						},
						{
							"length": 20,
							"start": 5516
						},
						{
							"length": 20,
							"start": 6175
						},
						{
							"length": 20,
							"start": 6289
						},
						{
							"length": 20,
							"start": 7002
						},
						{
							"length": 20,
							"start": 7346
						},
						{
							"length": 20,
							"start": 7510
						},
						{
							"length": 20,
							"start": 7676
						},
						{
							"length": 20,
							"start": 7932
						},
						{
							"length": 20,
							"start": 8071
						},
						{
							"length": 20,
							"start": 8276
						},
						{
							"length": 20,
							"start": 8857
						},
						{
							"length": 20,
							"start": 9157
						},
						{
							"length": 20,
							"start": 9349
						},
						{
							"length": 20,
							"start": 9520
						},
						{
							"length": 20,
							"start": 9580
						},
						{
							"length": 20,
							"start": 9650
						},
						{
							"length": 20,
							"start": 10768
						},
						{
							"length": 20,
							"start": 11800
						},
						{
							"length": 20,
							"start": 11853
						},
						{
							"length": 20,
							"start": 13037
						},
						{
							"length": 20,
							"start": 13254
						}
					]
				}
			},
			"object": "6080604052610708600255662386f26fc1000060035560006006556000600755600060085560006009556000600a556000600b55655af3107a40006019553480156200004a57600080fd5b5060405162004d0f38038062004d0f8339810160408190526200006d9162000182565b600080546001600160a01b03191633908117909155604051639f75f0a360e01b8152601b6004820152602481019190915273__$a78f336ce544781231449be5b22765a58f$__90639f75f0a39060440160006040518083038186803b158015620000d657600080fd5b505af4158015620000eb573d6000803e3d6000fd5b5050604051639f75f0a360e01b8152600c600482015233602482015273__$a78f336ce544781231449be5b22765a58f$__9250639f75f0a3915060440160006040518083038186803b1580156200014157600080fd5b505af415801562000156573d6000803e3d6000fd5b5050600180546001600160a01b0319166001600160a01b03949094169390931790925550620001b49050565b6000602082840312156200019557600080fd5b81516001600160a01b0381168114620001ad57600080fd5b9392505050565b614b4b80620001c46000396000f3fe608060405260043610620003f35760003560e01c80636f865e6f116200020f578063a50ffda51162000123578063dccb445b11620000ad578063f1850af81162000078578063f1850af81462000cce578063f1f959a61462000ce6578063f2fde38b1462000cfb578063fbbf8cc31462000d2057600080fd5b8063dccb445b1462000c2c578063ece764351462000c5d578063f09b22031462000c82578063f1294ef61462000cb657600080fd5b8063c6e64e5311620000ee578063c6e64e531462000b7c578063cd3b6e871462000ba1578063d3a51ff21462000bdb578063d846ceae1462000c0057600080fd5b8063a50ffda51462000add578063a8d088bb1462000b02578063ad4ad7ca1462000b1a578063b862251f1462000b4b57600080fd5b80638da5cb5b11620001a55780639c28143011620001705780639c2814301462000a665780639d76ea581462000a7e5780639db1ff161462000aa0578063a01bad521462000ab857600080fd5b80638da5cb5b14620009b45780638df40be814620009ef578063926cf9931462000a295780639661cb0d1462000a4e57600080fd5b806382b2e25711620001e657806382b2e2571462000929578063862b092b1462000941578063878d7d871462000968578063892ff8bd146200099c57600080fd5b80636f865e6f14620008c757806381b5479d14620008df57806381d2fd9c146200090457600080fd5b806340f26d49116200030757806359d1bd80116200029d57806366eb399f116200026857806366eb399f146200081a5780636b32810b146200083f5780636ca8002614620008575780636f7ab8d1146200089357600080fd5b806359d1bd8014620007715780636123280d146200079657806363b266ba14620007bb57806366059a1614620007f557600080fd5b806344e2ad9911620002de57806344e2ad9914620006f557806352b2710c146200071a578063563d3ca31462000741578063572d4721146200075957600080fd5b806340f26d491462000675578063424f3c8e14620006a9578063440d712b14620006ce57600080fd5b8063206855d011620003895780632a4e455311620003545780632a4e455314620005c6578063321afd3814620005eb578063384e491d146200061f5780633e70703e146200064457600080fd5b8063206855d0146200052a57806323c65c3d146200054f57806324f65ee7146200058957806326767f9014620005a157600080fd5b80631654d42c11620003ca5780631654d42c146200049257806317fc30d414620004aa578063198e14f814620004e05780631e83409a146200050557600080fd5b806304e86903146200040057806304f32a1d1462000444578063143f338c146200046b57600080fd5b36620003fb57005b600080fd5b3480156200040d57600080fd5b50620004316200041f36600462003666565b60166020526000908152604090205481565b6040519081526020015b60405180910390f35b3480156200045157600080fd5b5062000469620004633660046200368d565b62000d51565b005b3480156200047857600080fd5b506200048362000e03565b6040516200043b9190620037be565b3480156200049f57600080fd5b506200043160075481565b348015620004b757600080fd5b50620004cf620004c936600462003666565b6200101c565b60405190151581526020016200043b565b348015620004ed57600080fd5b50620004cf620004ff36600462003666565b620010a5565b3480156200051257600080fd5b50620004696200052436600462003666565b620010e4565b3480156200053757600080fd5b50620004316200054936600462003824565b6200156d565b3480156200055c57600080fd5b50620004316200056e36600462003666565b6001600160a01b031660009081526018602052604090205490565b3480156200059657600080fd5b50620004316200159f565b348015620005ae57600080fd5b5062000469620005c036600462003862565b62001618565b348015620005d357600080fd5b50620004cf620005e536600462003666565b620016fa565b348015620005f857600080fd5b50620006106200060a36600462003666565b62001757565b6040516200043b91906200393f565b3480156200062c57600080fd5b50620004696200063e36600462003824565b62001987565b3480156200065157600080fd5b50620004316200066336600462003666565b60126020526000908152604090205481565b3480156200068257600080fd5b506200069a6200069436600462003666565b62001a71565b6040516200043b919062003998565b348015620006b657600080fd5b5062000469620006c836600462003aaf565b62001adf565b348015620006db57600080fd5b50620006e662001c1c565b6040516200043b919062003b4c565b3480156200070257600080fd5b50620004316200071436600462003824565b62001e5a565b3480156200072757600080fd5b506200073262001e77565b6040516200043b919062003ba5565b3480156200074e57600080fd5b506200043160025481565b3480156200076657600080fd5b506200061062001efb565b3480156200077e57600080fd5b50620004696200079036600462003824565b620020c6565b348015620007a357600080fd5b506200069a620007b536600462003666565b62002186565b348015620007c857600080fd5b5062000431620007da36600462003666565b6001600160a01b03166000908152600f602052604090205490565b3480156200080257600080fd5b50620004696200081436600462003824565b620021f2565b3480156200082757600080fd5b50620004696200083936600462003862565b620022b2565b3480156200084c57600080fd5b5062000732620023d5565b3480156200086457600080fd5b506200087c620008763660046200368d565b62002411565b6040516200043b9998979695949392919062003be8565b348015620008a057600080fd5b50620008b8620008b23660046200368d565b620024fe565b6040516200043b919062003c4d565b348015620008d457600080fd5b506200043160095481565b348015620008ec57600080fd5b50620008b8620008fe36600462003666565b62002627565b3480156200091157600080fd5b5062000469620009233660046200368d565b620026f1565b3480156200093657600080fd5b506200043162002723565b3480156200094e57600080fd5b506200095962002793565b6040516200043b919062003c62565b3480156200097557600080fd5b506200098d6200098736600462003666565b62002808565b6040516200043b919062003c77565b348015620009a957600080fd5b506200043160195481565b348015620009c157600080fd5b50600054620009d6906001600160a01b031681565b6040516001600160a01b0390911681526020016200043b565b348015620009fc57600080fd5b506200043162000a0e36600462003666565b6001600160a01b031660009081526016602052604090205490565b34801562000a3657600080fd5b506200061062000a4836600462003666565b6200296e565b34801562000a5b57600080fd5b5062000431600a5481565b34801562000a7357600080fd5b506200043160035481565b34801562000a8b57600080fd5b50600154620009d6906001600160a01b031681565b34801562000aad57600080fd5b506200043160085481565b34801562000ac557600080fd5b506200046962000ad73660046200368d565b62002b97565b34801562000aea57600080fd5b506200043162000afc36600462003666565b62002bc9565b34801562000b0f57600080fd5b506200073262002c3b565b34801562000b2757600080fd5b506200043162000b3936600462003666565b60186020526000908152604090205481565b34801562000b5857600080fd5b506200043162000b6a36600462003666565b60116020526000908152604090205481565b34801562000b8957600080fd5b50620009d662000b9b36600462003c8c565b62002c77565b34801562000bae57600080fd5b506200043162000bc036600462003666565b6001600160a01b031660009081526011602052604090205490565b34801562000be857600080fd5b506200095962000bfa36600462003666565b62003078565b34801562000c0d57600080fd5b506200043162000c1f36600462003666565b6001600160a01b03163190565b34801562000c3957600080fd5b506200043162000c4b36600462003666565b60056020526000908152604090205481565b34801562000c6a57600080fd5b506200046962000c7c36600462003aaf565b6200311a565b34801562000c8f57600080fd5b5062000ca762000ca136600462003666565b620031e9565b6040516200043b919062003ce0565b34801562000cc357600080fd5b5062000431600b5481565b34801562000cdb57600080fd5b5062000959620033fa565b34801562000cf357600080fd5b504762000431565b34801562000d0857600080fd5b506200046962000d1a36600462003666565b62003445565b34801562000d2d57600080fd5b506200043162000d3f36600462003666565b600f6020526000908152604090205481565b6040516317e26bc960e11b815273__$a78f336ce544781231449be5b22765a58f$__90632fc4d7929062000d8d90601b90339060040162003cf5565b602060405180830381865af415801562000dab573d6000803e3d6000fd5b505050506040513d601f19601f8201168201806040525081019062000dd1919062003d0c565b151560011462000dfe5760405162461bcd60e51b815260040162000df59062003d2c565b60405180910390fd5b601955565b604051630c3d3c7560e41b8152600c600482015260609060009073__$a78f336ce544781231449be5b22765a58f$__9063c3d3c75090602401602060405180830381865af415801562000e5a573d6000803e3d6000fd5b505050506040513d601f19601f8201168201806040525081019062000e80919062003d57565b67ffffffffffffffff81111562000e9b5762000e9b620039de565b60405190808252806020026020018201604052801562000ed857816020015b62000ec4620034ec565b81526020019060019003908162000eba5790505b50905060005b604051630c3d3c7560e41b8152600c600482015273__$a78f336ce544781231449be5b22765a58f$__9063c3d3c75090602401602060405180830381865af415801562000f2f573d6000803e3d6000fd5b505050506040513d601f19601f8201168201806040525081019062000f55919062003d57565b8110156200101657604051630182c6db60e31b8152600c60048201526024810182905262000fe09073__$a78f336ce544781231449be5b22765a58f$__90630c1636d890604401602060405180830381865af415801562000fba573d6000803e3d6000fd5b505050506040513d601f19601f8201168201806040525081019062000ca1919062003d71565b82828151811062000ff55762000ff562003d91565b602002602001018190525080806200100d9062003dbd565b91505062000ede565b50919050565b6040516317e26bc960e11b815260009073__$a78f336ce544781231449be5b22765a58f$__90632fc4d792906200105b90600c90869060040162003cf5565b602060405180830381865af415801562001079573d6000803e3d6000fd5b505050506040513d601f19601f820116820180604052508101906200109f919062003d0c565b92915050565b6040516317e26bc960e11b815260009073__$a78f336ce544781231449be5b22765a58f$__90632fc4d792906200105b90601b90869060040162003cf5565b33600090815260056020526040902054620011395760405162461bcd60e51b815260206004820152601460248201527321b0b636103737ba10333937b6903937baba32b960611b604482015260640162000df5565b3360009081526005602090815260408083205480845260049283905292200154620011a75760405162461bcd60e51b815260206004820152601860248201527f5468697320636f6465206e6f74206d696e746564207965740000000000000000604482015260640162000df5565b60008181526004602052604090206005015415620012085760405162461bcd60e51b815260206004820152601960248201527f5468697320636f646520616c726561647920636c61696d656400000000000000604482015260640162000df5565b6000818152600460208190526040909120600681015491015442916200122e9162003ddb565b11620012715760405162461bcd60e51b8152602060048201526011602482015270145c90dbd919481a5cc8195e1c1a5c9959607a1b604482015260640162000df5565b6000818152600460209081526040808320600101546001600160a01b038616845260169092528220805491929091620012ac90849062003ddb565b90915550506001600160a01b038216600081815260176020908152604080832080546001810182559084528284200185905592825260189052908120805491620012f68362003dbd565b9091555050600880549060006200130d8362003dbd565b9091555050600081815260046020908152604080832060018101546002909101546001600160a01b03168452601290925282208054919290916200135390849062003ddb565b9091555050600081815260046020526040812060010154600a8054919290916200137f90849062003ddb565b90915550506000818152600460208190526040918290206003810180546001600160a01b0319166001600160a01b038716179055436005909101559051639f75f0a360e01b815273__$a78f336ce544781231449be5b22765a58f$__91639f75f0a391620013f39160149187910162003cf5565b60006040518083038186803b1580156200140c57600080fd5b505af415801562001421573d6000803e3d6000fd5b50506001805460008581526004602081905260409182902090930154905163a9059cbb60e01b81526001600160a01b03909216945063a9059cbb93506200147e928792016001600160a01b03929092168252602082015260400190565b6020604051808303816000875af11580156200149e573d6000803e3d6000fd5b505050506040513d601f19601f82011682018060405250810190620014c4919062003d0c565b506003546001600160a01b038316319081101562001568576000836001600160a01b031631600354620014f8919062003df6565b905080600b60008282546200150e919062003ddb565b90915550506040516001600160a01b038516908290600081818185875af1925050503d80600081146200155e576040519150601f19603f3d011682016040523d82523d6000602084013e62001563565b606091505b505050505b505050565b601060205281600052604060002081815481106200158a57600080fd5b90600052602060002001600091509150505481565b6001546040805163313ce56760e01b815290516000926001600160a01b03169163313ce5679160048083019260209291908290030181865afa158015620015ea573d6000803e3d6000fd5b505050506040513d601f19601f8201168201806040525081019062001610919062003e10565b60ff16905090565b6000546001600160a01b03163314620016455760405162461bcd60e51b815260040162000df59062003e35565b8015620016be57604051639f75f0a360e01b815273__$a78f336ce544781231449be5b22765a58f$__90639f75f0a3906200168890601b90869060040162003cf5565b60006040518083038186803b158015620016a157600080fd5b505af4158015620016b6573d6000803e3d6000fd5b505050505050565b60405163a8afef9560e01b815273__$a78f336ce544781231449be5b22765a58f$__9063a8afef95906200168890601b90869060040162003cf5565b6001600160a01b038116600090815260056020526040812054156200174f576001600160a01b038216600090815260056020818152604080842054845260049091529091200154156200174f5760016200109f565b600092915050565b6001600160a01b0381166000908152601760205260408120546060919067ffffffffffffffff8111156200178f576200178f620039de565b604051908082528060200260200182016040528015620017cc57816020015b620017b862003532565b815260200190600190039081620017ae5790505b50905060005b6001600160a01b03841660009081526017602052604090205481101562001980576001600160a01b0384166000908152601760205260408120805460049291908490811062001825576200182562003d91565b6000918252602080832090910154835282810193909352604091820190208151610120810183528154815260018201549381019390935260028101546001600160a01b039081169284019290925260038101548216606084015260048101546080840152600581015460a0840152600681015460c0840152600781015490911660e083015260088101805461010084019190620018c29062003e5d565b80601f0160208091040260200160405190810160405280929190818152602001828054620018f09062003e5d565b8015620019415780601f10620019155761010080835404028352916020019162001941565b820191906000526020600020905b8154815290600101906020018083116200192357829003601f168201915b5050505050815250508282815181106200195f576200195f62003d91565b60200260200101819052508080620019779062003dbd565b915050620017d2565b5092915050565b6040516317e26bc960e11b815273__$a78f336ce544781231449be5b22765a58f$__90632fc4d79290620019c390601b90339060040162003cf5565b602060405180830381865af4158015620019e1573d6000803e3d6000fd5b505050506040513d601f19601f8201168201806040525081019062001a07919062003d0c565b151560011462001a2b5760405162461bcd60e51b815260040162000df59062003d2c565b6001600160a01b03821660009081526013602052604090205462001a5190829062003ddb565b6001600160a01b0390921660009081526013602052604090209190915550565b6001600160a01b03811660009081526017602090815260409182902080548351818402810184019094528084526060939283018282801562001ad357602002820191906000526020600020905b81548152602001906001019080831162001abe575b50505050509050919050565b6040516317e26bc960e11b815273__$a78f336ce544781231449be5b22765a58f$__90632fc4d7929062001b1b90601b90339060040162003cf5565b602060405180830381865af415801562001b39573d6000803e3d6000fd5b505050506040513d601f19601f8201168201806040525081019062001b5f919062003d0c565b151560011462001b835760405162461bcd60e51b815260040162000df59062003d2c565b604051639f75f0a360e01b815273__$a78f336ce544781231449be5b22765a58f$__90639f75f0a39062001bbf90600c90869060040162003cf5565b60006040518083038186803b15801562001bd857600080fd5b505af415801562001bed573d6000803e3d6000fd5b505050506001600160a01b0382166000908152600e602090815260409091208251620015689284019062003599565b604051630c3d3c7560e41b81526014600482015260609060009073__$a78f336ce544781231449be5b22765a58f$__9063c3d3c75090602401602060405180830381865af415801562001c73573d6000803e3d6000fd5b505050506040513d601f19601f8201168201806040525081019062001c99919062003d57565b67ffffffffffffffff81111562001cb45762001cb4620039de565b60405190808252806020026020018201604052801562001d1c57816020015b62001d08604051806080016040528060006001600160a01b031681526020016000815260200160608152602001600081525090565b81526020019060019003908162001cd35790505b50905060005b604051630c3d3c7560e41b81526014600482015273__$a78f336ce544781231449be5b22765a58f$__9063c3d3c75090602401602060405180830381865af415801562001d73573d6000803e3d6000fd5b505050506040513d601f19601f8201168201806040525081019062001d99919062003d57565b8110156200101657604051630182c6db60e31b8152601460048201526024810182905262001e249073__$a78f336ce544781231449be5b22765a58f$__90630c1636d890604401602060405180830381865af415801562001dfe573d6000803e3d6000fd5b505050506040513d601f19601f8201168201806040525081019062000987919062003d71565b82828151811062001e395762001e3962003d91565b6020026020010181905250808062001e519062003dbd565b91505062001d22565b601760205281600052604060002081815481106200158a57600080fd5b604051631006ca1960e11b81526014600482015260609073__$a78f336ce544781231449be5b22765a58f$__9063200d9432906024015b600060405180830381865af415801562001ecc573d6000803e3d6000fd5b505050506040513d6000823e601f3d908101601f1916820160405262001ef6919081019062003e94565b905090565b6060600060075467ffffffffffffffff81111562001f1d5762001f1d620039de565b60405190808252806020026020018201604052801562001f5a57816020015b62001f4662003532565b81526020019060019003908162001f3c5790505b50905060015b600654811162001016576000818152600460208181526040928390208351610120810185528154815260018201549281019290925260028101546001600160a01b0390811694830194909452600381015484166060830152918201546080820152600582015460a0820152600682015460c0820152600782015490921660e08301526008810180546101008401919062001ffa9062003e5d565b80601f0160208091040260200160405190810160405280929190818152602001828054620020289062003e5d565b8015620020795780601f106200204d5761010080835404028352916020019162002079565b820191906000526020600020905b8154815290600101906020018083116200205b57829003601f168201915b5050505050815250508260018362002092919062003df6565b81518110620020a557620020a562003d91565b60200260200101819052508080620020bd9062003dbd565b91505062001f60565b6040516317e26bc960e11b815273__$a78f336ce544781231449be5b22765a58f$__90632fc4d792906200210290601b90339060040162003cf5565b602060405180830381865af415801562002120573d6000803e3d6000fd5b505050506040513d601f19601f8201168201806040525081019062002146919062003d0c565b15156001146200216a5760405162461bcd60e51b815260040162000df59062003d2c565b6001600160a01b039091166000908152601a6020526040902055565b6001600160a01b03811660009081526010602090815260409182902080548351818402810184019094528084526060939283018282801562001ad3576020028201919060005260206000209081548152602001906001019080831162001abe5750505050509050919050565b6040516317e26bc960e11b815273__$a78f336ce544781231449be5b22765a58f$__90632fc4d792906200222e90601b90339060040162003cf5565b602060405180830381865af41580156200224c573d6000803e3d6000fd5b505050506040513d601f19601f8201168201806040525081019062002272919062003d0c565b1515600114620022965760405162461bcd60e51b815260040162000df59062003d2c565b6001600160a01b03909116600090815260136020526040902055565b6040516317e26bc960e11b815273__$a78f336ce544781231449be5b22765a58f$__90632fc4d79290620022ee90601b90339060040162003cf5565b602060405180830381865af41580156200230c573d6000803e3d6000fd5b505050506040513d601f19601f8201168201806040525081019062002332919062003d0c565b1515600114620023565760405162461bcd60e51b815260040162000df59062003d2c565b80156200239957604051639f75f0a360e01b815273__$a78f336ce544781231449be5b22765a58f$__90639f75f0a3906200168890600c90869060040162003cf5565b60405163a8afef9560e01b815273__$a78f336ce544781231449be5b22765a58f$__9063a8afef95906200168890600c90869060040162003cf5565b604051631006ca1960e11b8152600c600482015260609073__$a78f336ce544781231449be5b22765a58f$__9063200d94329060240162001eae565b6004602081905260009182526040909120805460018201546002830154600384015494840154600585015460068601546007870154600888018054979996986001600160a01b03968716989787169795969495939490921692620024759062003e5d565b80601f0160208091040260200160405190810160405280929190818152602001828054620024a39062003e5d565b8015620024f45780601f10620024c857610100808354040283529160200191620024f4565b820191906000526020600020905b815481529060010190602001808311620024d657829003601f168201915b5050505050905089565b6200250862003532565b6000828152600460208181526040928390208351610120810185528154815260018201549281019290925260028101546001600160a01b0390811694830194909452600381015484166060830152918201546080820152600582015460a0820152600682015460c0820152600782015490921660e083015260088101805461010084019190620025989062003e5d565b80601f0160208091040260200160405190810160405280929190818152602001828054620025c69062003e5d565b8015620026175780601f10620025eb5761010080835404028352916020019162002617565b820191906000526020600020905b815481529060010190602001808311620025f957829003601f168201915b5050505050815250509050919050565b6200263162003532565b6001600160a01b03821660009081526005602052604090205415620026ec576001600160a01b0380831660009081526005602081815260408084205484526004808352938190208151610120810183528154815260018201549381019390935260028101548616918301919091526003810154851660608301529283015460808201529082015460a0820152600682015460c0820152600782015490921660e083015260088101805461010084019190620025989062003e5d565b919050565b6000546001600160a01b031633146200271e5760405162461bcd60e51b815260040162000df59062003e35565b600355565b6001546040516370a0823160e01b81523060048201526000916001600160a01b0316906370a0823190602401602060405180830381865afa1580156200276d573d6000803e3d6000fd5b505050506040513d601f19601f8201168201806040525081019062001ef6919062003d57565b600154604080516306fdde0360e01b815290516060926001600160a01b0316916306fdde039160048083019260009291908290030181865afa158015620027de573d6000803e3d6000fd5b505050506040513d6000823e601f3d908101601f1916820160405262001ef6919081019062003f53565b6200283d604051806080016040528060006001600160a01b031681526020016000815260200160608152602001600081525090565b6040516317e26bc960e11b815273__$a78f336ce544781231449be5b22765a58f$__90632fc4d792906200287990601490869060040162003cf5565b602060405180830381865af415801562002897573d6000803e3d6000fd5b505050506040513d601f19601f82011682018060405250810190620028bd919062003d0c565b15620026ec57604080516080810182526001600160a01b038416808252600081815260166020908152848220548185015291815260178252839020805484518184028101840186528181529394850193928301828280156200293f57602002820191906000526020600020905b8154815260200190600101908083116200292a575b50505091835250506001600160a01b039093166000908152601860209081526040909120549301929092525090565b6001600160a01b0381166000908152601060205260408120546060919067ffffffffffffffff811115620029a657620029a6620039de565b604051908082528060200260200182016040528015620029e357816020015b620029cf62003532565b815260200190600190039081620029c55790505b50905060005b6001600160a01b03841660009081526010602052604090205481101562001980576001600160a01b0384166000908152601060205260408120805460049291908490811062002a3c5762002a3c62003d91565b6000918252602080832090910154835282810193909352604091820190208151610120810183528154815260018201549381019390935260028101546001600160a01b039081169284019290925260038101548216606084015260048101546080840152600581015460a0840152600681015460c0840152600781015490911660e08301526008810180546101008401919062002ad99062003e5d565b80601f016020809104026020016040519081016040528092919081815260200182805462002b079062003e5d565b801562002b585780601f1062002b2c5761010080835404028352916020019162002b58565b820191906000526020600020905b81548152906001019060200180831162002b3a57829003601f168201915b50505050508152505082828151811062002b765762002b7662003d91565b6020026020010181905250808062002b8e9062003dbd565b915050620029e9565b6000546001600160a01b0316331462002bc45760405162461bcd60e51b815260040162000df59062003e35565b600255565b6001546040516370a0823160e01b81526001600160a01b03838116600483015260009216906370a0823190602401602060405180830381865afa15801562002c15573d6000803e3d6000fd5b505050506040513d601f19601f820116820180604052508101906200109f919062003d57565b604051631006ca1960e11b8152601b600482015260609073__$a78f336ce544781231449be5b22765a58f$__9063200d94329060240162001eae565b6040516317e26bc960e11b815260009073__$a78f336ce544781231449be5b22765a58f$__90632fc4d7929062002cb690600c90339060040162003cf5565b602060405180830381865af415801562002cd4573d6000803e3d6000fd5b505050506040513d601f19601f8201168201806040525081019062002cfa919062003d0c565b151560011462002d405760405162461bcd60e51b815260206004820152601060248201526f4f6e6c7920666f72206d696e7465727360801b604482015260640162000df5565b6000841162002d925760405162461bcd60e51b815260206004820152601b60248201527f416d6f756e74206d7573742062652067726561746572207a65726f0000000000604482015260640162000df5565b6000831562002da2578362002da6565b6002545b600154336000818152600e6020526040808220905194955090936001600160a01b0390931692899142918791908a9062002de09062003628565b62002df2979695949392919062003fd3565b604051809103906000f08015801562002e0f573d6000803e3d6000fd5b5060068054919250600062002e248362003dbd565b91905055506040518061012001604052806006548152602001878152602001336001600160a01b0316815260200160006001600160a01b0316815260200142815260200160008152602001838152602001826001600160a01b0316815260200185815250600460006006548152602001908152602001600020600082015181600001556020820151816001015560408201518160020160006101000a8154816001600160a01b0302191690836001600160a01b0316021790555060608201518160030160006101000a8154816001600160a01b0302191690836001600160a01b031602179055506080820151816004015560a0820151816005015560c0820151816006015560e08201518160070160006101000a8154816001600160a01b0302191690836001600160a01b0316021790555061010082015181600801908051906020019062002f7592919062003599565b50506006546001600160a01b038316600090815260056020908152604080832093909355338252600f9052908120805489935090919062002fb890849062003ddb565b92505081905550856009600082825462002fd3919062003ddb565b909155505033600081815260106020908152604080832060065481546001810183559185528385209091015592825260119052908120805491620030178362003dbd565b9091555050600780549060006200302e8362003dbd565b90915550506040516001600160a01b03821681527f12a2dcd8d60f7d320a97f9b2f6bca5b67c1bb9808b27c28915c541eed450d05f9060200160405180910390a195945050505050565b600e6020526000908152604090208054620030939062003e5d565b80601f0160208091040260200160405190810160405280929190818152602001828054620030c19062003e5d565b8015620031125780601f10620030e65761010080835404028352916020019162003112565b820191906000526020600020905b815481529060010190602001808311620030f457829003601f168201915b505050505081565b6040516317e26bc960e11b815273__$a78f336ce544781231449be5b22765a58f$__90632fc4d792906200315690601b90339060040162003cf5565b602060405180830381865af415801562003174573d6000803e3d6000fd5b505050506040513d601f19601f820116820180604052508101906200319a919062003d0c565b1515600114620031be5760405162461bcd60e51b815260040162000df59062003d2c565b6001600160a01b0382166000908152600e602090815260409091208251620015689284019062003599565b620031f3620034ec565b6040516317e26bc960e11b815273__$a78f336ce544781231449be5b22765a58f$__90632fc4d792906200322f90600c90869060040162003cf5565b602060405180830381865af41580156200324d573d6000803e3d6000fd5b505050506040513d601f19601f8201168201806040525081019062003273919062003d0c565b15620026ec576040805160e0810182526001600160a01b0384168082526000908152600e602090815292902080549192830191620032b19062003e5d565b80601f0160208091040260200160405190810160405280929190818152602001828054620032df9062003e5d565b8015620033305780601f10620033045761010080835404028352916020019162003330565b820191906000526020600020905b8154815290600101906020018083116200331257829003601f168201915b50505091835250506001600160a01b0384166000818152600f602090815260408083205482860152838352601282528083205481860152928252601081529082902080548351818402810184019094528084526060909401939091830182828015620033bc57602002820191906000526020600020905b815481526020019060010190808311620033a7575b50505091835250506001600160a01b039093166000818152601160209081526040808320548288015292825260139052819020549301929092525090565b600154604080516395d89b4160e01b815290516060926001600160a01b0316916395d89b419160048083019260009291908290030181865afa158015620027de573d6000803e3d6000fd5b6000546001600160a01b03163314620034725760405162461bcd60e51b815260040162000df59062003e35565b6001600160a01b038116620034ca5760405162461bcd60e51b815260206004820152601a60248201527f4f776e657220616464726573732063616e74206265207a65726f000000000000604482015260640162000df5565b600080546001600160a01b0319166001600160a01b0392909216919091179055565b6040518060e0016040528060006001600160a01b031681526020016060815260200160008152602001600081526020016060815260200160008152602001600081525090565b604051806101200160405280600081526020016000815260200160006001600160a01b0316815260200160006001600160a01b0316815260200160008152602001600081526020016000815260200160006001600160a01b03168152602001606081525090565b828054620035a79062003e5d565b90600052602060002090601f016020900481019282620035cb576000855562003616565b82601f10620035e657805160ff191683800117855562003616565b8280016001018555821562003616579182015b8281111562003616578251825591602001919060010190620035f9565b506200362492915062003636565b5090565b610a4780620040cf83390190565b5b8082111562003624576000815560010162003637565b6001600160a01b03811681146200366357600080fd5b50565b6000602082840312156200367957600080fd5b813562003686816200364d565b9392505050565b600060208284031215620036a057600080fd5b5035919050565b60005b83811015620036c4578181015183820152602001620036aa565b83811115620036d4576000848401525b50505050565b60008151808452620036f4816020860160208601620036a7565b601f01601f19169290920160200192915050565b600081518084526020808501945080840160005b838110156200373a578151875295820195908201906001016200371c565b509495945050505050565b60018060a01b0381511682526000602082015160e060208501526200376e60e0850182620036da565b90506040830151604085015260608301516060850152608083015184820360808601526200379d828262003708565b91505060a083015160a085015260c083015160c08501528091505092915050565b6000602080830181845280855180835260408601915060408160051b870101925083870160005b828110156200381757603f198886030184526200380485835162003745565b94509285019290850190600101620037e5565b5092979650505050505050565b600080604083850312156200383857600080fd5b823562003845816200364d565b946020939093013593505050565b80151581146200366357600080fd5b600080604083850312156200387657600080fd5b823562003883816200364d565b91506020830135620038958162003853565b809150509250929050565b6000610120825184526020830151602085015260018060a01b0360408401511660408501526060830151620038e060608601826001600160a01b03169052565b506080830151608085015260a083015160a085015260c083015160c085015260e08301516200391a60e08601826001600160a01b03169052565b506101008084015182828701526200393583870182620036da565b9695505050505050565b6000602080830181845280855180835260408601915060408160051b870101925083870160005b828110156200381757603f1988860301845262003985858351620038a0565b9450928501929085019060010162003966565b6020808252825182820181905260009190848201906040850190845b81811015620039d257835183529284019291840191600101620039b4565b50909695505050505050565b634e487b7160e01b600052604160045260246000fd5b604051601f8201601f1916810167ffffffffffffffff8111828210171562003a205762003a20620039de565b604052919050565b600067ffffffffffffffff82111562003a455762003a45620039de565b50601f01601f191660200190565b600082601f83011262003a6557600080fd5b813562003a7c62003a768262003a28565b620039f4565b81815284602083860101111562003a9257600080fd5b816020850160208301376000918101602001919091529392505050565b6000806040838503121562003ac357600080fd5b823562003ad0816200364d565b9150602083013567ffffffffffffffff81111562003aed57600080fd5b62003afb8582860162003a53565b9150509250929050565b60018060a01b03815116825260208101516020830152600060408201516080604085015262003b38608085018262003708565b606093840151949093019390935250919050565b6000602080830181845280855180835260408601915060408160051b870101925083870160005b828110156200381757603f1988860301845262003b9285835162003b05565b9450928501929085019060010162003b73565b6020808252825182820181905260009190848201906040850190845b81811015620039d25783516001600160a01b03168352928401929184019160010162003bc1565b60006101208b83528a602084015260018060a01b03808b166040850152808a1660608501528860808501528760a08501528660c085015280861660e0850152508061010084015262003c3d81840185620036da565b9c9b505050505050505050505050565b602081526000620036866020830184620038a0565b602081526000620036866020830184620036da565b60208152600062003686602083018462003b05565b60008060006060848603121562003ca257600080fd5b8335925060208401359150604084013567ffffffffffffffff81111562003cc857600080fd5b62003cd68682870162003a53565b9150509250925092565b60208152600062003686602083018462003745565b9182526001600160a01b0316602082015260400190565b60006020828403121562003d1f57600080fd5b8151620036868162003853565b6020808252601190820152704f6e6c7920666f72206d616e616765727360781b604082015260600190565b60006020828403121562003d6a57600080fd5b5051919050565b60006020828403121562003d8457600080fd5b815162003686816200364d565b634e487b7160e01b600052603260045260246000fd5b634e487b7160e01b600052601160045260246000fd5b600060001982141562003dd45762003dd462003da7565b5060010190565b6000821982111562003df15762003df162003da7565b500190565b60008282101562003e0b5762003e0b62003da7565b500390565b60006020828403121562003e2357600080fd5b815160ff811681146200368657600080fd5b6020808252600e908201526d27b7363c903337b91037bbb732b960911b604082015260600190565b600181811c9082168062003e7257607f821691505b602082108114156200101657634e487b7160e01b600052602260045260246000fd5b6000602080838503121562003ea857600080fd5b825167ffffffffffffffff8082111562003ec157600080fd5b818501915085601f83011262003ed657600080fd5b81518181111562003eeb5762003eeb620039de565b8060051b915062003efe848301620039f4565b818152918301840191848101908884111562003f1957600080fd5b938501935b8385101562003f47578451925062003f36836200364d565b828252938501939085019062003f1e565b98975050505050505050565b60006020828403121562003f6657600080fd5b815167ffffffffffffffff81111562003f7e57600080fd5b8201601f8101841362003f9057600080fd5b805162003fa162003a768262003a28565b81815285602083850101111562003fb757600080fd5b62003fca826020830160208601620036a7565b95945050505050565b6001600160a01b038881168252871660208083019190915260408201879052606082018690526080820185905260e060a083015283546000918291600181811c90828116806200402457607f831692505b8483108114156200404357634e487b7160e01b86526022600452602486fd5b60e0880183905261010088018180156200406657600181146200407857620040a5565b60ff19861682528682019750620040a5565b60008c81526020902060005b868110156200409f5781548482015290850190880162004084565b83019850505b5050505050505082810360c0840152620040c08185620036da565b9a995050505050505050505056fe60806040523480156200001157600080fd5b5060405162000a4738038062000a478339810160408190526200003491620003e4565b60008054336001600160a01b03199182161782556002805482166001600160a01b038a81169190911790915560038890556009879055600a86905560018054909216908a16908117909155604080516306fdde0360e01b8152905191926306fdde03926004808401938290030181865afa158015620000b7573d6000803e3d6000fd5b505050506040513d6000823e601f3d908101601f19168201604052620000e1919081019062000492565b8051620000f79160049160209091019062000254565b50600160009054906101000a90046001600160a01b03166001600160a01b03166395d89b416040518163ffffffff1660e01b8152600401600060405180830381865afa1580156200014c573d6000803e3d6000fd5b505050506040513d6000823e601f3d908101601f1916820160405262000176919081019062000492565b80516200018c9160059160209091019062000254565b50600160009054906101000a90046001600160a01b03166001600160a01b031663313ce5676040518163ffffffff1660e01b8152600401602060405180830381865afa158015620001e1573d6000803e3d6000fd5b505050506040513d601f19601f82011682018060405250810190620002079190620004d2565b6006805460ff191660ff9290921691909117905581516200023090600790602085019062000254565b5080516200024690600890602084019062000254565b50505050505050506200053b565b8280546200026290620004fe565b90600052602060002090601f016020900481019282620002865760008555620002d1565b82601f10620002a157805160ff1916838001178555620002d1565b82800160010185558215620002d1579182015b82811115620002d1578251825591602001919060010190620002b4565b50620002df929150620002e3565b5090565b5b80821115620002df5760008155600101620002e4565b80516001600160a01b03811681146200031257600080fd5b919050565b634e487b7160e01b600052604160045260246000fd5b600082601f8301126200033f57600080fd5b81516001600160401b03808211156200035c576200035c62000317565b604051601f8301601f19908116603f0116810190828211818310171562000387576200038762000317565b81604052838152602092508683858801011115620003a457600080fd5b600091505b83821015620003c85785820183015181830184015290820190620003a9565b83821115620003da5760008385830101525b9695505050505050565b600080600080600080600060e0888a0312156200040057600080fd5b6200040b88620002fa565b96506200041b60208901620002fa565b604089015160608a015160808b015160a08c0151939950919750955093506001600160401b03808211156200044f57600080fd5b6200045d8b838c016200032d565b935060c08a01519150808211156200047457600080fd5b50620004838a828b016200032d565b91505092959891949750929550565b600060208284031215620004a557600080fd5b81516001600160401b03811115620004bc57600080fd5b620004ca848285016200032d565b949350505050565b600060208284031215620004e557600080fd5b815160ff81168114620004f757600080fd5b9392505050565b600181811c908216806200051357607f821691505b602082108114156200053557634e487b7160e01b600052602260045260246000fd5b50919050565b6104fc806200054b6000396000f3fe608060405234801561001057600080fd5b50600436106100ea5760003560e01c80639c6f0d851161008c578063bb5d40eb11610066578063bb5d40eb146101bd578063c45a0155146101c5578063e21f37ce146101d8578063fc0c546a146101e057600080fd5b80639c6f0d85146101a3578063aa8c217c146101ac578063b39cb699146101b557600080fd5b8063313ce567116100c8578063313ce5671461014d57806357c9ca141461016c5780637eb9385f1461018457806395d89b411461019b57600080fd5b806306fdde03146100ef578063075461721461010d5780631e83409a14610138575b600080fd5b6100f76101f3565b60405161010491906103be565b60405180910390f35b600254610120906001600160a01b031681565b6040516001600160a01b039091168152602001610104565b61014b610146366004610413565b610281565b005b60065461015a9060ff1681565b60405160ff9091168152602001610104565b610174610301565b6040519015158152602001610104565b61018d600a5481565b604051908152602001610104565b6100f7610373565b61018d60095481565b61018d60035481565b6100f7610380565b61017461038d565b600054610120906001600160a01b031681565b6100f76103b1565b600154610120906001600160a01b031681565b6004805461020090610443565b80601f016020809104026020016040519081016040528092919081815260200182805461022c90610443565b80156102795780601f1061024e57610100808354040283529160200191610279565b820191906000526020600020905b81548152906001019060200180831161025c57829003601f168201915b505050505081565b6000546001600160a01b0390811690631e83409a908316156102a357826102a5565b335b6040516001600160e01b031960e084901b1681526001600160a01b039091166004820152602401600060405180830381600087803b1580156102e657600080fd5b505af11580156102fa573d6000803e3d6000fd5b5050505050565b60008054604051632a4e455360e01b81523060048201526001600160a01b0390911690632a4e455390602401602060405180830381865afa15801561034a573d6000803e3d6000fd5b505050506040513d601f19601f8201168201806040525081019061036e919061047e565b905090565b6005805461020090610443565b6007805461020090610443565b600042600a546009546103a091906104a0565b116103ab5750600090565b50600190565b6008805461020090610443565b600060208083528351808285015260005b818110156103eb578581018301518582016040015282016103cf565b818111156103fd576000604083870101525b50601f01601f1916929092016040019392505050565b60006020828403121561042557600080fd5b81356001600160a01b038116811461043c57600080fd5b9392505050565b600181811c9082168061045757607f821691505b6020821081141561047857634e487b7160e01b600052602260045260246000fd5b50919050565b60006020828403121561049057600080fd5b8151801515811461043c57600080fd5b600082198211156104c157634e487b7160e01b600052601160045260246000fd5b50019056fea26469706673582212204c602ae4d2f1bafe1f9c1e3e14014ff349d034d6b0db369915d616a6d24f1fd464736f6c634300080c0033a2646970667358221220232063a0672a6e856b86c203168f568552352a50a2771f9be8d15742eb37e0dd64736f6c634300080c0033",
			"opcodes": "PUSH1 0x80 PUSH1 0x40 MSTORE PUSH2 0x708 PUSH1 0x2 SSTORE PUSH7 0x2386F26FC10000 PUSH1 0x3 SSTORE PUSH1 0x0 PUSH1 0x6 SSTORE PUSH1 0x0 PUSH1 0x7 SSTORE PUSH1 0x0 PUSH1 0x8 SSTORE PUSH1 0x0 PUSH1 0x9 SSTORE PUSH1 0x0 PUSH1 0xA SSTORE PUSH1 0x0 PUSH1 0xB SSTORE PUSH6 0x5AF3107A4000 PUSH1 0x19 SSTORE CALLVALUE DUP1 ISZERO PUSH3 0x4A JUMPI PUSH1 0x0 DUP1 REVERT JUMPDEST POP PUSH1 0x40 MLOAD PUSH3 0x4D0F CODESIZE SUB DUP1 PUSH3 0x4D0F DUP4 CODECOPY DUP2 ADD PUSH1 0x40 DUP2 SWAP1 MSTORE PUSH3 0x6D SWAP2 PUSH3 0x182 JUMP JUMPDEST PUSH1 0x0 DUP1 SLOAD PUSH1 0x1 PUSH1 0x1 PUSH1 0xA0 SHL SUB NOT AND CALLER SWAP1 DUP2 OR SWAP1 SWAP2 SSTORE PUSH1 0x40 MLOAD PUSH4 0x9F75F0A3 PUSH1 0xE0 SHL DUP2 MSTORE PUSH1 0x1B PUSH1 0x4 DUP3 ADD MSTORE PUSH1 0x24 DUP2 ADD SWAP2 SWAP1 SWAP2 MSTORE PUSH20 0x0 SWAP1 PUSH4 0x9F75F0A3 SWAP1 PUSH1 0x44 ADD PUSH1 0x0 PUSH1 0x40 MLOAD DUP1 DUP4 SUB DUP2 DUP7 DUP1 EXTCODESIZE ISZERO DUP1 ISZERO PUSH3 0xD6 JUMPI PUSH1 0x0 DUP1 REVERT JUMPDEST POP GAS DELEGATECALL ISZERO DUP1 ISZERO PUSH3 0xEB JUMPI RETURNDATASIZE PUSH1 0x0 DUP1 RETURNDATACOPY RETURNDATASIZE PUSH1 0x0 REVERT JUMPDEST POP POP PUSH1 0x40 MLOAD PUSH4 0x9F75F0A3 PUSH1 0xE0 SHL DUP2 MSTORE PUSH1 0xC PUSH1 0x4 DUP3 ADD MSTORE CALLER PUSH1 0x24 DUP3 ADD MSTORE PUSH20 0x0 SWAP3 POP PUSH4 0x9F75F0A3 SWAP2 POP PUSH1 0x44 ADD PUSH1 0x0 PUSH1 0x40 MLOAD DUP1 DUP4 SUB DUP2 DUP7 DUP1 EXTCODESIZE ISZERO DUP1 ISZERO PUSH3 0x141 JUMPI PUSH1 0x0 DUP1 REVERT JUMPDEST POP GAS DELEGATECALL ISZERO DUP1 ISZERO PUSH3 0x156 JUMPI RETURNDATASIZE PUSH1 0x0 DUP1 RETURNDATACOPY RETURNDATASIZE PUSH1 0x0 REVERT JUMPDEST POP POP PUSH1 0x1 DUP1 SLOAD PUSH1 0x1 PUSH1 0x1 PUSH1 0xA0 SHL SUB NOT AND PUSH1 0x1 PUSH1 0x1 PUSH1 0xA0 SHL SUB SWAP5 SWAP1 SWAP5 AND SWAP4 SWAP1 SWAP4 OR SWAP1 SWAP3 SSTORE POP PUSH3 0x1B4 SWAP1 POP JUMP JUMPDEST PUSH1 0x0 PUSH1 0x20 DUP3 DUP5 SUB SLT ISZERO PUSH3 0x195 JUMPI PUSH1 0x0 DUP1 REVERT JUMPDEST DUP2 MLOAD PUSH1 0x1 PUSH1 0x1 PUSH1 0xA0 SHL SUB DUP2 AND DUP2 EQ PUSH3 0x1AD JUMPI PUSH1 0x0 DUP1 REVERT JUMPDEST SWAP4 SWAP3 POP POP POP JUMP JUMPDEST PUSH2 0x4B4B DUP1 PUSH3 0x1C4 PUSH1 0x0 CODECOPY PUSH1 0x0 RETURN INVALID PUSH1 0x80 PUSH1 0x40 MSTORE PUSH1 0x4 CALLDATASIZE LT PUSH3 0x3F3 JUMPI PUSH1 0x0 CALLDATALOAD PUSH1 0xE0 SHR DUP1 PUSH4 0x6F865E6F GT PUSH3 0x20F JUMPI DUP1 PUSH4 0xA50FFDA5 GT PUSH3 0x123 JUMPI DUP1 PUSH4 0xDCCB445B GT PUSH3 0xAD JUMPI DUP1 PUSH4 0xF1850AF8 GT PUSH3 0x78 JUMPI DUP1 PUSH4 0xF1850AF8 EQ PUSH3 0xCCE JUMPI DUP1 PUSH4 0xF1F959A6 EQ PUSH3 0xCE6 JUMPI DUP1 PUSH4 0xF2FDE38B EQ PUSH3 0xCFB JUMPI DUP1 PUSH4 0xFBBF8CC3 EQ PUSH3 0xD20 JUMPI PUSH1 0x0 DUP1 REVERT JUMPDEST DUP1 PUSH4 0xDCCB445B EQ PUSH3 0xC2C JUMPI DUP1 PUSH4 0xECE76435 EQ PUSH3 0xC5D JUMPI DUP1 PUSH4 0xF09B2203 EQ PUSH3 0xC82 JUMPI DUP1 PUSH4 0xF1294EF6 EQ PUSH3 0xCB6 JUMPI PUSH1 0x0 DUP1 REVERT JUMPDEST DUP1 PUSH4 0xC6E64E53 GT PUSH3 0xEE JUMPI DUP1 PUSH4 0xC6E64E53 EQ PUSH3 0xB7C JUMPI DUP1 PUSH4 0xCD3B6E87 EQ PUSH3 0xBA1 JUMPI DUP1 PUSH4 0xD3A51FF2 EQ PUSH3 0xBDB JUMPI DUP1 PUSH4 0xD846CEAE EQ PUSH3 0xC00 JUMPI PUSH1 0x0 DUP1 REVERT JUMPDEST DUP1 PUSH4 0xA50FFDA5 EQ PUSH3 0xADD JUMPI DUP1 PUSH4 0xA8D088BB EQ PUSH3 0xB02 JUMPI DUP1 PUSH4 0xAD4AD7CA EQ PUSH3 0xB1A JUMPI DUP1 PUSH4 0xB862251F EQ PUSH3 0xB4B JUMPI PUSH1 0x0 DUP1 REVERT JUMPDEST DUP1 PUSH4 0x8DA5CB5B GT PUSH3 0x1A5 JUMPI DUP1 PUSH4 0x9C281430 GT PUSH3 0x170 JUMPI DUP1 PUSH4 0x9C281430 EQ PUSH3 0xA66 JUMPI DUP1 PUSH4 0x9D76EA58 EQ PUSH3 0xA7E JUMPI DUP1 PUSH4 0x9DB1FF16 EQ PUSH3 0xAA0 JUMPI DUP1 PUSH4 0xA01BAD52 EQ PUSH3 0xAB8 JUMPI PUSH1 0x0 DUP1 REVERT JUMPDEST DUP1 PUSH4 0x8DA5CB5B EQ PUSH3 0x9B4 JUMPI DUP1 PUSH4 0x8DF40BE8 EQ PUSH3 0x9EF JUMPI DUP1 PUSH4 0x926CF993 EQ PUSH3 0xA29 JUMPI DUP1 PUSH4 0x9661CB0D EQ PUSH3 0xA4E JUMPI PUSH1 0x0 DUP1 REVERT JUMPDEST DUP1 PUSH4 0x82B2E257 GT PUSH3 0x1E6 JUMPI DUP1 PUSH4 0x82B2E257 EQ PUSH3 0x929 JUMPI DUP1 PUSH4 0x862B092B EQ PUSH3 0x941 JUMPI DUP1 PUSH4 0x878D7D87 EQ PUSH3 0x968 JUMPI DUP1 PUSH4 0x892FF8BD EQ PUSH3 0x99C JUMPI PUSH1 0x0 DUP1 REVERT JUMPDEST DUP1 PUSH4 0x6F865E6F EQ PUSH3 0x8C7 JUMPI DUP1 PUSH4 0x81B5479D EQ PUSH3 0x8DF JUMPI DUP1 PUSH4 0x81D2FD9C EQ PUSH3 0x904 JUMPI PUSH1 0x0 DUP1 REVERT JUMPDEST DUP1 PUSH4 0x40F26D49 GT PUSH3 0x307 JUMPI DUP1 PUSH4 0x59D1BD80 GT PUSH3 0x29D JUMPI DUP1 PUSH4 0x66EB399F GT PUSH3 0x268 JUMPI DUP1 PUSH4 0x66EB399F EQ PUSH3 0x81A JUMPI DUP1 PUSH4 0x6B32810B EQ PUSH3 0x83F JUMPI DUP1 PUSH4 0x6CA80026 EQ PUSH3 0x857 JUMPI DUP1 PUSH4 0x6F7AB8D1 EQ PUSH3 0x893 JUMPI PUSH1 0x0 DUP1 REVERT JUMPDEST DUP1 PUSH4 0x59D1BD80 EQ PUSH3 0x771 JUMPI DUP1 PUSH4 0x6123280D EQ PUSH3 0x796 JUMPI DUP1 PUSH4 0x63B266BA EQ PUSH3 0x7BB JUMPI DUP1 PUSH4 0x66059A16 EQ PUSH3 0x7F5 JUMPI PUSH1 0x0 DUP1 REVERT JUMPDEST DUP1 PUSH4 0x44E2AD99 GT PUSH3 0x2DE JUMPI DUP1 PUSH4 0x44E2AD99 EQ PUSH3 0x6F5 JUMPI DUP1 PUSH4 0x52B2710C EQ PUSH3 0x71A JUMPI DUP1 PUSH4 0x563D3CA3 EQ PUSH3 0x741 JUMPI DUP1 PUSH4 0x572D4721 EQ PUSH3 0x759 JUMPI PUSH1 0x0 DUP1 REVERT JUMPDEST DUP1 PUSH4 0x40F26D49 EQ PUSH3 0x675 JUMPI DUP1 PUSH4 0x424F3C8E EQ PUSH3 0x6A9 JUMPI DUP1 PUSH4 0x440D712B EQ PUSH3 0x6CE JUMPI PUSH1 0x0 DUP1 REVERT JUMPDEST DUP1 PUSH4 0x206855D0 GT PUSH3 0x389 JUMPI DUP1 PUSH4 0x2A4E4553 GT PUSH3 0x354 JUMPI DUP1 PUSH4 0x2A4E4553 EQ PUSH3 0x5C6 JUMPI DUP1 PUSH4 0x321AFD38 EQ PUSH3 0x5EB JUMPI DUP1 PUSH4 0x384E491D EQ PUSH3 0x61F JUMPI DUP1 PUSH4 0x3E70703E EQ PUSH3 0x644 JUMPI PUSH1 0x0 DUP1 REVERT JUMPDEST DUP1 PUSH4 0x206855D0 EQ PUSH3 0x52A JUMPI DUP1 PUSH4 0x23C65C3D EQ PUSH3 0x54F JUMPI DUP1 PUSH4 0x24F65EE7 EQ PUSH3 0x589 JUMPI DUP1 PUSH4 0x26767F90 EQ PUSH3 0x5A1 JUMPI PUSH1 0x0 DUP1 REVERT JUMPDEST DUP1 PUSH4 0x1654D42C GT PUSH3 0x3CA JUMPI DUP1 PUSH4 0x1654D42C EQ PUSH3 0x492 JUMPI DUP1 PUSH4 0x17FC30D4 EQ PUSH3 0x4AA JUMPI DUP1 PUSH4 0x198E14F8 EQ PUSH3 0x4E0 JUMPI DUP1 PUSH4 0x1E83409A EQ PUSH3 0x505 JUMPI PUSH1 0x0 DUP1 REVERT JUMPDEST DUP1 PUSH4 0x4E86903 EQ PUSH3 0x400 JUMPI DUP1 PUSH4 0x4F32A1D EQ PUSH3 0x444 JUMPI DUP1 PUSH4 0x143F338C EQ PUSH3 0x46B JUMPI PUSH1 0x0 DUP1 REVERT JUMPDEST CALLDATASIZE PUSH3 0x3FB JUMPI STOP JUMPDEST PUSH1 0x0 DUP1 REVERT JUMPDEST CALLVALUE DUP1 ISZERO PUSH3 0x40D JUMPI PUSH1 0x0 DUP1 REVERT JUMPDEST POP PUSH3 0x431 PUSH3 0x41F CALLDATASIZE PUSH1 0x4 PUSH3 0x3666 JUMP JUMPDEST PUSH1 0x16 PUSH1 0x20 MSTORE PUSH1 0x0 SWAP1 DUP2 MSTORE PUSH1 0x40 SWAP1 KECCAK256 SLOAD DUP2 JUMP JUMPDEST PUSH1 0x40 MLOAD SWAP1 DUP2 MSTORE PUSH1 0x20 ADD JUMPDEST PUSH1 0x40 MLOAD DUP1 SWAP2 SUB SWAP1 RETURN JUMPDEST CALLVALUE DUP1 ISZERO PUSH3 0x451 JUMPI PUSH1 0x0 DUP1 REVERT JUMPDEST POP PUSH3 0x469 PUSH3 0x463 CALLDATASIZE PUSH1 0x4 PUSH3 0x368D JUMP JUMPDEST PUSH3 0xD51 JUMP JUMPDEST STOP JUMPDEST CALLVALUE DUP1 ISZERO PUSH3 0x478 JUMPI PUSH1 0x0 DUP1 REVERT JUMPDEST POP PUSH3 0x483 PUSH3 0xE03 JUMP JUMPDEST PUSH1 0x40 MLOAD PUSH3 0x43B SWAP2 SWAP1 PUSH3 0x37BE JUMP JUMPDEST CALLVALUE DUP1 ISZERO PUSH3 0x49F JUMPI PUSH1 0x0 DUP1 REVERT JUMPDEST POP PUSH3 0x431 PUSH1 0x7 SLOAD DUP2 JUMP JUMPDEST CALLVALUE DUP1 ISZERO PUSH3 0x4B7 JUMPI PUSH1 0x0 DUP1 REVERT JUMPDEST POP PUSH3 0x4CF PUSH3 0x4C9 CALLDATASIZE PUSH1 0x4 PUSH3 0x3666 JUMP JUMPDEST PUSH3 0x101C JUMP JUMPDEST PUSH1 0x40 MLOAD SWAP1 ISZERO ISZERO DUP2 MSTORE PUSH1 0x20 ADD PUSH3 0x43B JUMP JUMPDEST CALLVALUE DUP1 ISZERO PUSH3 0x4ED JUMPI PUSH1 0x0 DUP1 REVERT JUMPDEST POP PUSH3 0x4CF PUSH3 0x4FF CALLDATASIZE PUSH1 0x4 PUSH3 0x3666 JUMP JUMPDEST PUSH3 0x10A5 JUMP JUMPDEST CALLVALUE DUP1 ISZERO PUSH3 0x512 JUMPI PUSH1 0x0 DUP1 REVERT JUMPDEST POP PUSH3 0x469 PUSH3 0x524 CALLDATASIZE PUSH1 0x4 PUSH3 0x3666 JUMP JUMPDEST PUSH3 0x10E4 JUMP JUMPDEST CALLVALUE DUP1 ISZERO PUSH3 0x537 JUMPI PUSH1 0x0 DUP1 REVERT JUMPDEST POP PUSH3 0x431 PUSH3 0x549 CALLDATASIZE PUSH1 0x4 PUSH3 0x3824 JUMP JUMPDEST PUSH3 0x156D JUMP JUMPDEST CALLVALUE DUP1 ISZERO PUSH3 0x55C JUMPI PUSH1 0x0 DUP1 REVERT JUMPDEST POP PUSH3 0x431 PUSH3 0x56E CALLDATASIZE PUSH1 0x4 PUSH3 0x3666 JUMP JUMPDEST PUSH1 0x1 PUSH1 0x1 PUSH1 0xA0 SHL SUB AND PUSH1 0x0 SWAP1 DUP2 MSTORE PUSH1 0x18 PUSH1 0x20 MSTORE PUSH1 0x40 SWAP1 KECCAK256 SLOAD SWAP1 JUMP JUMPDEST CALLVALUE DUP1 ISZERO PUSH3 0x596 JUMPI PUSH1 0x0 DUP1 REVERT JUMPDEST POP PUSH3 0x431 PUSH3 0x159F JUMP JUMPDEST CALLVALUE DUP1 ISZERO PUSH3 0x5AE JUMPI PUSH1 0x0 DUP1 REVERT JUMPDEST POP PUSH3 0x469 PUSH3 0x5C0 CALLDATASIZE PUSH1 0x4 PUSH3 0x3862 JUMP JUMPDEST PUSH3 0x1618 JUMP JUMPDEST CALLVALUE DUP1 ISZERO PUSH3 0x5D3 JUMPI PUSH1 0x0 DUP1 REVERT JUMPDEST POP PUSH3 0x4CF PUSH3 0x5E5 CALLDATASIZE PUSH1 0x4 PUSH3 0x3666 JUMP JUMPDEST PUSH3 0x16FA JUMP JUMPDEST CALLVALUE DUP1 ISZERO PUSH3 0x5F8 JUMPI PUSH1 0x0 DUP1 REVERT JUMPDEST POP PUSH3 0x610 PUSH3 0x60A CALLDATASIZE PUSH1 0x4 PUSH3 0x3666 JUMP JUMPDEST PUSH3 0x1757 JUMP JUMPDEST PUSH1 0x40 MLOAD PUSH3 0x43B SWAP2 SWAP1 PUSH3 0x393F JUMP JUMPDEST CALLVALUE DUP1 ISZERO PUSH3 0x62C JUMPI PUSH1 0x0 DUP1 REVERT JUMPDEST POP PUSH3 0x469 PUSH3 0x63E CALLDATASIZE PUSH1 0x4 PUSH3 0x3824 JUMP JUMPDEST PUSH3 0x1987 JUMP JUMPDEST CALLVALUE DUP1 ISZERO PUSH3 0x651 JUMPI PUSH1 0x0 DUP1 REVERT JUMPDEST POP PUSH3 0x431 PUSH3 0x663 CALLDATASIZE PUSH1 0x4 PUSH3 0x3666 JUMP JUMPDEST PUSH1 0x12 PUSH1 0x20 MSTORE PUSH1 0x0 SWAP1 DUP2 MSTORE PUSH1 0x40 SWAP1 KECCAK256 SLOAD DUP2 JUMP JUMPDEST CALLVALUE DUP1 ISZERO PUSH3 0x682 JUMPI PUSH1 0x0 DUP1 REVERT JUMPDEST POP PUSH3 0x69A PUSH3 0x694 CALLDATASIZE PUSH1 0x4 PUSH3 0x3666 JUMP JUMPDEST PUSH3 0x1A71 JUMP JUMPDEST PUSH1 0x40 MLOAD PUSH3 0x43B SWAP2 SWAP1 PUSH3 0x3998 JUMP JUMPDEST CALLVALUE DUP1 ISZERO PUSH3 0x6B6 JUMPI PUSH1 0x0 DUP1 REVERT JUMPDEST POP PUSH3 0x469 PUSH3 0x6C8 CALLDATASIZE PUSH1 0x4 PUSH3 0x3AAF JUMP JUMPDEST PUSH3 0x1ADF JUMP JUMPDEST CALLVALUE DUP1 ISZERO PUSH3 0x6DB JUMPI PUSH1 0x0 DUP1 REVERT JUMPDEST POP PUSH3 0x6E6 PUSH3 0x1C1C JUMP JUMPDEST PUSH1 0x40 MLOAD PUSH3 0x43B SWAP2 SWAP1 PUSH3 0x3B4C JUMP JUMPDEST CALLVALUE DUP1 ISZERO PUSH3 0x702 JUMPI PUSH1 0x0 DUP1 REVERT JUMPDEST POP PUSH3 0x431 PUSH3 0x714 CALLDATASIZE PUSH1 0x4 PUSH3 0x3824 JUMP JUMPDEST PUSH3 0x1E5A JUMP JUMPDEST CALLVALUE DUP1 ISZERO PUSH3 0x727 JUMPI PUSH1 0x0 DUP1 REVERT JUMPDEST POP PUSH3 0x732 PUSH3 0x1E77 JUMP JUMPDEST PUSH1 0x40 MLOAD PUSH3 0x43B SWAP2 SWAP1 PUSH3 0x3BA5 JUMP JUMPDEST CALLVALUE DUP1 ISZERO PUSH3 0x74E JUMPI PUSH1 0x0 DUP1 REVERT JUMPDEST POP PUSH3 0x431 PUSH1 0x2 SLOAD DUP2 JUMP JUMPDEST CALLVALUE DUP1 ISZERO PUSH3 0x766 JUMPI PUSH1 0x0 DUP1 REVERT JUMPDEST POP PUSH3 0x610 PUSH3 0x1EFB JUMP JUMPDEST CALLVALUE DUP1 ISZERO PUSH3 0x77E JUMPI PUSH1 0x0 DUP1 REVERT JUMPDEST POP PUSH3 0x469 PUSH3 0x790 CALLDATASIZE PUSH1 0x4 PUSH3 0x3824 JUMP JUMPDEST PUSH3 0x20C6 JUMP JUMPDEST CALLVALUE DUP1 ISZERO PUSH3 0x7A3 JUMPI PUSH1 0x0 DUP1 REVERT JUMPDEST POP PUSH3 0x69A PUSH3 0x7B5 CALLDATASIZE PUSH1 0x4 PUSH3 0x3666 JUMP JUMPDEST PUSH3 0x2186 JUMP JUMPDEST CALLVALUE DUP1 ISZERO PUSH3 0x7C8 JUMPI PUSH1 0x0 DUP1 REVERT JUMPDEST POP PUSH3 0x431 PUSH3 0x7DA CALLDATASIZE PUSH1 0x4 PUSH3 0x3666 JUMP JUMPDEST PUSH1 0x1 PUSH1 0x1 PUSH1 0xA0 SHL SUB AND PUSH1 0x0 SWAP1 DUP2 MSTORE PUSH1 0xF PUSH1 0x20 MSTORE PUSH1 0x40 SWAP1 KECCAK256 SLOAD SWAP1 JUMP JUMPDEST CALLVALUE DUP1 ISZERO PUSH3 0x802 JUMPI PUSH1 0x0 DUP1 REVERT JUMPDEST POP PUSH3 0x469 PUSH3 0x814 CALLDATASIZE PUSH1 0x4 PUSH3 0x3824 JUMP JUMPDEST PUSH3 0x21F2 JUMP JUMPDEST CALLVALUE DUP1 ISZERO PUSH3 0x827 JUMPI PUSH1 0x0 DUP1 REVERT JUMPDEST POP PUSH3 0x469 PUSH3 0x839 CALLDATASIZE PUSH1 0x4 PUSH3 0x3862 JUMP JUMPDEST PUSH3 0x22B2 JUMP JUMPDEST CALLVALUE DUP1 ISZERO PUSH3 0x84C JUMPI PUSH1 0x0 DUP1 REVERT JUMPDEST POP PUSH3 0x732 PUSH3 0x23D5 JUMP JUMPDEST CALLVALUE DUP1 ISZERO PUSH3 0x864 JUMPI PUSH1 0x0 DUP1 REVERT JUMPDEST POP PUSH3 0x87C PUSH3 0x876 CALLDATASIZE PUSH1 0x4 PUSH3 0x368D JUMP JUMPDEST PUSH3 0x2411 JUMP JUMPDEST PUSH1 0x40 MLOAD PUSH3 0x43B SWAP10 SWAP9 SWAP8 SWAP7 SWAP6 SWAP5 SWAP4 SWAP3 SWAP2 SWAP1 PUSH3 0x3BE8 JUMP JUMPDEST CALLVALUE DUP1 ISZERO PUSH3 0x8A0 JUMPI PUSH1 0x0 DUP1 REVERT JUMPDEST POP PUSH3 0x8B8 PUSH3 0x8B2 CALLDATASIZE PUSH1 0x4 PUSH3 0x368D JUMP JUMPDEST PUSH3 0x24FE JUMP JUMPDEST PUSH1 0x40 MLOAD PUSH3 0x43B SWAP2 SWAP1 PUSH3 0x3C4D JUMP JUMPDEST CALLVALUE DUP1 ISZERO PUSH3 0x8D4 JUMPI PUSH1 0x0 DUP1 REVERT JUMPDEST POP PUSH3 0x431 PUSH1 0x9 SLOAD DUP2 JUMP JUMPDEST CALLVALUE DUP1 ISZERO PUSH3 0x8EC JUMPI PUSH1 0x0 DUP1 REVERT JUMPDEST POP PUSH3 0x8B8 PUSH3 0x8FE CALLDATASIZE PUSH1 0x4 PUSH3 0x3666 JUMP JUMPDEST PUSH3 0x2627 JUMP JUMPDEST CALLVALUE DUP1 ISZERO PUSH3 0x911 JUMPI PUSH1 0x0 DUP1 REVERT JUMPDEST POP PUSH3 0x469 PUSH3 0x923 CALLDATASIZE PUSH1 0x4 PUSH3 0x368D JUMP JUMPDEST PUSH3 0x26F1 JUMP JUMPDEST CALLVALUE DUP1 ISZERO PUSH3 0x936 JUMPI PUSH1 0x0 DUP1 REVERT JUMPDEST POP PUSH3 0x431 PUSH3 0x2723 JUMP JUMPDEST CALLVALUE DUP1 ISZERO PUSH3 0x94E JUMPI PUSH1 0x0 DUP1 REVERT JUMPDEST POP PUSH3 0x959 PUSH3 0x2793 JUMP JUMPDEST PUSH1 0x40 MLOAD PUSH3 0x43B SWAP2 SWAP1 PUSH3 0x3C62 JUMP JUMPDEST CALLVALUE DUP1 ISZERO PUSH3 0x975 JUMPI PUSH1 0x0 DUP1 REVERT JUMPDEST POP PUSH3 0x98D PUSH3 0x987 CALLDATASIZE PUSH1 0x4 PUSH3 0x3666 JUMP JUMPDEST PUSH3 0x2808 JUMP JUMPDEST PUSH1 0x40 MLOAD PUSH3 0x43B SWAP2 SWAP1 PUSH3 0x3C77 JUMP JUMPDEST CALLVALUE DUP1 ISZERO PUSH3 0x9A9 JUMPI PUSH1 0x0 DUP1 REVERT JUMPDEST POP PUSH3 0x431 PUSH1 0x19 SLOAD DUP2 JUMP JUMPDEST CALLVALUE DUP1 ISZERO PUSH3 0x9C1 JUMPI PUSH1 0x0 DUP1 REVERT JUMPDEST POP PUSH1 0x0 SLOAD PUSH3 0x9D6 SWAP1 PUSH1 0x1 PUSH1 0x1 PUSH1 0xA0 SHL SUB AND DUP2 JUMP JUMPDEST PUSH1 0x40 MLOAD PUSH1 0x1 PUSH1 0x1 PUSH1 0xA0 SHL SUB SWAP1 SWAP2 AND DUP2 MSTORE PUSH1 0x20 ADD PUSH3 0x43B JUMP JUMPDEST CALLVALUE DUP1 ISZERO PUSH3 0x9FC JUMPI PUSH1 0x0 DUP1 REVERT JUMPDEST POP PUSH3 0x431 PUSH3 0xA0E CALLDATASIZE PUSH1 0x4 PUSH3 0x3666 JUMP JUMPDEST PUSH1 0x1 PUSH1 0x1 PUSH1 0xA0 SHL SUB AND PUSH1 0x0 SWAP1 DUP2 MSTORE PUSH1 0x16 PUSH1 0x20 MSTORE PUSH1 0x40 SWAP1 KECCAK256 SLOAD SWAP1 JUMP JUMPDEST CALLVALUE DUP1 ISZERO PUSH3 0xA36 JUMPI PUSH1 0x0 DUP1 REVERT JUMPDEST POP PUSH3 0x610 PUSH3 0xA48 CALLDATASIZE PUSH1 0x4 PUSH3 0x3666 JUMP JUMPDEST PUSH3 0x296E JUMP JUMPDEST CALLVALUE DUP1 ISZERO PUSH3 0xA5B JUMPI PUSH1 0x0 DUP1 REVERT JUMPDEST POP PUSH3 0x431 PUSH1 0xA SLOAD DUP2 JUMP JUMPDEST CALLVALUE DUP1 ISZERO PUSH3 0xA73 JUMPI PUSH1 0x0 DUP1 REVERT JUMPDEST POP PUSH3 0x431 PUSH1 0x3 SLOAD DUP2 JUMP JUMPDEST CALLVALUE DUP1 ISZERO PUSH3 0xA8B JUMPI PUSH1 0x0 DUP1 REVERT JUMPDEST POP PUSH1 0x1 SLOAD PUSH3 0x9D6 SWAP1 PUSH1 0x1 PUSH1 0x1 PUSH1 0xA0 SHL SUB AND DUP2 JUMP JUMPDEST CALLVALUE DUP1 ISZERO PUSH3 0xAAD JUMPI PUSH1 0x0 DUP1 REVERT JUMPDEST POP PUSH3 0x431 PUSH1 0x8 SLOAD DUP2 JUMP JUMPDEST CALLVALUE DUP1 ISZERO PUSH3 0xAC5 JUMPI PUSH1 0x0 DUP1 REVERT JUMPDEST POP PUSH3 0x469 PUSH3 0xAD7 CALLDATASIZE PUSH1 0x4 PUSH3 0x368D JUMP JUMPDEST PUSH3 0x2B97 JUMP JUMPDEST CALLVALUE DUP1 ISZERO PUSH3 0xAEA JUMPI PUSH1 0x0 DUP1 REVERT JUMPDEST POP PUSH3 0x431 PUSH3 0xAFC CALLDATASIZE PUSH1 0x4 PUSH3 0x3666 JUMP JUMPDEST PUSH3 0x2BC9 JUMP JUMPDEST CALLVALUE DUP1 ISZERO PUSH3 0xB0F JUMPI PUSH1 0x0 DUP1 REVERT JUMPDEST POP PUSH3 0x732 PUSH3 0x2C3B JUMP JUMPDEST CALLVALUE DUP1 ISZERO PUSH3 0xB27 JUMPI PUSH1 0x0 DUP1 REVERT JUMPDEST POP PUSH3 0x431 PUSH3 0xB39 CALLDATASIZE PUSH1 0x4 PUSH3 0x3666 JUMP JUMPDEST PUSH1 0x18 PUSH1 0x20 MSTORE PUSH1 0x0 SWAP1 DUP2 MSTORE PUSH1 0x40 SWAP1 KECCAK256 SLOAD DUP2 JUMP JUMPDEST CALLVALUE DUP1 ISZERO PUSH3 0xB58 JUMPI PUSH1 0x0 DUP1 REVERT JUMPDEST POP PUSH3 0x431 PUSH3 0xB6A CALLDATASIZE PUSH1 0x4 PUSH3 0x3666 JUMP JUMPDEST PUSH1 0x11 PUSH1 0x20 MSTORE PUSH1 0x0 SWAP1 DUP2 MSTORE PUSH1 0x40 SWAP1 KECCAK256 SLOAD DUP2 JUMP JUMPDEST CALLVALUE DUP1 ISZERO PUSH3 0xB89 JUMPI PUSH1 0x0 DUP1 REVERT JUMPDEST POP PUSH3 0x9D6 PUSH3 0xB9B CALLDATASIZE PUSH1 0x4 PUSH3 0x3C8C JUMP JUMPDEST PUSH3 0x2C77 JUMP JUMPDEST CALLVALUE DUP1 ISZERO PUSH3 0xBAE JUMPI PUSH1 0x0 DUP1 REVERT JUMPDEST POP PUSH3 0x431 PUSH3 0xBC0 CALLDATASIZE PUSH1 0x4 PUSH3 0x3666 JUMP JUMPDEST PUSH1 0x1 PUSH1 0x1 PUSH1 0xA0 SHL SUB AND PUSH1 0x0 SWAP1 DUP2 MSTORE PUSH1 0x11 PUSH1 0x20 MSTORE PUSH1 0x40 SWAP1 KECCAK256 SLOAD SWAP1 JUMP JUMPDEST CALLVALUE DUP1 ISZERO PUSH3 0xBE8 JUMPI PUSH1 0x0 DUP1 REVERT JUMPDEST POP PUSH3 0x959 PUSH3 0xBFA CALLDATASIZE PUSH1 0x4 PUSH3 0x3666 JUMP JUMPDEST PUSH3 0x3078 JUMP JUMPDEST CALLVALUE DUP1 ISZERO PUSH3 0xC0D JUMPI PUSH1 0x0 DUP1 REVERT JUMPDEST POP PUSH3 0x431 PUSH3 0xC1F CALLDATASIZE PUSH1 0x4 PUSH3 0x3666 JUMP JUMPDEST PUSH1 0x1 PUSH1 0x1 PUSH1 0xA0 SHL SUB AND BALANCE SWAP1 JUMP JUMPDEST CALLVALUE DUP1 ISZERO PUSH3 0xC39 JUMPI PUSH1 0x0 DUP1 REVERT JUMPDEST POP PUSH3 0x431 PUSH3 0xC4B CALLDATASIZE PUSH1 0x4 PUSH3 0x3666 JUMP JUMPDEST PUSH1 0x5 PUSH1 0x20 MSTORE PUSH1 0x0 SWAP1 DUP2 MSTORE PUSH1 0x40 SWAP1 KECCAK256 SLOAD DUP2 JUMP JUMPDEST CALLVALUE DUP1 ISZERO PUSH3 0xC6A JUMPI PUSH1 0x0 DUP1 REVERT JUMPDEST POP PUSH3 0x469 PUSH3 0xC7C CALLDATASIZE PUSH1 0x4 PUSH3 0x3AAF JUMP JUMPDEST PUSH3 0x311A JUMP JUMPDEST CALLVALUE DUP1 ISZERO PUSH3 0xC8F JUMPI PUSH1 0x0 DUP1 REVERT JUMPDEST POP PUSH3 0xCA7 PUSH3 0xCA1 CALLDATASIZE PUSH1 0x4 PUSH3 0x3666 JUMP JUMPDEST PUSH3 0x31E9 JUMP JUMPDEST PUSH1 0x40 MLOAD PUSH3 0x43B SWAP2 SWAP1 PUSH3 0x3CE0 JUMP JUMPDEST CALLVALUE DUP1 ISZERO PUSH3 0xCC3 JUMPI PUSH1 0x0 DUP1 REVERT JUMPDEST POP PUSH3 0x431 PUSH1 0xB SLOAD DUP2 JUMP JUMPDEST CALLVALUE DUP1 ISZERO PUSH3 0xCDB JUMPI PUSH1 0x0 DUP1 REVERT JUMPDEST POP PUSH3 0x959 PUSH3 0x33FA JUMP JUMPDEST CALLVALUE DUP1 ISZERO PUSH3 0xCF3 JUMPI PUSH1 0x0 DUP1 REVERT JUMPDEST POP SELFBALANCE PUSH3 0x431 JUMP JUMPDEST CALLVALUE DUP1 ISZERO PUSH3 0xD08 JUMPI PUSH1 0x0 DUP1 REVERT JUMPDEST POP PUSH3 0x469 PUSH3 0xD1A CALLDATASIZE PUSH1 0x4 PUSH3 0x3666 JUMP JUMPDEST PUSH3 0x3445 JUMP JUMPDEST CALLVALUE DUP1 ISZERO PUSH3 0xD2D JUMPI PUSH1 0x0 DUP1 REVERT JUMPDEST POP PUSH3 0x431 PUSH3 0xD3F CALLDATASIZE PUSH1 0x4 PUSH3 0x3666 JUMP JUMPDEST PUSH1 0xF PUSH1 0x20 MSTORE PUSH1 0x0 SWAP1 DUP2 MSTORE PUSH1 0x40 SWAP1 KECCAK256 SLOAD DUP2 JUMP JUMPDEST PUSH1 0x40 MLOAD PUSH4 0x17E26BC9 PUSH1 0xE1 SHL DUP2 MSTORE PUSH20 0x0 SWAP1 PUSH4 0x2FC4D792 SWAP1 PUSH3 0xD8D SWAP1 PUSH1 0x1B SWAP1 CALLER SWAP1 PUSH1 0x4 ADD PUSH3 0x3CF5 JUMP JUMPDEST PUSH1 0x20 PUSH1 0x40 MLOAD DUP1 DUP4 SUB DUP2 DUP7 GAS DELEGATECALL ISZERO DUP1 ISZERO PUSH3 0xDAB JUMPI RETURNDATASIZE PUSH1 0x0 DUP1 RETURNDATACOPY RETURNDATASIZE PUSH1 0x0 REVERT JUMPDEST POP POP POP POP PUSH1 0x40 MLOAD RETURNDATASIZE PUSH1 0x1F NOT PUSH1 0x1F DUP3 ADD AND DUP3 ADD DUP1 PUSH1 0x40 MSTORE POP DUP2 ADD SWAP1 PUSH3 0xDD1 SWAP2 SWAP1 PUSH3 0x3D0C JUMP JUMPDEST ISZERO ISZERO PUSH1 0x1 EQ PUSH3 0xDFE JUMPI PUSH1 0x40 MLOAD PUSH3 0x461BCD PUSH1 0xE5 SHL DUP2 MSTORE PUSH1 0x4 ADD PUSH3 0xDF5 SWAP1 PUSH3 0x3D2C JUMP JUMPDEST PUSH1 0x40 MLOAD DUP1 SWAP2 SUB SWAP1 REVERT JUMPDEST PUSH1 0x19 SSTORE JUMP JUMPDEST PUSH1 0x40 MLOAD PUSH4 0xC3D3C75 PUSH1 0xE4 SHL DUP2 MSTORE PUSH1 0xC PUSH1 0x4 DUP3 ADD MSTORE PUSH1 0x60 SWAP1 PUSH1 0x0 SWAP1 PUSH20 0x0 SWAP1 PUSH4 0xC3D3C750 SWAP1 PUSH1 0x24 ADD PUSH1 0x20 PUSH1 0x40 MLOAD DUP1 DUP4 SUB DUP2 DUP7 GAS DELEGATECALL ISZERO DUP1 ISZERO PUSH3 0xE5A JUMPI RETURNDATASIZE PUSH1 0x0 DUP1 RETURNDATACOPY RETURNDATASIZE PUSH1 0x0 REVERT JUMPDEST POP POP POP POP PUSH1 0x40 MLOAD RETURNDATASIZE PUSH1 0x1F NOT PUSH1 0x1F DUP3 ADD AND DUP3 ADD DUP1 PUSH1 0x40 MSTORE POP DUP2 ADD SWAP1 PUSH3 0xE80 SWAP2 SWAP1 PUSH3 0x3D57 JUMP JUMPDEST PUSH8 0xFFFFFFFFFFFFFFFF DUP2 GT ISZERO PUSH3 0xE9B JUMPI PUSH3 0xE9B PUSH3 0x39DE JUMP JUMPDEST PUSH1 0x40 MLOAD SWAP1 DUP1 DUP3 MSTORE DUP1 PUSH1 0x20 MUL PUSH1 0x20 ADD DUP3 ADD PUSH1 0x40 MSTORE DUP1 ISZERO PUSH3 0xED8 JUMPI DUP2 PUSH1 0x20 ADD JUMPDEST PUSH3 0xEC4 PUSH3 0x34EC JUMP JUMPDEST DUP2 MSTORE PUSH1 0x20 ADD SWAP1 PUSH1 0x1 SWAP1 SUB SWAP1 DUP2 PUSH3 0xEBA JUMPI SWAP1 POP JUMPDEST POP SWAP1 POP PUSH1 0x0 JUMPDEST PUSH1 0x40 MLOAD PUSH4 0xC3D3C75 PUSH1 0xE4 SHL DUP2 MSTORE PUSH1 0xC PUSH1 0x4 DUP3 ADD MSTORE PUSH20 0x0 SWAP1 PUSH4 0xC3D3C750 SWAP1 PUSH1 0x24 ADD PUSH1 0x20 PUSH1 0x40 MLOAD DUP1 DUP4 SUB DUP2 DUP7 GAS DELEGATECALL ISZERO DUP1 ISZERO PUSH3 0xF2F JUMPI RETURNDATASIZE PUSH1 0x0 DUP1 RETURNDATACOPY RETURNDATASIZE PUSH1 0x0 REVERT JUMPDEST POP POP POP POP PUSH1 0x40 MLOAD RETURNDATASIZE PUSH1 0x1F NOT PUSH1 0x1F DUP3 ADD AND DUP3 ADD DUP1 PUSH1 0x40 MSTORE POP DUP2 ADD SWAP1 PUSH3 0xF55 SWAP2 SWAP1 PUSH3 0x3D57 JUMP JUMPDEST DUP2 LT ISZERO PUSH3 0x1016 JUMPI PUSH1 0x40 MLOAD PUSH4 0x182C6DB PUSH1 0xE3 SHL DUP2 MSTORE PUSH1 0xC PUSH1 0x4 DUP3 ADD MSTORE PUSH1 0x24 DUP2 ADD DUP3 SWAP1 MSTORE PUSH3 0xFE0 SWAP1 PUSH20 0x0 SWAP1 PUSH4 0xC1636D8 SWAP1 PUSH1 0x44 ADD PUSH1 0x20 PUSH1 0x40 MLOAD DUP1 DUP4 SUB DUP2 DUP7 GAS DELEGATECALL ISZERO DUP1 ISZERO PUSH3 0xFBA JUMPI RETURNDATASIZE PUSH1 0x0 DUP1 RETURNDATACOPY RETURNDATASIZE PUSH1 0x0 REVERT JUMPDEST POP POP POP POP PUSH1 0x40 MLOAD RETURNDATASIZE PUSH1 0x1F NOT PUSH1 0x1F DUP3 ADD AND DUP3 ADD DUP1 PUSH1 0x40 MSTORE POP DUP2 ADD SWAP1 PUSH3 0xCA1 SWAP2 SWAP1 PUSH3 0x3D71 JUMP JUMPDEST DUP3 DUP3 DUP2 MLOAD DUP2 LT PUSH3 0xFF5 JUMPI PUSH3 0xFF5 PUSH3 0x3D91 JUMP JUMPDEST PUSH1 0x20 MUL PUSH1 0x20 ADD ADD DUP2 SWAP1 MSTORE POP DUP1 DUP1 PUSH3 0x100D SWAP1 PUSH3 0x3DBD JUMP JUMPDEST SWAP2 POP POP PUSH3 0xEDE JUMP JUMPDEST POP SWAP2 SWAP1 POP JUMP JUMPDEST PUSH1 0x40 MLOAD PUSH4 0x17E26BC9 PUSH1 0xE1 SHL DUP2 MSTORE PUSH1 0x0 SWAP1 PUSH20 0x0 SWAP1 PUSH4 0x2FC4D792 SWAP1 PUSH3 0x105B SWAP1 PUSH1 0xC SWAP1 DUP7 SWAP1 PUSH1 0x4 ADD PUSH3 0x3CF5 JUMP JUMPDEST PUSH1 0x20 PUSH1 0x40 MLOAD DUP1 DUP4 SUB DUP2 DUP7 GAS DELEGATECALL ISZERO DUP1 ISZERO PUSH3 0x1079 JUMPI RETURNDATASIZE PUSH1 0x0 DUP1 RETURNDATACOPY RETURNDATASIZE PUSH1 0x0 REVERT JUMPDEST POP POP POP POP PUSH1 0x40 MLOAD RETURNDATASIZE PUSH1 0x1F NOT PUSH1 0x1F DUP3 ADD AND DUP3 ADD DUP1 PUSH1 0x40 MSTORE POP DUP2 ADD SWAP1 PUSH3 0x109F SWAP2 SWAP1 PUSH3 0x3D0C JUMP JUMPDEST SWAP3 SWAP2 POP POP JUMP JUMPDEST PUSH1 0x40 MLOAD PUSH4 0x17E26BC9 PUSH1 0xE1 SHL DUP2 MSTORE PUSH1 0x0 SWAP1 PUSH20 0x0 SWAP1 PUSH4 0x2FC4D792 SWAP1 PUSH3 0x105B SWAP1 PUSH1 0x1B SWAP1 DUP7 SWAP1 PUSH1 0x4 ADD PUSH3 0x3CF5 JUMP JUMPDEST CALLER PUSH1 0x0 SWAP1 DUP2 MSTORE PUSH1 0x5 PUSH1 0x20 MSTORE PUSH1 0x40 SWAP1 KECCAK256 SLOAD PUSH3 0x1139 JUMPI PUSH1 0x40 MLOAD PUSH3 0x461BCD PUSH1 0xE5 SHL DUP2 MSTORE PUSH1 0x20 PUSH1 0x4 DUP3 ADD MSTORE PUSH1 0x14 PUSH1 0x24 DUP3 ADD MSTORE PUSH20 0x21B0B636103737BA10333937B6903937BABA32B9 PUSH1 0x61 SHL PUSH1 0x44 DUP3 ADD MSTORE PUSH1 0x64 ADD PUSH3 0xDF5 JUMP JUMPDEST CALLER PUSH1 0x0 SWAP1 DUP2 MSTORE PUSH1 0x5 PUSH1 0x20 SWAP1 DUP2 MSTORE PUSH1 0x40 DUP1 DUP4 KECCAK256 SLOAD DUP1 DUP5 MSTORE PUSH1 0x4 SWAP3 DUP4 SWAP1 MSTORE SWAP3 KECCAK256 ADD SLOAD PUSH3 0x11A7 JUMPI PUSH1 0x40 MLOAD PUSH3 0x461BCD PUSH1 0xE5 SHL DUP2 MSTORE PUSH1 0x20 PUSH1 0x4 DUP3 ADD MSTORE PUSH1 0x18 PUSH1 0x24 DUP3 ADD MSTORE PUSH32 0x5468697320636F6465206E6F74206D696E746564207965740000000000000000 PUSH1 0x44 DUP3 ADD MSTORE PUSH1 0x64 ADD PUSH3 0xDF5 JUMP JUMPDEST PUSH1 0x0 DUP2 DUP2 MSTORE PUSH1 0x4 PUSH1 0x20 MSTORE PUSH1 0x40 SWAP1 KECCAK256 PUSH1 0x5 ADD SLOAD ISZERO PUSH3 0x1208 JUMPI PUSH1 0x40 MLOAD PUSH3 0x461BCD PUSH1 0xE5 SHL DUP2 MSTORE PUSH1 0x20 PUSH1 0x4 DUP3 ADD MSTORE PUSH1 0x19 PUSH1 0x24 DUP3 ADD MSTORE PUSH32 0x5468697320636F646520616C726561647920636C61696D656400000000000000 PUSH1 0x44 DUP3 ADD MSTORE PUSH1 0x64 ADD PUSH3 0xDF5 JUMP JUMPDEST PUSH1 0x0 DUP2 DUP2 MSTORE PUSH1 0x4 PUSH1 0x20 DUP2 SWAP1 MSTORE PUSH1 0x40 SWAP1 SWAP2 KECCAK256 PUSH1 0x6 DUP2 ADD SLOAD SWAP2 ADD SLOAD TIMESTAMP SWAP2 PUSH3 0x122E SWAP2 PUSH3 0x3DDB JUMP JUMPDEST GT PUSH3 0x1271 JUMPI PUSH1 0x40 MLOAD PUSH3 0x461BCD PUSH1 0xE5 SHL DUP2 MSTORE PUSH1 0x20 PUSH1 0x4 DUP3 ADD MSTORE PUSH1 0x11 PUSH1 0x24 DUP3 ADD MSTORE PUSH17 0x145C90DBD919481A5CC8195E1C1A5C9959 PUSH1 0x7A SHL PUSH1 0x44 DUP3 ADD MSTORE PUSH1 0x64 ADD PUSH3 0xDF5 JUMP JUMPDEST PUSH1 0x0 DUP2 DUP2 MSTORE PUSH1 0x4 PUSH1 0x20 SWAP1 DUP2 MSTORE PUSH1 0x40 DUP1 DUP4 KECCAK256 PUSH1 0x1 ADD SLOAD PUSH1 0x1 PUSH1 0x1 PUSH1 0xA0 SHL SUB DUP7 AND DUP5 MSTORE PUSH1 0x16 SWAP1 SWAP3 MSTORE DUP3 KECCAK256 DUP1 SLOAD SWAP2 SWAP3 SWAP1 SWAP2 PUSH3 0x12AC SWAP1 DUP5 SWAP1 PUSH3 0x3DDB JUMP JUMPDEST SWAP1 SWAP2 SSTORE POP POP PUSH1 0x1 PUSH1 0x1 PUSH1 0xA0 SHL SUB DUP3 AND PUSH1 0x0 DUP2 DUP2 MSTORE PUSH1 0x17 PUSH1 0x20 SWAP1 DUP2 MSTORE PUSH1 0x40 DUP1 DUP4 KECCAK256 DUP1 SLOAD PUSH1 0x1 DUP2 ADD DUP3 SSTORE SWAP1 DUP5 MSTORE DUP3 DUP5 KECCAK256 ADD DUP6 SWAP1 SSTORE SWAP3 DUP3 MSTORE PUSH1 0x18 SWAP1 MSTORE SWAP1 DUP2 KECCAK256 DUP1 SLOAD SWAP2 PUSH3 0x12F6 DUP4 PUSH3 0x3DBD JUMP JUMPDEST SWAP1 SWAP2 SSTORE POP POP PUSH1 0x8 DUP1 SLOAD SWAP1 PUSH1 0x0 PUSH3 0x130D DUP4 PUSH3 0x3DBD JUMP JUMPDEST SWAP1 SWAP2 SSTORE POP POP PUSH1 0x0 DUP2 DUP2 MSTORE PUSH1 0x4 PUSH1 0x20 SWAP1 DUP2 MSTORE PUSH1 0x40 DUP1 DUP4 KECCAK256 PUSH1 0x1 DUP2 ADD SLOAD PUSH1 0x2 SWAP1 SWAP2 ADD SLOAD PUSH1 0x1 PUSH1 0x1 PUSH1 0xA0 SHL SUB AND DUP5 MSTORE PUSH1 0x12 SWAP1 SWAP3 MSTORE DUP3 KECCAK256 DUP1 SLOAD SWAP2 SWAP3 SWAP1 SWAP2 PUSH3 0x1353 SWAP1 DUP5 SWAP1 PUSH3 0x3DDB JUMP JUMPDEST SWAP1 SWAP2 SSTORE POP POP PUSH1 0x0 DUP2 DUP2 MSTORE PUSH1 0x4 PUSH1 0x20 MSTORE PUSH1 0x40 DUP2 KECCAK256 PUSH1 0x1 ADD SLOAD PUSH1 0xA DUP1 SLOAD SWAP2 SWAP3 SWAP1 SWAP2 PUSH3 0x137F SWAP1 DUP5 SWAP1 PUSH3 0x3DDB JUMP JUMPDEST SWAP1 SWAP2 SSTORE POP POP PUSH1 0x0 DUP2 DUP2 MSTORE PUSH1 0x4 PUSH1 0x20 DUP2 SWAP1 MSTORE PUSH1 0x40 SWAP2 DUP3 SWAP1 KECCAK256 PUSH1 0x3 DUP2 ADD DUP1 SLOAD PUSH1 0x1 PUSH1 0x1 PUSH1 0xA0 SHL SUB NOT AND PUSH1 0x1 PUSH1 0x1 PUSH1 0xA0 SHL SUB DUP8 AND OR SWAP1 SSTORE NUMBER PUSH1 0x5 SWAP1 SWAP2 ADD SSTORE SWAP1 MLOAD PUSH4 0x9F75F0A3 PUSH1 0xE0 SHL DUP2 MSTORE PUSH20 0x0 SWAP2 PUSH4 0x9F75F0A3 SWAP2 PUSH3 0x13F3 SWAP2 PUSH1 0x14 SWAP2 DUP8 SWAP2 ADD PUSH3 0x3CF5 JUMP JUMPDEST PUSH1 0x0 PUSH1 0x40 MLOAD DUP1 DUP4 SUB DUP2 DUP7 DUP1 EXTCODESIZE ISZERO DUP1 ISZERO PUSH3 0x140C JUMPI PUSH1 0x0 DUP1 REVERT JUMPDEST POP GAS DELEGATECALL ISZERO DUP1 ISZERO PUSH3 0x1421 JUMPI RETURNDATASIZE PUSH1 0x0 DUP1 RETURNDATACOPY RETURNDATASIZE PUSH1 0x0 REVERT JUMPDEST POP POP PUSH1 0x1 DUP1 SLOAD PUSH1 0x0 DUP6 DUP2 MSTORE PUSH1 0x4 PUSH1 0x20 DUP2 SWAP1 MSTORE PUSH1 0x40 SWAP2 DUP3 SWAP1 KECCAK256 SWAP1 SWAP4 ADD SLOAD SWAP1 MLOAD PUSH4 0xA9059CBB PUSH1 0xE0 SHL DUP2 MSTORE PUSH1 0x1 PUSH1 0x1 PUSH1 0xA0 SHL SUB SWAP1 SWAP3 AND SWAP5 POP PUSH4 0xA9059CBB SWAP4 POP PUSH3 0x147E SWAP3 DUP8 SWAP3 ADD PUSH1 0x1 PUSH1 0x1 PUSH1 0xA0 SHL SUB SWAP3 SWAP1 SWAP3 AND DUP3 MSTORE PUSH1 0x20 DUP3 ADD MSTORE PUSH1 0x40 ADD SWAP1 JUMP JUMPDEST PUSH1 0x20 PUSH1 0x40 MLOAD DUP1 DUP4 SUB DUP2 PUSH1 0x0 DUP8 GAS CALL ISZERO DUP1 ISZERO PUSH3 0x149E JUMPI RETURNDATASIZE PUSH1 0x0 DUP1 RETURNDATACOPY RETURNDATASIZE PUSH1 0x0 REVERT JUMPDEST POP POP POP POP PUSH1 0x40 MLOAD RETURNDATASIZE PUSH1 0x1F NOT PUSH1 0x1F DUP3 ADD AND DUP3 ADD DUP1 PUSH1 0x40 MSTORE POP DUP2 ADD SWAP1 PUSH3 0x14C4 SWAP2 SWAP1 PUSH3 0x3D0C JUMP JUMPDEST POP PUSH1 0x3 SLOAD PUSH1 0x1 PUSH1 0x1 PUSH1 0xA0 SHL SUB DUP4 AND BALANCE SWAP1 DUP2 LT ISZERO PUSH3 0x1568 JUMPI PUSH1 0x0 DUP4 PUSH1 0x1 PUSH1 0x1 PUSH1 0xA0 SHL SUB AND BALANCE PUSH1 0x3 SLOAD PUSH3 0x14F8 SWAP2 SWAP1 PUSH3 0x3DF6 JUMP JUMPDEST SWAP1 POP DUP1 PUSH1 0xB PUSH1 0x0 DUP3 DUP3 SLOAD PUSH3 0x150E SWAP2 SWAP1 PUSH3 0x3DDB JUMP JUMPDEST SWAP1 SWAP2 SSTORE POP POP PUSH1 0x40 MLOAD PUSH1 0x1 PUSH1 0x1 PUSH1 0xA0 SHL SUB DUP6 AND SWAP1 DUP3 SWAP1 PUSH1 0x0 DUP2 DUP2 DUP2 DUP6 DUP8 GAS CALL SWAP3 POP POP POP RETURNDATASIZE DUP1 PUSH1 0x0 DUP2 EQ PUSH3 0x155E JUMPI PUSH1 0x40 MLOAD SWAP2 POP PUSH1 0x1F NOT PUSH1 0x3F RETURNDATASIZE ADD AND DUP3 ADD PUSH1 0x40 MSTORE RETURNDATASIZE DUP3 MSTORE RETURNDATASIZE PUSH1 0x0 PUSH1 0x20 DUP5 ADD RETURNDATACOPY PUSH3 0x1563 JUMP JUMPDEST PUSH1 0x60 SWAP2 POP JUMPDEST POP POP POP POP JUMPDEST POP POP POP JUMP JUMPDEST PUSH1 0x10 PUSH1 0x20 MSTORE DUP2 PUSH1 0x0 MSTORE PUSH1 0x40 PUSH1 0x0 KECCAK256 DUP2 DUP2 SLOAD DUP2 LT PUSH3 0x158A JUMPI PUSH1 0x0 DUP1 REVERT JUMPDEST SWAP1 PUSH1 0x0 MSTORE PUSH1 0x20 PUSH1 0x0 KECCAK256 ADD PUSH1 0x0 SWAP2 POP SWAP2 POP POP SLOAD DUP2 JUMP JUMPDEST PUSH1 0x1 SLOAD PUSH1 0x40 DUP1 MLOAD PUSH4 0x313CE567 PUSH1 0xE0 SHL DUP2 MSTORE SWAP1 MLOAD PUSH1 0x0 SWAP3 PUSH1 0x1 PUSH1 0x1 PUSH1 0xA0 SHL SUB AND SWAP2 PUSH4 0x313CE567 SWAP2 PUSH1 0x4 DUP1 DUP4 ADD SWAP3 PUSH1 0x20 SWAP3 SWAP2 SWAP1 DUP3 SWAP1 SUB ADD DUP2 DUP7 GAS STATICCALL ISZERO DUP1 ISZERO PUSH3 0x15EA JUMPI RETURNDATASIZE PUSH1 0x0 DUP1 RETURNDATACOPY RETURNDATASIZE PUSH1 0x0 REVERT JUMPDEST POP POP POP POP PUSH1 0x40 MLOAD RETURNDATASIZE PUSH1 0x1F NOT PUSH1 0x1F DUP3 ADD AND DUP3 ADD DUP1 PUSH1 0x40 MSTORE POP DUP2 ADD SWAP1 PUSH3 0x1610 SWAP2 SWAP1 PUSH3 0x3E10 JUMP JUMPDEST PUSH1 0xFF AND SWAP1 POP SWAP1 JUMP JUMPDEST PUSH1 0x0 SLOAD PUSH1 0x1 PUSH1 0x1 PUSH1 0xA0 SHL SUB AND CALLER EQ PUSH3 0x1645 JUMPI PUSH1 0x40 MLOAD PUSH3 0x461BCD PUSH1 0xE5 SHL DUP2 MSTORE PUSH1 0x4 ADD PUSH3 0xDF5 SWAP1 PUSH3 0x3E35 JUMP JUMPDEST DUP1 ISZERO PUSH3 0x16BE JUMPI PUSH1 0x40 MLOAD PUSH4 0x9F75F0A3 PUSH1 0xE0 SHL DUP2 MSTORE PUSH20 0x0 SWAP1 PUSH4 0x9F75F0A3 SWAP1 PUSH3 0x1688 SWAP1 PUSH1 0x1B SWAP1 DUP7 SWAP1 PUSH1 0x4 ADD PUSH3 0x3CF5 JUMP JUMPDEST PUSH1 0x0 PUSH1 0x40 MLOAD DUP1 DUP4 SUB DUP2 DUP7 DUP1 EXTCODESIZE ISZERO DUP1 ISZERO PUSH3 0x16A1 JUMPI PUSH1 0x0 DUP1 REVERT JUMPDEST POP GAS DELEGATECALL ISZERO DUP1 ISZERO PUSH3 0x16B6 JUMPI RETURNDATASIZE PUSH1 0x0 DUP1 RETURNDATACOPY RETURNDATASIZE PUSH1 0x0 REVERT JUMPDEST POP POP POP POP POP POP JUMP JUMPDEST PUSH1 0x40 MLOAD PUSH4 0xA8AFEF95 PUSH1 0xE0 SHL DUP2 MSTORE PUSH20 0x0 SWAP1 PUSH4 0xA8AFEF95 SWAP1 PUSH3 0x1688 SWAP1 PUSH1 0x1B SWAP1 DUP7 SWAP1 PUSH1 0x4 ADD PUSH3 0x3CF5 JUMP JUMPDEST PUSH1 0x1 PUSH1 0x1 PUSH1 0xA0 SHL SUB DUP2 AND PUSH1 0x0 SWAP1 DUP2 MSTORE PUSH1 0x5 PUSH1 0x20 MSTORE PUSH1 0x40 DUP2 KECCAK256 SLOAD ISZERO PUSH3 0x174F JUMPI PUSH1 0x1 PUSH1 0x1 PUSH1 0xA0 SHL SUB DUP3 AND PUSH1 0x0 SWAP1 DUP2 MSTORE PUSH1 0x5 PUSH1 0x20 DUP2 DUP2 MSTORE PUSH1 0x40 DUP1 DUP5 KECCAK256 SLOAD DUP5 MSTORE PUSH1 0x4 SWAP1 SWAP2 MSTORE SWAP1 SWAP2 KECCAK256 ADD SLOAD ISZERO PUSH3 0x174F JUMPI PUSH1 0x1 PUSH3 0x109F JUMP JUMPDEST PUSH1 0x0 SWAP3 SWAP2 POP POP JUMP JUMPDEST PUSH1 0x1 PUSH1 0x1 PUSH1 0xA0 SHL SUB DUP2 AND PUSH1 0x0 SWAP1 DUP2 MSTORE PUSH1 0x17 PUSH1 0x20 MSTORE PUSH1 0x40 DUP2 KECCAK256 SLOAD PUSH1 0x60 SWAP2 SWAP1 PUSH8 0xFFFFFFFFFFFFFFFF DUP2 GT ISZERO PUSH3 0x178F JUMPI PUSH3 0x178F PUSH3 0x39DE JUMP JUMPDEST PUSH1 0x40 MLOAD SWAP1 DUP1 DUP3 MSTORE DUP1 PUSH1 0x20 MUL PUSH1 0x20 ADD DUP3 ADD PUSH1 0x40 MSTORE DUP1 ISZERO PUSH3 0x17CC JUMPI DUP2 PUSH1 0x20 ADD JUMPDEST PUSH3 0x17B8 PUSH3 0x3532 JUMP JUMPDEST DUP2 MSTORE PUSH1 0x20 ADD SWAP1 PUSH1 0x1 SWAP1 SUB SWAP1 DUP2 PUSH3 0x17AE JUMPI SWAP1 POP JUMPDEST POP SWAP1 POP PUSH1 0x0 JUMPDEST PUSH1 0x1 PUSH1 0x1 PUSH1 0xA0 SHL SUB DUP5 AND PUSH1 0x0 SWAP1 DUP2 MSTORE PUSH1 0x17 PUSH1 0x20 MSTORE PUSH1 0x40 SWAP1 KECCAK256 SLOAD DUP2 LT ISZERO PUSH3 0x1980 JUMPI PUSH1 0x1 PUSH1 0x1 PUSH1 0xA0 SHL SUB DUP5 AND PUSH1 0x0 SWAP1 DUP2 MSTORE PUSH1 0x17 PUSH1 0x20 MSTORE PUSH1 0x40 DUP2 KECCAK256 DUP1 SLOAD PUSH1 0x4 SWAP3 SWAP2 SWAP1 DUP5 SWAP1 DUP2 LT PUSH3 0x1825 JUMPI PUSH3 0x1825 PUSH3 0x3D91 JUMP JUMPDEST PUSH1 0x0 SWAP2 DUP3 MSTORE PUSH1 0x20 DUP1 DUP4 KECCAK256 SWAP1 SWAP2 ADD SLOAD DUP4 MSTORE DUP3 DUP2 ADD SWAP4 SWAP1 SWAP4 MSTORE PUSH1 0x40 SWAP2 DUP3 ADD SWAP1 KECCAK256 DUP2 MLOAD PUSH2 0x120 DUP2 ADD DUP4 MSTORE DUP2 SLOAD DUP2 MSTORE PUSH1 0x1 DUP3 ADD SLOAD SWAP4 DUP2 ADD SWAP4 SWAP1 SWAP4 MSTORE PUSH1 0x2 DUP2 ADD SLOAD PUSH1 0x1 PUSH1 0x1 PUSH1 0xA0 SHL SUB SWAP1 DUP2 AND SWAP3 DUP5 ADD SWAP3 SWAP1 SWAP3 MSTORE PUSH1 0x3 DUP2 ADD SLOAD DUP3 AND PUSH1 0x60 DUP5 ADD MSTORE PUSH1 0x4 DUP2 ADD SLOAD PUSH1 0x80 DUP5 ADD MSTORE PUSH1 0x5 DUP2 ADD SLOAD PUSH1 0xA0 DUP5 ADD MSTORE PUSH1 0x6 DUP2 ADD SLOAD PUSH1 0xC0 DUP5 ADD MSTORE PUSH1 0x7 DUP2 ADD SLOAD SWAP1 SWAP2 AND PUSH1 0xE0 DUP4 ADD MSTORE PUSH1 0x8 DUP2 ADD DUP1 SLOAD PUSH2 0x100 DUP5 ADD SWAP2 SWAP1 PUSH3 0x18C2 SWAP1 PUSH3 0x3E5D JUMP JUMPDEST DUP1 PUSH1 0x1F ADD PUSH1 0x20 DUP1 SWAP2 DIV MUL PUSH1 0x20 ADD PUSH1 0x40 MLOAD SWAP1 DUP2 ADD PUSH1 0x40 MSTORE DUP1 SWAP3 SWAP2 SWAP1 DUP2 DUP2 MSTORE PUSH1 0x20 ADD DUP3 DUP1 SLOAD PUSH3 0x18F0 SWAP1 PUSH3 0x3E5D JUMP JUMPDEST DUP1 ISZERO PUSH3 0x1941 JUMPI DUP1 PUSH1 0x1F LT PUSH3 0x1915 JUMPI PUSH2 0x100 DUP1 DUP4 SLOAD DIV MUL DUP4 MSTORE SWAP2 PUSH1 0x20 ADD SWAP2 PUSH3 0x1941 JUMP JUMPDEST DUP3 ADD SWAP2 SWAP1 PUSH1 0x0 MSTORE PUSH1 0x20 PUSH1 0x0 KECCAK256 SWAP1 JUMPDEST DUP2 SLOAD DUP2 MSTORE SWAP1 PUSH1 0x1 ADD SWAP1 PUSH1 0x20 ADD DUP1 DUP4 GT PUSH3 0x1923 JUMPI DUP3 SWAP1 SUB PUSH1 0x1F AND DUP3 ADD SWAP2 JUMPDEST POP POP POP POP POP DUP2 MSTORE POP POP DUP3 DUP3 DUP2 MLOAD DUP2 LT PUSH3 0x195F JUMPI PUSH3 0x195F PUSH3 0x3D91 JUMP JUMPDEST PUSH1 0x20 MUL PUSH1 0x20 ADD ADD DUP2 SWAP1 MSTORE POP DUP1 DUP1 PUSH3 0x1977 SWAP1 PUSH3 0x3DBD JUMP JUMPDEST SWAP2 POP POP PUSH3 0x17D2 JUMP JUMPDEST POP SWAP3 SWAP2 POP POP JUMP JUMPDEST PUSH1 0x40 MLOAD PUSH4 0x17E26BC9 PUSH1 0xE1 SHL DUP2 MSTORE PUSH20 0x0 SWAP1 PUSH4 0x2FC4D792 SWAP1 PUSH3 0x19C3 SWAP1 PUSH1 0x1B SWAP1 CALLER SWAP1 PUSH1 0x4 ADD PUSH3 0x3CF5 JUMP JUMPDEST PUSH1 0x20 PUSH1 0x40 MLOAD DUP1 DUP4 SUB DUP2 DUP7 GAS DELEGATECALL ISZERO DUP1 ISZERO PUSH3 0x19E1 JUMPI RETURNDATASIZE PUSH1 0x0 DUP1 RETURNDATACOPY RETURNDATASIZE PUSH1 0x0 REVERT JUMPDEST POP POP POP POP PUSH1 0x40 MLOAD RETURNDATASIZE PUSH1 0x1F NOT PUSH1 0x1F DUP3 ADD AND DUP3 ADD DUP1 PUSH1 0x40 MSTORE POP DUP2 ADD SWAP1 PUSH3 0x1A07 SWAP2 SWAP1 PUSH3 0x3D0C JUMP JUMPDEST ISZERO ISZERO PUSH1 0x1 EQ PUSH3 0x1A2B JUMPI PUSH1 0x40 MLOAD PUSH3 0x461BCD PUSH1 0xE5 SHL DUP2 MSTORE PUSH1 0x4 ADD PUSH3 0xDF5 SWAP1 PUSH3 0x3D2C JUMP JUMPDEST PUSH1 0x1 PUSH1 0x1 PUSH1 0xA0 SHL SUB DUP3 AND PUSH1 0x0 SWAP1 DUP2 MSTORE PUSH1 0x13 PUSH1 0x20 MSTORE PUSH1 0x40 SWAP1 KECCAK256 SLOAD PUSH3 0x1A51 SWAP1 DUP3 SWAP1 PUSH3 0x3DDB JUMP JUMPDEST PUSH1 0x1 PUSH1 0x1 PUSH1 0xA0 SHL SUB SWAP1 SWAP3 AND PUSH1 0x0 SWAP1 DUP2 MSTORE PUSH1 0x13 PUSH1 0x20 MSTORE PUSH1 0x40 SWAP1 KECCAK256 SWAP2 SWAP1 SWAP2 SSTORE POP JUMP JUMPDEST PUSH1 0x1 PUSH1 0x1 PUSH1 0xA0 SHL SUB DUP2 AND PUSH1 0x0 SWAP1 DUP2 MSTORE PUSH1 0x17 PUSH1 0x20 SWAP1 DUP2 MSTORE PUSH1 0x40 SWAP2 DUP3 SWAP1 KECCAK256 DUP1 SLOAD DUP4 MLOAD DUP2 DUP5 MUL DUP2 ADD DUP5 ADD SWAP1 SWAP5 MSTORE DUP1 DUP5 MSTORE PUSH1 0x60 SWAP4 SWAP3 DUP4 ADD DUP3 DUP3 DUP1 ISZERO PUSH3 0x1AD3 JUMPI PUSH1 0x20 MUL DUP3 ADD SWAP2 SWAP1 PUSH1 0x0 MSTORE PUSH1 0x20 PUSH1 0x0 KECCAK256 SWAP1 JUMPDEST DUP2 SLOAD DUP2 MSTORE PUSH1 0x20 ADD SWAP1 PUSH1 0x1 ADD SWAP1 DUP1 DUP4 GT PUSH3 0x1ABE JUMPI JUMPDEST POP POP POP POP POP SWAP1 POP SWAP2 SWAP1 POP JUMP JUMPDEST PUSH1 0x40 MLOAD PUSH4 0x17E26BC9 PUSH1 0xE1 SHL DUP2 MSTORE PUSH20 0x0 SWAP1 PUSH4 0x2FC4D792 SWAP1 PUSH3 0x1B1B SWAP1 PUSH1 0x1B SWAP1 CALLER SWAP1 PUSH1 0x4 ADD PUSH3 0x3CF5 JUMP JUMPDEST PUSH1 0x20 PUSH1 0x40 MLOAD DUP1 DUP4 SUB DUP2 DUP7 GAS DELEGATECALL ISZERO DUP1 ISZERO PUSH3 0x1B39 JUMPI RETURNDATASIZE PUSH1 0x0 DUP1 RETURNDATACOPY RETURNDATASIZE PUSH1 0x0 REVERT JUMPDEST POP POP POP POP PUSH1 0x40 MLOAD RETURNDATASIZE PUSH1 0x1F NOT PUSH1 0x1F DUP3 ADD AND DUP3 ADD DUP1 PUSH1 0x40 MSTORE POP DUP2 ADD SWAP1 PUSH3 0x1B5F SWAP2 SWAP1 PUSH3 0x3D0C JUMP JUMPDEST ISZERO ISZERO PUSH1 0x1 EQ PUSH3 0x1B83 JUMPI PUSH1 0x40 MLOAD PUSH3 0x461BCD PUSH1 0xE5 SHL DUP2 MSTORE PUSH1 0x4 ADD PUSH3 0xDF5 SWAP1 PUSH3 0x3D2C JUMP JUMPDEST PUSH1 0x40 MLOAD PUSH4 0x9F75F0A3 PUSH1 0xE0 SHL DUP2 MSTORE PUSH20 0x0 SWAP1 PUSH4 0x9F75F0A3 SWAP1 PUSH3 0x1BBF SWAP1 PUSH1 0xC SWAP1 DUP7 SWAP1 PUSH1 0x4 ADD PUSH3 0x3CF5 JUMP JUMPDEST PUSH1 0x0 PUSH1 0x40 MLOAD DUP1 DUP4 SUB DUP2 DUP7 DUP1 EXTCODESIZE ISZERO DUP1 ISZERO PUSH3 0x1BD8 JUMPI PUSH1 0x0 DUP1 REVERT JUMPDEST POP GAS DELEGATECALL ISZERO DUP1 ISZERO PUSH3 0x1BED JUMPI RETURNDATASIZE PUSH1 0x0 DUP1 RETURNDATACOPY RETURNDATASIZE PUSH1 0x0 REVERT JUMPDEST POP POP POP POP PUSH1 0x1 PUSH1 0x1 PUSH1 0xA0 SHL SUB DUP3 AND PUSH1 0x0 SWAP1 DUP2 MSTORE PUSH1 0xE PUSH1 0x20 SWAP1 DUP2 MSTORE PUSH1 0x40 SWAP1 SWAP2 KECCAK256 DUP3 MLOAD PUSH3 0x1568 SWAP3 DUP5 ADD SWAP1 PUSH3 0x3599 JUMP JUMPDEST PUSH1 0x40 MLOAD PUSH4 0xC3D3C75 PUSH1 0xE4 SHL DUP2 MSTORE PUSH1 0x14 PUSH1 0x4 DUP3 ADD MSTORE PUSH1 0x60 SWAP1 PUSH1 0x0 SWAP1 PUSH20 0x0 SWAP1 PUSH4 0xC3D3C750 SWAP1 PUSH1 0x24 ADD PUSH1 0x20 PUSH1 0x40 MLOAD DUP1 DUP4 SUB DUP2 DUP7 GAS DELEGATECALL ISZERO DUP1 ISZERO PUSH3 0x1C73 JUMPI RETURNDATASIZE PUSH1 0x0 DUP1 RETURNDATACOPY RETURNDATASIZE PUSH1 0x0 REVERT JUMPDEST POP POP POP POP PUSH1 0x40 MLOAD RETURNDATASIZE PUSH1 0x1F NOT PUSH1 0x1F DUP3 ADD AND DUP3 ADD DUP1 PUSH1 0x40 MSTORE POP DUP2 ADD SWAP1 PUSH3 0x1C99 SWAP2 SWAP1 PUSH3 0x3D57 JUMP JUMPDEST PUSH8 0xFFFFFFFFFFFFFFFF DUP2 GT ISZERO PUSH3 0x1CB4 JUMPI PUSH3 0x1CB4 PUSH3 0x39DE JUMP JUMPDEST PUSH1 0x40 MLOAD SWAP1 DUP1 DUP3 MSTORE DUP1 PUSH1 0x20 MUL PUSH1 0x20 ADD DUP3 ADD PUSH1 0x40 MSTORE DUP1 ISZERO PUSH3 0x1D1C JUMPI DUP2 PUSH1 0x20 ADD JUMPDEST PUSH3 0x1D08 PUSH1 0x40 MLOAD DUP1 PUSH1 0x80 ADD PUSH1 0x40 MSTORE DUP1 PUSH1 0x0 PUSH1 0x1 PUSH1 0x1 PUSH1 0xA0 SHL SUB AND DUP2 MSTORE PUSH1 0x20 ADD PUSH1 0x0 DUP2 MSTORE PUSH1 0x20 ADD PUSH1 0x60 DUP2 MSTORE PUSH1 0x20 ADD PUSH1 0x0 DUP2 MSTORE POP SWAP1 JUMP JUMPDEST DUP2 MSTORE PUSH1 0x20 ADD SWAP1 PUSH1 0x1 SWAP1 SUB SWAP1 DUP2 PUSH3 0x1CD3 JUMPI SWAP1 POP JUMPDEST POP SWAP1 POP PUSH1 0x0 JUMPDEST PUSH1 0x40 MLOAD PUSH4 0xC3D3C75 PUSH1 0xE4 SHL DUP2 MSTORE PUSH1 0x14 PUSH1 0x4 DUP3 ADD MSTORE PUSH20 0x0 SWAP1 PUSH4 0xC3D3C750 SWAP1 PUSH1 0x24 ADD PUSH1 0x20 PUSH1 0x40 MLOAD DUP1 DUP4 SUB DUP2 DUP7 GAS DELEGATECALL ISZERO DUP1 ISZERO PUSH3 0x1D73 JUMPI RETURNDATASIZE PUSH1 0x0 DUP1 RETURNDATACOPY RETURNDATASIZE PUSH1 0x0 REVERT JUMPDEST POP POP POP POP PUSH1 0x40 MLOAD RETURNDATASIZE PUSH1 0x1F NOT PUSH1 0x1F DUP3 ADD AND DUP3 ADD DUP1 PUSH1 0x40 MSTORE POP DUP2 ADD SWAP1 PUSH3 0x1D99 SWAP2 SWAP1 PUSH3 0x3D57 JUMP JUMPDEST DUP2 LT ISZERO PUSH3 0x1016 JUMPI PUSH1 0x40 MLOAD PUSH4 0x182C6DB PUSH1 0xE3 SHL DUP2 MSTORE PUSH1 0x14 PUSH1 0x4 DUP3 ADD MSTORE PUSH1 0x24 DUP2 ADD DUP3 SWAP1 MSTORE PUSH3 0x1E24 SWAP1 PUSH20 0x0 SWAP1 PUSH4 0xC1636D8 SWAP1 PUSH1 0x44 ADD PUSH1 0x20 PUSH1 0x40 MLOAD DUP1 DUP4 SUB DUP2 DUP7 GAS DELEGATECALL ISZERO DUP1 ISZERO PUSH3 0x1DFE JUMPI RETURNDATASIZE PUSH1 0x0 DUP1 RETURNDATACOPY RETURNDATASIZE PUSH1 0x0 REVERT JUMPDEST POP POP POP POP PUSH1 0x40 MLOAD RETURNDATASIZE PUSH1 0x1F NOT PUSH1 0x1F DUP3 ADD AND DUP3 ADD DUP1 PUSH1 0x40 MSTORE POP DUP2 ADD SWAP1 PUSH3 0x987 SWAP2 SWAP1 PUSH3 0x3D71 JUMP JUMPDEST DUP3 DUP3 DUP2 MLOAD DUP2 LT PUSH3 0x1E39 JUMPI PUSH3 0x1E39 PUSH3 0x3D91 JUMP JUMPDEST PUSH1 0x20 MUL PUSH1 0x20 ADD ADD DUP2 SWAP1 MSTORE POP DUP1 DUP1 PUSH3 0x1E51 SWAP1 PUSH3 0x3DBD JUMP JUMPDEST SWAP2 POP POP PUSH3 0x1D22 JUMP JUMPDEST PUSH1 0x17 PUSH1 0x20 MSTORE DUP2 PUSH1 0x0 MSTORE PUSH1 0x40 PUSH1 0x0 KECCAK256 DUP2 DUP2 SLOAD DUP2 LT PUSH3 0x158A JUMPI PUSH1 0x0 DUP1 REVERT JUMPDEST PUSH1 0x40 MLOAD PUSH4 0x1006CA19 PUSH1 0xE1 SHL DUP2 MSTORE PUSH1 0x14 PUSH1 0x4 DUP3 ADD MSTORE PUSH1 0x60 SWAP1 PUSH20 0x0 SWAP1 PUSH4 0x200D9432 SWAP1 PUSH1 0x24 ADD JUMPDEST PUSH1 0x0 PUSH1 0x40 MLOAD DUP1 DUP4 SUB DUP2 DUP7 GAS DELEGATECALL ISZERO DUP1 ISZERO PUSH3 0x1ECC JUMPI RETURNDATASIZE PUSH1 0x0 DUP1 RETURNDATACOPY RETURNDATASIZE PUSH1 0x0 REVERT JUMPDEST POP POP POP POP PUSH1 0x40 MLOAD RETURNDATASIZE PUSH1 0x0 DUP3 RETURNDATACOPY PUSH1 0x1F RETURNDATASIZE SWAP1 DUP2 ADD PUSH1 0x1F NOT AND DUP3 ADD PUSH1 0x40 MSTORE PUSH3 0x1EF6 SWAP2 SWAP1 DUP2 ADD SWAP1 PUSH3 0x3E94 JUMP JUMPDEST SWAP1 POP SWAP1 JUMP JUMPDEST PUSH1 0x60 PUSH1 0x0 PUSH1 0x7 SLOAD PUSH8 0xFFFFFFFFFFFFFFFF DUP2 GT ISZERO PUSH3 0x1F1D JUMPI PUSH3 0x1F1D PUSH3 0x39DE JUMP JUMPDEST PUSH1 0x40 MLOAD SWAP1 DUP1 DUP3 MSTORE DUP1 PUSH1 0x20 MUL PUSH1 0x20 ADD DUP3 ADD PUSH1 0x40 MSTORE DUP1 ISZERO PUSH3 0x1F5A JUMPI DUP2 PUSH1 0x20 ADD JUMPDEST PUSH3 0x1F46 PUSH3 0x3532 JUMP JUMPDEST DUP2 MSTORE PUSH1 0x20 ADD SWAP1 PUSH1 0x1 SWAP1 SUB SWAP1 DUP2 PUSH3 0x1F3C JUMPI SWAP1 POP JUMPDEST POP SWAP1 POP PUSH1 0x1 JUMPDEST PUSH1 0x6 SLOAD DUP2 GT PUSH3 0x1016 JUMPI PUSH1 0x0 DUP2 DUP2 MSTORE PUSH1 0x4 PUSH1 0x20 DUP2 DUP2 MSTORE PUSH1 0x40 SWAP3 DUP4 SWAP1 KECCAK256 DUP4 MLOAD PUSH2 0x120 DUP2 ADD DUP6 MSTORE DUP2 SLOAD DUP2 MSTORE PUSH1 0x1 DUP3 ADD SLOAD SWAP3 DUP2 ADD SWAP3 SWAP1 SWAP3 MSTORE PUSH1 0x2 DUP2 ADD SLOAD PUSH1 0x1 PUSH1 0x1 PUSH1 0xA0 SHL SUB SWAP1 DUP2 AND SWAP5 DUP4 ADD SWAP5 SWAP1 SWAP5 MSTORE PUSH1 0x3 DUP2 ADD SLOAD DUP5 AND PUSH1 0x60 DUP4 ADD MSTORE SWAP2 DUP3 ADD SLOAD PUSH1 0x80 DUP3 ADD MSTORE PUSH1 0x5 DUP3 ADD SLOAD PUSH1 0xA0 DUP3 ADD MSTORE PUSH1 0x6 DUP3 ADD SLOAD PUSH1 0xC0 DUP3 ADD MSTORE PUSH1 0x7 DUP3 ADD SLOAD SWAP1 SWAP3 AND PUSH1 0xE0 DUP4 ADD MSTORE PUSH1 0x8 DUP2 ADD DUP1 SLOAD PUSH2 0x100 DUP5 ADD SWAP2 SWAP1 PUSH3 0x1FFA SWAP1 PUSH3 0x3E5D JUMP JUMPDEST DUP1 PUSH1 0x1F ADD PUSH1 0x20 DUP1 SWAP2 DIV MUL PUSH1 0x20 ADD PUSH1 0x40 MLOAD SWAP1 DUP2 ADD PUSH1 0x40 MSTORE DUP1 SWAP3 SWAP2 SWAP1 DUP2 DUP2 MSTORE PUSH1 0x20 ADD DUP3 DUP1 SLOAD PUSH3 0x2028 SWAP1 PUSH3 0x3E5D JUMP JUMPDEST DUP1 ISZERO PUSH3 0x2079 JUMPI DUP1 PUSH1 0x1F LT PUSH3 0x204D JUMPI PUSH2 0x100 DUP1 DUP4 SLOAD DIV MUL DUP4 MSTORE SWAP2 PUSH1 0x20 ADD SWAP2 PUSH3 0x2079 JUMP JUMPDEST DUP3 ADD SWAP2 SWAP1 PUSH1 0x0 MSTORE PUSH1 0x20 PUSH1 0x0 KECCAK256 SWAP1 JUMPDEST DUP2 SLOAD DUP2 MSTORE SWAP1 PUSH1 0x1 ADD SWAP1 PUSH1 0x20 ADD DUP1 DUP4 GT PUSH3 0x205B JUMPI DUP3 SWAP1 SUB PUSH1 0x1F AND DUP3 ADD SWAP2 JUMPDEST POP POP POP POP POP DUP2 MSTORE POP POP DUP3 PUSH1 0x1 DUP4 PUSH3 0x2092 SWAP2 SWAP1 PUSH3 0x3DF6 JUMP JUMPDEST DUP2 MLOAD DUP2 LT PUSH3 0x20A5 JUMPI PUSH3 0x20A5 PUSH3 0x3D91 JUMP JUMPDEST PUSH1 0x20 MUL PUSH1 0x20 ADD ADD DUP2 SWAP1 MSTORE POP DUP1 DUP1 PUSH3 0x20BD SWAP1 PUSH3 0x3DBD JUMP JUMPDEST SWAP2 POP POP PUSH3 0x1F60 JUMP JUMPDEST PUSH1 0x40 MLOAD PUSH4 0x17E26BC9 PUSH1 0xE1 SHL DUP2 MSTORE PUSH20 0x0 SWAP1 PUSH4 0x2FC4D792 SWAP1 PUSH3 0x2102 SWAP1 PUSH1 0x1B SWAP1 CALLER SWAP1 PUSH1 0x4 ADD PUSH3 0x3CF5 JUMP JUMPDEST PUSH1 0x20 PUSH1 0x40 MLOAD DUP1 DUP4 SUB DUP2 DUP7 GAS DELEGATECALL ISZERO DUP1 ISZERO PUSH3 0x2120 JUMPI RETURNDATASIZE PUSH1 0x0 DUP1 RETURNDATACOPY RETURNDATASIZE PUSH1 0x0 REVERT JUMPDEST POP POP POP POP PUSH1 0x40 MLOAD RETURNDATASIZE PUSH1 0x1F NOT PUSH1 0x1F DUP3 ADD AND DUP3 ADD DUP1 PUSH1 0x40 MSTORE POP DUP2 ADD SWAP1 PUSH3 0x2146 SWAP2 SWAP1 PUSH3 0x3D0C JUMP JUMPDEST ISZERO ISZERO PUSH1 0x1 EQ PUSH3 0x216A JUMPI PUSH1 0x40 MLOAD PUSH3 0x461BCD PUSH1 0xE5 SHL DUP2 MSTORE PUSH1 0x4 ADD PUSH3 0xDF5 SWAP1 PUSH3 0x3D2C JUMP JUMPDEST PUSH1 0x1 PUSH1 0x1 PUSH1 0xA0 SHL SUB SWAP1 SWAP2 AND PUSH1 0x0 SWAP1 DUP2 MSTORE PUSH1 0x1A PUSH1 0x20 MSTORE PUSH1 0x40 SWAP1 KECCAK256 SSTORE JUMP JUMPDEST PUSH1 0x1 PUSH1 0x1 PUSH1 0xA0 SHL SUB DUP2 AND PUSH1 0x0 SWAP1 DUP2 MSTORE PUSH1 0x10 PUSH1 0x20 SWAP1 DUP2 MSTORE PUSH1 0x40 SWAP2 DUP3 SWAP1 KECCAK256 DUP1 SLOAD DUP4 MLOAD DUP2 DUP5 MUL DUP2 ADD DUP5 ADD SWAP1 SWAP5 MSTORE DUP1 DUP5 MSTORE PUSH1 0x60 SWAP4 SWAP3 DUP4 ADD DUP3 DUP3 DUP1 ISZERO PUSH3 0x1AD3 JUMPI PUSH1 0x20 MUL DUP3 ADD SWAP2 SWAP1 PUSH1 0x0 MSTORE PUSH1 0x20 PUSH1 0x0 KECCAK256 SWAP1 DUP2 SLOAD DUP2 MSTORE PUSH1 0x20 ADD SWAP1 PUSH1 0x1 ADD SWAP1 DUP1 DUP4 GT PUSH3 0x1ABE JUMPI POP POP POP POP POP SWAP1 POP SWAP2 SWAP1 POP JUMP JUMPDEST PUSH1 0x40 MLOAD PUSH4 0x17E26BC9 PUSH1 0xE1 SHL DUP2 MSTORE PUSH20 0x0 SWAP1 PUSH4 0x2FC4D792 SWAP1 PUSH3 0x222E SWAP1 PUSH1 0x1B SWAP1 CALLER SWAP1 PUSH1 0x4 ADD PUSH3 0x3CF5 JUMP JUMPDEST PUSH1 0x20 PUSH1 0x40 MLOAD DUP1 DUP4 SUB DUP2 DUP7 GAS DELEGATECALL ISZERO DUP1 ISZERO PUSH3 0x224C JUMPI RETURNDATASIZE PUSH1 0x0 DUP1 RETURNDATACOPY RETURNDATASIZE PUSH1 0x0 REVERT JUMPDEST POP POP POP POP PUSH1 0x40 MLOAD RETURNDATASIZE PUSH1 0x1F NOT PUSH1 0x1F DUP3 ADD AND DUP3 ADD DUP1 PUSH1 0x40 MSTORE POP DUP2 ADD SWAP1 PUSH3 0x2272 SWAP2 SWAP1 PUSH3 0x3D0C JUMP JUMPDEST ISZERO ISZERO PUSH1 0x1 EQ PUSH3 0x2296 JUMPI PUSH1 0x40 MLOAD PUSH3 0x461BCD PUSH1 0xE5 SHL DUP2 MSTORE PUSH1 0x4 ADD PUSH3 0xDF5 SWAP1 PUSH3 0x3D2C JUMP JUMPDEST PUSH1 0x1 PUSH1 0x1 PUSH1 0xA0 SHL SUB SWAP1 SWAP2 AND PUSH1 0x0 SWAP1 DUP2 MSTORE PUSH1 0x13 PUSH1 0x20 MSTORE PUSH1 0x40 SWAP1 KECCAK256 SSTORE JUMP JUMPDEST PUSH1 0x40 MLOAD PUSH4 0x17E26BC9 PUSH1 0xE1 SHL DUP2 MSTORE PUSH20 0x0 SWAP1 PUSH4 0x2FC4D792 SWAP1 PUSH3 0x22EE SWAP1 PUSH1 0x1B SWAP1 CALLER SWAP1 PUSH1 0x4 ADD PUSH3 0x3CF5 JUMP JUMPDEST PUSH1 0x20 PUSH1 0x40 MLOAD DUP1 DUP4 SUB DUP2 DUP7 GAS DELEGATECALL ISZERO DUP1 ISZERO PUSH3 0x230C JUMPI RETURNDATASIZE PUSH1 0x0 DUP1 RETURNDATACOPY RETURNDATASIZE PUSH1 0x0 REVERT JUMPDEST POP POP POP POP PUSH1 0x40 MLOAD RETURNDATASIZE PUSH1 0x1F NOT PUSH1 0x1F DUP3 ADD AND DUP3 ADD DUP1 PUSH1 0x40 MSTORE POP DUP2 ADD SWAP1 PUSH3 0x2332 SWAP2 SWAP1 PUSH3 0x3D0C JUMP JUMPDEST ISZERO ISZERO PUSH1 0x1 EQ PUSH3 0x2356 JUMPI PUSH1 0x40 MLOAD PUSH3 0x461BCD PUSH1 0xE5 SHL DUP2 MSTORE PUSH1 0x4 ADD PUSH3 0xDF5 SWAP1 PUSH3 0x3D2C JUMP JUMPDEST DUP1 ISZERO PUSH3 0x2399 JUMPI PUSH1 0x40 MLOAD PUSH4 0x9F75F0A3 PUSH1 0xE0 SHL DUP2 MSTORE PUSH20 0x0 SWAP1 PUSH4 0x9F75F0A3 SWAP1 PUSH3 0x1688 SWAP1 PUSH1 0xC SWAP1 DUP7 SWAP1 PUSH1 0x4 ADD PUSH3 0x3CF5 JUMP JUMPDEST PUSH1 0x40 MLOAD PUSH4 0xA8AFEF95 PUSH1 0xE0 SHL DUP2 MSTORE PUSH20 0x0 SWAP1 PUSH4 0xA8AFEF95 SWAP1 PUSH3 0x1688 SWAP1 PUSH1 0xC SWAP1 DUP7 SWAP1 PUSH1 0x4 ADD PUSH3 0x3CF5 JUMP JUMPDEST PUSH1 0x40 MLOAD PUSH4 0x1006CA19 PUSH1 0xE1 SHL DUP2 MSTORE PUSH1 0xC PUSH1 0x4 DUP3 ADD MSTORE PUSH1 0x60 SWAP1 PUSH20 0x0 SWAP1 PUSH4 0x200D9432 SWAP1 PUSH1 0x24 ADD PUSH3 0x1EAE JUMP JUMPDEST PUSH1 0x4 PUSH1 0x20 DUP2 SWAP1 MSTORE PUSH1 0x0 SWAP2 DUP3 MSTORE PUSH1 0x40 SWAP1 SWAP2 KECCAK256 DUP1 SLOAD PUSH1 0x1 DUP3 ADD SLOAD PUSH1 0x2 DUP4 ADD SLOAD PUSH1 0x3 DUP5 ADD SLOAD SWAP5 DUP5 ADD SLOAD PUSH1 0x5 DUP6 ADD SLOAD PUSH1 0x6 DUP7 ADD SLOAD PUSH1 0x7 DUP8 ADD SLOAD PUSH1 0x8 DUP9 ADD DUP1 SLOAD SWAP8 SWAP10 SWAP7 SWAP9 PUSH1 0x1 PUSH1 0x1 PUSH1 0xA0 SHL SUB SWAP7 DUP8 AND SWAP9 SWAP8 DUP8 AND SWAP8 SWAP6 SWAP7 SWAP5 SWAP6 SWAP4 SWAP5 SWAP1 SWAP3 AND SWAP3 PUSH3 0x2475 SWAP1 PUSH3 0x3E5D JUMP JUMPDEST DUP1 PUSH1 0x1F ADD PUSH1 0x20 DUP1 SWAP2 DIV MUL PUSH1 0x20 ADD PUSH1 0x40 MLOAD SWAP1 DUP2 ADD PUSH1 0x40 MSTORE DUP1 SWAP3 SWAP2 SWAP1 DUP2 DUP2 MSTORE PUSH1 0x20 ADD DUP3 DUP1 SLOAD PUSH3 0x24A3 SWAP1 PUSH3 0x3E5D JUMP JUMPDEST DUP1 ISZERO PUSH3 0x24F4 JUMPI DUP1 PUSH1 0x1F LT PUSH3 0x24C8 JUMPI PUSH2 0x100 DUP1 DUP4 SLOAD DIV MUL DUP4 MSTORE SWAP2 PUSH1 0x20 ADD SWAP2 PUSH3 0x24F4 JUMP JUMPDEST DUP3 ADD SWAP2 SWAP1 PUSH1 0x0 MSTORE PUSH1 0x20 PUSH1 0x0 KECCAK256 SWAP1 JUMPDEST DUP2 SLOAD DUP2 MSTORE SWAP1 PUSH1 0x1 ADD SWAP1 PUSH1 0x20 ADD DUP1 DUP4 GT PUSH3 0x24D6 JUMPI DUP3 SWAP1 SUB PUSH1 0x1F AND DUP3 ADD SWAP2 JUMPDEST POP POP POP POP POP SWAP1 POP DUP10 JUMP JUMPDEST PUSH3 0x2508 PUSH3 0x3532 JUMP JUMPDEST PUSH1 0x0 DUP3 DUP2 MSTORE PUSH1 0x4 PUSH1 0x20 DUP2 DUP2 MSTORE PUSH1 0x40 SWAP3 DUP4 SWAP1 KECCAK256 DUP4 MLOAD PUSH2 0x120 DUP2 ADD DUP6 MSTORE DUP2 SLOAD DUP2 MSTORE PUSH1 0x1 DUP3 ADD SLOAD SWAP3 DUP2 ADD SWAP3 SWAP1 SWAP3 MSTORE PUSH1 0x2 DUP2 ADD SLOAD PUSH1 0x1 PUSH1 0x1 PUSH1 0xA0 SHL SUB SWAP1 DUP2 AND SWAP5 DUP4 ADD SWAP5 SWAP1 SWAP5 MSTORE PUSH1 0x3 DUP2 ADD SLOAD DUP5 AND PUSH1 0x60 DUP4 ADD MSTORE SWAP2 DUP3 ADD SLOAD PUSH1 0x80 DUP3 ADD MSTORE PUSH1 0x5 DUP3 ADD SLOAD PUSH1 0xA0 DUP3 ADD MSTORE PUSH1 0x6 DUP3 ADD SLOAD PUSH1 0xC0 DUP3 ADD MSTORE PUSH1 0x7 DUP3 ADD SLOAD SWAP1 SWAP3 AND PUSH1 0xE0 DUP4 ADD MSTORE PUSH1 0x8 DUP2 ADD DUP1 SLOAD PUSH2 0x100 DUP5 ADD SWAP2 SWAP1 PUSH3 0x2598 SWAP1 PUSH3 0x3E5D JUMP JUMPDEST DUP1 PUSH1 0x1F ADD PUSH1 0x20 DUP1 SWAP2 DIV MUL PUSH1 0x20 ADD PUSH1 0x40 MLOAD SWAP1 DUP2 ADD PUSH1 0x40 MSTORE DUP1 SWAP3 SWAP2 SWAP1 DUP2 DUP2 MSTORE PUSH1 0x20 ADD DUP3 DUP1 SLOAD PUSH3 0x25C6 SWAP1 PUSH3 0x3E5D JUMP JUMPDEST DUP1 ISZERO PUSH3 0x2617 JUMPI DUP1 PUSH1 0x1F LT PUSH3 0x25EB JUMPI PUSH2 0x100 DUP1 DUP4 SLOAD DIV MUL DUP4 MSTORE SWAP2 PUSH1 0x20 ADD SWAP2 PUSH3 0x2617 JUMP JUMPDEST DUP3 ADD SWAP2 SWAP1 PUSH1 0x0 MSTORE PUSH1 0x20 PUSH1 0x0 KECCAK256 SWAP1 JUMPDEST DUP2 SLOAD DUP2 MSTORE SWAP1 PUSH1 0x1 ADD SWAP1 PUSH1 0x20 ADD DUP1 DUP4 GT PUSH3 0x25F9 JUMPI DUP3 SWAP1 SUB PUSH1 0x1F AND DUP3 ADD SWAP2 JUMPDEST POP POP POP POP POP DUP2 MSTORE POP POP SWAP1 POP SWAP2 SWAP1 POP JUMP JUMPDEST PUSH3 0x2631 PUSH3 0x3532 JUMP JUMPDEST PUSH1 0x1 PUSH1 0x1 PUSH1 0xA0 SHL SUB DUP3 AND PUSH1 0x0 SWAP1 DUP2 MSTORE PUSH1 0x5 PUSH1 0x20 MSTORE PUSH1 0x40 SWAP1 KECCAK256 SLOAD ISZERO PUSH3 0x26EC JUMPI PUSH1 0x1 PUSH1 0x1 PUSH1 0xA0 SHL SUB DUP1 DUP4 AND PUSH1 0x0 SWAP1 DUP2 MSTORE PUSH1 0x5 PUSH1 0x20 DUP2 DUP2 MSTORE PUSH1 0x40 DUP1 DUP5 KECCAK256 SLOAD DUP5 MSTORE PUSH1 0x4 DUP1 DUP4 MSTORE SWAP4 DUP2 SWAP1 KECCAK256 DUP2 MLOAD PUSH2 0x120 DUP2 ADD DUP4 MSTORE DUP2 SLOAD DUP2 MSTORE PUSH1 0x1 DUP3 ADD SLOAD SWAP4 DUP2 ADD SWAP4 SWAP1 SWAP4 MSTORE PUSH1 0x2 DUP2 ADD SLOAD DUP7 AND SWAP2 DUP4 ADD SWAP2 SWAP1 SWAP2 MSTORE PUSH1 0x3 DUP2 ADD SLOAD DUP6 AND PUSH1 0x60 DUP4 ADD MSTORE SWAP3 DUP4 ADD SLOAD PUSH1 0x80 DUP3 ADD MSTORE SWAP1 DUP3 ADD SLOAD PUSH1 0xA0 DUP3 ADD MSTORE PUSH1 0x6 DUP3 ADD SLOAD PUSH1 0xC0 DUP3 ADD MSTORE PUSH1 0x7 DUP3 ADD SLOAD SWAP1 SWAP3 AND PUSH1 0xE0 DUP4 ADD MSTORE PUSH1 0x8 DUP2 ADD DUP1 SLOAD PUSH2 0x100 DUP5 ADD SWAP2 SWAP1 PUSH3 0x2598 SWAP1 PUSH3 0x3E5D JUMP JUMPDEST SWAP2 SWAP1 POP JUMP JUMPDEST PUSH1 0x0 SLOAD PUSH1 0x1 PUSH1 0x1 PUSH1 0xA0 SHL SUB AND CALLER EQ PUSH3 0x271E JUMPI PUSH1 0x40 MLOAD PUSH3 0x461BCD PUSH1 0xE5 SHL DUP2 MSTORE PUSH1 0x4 ADD PUSH3 0xDF5 SWAP1 PUSH3 0x3E35 JUMP JUMPDEST PUSH1 0x3 SSTORE JUMP JUMPDEST PUSH1 0x1 SLOAD PUSH1 0x40 MLOAD PUSH4 0x70A08231 PUSH1 0xE0 SHL DUP2 MSTORE ADDRESS PUSH1 0x4 DUP3 ADD MSTORE PUSH1 0x0 SWAP2 PUSH1 0x1 PUSH1 0x1 PUSH1 0xA0 SHL SUB AND SWAP1 PUSH4 0x70A08231 SWAP1 PUSH1 0x24 ADD PUSH1 0x20 PUSH1 0x40 MLOAD DUP1 DUP4 SUB DUP2 DUP7 GAS STATICCALL ISZERO DUP1 ISZERO PUSH3 0x276D JUMPI RETURNDATASIZE PUSH1 0x0 DUP1 RETURNDATACOPY RETURNDATASIZE PUSH1 0x0 REVERT JUMPDEST POP POP POP POP PUSH1 0x40 MLOAD RETURNDATASIZE PUSH1 0x1F NOT PUSH1 0x1F DUP3 ADD AND DUP3 ADD DUP1 PUSH1 0x40 MSTORE POP DUP2 ADD SWAP1 PUSH3 0x1EF6 SWAP2 SWAP1 PUSH3 0x3D57 JUMP JUMPDEST PUSH1 0x1 SLOAD PUSH1 0x40 DUP1 MLOAD PUSH4 0x6FDDE03 PUSH1 0xE0 SHL DUP2 MSTORE SWAP1 MLOAD PUSH1 0x60 SWAP3 PUSH1 0x1 PUSH1 0x1 PUSH1 0xA0 SHL SUB AND SWAP2 PUSH4 0x6FDDE03 SWAP2 PUSH1 0x4 DUP1 DUP4 ADD SWAP3 PUSH1 0x0 SWAP3 SWAP2 SWAP1 DUP3 SWAP1 SUB ADD DUP2 DUP7 GAS STATICCALL ISZERO DUP1 ISZERO PUSH3 0x27DE JUMPI RETURNDATASIZE PUSH1 0x0 DUP1 RETURNDATACOPY RETURNDATASIZE PUSH1 0x0 REVERT JUMPDEST POP POP POP POP PUSH1 0x40 MLOAD RETURNDATASIZE PUSH1 0x0 DUP3 RETURNDATACOPY PUSH1 0x1F RETURNDATASIZE SWAP1 DUP2 ADD PUSH1 0x1F NOT AND DUP3 ADD PUSH1 0x40 MSTORE PUSH3 0x1EF6 SWAP2 SWAP1 DUP2 ADD SWAP1 PUSH3 0x3F53 JUMP JUMPDEST PUSH3 0x283D PUSH1 0x40 MLOAD DUP1 PUSH1 0x80 ADD PUSH1 0x40 MSTORE DUP1 PUSH1 0x0 PUSH1 0x1 PUSH1 0x1 PUSH1 0xA0 SHL SUB AND DUP2 MSTORE PUSH1 0x20 ADD PUSH1 0x0 DUP2 MSTORE PUSH1 0x20 ADD PUSH1 0x60 DUP2 MSTORE PUSH1 0x20 ADD PUSH1 0x0 DUP2 MSTORE POP SWAP1 JUMP JUMPDEST PUSH1 0x40 MLOAD PUSH4 0x17E26BC9 PUSH1 0xE1 SHL DUP2 MSTORE PUSH20 0x0 SWAP1 PUSH4 0x2FC4D792 SWAP1 PUSH3 0x2879 SWAP1 PUSH1 0x14 SWAP1 DUP7 SWAP1 PUSH1 0x4 ADD PUSH3 0x3CF5 JUMP JUMPDEST PUSH1 0x20 PUSH1 0x40 MLOAD DUP1 DUP4 SUB DUP2 DUP7 GAS DELEGATECALL ISZERO DUP1 ISZERO PUSH3 0x2897 JUMPI RETURNDATASIZE PUSH1 0x0 DUP1 RETURNDATACOPY RETURNDATASIZE PUSH1 0x0 REVERT JUMPDEST POP POP POP POP PUSH1 0x40 MLOAD RETURNDATASIZE PUSH1 0x1F NOT PUSH1 0x1F DUP3 ADD AND DUP3 ADD DUP1 PUSH1 0x40 MSTORE POP DUP2 ADD SWAP1 PUSH3 0x28BD SWAP2 SWAP1 PUSH3 0x3D0C JUMP JUMPDEST ISZERO PUSH3 0x26EC JUMPI PUSH1 0x40 DUP1 MLOAD PUSH1 0x80 DUP2 ADD DUP3 MSTORE PUSH1 0x1 PUSH1 0x1 PUSH1 0xA0 SHL SUB DUP5 AND DUP1 DUP3 MSTORE PUSH1 0x0 DUP2 DUP2 MSTORE PUSH1 0x16 PUSH1 0x20 SWAP1 DUP2 MSTORE DUP5 DUP3 KECCAK256 SLOAD DUP2 DUP6 ADD MSTORE SWAP2 DUP2 MSTORE PUSH1 0x17 DUP3 MSTORE DUP4 SWAP1 KECCAK256 DUP1 SLOAD DUP5 MLOAD DUP2 DUP5 MUL DUP2 ADD DUP5 ADD DUP7 MSTORE DUP2 DUP2 MSTORE SWAP4 SWAP5 DUP6 ADD SWAP4 SWAP3 DUP4 ADD DUP3 DUP3 DUP1 ISZERO PUSH3 0x293F JUMPI PUSH1 0x20 MUL DUP3 ADD SWAP2 SWAP1 PUSH1 0x0 MSTORE PUSH1 0x20 PUSH1 0x0 KECCAK256 SWAP1 JUMPDEST DUP2 SLOAD DUP2 MSTORE PUSH1 0x20 ADD SWAP1 PUSH1 0x1 ADD SWAP1 DUP1 DUP4 GT PUSH3 0x292A JUMPI JUMPDEST POP POP POP SWAP2 DUP4 MSTORE POP POP PUSH1 0x1 PUSH1 0x1 PUSH1 0xA0 SHL SUB SWAP1 SWAP4 AND PUSH1 0x0 SWAP1 DUP2 MSTORE PUSH1 0x18 PUSH1 0x20 SWAP1 DUP2 MSTORE PUSH1 0x40 SWAP1 SWAP2 KECCAK256 SLOAD SWAP4 ADD SWAP3 SWAP1 SWAP3 MSTORE POP SWAP1 JUMP JUMPDEST PUSH1 0x1 PUSH1 0x1 PUSH1 0xA0 SHL SUB DUP2 AND PUSH1 0x0 SWAP1 DUP2 MSTORE PUSH1 0x10 PUSH1 0x20 MSTORE PUSH1 0x40 DUP2 KECCAK256 SLOAD PUSH1 0x60 SWAP2 SWAP1 PUSH8 0xFFFFFFFFFFFFFFFF DUP2 GT ISZERO PUSH3 0x29A6 JUMPI PUSH3 0x29A6 PUSH3 0x39DE JUMP JUMPDEST PUSH1 0x40 MLOAD SWAP1 DUP1 DUP3 MSTORE DUP1 PUSH1 0x20 MUL PUSH1 0x20 ADD DUP3 ADD PUSH1 0x40 MSTORE DUP1 ISZERO PUSH3 0x29E3 JUMPI DUP2 PUSH1 0x20 ADD JUMPDEST PUSH3 0x29CF PUSH3 0x3532 JUMP JUMPDEST DUP2 MSTORE PUSH1 0x20 ADD SWAP1 PUSH1 0x1 SWAP1 SUB SWAP1 DUP2 PUSH3 0x29C5 JUMPI SWAP1 POP JUMPDEST POP SWAP1 POP PUSH1 0x0 JUMPDEST PUSH1 0x1 PUSH1 0x1 PUSH1 0xA0 SHL SUB DUP5 AND PUSH1 0x0 SWAP1 DUP2 MSTORE PUSH1 0x10 PUSH1 0x20 MSTORE PUSH1 0x40 SWAP1 KECCAK256 SLOAD DUP2 LT ISZERO PUSH3 0x1980 JUMPI PUSH1 0x1 PUSH1 0x1 PUSH1 0xA0 SHL SUB DUP5 AND PUSH1 0x0 SWAP1 DUP2 MSTORE PUSH1 0x10 PUSH1 0x20 MSTORE PUSH1 0x40 DUP2 KECCAK256 DUP1 SLOAD PUSH1 0x4 SWAP3 SWAP2 SWAP1 DUP5 SWAP1 DUP2 LT PUSH3 0x2A3C JUMPI PUSH3 0x2A3C PUSH3 0x3D91 JUMP JUMPDEST PUSH1 0x0 SWAP2 DUP3 MSTORE PUSH1 0x20 DUP1 DUP4 KECCAK256 SWAP1 SWAP2 ADD SLOAD DUP4 MSTORE DUP3 DUP2 ADD SWAP4 SWAP1 SWAP4 MSTORE PUSH1 0x40 SWAP2 DUP3 ADD SWAP1 KECCAK256 DUP2 MLOAD PUSH2 0x120 DUP2 ADD DUP4 MSTORE DUP2 SLOAD DUP2 MSTORE PUSH1 0x1 DUP3 ADD SLOAD SWAP4 DUP2 ADD SWAP4 SWAP1 SWAP4 MSTORE PUSH1 0x2 DUP2 ADD SLOAD PUSH1 0x1 PUSH1 0x1 PUSH1 0xA0 SHL SUB SWAP1 DUP2 AND SWAP3 DUP5 ADD SWAP3 SWAP1 SWAP3 MSTORE PUSH1 0x3 DUP2 ADD SLOAD DUP3 AND PUSH1 0x60 DUP5 ADD MSTORE PUSH1 0x4 DUP2 ADD SLOAD PUSH1 0x80 DUP5 ADD MSTORE PUSH1 0x5 DUP2 ADD SLOAD PUSH1 0xA0 DUP5 ADD MSTORE PUSH1 0x6 DUP2 ADD SLOAD PUSH1 0xC0 DUP5 ADD MSTORE PUSH1 0x7 DUP2 ADD SLOAD SWAP1 SWAP2 AND PUSH1 0xE0 DUP4 ADD MSTORE PUSH1 0x8 DUP2 ADD DUP1 SLOAD PUSH2 0x100 DUP5 ADD SWAP2 SWAP1 PUSH3 0x2AD9 SWAP1 PUSH3 0x3E5D JUMP JUMPDEST DUP1 PUSH1 0x1F ADD PUSH1 0x20 DUP1 SWAP2 DIV MUL PUSH1 0x20 ADD PUSH1 0x40 MLOAD SWAP1 DUP2 ADD PUSH1 0x40 MSTORE DUP1 SWAP3 SWAP2 SWAP1 DUP2 DUP2 MSTORE PUSH1 0x20 ADD DUP3 DUP1 SLOAD PUSH3 0x2B07 SWAP1 PUSH3 0x3E5D JUMP JUMPDEST DUP1 ISZERO PUSH3 0x2B58 JUMPI DUP1 PUSH1 0x1F LT PUSH3 0x2B2C JUMPI PUSH2 0x100 DUP1 DUP4 SLOAD DIV MUL DUP4 MSTORE SWAP2 PUSH1 0x20 ADD SWAP2 PUSH3 0x2B58 JUMP JUMPDEST DUP3 ADD SWAP2 SWAP1 PUSH1 0x0 MSTORE PUSH1 0x20 PUSH1 0x0 KECCAK256 SWAP1 JUMPDEST DUP2 SLOAD DUP2 MSTORE SWAP1 PUSH1 0x1 ADD SWAP1 PUSH1 0x20 ADD DUP1 DUP4 GT PUSH3 0x2B3A JUMPI DUP3 SWAP1 SUB PUSH1 0x1F AND DUP3 ADD SWAP2 JUMPDEST POP POP POP POP POP DUP2 MSTORE POP POP DUP3 DUP3 DUP2 MLOAD DUP2 LT PUSH3 0x2B76 JUMPI PUSH3 0x2B76 PUSH3 0x3D91 JUMP JUMPDEST PUSH1 0x20 MUL PUSH1 0x20 ADD ADD DUP2 SWAP1 MSTORE POP DUP1 DUP1 PUSH3 0x2B8E SWAP1 PUSH3 0x3DBD JUMP JUMPDEST SWAP2 POP POP PUSH3 0x29E9 JUMP JUMPDEST PUSH1 0x0 SLOAD PUSH1 0x1 PUSH1 0x1 PUSH1 0xA0 SHL SUB AND CALLER EQ PUSH3 0x2BC4 JUMPI PUSH1 0x40 MLOAD PUSH3 0x461BCD PUSH1 0xE5 SHL DUP2 MSTORE PUSH1 0x4 ADD PUSH3 0xDF5 SWAP1 PUSH3 0x3E35 JUMP JUMPDEST PUSH1 0x2 SSTORE JUMP JUMPDEST PUSH1 0x1 SLOAD PUSH1 0x40 MLOAD PUSH4 0x70A08231 PUSH1 0xE0 SHL DUP2 MSTORE PUSH1 0x1 PUSH1 0x1 PUSH1 0xA0 SHL SUB DUP4 DUP2 AND PUSH1 0x4 DUP4 ADD MSTORE PUSH1 0x0 SWAP3 AND SWAP1 PUSH4 0x70A08231 SWAP1 PUSH1 0x24 ADD PUSH1 0x20 PUSH1 0x40 MLOAD DUP1 DUP4 SUB DUP2 DUP7 GAS STATICCALL ISZERO DUP1 ISZERO PUSH3 0x2C15 JUMPI RETURNDATASIZE PUSH1 0x0 DUP1 RETURNDATACOPY RETURNDATASIZE PUSH1 0x0 REVERT JUMPDEST POP POP POP POP PUSH1 0x40 MLOAD RETURNDATASIZE PUSH1 0x1F NOT PUSH1 0x1F DUP3 ADD AND DUP3 ADD DUP1 PUSH1 0x40 MSTORE POP DUP2 ADD SWAP1 PUSH3 0x109F SWAP2 SWAP1 PUSH3 0x3D57 JUMP JUMPDEST PUSH1 0x40 MLOAD PUSH4 0x1006CA19 PUSH1 0xE1 SHL DUP2 MSTORE PUSH1 0x1B PUSH1 0x4 DUP3 ADD MSTORE PUSH1 0x60 SWAP1 PUSH20 0x0 SWAP1 PUSH4 0x200D9432 SWAP1 PUSH1 0x24 ADD PUSH3 0x1EAE JUMP JUMPDEST PUSH1 0x40 MLOAD PUSH4 0x17E26BC9 PUSH1 0xE1 SHL DUP2 MSTORE PUSH1 0x0 SWAP1 PUSH20 0x0 SWAP1 PUSH4 0x2FC4D792 SWAP1 PUSH3 0x2CB6 SWAP1 PUSH1 0xC SWAP1 CALLER SWAP1 PUSH1 0x4 ADD PUSH3 0x3CF5 JUMP JUMPDEST PUSH1 0x20 PUSH1 0x40 MLOAD DUP1 DUP4 SUB DUP2 DUP7 GAS DELEGATECALL ISZERO DUP1 ISZERO PUSH3 0x2CD4 JUMPI RETURNDATASIZE PUSH1 0x0 DUP1 RETURNDATACOPY RETURNDATASIZE PUSH1 0x0 REVERT JUMPDEST POP POP POP POP PUSH1 0x40 MLOAD RETURNDATASIZE PUSH1 0x1F NOT PUSH1 0x1F DUP3 ADD AND DUP3 ADD DUP1 PUSH1 0x40 MSTORE POP DUP2 ADD SWAP1 PUSH3 0x2CFA SWAP2 SWAP1 PUSH3 0x3D0C JUMP JUMPDEST ISZERO ISZERO PUSH1 0x1 EQ PUSH3 0x2D40 JUMPI PUSH1 0x40 MLOAD PUSH3 0x461BCD PUSH1 0xE5 SHL DUP2 MSTORE PUSH1 0x20 PUSH1 0x4 DUP3 ADD MSTORE PUSH1 0x10 PUSH1 0x24 DUP3 ADD MSTORE PUSH16 0x4F6E6C7920666F72206D696E74657273 PUSH1 0x80 SHL PUSH1 0x44 DUP3 ADD MSTORE PUSH1 0x64 ADD PUSH3 0xDF5 JUMP JUMPDEST PUSH1 0x0 DUP5 GT PUSH3 0x2D92 JUMPI PUSH1 0x40 MLOAD PUSH3 0x461BCD PUSH1 0xE5 SHL DUP2 MSTORE PUSH1 0x20 PUSH1 0x4 DUP3 ADD MSTORE PUSH1 0x1B PUSH1 0x24 DUP3 ADD MSTORE PUSH32 0x416D6F756E74206D7573742062652067726561746572207A65726F0000000000 PUSH1 0x44 DUP3 ADD MSTORE PUSH1 0x64 ADD PUSH3 0xDF5 JUMP JUMPDEST PUSH1 0x0 DUP4 ISZERO PUSH3 0x2DA2 JUMPI DUP4 PUSH3 0x2DA6 JUMP JUMPDEST PUSH1 0x2 SLOAD JUMPDEST PUSH1 0x1 SLOAD CALLER PUSH1 0x0 DUP2 DUP2 MSTORE PUSH1 0xE PUSH1 0x20 MSTORE PUSH1 0x40 DUP1 DUP3 KECCAK256 SWAP1 MLOAD SWAP5 SWAP6 POP SWAP1 SWAP4 PUSH1 0x1 PUSH1 0x1 PUSH1 0xA0 SHL SUB SWAP1 SWAP4 AND SWAP3 DUP10 SWAP2 TIMESTAMP SWAP2 DUP8 SWAP2 SWAP1 DUP11 SWAP1 PUSH3 0x2DE0 SWAP1 PUSH3 0x3628 JUMP JUMPDEST PUSH3 0x2DF2 SWAP8 SWAP7 SWAP6 SWAP5 SWAP4 SWAP3 SWAP2 SWAP1 PUSH3 0x3FD3 JUMP JUMPDEST PUSH1 0x40 MLOAD DUP1 SWAP2 SUB SWAP1 PUSH1 0x0 CREATE DUP1 ISZERO DUP1 ISZERO PUSH3 0x2E0F JUMPI RETURNDATASIZE PUSH1 0x0 DUP1 RETURNDATACOPY RETURNDATASIZE PUSH1 0x0 REVERT JUMPDEST POP PUSH1 0x6 DUP1 SLOAD SWAP2 SWAP3 POP PUSH1 0x0 PUSH3 0x2E24 DUP4 PUSH3 0x3DBD JUMP JUMPDEST SWAP2 SWAP1 POP SSTORE POP PUSH1 0x40 MLOAD DUP1 PUSH2 0x120 ADD PUSH1 0x40 MSTORE DUP1 PUSH1 0x6 SLOAD DUP2 MSTORE PUSH1 0x20 ADD DUP8 DUP2 MSTORE PUSH1 0x20 ADD CALLER PUSH1 0x1 PUSH1 0x1 PUSH1 0xA0 SHL SUB AND DUP2 MSTORE PUSH1 0x20 ADD PUSH1 0x0 PUSH1 0x1 PUSH1 0x1 PUSH1 0xA0 SHL SUB AND DUP2 MSTORE PUSH1 0x20 ADD TIMESTAMP DUP2 MSTORE PUSH1 0x20 ADD PUSH1 0x0 DUP2 MSTORE PUSH1 0x20 ADD DUP4 DUP2 MSTORE PUSH1 0x20 ADD DUP3 PUSH1 0x1 PUSH1 0x1 PUSH1 0xA0 SHL SUB AND DUP2 MSTORE PUSH1 0x20 ADD DUP6 DUP2 MSTORE POP PUSH1 0x4 PUSH1 0x0 PUSH1 0x6 SLOAD DUP2 MSTORE PUSH1 0x20 ADD SWAP1 DUP2 MSTORE PUSH1 0x20 ADD PUSH1 0x0 KECCAK256 PUSH1 0x0 DUP3 ADD MLOAD DUP2 PUSH1 0x0 ADD SSTORE PUSH1 0x20 DUP3 ADD MLOAD DUP2 PUSH1 0x1 ADD SSTORE PUSH1 0x40 DUP3 ADD MLOAD DUP2 PUSH1 0x2 ADD PUSH1 0x0 PUSH2 0x100 EXP DUP2 SLOAD DUP2 PUSH1 0x1 PUSH1 0x1 PUSH1 0xA0 SHL SUB MUL NOT AND SWAP1 DUP4 PUSH1 0x1 PUSH1 0x1 PUSH1 0xA0 SHL SUB AND MUL OR SWAP1 SSTORE POP PUSH1 0x60 DUP3 ADD MLOAD DUP2 PUSH1 0x3 ADD PUSH1 0x0 PUSH2 0x100 EXP DUP2 SLOAD DUP2 PUSH1 0x1 PUSH1 0x1 PUSH1 0xA0 SHL SUB MUL NOT AND SWAP1 DUP4 PUSH1 0x1 PUSH1 0x1 PUSH1 0xA0 SHL SUB AND MUL OR SWAP1 SSTORE POP PUSH1 0x80 DUP3 ADD MLOAD DUP2 PUSH1 0x4 ADD SSTORE PUSH1 0xA0 DUP3 ADD MLOAD DUP2 PUSH1 0x5 ADD SSTORE PUSH1 0xC0 DUP3 ADD MLOAD DUP2 PUSH1 0x6 ADD SSTORE PUSH1 0xE0 DUP3 ADD MLOAD DUP2 PUSH1 0x7 ADD PUSH1 0x0 PUSH2 0x100 EXP DUP2 SLOAD DUP2 PUSH1 0x1 PUSH1 0x1 PUSH1 0xA0 SHL SUB MUL NOT AND SWAP1 DUP4 PUSH1 0x1 PUSH1 0x1 PUSH1 0xA0 SHL SUB AND MUL OR SWAP1 SSTORE POP PUSH2 0x100 DUP3 ADD MLOAD DUP2 PUSH1 0x8 ADD SWAP1 DUP1 MLOAD SWAP1 PUSH1 0x20 ADD SWAP1 PUSH3 0x2F75 SWAP3 SWAP2 SWAP1 PUSH3 0x3599 JUMP JUMPDEST POP POP PUSH1 0x6 SLOAD PUSH1 0x1 PUSH1 0x1 PUSH1 0xA0 SHL SUB DUP4 AND PUSH1 0x0 SWAP1 DUP2 MSTORE PUSH1 0x5 PUSH1 0x20 SWAP1 DUP2 MSTORE PUSH1 0x40 DUP1 DUP4 KECCAK256 SWAP4 SWAP1 SWAP4 SSTORE CALLER DUP3 MSTORE PUSH1 0xF SWAP1 MSTORE SWAP1 DUP2 KECCAK256 DUP1 SLOAD DUP10 SWAP4 POP SWAP1 SWAP2 SWAP1 PUSH3 0x2FB8 SWAP1 DUP5 SWAP1 PUSH3 0x3DDB JUMP JUMPDEST SWAP3 POP POP DUP2 SWAP1 SSTORE POP DUP6 PUSH1 0x9 PUSH1 0x0 DUP3 DUP3 SLOAD PUSH3 0x2FD3 SWAP2 SWAP1 PUSH3 0x3DDB JUMP JUMPDEST SWAP1 SWAP2 SSTORE POP POP CALLER PUSH1 0x0 DUP2 DUP2 MSTORE PUSH1 0x10 PUSH1 0x20 SWAP1 DUP2 MSTORE PUSH1 0x40 DUP1 DUP4 KECCAK256 PUSH1 0x6 SLOAD DUP2 SLOAD PUSH1 0x1 DUP2 ADD DUP4 SSTORE SWAP2 DUP6 MSTORE DUP4 DUP6 KECCAK256 SWAP1 SWAP2 ADD SSTORE SWAP3 DUP3 MSTORE PUSH1 0x11 SWAP1 MSTORE SWAP1 DUP2 KECCAK256 DUP1 SLOAD SWAP2 PUSH3 0x3017 DUP4 PUSH3 0x3DBD JUMP JUMPDEST SWAP1 SWAP2 SSTORE POP POP PUSH1 0x7 DUP1 SLOAD SWAP1 PUSH1 0x0 PUSH3 0x302E DUP4 PUSH3 0x3DBD JUMP JUMPDEST SWAP1 SWAP2 SSTORE POP POP PUSH1 0x40 MLOAD PUSH1 0x1 PUSH1 0x1 PUSH1 0xA0 SHL SUB DUP3 AND DUP2 MSTORE PUSH32 0x12A2DCD8D60F7D320A97F9B2F6BCA5B67C1BB9808B27C28915C541EED450D05F SWAP1 PUSH1 0x20 ADD PUSH1 0x40 MLOAD DUP1 SWAP2 SUB SWAP1 LOG1 SWAP6 SWAP5 POP POP POP POP POP JUMP JUMPDEST PUSH1 0xE PUSH1 0x20 MSTORE PUSH1 0x0 SWAP1 DUP2 MSTORE PUSH1 0x40 SWAP1 KECCAK256 DUP1 SLOAD PUSH3 0x3093 SWAP1 PUSH3 0x3E5D JUMP JUMPDEST DUP1 PUSH1 0x1F ADD PUSH1 0x20 DUP1 SWAP2 DIV MUL PUSH1 0x20 ADD PUSH1 0x40 MLOAD SWAP1 DUP2 ADD PUSH1 0x40 MSTORE DUP1 SWAP3 SWAP2 SWAP1 DUP2 DUP2 MSTORE PUSH1 0x20 ADD DUP3 DUP1 SLOAD PUSH3 0x30C1 SWAP1 PUSH3 0x3E5D JUMP JUMPDEST DUP1 ISZERO PUSH3 0x3112 JUMPI DUP1 PUSH1 0x1F LT PUSH3 0x30E6 JUMPI PUSH2 0x100 DUP1 DUP4 SLOAD DIV MUL DUP4 MSTORE SWAP2 PUSH1 0x20 ADD SWAP2 PUSH3 0x3112 JUMP JUMPDEST DUP3 ADD SWAP2 SWAP1 PUSH1 0x0 MSTORE PUSH1 0x20 PUSH1 0x0 KECCAK256 SWAP1 JUMPDEST DUP2 SLOAD DUP2 MSTORE SWAP1 PUSH1 0x1 ADD SWAP1 PUSH1 0x20 ADD DUP1 DUP4 GT PUSH3 0x30F4 JUMPI DUP3 SWAP1 SUB PUSH1 0x1F AND DUP3 ADD SWAP2 JUMPDEST POP POP POP POP POP DUP2 JUMP JUMPDEST PUSH1 0x40 MLOAD PUSH4 0x17E26BC9 PUSH1 0xE1 SHL DUP2 MSTORE PUSH20 0x0 SWAP1 PUSH4 0x2FC4D792 SWAP1 PUSH3 0x3156 SWAP1 PUSH1 0x1B SWAP1 CALLER SWAP1 PUSH1 0x4 ADD PUSH3 0x3CF5 JUMP JUMPDEST PUSH1 0x20 PUSH1 0x40 MLOAD DUP1 DUP4 SUB DUP2 DUP7 GAS DELEGATECALL ISZERO DUP1 ISZERO PUSH3 0x3174 JUMPI RETURNDATASIZE PUSH1 0x0 DUP1 RETURNDATACOPY RETURNDATASIZE PUSH1 0x0 REVERT JUMPDEST POP POP POP POP PUSH1 0x40 MLOAD RETURNDATASIZE PUSH1 0x1F NOT PUSH1 0x1F DUP3 ADD AND DUP3 ADD DUP1 PUSH1 0x40 MSTORE POP DUP2 ADD SWAP1 PUSH3 0x319A SWAP2 SWAP1 PUSH3 0x3D0C JUMP JUMPDEST ISZERO ISZERO PUSH1 0x1 EQ PUSH3 0x31BE JUMPI PUSH1 0x40 MLOAD PUSH3 0x461BCD PUSH1 0xE5 SHL DUP2 MSTORE PUSH1 0x4 ADD PUSH3 0xDF5 SWAP1 PUSH3 0x3D2C JUMP JUMPDEST PUSH1 0x1 PUSH1 0x1 PUSH1 0xA0 SHL SUB DUP3 AND PUSH1 0x0 SWAP1 DUP2 MSTORE PUSH1 0xE PUSH1 0x20 SWAP1 DUP2 MSTORE PUSH1 0x40 SWAP1 SWAP2 KECCAK256 DUP3 MLOAD PUSH3 0x1568 SWAP3 DUP5 ADD SWAP1 PUSH3 0x3599 JUMP JUMPDEST PUSH3 0x31F3 PUSH3 0x34EC JUMP JUMPDEST PUSH1 0x40 MLOAD PUSH4 0x17E26BC9 PUSH1 0xE1 SHL DUP2 MSTORE PUSH20 0x0 SWAP1 PUSH4 0x2FC4D792 SWAP1 PUSH3 0x322F SWAP1 PUSH1 0xC SWAP1 DUP7 SWAP1 PUSH1 0x4 ADD PUSH3 0x3CF5 JUMP JUMPDEST PUSH1 0x20 PUSH1 0x40 MLOAD DUP1 DUP4 SUB DUP2 DUP7 GAS DELEGATECALL ISZERO DUP1 ISZERO PUSH3 0x324D JUMPI RETURNDATASIZE PUSH1 0x0 DUP1 RETURNDATACOPY RETURNDATASIZE PUSH1 0x0 REVERT JUMPDEST POP POP POP POP PUSH1 0x40 MLOAD RETURNDATASIZE PUSH1 0x1F NOT PUSH1 0x1F DUP3 ADD AND DUP3 ADD DUP1 PUSH1 0x40 MSTORE POP DUP2 ADD SWAP1 PUSH3 0x3273 SWAP2 SWAP1 PUSH3 0x3D0C JUMP JUMPDEST ISZERO PUSH3 0x26EC JUMPI PUSH1 0x40 DUP1 MLOAD PUSH1 0xE0 DUP2 ADD DUP3 MSTORE PUSH1 0x1 PUSH1 0x1 PUSH1 0xA0 SHL SUB DUP5 AND DUP1 DUP3 MSTORE PUSH1 0x0 SWAP1 DUP2 MSTORE PUSH1 0xE PUSH1 0x20 SWAP1 DUP2 MSTORE SWAP3 SWAP1 KECCAK256 DUP1 SLOAD SWAP2 SWAP3 DUP4 ADD SWAP2 PUSH3 0x32B1 SWAP1 PUSH3 0x3E5D JUMP JUMPDEST DUP1 PUSH1 0x1F ADD PUSH1 0x20 DUP1 SWAP2 DIV MUL PUSH1 0x20 ADD PUSH1 0x40 MLOAD SWAP1 DUP2 ADD PUSH1 0x40 MSTORE DUP1 SWAP3 SWAP2 SWAP1 DUP2 DUP2 MSTORE PUSH1 0x20 ADD DUP3 DUP1 SLOAD PUSH3 0x32DF SWAP1 PUSH3 0x3E5D JUMP JUMPDEST DUP1 ISZERO PUSH3 0x3330 JUMPI DUP1 PUSH1 0x1F LT PUSH3 0x3304 JUMPI PUSH2 0x100 DUP1 DUP4 SLOAD DIV MUL DUP4 MSTORE SWAP2 PUSH1 0x20 ADD SWAP2 PUSH3 0x3330 JUMP JUMPDEST DUP3 ADD SWAP2 SWAP1 PUSH1 0x0 MSTORE PUSH1 0x20 PUSH1 0x0 KECCAK256 SWAP1 JUMPDEST DUP2 SLOAD DUP2 MSTORE SWAP1 PUSH1 0x1 ADD SWAP1 PUSH1 0x20 ADD DUP1 DUP4 GT PUSH3 0x3312 JUMPI DUP3 SWAP1 SUB PUSH1 0x1F AND DUP3 ADD SWAP2 JUMPDEST POP POP POP SWAP2 DUP4 MSTORE POP POP PUSH1 0x1 PUSH1 0x1 PUSH1 0xA0 SHL SUB DUP5 AND PUSH1 0x0 DUP2 DUP2 MSTORE PUSH1 0xF PUSH1 0x20 SWAP1 DUP2 MSTORE PUSH1 0x40 DUP1 DUP4 KECCAK256 SLOAD DUP3 DUP7 ADD MSTORE DUP4 DUP4 MSTORE PUSH1 0x12 DUP3 MSTORE DUP1 DUP4 KECCAK256 SLOAD DUP2 DUP7 ADD MSTORE SWAP3 DUP3 MSTORE PUSH1 0x10 DUP2 MSTORE SWAP1 DUP3 SWAP1 KECCAK256 DUP1 SLOAD DUP4 MLOAD DUP2 DUP5 MUL DUP2 ADD DUP5 ADD SWAP1 SWAP5 MSTORE DUP1 DUP5 MSTORE PUSH1 0x60 SWAP1 SWAP5 ADD SWAP4 SWAP1 SWAP2 DUP4 ADD DUP3 DUP3 DUP1 ISZERO PUSH3 0x33BC JUMPI PUSH1 0x20 MUL DUP3 ADD SWAP2 SWAP1 PUSH1 0x0 MSTORE PUSH1 0x20 PUSH1 0x0 KECCAK256 SWAP1 JUMPDEST DUP2 SLOAD DUP2 MSTORE PUSH1 0x20 ADD SWAP1 PUSH1 0x1 ADD SWAP1 DUP1 DUP4 GT PUSH3 0x33A7 JUMPI JUMPDEST POP POP POP SWAP2 DUP4 MSTORE POP POP PUSH1 0x1 PUSH1 0x1 PUSH1 0xA0 SHL SUB SWAP1 SWAP4 AND PUSH1 0x0 DUP2 DUP2 MSTORE PUSH1 0x11 PUSH1 0x20 SWAP1 DUP2 MSTORE PUSH1 0x40 DUP1 DUP4 KECCAK256 SLOAD DUP3 DUP9 ADD MSTORE SWAP3 DUP3 MSTORE PUSH1 0x13 SWAP1 MSTORE DUP2 SWAP1 KECCAK256 SLOAD SWAP4 ADD SWAP3 SWAP1 SWAP3 MSTORE POP SWAP1 JUMP JUMPDEST PUSH1 0x1 SLOAD PUSH1 0x40 DUP1 MLOAD PUSH4 0x95D89B41 PUSH1 0xE0 SHL DUP2 MSTORE SWAP1 MLOAD PUSH1 0x60 SWAP3 PUSH1 0x1 PUSH1 0x1 PUSH1 0xA0 SHL SUB AND SWAP2 PUSH4 0x95D89B41 SWAP2 PUSH1 0x4 DUP1 DUP4 ADD SWAP3 PUSH1 0x0 SWAP3 SWAP2 SWAP1 DUP3 SWAP1 SUB ADD DUP2 DUP7 GAS STATICCALL ISZERO DUP1 ISZERO PUSH3 0x27DE JUMPI RETURNDATASIZE PUSH1 0x0 DUP1 RETURNDATACOPY RETURNDATASIZE PUSH1 0x0 REVERT JUMPDEST PUSH1 0x0 SLOAD PUSH1 0x1 PUSH1 0x1 PUSH1 0xA0 SHL SUB AND CALLER EQ PUSH3 0x3472 JUMPI PUSH1 0x40 MLOAD PUSH3 0x461BCD PUSH1 0xE5 SHL DUP2 MSTORE PUSH1 0x4 ADD PUSH3 0xDF5 SWAP1 PUSH3 0x3E35 JUMP JUMPDEST PUSH1 0x1 PUSH1 0x1 PUSH1 0xA0 SHL SUB DUP2 AND PUSH3 0x34CA JUMPI PUSH1 0x40 MLOAD PUSH3 0x461BCD PUSH1 0xE5 SHL DUP2 MSTORE PUSH1 0x20 PUSH1 0x4 DUP3 ADD MSTORE PUSH1 0x1A PUSH1 0x24 DUP3 ADD MSTORE PUSH32 0x4F776E657220616464726573732063616E74206265207A65726F000000000000 PUSH1 0x44 DUP3 ADD MSTORE PUSH1 0x64 ADD PUSH3 0xDF5 JUMP JUMPDEST PUSH1 0x0 DUP1 SLOAD PUSH1 0x1 PUSH1 0x1 PUSH1 0xA0 SHL SUB NOT AND PUSH1 0x1 PUSH1 0x1 PUSH1 0xA0 SHL SUB SWAP3 SWAP1 SWAP3 AND SWAP2 SWAP1 SWAP2 OR SWAP1 SSTORE JUMP JUMPDEST PUSH1 0x40 MLOAD DUP1 PUSH1 0xE0 ADD PUSH1 0x40 MSTORE DUP1 PUSH1 0x0 PUSH1 0x1 PUSH1 0x1 PUSH1 0xA0 SHL SUB AND DUP2 MSTORE PUSH1 0x20 ADD PUSH1 0x60 DUP2 MSTORE PUSH1 0x20 ADD PUSH1 0x0 DUP2 MSTORE PUSH1 0x20 ADD PUSH1 0x0 DUP2 MSTORE PUSH1 0x20 ADD PUSH1 0x60 DUP2 MSTORE PUSH1 0x20 ADD PUSH1 0x0 DUP2 MSTORE PUSH1 0x20 ADD PUSH1 0x0 DUP2 MSTORE POP SWAP1 JUMP JUMPDEST PUSH1 0x40 MLOAD DUP1 PUSH2 0x120 ADD PUSH1 0x40 MSTORE DUP1 PUSH1 0x0 DUP2 MSTORE PUSH1 0x20 ADD PUSH1 0x0 DUP2 MSTORE PUSH1 0x20 ADD PUSH1 0x0 PUSH1 0x1 PUSH1 0x1 PUSH1 0xA0 SHL SUB AND DUP2 MSTORE PUSH1 0x20 ADD PUSH1 0x0 PUSH1 0x1 PUSH1 0x1 PUSH1 0xA0 SHL SUB AND DUP2 MSTORE PUSH1 0x20 ADD PUSH1 0x0 DUP2 MSTORE PUSH1 0x20 ADD PUSH1 0x0 DUP2 MSTORE PUSH1 0x20 ADD PUSH1 0x0 DUP2 MSTORE PUSH1 0x20 ADD PUSH1 0x0 PUSH1 0x1 PUSH1 0x1 PUSH1 0xA0 SHL SUB AND DUP2 MSTORE PUSH1 0x20 ADD PUSH1 0x60 DUP2 MSTORE POP SWAP1 JUMP JUMPDEST DUP3 DUP1 SLOAD PUSH3 0x35A7 SWAP1 PUSH3 0x3E5D JUMP JUMPDEST SWAP1 PUSH1 0x0 MSTORE PUSH1 0x20 PUSH1 0x0 KECCAK256 SWAP1 PUSH1 0x1F ADD PUSH1 0x20 SWAP1 DIV DUP2 ADD SWAP3 DUP3 PUSH3 0x35CB JUMPI PUSH1 0x0 DUP6 SSTORE PUSH3 0x3616 JUMP JUMPDEST DUP3 PUSH1 0x1F LT PUSH3 0x35E6 JUMPI DUP1 MLOAD PUSH1 0xFF NOT AND DUP4 DUP1 ADD OR DUP6 SSTORE PUSH3 0x3616 JUMP JUMPDEST DUP3 DUP1 ADD PUSH1 0x1 ADD DUP6 SSTORE DUP3 ISZERO PUSH3 0x3616 JUMPI SWAP2 DUP3 ADD JUMPDEST DUP3 DUP2 GT ISZERO PUSH3 0x3616 JUMPI DUP3 MLOAD DUP3 SSTORE SWAP2 PUSH1 0x20 ADD SWAP2 SWAP1 PUSH1 0x1 ADD SWAP1 PUSH3 0x35F9 JUMP JUMPDEST POP PUSH3 0x3624 SWAP3 SWAP2 POP PUSH3 0x3636 JUMP JUMPDEST POP SWAP1 JUMP JUMPDEST PUSH2 0xA47 DUP1 PUSH3 0x40CF DUP4 CODECOPY ADD SWAP1 JUMP JUMPDEST JUMPDEST DUP1 DUP3 GT ISZERO PUSH3 0x3624 JUMPI PUSH1 0x0 DUP2 SSTORE PUSH1 0x1 ADD PUSH3 0x3637 JUMP JUMPDEST PUSH1 0x1 PUSH1 0x1 PUSH1 0xA0 SHL SUB DUP2 AND DUP2 EQ PUSH3 0x3663 JUMPI PUSH1 0x0 DUP1 REVERT JUMPDEST POP JUMP JUMPDEST PUSH1 0x0 PUSH1 0x20 DUP3 DUP5 SUB SLT ISZERO PUSH3 0x3679 JUMPI PUSH1 0x0 DUP1 REVERT JUMPDEST DUP2 CALLDATALOAD PUSH3 0x3686 DUP2 PUSH3 0x364D JUMP JUMPDEST SWAP4 SWAP3 POP POP POP JUMP JUMPDEST PUSH1 0x0 PUSH1 0x20 DUP3 DUP5 SUB SLT ISZERO PUSH3 0x36A0 JUMPI PUSH1 0x0 DUP1 REVERT JUMPDEST POP CALLDATALOAD SWAP2 SWAP1 POP JUMP JUMPDEST PUSH1 0x0 JUMPDEST DUP4 DUP2 LT ISZERO PUSH3 0x36C4 JUMPI DUP2 DUP2 ADD MLOAD DUP4 DUP3 ADD MSTORE PUSH1 0x20 ADD PUSH3 0x36AA JUMP JUMPDEST DUP4 DUP2 GT ISZERO PUSH3 0x36D4 JUMPI PUSH1 0x0 DUP5 DUP5 ADD MSTORE JUMPDEST POP POP POP POP JUMP JUMPDEST PUSH1 0x0 DUP2 MLOAD DUP1 DUP5 MSTORE PUSH3 0x36F4 DUP2 PUSH1 0x20 DUP7 ADD PUSH1 0x20 DUP7 ADD PUSH3 0x36A7 JUMP JUMPDEST PUSH1 0x1F ADD PUSH1 0x1F NOT AND SWAP3 SWAP1 SWAP3 ADD PUSH1 0x20 ADD SWAP3 SWAP2 POP POP JUMP JUMPDEST PUSH1 0x0 DUP2 MLOAD DUP1 DUP5 MSTORE PUSH1 0x20 DUP1 DUP6 ADD SWAP5 POP DUP1 DUP5 ADD PUSH1 0x0 JUMPDEST DUP4 DUP2 LT ISZERO PUSH3 0x373A JUMPI DUP2 MLOAD DUP8 MSTORE SWAP6 DUP3 ADD SWAP6 SWAP1 DUP3 ADD SWAP1 PUSH1 0x1 ADD PUSH3 0x371C JUMP JUMPDEST POP SWAP5 SWAP6 SWAP5 POP POP POP POP POP JUMP JUMPDEST PUSH1 0x1 DUP1 PUSH1 0xA0 SHL SUB DUP2 MLOAD AND DUP3 MSTORE PUSH1 0x0 PUSH1 0x20 DUP3 ADD MLOAD PUSH1 0xE0 PUSH1 0x20 DUP6 ADD MSTORE PUSH3 0x376E PUSH1 0xE0 DUP6 ADD DUP3 PUSH3 0x36DA JUMP JUMPDEST SWAP1 POP PUSH1 0x40 DUP4 ADD MLOAD PUSH1 0x40 DUP6 ADD MSTORE PUSH1 0x60 DUP4 ADD MLOAD PUSH1 0x60 DUP6 ADD MSTORE PUSH1 0x80 DUP4 ADD MLOAD DUP5 DUP3 SUB PUSH1 0x80 DUP7 ADD MSTORE PUSH3 0x379D DUP3 DUP3 PUSH3 0x3708 JUMP JUMPDEST SWAP2 POP POP PUSH1 0xA0 DUP4 ADD MLOAD PUSH1 0xA0 DUP6 ADD MSTORE PUSH1 0xC0 DUP4 ADD MLOAD PUSH1 0xC0 DUP6 ADD MSTORE DUP1 SWAP2 POP POP SWAP3 SWAP2 POP POP JUMP JUMPDEST PUSH1 0x0 PUSH1 0x20 DUP1 DUP4 ADD DUP2 DUP5 MSTORE DUP1 DUP6 MLOAD DUP1 DUP4 MSTORE PUSH1 0x40 DUP7 ADD SWAP2 POP PUSH1 0x40 DUP2 PUSH1 0x5 SHL DUP8 ADD ADD SWAP3 POP DUP4 DUP8 ADD PUSH1 0x0 JUMPDEST DUP3 DUP2 LT ISZERO PUSH3 0x3817 JUMPI PUSH1 0x3F NOT DUP9 DUP7 SUB ADD DUP5 MSTORE PUSH3 0x3804 DUP6 DUP4 MLOAD PUSH3 0x3745 JUMP JUMPDEST SWAP5 POP SWAP3 DUP6 ADD SWAP3 SWAP1 DUP6 ADD SWAP1 PUSH1 0x1 ADD PUSH3 0x37E5 JUMP JUMPDEST POP SWAP3 SWAP8 SWAP7 POP POP POP POP POP POP POP JUMP JUMPDEST PUSH1 0x0 DUP1 PUSH1 0x40 DUP4 DUP6 SUB SLT ISZERO PUSH3 0x3838 JUMPI PUSH1 0x0 DUP1 REVERT JUMPDEST DUP3 CALLDATALOAD PUSH3 0x3845 DUP2 PUSH3 0x364D JUMP JUMPDEST SWAP5 PUSH1 0x20 SWAP4 SWAP1 SWAP4 ADD CALLDATALOAD SWAP4 POP POP POP JUMP JUMPDEST DUP1 ISZERO ISZERO DUP2 EQ PUSH3 0x3663 JUMPI PUSH1 0x0 DUP1 REVERT JUMPDEST PUSH1 0x0 DUP1 PUSH1 0x40 DUP4 DUP6 SUB SLT ISZERO PUSH3 0x3876 JUMPI PUSH1 0x0 DUP1 REVERT JUMPDEST DUP3 CALLDATALOAD PUSH3 0x3883 DUP2 PUSH3 0x364D JUMP JUMPDEST SWAP2 POP PUSH1 0x20 DUP4 ADD CALLDATALOAD PUSH3 0x3895 DUP2 PUSH3 0x3853 JUMP JUMPDEST DUP1 SWAP2 POP POP SWAP3 POP SWAP3 SWAP1 POP JUMP JUMPDEST PUSH1 0x0 PUSH2 0x120 DUP3 MLOAD DUP5 MSTORE PUSH1 0x20 DUP4 ADD MLOAD PUSH1 0x20 DUP6 ADD MSTORE PUSH1 0x1 DUP1 PUSH1 0xA0 SHL SUB PUSH1 0x40 DUP5 ADD MLOAD AND PUSH1 0x40 DUP6 ADD MSTORE PUSH1 0x60 DUP4 ADD MLOAD PUSH3 0x38E0 PUSH1 0x60 DUP7 ADD DUP3 PUSH1 0x1 PUSH1 0x1 PUSH1 0xA0 SHL SUB AND SWAP1 MSTORE JUMP JUMPDEST POP PUSH1 0x80 DUP4 ADD MLOAD PUSH1 0x80 DUP6 ADD MSTORE PUSH1 0xA0 DUP4 ADD MLOAD PUSH1 0xA0 DUP6 ADD MSTORE PUSH1 0xC0 DUP4 ADD MLOAD PUSH1 0xC0 DUP6 ADD MSTORE PUSH1 0xE0 DUP4 ADD MLOAD PUSH3 0x391A PUSH1 0xE0 DUP7 ADD DUP3 PUSH1 0x1 PUSH1 0x1 PUSH1 0xA0 SHL SUB AND SWAP1 MSTORE JUMP JUMPDEST POP PUSH2 0x100 DUP1 DUP5 ADD MLOAD DUP3 DUP3 DUP8 ADD MSTORE PUSH3 0x3935 DUP4 DUP8 ADD DUP3 PUSH3 0x36DA JUMP JUMPDEST SWAP7 SWAP6 POP POP POP POP POP POP JUMP JUMPDEST PUSH1 0x0 PUSH1 0x20 DUP1 DUP4 ADD DUP2 DUP5 MSTORE DUP1 DUP6 MLOAD DUP1 DUP4 MSTORE PUSH1 0x40 DUP7 ADD SWAP2 POP PUSH1 0x40 DUP2 PUSH1 0x5 SHL DUP8 ADD ADD SWAP3 POP DUP4 DUP8 ADD PUSH1 0x0 JUMPDEST DUP3 DUP2 LT ISZERO PUSH3 0x3817 JUMPI PUSH1 0x3F NOT DUP9 DUP7 SUB ADD DUP5 MSTORE PUSH3 0x3985 DUP6 DUP4 MLOAD PUSH3 0x38A0 JUMP JUMPDEST SWAP5 POP SWAP3 DUP6 ADD SWAP3 SWAP1 DUP6 ADD SWAP1 PUSH1 0x1 ADD PUSH3 0x3966 JUMP JUMPDEST PUSH1 0x20 DUP1 DUP3 MSTORE DUP3 MLOAD DUP3 DUP3 ADD DUP2 SWAP1 MSTORE PUSH1 0x0 SWAP2 SWAP1 DUP5 DUP3 ADD SWAP1 PUSH1 0x40 DUP6 ADD SWAP1 DUP5 JUMPDEST DUP2 DUP2 LT ISZERO PUSH3 0x39D2 JUMPI DUP4 MLOAD DUP4 MSTORE SWAP3 DUP5 ADD SWAP3 SWAP2 DUP5 ADD SWAP2 PUSH1 0x1 ADD PUSH3 0x39B4 JUMP JUMPDEST POP SWAP1 SWAP7 SWAP6 POP POP POP POP POP POP JUMP JUMPDEST PUSH4 0x4E487B71 PUSH1 0xE0 SHL PUSH1 0x0 MSTORE PUSH1 0x41 PUSH1 0x4 MSTORE PUSH1 0x24 PUSH1 0x0 REVERT JUMPDEST PUSH1 0x40 MLOAD PUSH1 0x1F DUP3 ADD PUSH1 0x1F NOT AND DUP2 ADD PUSH8 0xFFFFFFFFFFFFFFFF DUP2 GT DUP3 DUP3 LT OR ISZERO PUSH3 0x3A20 JUMPI PUSH3 0x3A20 PUSH3 0x39DE JUMP JUMPDEST PUSH1 0x40 MSTORE SWAP2 SWAP1 POP JUMP JUMPDEST PUSH1 0x0 PUSH8 0xFFFFFFFFFFFFFFFF DUP3 GT ISZERO PUSH3 0x3A45 JUMPI PUSH3 0x3A45 PUSH3 0x39DE JUMP JUMPDEST POP PUSH1 0x1F ADD PUSH1 0x1F NOT AND PUSH1 0x20 ADD SWAP1 JUMP JUMPDEST PUSH1 0x0 DUP3 PUSH1 0x1F DUP4 ADD SLT PUSH3 0x3A65 JUMPI PUSH1 0x0 DUP1 REVERT JUMPDEST DUP2 CALLDATALOAD PUSH3 0x3A7C PUSH3 0x3A76 DUP3 PUSH3 0x3A28 JUMP JUMPDEST PUSH3 0x39F4 JUMP JUMPDEST DUP2 DUP2 MSTORE DUP5 PUSH1 0x20 DUP4 DUP7 ADD ADD GT ISZERO PUSH3 0x3A92 JUMPI PUSH1 0x0 DUP1 REVERT JUMPDEST DUP2 PUSH1 0x20 DUP6 ADD PUSH1 0x20 DUP4 ADD CALLDATACOPY PUSH1 0x0 SWAP2 DUP2 ADD PUSH1 0x20 ADD SWAP2 SWAP1 SWAP2 MSTORE SWAP4 SWAP3 POP POP POP JUMP JUMPDEST PUSH1 0x0 DUP1 PUSH1 0x40 DUP4 DUP6 SUB SLT ISZERO PUSH3 0x3AC3 JUMPI PUSH1 0x0 DUP1 REVERT JUMPDEST DUP3 CALLDATALOAD PUSH3 0x3AD0 DUP2 PUSH3 0x364D JUMP JUMPDEST SWAP2 POP PUSH1 0x20 DUP4 ADD CALLDATALOAD PUSH8 0xFFFFFFFFFFFFFFFF DUP2 GT ISZERO PUSH3 0x3AED JUMPI PUSH1 0x0 DUP1 REVERT JUMPDEST PUSH3 0x3AFB DUP6 DUP3 DUP7 ADD PUSH3 0x3A53 JUMP JUMPDEST SWAP2 POP POP SWAP3 POP SWAP3 SWAP1 POP JUMP JUMPDEST PUSH1 0x1 DUP1 PUSH1 0xA0 SHL SUB DUP2 MLOAD AND DUP3 MSTORE PUSH1 0x20 DUP2 ADD MLOAD PUSH1 0x20 DUP4 ADD MSTORE PUSH1 0x0 PUSH1 0x40 DUP3 ADD MLOAD PUSH1 0x80 PUSH1 0x40 DUP6 ADD MSTORE PUSH3 0x3B38 PUSH1 0x80 DUP6 ADD DUP3 PUSH3 0x3708 JUMP JUMPDEST PUSH1 0x60 SWAP4 DUP5 ADD MLOAD SWAP5 SWAP1 SWAP4 ADD SWAP4 SWAP1 SWAP4 MSTORE POP SWAP2 SWAP1 POP JUMP JUMPDEST PUSH1 0x0 PUSH1 0x20 DUP1 DUP4 ADD DUP2 DUP5 MSTORE DUP1 DUP6 MLOAD DUP1 DUP4 MSTORE PUSH1 0x40 DUP7 ADD SWAP2 POP PUSH1 0x40 DUP2 PUSH1 0x5 SHL DUP8 ADD ADD SWAP3 POP DUP4 DUP8 ADD PUSH1 0x0 JUMPDEST DUP3 DUP2 LT ISZERO PUSH3 0x3817 JUMPI PUSH1 0x3F NOT DUP9 DUP7 SUB ADD DUP5 MSTORE PUSH3 0x3B92 DUP6 DUP4 MLOAD PUSH3 0x3B05 JUMP JUMPDEST SWAP5 POP SWAP3 DUP6 ADD SWAP3 SWAP1 DUP6 ADD SWAP1 PUSH1 0x1 ADD PUSH3 0x3B73 JUMP JUMPDEST PUSH1 0x20 DUP1 DUP3 MSTORE DUP3 MLOAD DUP3 DUP3 ADD DUP2 SWAP1 MSTORE PUSH1 0x0 SWAP2 SWAP1 DUP5 DUP3 ADD SWAP1 PUSH1 0x40 DUP6 ADD SWAP1 DUP5 JUMPDEST DUP2 DUP2 LT ISZERO PUSH3 0x39D2 JUMPI DUP4 MLOAD PUSH1 0x1 PUSH1 0x1 PUSH1 0xA0 SHL SUB AND DUP4 MSTORE SWAP3 DUP5 ADD SWAP3 SWAP2 DUP5 ADD SWAP2 PUSH1 0x1 ADD PUSH3 0x3BC1 JUMP JUMPDEST PUSH1 0x0 PUSH2 0x120 DUP12 DUP4 MSTORE DUP11 PUSH1 0x20 DUP5 ADD MSTORE PUSH1 0x1 DUP1 PUSH1 0xA0 SHL SUB DUP1 DUP12 AND PUSH1 0x40 DUP6 ADD MSTORE DUP1 DUP11 AND PUSH1 0x60 DUP6 ADD MSTORE DUP9 PUSH1 0x80 DUP6 ADD MSTORE DUP8 PUSH1 0xA0 DUP6 ADD MSTORE DUP7 PUSH1 0xC0 DUP6 ADD MSTORE DUP1 DUP7 AND PUSH1 0xE0 DUP6 ADD MSTORE POP DUP1 PUSH2 0x100 DUP5 ADD MSTORE PUSH3 0x3C3D DUP2 DUP5 ADD DUP6 PUSH3 0x36DA JUMP JUMPDEST SWAP13 SWAP12 POP POP POP POP POP POP POP POP POP POP POP POP JUMP JUMPDEST PUSH1 0x20 DUP2 MSTORE PUSH1 0x0 PUSH3 0x3686 PUSH1 0x20 DUP4 ADD DUP5 PUSH3 0x38A0 JUMP JUMPDEST PUSH1 0x20 DUP2 MSTORE PUSH1 0x0 PUSH3 0x3686 PUSH1 0x20 DUP4 ADD DUP5 PUSH3 0x36DA JUMP JUMPDEST PUSH1 0x20 DUP2 MSTORE PUSH1 0x0 PUSH3 0x3686 PUSH1 0x20 DUP4 ADD DUP5 PUSH3 0x3B05 JUMP JUMPDEST PUSH1 0x0 DUP1 PUSH1 0x0 PUSH1 0x60 DUP5 DUP7 SUB SLT ISZERO PUSH3 0x3CA2 JUMPI PUSH1 0x0 DUP1 REVERT JUMPDEST DUP4 CALLDATALOAD SWAP3 POP PUSH1 0x20 DUP5 ADD CALLDATALOAD SWAP2 POP PUSH1 0x40 DUP5 ADD CALLDATALOAD PUSH8 0xFFFFFFFFFFFFFFFF DUP2 GT ISZERO PUSH3 0x3CC8 JUMPI PUSH1 0x0 DUP1 REVERT JUMPDEST PUSH3 0x3CD6 DUP7 DUP3 DUP8 ADD PUSH3 0x3A53 JUMP JUMPDEST SWAP2 POP POP SWAP3 POP SWAP3 POP SWAP3 JUMP JUMPDEST PUSH1 0x20 DUP2 MSTORE PUSH1 0x0 PUSH3 0x3686 PUSH1 0x20 DUP4 ADD DUP5 PUSH3 0x3745 JUMP JUMPDEST SWAP2 DUP3 MSTORE PUSH1 0x1 PUSH1 0x1 PUSH1 0xA0 SHL SUB AND PUSH1 0x20 DUP3 ADD MSTORE PUSH1 0x40 ADD SWAP1 JUMP JUMPDEST PUSH1 0x0 PUSH1 0x20 DUP3 DUP5 SUB SLT ISZERO PUSH3 0x3D1F JUMPI PUSH1 0x0 DUP1 REVERT JUMPDEST DUP2 MLOAD PUSH3 0x3686 DUP2 PUSH3 0x3853 JUMP JUMPDEST PUSH1 0x20 DUP1 DUP3 MSTORE PUSH1 0x11 SWAP1 DUP3 ADD MSTORE PUSH17 0x4F6E6C7920666F72206D616E6167657273 PUSH1 0x78 SHL PUSH1 0x40 DUP3 ADD MSTORE PUSH1 0x60 ADD SWAP1 JUMP JUMPDEST PUSH1 0x0 PUSH1 0x20 DUP3 DUP5 SUB SLT ISZERO PUSH3 0x3D6A JUMPI PUSH1 0x0 DUP1 REVERT JUMPDEST POP MLOAD SWAP2 SWAP1 POP JUMP JUMPDEST PUSH1 0x0 PUSH1 0x20 DUP3 DUP5 SUB SLT ISZERO PUSH3 0x3D84 JUMPI PUSH1 0x0 DUP1 REVERT JUMPDEST DUP2 MLOAD PUSH3 0x3686 DUP2 PUSH3 0x364D JUMP JUMPDEST PUSH4 0x4E487B71 PUSH1 0xE0 SHL PUSH1 0x0 MSTORE PUSH1 0x32 PUSH1 0x4 MSTORE PUSH1 0x24 PUSH1 0x0 REVERT JUMPDEST PUSH4 0x4E487B71 PUSH1 0xE0 SHL PUSH1 0x0 MSTORE PUSH1 0x11 PUSH1 0x4 MSTORE PUSH1 0x24 PUSH1 0x0 REVERT JUMPDEST PUSH1 0x0 PUSH1 0x0 NOT DUP3 EQ ISZERO PUSH3 0x3DD4 JUMPI PUSH3 0x3DD4 PUSH3 0x3DA7 JUMP JUMPDEST POP PUSH1 0x1 ADD SWAP1 JUMP JUMPDEST PUSH1 0x0 DUP3 NOT DUP3 GT ISZERO PUSH3 0x3DF1 JUMPI PUSH3 0x3DF1 PUSH3 0x3DA7 JUMP JUMPDEST POP ADD SWAP1 JUMP JUMPDEST PUSH1 0x0 DUP3 DUP3 LT ISZERO PUSH3 0x3E0B JUMPI PUSH3 0x3E0B PUSH3 0x3DA7 JUMP JUMPDEST POP SUB SWAP1 JUMP JUMPDEST PUSH1 0x0 PUSH1 0x20 DUP3 DUP5 SUB SLT ISZERO PUSH3 0x3E23 JUMPI PUSH1 0x0 DUP1 REVERT JUMPDEST DUP2 MLOAD PUSH1 0xFF DUP2 AND DUP2 EQ PUSH3 0x3686 JUMPI PUSH1 0x0 DUP1 REVERT JUMPDEST PUSH1 0x20 DUP1 DUP3 MSTORE PUSH1 0xE SWAP1 DUP3 ADD MSTORE PUSH14 0x27B7363C903337B91037BBB732B9 PUSH1 0x91 SHL PUSH1 0x40 DUP3 ADD MSTORE PUSH1 0x60 ADD SWAP1 JUMP JUMPDEST PUSH1 0x1 DUP2 DUP2 SHR SWAP1 DUP3 AND DUP1 PUSH3 0x3E72 JUMPI PUSH1 0x7F DUP3 AND SWAP2 POP JUMPDEST PUSH1 0x20 DUP3 LT DUP2 EQ ISZERO PUSH3 0x1016 JUMPI PUSH4 0x4E487B71 PUSH1 0xE0 SHL PUSH1 0x0 MSTORE PUSH1 0x22 PUSH1 0x4 MSTORE PUSH1 0x24 PUSH1 0x0 REVERT JUMPDEST PUSH1 0x0 PUSH1 0x20 DUP1 DUP4 DUP6 SUB SLT ISZERO PUSH3 0x3EA8 JUMPI PUSH1 0x0 DUP1 REVERT JUMPDEST DUP3 MLOAD PUSH8 0xFFFFFFFFFFFFFFFF DUP1 DUP3 GT ISZERO PUSH3 0x3EC1 JUMPI PUSH1 0x0 DUP1 REVERT JUMPDEST DUP2 DUP6 ADD SWAP2 POP DUP6 PUSH1 0x1F DUP4 ADD SLT PUSH3 0x3ED6 JUMPI PUSH1 0x0 DUP1 REVERT JUMPDEST DUP2 MLOAD DUP2 DUP2 GT ISZERO PUSH3 0x3EEB JUMPI PUSH3 0x3EEB PUSH3 0x39DE JUMP JUMPDEST DUP1 PUSH1 0x5 SHL SWAP2 POP PUSH3 0x3EFE DUP5 DUP4 ADD PUSH3 0x39F4 JUMP JUMPDEST DUP2 DUP2 MSTORE SWAP2 DUP4 ADD DUP5 ADD SWAP2 DUP5 DUP2 ADD SWAP1 DUP9 DUP5 GT ISZERO PUSH3 0x3F19 JUMPI PUSH1 0x0 DUP1 REVERT JUMPDEST SWAP4 DUP6 ADD SWAP4 JUMPDEST DUP4 DUP6 LT ISZERO PUSH3 0x3F47 JUMPI DUP5 MLOAD SWAP3 POP PUSH3 0x3F36 DUP4 PUSH3 0x364D JUMP JUMPDEST DUP3 DUP3 MSTORE SWAP4 DUP6 ADD SWAP4 SWAP1 DUP6 ADD SWAP1 PUSH3 0x3F1E JUMP JUMPDEST SWAP9 SWAP8 POP POP POP POP POP POP POP POP JUMP JUMPDEST PUSH1 0x0 PUSH1 0x20 DUP3 DUP5 SUB SLT ISZERO PUSH3 0x3F66 JUMPI PUSH1 0x0 DUP1 REVERT JUMPDEST DUP2 MLOAD PUSH8 0xFFFFFFFFFFFFFFFF DUP2 GT ISZERO PUSH3 0x3F7E JUMPI PUSH1 0x0 DUP1 REVERT JUMPDEST DUP3 ADD PUSH1 0x1F DUP2 ADD DUP5 SGT PUSH3 0x3F90 JUMPI PUSH1 0x0 DUP1 REVERT JUMPDEST DUP1 MLOAD PUSH3 0x3FA1 PUSH3 0x3A76 DUP3 PUSH3 0x3A28 JUMP JUMPDEST DUP2 DUP2 MSTORE DUP6 PUSH1 0x20 DUP4 DUP6 ADD ADD GT ISZERO PUSH3 0x3FB7 JUMPI PUSH1 0x0 DUP1 REVERT JUMPDEST PUSH3 0x3FCA DUP3 PUSH1 0x20 DUP4 ADD PUSH1 0x20 DUP7 ADD PUSH3 0x36A7 JUMP JUMPDEST SWAP6 SWAP5 POP POP POP POP POP JUMP JUMPDEST PUSH1 0x1 PUSH1 0x1 PUSH1 0xA0 SHL SUB DUP9 DUP2 AND DUP3 MSTORE DUP8 AND PUSH1 0x20 DUP1 DUP4 ADD SWAP2 SWAP1 SWAP2 MSTORE PUSH1 0x40 DUP3 ADD DUP8 SWAP1 MSTORE PUSH1 0x60 DUP3 ADD DUP7 SWAP1 MSTORE PUSH1 0x80 DUP3 ADD DUP6 SWAP1 MSTORE PUSH1 0xE0 PUSH1 0xA0 DUP4 ADD MSTORE DUP4 SLOAD PUSH1 0x0 SWAP2 DUP3 SWAP2 PUSH1 0x1 DUP2 DUP2 SHR SWAP1 DUP3 DUP2 AND DUP1 PUSH3 0x4024 JUMPI PUSH1 0x7F DUP4 AND SWAP3 POP JUMPDEST DUP5 DUP4 LT DUP2 EQ ISZERO PUSH3 0x4043 JUMPI PUSH4 0x4E487B71 PUSH1 0xE0 SHL DUP7 MSTORE PUSH1 0x22 PUSH1 0x4 MSTORE PUSH1 0x24 DUP7 REVERT JUMPDEST PUSH1 0xE0 DUP9 ADD DUP4 SWAP1 MSTORE PUSH2 0x100 DUP9 ADD DUP2 DUP1 ISZERO PUSH3 0x4066 JUMPI PUSH1 0x1 DUP2 EQ PUSH3 0x4078 JUMPI PUSH3 0x40A5 JUMP JUMPDEST PUSH1 0xFF NOT DUP7 AND DUP3 MSTORE DUP7 DUP3 ADD SWAP8 POP PUSH3 0x40A5 JUMP JUMPDEST PUSH1 0x0 DUP13 DUP2 MSTORE PUSH1 0x20 SWAP1 KECCAK256 PUSH1 0x0 JUMPDEST DUP7 DUP2 LT ISZERO PUSH3 0x409F JUMPI DUP2 SLOAD DUP5 DUP3 ADD MSTORE SWAP1 DUP6 ADD SWAP1 DUP9 ADD PUSH3 0x4084 JUMP JUMPDEST DUP4 ADD SWAP9 POP POP JUMPDEST POP POP POP POP POP POP POP DUP3 DUP2 SUB PUSH1 0xC0 DUP5 ADD MSTORE PUSH3 0x40C0 DUP2 DUP6 PUSH3 0x36DA JUMP JUMPDEST SWAP11 SWAP10 POP POP POP POP POP POP POP POP POP POP JUMP INVALID PUSH1 0x80 PUSH1 0x40 MSTORE CALLVALUE DUP1 ISZERO PUSH3 0x11 JUMPI PUSH1 0x0 DUP1 REVERT JUMPDEST POP PUSH1 0x40 MLOAD PUSH3 0xA47 CODESIZE SUB DUP1 PUSH3 0xA47 DUP4 CODECOPY DUP2 ADD PUSH1 0x40 DUP2 SWAP1 MSTORE PUSH3 0x34 SWAP2 PUSH3 0x3E4 JUMP JUMPDEST PUSH1 0x0 DUP1 SLOAD CALLER PUSH1 0x1 PUSH1 0x1 PUSH1 0xA0 SHL SUB NOT SWAP2 DUP3 AND OR DUP3 SSTORE PUSH1 0x2 DUP1 SLOAD DUP3 AND PUSH1 0x1 PUSH1 0x1 PUSH1 0xA0 SHL SUB DUP11 DUP2 AND SWAP2 SWAP1 SWAP2 OR SWAP1 SWAP2 SSTORE PUSH1 0x3 DUP9 SWAP1 SSTORE PUSH1 0x9 DUP8 SWAP1 SSTORE PUSH1 0xA DUP7 SWAP1 SSTORE PUSH1 0x1 DUP1 SLOAD SWAP1 SWAP3 AND SWAP1 DUP11 AND SWAP1 DUP2 OR SWAP1 SWAP2 SSTORE PUSH1 0x40 DUP1 MLOAD PUSH4 0x6FDDE03 PUSH1 0xE0 SHL DUP2 MSTORE SWAP1 MLOAD SWAP2 SWAP3 PUSH4 0x6FDDE03 SWAP3 PUSH1 0x4 DUP1 DUP5 ADD SWAP4 DUP3 SWAP1 SUB ADD DUP2 DUP7 GAS STATICCALL ISZERO DUP1 ISZERO PUSH3 0xB7 JUMPI RETURNDATASIZE PUSH1 0x0 DUP1 RETURNDATACOPY RETURNDATASIZE PUSH1 0x0 REVERT JUMPDEST POP POP POP POP PUSH1 0x40 MLOAD RETURNDATASIZE PUSH1 0x0 DUP3 RETURNDATACOPY PUSH1 0x1F RETURNDATASIZE SWAP1 DUP2 ADD PUSH1 0x1F NOT AND DUP3 ADD PUSH1 0x40 MSTORE PUSH3 0xE1 SWAP2 SWAP1 DUP2 ADD SWAP1 PUSH3 0x492 JUMP JUMPDEST DUP1 MLOAD PUSH3 0xF7 SWAP2 PUSH1 0x4 SWAP2 PUSH1 0x20 SWAP1 SWAP2 ADD SWAP1 PUSH3 0x254 JUMP JUMPDEST POP PUSH1 0x1 PUSH1 0x0 SWAP1 SLOAD SWAP1 PUSH2 0x100 EXP SWAP1 DIV PUSH1 0x1 PUSH1 0x1 PUSH1 0xA0 SHL SUB AND PUSH1 0x1 PUSH1 0x1 PUSH1 0xA0 SHL SUB AND PUSH4 0x95D89B41 PUSH1 0x40 MLOAD DUP2 PUSH4 0xFFFFFFFF AND PUSH1 0xE0 SHL DUP2 MSTORE PUSH1 0x4 ADD PUSH1 0x0 PUSH1 0x40 MLOAD DUP1 DUP4 SUB DUP2 DUP7 GAS STATICCALL ISZERO DUP1 ISZERO PUSH3 0x14C JUMPI RETURNDATASIZE PUSH1 0x0 DUP1 RETURNDATACOPY RETURNDATASIZE PUSH1 0x0 REVERT JUMPDEST POP POP POP POP PUSH1 0x40 MLOAD RETURNDATASIZE PUSH1 0x0 DUP3 RETURNDATACOPY PUSH1 0x1F RETURNDATASIZE SWAP1 DUP2 ADD PUSH1 0x1F NOT AND DUP3 ADD PUSH1 0x40 MSTORE PUSH3 0x176 SWAP2 SWAP1 DUP2 ADD SWAP1 PUSH3 0x492 JUMP JUMPDEST DUP1 MLOAD PUSH3 0x18C SWAP2 PUSH1 0x5 SWAP2 PUSH1 0x20 SWAP1 SWAP2 ADD SWAP1 PUSH3 0x254 JUMP JUMPDEST POP PUSH1 0x1 PUSH1 0x0 SWAP1 SLOAD SWAP1 PUSH2 0x100 EXP SWAP1 DIV PUSH1 0x1 PUSH1 0x1 PUSH1 0xA0 SHL SUB AND PUSH1 0x1 PUSH1 0x1 PUSH1 0xA0 SHL SUB AND PUSH4 0x313CE567 PUSH1 0x40 MLOAD DUP2 PUSH4 0xFFFFFFFF AND PUSH1 0xE0 SHL DUP2 MSTORE PUSH1 0x4 ADD PUSH1 0x20 PUSH1 0x40 MLOAD DUP1 DUP4 SUB DUP2 DUP7 GAS STATICCALL ISZERO DUP1 ISZERO PUSH3 0x1E1 JUMPI RETURNDATASIZE PUSH1 0x0 DUP1 RETURNDATACOPY RETURNDATASIZE PUSH1 0x0 REVERT JUMPDEST POP POP POP POP PUSH1 0x40 MLOAD RETURNDATASIZE PUSH1 0x1F NOT PUSH1 0x1F DUP3 ADD AND DUP3 ADD DUP1 PUSH1 0x40 MSTORE POP DUP2 ADD SWAP1 PUSH3 0x207 SWAP2 SWAP1 PUSH3 0x4D2 JUMP JUMPDEST PUSH1 0x6 DUP1 SLOAD PUSH1 0xFF NOT AND PUSH1 0xFF SWAP3 SWAP1 SWAP3 AND SWAP2 SWAP1 SWAP2 OR SWAP1 SSTORE DUP2 MLOAD PUSH3 0x230 SWAP1 PUSH1 0x7 SWAP1 PUSH1 0x20 DUP6 ADD SWAP1 PUSH3 0x254 JUMP JUMPDEST POP DUP1 MLOAD PUSH3 0x246 SWAP1 PUSH1 0x8 SWAP1 PUSH1 0x20 DUP5 ADD SWAP1 PUSH3 0x254 JUMP JUMPDEST POP POP POP POP POP POP POP POP PUSH3 0x53B JUMP JUMPDEST DUP3 DUP1 SLOAD PUSH3 0x262 SWAP1 PUSH3 0x4FE JUMP JUMPDEST SWAP1 PUSH1 0x0 MSTORE PUSH1 0x20 PUSH1 0x0 KECCAK256 SWAP1 PUSH1 0x1F ADD PUSH1 0x20 SWAP1 DIV DUP2 ADD SWAP3 DUP3 PUSH3 0x286 JUMPI PUSH1 0x0 DUP6 SSTORE PUSH3 0x2D1 JUMP JUMPDEST DUP3 PUSH1 0x1F LT PUSH3 0x2A1 JUMPI DUP1 MLOAD PUSH1 0xFF NOT AND DUP4 DUP1 ADD OR DUP6 SSTORE PUSH3 0x2D1 JUMP JUMPDEST DUP3 DUP1 ADD PUSH1 0x1 ADD DUP6 SSTORE DUP3 ISZERO PUSH3 0x2D1 JUMPI SWAP2 DUP3 ADD JUMPDEST DUP3 DUP2 GT ISZERO PUSH3 0x2D1 JUMPI DUP3 MLOAD DUP3 SSTORE SWAP2 PUSH1 0x20 ADD SWAP2 SWAP1 PUSH1 0x1 ADD SWAP1 PUSH3 0x2B4 JUMP JUMPDEST POP PUSH3 0x2DF SWAP3 SWAP2 POP PUSH3 0x2E3 JUMP JUMPDEST POP SWAP1 JUMP JUMPDEST JUMPDEST DUP1 DUP3 GT ISZERO PUSH3 0x2DF JUMPI PUSH1 0x0 DUP2 SSTORE PUSH1 0x1 ADD PUSH3 0x2E4 JUMP JUMPDEST DUP1 MLOAD PUSH1 0x1 PUSH1 0x1 PUSH1 0xA0 SHL SUB DUP2 AND DUP2 EQ PUSH3 0x312 JUMPI PUSH1 0x0 DUP1 REVERT JUMPDEST SWAP2 SWAP1 POP JUMP JUMPDEST PUSH4 0x4E487B71 PUSH1 0xE0 SHL PUSH1 0x0 MSTORE PUSH1 0x41 PUSH1 0x4 MSTORE PUSH1 0x24 PUSH1 0x0 REVERT JUMPDEST PUSH1 0x0 DUP3 PUSH1 0x1F DUP4 ADD SLT PUSH3 0x33F JUMPI PUSH1 0x0 DUP1 REVERT JUMPDEST DUP2 MLOAD PUSH1 0x1 PUSH1 0x1 PUSH1 0x40 SHL SUB DUP1 DUP3 GT ISZERO PUSH3 0x35C JUMPI PUSH3 0x35C PUSH3 0x317 JUMP JUMPDEST PUSH1 0x40 MLOAD PUSH1 0x1F DUP4 ADD PUSH1 0x1F NOT SWAP1 DUP2 AND PUSH1 0x3F ADD AND DUP2 ADD SWAP1 DUP3 DUP3 GT DUP2 DUP4 LT OR ISZERO PUSH3 0x387 JUMPI PUSH3 0x387 PUSH3 0x317 JUMP JUMPDEST DUP2 PUSH1 0x40 MSTORE DUP4 DUP2 MSTORE PUSH1 0x20 SWAP3 POP DUP7 DUP4 DUP6 DUP9 ADD ADD GT ISZERO PUSH3 0x3A4 JUMPI PUSH1 0x0 DUP1 REVERT JUMPDEST PUSH1 0x0 SWAP2 POP JUMPDEST DUP4 DUP3 LT ISZERO PUSH3 0x3C8 JUMPI DUP6 DUP3 ADD DUP4 ADD MLOAD DUP2 DUP4 ADD DUP5 ADD MSTORE SWAP1 DUP3 ADD SWAP1 PUSH3 0x3A9 JUMP JUMPDEST DUP4 DUP3 GT ISZERO PUSH3 0x3DA JUMPI PUSH1 0x0 DUP4 DUP6 DUP4 ADD ADD MSTORE JUMPDEST SWAP7 SWAP6 POP POP POP POP POP POP JUMP JUMPDEST PUSH1 0x0 DUP1 PUSH1 0x0 DUP1 PUSH1 0x0 DUP1 PUSH1 0x0 PUSH1 0xE0 DUP9 DUP11 SUB SLT ISZERO PUSH3 0x400 JUMPI PUSH1 0x0 DUP1 REVERT JUMPDEST PUSH3 0x40B DUP9 PUSH3 0x2FA JUMP JUMPDEST SWAP7 POP PUSH3 0x41B PUSH1 0x20 DUP10 ADD PUSH3 0x2FA JUMP JUMPDEST PUSH1 0x40 DUP10 ADD MLOAD PUSH1 0x60 DUP11 ADD MLOAD PUSH1 0x80 DUP12 ADD MLOAD PUSH1 0xA0 DUP13 ADD MLOAD SWAP4 SWAP10 POP SWAP2 SWAP8 POP SWAP6 POP SWAP4 POP PUSH1 0x1 PUSH1 0x1 PUSH1 0x40 SHL SUB DUP1 DUP3 GT ISZERO PUSH3 0x44F JUMPI PUSH1 0x0 DUP1 REVERT JUMPDEST PUSH3 0x45D DUP12 DUP4 DUP13 ADD PUSH3 0x32D JUMP JUMPDEST SWAP4 POP PUSH1 0xC0 DUP11 ADD MLOAD SWAP2 POP DUP1 DUP3 GT ISZERO PUSH3 0x474 JUMPI PUSH1 0x0 DUP1 REVERT JUMPDEST POP PUSH3 0x483 DUP11 DUP3 DUP12 ADD PUSH3 0x32D JUMP JUMPDEST SWAP2 POP POP SWAP3 SWAP6 SWAP9 SWAP2 SWAP5 SWAP8 POP SWAP3 SWAP6 POP JUMP JUMPDEST PUSH1 0x0 PUSH1 0x20 DUP3 DUP5 SUB SLT ISZERO PUSH3 0x4A5 JUMPI PUSH1 0x0 DUP1 REVERT JUMPDEST DUP2 MLOAD PUSH1 0x1 PUSH1 0x1 PUSH1 0x40 SHL SUB DUP2 GT ISZERO PUSH3 0x4BC JUMPI PUSH1 0x0 DUP1 REVERT JUMPDEST PUSH3 0x4CA DUP5 DUP3 DUP6 ADD PUSH3 0x32D JUMP JUMPDEST SWAP5 SWAP4 POP POP POP POP JUMP JUMPDEST PUSH1 0x0 PUSH1 0x20 DUP3 DUP5 SUB SLT ISZERO PUSH3 0x4E5 JUMPI PUSH1 0x0 DUP1 REVERT JUMPDEST DUP2 MLOAD PUSH1 0xFF DUP2 AND DUP2 EQ PUSH3 0x4F7 JUMPI PUSH1 0x0 DUP1 REVERT JUMPDEST SWAP4 SWAP3 POP POP POP JUMP JUMPDEST PUSH1 0x1 DUP2 DUP2 SHR SWAP1 DUP3 AND DUP1 PUSH3 0x513 JUMPI PUSH1 0x7F DUP3 AND SWAP2 POP JUMPDEST PUSH1 0x20 DUP3 LT DUP2 EQ ISZERO PUSH3 0x535 JUMPI PUSH4 0x4E487B71 PUSH1 0xE0 SHL PUSH1 0x0 MSTORE PUSH1 0x22 PUSH1 0x4 MSTORE PUSH1 0x24 PUSH1 0x0 REVERT JUMPDEST POP SWAP2 SWAP1 POP JUMP JUMPDEST PUSH2 0x4FC DUP1 PUSH3 0x54B PUSH1 0x0 CODECOPY PUSH1 0x0 RETURN INVALID PUSH1 0x80 PUSH1 0x40 MSTORE CALLVALUE DUP1 ISZERO PUSH2 0x10 JUMPI PUSH1 0x0 DUP1 REVERT JUMPDEST POP PUSH1 0x4 CALLDATASIZE LT PUSH2 0xEA JUMPI PUSH1 0x0 CALLDATALOAD PUSH1 0xE0 SHR DUP1 PUSH4 0x9C6F0D85 GT PUSH2 0x8C JUMPI DUP1 PUSH4 0xBB5D40EB GT PUSH2 0x66 JUMPI DUP1 PUSH4 0xBB5D40EB EQ PUSH2 0x1BD JUMPI DUP1 PUSH4 0xC45A0155 EQ PUSH2 0x1C5 JUMPI DUP1 PUSH4 0xE21F37CE EQ PUSH2 0x1D8 JUMPI DUP1 PUSH4 0xFC0C546A EQ PUSH2 0x1E0 JUMPI PUSH1 0x0 DUP1 REVERT JUMPDEST DUP1 PUSH4 0x9C6F0D85 EQ PUSH2 0x1A3 JUMPI DUP1 PUSH4 0xAA8C217C EQ PUSH2 0x1AC JUMPI DUP1 PUSH4 0xB39CB699 EQ PUSH2 0x1B5 JUMPI PUSH1 0x0 DUP1 REVERT JUMPDEST DUP1 PUSH4 0x313CE567 GT PUSH2 0xC8 JUMPI DUP1 PUSH4 0x313CE567 EQ PUSH2 0x14D JUMPI DUP1 PUSH4 0x57C9CA14 EQ PUSH2 0x16C JUMPI DUP1 PUSH4 0x7EB9385F EQ PUSH2 0x184 JUMPI DUP1 PUSH4 0x95D89B41 EQ PUSH2 0x19B JUMPI PUSH1 0x0 DUP1 REVERT JUMPDEST DUP1 PUSH4 0x6FDDE03 EQ PUSH2 0xEF JUMPI DUP1 PUSH4 0x7546172 EQ PUSH2 0x10D JUMPI DUP1 PUSH4 0x1E83409A EQ PUSH2 0x138 JUMPI JUMPDEST PUSH1 0x0 DUP1 REVERT JUMPDEST PUSH2 0xF7 PUSH2 0x1F3 JUMP JUMPDEST PUSH1 0x40 MLOAD PUSH2 0x104 SWAP2 SWAP1 PUSH2 0x3BE JUMP JUMPDEST PUSH1 0x40 MLOAD DUP1 SWAP2 SUB SWAP1 RETURN JUMPDEST PUSH1 0x2 SLOAD PUSH2 0x120 SWAP1 PUSH1 0x1 PUSH1 0x1 PUSH1 0xA0 SHL SUB AND DUP2 JUMP JUMPDEST PUSH1 0x40 MLOAD PUSH1 0x1 PUSH1 0x1 PUSH1 0xA0 SHL SUB SWAP1 SWAP2 AND DUP2 MSTORE PUSH1 0x20 ADD PUSH2 0x104 JUMP JUMPDEST PUSH2 0x14B PUSH2 0x146 CALLDATASIZE PUSH1 0x4 PUSH2 0x413 JUMP JUMPDEST PUSH2 0x281 JUMP JUMPDEST STOP JUMPDEST PUSH1 0x6 SLOAD PUSH2 0x15A SWAP1 PUSH1 0xFF AND DUP2 JUMP JUMPDEST PUSH1 0x40 MLOAD PUSH1 0xFF SWAP1 SWAP2 AND DUP2 MSTORE PUSH1 0x20 ADD PUSH2 0x104 JUMP JUMPDEST PUSH2 0x174 PUSH2 0x301 JUMP JUMPDEST PUSH1 0x40 MLOAD SWAP1 ISZERO ISZERO DUP2 MSTORE PUSH1 0x20 ADD PUSH2 0x104 JUMP JUMPDEST PUSH2 0x18D PUSH1 0xA SLOAD DUP2 JUMP JUMPDEST PUSH1 0x40 MLOAD SWAP1 DUP2 MSTORE PUSH1 0x20 ADD PUSH2 0x104 JUMP JUMPDEST PUSH2 0xF7 PUSH2 0x373 JUMP JUMPDEST PUSH2 0x18D PUSH1 0x9 SLOAD DUP2 JUMP JUMPDEST PUSH2 0x18D PUSH1 0x3 SLOAD DUP2 JUMP JUMPDEST PUSH2 0xF7 PUSH2 0x380 JUMP JUMPDEST PUSH2 0x174 PUSH2 0x38D JUMP JUMPDEST PUSH1 0x0 SLOAD PUSH2 0x120 SWAP1 PUSH1 0x1 PUSH1 0x1 PUSH1 0xA0 SHL SUB AND DUP2 JUMP JUMPDEST PUSH2 0xF7 PUSH2 0x3B1 JUMP JUMPDEST PUSH1 0x1 SLOAD PUSH2 0x120 SWAP1 PUSH1 0x1 PUSH1 0x1 PUSH1 0xA0 SHL SUB AND DUP2 JUMP JUMPDEST PUSH1 0x4 DUP1 SLOAD PUSH2 0x200 SWAP1 PUSH2 0x443 JUMP JUMPDEST DUP1 PUSH1 0x1F ADD PUSH1 0x20 DUP1 SWAP2 DIV MUL PUSH1 0x20 ADD PUSH1 0x40 MLOAD SWAP1 DUP2 ADD PUSH1 0x40 MSTORE DUP1 SWAP3 SWAP2 SWAP1 DUP2 DUP2 MSTORE PUSH1 0x20 ADD DUP3 DUP1 SLOAD PUSH2 0x22C SWAP1 PUSH2 0x443 JUMP JUMPDEST DUP1 ISZERO PUSH2 0x279 JUMPI DUP1 PUSH1 0x1F LT PUSH2 0x24E JUMPI PUSH2 0x100 DUP1 DUP4 SLOAD DIV MUL DUP4 MSTORE SWAP2 PUSH1 0x20 ADD SWAP2 PUSH2 0x279 JUMP JUMPDEST DUP3 ADD SWAP2 SWAP1 PUSH1 0x0 MSTORE PUSH1 0x20 PUSH1 0x0 KECCAK256 SWAP1 JUMPDEST DUP2 SLOAD DUP2 MSTORE SWAP1 PUSH1 0x1 ADD SWAP1 PUSH1 0x20 ADD DUP1 DUP4 GT PUSH2 0x25C JUMPI DUP3 SWAP1 SUB PUSH1 0x1F AND DUP3 ADD SWAP2 JUMPDEST POP POP POP POP POP DUP2 JUMP JUMPDEST PUSH1 0x0 SLOAD PUSH1 0x1 PUSH1 0x1 PUSH1 0xA0 SHL SUB SWAP1 DUP2 AND SWAP1 PUSH4 0x1E83409A SWAP1 DUP4 AND ISZERO PUSH2 0x2A3 JUMPI DUP3 PUSH2 0x2A5 JUMP JUMPDEST CALLER JUMPDEST PUSH1 0x40 MLOAD PUSH1 0x1 PUSH1 0x1 PUSH1 0xE0 SHL SUB NOT PUSH1 0xE0 DUP5 SWAP1 SHL AND DUP2 MSTORE PUSH1 0x1 PUSH1 0x1 PUSH1 0xA0 SHL SUB SWAP1 SWAP2 AND PUSH1 0x4 DUP3 ADD MSTORE PUSH1 0x24 ADD PUSH1 0x0 PUSH1 0x40 MLOAD DUP1 DUP4 SUB DUP2 PUSH1 0x0 DUP8 DUP1 EXTCODESIZE ISZERO DUP1 ISZERO PUSH2 0x2E6 JUMPI PUSH1 0x0 DUP1 REVERT JUMPDEST POP GAS CALL ISZERO DUP1 ISZERO PUSH2 0x2FA JUMPI RETURNDATASIZE PUSH1 0x0 DUP1 RETURNDATACOPY RETURNDATASIZE PUSH1 0x0 REVERT JUMPDEST POP POP POP POP POP JUMP JUMPDEST PUSH1 0x0 DUP1 SLOAD PUSH1 0x40 MLOAD PUSH4 0x2A4E4553 PUSH1 0xE0 SHL DUP2 MSTORE ADDRESS PUSH1 0x4 DUP3 ADD MSTORE PUSH1 0x1 PUSH1 0x1 PUSH1 0xA0 SHL SUB SWAP1 SWAP2 AND SWAP1 PUSH4 0x2A4E4553 SWAP1 PUSH1 0x24 ADD PUSH1 0x20 PUSH1 0x40 MLOAD DUP1 DUP4 SUB DUP2 DUP7 GAS STATICCALL ISZERO DUP1 ISZERO PUSH2 0x34A JUMPI RETURNDATASIZE PUSH1 0x0 DUP1 RETURNDATACOPY RETURNDATASIZE PUSH1 0x0 REVERT JUMPDEST POP POP POP POP PUSH1 0x40 MLOAD RETURNDATASIZE PUSH1 0x1F NOT PUSH1 0x1F DUP3 ADD AND DUP3 ADD DUP1 PUSH1 0x40 MSTORE POP DUP2 ADD SWAP1 PUSH2 0x36E SWAP2 SWAP1 PUSH2 0x47E JUMP JUMPDEST SWAP1 POP SWAP1 JUMP JUMPDEST PUSH1 0x5 DUP1 SLOAD PUSH2 0x200 SWAP1 PUSH2 0x443 JUMP JUMPDEST PUSH1 0x7 DUP1 SLOAD PUSH2 0x200 SWAP1 PUSH2 0x443 JUMP JUMPDEST PUSH1 0x0 TIMESTAMP PUSH1 0xA SLOAD PUSH1 0x9 SLOAD PUSH2 0x3A0 SWAP2 SWAP1 PUSH2 0x4A0 JUMP JUMPDEST GT PUSH2 0x3AB JUMPI POP PUSH1 0x0 SWAP1 JUMP JUMPDEST POP PUSH1 0x1 SWAP1 JUMP JUMPDEST PUSH1 0x8 DUP1 SLOAD PUSH2 0x200 SWAP1 PUSH2 0x443 JUMP JUMPDEST PUSH1 0x0 PUSH1 0x20 DUP1 DUP4 MSTORE DUP4 MLOAD DUP1 DUP3 DUP6 ADD MSTORE PUSH1 0x0 JUMPDEST DUP2 DUP2 LT ISZERO PUSH2 0x3EB JUMPI DUP6 DUP2 ADD DUP4 ADD MLOAD DUP6 DUP3 ADD PUSH1 0x40 ADD MSTORE DUP3 ADD PUSH2 0x3CF JUMP JUMPDEST DUP2 DUP2 GT ISZERO PUSH2 0x3FD JUMPI PUSH1 0x0 PUSH1 0x40 DUP4 DUP8 ADD ADD MSTORE JUMPDEST POP PUSH1 0x1F ADD PUSH1 0x1F NOT AND SWAP3 SWAP1 SWAP3 ADD PUSH1 0x40 ADD SWAP4 SWAP3 POP POP POP JUMP JUMPDEST PUSH1 0x0 PUSH1 0x20 DUP3 DUP5 SUB SLT ISZERO PUSH2 0x425 JUMPI PUSH1 0x0 DUP1 REVERT JUMPDEST DUP2 CALLDATALOAD PUSH1 0x1 PUSH1 0x1 PUSH1 0xA0 SHL SUB DUP2 AND DUP2 EQ PUSH2 0x43C JUMPI PUSH1 0x0 DUP1 REVERT JUMPDEST SWAP4 SWAP3 POP POP POP JUMP JUMPDEST PUSH1 0x1 DUP2 DUP2 SHR SWAP1 DUP3 AND DUP1 PUSH2 0x457 JUMPI PUSH1 0x7F DUP3 AND SWAP2 POP JUMPDEST PUSH1 0x20 DUP3 LT DUP2 EQ ISZERO PUSH2 0x478 JUMPI PUSH4 0x4E487B71 PUSH1 0xE0 SHL PUSH1 0x0 MSTORE PUSH1 0x22 PUSH1 0x4 MSTORE PUSH1 0x24 PUSH1 0x0 REVERT JUMPDEST POP SWAP2 SWAP1 POP JUMP JUMPDEST PUSH1 0x0 PUSH1 0x20 DUP3 DUP5 SUB SLT ISZERO PUSH2 0x490 JUMPI PUSH1 0x0 DUP1 REVERT JUMPDEST DUP2 MLOAD DUP1 ISZERO ISZERO DUP2 EQ PUSH2 0x43C JUMPI PUSH1 0x0 DUP1 REVERT JUMPDEST PUSH1 0x0 DUP3 NOT DUP3 GT ISZERO PUSH2 0x4C1 JUMPI PUSH4 0x4E487B71 PUSH1 0xE0 SHL PUSH1 0x0 MSTORE PUSH1 0x11 PUSH1 0x4 MSTORE PUSH1 0x24 PUSH1 0x0 REVERT JUMPDEST POP ADD SWAP1 JUMP INVALID LOG2 PUSH5 0x6970667358 0x22 SLT KECCAK256 0x4C PUSH1 0x2A 0xE4 0xD2 CALL 0xBA INVALID 0x1F SWAP13 0x1E RETURNDATACOPY EQ ADD 0x4F RETURN 0x49 0xD0 CALLVALUE 0xD6 0xB0 0xDB CALLDATASIZE SWAP10 ISZERO 0xD6 AND 0xA6 0xD2 0x4F 0x1F 0xD4 PUSH5 0x736F6C6343 STOP ADDMOD 0xC STOP CALLER LOG2 PUSH5 0x6970667358 0x22 SLT KECCAK256 0x23 KECCAK256 PUSH4 0xA0672A6E DUP6 PUSH12 0x86C203168F568552352A50A2 PUSH24 0x1F9BE8D15742EB37E0DD64736F6C634300080C0033000000 "
		},
		"gasEstimates": {
			"creation": {
				"codeDepositCost": "3855000",
				"executionCost": "infinite",
				"totalCost": "infinite"
			},
			"external": {
				"addMinter(address,string)": "infinite",
				"addMinterBalance(address,uint256)": "infinite",
				"claim(address)": "infinite",
				"claimedAmount(address)": "2572",
				"claimedByMinter(address)": "2636",
				"claimedQrCodes(address,uint256)": "4795",
				"claimedQrCodesCount(address)": "2614",
				"codeTL()": "2396",
				"faucetAmount()": "2351",
				"getAddressNativeBalance(address)": "3084",
				"getAddressTokenBalance(address)": "infinite",
				"getAllQrCodes()": "infinite",
				"getClaimedAmount(address)": "2610",
				"getClaimedQrCodes(address)": "infinite",
				"getClaimedQrCodesCount(address)": "2611",
				"getClaimedQrCodesIds(address)": "infinite",
				"getClaimerInfo(address)": "infinite",
				"getClaimers()": "infinite",
				"getClaimersInfo()": "infinite",
				"getFaucetBalance()": "271",
				"getIsManager(address)": "infinite",
				"getIsMinter(address)": "infinite",
				"getManagers()": "infinite",
				"getMintedAmount(address)": "2632",
				"getMintedQrCodesCount(address)": "2609",
				"getMintedQrCodesIds(address)": "infinite",
				"getMinterInfo(address)": "infinite",
				"getMinterQrCodes(address)": "infinite",
				"getMinters()": "infinite",
				"getMintersInfo()": "infinite",
				"getQrCode(uint256)": "infinite",
				"getQrCodeByAddress(address)": "infinite",
				"getTokenBalance()": "infinite",
				"getTokenDecimals()": "infinite",
				"getTokenName()": "infinite",
				"getTokenSymbol()": "infinite",
				"isQrCodeClaimed(address)": "7042",
				"maxMintAmountPerQrCodeGlobal()": "2418",
				"mint(uint256,uint256,string)": "infinite",
				"mintedAmount(address)": "2634",
				"mintedQrCodes(address,uint256)": "4796",
				"mintedQrCodesCount(address)": "2636",
				"mintersName(address)": "infinite",
				"owner()": "2405",
				"qrCodes(uint256)": "infinite",
				"qrCodesLength()": "2353",
				"qrCodesRouters(address)": "2569",
				"setCodeTL(uint256)": "24597",
				"setFaucetAmount(uint256)": "24577",
				"setIsManager(address,bool)": "infinite",
				"setIsMinter(address,bool)": "infinite",
				"setMaxMintAmountPerQrCode(address,uint256)": "infinite",
				"setMaxMintAmountPerQrCodeGlobal(uint256)": "infinite",
				"setMinterBalance(address,uint256)": "infinite",
				"setMinterName(address,string)": "infinite",
				"tokenAddress()": "2426",
				"totalClaimedAmount()": "2418",
				"totalFaucetAmount()": "2417",
				"totalMintedAmount()": "2353",
				"totalQrCodesClaimed()": "2395",
				"transferOwnership(address)": "26850"
			}
		},
		"methodIdentifiers": {
			"addMinter(address,string)": "424f3c8e",
			"addMinterBalance(address,uint256)": "384e491d",
			"claim(address)": "1e83409a",
			"claimedAmount(address)": "04e86903",
			"claimedByMinter(address)": "3e70703e",
			"claimedQrCodes(address,uint256)": "44e2ad99",
			"claimedQrCodesCount(address)": "ad4ad7ca",
			"codeTL()": "563d3ca3",
			"faucetAmount()": "9c281430",
			"getAddressNativeBalance(address)": "d846ceae",
			"getAddressTokenBalance(address)": "a50ffda5",
			"getAllQrCodes()": "572d4721",
			"getClaimedAmount(address)": "8df40be8",
			"getClaimedQrCodes(address)": "321afd38",
			"getClaimedQrCodesCount(address)": "23c65c3d",
			"getClaimedQrCodesIds(address)": "40f26d49",
			"getClaimerInfo(address)": "878d7d87",
			"getClaimers()": "52b2710c",
			"getClaimersInfo()": "440d712b",
			"getFaucetBalance()": "f1f959a6",
			"getIsManager(address)": "198e14f8",
			"getIsMinter(address)": "17fc30d4",
			"getManagers()": "a8d088bb",
			"getMintedAmount(address)": "63b266ba",
			"getMintedQrCodesCount(address)": "cd3b6e87",
			"getMintedQrCodesIds(address)": "6123280d",
			"getMinterInfo(address)": "f09b2203",
			"getMinterQrCodes(address)": "926cf993",
			"getMinters()": "6b32810b",
			"getMintersInfo()": "143f338c",
			"getQrCode(uint256)": "6f7ab8d1",
			"getQrCodeByAddress(address)": "81b5479d",
			"getTokenBalance()": "82b2e257",
			"getTokenDecimals()": "24f65ee7",
			"getTokenName()": "862b092b",
			"getTokenSymbol()": "f1850af8",
			"isQrCodeClaimed(address)": "2a4e4553",
			"maxMintAmountPerQrCodeGlobal()": "892ff8bd",
			"mint(uint256,uint256,string)": "c6e64e53",
			"mintedAmount(address)": "fbbf8cc3",
			"mintedQrCodes(address,uint256)": "206855d0",
			"mintedQrCodesCount(address)": "b862251f",
			"mintersName(address)": "d3a51ff2",
			"owner()": "8da5cb5b",
			"qrCodes(uint256)": "6ca80026",
			"qrCodesLength()": "1654d42c",
			"qrCodesRouters(address)": "dccb445b",
			"setCodeTL(uint256)": "a01bad52",
			"setFaucetAmount(uint256)": "81d2fd9c",
			"setIsManager(address,bool)": "26767f90",
			"setIsMinter(address,bool)": "66eb399f",
			"setMaxMintAmountPerQrCode(address,uint256)": "59d1bd80",
			"setMaxMintAmountPerQrCodeGlobal(uint256)": "04f32a1d",
			"setMinterBalance(address,uint256)": "66059a16",
			"setMinterName(address,string)": "ece76435",
			"tokenAddress()": "9d76ea58",
			"totalClaimedAmount()": "9661cb0d",
			"totalFaucetAmount()": "f1294ef6",
			"totalMintedAmount()": "6f865e6f",
			"totalQrCodesClaimed()": "9db1ff16",
			"transferOwnership(address)": "f2fde38b"
		}
	},
	"abi": [
		{
			"inputs": [
				{
					"internalType": "address",
					"name": "_tokenAddress",
					"type": "address"
				}
			],
			"stateMutability": "nonpayable",
			"type": "constructor"
		},
		{
			"anonymous": false,
			"inputs": [
				{
					"indexed": false,
					"internalType": "address",
					"name": "qrcode",
					"type": "address"
				}
			],
			"name": "QrCodeMinted",
			"type": "event"
		},
		{
			"inputs": [
				{
					"internalType": "address",
					"name": "minter",
					"type": "address"
				},
				{
					"internalType": "string",
					"name": "name",
					"type": "string"
				}
			],
			"name": "addMinter",
			"outputs": [],
			"stateMutability": "nonpayable",
			"type": "function"
		},
		{
			"inputs": [
				{
					"internalType": "address",
					"name": "minter",
					"type": "address"
				},
				{
					"internalType": "uint256",
					"name": "amount",
					"type": "uint256"
				}
			],
			"name": "addMinterBalance",
			"outputs": [],
			"stateMutability": "nonpayable",
			"type": "function"
		},
		{
			"inputs": [
				{
					"internalType": "address",
					"name": "claimer",
					"type": "address"
				}
			],
			"name": "claim",
			"outputs": [],
			"stateMutability": "nonpayable",
			"type": "function"
		},
		{
			"inputs": [
				{
					"internalType": "address",
					"name": "",
					"type": "address"
				}
			],
			"name": "claimedAmount",
			"outputs": [
				{
					"internalType": "uint256",
					"name": "",
					"type": "uint256"
				}
			],
			"stateMutability": "view",
			"type": "function"
		},
		{
			"inputs": [
				{
					"internalType": "address",
					"name": "",
					"type": "address"
				}
			],
			"name": "claimedByMinter",
			"outputs": [
				{
					"internalType": "uint256",
					"name": "",
					"type": "uint256"
				}
			],
			"stateMutability": "view",
			"type": "function"
		},
		{
			"inputs": [
				{
					"internalType": "address",
					"name": "",
					"type": "address"
				},
				{
					"internalType": "uint256",
					"name": "",
					"type": "uint256"
				}
			],
			"name": "claimedQrCodes",
			"outputs": [
				{
					"internalType": "uint256",
					"name": "",
					"type": "uint256"
				}
			],
			"stateMutability": "view",
			"type": "function"
		},
		{
			"inputs": [
				{
					"internalType": "address",
					"name": "",
					"type": "address"
				}
			],
			"name": "claimedQrCodesCount",
			"outputs": [
				{
					"internalType": "uint256",
					"name": "",
					"type": "uint256"
				}
			],
			"stateMutability": "view",
			"type": "function"
		},
		{
			"inputs": [],
			"name": "codeTL",
			"outputs": [
				{
					"internalType": "uint256",
					"name": "",
					"type": "uint256"
				}
			],
			"stateMutability": "view",
			"type": "function"
		},
		{
			"inputs": [],
			"name": "faucetAmount",
			"outputs": [
				{
					"internalType": "uint256",
					"name": "",
					"type": "uint256"
				}
			],
			"stateMutability": "view",
			"type": "function"
		},
		{
			"inputs": [
				{
					"internalType": "address",
					"name": "_address",
					"type": "address"
				}
			],
			"name": "getAddressNativeBalance",
			"outputs": [
				{
					"internalType": "uint256",
					"name": "",
					"type": "uint256"
				}
			],
			"stateMutability": "view",
			"type": "function"
		},
		{
			"inputs": [
				{
					"internalType": "address",
					"name": "_address",
					"type": "address"
				}
			],
			"name": "getAddressTokenBalance",
			"outputs": [
				{
					"internalType": "uint256",
					"name": "",
					"type": "uint256"
				}
			],
			"stateMutability": "view",
			"type": "function"
		},
		{
			"inputs": [],
			"name": "getAllQrCodes",
			"outputs": [
				{
					"components": [
						{
							"internalType": "uint256",
							"name": "id",
							"type": "uint256"
						},
						{
							"internalType": "uint256",
							"name": "amount",
							"type": "uint256"
						},
						{
							"internalType": "address",
							"name": "minter",
							"type": "address"
						},
						{
							"internalType": "address",
							"name": "claimer",
							"type": "address"
						},
						{
							"internalType": "uint256",
							"name": "minted_at",
							"type": "uint256"
						},
						{
							"internalType": "uint256",
							"name": "claimed_at",
							"type": "uint256"
						},
						{
							"internalType": "uint256",
							"name": "timelife",
							"type": "uint256"
						},
						{
							"internalType": "address",
							"name": "router",
							"type": "address"
						},
						{
							"internalType": "string",
							"name": "message",
							"type": "string"
						}
					],
					"internalType": "struct QRCodeFactory.QRCODE[]",
					"name": "",
					"type": "tuple[]"
				}
			],
			"stateMutability": "view",
			"type": "function"
		},
		{
			"inputs": [
				{
					"internalType": "address",
					"name": "claimer",
					"type": "address"
				}
			],
			"name": "getClaimedAmount",
			"outputs": [
				{
					"internalType": "uint256",
					"name": "",
					"type": "uint256"
				}
			],
			"stateMutability": "view",
			"type": "function"
		},
		{
			"inputs": [
				{
					"internalType": "address",
					"name": "claimer",
					"type": "address"
				}
			],
			"name": "getClaimedQrCodes",
			"outputs": [
				{
					"components": [
						{
							"internalType": "uint256",
							"name": "id",
							"type": "uint256"
						},
						{
							"internalType": "uint256",
							"name": "amount",
							"type": "uint256"
						},
						{
							"internalType": "address",
							"name": "minter",
							"type": "address"
						},
						{
							"internalType": "address",
							"name": "claimer",
							"type": "address"
						},
						{
							"internalType": "uint256",
							"name": "minted_at",
							"type": "uint256"
						},
						{
							"internalType": "uint256",
							"name": "claimed_at",
							"type": "uint256"
						},
						{
							"internalType": "uint256",
							"name": "timelife",
							"type": "uint256"
						},
						{
							"internalType": "address",
							"name": "router",
							"type": "address"
						},
						{
							"internalType": "string",
							"name": "message",
							"type": "string"
						}
					],
					"internalType": "struct QRCodeFactory.QRCODE[]",
					"name": "",
					"type": "tuple[]"
				}
			],
			"stateMutability": "view",
			"type": "function"
		},
		{
			"inputs": [
				{
					"internalType": "address",
					"name": "claimer",
					"type": "address"
				}
			],
			"name": "getClaimedQrCodesCount",
			"outputs": [
				{
					"internalType": "uint256",
					"name": "",
					"type": "uint256"
				}
			],
			"stateMutability": "view",
			"type": "function"
		},
		{
			"inputs": [
				{
					"internalType": "address",
					"name": "claimer",
					"type": "address"
				}
			],
			"name": "getClaimedQrCodesIds",
			"outputs": [
				{
					"internalType": "uint256[]",
					"name": "",
					"type": "uint256[]"
				}
			],
			"stateMutability": "view",
			"type": "function"
		},
		{
			"inputs": [
				{
					"internalType": "address",
					"name": "claimer",
					"type": "address"
				}
			],
			"name": "getClaimerInfo",
			"outputs": [
				{
					"components": [
						{
							"internalType": "address",
							"name": "claimerAddress",
							"type": "address"
						},
						{
							"internalType": "uint256",
							"name": "claimedAmount",
							"type": "uint256"
						},
						{
							"internalType": "uint256[]",
							"name": "claimedQrCodes",
							"type": "uint256[]"
						},
						{
							"internalType": "uint256",
							"name": "claimedQrCodesCount",
							"type": "uint256"
						}
					],
					"internalType": "struct QRCodeFactory.ClaimerInfo",
					"name": "ret",
					"type": "tuple"
				}
			],
			"stateMutability": "view",
			"type": "function"
		},
		{
			"inputs": [],
			"name": "getClaimers",
			"outputs": [
				{
					"internalType": "address[]",
					"name": "",
					"type": "address[]"
				}
			],
			"stateMutability": "view",
			"type": "function"
		},
		{
			"inputs": [],
			"name": "getClaimersInfo",
			"outputs": [
				{
					"components": [
						{
							"internalType": "address",
							"name": "claimerAddress",
							"type": "address"
						},
						{
							"internalType": "uint256",
							"name": "claimedAmount",
							"type": "uint256"
						},
						{
							"internalType": "uint256[]",
							"name": "claimedQrCodes",
							"type": "uint256[]"
						},
						{
							"internalType": "uint256",
							"name": "claimedQrCodesCount",
							"type": "uint256"
						}
					],
					"internalType": "struct QRCodeFactory.ClaimerInfo[]",
					"name": "",
					"type": "tuple[]"
				}
			],
			"stateMutability": "view",
			"type": "function"
		},
		{
			"inputs": [],
			"name": "getFaucetBalance",
			"outputs": [
				{
					"internalType": "uint256",
					"name": "",
					"type": "uint256"
				}
			],
			"stateMutability": "view",
			"type": "function"
		},
		{
			"inputs": [
				{
					"internalType": "address",
					"name": "check",
					"type": "address"
				}
			],
			"name": "getIsManager",
			"outputs": [
				{
					"internalType": "bool",
					"name": "",
					"type": "bool"
				}
			],
			"stateMutability": "view",
			"type": "function"
		},
		{
			"inputs": [
				{
					"internalType": "address",
					"name": "check",
					"type": "address"
				}
			],
			"name": "getIsMinter",
			"outputs": [
				{
					"internalType": "bool",
					"name": "",
					"type": "bool"
				}
			],
			"stateMutability": "view",
			"type": "function"
		},
		{
			"inputs": [],
			"name": "getManagers",
			"outputs": [
				{
					"internalType": "address[]",
					"name": "",
					"type": "address[]"
				}
			],
			"stateMutability": "view",
			"type": "function"
		},
		{
			"inputs": [
				{
					"internalType": "address",
					"name": "minter",
					"type": "address"
				}
			],
			"name": "getMintedAmount",
			"outputs": [
				{
					"internalType": "uint256",
					"name": "",
					"type": "uint256"
				}
			],
			"stateMutability": "view",
			"type": "function"
		},
		{
			"inputs": [
				{
					"internalType": "address",
					"name": "minter",
					"type": "address"
				}
			],
			"name": "getMintedQrCodesCount",
			"outputs": [
				{
					"internalType": "uint256",
					"name": "",
					"type": "uint256"
				}
			],
			"stateMutability": "view",
			"type": "function"
		},
		{
			"inputs": [
				{
					"internalType": "address",
					"name": "minter",
					"type": "address"
				}
			],
			"name": "getMintedQrCodesIds",
			"outputs": [
				{
					"internalType": "uint256[]",
					"name": "",
					"type": "uint256[]"
				}
			],
			"stateMutability": "view",
			"type": "function"
		},
		{
			"inputs": [
				{
					"internalType": "address",
					"name": "minter",
					"type": "address"
				}
			],
			"name": "getMinterInfo",
			"outputs": [
				{
					"components": [
						{
							"internalType": "address",
							"name": "minterAddress",
							"type": "address"
						},
						{
							"internalType": "string",
							"name": "name",
							"type": "string"
						},
						{
							"internalType": "uint256",
							"name": "mintedAmount",
							"type": "uint256"
						},
						{
							"internalType": "uint256",
							"name": "claimedAmount",
							"type": "uint256"
						},
						{
							"internalType": "uint256[]",
							"name": "mintedQrCodes",
							"type": "uint256[]"
						},
						{
							"internalType": "uint256",
							"name": "mintedQrCodesCount",
							"type": "uint256"
						},
						{
							"internalType": "uint256",
							"name": "balance",
							"type": "uint256"
						}
					],
					"internalType": "struct QRCodeFactory.MinterInfo",
					"name": "ret",
					"type": "tuple"
				}
			],
			"stateMutability": "view",
			"type": "function"
		},
		{
			"inputs": [
				{
					"internalType": "address",
					"name": "minter",
					"type": "address"
				}
			],
			"name": "getMinterQrCodes",
			"outputs": [
				{
					"components": [
						{
							"internalType": "uint256",
							"name": "id",
							"type": "uint256"
						},
						{
							"internalType": "uint256",
							"name": "amount",
							"type": "uint256"
						},
						{
							"internalType": "address",
							"name": "minter",
							"type": "address"
						},
						{
							"internalType": "address",
							"name": "claimer",
							"type": "address"
						},
						{
							"internalType": "uint256",
							"name": "minted_at",
							"type": "uint256"
						},
						{
							"internalType": "uint256",
							"name": "claimed_at",
							"type": "uint256"
						},
						{
							"internalType": "uint256",
							"name": "timelife",
							"type": "uint256"
						},
						{
							"internalType": "address",
							"name": "router",
							"type": "address"
						},
						{
							"internalType": "string",
							"name": "message",
							"type": "string"
						}
					],
					"internalType": "struct QRCodeFactory.QRCODE[]",
					"name": "",
					"type": "tuple[]"
				}
			],
			"stateMutability": "view",
			"type": "function"
		},
		{
			"inputs": [],
			"name": "getMinters",
			"outputs": [
				{
					"internalType": "address[]",
					"name": "",
					"type": "address[]"
				}
			],
			"stateMutability": "view",
			"type": "function"
		},
		{
			"inputs": [],
			"name": "getMintersInfo",
			"outputs": [
				{
					"components": [
						{
							"internalType": "address",
							"name": "minterAddress",
							"type": "address"
						},
						{
							"internalType": "string",
							"name": "name",
							"type": "string"
						},
						{
							"internalType": "uint256",
							"name": "mintedAmount",
							"type": "uint256"
						},
						{
							"internalType": "uint256",
							"name": "claimedAmount",
							"type": "uint256"
						},
						{
							"internalType": "uint256[]",
							"name": "mintedQrCodes",
							"type": "uint256[]"
						},
						{
							"internalType": "uint256",
							"name": "mintedQrCodesCount",
							"type": "uint256"
						},
						{
							"internalType": "uint256",
							"name": "balance",
							"type": "uint256"
						}
					],
					"internalType": "struct QRCodeFactory.MinterInfo[]",
					"name": "",
					"type": "tuple[]"
				}
			],
			"stateMutability": "view",
			"type": "function"
		},
		{
			"inputs": [
				{
					"internalType": "uint256",
					"name": "index",
					"type": "uint256"
				}
			],
			"name": "getQrCode",
			"outputs": [
				{
					"components": [
						{
							"internalType": "uint256",
							"name": "id",
							"type": "uint256"
						},
						{
							"internalType": "uint256",
							"name": "amount",
							"type": "uint256"
						},
						{
							"internalType": "address",
							"name": "minter",
							"type": "address"
						},
						{
							"internalType": "address",
							"name": "claimer",
							"type": "address"
						},
						{
							"internalType": "uint256",
							"name": "minted_at",
							"type": "uint256"
						},
						{
							"internalType": "uint256",
							"name": "claimed_at",
							"type": "uint256"
						},
						{
							"internalType": "uint256",
							"name": "timelife",
							"type": "uint256"
						},
						{
							"internalType": "address",
							"name": "router",
							"type": "address"
						},
						{
							"internalType": "string",
							"name": "message",
							"type": "string"
						}
					],
					"internalType": "struct QRCodeFactory.QRCODE",
					"name": "",
					"type": "tuple"
				}
			],
			"stateMutability": "view",
			"type": "function"
		},
		{
			"inputs": [
				{
					"internalType": "address",
					"name": "router",
					"type": "address"
				}
			],
			"name": "getQrCodeByAddress",
			"outputs": [
				{
					"components": [
						{
							"internalType": "uint256",
							"name": "id",
							"type": "uint256"
						},
						{
							"internalType": "uint256",
							"name": "amount",
							"type": "uint256"
						},
						{
							"internalType": "address",
							"name": "minter",
							"type": "address"
						},
						{
							"internalType": "address",
							"name": "claimer",
							"type": "address"
						},
						{
							"internalType": "uint256",
							"name": "minted_at",
							"type": "uint256"
						},
						{
							"internalType": "uint256",
							"name": "claimed_at",
							"type": "uint256"
						},
						{
							"internalType": "uint256",
							"name": "timelife",
							"type": "uint256"
						},
						{
							"internalType": "address",
							"name": "router",
							"type": "address"
						},
						{
							"internalType": "string",
							"name": "message",
							"type": "string"
						}
					],
					"internalType": "struct QRCodeFactory.QRCODE",
					"name": "ret",
					"type": "tuple"
				}
			],
			"stateMutability": "view",
			"type": "function"
		},
		{
			"inputs": [],
			"name": "getTokenBalance",
			"outputs": [
				{
					"internalType": "uint256",
					"name": "",
					"type": "uint256"
				}
			],
			"stateMutability": "view",
			"type": "function"
		},
		{
			"inputs": [],
			"name": "getTokenDecimals",
			"outputs": [
				{
					"internalType": "uint256",
					"name": "",
					"type": "uint256"
				}
			],
			"stateMutability": "view",
			"type": "function"
		},
		{
			"inputs": [],
			"name": "getTokenName",
			"outputs": [
				{
					"internalType": "string",
					"name": "",
					"type": "string"
				}
			],
			"stateMutability": "view",
			"type": "function"
		},
		{
			"inputs": [],
			"name": "getTokenSymbol",
			"outputs": [
				{
					"internalType": "string",
					"name": "",
					"type": "string"
				}
			],
			"stateMutability": "view",
			"type": "function"
		},
		{
			"inputs": [
				{
					"internalType": "address",
					"name": "router",
					"type": "address"
				}
			],
			"name": "isQrCodeClaimed",
			"outputs": [
				{
					"internalType": "bool",
					"name": "",
					"type": "bool"
				}
			],
			"stateMutability": "view",
			"type": "function"
		},
		{
			"inputs": [],
			"name": "maxMintAmountPerQrCodeGlobal",
			"outputs": [
				{
					"internalType": "uint256",
					"name": "",
					"type": "uint256"
				}
			],
			"stateMutability": "view",
			"type": "function"
		},
		{
			"inputs": [
				{
					"internalType": "uint256",
					"name": "_amount",
					"type": "uint256"
				},
				{
					"internalType": "uint256",
					"name": "_timelife",
					"type": "uint256"
				},
				{
					"internalType": "string",
					"name": "_message",
					"type": "string"
				}
			],
			"name": "mint",
			"outputs": [
				{
					"internalType": "address",
					"name": "",
					"type": "address"
				}
			],
			"stateMutability": "nonpayable",
			"type": "function"
		},
		{
			"inputs": [
				{
					"internalType": "address",
					"name": "",
					"type": "address"
				}
			],
			"name": "mintedAmount",
			"outputs": [
				{
					"internalType": "uint256",
					"name": "",
					"type": "uint256"
				}
			],
			"stateMutability": "view",
			"type": "function"
		},
		{
			"inputs": [
				{
					"internalType": "address",
					"name": "",
					"type": "address"
				},
				{
					"internalType": "uint256",
					"name": "",
					"type": "uint256"
				}
			],
			"name": "mintedQrCodes",
			"outputs": [
				{
					"internalType": "uint256",
					"name": "",
					"type": "uint256"
				}
			],
			"stateMutability": "view",
			"type": "function"
		},
		{
			"inputs": [
				{
					"internalType": "address",
					"name": "",
					"type": "address"
				}
			],
			"name": "mintedQrCodesCount",
			"outputs": [
				{
					"internalType": "uint256",
					"name": "",
					"type": "uint256"
				}
			],
			"stateMutability": "view",
			"type": "function"
		},
		{
			"inputs": [
				{
					"internalType": "address",
					"name": "",
					"type": "address"
				}
			],
			"name": "mintersName",
			"outputs": [
				{
					"internalType": "string",
					"name": "",
					"type": "string"
				}
			],
			"stateMutability": "view",
			"type": "function"
		},
		{
			"inputs": [],
			"name": "owner",
			"outputs": [
				{
					"internalType": "address",
					"name": "",
					"type": "address"
				}
			],
			"stateMutability": "view",
			"type": "function"
		},
		{
			"inputs": [
				{
					"internalType": "uint256",
					"name": "",
					"type": "uint256"
				}
			],
			"name": "qrCodes",
			"outputs": [
				{
					"internalType": "uint256",
					"name": "id",
					"type": "uint256"
				},
				{
					"internalType": "uint256",
					"name": "amount",
					"type": "uint256"
				},
				{
					"internalType": "address",
					"name": "minter",
					"type": "address"
				},
				{
					"internalType": "address",
					"name": "claimer",
					"type": "address"
				},
				{
					"internalType": "uint256",
					"name": "minted_at",
					"type": "uint256"
				},
				{
					"internalType": "uint256",
					"name": "claimed_at",
					"type": "uint256"
				},
				{
					"internalType": "uint256",
					"name": "timelife",
					"type": "uint256"
				},
				{
					"internalType": "address",
					"name": "router",
					"type": "address"
				},
				{
					"internalType": "string",
					"name": "message",
					"type": "string"
				}
			],
			"stateMutability": "view",
			"type": "function"
		},
		{
			"inputs": [],
			"name": "qrCodesLength",
			"outputs": [
				{
					"internalType": "uint256",
					"name": "",
					"type": "uint256"
				}
			],
			"stateMutability": "view",
			"type": "function"
		},
		{
			"inputs": [
				{
					"internalType": "address",
					"name": "",
					"type": "address"
				}
			],
			"name": "qrCodesRouters",
			"outputs": [
				{
					"internalType": "uint256",
					"name": "",
					"type": "uint256"
				}
			],
			"stateMutability": "view",
			"type": "function"
		},
		{
			"inputs": [
				{
					"internalType": "uint256",
					"name": "_codeTL",
					"type": "uint256"
				}
			],
			"name": "setCodeTL",
			"outputs": [],
			"stateMutability": "nonpayable",
			"type": "function"
		},
		{
			"inputs": [
				{
					"internalType": "uint256",
					"name": "_faucetAmount",
					"type": "uint256"
				}
			],
			"name": "setFaucetAmount",
			"outputs": [],
			"stateMutability": "nonpayable",
			"type": "function"
		},
		{
			"inputs": [
				{
					"internalType": "address",
					"name": "who",
					"type": "address"
				},
				{
					"internalType": "bool",
					"name": "isManager",
					"type": "bool"
				}
			],
			"name": "setIsManager",
			"outputs": [],
			"stateMutability": "nonpayable",
			"type": "function"
		},
		{
			"inputs": [
				{
					"internalType": "address",
					"name": "who",
					"type": "address"
				},
				{
					"internalType": "bool",
					"name": "isMinter",
					"type": "bool"
				}
			],
			"name": "setIsMinter",
			"outputs": [],
			"stateMutability": "nonpayable",
			"type": "function"
		},
		{
			"inputs": [
				{
					"internalType": "address",
					"name": "minter",
					"type": "address"
				},
				{
					"internalType": "uint256",
					"name": "newLimit",
					"type": "uint256"
				}
			],
			"name": "setMaxMintAmountPerQrCode",
			"outputs": [],
			"stateMutability": "nonpayable",
			"type": "function"
		},
		{
			"inputs": [
				{
					"internalType": "uint256",
					"name": "newLimit",
					"type": "uint256"
				}
			],
			"name": "setMaxMintAmountPerQrCodeGlobal",
			"outputs": [],
			"stateMutability": "nonpayable",
			"type": "function"
		},
		{
			"inputs": [
				{
					"internalType": "address",
					"name": "minter",
					"type": "address"
				},
				{
					"internalType": "uint256",
					"name": "newBalance",
					"type": "uint256"
				}
			],
			"name": "setMinterBalance",
			"outputs": [],
			"stateMutability": "nonpayable",
			"type": "function"
		},
		{
			"inputs": [
				{
					"internalType": "address",
					"name": "minter",
					"type": "address"
				},
				{
					"internalType": "string",
					"name": "name",
					"type": "string"
				}
			],
			"name": "setMinterName",
			"outputs": [],
			"stateMutability": "nonpayable",
			"type": "function"
		},
		{
			"inputs": [],
			"name": "tokenAddress",
			"outputs": [
				{
					"internalType": "address",
					"name": "",
					"type": "address"
				}
			],
			"stateMutability": "view",
			"type": "function"
		},
		{
			"inputs": [],
			"name": "totalClaimedAmount",
			"outputs": [
				{
					"internalType": "uint256",
					"name": "",
					"type": "uint256"
				}
			],
			"stateMutability": "view",
			"type": "function"
		},
		{
			"inputs": [],
			"name": "totalFaucetAmount",
			"outputs": [
				{
					"internalType": "uint256",
					"name": "",
					"type": "uint256"
				}
			],
			"stateMutability": "view",
			"type": "function"
		},
		{
			"inputs": [],
			"name": "totalMintedAmount",
			"outputs": [
				{
					"internalType": "uint256",
					"name": "",
					"type": "uint256"
				}
			],
			"stateMutability": "view",
			"type": "function"
		},
		{
			"inputs": [],
			"name": "totalQrCodesClaimed",
			"outputs": [
				{
					"internalType": "uint256",
					"name": "",
					"type": "uint256"
				}
			],
			"stateMutability": "view",
			"type": "function"
		},
		{
			"inputs": [
				{
					"internalType": "address",
					"name": "newOwner",
					"type": "address"
				}
			],
			"name": "transferOwnership",
			"outputs": [],
			"stateMutability": "nonpayable",
			"type": "function"
		},
		{
			"stateMutability": "payable",
			"type": "receive"
		}
	]
}