{
	"data": {
		"bytecode": {
			"linkReferences": {},
			"object": "60806040523480156200001157600080fd5b5060405162000a4738038062000a478339810160408190526200003491620003e4565b60008054336001600160a01b03199182161782556002805482166001600160a01b038a81169190911790915560038890556009879055600a86905560018054909216908a16908117909155604080516306fdde0360e01b8152905191926306fdde03926004808401938290030181865afa158015620000b7573d6000803e3d6000fd5b505050506040513d6000823e601f3d908101601f19168201604052620000e1919081019062000492565b8051620000f79160049160209091019062000254565b50600160009054906101000a90046001600160a01b03166001600160a01b03166395d89b416040518163ffffffff1660e01b8152600401600060405180830381865afa1580156200014c573d6000803e3d6000fd5b505050506040513d6000823e601f3d908101601f1916820160405262000176919081019062000492565b80516200018c9160059160209091019062000254565b50600160009054906101000a90046001600160a01b03166001600160a01b031663313ce5676040518163ffffffff1660e01b8152600401602060405180830381865afa158015620001e1573d6000803e3d6000fd5b505050506040513d601f19601f82011682018060405250810190620002079190620004d2565b6006805460ff191660ff9290921691909117905581516200023090600790602085019062000254565b5080516200024690600890602084019062000254565b50505050505050506200053b565b8280546200026290620004fe565b90600052602060002090601f016020900481019282620002865760008555620002d1565b82601f10620002a157805160ff1916838001178555620002d1565b82800160010185558215620002d1579182015b82811115620002d1578251825591602001919060010190620002b4565b50620002df929150620002e3565b5090565b5b80821115620002df5760008155600101620002e4565b80516001600160a01b03811681146200031257600080fd5b919050565b634e487b7160e01b600052604160045260246000fd5b600082601f8301126200033f57600080fd5b81516001600160401b03808211156200035c576200035c62000317565b604051601f8301601f19908116603f0116810190828211818310171562000387576200038762000317565b81604052838152602092508683858801011115620003a457600080fd5b600091505b83821015620003c85785820183015181830184015290820190620003a9565b83821115620003da5760008385830101525b9695505050505050565b600080600080600080600060e0888a0312156200040057600080fd5b6200040b88620002fa565b96506200041b60208901620002fa565b604089015160608a015160808b015160a08c0151939950919750955093506001600160401b03808211156200044f57600080fd5b6200045d8b838c016200032d565b935060c08a01519150808211156200047457600080fd5b50620004838a828b016200032d565b91505092959891949750929550565b600060208284031215620004a557600080fd5b81516001600160401b03811115620004bc57600080fd5b620004ca848285016200032d565b949350505050565b600060208284031215620004e557600080fd5b815160ff81168114620004f757600080fd5b9392505050565b600181811c908216806200051357607f821691505b602082108114156200053557634e487b7160e01b600052602260045260246000fd5b50919050565b6104fc806200054b6000396000f3fe608060405234801561001057600080fd5b50600436106100ea5760003560e01c80639c6f0d851161008c578063bb5d40eb11610066578063bb5d40eb146101bd578063c45a0155146101c5578063e21f37ce146101d8578063fc0c546a146101e057600080fd5b80639c6f0d85146101a3578063aa8c217c146101ac578063b39cb699146101b557600080fd5b8063313ce567116100c8578063313ce5671461014d57806357c9ca141461016c5780637eb9385f1461018457806395d89b411461019b57600080fd5b806306fdde03146100ef578063075461721461010d5780631e83409a14610138575b600080fd5b6100f76101f3565b60405161010491906103be565b60405180910390f35b600254610120906001600160a01b031681565b6040516001600160a01b039091168152602001610104565b61014b610146366004610413565b610281565b005b60065461015a9060ff1681565b60405160ff9091168152602001610104565b610174610301565b6040519015158152602001610104565b61018d600a5481565b604051908152602001610104565b6100f7610373565b61018d60095481565b61018d60035481565b6100f7610380565b61017461038d565b600054610120906001600160a01b031681565b6100f76103b1565b600154610120906001600160a01b031681565b6004805461020090610443565b80601f016020809104026020016040519081016040528092919081815260200182805461022c90610443565b80156102795780601f1061024e57610100808354040283529160200191610279565b820191906000526020600020905b81548152906001019060200180831161025c57829003601f168201915b505050505081565b6000546001600160a01b0390811690631e83409a908316156102a357826102a5565b335b6040516001600160e01b031960e084901b1681526001600160a01b039091166004820152602401600060405180830381600087803b1580156102e657600080fd5b505af11580156102fa573d6000803e3d6000fd5b5050505050565b60008054604051632a4e455360e01b81523060048201526001600160a01b0390911690632a4e455390602401602060405180830381865afa15801561034a573d6000803e3d6000fd5b505050506040513d601f19601f8201168201806040525081019061036e919061047e565b905090565b6005805461020090610443565b6007805461020090610443565b600042600a546009546103a091906104a0565b116103ab5750600090565b50600190565b6008805461020090610443565b600060208083528351808285015260005b818110156103eb578581018301518582016040015282016103cf565b818111156103fd576000604083870101525b50601f01601f1916929092016040019392505050565b60006020828403121561042557600080fd5b81356001600160a01b038116811461043c57600080fd5b9392505050565b600181811c9082168061045757607f821691505b6020821081141561047857634e487b7160e01b600052602260045260246000fd5b50919050565b60006020828403121561049057600080fd5b8151801515811461043c57600080fd5b600082198211156104c157634e487b7160e01b600052601160045260246000fd5b50019056fea26469706673582212204c602ae4d2f1bafe1f9c1e3e14014ff349d034d6b0db369915d616a6d24f1fd464736f6c634300080c0033",
			"opcodes": "PUSH1 0x80 PUSH1 0x40 MSTORE CALLVALUE DUP1 ISZERO PUSH3 0x11 JUMPI PUSH1 0x0 DUP1 REVERT JUMPDEST POP PUSH1 0x40 MLOAD PUSH3 0xA47 CODESIZE SUB DUP1 PUSH3 0xA47 DUP4 CODECOPY DUP2 ADD PUSH1 0x40 DUP2 SWAP1 MSTORE PUSH3 0x34 SWAP2 PUSH3 0x3E4 JUMP JUMPDEST PUSH1 0x0 DUP1 SLOAD CALLER PUSH1 0x1 PUSH1 0x1 PUSH1 0xA0 SHL SUB NOT SWAP2 DUP3 AND OR DUP3 SSTORE PUSH1 0x2 DUP1 SLOAD DUP3 AND PUSH1 0x1 PUSH1 0x1 PUSH1 0xA0 SHL SUB DUP11 DUP2 AND SWAP2 SWAP1 SWAP2 OR SWAP1 SWAP2 SSTORE PUSH1 0x3 DUP9 SWAP1 SSTORE PUSH1 0x9 DUP8 SWAP1 SSTORE PUSH1 0xA DUP7 SWAP1 SSTORE PUSH1 0x1 DUP1 SLOAD SWAP1 SWAP3 AND SWAP1 DUP11 AND SWAP1 DUP2 OR SWAP1 SWAP2 SSTORE PUSH1 0x40 DUP1 MLOAD PUSH4 0x6FDDE03 PUSH1 0xE0 SHL DUP2 MSTORE SWAP1 MLOAD SWAP2 SWAP3 PUSH4 0x6FDDE03 SWAP3 PUSH1 0x4 DUP1 DUP5 ADD SWAP4 DUP3 SWAP1 SUB ADD DUP2 DUP7 GAS STATICCALL ISZERO DUP1 ISZERO PUSH3 0xB7 JUMPI RETURNDATASIZE PUSH1 0x0 DUP1 RETURNDATACOPY RETURNDATASIZE PUSH1 0x0 REVERT JUMPDEST POP POP POP POP PUSH1 0x40 MLOAD RETURNDATASIZE PUSH1 0x0 DUP3 RETURNDATACOPY PUSH1 0x1F RETURNDATASIZE SWAP1 DUP2 ADD PUSH1 0x1F NOT AND DUP3 ADD PUSH1 0x40 MSTORE PUSH3 0xE1 SWAP2 SWAP1 DUP2 ADD SWAP1 PUSH3 0x492 JUMP JUMPDEST DUP1 MLOAD PUSH3 0xF7 SWAP2 PUSH1 0x4 SWAP2 PUSH1 0x20 SWAP1 SWAP2 ADD SWAP1 PUSH3 0x254 JUMP JUMPDEST POP PUSH1 0x1 PUSH1 0x0 SWAP1 SLOAD SWAP1 PUSH2 0x100 EXP SWAP1 DIV PUSH1 0x1 PUSH1 0x1 PUSH1 0xA0 SHL SUB AND PUSH1 0x1 PUSH1 0x1 PUSH1 0xA0 SHL SUB AND PUSH4 0x95D89B41 PUSH1 0x40 MLOAD DUP2 PUSH4 0xFFFFFFFF AND PUSH1 0xE0 SHL DUP2 MSTORE PUSH1 0x4 ADD PUSH1 0x0 PUSH1 0x40 MLOAD DUP1 DUP4 SUB DUP2 DUP7 GAS STATICCALL ISZERO DUP1 ISZERO PUSH3 0x14C JUMPI RETURNDATASIZE PUSH1 0x0 DUP1 RETURNDATACOPY RETURNDATASIZE PUSH1 0x0 REVERT JUMPDEST POP POP POP POP PUSH1 0x40 MLOAD RETURNDATASIZE PUSH1 0x0 DUP3 RETURNDATACOPY PUSH1 0x1F RETURNDATASIZE SWAP1 DUP2 ADD PUSH1 0x1F NOT AND DUP3 ADD PUSH1 0x40 MSTORE PUSH3 0x176 SWAP2 SWAP1 DUP2 ADD SWAP1 PUSH3 0x492 JUMP JUMPDEST DUP1 MLOAD PUSH3 0x18C SWAP2 PUSH1 0x5 SWAP2 PUSH1 0x20 SWAP1 SWAP2 ADD SWAP1 PUSH3 0x254 JUMP JUMPDEST POP PUSH1 0x1 PUSH1 0x0 SWAP1 SLOAD SWAP1 PUSH2 0x100 EXP SWAP1 DIV PUSH1 0x1 PUSH1 0x1 PUSH1 0xA0 SHL SUB AND PUSH1 0x1 PUSH1 0x1 PUSH1 0xA0 SHL SUB AND PUSH4 0x313CE567 PUSH1 0x40 MLOAD DUP2 PUSH4 0xFFFFFFFF AND PUSH1 0xE0 SHL DUP2 MSTORE PUSH1 0x4 ADD PUSH1 0x20 PUSH1 0x40 MLOAD DUP1 DUP4 SUB DUP2 DUP7 GAS STATICCALL ISZERO DUP1 ISZERO PUSH3 0x1E1 JUMPI RETURNDATASIZE PUSH1 0x0 DUP1 RETURNDATACOPY RETURNDATASIZE PUSH1 0x0 REVERT JUMPDEST POP POP POP POP PUSH1 0x40 MLOAD RETURNDATASIZE PUSH1 0x1F NOT PUSH1 0x1F DUP3 ADD AND DUP3 ADD DUP1 PUSH1 0x40 MSTORE POP DUP2 ADD SWAP1 PUSH3 0x207 SWAP2 SWAP1 PUSH3 0x4D2 JUMP JUMPDEST PUSH1 0x6 DUP1 SLOAD PUSH1 0xFF NOT AND PUSH1 0xFF SWAP3 SWAP1 SWAP3 AND SWAP2 SWAP1 SWAP2 OR SWAP1 SSTORE DUP2 MLOAD PUSH3 0x230 SWAP1 PUSH1 0x7 SWAP1 PUSH1 0x20 DUP6 ADD SWAP1 PUSH3 0x254 JUMP JUMPDEST POP DUP1 MLOAD PUSH3 0x246 SWAP1 PUSH1 0x8 SWAP1 PUSH1 0x20 DUP5 ADD SWAP1 PUSH3 0x254 JUMP JUMPDEST POP POP POP POP POP POP POP POP PUSH3 0x53B JUMP JUMPDEST DUP3 DUP1 SLOAD PUSH3 0x262 SWAP1 PUSH3 0x4FE JUMP JUMPDEST SWAP1 PUSH1 0x0 MSTORE PUSH1 0x20 PUSH1 0x0 KECCAK256 SWAP1 PUSH1 0x1F ADD PUSH1 0x20 SWAP1 DIV DUP2 ADD SWAP3 DUP3 PUSH3 0x286 JUMPI PUSH1 0x0 DUP6 SSTORE PUSH3 0x2D1 JUMP JUMPDEST DUP3 PUSH1 0x1F LT PUSH3 0x2A1 JUMPI DUP1 MLOAD PUSH1 0xFF NOT AND DUP4 DUP1 ADD OR DUP6 SSTORE PUSH3 0x2D1 JUMP JUMPDEST DUP3 DUP1 ADD PUSH1 0x1 ADD DUP6 SSTORE DUP3 ISZERO PUSH3 0x2D1 JUMPI SWAP2 DUP3 ADD JUMPDEST DUP3 DUP2 GT ISZERO PUSH3 0x2D1 JUMPI DUP3 MLOAD DUP3 SSTORE SWAP2 PUSH1 0x20 ADD SWAP2 SWAP1 PUSH1 0x1 ADD SWAP1 PUSH3 0x2B4 JUMP JUMPDEST POP PUSH3 0x2DF SWAP3 SWAP2 POP PUSH3 0x2E3 JUMP JUMPDEST POP SWAP1 JUMP JUMPDEST JUMPDEST DUP1 DUP3 GT ISZERO PUSH3 0x2DF JUMPI PUSH1 0x0 DUP2 SSTORE PUSH1 0x1 ADD PUSH3 0x2E4 JUMP JUMPDEST DUP1 MLOAD PUSH1 0x1 PUSH1 0x1 PUSH1 0xA0 SHL SUB DUP2 AND DUP2 EQ PUSH3 0x312 JUMPI PUSH1 0x0 DUP1 REVERT JUMPDEST SWAP2 SWAP1 POP JUMP JUMPDEST PUSH4 0x4E487B71 PUSH1 0xE0 SHL PUSH1 0x0 MSTORE PUSH1 0x41 PUSH1 0x4 MSTORE PUSH1 0x24 PUSH1 0x0 REVERT JUMPDEST PUSH1 0x0 DUP3 PUSH1 0x1F DUP4 ADD SLT PUSH3 0x33F JUMPI PUSH1 0x0 DUP1 REVERT JUMPDEST DUP2 MLOAD PUSH1 0x1 PUSH1 0x1 PUSH1 0x40 SHL SUB DUP1 DUP3 GT ISZERO PUSH3 0x35C JUMPI PUSH3 0x35C PUSH3 0x317 JUMP JUMPDEST PUSH1 0x40 MLOAD PUSH1 0x1F DUP4 ADD PUSH1 0x1F NOT SWAP1 DUP2 AND PUSH1 0x3F ADD AND DUP2 ADD SWAP1 DUP3 DUP3 GT DUP2 DUP4 LT OR ISZERO PUSH3 0x387 JUMPI PUSH3 0x387 PUSH3 0x317 JUMP JUMPDEST DUP2 PUSH1 0x40 MSTORE DUP4 DUP2 MSTORE PUSH1 0x20 SWAP3 POP DUP7 DUP4 DUP6 DUP9 ADD ADD GT ISZERO PUSH3 0x3A4 JUMPI PUSH1 0x0 DUP1 REVERT JUMPDEST PUSH1 0x0 SWAP2 POP JUMPDEST DUP4 DUP3 LT ISZERO PUSH3 0x3C8 JUMPI DUP6 DUP3 ADD DUP4 ADD MLOAD DUP2 DUP4 ADD DUP5 ADD MSTORE SWAP1 DUP3 ADD SWAP1 PUSH3 0x3A9 JUMP JUMPDEST DUP4 DUP3 GT ISZERO PUSH3 0x3DA JUMPI PUSH1 0x0 DUP4 DUP6 DUP4 ADD ADD MSTORE JUMPDEST SWAP7 SWAP6 POP POP POP POP POP POP JUMP JUMPDEST PUSH1 0x0 DUP1 PUSH1 0x0 DUP1 PUSH1 0x0 DUP1 PUSH1 0x0 PUSH1 0xE0 DUP9 DUP11 SUB SLT ISZERO PUSH3 0x400 JUMPI PUSH1 0x0 DUP1 REVERT JUMPDEST PUSH3 0x40B DUP9 PUSH3 0x2FA JUMP JUMPDEST SWAP7 POP PUSH3 0x41B PUSH1 0x20 DUP10 ADD PUSH3 0x2FA JUMP JUMPDEST PUSH1 0x40 DUP10 ADD MLOAD PUSH1 0x60 DUP11 ADD MLOAD PUSH1 0x80 DUP12 ADD MLOAD PUSH1 0xA0 DUP13 ADD MLOAD SWAP4 SWAP10 POP SWAP2 SWAP8 POP SWAP6 POP SWAP4 POP PUSH1 0x1 PUSH1 0x1 PUSH1 0x40 SHL SUB DUP1 DUP3 GT ISZERO PUSH3 0x44F JUMPI PUSH1 0x0 DUP1 REVERT JUMPDEST PUSH3 0x45D DUP12 DUP4 DUP13 ADD PUSH3 0x32D JUMP JUMPDEST SWAP4 POP PUSH1 0xC0 DUP11 ADD MLOAD SWAP2 POP DUP1 DUP3 GT ISZERO PUSH3 0x474 JUMPI PUSH1 0x0 DUP1 REVERT JUMPDEST POP PUSH3 0x483 DUP11 DUP3 DUP12 ADD PUSH3 0x32D JUMP JUMPDEST SWAP2 POP POP SWAP3 SWAP6 SWAP9 SWAP2 SWAP5 SWAP8 POP SWAP3 SWAP6 POP JUMP JUMPDEST PUSH1 0x0 PUSH1 0x20 DUP3 DUP5 SUB SLT ISZERO PUSH3 0x4A5 JUMPI PUSH1 0x0 DUP1 REVERT JUMPDEST DUP2 MLOAD PUSH1 0x1 PUSH1 0x1 PUSH1 0x40 SHL SUB DUP2 GT ISZERO PUSH3 0x4BC JUMPI PUSH1 0x0 DUP1 REVERT JUMPDEST PUSH3 0x4CA DUP5 DUP3 DUP6 ADD PUSH3 0x32D JUMP JUMPDEST SWAP5 SWAP4 POP POP POP POP JUMP JUMPDEST PUSH1 0x0 PUSH1 0x20 DUP3 DUP5 SUB SLT ISZERO PUSH3 0x4E5 JUMPI PUSH1 0x0 DUP1 REVERT JUMPDEST DUP2 MLOAD PUSH1 0xFF DUP2 AND DUP2 EQ PUSH3 0x4F7 JUMPI PUSH1 0x0 DUP1 REVERT JUMPDEST SWAP4 SWAP3 POP POP POP JUMP JUMPDEST PUSH1 0x1 DUP2 DUP2 SHR SWAP1 DUP3 AND DUP1 PUSH3 0x513 JUMPI PUSH1 0x7F DUP3 AND SWAP2 POP JUMPDEST PUSH1 0x20 DUP3 LT DUP2 EQ ISZERO PUSH3 0x535 JUMPI PUSH4 0x4E487B71 PUSH1 0xE0 SHL PUSH1 0x0 MSTORE PUSH1 0x22 PUSH1 0x4 MSTORE PUSH1 0x24 PUSH1 0x0 REVERT JUMPDEST POP SWAP2 SWAP1 POP JUMP JUMPDEST PUSH2 0x4FC DUP1 PUSH3 0x54B PUSH1 0x0 CODECOPY PUSH1 0x0 RETURN INVALID PUSH1 0x80 PUSH1 0x40 MSTORE CALLVALUE DUP1 ISZERO PUSH2 0x10 JUMPI PUSH1 0x0 DUP1 REVERT JUMPDEST POP PUSH1 0x4 CALLDATASIZE LT PUSH2 0xEA JUMPI PUSH1 0x0 CALLDATALOAD PUSH1 0xE0 SHR DUP1 PUSH4 0x9C6F0D85 GT PUSH2 0x8C JUMPI DUP1 PUSH4 0xBB5D40EB GT PUSH2 0x66 JUMPI DUP1 PUSH4 0xBB5D40EB EQ PUSH2 0x1BD JUMPI DUP1 PUSH4 0xC45A0155 EQ PUSH2 0x1C5 JUMPI DUP1 PUSH4 0xE21F37CE EQ PUSH2 0x1D8 JUMPI DUP1 PUSH4 0xFC0C546A EQ PUSH2 0x1E0 JUMPI PUSH1 0x0 DUP1 REVERT JUMPDEST DUP1 PUSH4 0x9C6F0D85 EQ PUSH2 0x1A3 JUMPI DUP1 PUSH4 0xAA8C217C EQ PUSH2 0x1AC JUMPI DUP1 PUSH4 0xB39CB699 EQ PUSH2 0x1B5 JUMPI PUSH1 0x0 DUP1 REVERT JUMPDEST DUP1 PUSH4 0x313CE567 GT PUSH2 0xC8 JUMPI DUP1 PUSH4 0x313CE567 EQ PUSH2 0x14D JUMPI DUP1 PUSH4 0x57C9CA14 EQ PUSH2 0x16C JUMPI DUP1 PUSH4 0x7EB9385F EQ PUSH2 0x184 JUMPI DUP1 PUSH4 0x95D89B41 EQ PUSH2 0x19B JUMPI PUSH1 0x0 DUP1 REVERT JUMPDEST DUP1 PUSH4 0x6FDDE03 EQ PUSH2 0xEF JUMPI DUP1 PUSH4 0x7546172 EQ PUSH2 0x10D JUMPI DUP1 PUSH4 0x1E83409A EQ PUSH2 0x138 JUMPI JUMPDEST PUSH1 0x0 DUP1 REVERT JUMPDEST PUSH2 0xF7 PUSH2 0x1F3 JUMP JUMPDEST PUSH1 0x40 MLOAD PUSH2 0x104 SWAP2 SWAP1 PUSH2 0x3BE JUMP JUMPDEST PUSH1 0x40 MLOAD DUP1 SWAP2 SUB SWAP1 RETURN JUMPDEST PUSH1 0x2 SLOAD PUSH2 0x120 SWAP1 PUSH1 0x1 PUSH1 0x1 PUSH1 0xA0 SHL SUB AND DUP2 JUMP JUMPDEST PUSH1 0x40 MLOAD PUSH1 0x1 PUSH1 0x1 PUSH1 0xA0 SHL SUB SWAP1 SWAP2 AND DUP2 MSTORE PUSH1 0x20 ADD PUSH2 0x104 JUMP JUMPDEST PUSH2 0x14B PUSH2 0x146 CALLDATASIZE PUSH1 0x4 PUSH2 0x413 JUMP JUMPDEST PUSH2 0x281 JUMP JUMPDEST STOP JUMPDEST PUSH1 0x6 SLOAD PUSH2 0x15A SWAP1 PUSH1 0xFF AND DUP2 JUMP JUMPDEST PUSH1 0x40 MLOAD PUSH1 0xFF SWAP1 SWAP2 AND DUP2 MSTORE PUSH1 0x20 ADD PUSH2 0x104 JUMP JUMPDEST PUSH2 0x174 PUSH2 0x301 JUMP JUMPDEST PUSH1 0x40 MLOAD SWAP1 ISZERO ISZERO DUP2 MSTORE PUSH1 0x20 ADD PUSH2 0x104 JUMP JUMPDEST PUSH2 0x18D PUSH1 0xA SLOAD DUP2 JUMP JUMPDEST PUSH1 0x40 MLOAD SWAP1 DUP2 MSTORE PUSH1 0x20 ADD PUSH2 0x104 JUMP JUMPDEST PUSH2 0xF7 PUSH2 0x373 JUMP JUMPDEST PUSH2 0x18D PUSH1 0x9 SLOAD DUP2 JUMP JUMPDEST PUSH2 0x18D PUSH1 0x3 SLOAD DUP2 JUMP JUMPDEST PUSH2 0xF7 PUSH2 0x380 JUMP JUMPDEST PUSH2 0x174 PUSH2 0x38D JUMP JUMPDEST PUSH1 0x0 SLOAD PUSH2 0x120 SWAP1 PUSH1 0x1 PUSH1 0x1 PUSH1 0xA0 SHL SUB AND DUP2 JUMP JUMPDEST PUSH2 0xF7 PUSH2 0x3B1 JUMP JUMPDEST PUSH1 0x1 SLOAD PUSH2 0x120 SWAP1 PUSH1 0x1 PUSH1 0x1 PUSH1 0xA0 SHL SUB AND DUP2 JUMP JUMPDEST PUSH1 0x4 DUP1 SLOAD PUSH2 0x200 SWAP1 PUSH2 0x443 JUMP JUMPDEST DUP1 PUSH1 0x1F ADD PUSH1 0x20 DUP1 SWAP2 DIV MUL PUSH1 0x20 ADD PUSH1 0x40 MLOAD SWAP1 DUP2 ADD PUSH1 0x40 MSTORE DUP1 SWAP3 SWAP2 SWAP1 DUP2 DUP2 MSTORE PUSH1 0x20 ADD DUP3 DUP1 SLOAD PUSH2 0x22C SWAP1 PUSH2 0x443 JUMP JUMPDEST DUP1 ISZERO PUSH2 0x279 JUMPI DUP1 PUSH1 0x1F LT PUSH2 0x24E JUMPI PUSH2 0x100 DUP1 DUP4 SLOAD DIV MUL DUP4 MSTORE SWAP2 PUSH1 0x20 ADD SWAP2 PUSH2 0x279 JUMP JUMPDEST DUP3 ADD SWAP2 SWAP1 PUSH1 0x0 MSTORE PUSH1 0x20 PUSH1 0x0 KECCAK256 SWAP1 JUMPDEST DUP2 SLOAD DUP2 MSTORE SWAP1 PUSH1 0x1 ADD SWAP1 PUSH1 0x20 ADD DUP1 DUP4 GT PUSH2 0x25C JUMPI DUP3 SWAP1 SUB PUSH1 0x1F AND DUP3 ADD SWAP2 JUMPDEST POP POP POP POP POP DUP2 JUMP JUMPDEST PUSH1 0x0 SLOAD PUSH1 0x1 PUSH1 0x1 PUSH1 0xA0 SHL SUB SWAP1 DUP2 AND SWAP1 PUSH4 0x1E83409A SWAP1 DUP4 AND ISZERO PUSH2 0x2A3 JUMPI DUP3 PUSH2 0x2A5 JUMP JUMPDEST CALLER JUMPDEST PUSH1 0x40 MLOAD PUSH1 0x1 PUSH1 0x1 PUSH1 0xE0 SHL SUB NOT PUSH1 0xE0 DUP5 SWAP1 SHL AND DUP2 MSTORE PUSH1 0x1 PUSH1 0x1 PUSH1 0xA0 SHL SUB SWAP1 SWAP2 AND PUSH1 0x4 DUP3 ADD MSTORE PUSH1 0x24 ADD PUSH1 0x0 PUSH1 0x40 MLOAD DUP1 DUP4 SUB DUP2 PUSH1 0x0 DUP8 DUP1 EXTCODESIZE ISZERO DUP1 ISZERO PUSH2 0x2E6 JUMPI PUSH1 0x0 DUP1 REVERT JUMPDEST POP GAS CALL ISZERO DUP1 ISZERO PUSH2 0x2FA JUMPI RETURNDATASIZE PUSH1 0x0 DUP1 RETURNDATACOPY RETURNDATASIZE PUSH1 0x0 REVERT JUMPDEST POP POP POP POP POP JUMP JUMPDEST PUSH1 0x0 DUP1 SLOAD PUSH1 0x40 MLOAD PUSH4 0x2A4E4553 PUSH1 0xE0 SHL DUP2 MSTORE ADDRESS PUSH1 0x4 DUP3 ADD MSTORE PUSH1 0x1 PUSH1 0x1 PUSH1 0xA0 SHL SUB SWAP1 SWAP2 AND SWAP1 PUSH4 0x2A4E4553 SWAP1 PUSH1 0x24 ADD PUSH1 0x20 PUSH1 0x40 MLOAD DUP1 DUP4 SUB DUP2 DUP7 GAS STATICCALL ISZERO DUP1 ISZERO PUSH2 0x34A JUMPI RETURNDATASIZE PUSH1 0x0 DUP1 RETURNDATACOPY RETURNDATASIZE PUSH1 0x0 REVERT JUMPDEST POP POP POP POP PUSH1 0x40 MLOAD RETURNDATASIZE PUSH1 0x1F NOT PUSH1 0x1F DUP3 ADD AND DUP3 ADD DUP1 PUSH1 0x40 MSTORE POP DUP2 ADD SWAP1 PUSH2 0x36E SWAP2 SWAP1 PUSH2 0x47E JUMP JUMPDEST SWAP1 POP SWAP1 JUMP JUMPDEST PUSH1 0x5 DUP1 SLOAD PUSH2 0x200 SWAP1 PUSH2 0x443 JUMP JUMPDEST PUSH1 0x7 DUP1 SLOAD PUSH2 0x200 SWAP1 PUSH2 0x443 JUMP JUMPDEST PUSH1 0x0 TIMESTAMP PUSH1 0xA SLOAD PUSH1 0x9 SLOAD PUSH2 0x3A0 SWAP2 SWAP1 PUSH2 0x4A0 JUMP JUMPDEST GT PUSH2 0x3AB JUMPI POP PUSH1 0x0 SWAP1 JUMP JUMPDEST POP PUSH1 0x1 SWAP1 JUMP JUMPDEST PUSH1 0x8 DUP1 SLOAD PUSH2 0x200 SWAP1 PUSH2 0x443 JUMP JUMPDEST PUSH1 0x0 PUSH1 0x20 DUP1 DUP4 MSTORE DUP4 MLOAD DUP1 DUP3 DUP6 ADD MSTORE PUSH1 0x0 JUMPDEST DUP2 DUP2 LT ISZERO PUSH2 0x3EB JUMPI DUP6 DUP2 ADD DUP4 ADD MLOAD DUP6 DUP3 ADD PUSH1 0x40 ADD MSTORE DUP3 ADD PUSH2 0x3CF JUMP JUMPDEST DUP2 DUP2 GT ISZERO PUSH2 0x3FD JUMPI PUSH1 0x0 PUSH1 0x40 DUP4 DUP8 ADD ADD MSTORE JUMPDEST POP PUSH1 0x1F ADD PUSH1 0x1F NOT AND SWAP3 SWAP1 SWAP3 ADD PUSH1 0x40 ADD SWAP4 SWAP3 POP POP POP JUMP JUMPDEST PUSH1 0x0 PUSH1 0x20 DUP3 DUP5 SUB SLT ISZERO PUSH2 0x425 JUMPI PUSH1 0x0 DUP1 REVERT JUMPDEST DUP2 CALLDATALOAD PUSH1 0x1 PUSH1 0x1 PUSH1 0xA0 SHL SUB DUP2 AND DUP2 EQ PUSH2 0x43C JUMPI PUSH1 0x0 DUP1 REVERT JUMPDEST SWAP4 SWAP3 POP POP POP JUMP JUMPDEST PUSH1 0x1 DUP2 DUP2 SHR SWAP1 DUP3 AND DUP1 PUSH2 0x457 JUMPI PUSH1 0x7F DUP3 AND SWAP2 POP JUMPDEST PUSH1 0x20 DUP3 LT DUP2 EQ ISZERO PUSH2 0x478 JUMPI PUSH4 0x4E487B71 PUSH1 0xE0 SHL PUSH1 0x0 MSTORE PUSH1 0x22 PUSH1 0x4 MSTORE PUSH1 0x24 PUSH1 0x0 REVERT JUMPDEST POP SWAP2 SWAP1 POP JUMP JUMPDEST PUSH1 0x0 PUSH1 0x20 DUP3 DUP5 SUB SLT ISZERO PUSH2 0x490 JUMPI PUSH1 0x0 DUP1 REVERT JUMPDEST DUP2 MLOAD DUP1 ISZERO ISZERO DUP2 EQ PUSH2 0x43C JUMPI PUSH1 0x0 DUP1 REVERT JUMPDEST PUSH1 0x0 DUP3 NOT DUP3 GT ISZERO PUSH2 0x4C1 JUMPI PUSH4 0x4E487B71 PUSH1 0xE0 SHL PUSH1 0x0 MSTORE PUSH1 0x11 PUSH1 0x4 MSTORE PUSH1 0x24 PUSH1 0x0 REVERT JUMPDEST POP ADD SWAP1 JUMP INVALID LOG2 PUSH5 0x6970667358 0x22 SLT KECCAK256 0x4C PUSH1 0x2A 0xE4 0xD2 CALL 0xBA INVALID 0x1F SWAP13 0x1E RETURNDATACOPY EQ ADD 0x4F RETURN 0x49 0xD0 CALLVALUE 0xD6 0xB0 0xDB CALLDATASIZE SWAP10 ISZERO 0xD6 AND 0xA6 0xD2 0x4F 0x1F 0xD4 PUSH5 0x736F6C6343 STOP ADDMOD 0xC STOP CALLER "
		},
		"gasEstimates": {
			"creation": {
				"codeDepositCost": "255200",
				"executionCost": "infinite",
				"totalCost": "infinite"
			},
			"external": {
				"amount()": "2340",
				"claim(address)": "infinite",
				"created_at()": "2318",
				"decimals()": "2336",
				"factory()": "2381",
				"isClaimed()": "infinite",
				"isValid()": "4535",
				"message()": "infinite",
				"minter()": "2383",
				"minterName()": "infinite",
				"name()": "infinite",
				"symbol()": "infinite",
				"timelife()": "2362",
				"token()": "2425"
			}
		},
		"methodIdentifiers": {
			"amount()": "aa8c217c",
			"claim(address)": "1e83409a",
			"created_at()": "9c6f0d85",
			"decimals()": "313ce567",
			"factory()": "c45a0155",
			"isClaimed()": "57c9ca14",
			"isValid()": "bb5d40eb",
			"message()": "e21f37ce",
			"minter()": "07546172",
			"minterName()": "b39cb699",
			"name()": "06fdde03",
			"symbol()": "95d89b41",
			"timelife()": "7eb9385f",
			"token()": "fc0c546a"
		}
	},
	"abi": [
		{
			"inputs": [
				{
					"internalType": "address",
					"name": "_tokenAddress",
					"type": "address"
				},
				{
					"internalType": "address",
					"name": "_minter",
					"type": "address"
				},
				{
					"internalType": "uint256",
					"name": "_amount",
					"type": "uint256"
				},
				{
					"internalType": "uint256",
					"name": "_created_at",
					"type": "uint256"
				},
				{
					"internalType": "uint256",
					"name": "_timelife",
					"type": "uint256"
				},
				{
					"internalType": "string",
					"name": "_minterName",
					"type": "string"
				},
				{
					"internalType": "string",
					"name": "_message",
					"type": "string"
				}
			],
			"stateMutability": "nonpayable",
			"type": "constructor"
		},
		{
			"inputs": [],
			"name": "amount",
			"outputs": [
				{
					"internalType": "uint256",
					"name": "",
					"type": "uint256"
				}
			],
			"stateMutability": "view",
			"type": "function"
		},
		{
			"inputs": [
				{
					"internalType": "address",
					"name": "claimer",
					"type": "address"
				}
			],
			"name": "claim",
			"outputs": [],
			"stateMutability": "nonpayable",
			"type": "function"
		},
		{
			"inputs": [],
			"name": "created_at",
			"outputs": [
				{
					"internalType": "uint256",
					"name": "",
					"type": "uint256"
				}
			],
			"stateMutability": "view",
			"type": "function"
		},
		{
			"inputs": [],
			"name": "decimals",
			"outputs": [
				{
					"internalType": "uint8",
					"name": "",
					"type": "uint8"
				}
			],
			"stateMutability": "view",
			"type": "function"
		},
		{
			"inputs": [],
			"name": "factory",
			"outputs": [
				{
					"internalType": "contract QRCodeFactory",
					"name": "",
					"type": "address"
				}
			],
			"stateMutability": "view",
			"type": "function"
		},
		{
			"inputs": [],
			"name": "isClaimed",
			"outputs": [
				{
					"internalType": "bool",
					"name": "",
					"type": "bool"
				}
			],
			"stateMutability": "view",
			"type": "function"
		},
		{
			"inputs": [],
			"name": "isValid",
			"outputs": [
				{
					"internalType": "bool",
					"name": "",
					"type": "bool"
				}
			],
			"stateMutability": "view",
			"type": "function"
		},
		{
			"inputs": [],
			"name": "message",
			"outputs": [
				{
					"internalType": "string",
					"name": "",
					"type": "string"
				}
			],
			"stateMutability": "view",
			"type": "function"
		},
		{
			"inputs": [],
			"name": "minter",
			"outputs": [
				{
					"internalType": "address",
					"name": "",
					"type": "address"
				}
			],
			"stateMutability": "view",
			"type": "function"
		},
		{
			"inputs": [],
			"name": "minterName",
			"outputs": [
				{
					"internalType": "string",
					"name": "",
					"type": "string"
				}
			],
			"stateMutability": "view",
			"type": "function"
		},
		{
			"inputs": [],
			"name": "name",
			"outputs": [
				{
					"internalType": "string",
					"name": "",
					"type": "string"
				}
			],
			"stateMutability": "view",
			"type": "function"
		},
		{
			"inputs": [],
			"name": "symbol",
			"outputs": [
				{
					"internalType": "string",
					"name": "",
					"type": "string"
				}
			],
			"stateMutability": "view",
			"type": "function"
		},
		{
			"inputs": [],
			"name": "timelife",
			"outputs": [
				{
					"internalType": "uint256",
					"name": "",
					"type": "uint256"
				}
			],
			"stateMutability": "view",
			"type": "function"
		},
		{
			"inputs": [],
			"name": "token",
			"outputs": [
				{
					"internalType": "contract IERC20",
					"name": "",
					"type": "address"
				}
			],
			"stateMutability": "view",
			"type": "function"
		}
	]
}