{
	"data": {
		"bytecode": {
			"linkReferences": {
				"AddressSet.sol": {
					"AddressSet": [
						{
							"length": 20,
							"start": 160
						},
						{
							"length": 20,
							"start": 265
						},
						{
							"length": 20,
							"start": 3557
						},
						{
							"length": 20,
							"start": 3748
						},
						{
							"length": 20,
							"start": 3961
						},
						{
							"length": 20,
							"start": 4100
						},
						{
							"length": 20,
							"start": 4275
						},
						{
							"length": 20,
							"start": 4412
						},
						{
							"length": 20,
							"start": 5197
						},
						{
							"length": 20,
							"start": 5903
						},
						{
							"length": 20,
							"start": 6017
						},
						{
							"length": 20,
							"start": 6170
						},
						{
							"length": 20,
							"start": 6404
						},
						{
							"length": 20,
							"start": 6568
						},
						{
							"length": 20,
							"start": 6734
						},
						{
							"length": 20,
							"start": 6947
						},
						{
							"length": 20,
							"start": 7086
						},
						{
							"length": 20,
							"start": 8433
						},
						{
							"length": 20,
							"start": 8625
						},
						{
							"length": 20,
							"start": 8817
						},
						{
							"length": 20,
							"start": 8988
						},
						{
							"length": 20,
							"start": 9048
						},
						{
							"length": 20,
							"start": 9132
						},
						{
							"length": 20,
							"start": 10279
						},
						{
							"length": 20,
							"start": 10623
						},
						{
							"length": 20,
							"start": 10934
						},
						{
							"length": 20,
							"start": 10987
						},
						{
							"length": 20,
							"start": 12853
						},
						{
							"length": 20,
							"start": 13070
						}
					]
				}
			},
			"object": "6080604052610708600255662386f26fc1000060035560006006556000600755600060085560006009556000600a556000600b55655af3107a4000601a553480156200004a57600080fd5b5060405162004cb538038062004cb58339810160408190526200006d9162000182565b600080546001600160a01b03191633908117909155604051639f75f0a360e01b8152601c6004820152602481019190915273__$1c537defa8d8abb880144579cecc12eeda$__90639f75f0a39060440160006040518083038186803b158015620000d657600080fd5b505af4158015620000eb573d6000803e3d6000fd5b5050604051639f75f0a360e01b8152600c600482015233602482015273__$1c537defa8d8abb880144579cecc12eeda$__9250639f75f0a3915060440160006040518083038186803b1580156200014157600080fd5b505af415801562000156573d6000803e3d6000fd5b5050600180546001600160a01b0319166001600160a01b03949094169390931790925550620001b49050565b6000602082840312156200019557600080fd5b81516001600160a01b0381168114620001ad57600080fd5b9392505050565b614af180620001c46000396000f3fe608060405260043610620003b75760003560e01c806381d2fd9c11620001eb578063ad4ad7ca116200010b578063ece7643511620000a1578063f1850af81162000078578063f1850af81462000b8f578063f1f959a61462000ba7578063f2fde38b1462000bbc578063fbbf8cc31462000be157600080fd5b8063ece764351462000b1e578063f09b22031462000b43578063f1294ef61462000b7757600080fd5b8063d3a51ff211620000e2578063d3a51ff21462000a77578063d846ceae1462000a9c578063dccb445b1462000ac8578063e43e55411462000af957600080fd5b8063ad4ad7ca14620009f0578063b862251f1462000a21578063c6e64e531462000a5257600080fd5b806398adcc9711620001815780639db1ff1611620001585780639db1ff161462000976578063a01bad52146200098e578063a50ffda514620009b3578063a8d088bb14620009d857600080fd5b806398adcc9714620009175780639c281430146200093c5780639d76ea58146200095457600080fd5b8063878d7d8711620001c2578063878d7d871462000878578063892ff8bd14620008ac5780638da5cb5b14620008c45780639661cb0d14620008ff57600080fd5b806381d2fd9c146200081457806382b2e2571462000839578063862b092b146200085157600080fd5b8063424f3c8e11620002d757806366059a16116200026d5780636ca8002611620002445780636ca8002614620007675780636f7ab8d114620007a35780636f865e6f14620007d757806381b5479d14620007ef57600080fd5b806366059a1614620006f657806366eb399f146200071b5780636b32810b146200074057600080fd5b80634f51327711620002ae5780634f513277146200066d578063563d3ca314620006a1578063572d472114620006b957806359d1bd8014620006d157600080fd5b8063424f3c8e14620005fc578063440d712b146200062157806344e2ad99146200064857600080fd5b8063206855d0116200034d5780632a4e455311620003245780632a4e455314620005505780632e42add71462000575578063384e491d14620005a65780633e70703e14620005cb57600080fd5b8063206855d014620004ee57806324f65ee7146200051357806326767f90146200052b57600080fd5b80631654d42c116200038e5780631654d42c146200045657806317fc30d4146200046e578063198e14f814620004a45780631e83409a14620004c957600080fd5b806304e8690314620003c457806304f32a1d1462000408578063143f338c146200042f57600080fd5b36620003bf57005b600080fd5b348015620003d157600080fd5b50620003f5620003e3366004620035e6565b60166020526000908152604090205481565b6040519081526020015b60405180910390f35b3480156200041557600080fd5b506200042d6200042736600462003606565b62000c12565b005b3480156200043c57600080fd5b506200044762000cc4565b604051620003ff919062003737565b3480156200046357600080fd5b50620003f560075481565b3480156200047b57600080fd5b50620004936200048d366004620035e6565b62000edd565b6040519015158152602001620003ff565b348015620004b157600080fd5b5062000493620004c3366004620035e6565b62000f66565b348015620004d657600080fd5b506200042d620004e8366004620035e6565b62000fa5565b348015620004fb57600080fd5b50620003f56200050d3660046200379d565b6200145d565b3480156200052057600080fd5b50620003f56200148f565b3480156200053857600080fd5b506200042d6200054a366004620037db565b62001508565b3480156200055d57600080fd5b50620004936200056f366004620035e6565b620015ea565b3480156200058257600080fd5b50620003f562000594366004620035e6565b60196020526000908152604090205481565b348015620005b357600080fd5b506200042d620005c53660046200379d565b62001647565b348015620005d857600080fd5b50620003f5620005ea366004620035e6565b60126020526000908152604090205481565b3480156200060957600080fd5b506200042d6200061b366004620038ea565b62001731565b3480156200062e57600080fd5b50620006396200186e565b604051620003ff919062003993565b3480156200065557600080fd5b50620003f5620006673660046200379d565b62001a81565b3480156200067a57600080fd5b50620006926200068c366004620039ec565b62001a9e565b604051620003ff919062003ac3565b348015620006ae57600080fd5b50620003f560025481565b348015620006c657600080fd5b506200069262001d53565b348015620006de57600080fd5b506200042d620006f03660046200379d565b62001f1e565b3480156200070357600080fd5b506200042d620007153660046200379d565b62001fde565b3480156200072857600080fd5b506200042d6200073a366004620037db565b6200209e565b3480156200074d57600080fd5b5062000758620021c1565b604051620003ff919062003b1c565b3480156200077457600080fd5b506200078c6200078636600462003606565b62002253565b604051620003ff9998979695949392919062003b6b565b348015620007b057600080fd5b50620007c8620007c236600462003606565b62002340565b604051620003ff919062003bd0565b348015620007e457600080fd5b50620003f560095481565b348015620007fc57600080fd5b50620007c86200080e366004620035e6565b62002469565b3480156200082157600080fd5b506200042d6200083336600462003606565b62002533565b3480156200084657600080fd5b50620003f562002565565b3480156200085e57600080fd5b5062000869620025d5565b604051620003ff919062003be5565b3480156200088557600080fd5b506200089d62000897366004620035e6565b6200264a565b604051620003ff919062003bfa565b348015620008b957600080fd5b50620003f5601a5481565b348015620008d157600080fd5b50600054620008e6906001600160a01b031681565b6040516001600160a01b039091168152602001620003ff565b3480156200090c57600080fd5b50620003f5600a5481565b3480156200092457600080fd5b50620007586200093636600462003c0f565b62002794565b3480156200094957600080fd5b50620003f560035481565b3480156200096157600080fd5b50600154620008e6906001600160a01b031681565b3480156200098357600080fd5b50620003f560085481565b3480156200099b57600080fd5b506200042d620009ad36600462003606565b62002827565b348015620009c057600080fd5b50620003f5620009d2366004620035e6565b62002859565b348015620009e557600080fd5b5062000758620028cb565b348015620009fd57600080fd5b50620003f562000a0f366004620035e6565b60186020526000908152604090205481565b34801562000a2e57600080fd5b50620003f562000a40366004620035e6565b60116020526000908152604090205481565b34801562000a5f57600080fd5b50620008e662000a7136600462003c32565b62002915565b34801562000a8457600080fd5b506200086962000a96366004620035e6565b62002d16565b34801562000aa957600080fd5b50620003f562000abb366004620035e6565b6001600160a01b03163190565b34801562000ad557600080fd5b50620003f562000ae7366004620035e6565b60056020526000908152604090205481565b34801562000b0657600080fd5b506200069262000b18366004620039ec565b62002db8565b34801562000b2b57600080fd5b506200042d62000b3d366004620038ea565b62003062565b34801562000b5057600080fd5b5062000b6862000b62366004620035e6565b62003131565b604051620003ff919062003c86565b34801562000b8457600080fd5b50620003f5600b5481565b34801562000b9c57600080fd5b506200086962003342565b34801562000bb457600080fd5b5047620003f5565b34801562000bc957600080fd5b506200042d62000bdb366004620035e6565b6200338d565b34801562000bee57600080fd5b50620003f562000c00366004620035e6565b600f6020526000908152604090205481565b6040516317e26bc960e11b815273__$1c537defa8d8abb880144579cecc12eeda$__90632fc4d7929062000c4e90601c90339060040162003c9b565b602060405180830381865af415801562000c6c573d6000803e3d6000fd5b505050506040513d601f19601f8201168201806040525081019062000c92919062003cb2565b151560011462000cbf5760405162461bcd60e51b815260040162000cb69062003cd2565b60405180910390fd5b601a55565b604051630c3d3c7560e41b8152600c600482015260609060009073__$1c537defa8d8abb880144579cecc12eeda$__9063c3d3c75090602401602060405180830381865af415801562000d1b573d6000803e3d6000fd5b505050506040513d601f19601f8201168201806040525081019062000d41919062003cfd565b67ffffffffffffffff81111562000d5c5762000d5c62003819565b60405190808252806020026020018201604052801562000d9957816020015b62000d8562003434565b81526020019060019003908162000d7b5790505b50905060005b604051630c3d3c7560e41b8152600c600482015273__$1c537defa8d8abb880144579cecc12eeda$__9063c3d3c75090602401602060405180830381865af415801562000df0573d6000803e3d6000fd5b505050506040513d601f19601f8201168201806040525081019062000e16919062003cfd565b81101562000ed757604051630182c6db60e31b8152600c60048201526024810182905262000ea19073__$1c537defa8d8abb880144579cecc12eeda$__90630c1636d890604401602060405180830381865af415801562000e7b573d6000803e3d6000fd5b505050506040513d601f19601f8201168201806040525081019062000b62919062003d17565b82828151811062000eb65762000eb662003d37565b6020026020010181905250808062000ece9062003d63565b91505062000d9f565b50919050565b6040516317e26bc960e11b815260009073__$1c537defa8d8abb880144579cecc12eeda$__90632fc4d7929062000f1c90600c90869060040162003c9b565b602060405180830381865af415801562000f3a573d6000803e3d6000fd5b505050506040513d601f19601f8201168201806040525081019062000f60919062003cb2565b92915050565b6040516317e26bc960e11b815260009073__$1c537defa8d8abb880144579cecc12eeda$__90632fc4d7929062000f1c90601c90869060040162003c9b565b3360009081526005602052604090205462000ffa5760405162461bcd60e51b815260206004820152601460248201527321b0b636103737ba10333937b6903937baba32b960611b604482015260640162000cb6565b3360009081526005602090815260408083205480845260049283905292200154620010685760405162461bcd60e51b815260206004820152601860248201527f5468697320636f6465206e6f74206d696e746564207965740000000000000000604482015260640162000cb6565b60008181526004602052604090206005015415620010c95760405162461bcd60e51b815260206004820152601960248201527f5468697320636f646520616c726561647920636c61696d656400000000000000604482015260640162000cb6565b600081815260046020819052604090912060068101549101544291620010ef9162003d81565b11620011325760405162461bcd60e51b8152602060048201526011602482015270145c90dbd919481a5cc8195e1c1a5c9959607a1b604482015260640162000cb6565b6000818152600460209081526040808320600101546001600160a01b0386168452601690925282208054919290916200116d90849062003d81565b90915550506001600160a01b038216600081815260176020908152604080832080546001810182559084528284200185905592825260189052908120805491620011b78362003d63565b909155505060088054906000620011ce8362003d63565b9091555050600081815260046020908152604080832060018101546002909101546001600160a01b03168452601290925282208054919290916200121490849062003d81565b9091555050600081815260046020526040812060010154600a8054919290916200124090849062003d81565b90915550506000818152600460208190526040918290206003810180546001600160a01b0319166001600160a01b038716179055436005909101559051639f75f0a360e01b815273__$1c537defa8d8abb880144579cecc12eeda$__91639f75f0a391620012b49160149187910162003c9b565b60006040518083038186803b158015620012cd57600080fd5b505af4158015620012e2573d6000803e3d6000fd5b50506001805460008581526004602081905260409182902090930154905163a9059cbb60e01b81526001600160a01b03909216945063a9059cbb93506200133f928792016001600160a01b03929092168252602082015260400190565b6020604051808303816000875af11580156200135f573d6000803e3d6000fd5b505050506040513d601f19601f8201168201806040525081019062001385919062003cb2565b506003546001600160a01b038316319081101562001458576000836001600160a01b031631600354620013b9919062003d9c565b905080600b6000828254620013cf919062003d81565b90915550506001600160a01b03841660009081526019602052604081208054839290620013fe90849062003d81565b90915550506040516001600160a01b038516908290600081818185875af1925050503d80600081146200144e576040519150601f19603f3d011682016040523d82523d6000602084013e62001453565b606091505b505050505b505050565b601060205281600052604060002081815481106200147a57600080fd5b90600052602060002001600091509150505481565b6001546040805163313ce56760e01b815290516000926001600160a01b03169163313ce5679160048083019260209291908290030181865afa158015620014da573d6000803e3d6000fd5b505050506040513d601f19601f8201168201806040525081019062001500919062003db6565b60ff16905090565b6000546001600160a01b03163314620015355760405162461bcd60e51b815260040162000cb69062003ddb565b8015620015ae57604051639f75f0a360e01b815273__$1c537defa8d8abb880144579cecc12eeda$__90639f75f0a3906200157890601c90869060040162003c9b565b60006040518083038186803b1580156200159157600080fd5b505af4158015620015a6573d6000803e3d6000fd5b505050505050565b60405163a8afef9560e01b815273__$1c537defa8d8abb880144579cecc12eeda$__9063a8afef95906200157890601c90869060040162003c9b565b6001600160a01b038116600090815260056020526040812054156200163f576001600160a01b038216600090815260056020818152604080842054845260049091529091200154156200163f57600162000f60565b600092915050565b6040516317e26bc960e11b815273__$1c537defa8d8abb880144579cecc12eeda$__90632fc4d792906200168390601c90339060040162003c9b565b602060405180830381865af4158015620016a1573d6000803e3d6000fd5b505050506040513d601f19601f82011682018060405250810190620016c7919062003cb2565b1515600114620016eb5760405162461bcd60e51b815260040162000cb69062003cd2565b6001600160a01b0382166000908152601360205260409020546200171190829062003d81565b6001600160a01b0390921660009081526013602052604090209190915550565b6040516317e26bc960e11b815273__$1c537defa8d8abb880144579cecc12eeda$__90632fc4d792906200176d90601c90339060040162003c9b565b602060405180830381865af41580156200178b573d6000803e3d6000fd5b505050506040513d601f19601f82011682018060405250810190620017b1919062003cb2565b1515600114620017d55760405162461bcd60e51b815260040162000cb69062003cd2565b604051639f75f0a360e01b815273__$1c537defa8d8abb880144579cecc12eeda$__90639f75f0a3906200181190600c90869060040162003c9b565b60006040518083038186803b1580156200182a57600080fd5b505af41580156200183f573d6000803e3d6000fd5b505050506001600160a01b0382166000908152600e60209081526040909120825162001458928401906200347a565b604051630c3d3c7560e41b81526014600482015260609060009073__$1c537defa8d8abb880144579cecc12eeda$__9063c3d3c75090602401602060405180830381865af4158015620018c5573d6000803e3d6000fd5b505050506040513d601f19601f82011682018060405250810190620018eb919062003cfd565b67ffffffffffffffff81111562001906576200190662003819565b6040519080825280602002602001820160405280156200194357816020015b6200192f62003509565b815260200190600190039081620019255790505b50905060005b604051630c3d3c7560e41b81526014600482015273__$1c537defa8d8abb880144579cecc12eeda$__9063c3d3c75090602401602060405180830381865af41580156200199a573d6000803e3d6000fd5b505050506040513d601f19601f82011682018060405250810190620019c0919062003cfd565b81101562000ed757604051630182c6db60e31b8152601460048201526024810182905262001a4b9073__$1c537defa8d8abb880144579cecc12eeda$__90630c1636d890604401602060405180830381865af415801562001a25573d6000803e3d6000fd5b505050506040513d601f19601f8201168201806040525081019062000897919062003d17565b82828151811062001a605762001a6062003d37565b6020026020010181905250808062001a789062003d63565b91505062001949565b601760205281600052604060002081815481106200147a57600080fd5b6001600160a01b038316600090815260176020526040902054606090821562001ac45750815b600062001ad2828662003d81565b6001600160a01b03871660009081526017602052604090205490915081111562001b1157506001600160a01b0385166000908152601760205260409020545b600062001b1f868362003d9c565b67ffffffffffffffff81111562001b3a5762001b3a62003819565b60405190808252806020026020018201604052801562001b7757816020015b62001b6362003541565b81526020019060019003908162001b595790505b50905060005b62001b89878462003d9c565b81101562001d48576001600160a01b0388166000908152601760205260408120805460049291906001908b9062001bc290879062003d9c565b62001bce919062003d9c565b62001bda919062003d9c565b8154811062001bed5762001bed62003d37565b6000918252602080832090910154835282810193909352604091820190208151610120810183528154815260018201549381019390935260028101546001600160a01b039081169284019290925260038101548216606084015260048101546080840152600581015460a0840152600681015460c0840152600781015490911660e08301526008810180546101008401919062001c8a9062003e03565b80601f016020809104026020016040519081016040528092919081815260200182805462001cb89062003e03565b801562001d095780601f1062001cdd5761010080835404028352916020019162001d09565b820191906000526020600020905b81548152906001019060200180831162001ceb57829003601f168201915b50505050508152505082828151811062001d275762001d2762003d37565b6020026020010181905250808062001d3f9062003d63565b91505062001b7d565b509695505050505050565b6060600060075467ffffffffffffffff81111562001d755762001d7562003819565b60405190808252806020026020018201604052801562001db257816020015b62001d9e62003541565b81526020019060019003908162001d945790505b50905060015b600654811162000ed7576000818152600460208181526040928390208351610120810185528154815260018201549281019290925260028101546001600160a01b0390811694830194909452600381015484166060830152918201546080820152600582015460a0820152600682015460c0820152600782015490921660e08301526008810180546101008401919062001e529062003e03565b80601f016020809104026020016040519081016040528092919081815260200182805462001e809062003e03565b801562001ed15780601f1062001ea55761010080835404028352916020019162001ed1565b820191906000526020600020905b81548152906001019060200180831162001eb357829003601f168201915b5050505050815250508260018362001eea919062003d9c565b8151811062001efd5762001efd62003d37565b6020026020010181905250808062001f159062003d63565b91505062001db8565b6040516317e26bc960e11b815273__$1c537defa8d8abb880144579cecc12eeda$__90632fc4d7929062001f5a90601c90339060040162003c9b565b602060405180830381865af415801562001f78573d6000803e3d6000fd5b505050506040513d601f19601f8201168201806040525081019062001f9e919062003cb2565b151560011462001fc25760405162461bcd60e51b815260040162000cb69062003cd2565b6001600160a01b039091166000908152601b6020526040902055565b6040516317e26bc960e11b815273__$1c537defa8d8abb880144579cecc12eeda$__90632fc4d792906200201a90601c90339060040162003c9b565b602060405180830381865af415801562002038573d6000803e3d6000fd5b505050506040513d601f19601f820116820180604052508101906200205e919062003cb2565b1515600114620020825760405162461bcd60e51b815260040162000cb69062003cd2565b6001600160a01b03909116600090815260136020526040902055565b6040516317e26bc960e11b815273__$1c537defa8d8abb880144579cecc12eeda$__90632fc4d79290620020da90601c90339060040162003c9b565b602060405180830381865af4158015620020f8573d6000803e3d6000fd5b505050506040513d601f19601f820116820180604052508101906200211e919062003cb2565b1515600114620021425760405162461bcd60e51b815260040162000cb69062003cd2565b80156200218557604051639f75f0a360e01b815273__$1c537defa8d8abb880144579cecc12eeda$__90639f75f0a3906200157890600c90869060040162003c9b565b60405163a8afef9560e01b815273__$1c537defa8d8abb880144579cecc12eeda$__9063a8afef95906200157890600c90869060040162003c9b565b6040516311c9af7760e11b8152600c6004820152600060248201819052604482015260609073__$1c537defa8d8abb880144579cecc12eeda$__906323935eee906064015b600060405180830381865af415801562002224573d6000803e3d6000fd5b505050506040513d6000823e601f3d908101601f191682016040526200224e919081019062003e3a565b905090565b6004602081905260009182526040909120805460018201546002830154600384015494840154600585015460068601546007870154600888018054979996986001600160a01b03968716989787169795969495939490921692620022b79062003e03565b80601f0160208091040260200160405190810160405280929190818152602001828054620022e59062003e03565b8015620023365780601f106200230a5761010080835404028352916020019162002336565b820191906000526020600020905b8154815290600101906020018083116200231857829003601f168201915b5050505050905089565b6200234a62003541565b6000828152600460208181526040928390208351610120810185528154815260018201549281019290925260028101546001600160a01b0390811694830194909452600381015484166060830152918201546080820152600582015460a0820152600682015460c0820152600782015490921660e083015260088101805461010084019190620023da9062003e03565b80601f0160208091040260200160405190810160405280929190818152602001828054620024089062003e03565b8015620024595780601f106200242d5761010080835404028352916020019162002459565b820191906000526020600020905b8154815290600101906020018083116200243b57829003601f168201915b5050505050815250509050919050565b6200247362003541565b6001600160a01b038216600090815260056020526040902054156200252e576001600160a01b0380831660009081526005602081815260408084205484526004808352938190208151610120810183528154815260018201549381019390935260028101548616918301919091526003810154851660608301529283015460808201529082015460a0820152600682015460c0820152600782015490921660e083015260088101805461010084019190620023da9062003e03565b919050565b6000546001600160a01b03163314620025605760405162461bcd60e51b815260040162000cb69062003ddb565b600355565b6001546040516370a0823160e01b81523060048201526000916001600160a01b0316906370a0823190602401602060405180830381865afa158015620025af573d6000803e3d6000fd5b505050506040513d601f19601f820116820180604052508101906200224e919062003cfd565b600154604080516306fdde0360e01b815290516060926001600160a01b0316916306fdde039160048083019260009291908290030181865afa15801562002620573d6000803e3d6000fd5b505050506040513d6000823e601f3d908101601f191682016040526200224e919081019062003ef9565b6200265462003509565b6040516317e26bc960e11b815273__$1c537defa8d8abb880144579cecc12eeda$__90632fc4d792906200269090601490869060040162003c9b565b602060405180830381865af4158015620026ae573d6000803e3d6000fd5b505050506040513d601f19601f82011682018060405250810190620026d4919062003cb2565b156200252e576040805160a0810182526001600160a01b038416808252600081815260166020908152848220548185015291815260178252839020805484518184028101840186528181529394850193928301828280156200275657602002820191906000526020600020905b81548152602001906001019080831162002741575b50505091835250506001600160a01b039093166000818152601860209081526040808320548288015292825260199052819020549301929092525090565b6040516311c9af7760e11b815260146004820152602481018390526044810182905260609073__$1c537defa8d8abb880144579cecc12eeda$__906323935eee90606401600060405180830381865af4158015620027f6573d6000803e3d6000fd5b505050506040513d6000823e601f3d908101601f1916820160405262002820919081019062003e3a565b9392505050565b6000546001600160a01b03163314620028545760405162461bcd60e51b815260040162000cb69062003ddb565b600255565b6001546040516370a0823160e01b81526001600160a01b03838116600483015260009216906370a0823190602401602060405180830381865afa158015620028a5573d6000803e3d6000fd5b505050506040513d601f19601f8201168201806040525081019062000f60919062003cfd565b6040516311c9af7760e11b8152601c6004820152600060248201819052604482015260609073__$1c537defa8d8abb880144579cecc12eeda$__906323935eee9060640162002206565b6040516317e26bc960e11b815260009073__$1c537defa8d8abb880144579cecc12eeda$__90632fc4d792906200295490600c90339060040162003c9b565b602060405180830381865af415801562002972573d6000803e3d6000fd5b505050506040513d601f19601f8201168201806040525081019062002998919062003cb2565b1515600114620029de5760405162461bcd60e51b815260206004820152601060248201526f4f6e6c7920666f72206d696e7465727360801b604482015260640162000cb6565b6000841162002a305760405162461bcd60e51b815260206004820152601b60248201527f416d6f756e74206d7573742062652067726561746572207a65726f0000000000604482015260640162000cb6565b6000831562002a40578362002a44565b6002545b600154336000818152600e6020526040808220905194955090936001600160a01b0390931692899142918791908a9062002a7e90620035a8565b62002a90979695949392919062003f79565b604051809103906000f08015801562002aad573d6000803e3d6000fd5b5060068054919250600062002ac28362003d63565b91905055506040518061012001604052806006548152602001878152602001336001600160a01b0316815260200160006001600160a01b0316815260200142815260200160008152602001838152602001826001600160a01b0316815260200185815250600460006006548152602001908152602001600020600082015181600001556020820151816001015560408201518160020160006101000a8154816001600160a01b0302191690836001600160a01b0316021790555060608201518160030160006101000a8154816001600160a01b0302191690836001600160a01b031602179055506080820151816004015560a0820151816005015560c0820151816006015560e08201518160070160006101000a8154816001600160a01b0302191690836001600160a01b0316021790555061010082015181600801908051906020019062002c139291906200347a565b50506006546001600160a01b038316600090815260056020908152604080832093909355338252600f9052908120805489935090919062002c5690849062003d81565b92505081905550856009600082825462002c71919062003d81565b90915550503360008181526010602090815260408083206006548154600181018355918552838520909101559282526011905290812080549162002cb58362003d63565b90915550506007805490600062002ccc8362003d63565b90915550506040516001600160a01b03821681527f12a2dcd8d60f7d320a97f9b2f6bca5b67c1bb9808b27c28915c541eed450d05f9060200160405180910390a195945050505050565b600e602052600090815260409020805462002d319062003e03565b80601f016020809104026020016040519081016040528092919081815260200182805462002d5f9062003e03565b801562002db05780601f1062002d845761010080835404028352916020019162002db0565b820191906000526020600020905b81548152906001019060200180831162002d9257829003601f168201915b505050505081565b6001600160a01b038316600090815260106020526040902054606090821562002dde5750815b600062002dec828662003d81565b6001600160a01b03871660009081526010602052604090205490915081111562002e2b57506001600160a01b0385166000908152601060205260409020545b600062002e39868362003d9c565b67ffffffffffffffff81111562002e545762002e5462003819565b60405190808252806020026020018201604052801562002e9157816020015b62002e7d62003541565b81526020019060019003908162002e735790505b50905060005b62002ea3878462003d9c565b81101562001d48576001600160a01b0388166000908152601060205260408120805460049291906001908b9062002edc90879062003d9c565b62002ee8919062003d9c565b62002ef4919062003d9c565b8154811062002f075762002f0762003d37565b6000918252602080832090910154835282810193909352604091820190208151610120810183528154815260018201549381019390935260028101546001600160a01b039081169284019290925260038101548216606084015260048101546080840152600581015460a0840152600681015460c0840152600781015490911660e08301526008810180546101008401919062002fa49062003e03565b80601f016020809104026020016040519081016040528092919081815260200182805462002fd29062003e03565b8015620030235780601f1062002ff75761010080835404028352916020019162003023565b820191906000526020600020905b8154815290600101906020018083116200300557829003601f168201915b50505050508152505082828151811062003041576200304162003d37565b60200260200101819052508080620030599062003d63565b91505062002e97565b6040516317e26bc960e11b815273__$1c537defa8d8abb880144579cecc12eeda$__90632fc4d792906200309e90601c90339060040162003c9b565b602060405180830381865af4158015620030bc573d6000803e3d6000fd5b505050506040513d601f19601f82011682018060405250810190620030e2919062003cb2565b1515600114620031065760405162461bcd60e51b815260040162000cb69062003cd2565b6001600160a01b0382166000908152600e60209081526040909120825162001458928401906200347a565b6200313b62003434565b6040516317e26bc960e11b815273__$1c537defa8d8abb880144579cecc12eeda$__90632fc4d792906200317790600c90869060040162003c9b565b602060405180830381865af415801562003195573d6000803e3d6000fd5b505050506040513d601f19601f82011682018060405250810190620031bb919062003cb2565b156200252e576040805160e0810182526001600160a01b0384168082526000908152600e602090815292902080549192830191620031f99062003e03565b80601f0160208091040260200160405190810160405280929190818152602001828054620032279062003e03565b8015620032785780601f106200324c5761010080835404028352916020019162003278565b820191906000526020600020905b8154815290600101906020018083116200325a57829003601f168201915b50505091835250506001600160a01b0384166000818152600f6020908152604080832054828601528383526012825280832054818601529282526010815290829020805483518184028101840190945280845260609094019390918301828280156200330457602002820191906000526020600020905b815481526020019060010190808311620032ef575b50505091835250506001600160a01b039093166000818152601160209081526040808320548288015292825260139052819020549301929092525090565b600154604080516395d89b4160e01b815290516060926001600160a01b0316916395d89b419160048083019260009291908290030181865afa15801562002620573d6000803e3d6000fd5b6000546001600160a01b03163314620033ba5760405162461bcd60e51b815260040162000cb69062003ddb565b6001600160a01b038116620034125760405162461bcd60e51b815260206004820152601a60248201527f4f776e657220616464726573732063616e74206265207a65726f000000000000604482015260640162000cb6565b600080546001600160a01b0319166001600160a01b0392909216919091179055565b6040518060e0016040528060006001600160a01b031681526020016060815260200160008152602001600081526020016060815260200160008152602001600081525090565b828054620034889062003e03565b90600052602060002090601f016020900481019282620034ac5760008555620034f7565b82601f10620034c757805160ff1916838001178555620034f7565b82800160010185558215620034f7579182015b82811115620034f7578251825591602001919060010190620034da565b5062003505929150620035b6565b5090565b6040518060a0016040528060006001600160a01b03168152602001600081526020016060815260200160008152602001600081525090565b604051806101200160405280600081526020016000815260200160006001600160a01b0316815260200160006001600160a01b0316815260200160008152602001600081526020016000815260200160006001600160a01b03168152602001606081525090565b610a47806200407583390190565b5b80821115620035055760008155600101620035b7565b6001600160a01b0381168114620035e357600080fd5b50565b600060208284031215620035f957600080fd5b81356200282081620035cd565b6000602082840312156200361957600080fd5b5035919050565b60005b838110156200363d57818101518382015260200162003623565b838111156200364d576000848401525b50505050565b600081518084526200366d81602086016020860162003620565b601f01601f19169290920160200192915050565b600081518084526020808501945080840160005b83811015620036b35781518752958201959082019060010162003695565b509495945050505050565b60018060a01b0381511682526000602082015160e06020850152620036e760e085018262003653565b905060408301516040850152606083015160608501526080830151848203608086015262003716828262003681565b91505060a083015160a085015260c083015160c08501528091505092915050565b6000602080830181845280855180835260408601915060408160051b870101925083870160005b828110156200379057603f198886030184526200377d858351620036be565b945092850192908501906001016200375e565b5092979650505050505050565b60008060408385031215620037b157600080fd5b8235620037be81620035cd565b946020939093013593505050565b8015158114620035e357600080fd5b60008060408385031215620037ef57600080fd5b8235620037fc81620035cd565b915060208301356200380e81620037cc565b809150509250929050565b634e487b7160e01b600052604160045260246000fd5b604051601f8201601f1916810167ffffffffffffffff811182821017156200385b576200385b62003819565b604052919050565b600067ffffffffffffffff82111562003880576200388062003819565b50601f01601f191660200190565b600082601f830112620038a057600080fd5b8135620038b7620038b18262003863565b6200382f565b818152846020838601011115620038cd57600080fd5b816020850160208301376000918101602001919091529392505050565b60008060408385031215620038fe57600080fd5b82356200390b81620035cd565b9150602083013567ffffffffffffffff8111156200392857600080fd5b62003936858286016200388e565b9150509250929050565b60018060a01b038151168252602081015160208301526000604082015160a060408501526200397360a085018262003681565b905060608301516060850152608083015160808501528091505092915050565b6000602080830181845280855180835260408601915060408160051b870101925083870160005b828110156200379057603f19888603018452620039d985835162003940565b94509285019290850190600101620039ba565b60008060006060848603121562003a0257600080fd5b833562003a0f81620035cd565b95602085013595506040909401359392505050565b6000610120825184526020830151602085015260018060a01b036040840151166040850152606083015162003a6460608601826001600160a01b03169052565b506080830151608085015260a083015160a085015260c083015160c085015260e083015162003a9e60e08601826001600160a01b03169052565b5061010080840151828287015262003ab98387018262003653565b9695505050505050565b6000602080830181845280855180835260408601915060408160051b870101925083870160005b828110156200379057603f1988860301845262003b0985835162003a24565b9450928501929085019060010162003aea565b6020808252825182820181905260009190848201906040850190845b8181101562003b5f5783516001600160a01b03168352928401929184019160010162003b38565b50909695505050505050565b60006101208b83528a602084015260018060a01b03808b166040850152808a1660608501528860808501528760a08501528660c085015280861660e0850152508061010084015262003bc08184018562003653565b9c9b505050505050505050505050565b60208152600062002820602083018462003a24565b60208152600062002820602083018462003653565b60208152600062002820602083018462003940565b6000806040838503121562003c2357600080fd5b50508035926020909101359150565b60008060006060848603121562003c4857600080fd5b8335925060208401359150604084013567ffffffffffffffff81111562003c6e57600080fd5b62003c7c868287016200388e565b9150509250925092565b602081526000620028206020830184620036be565b9182526001600160a01b0316602082015260400190565b60006020828403121562003cc557600080fd5b81516200282081620037cc565b6020808252601190820152704f6e6c7920666f72206d616e616765727360781b604082015260600190565b60006020828403121562003d1057600080fd5b5051919050565b60006020828403121562003d2a57600080fd5b81516200282081620035cd565b634e487b7160e01b600052603260045260246000fd5b634e487b7160e01b600052601160045260246000fd5b600060001982141562003d7a5762003d7a62003d4d565b5060010190565b6000821982111562003d975762003d9762003d4d565b500190565b60008282101562003db15762003db162003d4d565b500390565b60006020828403121562003dc957600080fd5b815160ff811681146200282057600080fd5b6020808252600e908201526d27b7363c903337b91037bbb732b960911b604082015260600190565b600181811c9082168062003e1857607f821691505b6020821081141562000ed757634e487b7160e01b600052602260045260246000fd5b6000602080838503121562003e4e57600080fd5b825167ffffffffffffffff8082111562003e6757600080fd5b818501915085601f83011262003e7c57600080fd5b81518181111562003e915762003e9162003819565b8060051b915062003ea48483016200382f565b818152918301840191848101908884111562003ebf57600080fd5b938501935b8385101562003eed578451925062003edc83620035cd565b828252938501939085019062003ec4565b98975050505050505050565b60006020828403121562003f0c57600080fd5b815167ffffffffffffffff81111562003f2457600080fd5b8201601f8101841362003f3657600080fd5b805162003f47620038b18262003863565b81815285602083850101111562003f5d57600080fd5b62003f7082602083016020860162003620565b95945050505050565b6001600160a01b038881168252871660208083019190915260408201879052606082018690526080820185905260e060a083015283546000918291600181811c908281168062003fca57607f831692505b84831081141562003fe957634e487b7160e01b86526022600452602486fd5b60e0880183905261010088018180156200400c57600181146200401e576200404b565b60ff198616825286820197506200404b565b60008c81526020902060005b8681101562004045578154848201529085019088016200402a565b83019850505b5050505050505082810360c084015262004066818562003653565b9a995050505050505050505056fe60806040523480156200001157600080fd5b5060405162000a4738038062000a478339810160408190526200003491620003e4565b60008054336001600160a01b03199182161782556002805482166001600160a01b038a81169190911790915560038890556009879055600a86905560018054909216908a16908117909155604080516306fdde0360e01b8152905191926306fdde03926004808401938290030181865afa158015620000b7573d6000803e3d6000fd5b505050506040513d6000823e601f3d908101601f19168201604052620000e1919081019062000492565b8051620000f79160049160209091019062000254565b50600160009054906101000a90046001600160a01b03166001600160a01b03166395d89b416040518163ffffffff1660e01b8152600401600060405180830381865afa1580156200014c573d6000803e3d6000fd5b505050506040513d6000823e601f3d908101601f1916820160405262000176919081019062000492565b80516200018c9160059160209091019062000254565b50600160009054906101000a90046001600160a01b03166001600160a01b031663313ce5676040518163ffffffff1660e01b8152600401602060405180830381865afa158015620001e1573d6000803e3d6000fd5b505050506040513d601f19601f82011682018060405250810190620002079190620004d2565b6006805460ff191660ff9290921691909117905581516200023090600790602085019062000254565b5080516200024690600890602084019062000254565b50505050505050506200053b565b8280546200026290620004fe565b90600052602060002090601f016020900481019282620002865760008555620002d1565b82601f10620002a157805160ff1916838001178555620002d1565b82800160010185558215620002d1579182015b82811115620002d1578251825591602001919060010190620002b4565b50620002df929150620002e3565b5090565b5b80821115620002df5760008155600101620002e4565b80516001600160a01b03811681146200031257600080fd5b919050565b634e487b7160e01b600052604160045260246000fd5b600082601f8301126200033f57600080fd5b81516001600160401b03808211156200035c576200035c62000317565b604051601f8301601f19908116603f0116810190828211818310171562000387576200038762000317565b81604052838152602092508683858801011115620003a457600080fd5b600091505b83821015620003c85785820183015181830184015290820190620003a9565b83821115620003da5760008385830101525b9695505050505050565b600080600080600080600060e0888a0312156200040057600080fd5b6200040b88620002fa565b96506200041b60208901620002fa565b604089015160608a015160808b015160a08c0151939950919750955093506001600160401b03808211156200044f57600080fd5b6200045d8b838c016200032d565b935060c08a01519150808211156200047457600080fd5b50620004838a828b016200032d565b91505092959891949750929550565b600060208284031215620004a557600080fd5b81516001600160401b03811115620004bc57600080fd5b620004ca848285016200032d565b949350505050565b600060208284031215620004e557600080fd5b815160ff81168114620004f757600080fd5b9392505050565b600181811c908216806200051357607f821691505b602082108114156200053557634e487b7160e01b600052602260045260246000fd5b50919050565b6104fc806200054b6000396000f3fe608060405234801561001057600080fd5b50600436106100ea5760003560e01c80639c6f0d851161008c578063bb5d40eb11610066578063bb5d40eb146101bd578063c45a0155146101c5578063e21f37ce146101d8578063fc0c546a146101e057600080fd5b80639c6f0d85146101a3578063aa8c217c146101ac578063b39cb699146101b557600080fd5b8063313ce567116100c8578063313ce5671461014d57806357c9ca141461016c5780637eb9385f1461018457806395d89b411461019b57600080fd5b806306fdde03146100ef578063075461721461010d5780631e83409a14610138575b600080fd5b6100f76101f3565b60405161010491906103be565b60405180910390f35b600254610120906001600160a01b031681565b6040516001600160a01b039091168152602001610104565b61014b610146366004610413565b610281565b005b60065461015a9060ff1681565b60405160ff9091168152602001610104565b610174610301565b6040519015158152602001610104565b61018d600a5481565b604051908152602001610104565b6100f7610373565b61018d60095481565b61018d60035481565b6100f7610380565b61017461038d565b600054610120906001600160a01b031681565b6100f76103b1565b600154610120906001600160a01b031681565b6004805461020090610443565b80601f016020809104026020016040519081016040528092919081815260200182805461022c90610443565b80156102795780601f1061024e57610100808354040283529160200191610279565b820191906000526020600020905b81548152906001019060200180831161025c57829003601f168201915b505050505081565b6000546001600160a01b0390811690631e83409a908316156102a357826102a5565b335b6040516001600160e01b031960e084901b1681526001600160a01b039091166004820152602401600060405180830381600087803b1580156102e657600080fd5b505af11580156102fa573d6000803e3d6000fd5b5050505050565b60008054604051632a4e455360e01b81523060048201526001600160a01b0390911690632a4e455390602401602060405180830381865afa15801561034a573d6000803e3d6000fd5b505050506040513d601f19601f8201168201806040525081019061036e919061047e565b905090565b6005805461020090610443565b6007805461020090610443565b600042600a546009546103a091906104a0565b116103ab5750600090565b50600190565b6008805461020090610443565b600060208083528351808285015260005b818110156103eb578581018301518582016040015282016103cf565b818111156103fd576000604083870101525b50601f01601f1916929092016040019392505050565b60006020828403121561042557600080fd5b81356001600160a01b038116811461043c57600080fd5b9392505050565b600181811c9082168061045757607f821691505b6020821081141561047857634e487b7160e01b600052602260045260246000fd5b50919050565b60006020828403121561049057600080fd5b8151801515811461043c57600080fd5b600082198211156104c157634e487b7160e01b600052601160045260246000fd5b50019056fea2646970667358221220b53dd0708331869cc60dacd6e02783129ae73535f5e6b355646dcca264c2252b64736f6c634300080c0033a2646970667358221220b6e63960662bb1c802feb17d3a52d73c279be5a4ef07bf7f526cf50df356c1af64736f6c634300080c0033",
			"opcodes": "PUSH1 0x80 PUSH1 0x40 MSTORE PUSH2 0x708 PUSH1 0x2 SSTORE PUSH7 0x2386F26FC10000 PUSH1 0x3 SSTORE PUSH1 0x0 PUSH1 0x6 SSTORE PUSH1 0x0 PUSH1 0x7 SSTORE PUSH1 0x0 PUSH1 0x8 SSTORE PUSH1 0x0 PUSH1 0x9 SSTORE PUSH1 0x0 PUSH1 0xA SSTORE PUSH1 0x0 PUSH1 0xB SSTORE PUSH6 0x5AF3107A4000 PUSH1 0x1A SSTORE CALLVALUE DUP1 ISZERO PUSH3 0x4A JUMPI PUSH1 0x0 DUP1 REVERT JUMPDEST POP PUSH1 0x40 MLOAD PUSH3 0x4CB5 CODESIZE SUB DUP1 PUSH3 0x4CB5 DUP4 CODECOPY DUP2 ADD PUSH1 0x40 DUP2 SWAP1 MSTORE PUSH3 0x6D SWAP2 PUSH3 0x182 JUMP JUMPDEST PUSH1 0x0 DUP1 SLOAD PUSH1 0x1 PUSH1 0x1 PUSH1 0xA0 SHL SUB NOT AND CALLER SWAP1 DUP2 OR SWAP1 SWAP2 SSTORE PUSH1 0x40 MLOAD PUSH4 0x9F75F0A3 PUSH1 0xE0 SHL DUP2 MSTORE PUSH1 0x1C PUSH1 0x4 DUP3 ADD MSTORE PUSH1 0x24 DUP2 ADD SWAP2 SWAP1 SWAP2 MSTORE PUSH20 0x0 SWAP1 PUSH4 0x9F75F0A3 SWAP1 PUSH1 0x44 ADD PUSH1 0x0 PUSH1 0x40 MLOAD DUP1 DUP4 SUB DUP2 DUP7 DUP1 EXTCODESIZE ISZERO DUP1 ISZERO PUSH3 0xD6 JUMPI PUSH1 0x0 DUP1 REVERT JUMPDEST POP GAS DELEGATECALL ISZERO DUP1 ISZERO PUSH3 0xEB JUMPI RETURNDATASIZE PUSH1 0x0 DUP1 RETURNDATACOPY RETURNDATASIZE PUSH1 0x0 REVERT JUMPDEST POP POP PUSH1 0x40 MLOAD PUSH4 0x9F75F0A3 PUSH1 0xE0 SHL DUP2 MSTORE PUSH1 0xC PUSH1 0x4 DUP3 ADD MSTORE CALLER PUSH1 0x24 DUP3 ADD MSTORE PUSH20 0x0 SWAP3 POP PUSH4 0x9F75F0A3 SWAP2 POP PUSH1 0x44 ADD PUSH1 0x0 PUSH1 0x40 MLOAD DUP1 DUP4 SUB DUP2 DUP7 DUP1 EXTCODESIZE ISZERO DUP1 ISZERO PUSH3 0x141 JUMPI PUSH1 0x0 DUP1 REVERT JUMPDEST POP GAS DELEGATECALL ISZERO DUP1 ISZERO PUSH3 0x156 JUMPI RETURNDATASIZE PUSH1 0x0 DUP1 RETURNDATACOPY RETURNDATASIZE PUSH1 0x0 REVERT JUMPDEST POP POP PUSH1 0x1 DUP1 SLOAD PUSH1 0x1 PUSH1 0x1 PUSH1 0xA0 SHL SUB NOT AND PUSH1 0x1 PUSH1 0x1 PUSH1 0xA0 SHL SUB SWAP5 SWAP1 SWAP5 AND SWAP4 SWAP1 SWAP4 OR SWAP1 SWAP3 SSTORE POP PUSH3 0x1B4 SWAP1 POP JUMP JUMPDEST PUSH1 0x0 PUSH1 0x20 DUP3 DUP5 SUB SLT ISZERO PUSH3 0x195 JUMPI PUSH1 0x0 DUP1 REVERT JUMPDEST DUP2 MLOAD PUSH1 0x1 PUSH1 0x1 PUSH1 0xA0 SHL SUB DUP2 AND DUP2 EQ PUSH3 0x1AD JUMPI PUSH1 0x0 DUP1 REVERT JUMPDEST SWAP4 SWAP3 POP POP POP JUMP JUMPDEST PUSH2 0x4AF1 DUP1 PUSH3 0x1C4 PUSH1 0x0 CODECOPY PUSH1 0x0 RETURN INVALID PUSH1 0x80 PUSH1 0x40 MSTORE PUSH1 0x4 CALLDATASIZE LT PUSH3 0x3B7 JUMPI PUSH1 0x0 CALLDATALOAD PUSH1 0xE0 SHR DUP1 PUSH4 0x81D2FD9C GT PUSH3 0x1EB JUMPI DUP1 PUSH4 0xAD4AD7CA GT PUSH3 0x10B JUMPI DUP1 PUSH4 0xECE76435 GT PUSH3 0xA1 JUMPI DUP1 PUSH4 0xF1850AF8 GT PUSH3 0x78 JUMPI DUP1 PUSH4 0xF1850AF8 EQ PUSH3 0xB8F JUMPI DUP1 PUSH4 0xF1F959A6 EQ PUSH3 0xBA7 JUMPI DUP1 PUSH4 0xF2FDE38B EQ PUSH3 0xBBC JUMPI DUP1 PUSH4 0xFBBF8CC3 EQ PUSH3 0xBE1 JUMPI PUSH1 0x0 DUP1 REVERT JUMPDEST DUP1 PUSH4 0xECE76435 EQ PUSH3 0xB1E JUMPI DUP1 PUSH4 0xF09B2203 EQ PUSH3 0xB43 JUMPI DUP1 PUSH4 0xF1294EF6 EQ PUSH3 0xB77 JUMPI PUSH1 0x0 DUP1 REVERT JUMPDEST DUP1 PUSH4 0xD3A51FF2 GT PUSH3 0xE2 JUMPI DUP1 PUSH4 0xD3A51FF2 EQ PUSH3 0xA77 JUMPI DUP1 PUSH4 0xD846CEAE EQ PUSH3 0xA9C JUMPI DUP1 PUSH4 0xDCCB445B EQ PUSH3 0xAC8 JUMPI DUP1 PUSH4 0xE43E5541 EQ PUSH3 0xAF9 JUMPI PUSH1 0x0 DUP1 REVERT JUMPDEST DUP1 PUSH4 0xAD4AD7CA EQ PUSH3 0x9F0 JUMPI DUP1 PUSH4 0xB862251F EQ PUSH3 0xA21 JUMPI DUP1 PUSH4 0xC6E64E53 EQ PUSH3 0xA52 JUMPI PUSH1 0x0 DUP1 REVERT JUMPDEST DUP1 PUSH4 0x98ADCC97 GT PUSH3 0x181 JUMPI DUP1 PUSH4 0x9DB1FF16 GT PUSH3 0x158 JUMPI DUP1 PUSH4 0x9DB1FF16 EQ PUSH3 0x976 JUMPI DUP1 PUSH4 0xA01BAD52 EQ PUSH3 0x98E JUMPI DUP1 PUSH4 0xA50FFDA5 EQ PUSH3 0x9B3 JUMPI DUP1 PUSH4 0xA8D088BB EQ PUSH3 0x9D8 JUMPI PUSH1 0x0 DUP1 REVERT JUMPDEST DUP1 PUSH4 0x98ADCC97 EQ PUSH3 0x917 JUMPI DUP1 PUSH4 0x9C281430 EQ PUSH3 0x93C JUMPI DUP1 PUSH4 0x9D76EA58 EQ PUSH3 0x954 JUMPI PUSH1 0x0 DUP1 REVERT JUMPDEST DUP1 PUSH4 0x878D7D87 GT PUSH3 0x1C2 JUMPI DUP1 PUSH4 0x878D7D87 EQ PUSH3 0x878 JUMPI DUP1 PUSH4 0x892FF8BD EQ PUSH3 0x8AC JUMPI DUP1 PUSH4 0x8DA5CB5B EQ PUSH3 0x8C4 JUMPI DUP1 PUSH4 0x9661CB0D EQ PUSH3 0x8FF JUMPI PUSH1 0x0 DUP1 REVERT JUMPDEST DUP1 PUSH4 0x81D2FD9C EQ PUSH3 0x814 JUMPI DUP1 PUSH4 0x82B2E257 EQ PUSH3 0x839 JUMPI DUP1 PUSH4 0x862B092B EQ PUSH3 0x851 JUMPI PUSH1 0x0 DUP1 REVERT JUMPDEST DUP1 PUSH4 0x424F3C8E GT PUSH3 0x2D7 JUMPI DUP1 PUSH4 0x66059A16 GT PUSH3 0x26D JUMPI DUP1 PUSH4 0x6CA80026 GT PUSH3 0x244 JUMPI DUP1 PUSH4 0x6CA80026 EQ PUSH3 0x767 JUMPI DUP1 PUSH4 0x6F7AB8D1 EQ PUSH3 0x7A3 JUMPI DUP1 PUSH4 0x6F865E6F EQ PUSH3 0x7D7 JUMPI DUP1 PUSH4 0x81B5479D EQ PUSH3 0x7EF JUMPI PUSH1 0x0 DUP1 REVERT JUMPDEST DUP1 PUSH4 0x66059A16 EQ PUSH3 0x6F6 JUMPI DUP1 PUSH4 0x66EB399F EQ PUSH3 0x71B JUMPI DUP1 PUSH4 0x6B32810B EQ PUSH3 0x740 JUMPI PUSH1 0x0 DUP1 REVERT JUMPDEST DUP1 PUSH4 0x4F513277 GT PUSH3 0x2AE JUMPI DUP1 PUSH4 0x4F513277 EQ PUSH3 0x66D JUMPI DUP1 PUSH4 0x563D3CA3 EQ PUSH3 0x6A1 JUMPI DUP1 PUSH4 0x572D4721 EQ PUSH3 0x6B9 JUMPI DUP1 PUSH4 0x59D1BD80 EQ PUSH3 0x6D1 JUMPI PUSH1 0x0 DUP1 REVERT JUMPDEST DUP1 PUSH4 0x424F3C8E EQ PUSH3 0x5FC JUMPI DUP1 PUSH4 0x440D712B EQ PUSH3 0x621 JUMPI DUP1 PUSH4 0x44E2AD99 EQ PUSH3 0x648 JUMPI PUSH1 0x0 DUP1 REVERT JUMPDEST DUP1 PUSH4 0x206855D0 GT PUSH3 0x34D JUMPI DUP1 PUSH4 0x2A4E4553 GT PUSH3 0x324 JUMPI DUP1 PUSH4 0x2A4E4553 EQ PUSH3 0x550 JUMPI DUP1 PUSH4 0x2E42ADD7 EQ PUSH3 0x575 JUMPI DUP1 PUSH4 0x384E491D EQ PUSH3 0x5A6 JUMPI DUP1 PUSH4 0x3E70703E EQ PUSH3 0x5CB JUMPI PUSH1 0x0 DUP1 REVERT JUMPDEST DUP1 PUSH4 0x206855D0 EQ PUSH3 0x4EE JUMPI DUP1 PUSH4 0x24F65EE7 EQ PUSH3 0x513 JUMPI DUP1 PUSH4 0x26767F90 EQ PUSH3 0x52B JUMPI PUSH1 0x0 DUP1 REVERT JUMPDEST DUP1 PUSH4 0x1654D42C GT PUSH3 0x38E JUMPI DUP1 PUSH4 0x1654D42C EQ PUSH3 0x456 JUMPI DUP1 PUSH4 0x17FC30D4 EQ PUSH3 0x46E JUMPI DUP1 PUSH4 0x198E14F8 EQ PUSH3 0x4A4 JUMPI DUP1 PUSH4 0x1E83409A EQ PUSH3 0x4C9 JUMPI PUSH1 0x0 DUP1 REVERT JUMPDEST DUP1 PUSH4 0x4E86903 EQ PUSH3 0x3C4 JUMPI DUP1 PUSH4 0x4F32A1D EQ PUSH3 0x408 JUMPI DUP1 PUSH4 0x143F338C EQ PUSH3 0x42F JUMPI PUSH1 0x0 DUP1 REVERT JUMPDEST CALLDATASIZE PUSH3 0x3BF JUMPI STOP JUMPDEST PUSH1 0x0 DUP1 REVERT JUMPDEST CALLVALUE DUP1 ISZERO PUSH3 0x3D1 JUMPI PUSH1 0x0 DUP1 REVERT JUMPDEST POP PUSH3 0x3F5 PUSH3 0x3E3 CALLDATASIZE PUSH1 0x4 PUSH3 0x35E6 JUMP JUMPDEST PUSH1 0x16 PUSH1 0x20 MSTORE PUSH1 0x0 SWAP1 DUP2 MSTORE PUSH1 0x40 SWAP1 KECCAK256 SLOAD DUP2 JUMP JUMPDEST PUSH1 0x40 MLOAD SWAP1 DUP2 MSTORE PUSH1 0x20 ADD JUMPDEST PUSH1 0x40 MLOAD DUP1 SWAP2 SUB SWAP1 RETURN JUMPDEST CALLVALUE DUP1 ISZERO PUSH3 0x415 JUMPI PUSH1 0x0 DUP1 REVERT JUMPDEST POP PUSH3 0x42D PUSH3 0x427 CALLDATASIZE PUSH1 0x4 PUSH3 0x3606 JUMP JUMPDEST PUSH3 0xC12 JUMP JUMPDEST STOP JUMPDEST CALLVALUE DUP1 ISZERO PUSH3 0x43C JUMPI PUSH1 0x0 DUP1 REVERT JUMPDEST POP PUSH3 0x447 PUSH3 0xCC4 JUMP JUMPDEST PUSH1 0x40 MLOAD PUSH3 0x3FF SWAP2 SWAP1 PUSH3 0x3737 JUMP JUMPDEST CALLVALUE DUP1 ISZERO PUSH3 0x463 JUMPI PUSH1 0x0 DUP1 REVERT JUMPDEST POP PUSH3 0x3F5 PUSH1 0x7 SLOAD DUP2 JUMP JUMPDEST CALLVALUE DUP1 ISZERO PUSH3 0x47B JUMPI PUSH1 0x0 DUP1 REVERT JUMPDEST POP PUSH3 0x493 PUSH3 0x48D CALLDATASIZE PUSH1 0x4 PUSH3 0x35E6 JUMP JUMPDEST PUSH3 0xEDD JUMP JUMPDEST PUSH1 0x40 MLOAD SWAP1 ISZERO ISZERO DUP2 MSTORE PUSH1 0x20 ADD PUSH3 0x3FF JUMP JUMPDEST CALLVALUE DUP1 ISZERO PUSH3 0x4B1 JUMPI PUSH1 0x0 DUP1 REVERT JUMPDEST POP PUSH3 0x493 PUSH3 0x4C3 CALLDATASIZE PUSH1 0x4 PUSH3 0x35E6 JUMP JUMPDEST PUSH3 0xF66 JUMP JUMPDEST CALLVALUE DUP1 ISZERO PUSH3 0x4D6 JUMPI PUSH1 0x0 DUP1 REVERT JUMPDEST POP PUSH3 0x42D PUSH3 0x4E8 CALLDATASIZE PUSH1 0x4 PUSH3 0x35E6 JUMP JUMPDEST PUSH3 0xFA5 JUMP JUMPDEST CALLVALUE DUP1 ISZERO PUSH3 0x4FB JUMPI PUSH1 0x0 DUP1 REVERT JUMPDEST POP PUSH3 0x3F5 PUSH3 0x50D CALLDATASIZE PUSH1 0x4 PUSH3 0x379D JUMP JUMPDEST PUSH3 0x145D JUMP JUMPDEST CALLVALUE DUP1 ISZERO PUSH3 0x520 JUMPI PUSH1 0x0 DUP1 REVERT JUMPDEST POP PUSH3 0x3F5 PUSH3 0x148F JUMP JUMPDEST CALLVALUE DUP1 ISZERO PUSH3 0x538 JUMPI PUSH1 0x0 DUP1 REVERT JUMPDEST POP PUSH3 0x42D PUSH3 0x54A CALLDATASIZE PUSH1 0x4 PUSH3 0x37DB JUMP JUMPDEST PUSH3 0x1508 JUMP JUMPDEST CALLVALUE DUP1 ISZERO PUSH3 0x55D JUMPI PUSH1 0x0 DUP1 REVERT JUMPDEST POP PUSH3 0x493 PUSH3 0x56F CALLDATASIZE PUSH1 0x4 PUSH3 0x35E6 JUMP JUMPDEST PUSH3 0x15EA JUMP JUMPDEST CALLVALUE DUP1 ISZERO PUSH3 0x582 JUMPI PUSH1 0x0 DUP1 REVERT JUMPDEST POP PUSH3 0x3F5 PUSH3 0x594 CALLDATASIZE PUSH1 0x4 PUSH3 0x35E6 JUMP JUMPDEST PUSH1 0x19 PUSH1 0x20 MSTORE PUSH1 0x0 SWAP1 DUP2 MSTORE PUSH1 0x40 SWAP1 KECCAK256 SLOAD DUP2 JUMP JUMPDEST CALLVALUE DUP1 ISZERO PUSH3 0x5B3 JUMPI PUSH1 0x0 DUP1 REVERT JUMPDEST POP PUSH3 0x42D PUSH3 0x5C5 CALLDATASIZE PUSH1 0x4 PUSH3 0x379D JUMP JUMPDEST PUSH3 0x1647 JUMP JUMPDEST CALLVALUE DUP1 ISZERO PUSH3 0x5D8 JUMPI PUSH1 0x0 DUP1 REVERT JUMPDEST POP PUSH3 0x3F5 PUSH3 0x5EA CALLDATASIZE PUSH1 0x4 PUSH3 0x35E6 JUMP JUMPDEST PUSH1 0x12 PUSH1 0x20 MSTORE PUSH1 0x0 SWAP1 DUP2 MSTORE PUSH1 0x40 SWAP1 KECCAK256 SLOAD DUP2 JUMP JUMPDEST CALLVALUE DUP1 ISZERO PUSH3 0x609 JUMPI PUSH1 0x0 DUP1 REVERT JUMPDEST POP PUSH3 0x42D PUSH3 0x61B CALLDATASIZE PUSH1 0x4 PUSH3 0x38EA JUMP JUMPDEST PUSH3 0x1731 JUMP JUMPDEST CALLVALUE DUP1 ISZERO PUSH3 0x62E JUMPI PUSH1 0x0 DUP1 REVERT JUMPDEST POP PUSH3 0x639 PUSH3 0x186E JUMP JUMPDEST PUSH1 0x40 MLOAD PUSH3 0x3FF SWAP2 SWAP1 PUSH3 0x3993 JUMP JUMPDEST CALLVALUE DUP1 ISZERO PUSH3 0x655 JUMPI PUSH1 0x0 DUP1 REVERT JUMPDEST POP PUSH3 0x3F5 PUSH3 0x667 CALLDATASIZE PUSH1 0x4 PUSH3 0x379D JUMP JUMPDEST PUSH3 0x1A81 JUMP JUMPDEST CALLVALUE DUP1 ISZERO PUSH3 0x67A JUMPI PUSH1 0x0 DUP1 REVERT JUMPDEST POP PUSH3 0x692 PUSH3 0x68C CALLDATASIZE PUSH1 0x4 PUSH3 0x39EC JUMP JUMPDEST PUSH3 0x1A9E JUMP JUMPDEST PUSH1 0x40 MLOAD PUSH3 0x3FF SWAP2 SWAP1 PUSH3 0x3AC3 JUMP JUMPDEST CALLVALUE DUP1 ISZERO PUSH3 0x6AE JUMPI PUSH1 0x0 DUP1 REVERT JUMPDEST POP PUSH3 0x3F5 PUSH1 0x2 SLOAD DUP2 JUMP JUMPDEST CALLVALUE DUP1 ISZERO PUSH3 0x6C6 JUMPI PUSH1 0x0 DUP1 REVERT JUMPDEST POP PUSH3 0x692 PUSH3 0x1D53 JUMP JUMPDEST CALLVALUE DUP1 ISZERO PUSH3 0x6DE JUMPI PUSH1 0x0 DUP1 REVERT JUMPDEST POP PUSH3 0x42D PUSH3 0x6F0 CALLDATASIZE PUSH1 0x4 PUSH3 0x379D JUMP JUMPDEST PUSH3 0x1F1E JUMP JUMPDEST CALLVALUE DUP1 ISZERO PUSH3 0x703 JUMPI PUSH1 0x0 DUP1 REVERT JUMPDEST POP PUSH3 0x42D PUSH3 0x715 CALLDATASIZE PUSH1 0x4 PUSH3 0x379D JUMP JUMPDEST PUSH3 0x1FDE JUMP JUMPDEST CALLVALUE DUP1 ISZERO PUSH3 0x728 JUMPI PUSH1 0x0 DUP1 REVERT JUMPDEST POP PUSH3 0x42D PUSH3 0x73A CALLDATASIZE PUSH1 0x4 PUSH3 0x37DB JUMP JUMPDEST PUSH3 0x209E JUMP JUMPDEST CALLVALUE DUP1 ISZERO PUSH3 0x74D JUMPI PUSH1 0x0 DUP1 REVERT JUMPDEST POP PUSH3 0x758 PUSH3 0x21C1 JUMP JUMPDEST PUSH1 0x40 MLOAD PUSH3 0x3FF SWAP2 SWAP1 PUSH3 0x3B1C JUMP JUMPDEST CALLVALUE DUP1 ISZERO PUSH3 0x774 JUMPI PUSH1 0x0 DUP1 REVERT JUMPDEST POP PUSH3 0x78C PUSH3 0x786 CALLDATASIZE PUSH1 0x4 PUSH3 0x3606 JUMP JUMPDEST PUSH3 0x2253 JUMP JUMPDEST PUSH1 0x40 MLOAD PUSH3 0x3FF SWAP10 SWAP9 SWAP8 SWAP7 SWAP6 SWAP5 SWAP4 SWAP3 SWAP2 SWAP1 PUSH3 0x3B6B JUMP JUMPDEST CALLVALUE DUP1 ISZERO PUSH3 0x7B0 JUMPI PUSH1 0x0 DUP1 REVERT JUMPDEST POP PUSH3 0x7C8 PUSH3 0x7C2 CALLDATASIZE PUSH1 0x4 PUSH3 0x3606 JUMP JUMPDEST PUSH3 0x2340 JUMP JUMPDEST PUSH1 0x40 MLOAD PUSH3 0x3FF SWAP2 SWAP1 PUSH3 0x3BD0 JUMP JUMPDEST CALLVALUE DUP1 ISZERO PUSH3 0x7E4 JUMPI PUSH1 0x0 DUP1 REVERT JUMPDEST POP PUSH3 0x3F5 PUSH1 0x9 SLOAD DUP2 JUMP JUMPDEST CALLVALUE DUP1 ISZERO PUSH3 0x7FC JUMPI PUSH1 0x0 DUP1 REVERT JUMPDEST POP PUSH3 0x7C8 PUSH3 0x80E CALLDATASIZE PUSH1 0x4 PUSH3 0x35E6 JUMP JUMPDEST PUSH3 0x2469 JUMP JUMPDEST CALLVALUE DUP1 ISZERO PUSH3 0x821 JUMPI PUSH1 0x0 DUP1 REVERT JUMPDEST POP PUSH3 0x42D PUSH3 0x833 CALLDATASIZE PUSH1 0x4 PUSH3 0x3606 JUMP JUMPDEST PUSH3 0x2533 JUMP JUMPDEST CALLVALUE DUP1 ISZERO PUSH3 0x846 JUMPI PUSH1 0x0 DUP1 REVERT JUMPDEST POP PUSH3 0x3F5 PUSH3 0x2565 JUMP JUMPDEST CALLVALUE DUP1 ISZERO PUSH3 0x85E JUMPI PUSH1 0x0 DUP1 REVERT JUMPDEST POP PUSH3 0x869 PUSH3 0x25D5 JUMP JUMPDEST PUSH1 0x40 MLOAD PUSH3 0x3FF SWAP2 SWAP1 PUSH3 0x3BE5 JUMP JUMPDEST CALLVALUE DUP1 ISZERO PUSH3 0x885 JUMPI PUSH1 0x0 DUP1 REVERT JUMPDEST POP PUSH3 0x89D PUSH3 0x897 CALLDATASIZE PUSH1 0x4 PUSH3 0x35E6 JUMP JUMPDEST PUSH3 0x264A JUMP JUMPDEST PUSH1 0x40 MLOAD PUSH3 0x3FF SWAP2 SWAP1 PUSH3 0x3BFA JUMP JUMPDEST CALLVALUE DUP1 ISZERO PUSH3 0x8B9 JUMPI PUSH1 0x0 DUP1 REVERT JUMPDEST POP PUSH3 0x3F5 PUSH1 0x1A SLOAD DUP2 JUMP JUMPDEST CALLVALUE DUP1 ISZERO PUSH3 0x8D1 JUMPI PUSH1 0x0 DUP1 REVERT JUMPDEST POP PUSH1 0x0 SLOAD PUSH3 0x8E6 SWAP1 PUSH1 0x1 PUSH1 0x1 PUSH1 0xA0 SHL SUB AND DUP2 JUMP JUMPDEST PUSH1 0x40 MLOAD PUSH1 0x1 PUSH1 0x1 PUSH1 0xA0 SHL SUB SWAP1 SWAP2 AND DUP2 MSTORE PUSH1 0x20 ADD PUSH3 0x3FF JUMP JUMPDEST CALLVALUE DUP1 ISZERO PUSH3 0x90C JUMPI PUSH1 0x0 DUP1 REVERT JUMPDEST POP PUSH3 0x3F5 PUSH1 0xA SLOAD DUP2 JUMP JUMPDEST CALLVALUE DUP1 ISZERO PUSH3 0x924 JUMPI PUSH1 0x0 DUP1 REVERT JUMPDEST POP PUSH3 0x758 PUSH3 0x936 CALLDATASIZE PUSH1 0x4 PUSH3 0x3C0F JUMP JUMPDEST PUSH3 0x2794 JUMP JUMPDEST CALLVALUE DUP1 ISZERO PUSH3 0x949 JUMPI PUSH1 0x0 DUP1 REVERT JUMPDEST POP PUSH3 0x3F5 PUSH1 0x3 SLOAD DUP2 JUMP JUMPDEST CALLVALUE DUP1 ISZERO PUSH3 0x961 JUMPI PUSH1 0x0 DUP1 REVERT JUMPDEST POP PUSH1 0x1 SLOAD PUSH3 0x8E6 SWAP1 PUSH1 0x1 PUSH1 0x1 PUSH1 0xA0 SHL SUB AND DUP2 JUMP JUMPDEST CALLVALUE DUP1 ISZERO PUSH3 0x983 JUMPI PUSH1 0x0 DUP1 REVERT JUMPDEST POP PUSH3 0x3F5 PUSH1 0x8 SLOAD DUP2 JUMP JUMPDEST CALLVALUE DUP1 ISZERO PUSH3 0x99B JUMPI PUSH1 0x0 DUP1 REVERT JUMPDEST POP PUSH3 0x42D PUSH3 0x9AD CALLDATASIZE PUSH1 0x4 PUSH3 0x3606 JUMP JUMPDEST PUSH3 0x2827 JUMP JUMPDEST CALLVALUE DUP1 ISZERO PUSH3 0x9C0 JUMPI PUSH1 0x0 DUP1 REVERT JUMPDEST POP PUSH3 0x3F5 PUSH3 0x9D2 CALLDATASIZE PUSH1 0x4 PUSH3 0x35E6 JUMP JUMPDEST PUSH3 0x2859 JUMP JUMPDEST CALLVALUE DUP1 ISZERO PUSH3 0x9E5 JUMPI PUSH1 0x0 DUP1 REVERT JUMPDEST POP PUSH3 0x758 PUSH3 0x28CB JUMP JUMPDEST CALLVALUE DUP1 ISZERO PUSH3 0x9FD JUMPI PUSH1 0x0 DUP1 REVERT JUMPDEST POP PUSH3 0x3F5 PUSH3 0xA0F CALLDATASIZE PUSH1 0x4 PUSH3 0x35E6 JUMP JUMPDEST PUSH1 0x18 PUSH1 0x20 MSTORE PUSH1 0x0 SWAP1 DUP2 MSTORE PUSH1 0x40 SWAP1 KECCAK256 SLOAD DUP2 JUMP JUMPDEST CALLVALUE DUP1 ISZERO PUSH3 0xA2E JUMPI PUSH1 0x0 DUP1 REVERT JUMPDEST POP PUSH3 0x3F5 PUSH3 0xA40 CALLDATASIZE PUSH1 0x4 PUSH3 0x35E6 JUMP JUMPDEST PUSH1 0x11 PUSH1 0x20 MSTORE PUSH1 0x0 SWAP1 DUP2 MSTORE PUSH1 0x40 SWAP1 KECCAK256 SLOAD DUP2 JUMP JUMPDEST CALLVALUE DUP1 ISZERO PUSH3 0xA5F JUMPI PUSH1 0x0 DUP1 REVERT JUMPDEST POP PUSH3 0x8E6 PUSH3 0xA71 CALLDATASIZE PUSH1 0x4 PUSH3 0x3C32 JUMP JUMPDEST PUSH3 0x2915 JUMP JUMPDEST CALLVALUE DUP1 ISZERO PUSH3 0xA84 JUMPI PUSH1 0x0 DUP1 REVERT JUMPDEST POP PUSH3 0x869 PUSH3 0xA96 CALLDATASIZE PUSH1 0x4 PUSH3 0x35E6 JUMP JUMPDEST PUSH3 0x2D16 JUMP JUMPDEST CALLVALUE DUP1 ISZERO PUSH3 0xAA9 JUMPI PUSH1 0x0 DUP1 REVERT JUMPDEST POP PUSH3 0x3F5 PUSH3 0xABB CALLDATASIZE PUSH1 0x4 PUSH3 0x35E6 JUMP JUMPDEST PUSH1 0x1 PUSH1 0x1 PUSH1 0xA0 SHL SUB AND BALANCE SWAP1 JUMP JUMPDEST CALLVALUE DUP1 ISZERO PUSH3 0xAD5 JUMPI PUSH1 0x0 DUP1 REVERT JUMPDEST POP PUSH3 0x3F5 PUSH3 0xAE7 CALLDATASIZE PUSH1 0x4 PUSH3 0x35E6 JUMP JUMPDEST PUSH1 0x5 PUSH1 0x20 MSTORE PUSH1 0x0 SWAP1 DUP2 MSTORE PUSH1 0x40 SWAP1 KECCAK256 SLOAD DUP2 JUMP JUMPDEST CALLVALUE DUP1 ISZERO PUSH3 0xB06 JUMPI PUSH1 0x0 DUP1 REVERT JUMPDEST POP PUSH3 0x692 PUSH3 0xB18 CALLDATASIZE PUSH1 0x4 PUSH3 0x39EC JUMP JUMPDEST PUSH3 0x2DB8 JUMP JUMPDEST CALLVALUE DUP1 ISZERO PUSH3 0xB2B JUMPI PUSH1 0x0 DUP1 REVERT JUMPDEST POP PUSH3 0x42D PUSH3 0xB3D CALLDATASIZE PUSH1 0x4 PUSH3 0x38EA JUMP JUMPDEST PUSH3 0x3062 JUMP JUMPDEST CALLVALUE DUP1 ISZERO PUSH3 0xB50 JUMPI PUSH1 0x0 DUP1 REVERT JUMPDEST POP PUSH3 0xB68 PUSH3 0xB62 CALLDATASIZE PUSH1 0x4 PUSH3 0x35E6 JUMP JUMPDEST PUSH3 0x3131 JUMP JUMPDEST PUSH1 0x40 MLOAD PUSH3 0x3FF SWAP2 SWAP1 PUSH3 0x3C86 JUMP JUMPDEST CALLVALUE DUP1 ISZERO PUSH3 0xB84 JUMPI PUSH1 0x0 DUP1 REVERT JUMPDEST POP PUSH3 0x3F5 PUSH1 0xB SLOAD DUP2 JUMP JUMPDEST CALLVALUE DUP1 ISZERO PUSH3 0xB9C JUMPI PUSH1 0x0 DUP1 REVERT JUMPDEST POP PUSH3 0x869 PUSH3 0x3342 JUMP JUMPDEST CALLVALUE DUP1 ISZERO PUSH3 0xBB4 JUMPI PUSH1 0x0 DUP1 REVERT JUMPDEST POP SELFBALANCE PUSH3 0x3F5 JUMP JUMPDEST CALLVALUE DUP1 ISZERO PUSH3 0xBC9 JUMPI PUSH1 0x0 DUP1 REVERT JUMPDEST POP PUSH3 0x42D PUSH3 0xBDB CALLDATASIZE PUSH1 0x4 PUSH3 0x35E6 JUMP JUMPDEST PUSH3 0x338D JUMP JUMPDEST CALLVALUE DUP1 ISZERO PUSH3 0xBEE JUMPI PUSH1 0x0 DUP1 REVERT JUMPDEST POP PUSH3 0x3F5 PUSH3 0xC00 CALLDATASIZE PUSH1 0x4 PUSH3 0x35E6 JUMP JUMPDEST PUSH1 0xF PUSH1 0x20 MSTORE PUSH1 0x0 SWAP1 DUP2 MSTORE PUSH1 0x40 SWAP1 KECCAK256 SLOAD DUP2 JUMP JUMPDEST PUSH1 0x40 MLOAD PUSH4 0x17E26BC9 PUSH1 0xE1 SHL DUP2 MSTORE PUSH20 0x0 SWAP1 PUSH4 0x2FC4D792 SWAP1 PUSH3 0xC4E SWAP1 PUSH1 0x1C SWAP1 CALLER SWAP1 PUSH1 0x4 ADD PUSH3 0x3C9B JUMP JUMPDEST PUSH1 0x20 PUSH1 0x40 MLOAD DUP1 DUP4 SUB DUP2 DUP7 GAS DELEGATECALL ISZERO DUP1 ISZERO PUSH3 0xC6C JUMPI RETURNDATASIZE PUSH1 0x0 DUP1 RETURNDATACOPY RETURNDATASIZE PUSH1 0x0 REVERT JUMPDEST POP POP POP POP PUSH1 0x40 MLOAD RETURNDATASIZE PUSH1 0x1F NOT PUSH1 0x1F DUP3 ADD AND DUP3 ADD DUP1 PUSH1 0x40 MSTORE POP DUP2 ADD SWAP1 PUSH3 0xC92 SWAP2 SWAP1 PUSH3 0x3CB2 JUMP JUMPDEST ISZERO ISZERO PUSH1 0x1 EQ PUSH3 0xCBF JUMPI PUSH1 0x40 MLOAD PUSH3 0x461BCD PUSH1 0xE5 SHL DUP2 MSTORE PUSH1 0x4 ADD PUSH3 0xCB6 SWAP1 PUSH3 0x3CD2 JUMP JUMPDEST PUSH1 0x40 MLOAD DUP1 SWAP2 SUB SWAP1 REVERT JUMPDEST PUSH1 0x1A SSTORE JUMP JUMPDEST PUSH1 0x40 MLOAD PUSH4 0xC3D3C75 PUSH1 0xE4 SHL DUP2 MSTORE PUSH1 0xC PUSH1 0x4 DUP3 ADD MSTORE PUSH1 0x60 SWAP1 PUSH1 0x0 SWAP1 PUSH20 0x0 SWAP1 PUSH4 0xC3D3C750 SWAP1 PUSH1 0x24 ADD PUSH1 0x20 PUSH1 0x40 MLOAD DUP1 DUP4 SUB DUP2 DUP7 GAS DELEGATECALL ISZERO DUP1 ISZERO PUSH3 0xD1B JUMPI RETURNDATASIZE PUSH1 0x0 DUP1 RETURNDATACOPY RETURNDATASIZE PUSH1 0x0 REVERT JUMPDEST POP POP POP POP PUSH1 0x40 MLOAD RETURNDATASIZE PUSH1 0x1F NOT PUSH1 0x1F DUP3 ADD AND DUP3 ADD DUP1 PUSH1 0x40 MSTORE POP DUP2 ADD SWAP1 PUSH3 0xD41 SWAP2 SWAP1 PUSH3 0x3CFD JUMP JUMPDEST PUSH8 0xFFFFFFFFFFFFFFFF DUP2 GT ISZERO PUSH3 0xD5C JUMPI PUSH3 0xD5C PUSH3 0x3819 JUMP JUMPDEST PUSH1 0x40 MLOAD SWAP1 DUP1 DUP3 MSTORE DUP1 PUSH1 0x20 MUL PUSH1 0x20 ADD DUP3 ADD PUSH1 0x40 MSTORE DUP1 ISZERO PUSH3 0xD99 JUMPI DUP2 PUSH1 0x20 ADD JUMPDEST PUSH3 0xD85 PUSH3 0x3434 JUMP JUMPDEST DUP2 MSTORE PUSH1 0x20 ADD SWAP1 PUSH1 0x1 SWAP1 SUB SWAP1 DUP2 PUSH3 0xD7B JUMPI SWAP1 POP JUMPDEST POP SWAP1 POP PUSH1 0x0 JUMPDEST PUSH1 0x40 MLOAD PUSH4 0xC3D3C75 PUSH1 0xE4 SHL DUP2 MSTORE PUSH1 0xC PUSH1 0x4 DUP3 ADD MSTORE PUSH20 0x0 SWAP1 PUSH4 0xC3D3C750 SWAP1 PUSH1 0x24 ADD PUSH1 0x20 PUSH1 0x40 MLOAD DUP1 DUP4 SUB DUP2 DUP7 GAS DELEGATECALL ISZERO DUP1 ISZERO PUSH3 0xDF0 JUMPI RETURNDATASIZE PUSH1 0x0 DUP1 RETURNDATACOPY RETURNDATASIZE PUSH1 0x0 REVERT JUMPDEST POP POP POP POP PUSH1 0x40 MLOAD RETURNDATASIZE PUSH1 0x1F NOT PUSH1 0x1F DUP3 ADD AND DUP3 ADD DUP1 PUSH1 0x40 MSTORE POP DUP2 ADD SWAP1 PUSH3 0xE16 SWAP2 SWAP1 PUSH3 0x3CFD JUMP JUMPDEST DUP2 LT ISZERO PUSH3 0xED7 JUMPI PUSH1 0x40 MLOAD PUSH4 0x182C6DB PUSH1 0xE3 SHL DUP2 MSTORE PUSH1 0xC PUSH1 0x4 DUP3 ADD MSTORE PUSH1 0x24 DUP2 ADD DUP3 SWAP1 MSTORE PUSH3 0xEA1 SWAP1 PUSH20 0x0 SWAP1 PUSH4 0xC1636D8 SWAP1 PUSH1 0x44 ADD PUSH1 0x20 PUSH1 0x40 MLOAD DUP1 DUP4 SUB DUP2 DUP7 GAS DELEGATECALL ISZERO DUP1 ISZERO PUSH3 0xE7B JUMPI RETURNDATASIZE PUSH1 0x0 DUP1 RETURNDATACOPY RETURNDATASIZE PUSH1 0x0 REVERT JUMPDEST POP POP POP POP PUSH1 0x40 MLOAD RETURNDATASIZE PUSH1 0x1F NOT PUSH1 0x1F DUP3 ADD AND DUP3 ADD DUP1 PUSH1 0x40 MSTORE POP DUP2 ADD SWAP1 PUSH3 0xB62 SWAP2 SWAP1 PUSH3 0x3D17 JUMP JUMPDEST DUP3 DUP3 DUP2 MLOAD DUP2 LT PUSH3 0xEB6 JUMPI PUSH3 0xEB6 PUSH3 0x3D37 JUMP JUMPDEST PUSH1 0x20 MUL PUSH1 0x20 ADD ADD DUP2 SWAP1 MSTORE POP DUP1 DUP1 PUSH3 0xECE SWAP1 PUSH3 0x3D63 JUMP JUMPDEST SWAP2 POP POP PUSH3 0xD9F JUMP JUMPDEST POP SWAP2 SWAP1 POP JUMP JUMPDEST PUSH1 0x40 MLOAD PUSH4 0x17E26BC9 PUSH1 0xE1 SHL DUP2 MSTORE PUSH1 0x0 SWAP1 PUSH20 0x0 SWAP1 PUSH4 0x2FC4D792 SWAP1 PUSH3 0xF1C SWAP1 PUSH1 0xC SWAP1 DUP7 SWAP1 PUSH1 0x4 ADD PUSH3 0x3C9B JUMP JUMPDEST PUSH1 0x20 PUSH1 0x40 MLOAD DUP1 DUP4 SUB DUP2 DUP7 GAS DELEGATECALL ISZERO DUP1 ISZERO PUSH3 0xF3A JUMPI RETURNDATASIZE PUSH1 0x0 DUP1 RETURNDATACOPY RETURNDATASIZE PUSH1 0x0 REVERT JUMPDEST POP POP POP POP PUSH1 0x40 MLOAD RETURNDATASIZE PUSH1 0x1F NOT PUSH1 0x1F DUP3 ADD AND DUP3 ADD DUP1 PUSH1 0x40 MSTORE POP DUP2 ADD SWAP1 PUSH3 0xF60 SWAP2 SWAP1 PUSH3 0x3CB2 JUMP JUMPDEST SWAP3 SWAP2 POP POP JUMP JUMPDEST PUSH1 0x40 MLOAD PUSH4 0x17E26BC9 PUSH1 0xE1 SHL DUP2 MSTORE PUSH1 0x0 SWAP1 PUSH20 0x0 SWAP1 PUSH4 0x2FC4D792 SWAP1 PUSH3 0xF1C SWAP1 PUSH1 0x1C SWAP1 DUP7 SWAP1 PUSH1 0x4 ADD PUSH3 0x3C9B JUMP JUMPDEST CALLER PUSH1 0x0 SWAP1 DUP2 MSTORE PUSH1 0x5 PUSH1 0x20 MSTORE PUSH1 0x40 SWAP1 KECCAK256 SLOAD PUSH3 0xFFA JUMPI PUSH1 0x40 MLOAD PUSH3 0x461BCD PUSH1 0xE5 SHL DUP2 MSTORE PUSH1 0x20 PUSH1 0x4 DUP3 ADD MSTORE PUSH1 0x14 PUSH1 0x24 DUP3 ADD MSTORE PUSH20 0x21B0B636103737BA10333937B6903937BABA32B9 PUSH1 0x61 SHL PUSH1 0x44 DUP3 ADD MSTORE PUSH1 0x64 ADD PUSH3 0xCB6 JUMP JUMPDEST CALLER PUSH1 0x0 SWAP1 DUP2 MSTORE PUSH1 0x5 PUSH1 0x20 SWAP1 DUP2 MSTORE PUSH1 0x40 DUP1 DUP4 KECCAK256 SLOAD DUP1 DUP5 MSTORE PUSH1 0x4 SWAP3 DUP4 SWAP1 MSTORE SWAP3 KECCAK256 ADD SLOAD PUSH3 0x1068 JUMPI PUSH1 0x40 MLOAD PUSH3 0x461BCD PUSH1 0xE5 SHL DUP2 MSTORE PUSH1 0x20 PUSH1 0x4 DUP3 ADD MSTORE PUSH1 0x18 PUSH1 0x24 DUP3 ADD MSTORE PUSH32 0x5468697320636F6465206E6F74206D696E746564207965740000000000000000 PUSH1 0x44 DUP3 ADD MSTORE PUSH1 0x64 ADD PUSH3 0xCB6 JUMP JUMPDEST PUSH1 0x0 DUP2 DUP2 MSTORE PUSH1 0x4 PUSH1 0x20 MSTORE PUSH1 0x40 SWAP1 KECCAK256 PUSH1 0x5 ADD SLOAD ISZERO PUSH3 0x10C9 JUMPI PUSH1 0x40 MLOAD PUSH3 0x461BCD PUSH1 0xE5 SHL DUP2 MSTORE PUSH1 0x20 PUSH1 0x4 DUP3 ADD MSTORE PUSH1 0x19 PUSH1 0x24 DUP3 ADD MSTORE PUSH32 0x5468697320636F646520616C726561647920636C61696D656400000000000000 PUSH1 0x44 DUP3 ADD MSTORE PUSH1 0x64 ADD PUSH3 0xCB6 JUMP JUMPDEST PUSH1 0x0 DUP2 DUP2 MSTORE PUSH1 0x4 PUSH1 0x20 DUP2 SWAP1 MSTORE PUSH1 0x40 SWAP1 SWAP2 KECCAK256 PUSH1 0x6 DUP2 ADD SLOAD SWAP2 ADD SLOAD TIMESTAMP SWAP2 PUSH3 0x10EF SWAP2 PUSH3 0x3D81 JUMP JUMPDEST GT PUSH3 0x1132 JUMPI PUSH1 0x40 MLOAD PUSH3 0x461BCD PUSH1 0xE5 SHL DUP2 MSTORE PUSH1 0x20 PUSH1 0x4 DUP3 ADD MSTORE PUSH1 0x11 PUSH1 0x24 DUP3 ADD MSTORE PUSH17 0x145C90DBD919481A5CC8195E1C1A5C9959 PUSH1 0x7A SHL PUSH1 0x44 DUP3 ADD MSTORE PUSH1 0x64 ADD PUSH3 0xCB6 JUMP JUMPDEST PUSH1 0x0 DUP2 DUP2 MSTORE PUSH1 0x4 PUSH1 0x20 SWAP1 DUP2 MSTORE PUSH1 0x40 DUP1 DUP4 KECCAK256 PUSH1 0x1 ADD SLOAD PUSH1 0x1 PUSH1 0x1 PUSH1 0xA0 SHL SUB DUP7 AND DUP5 MSTORE PUSH1 0x16 SWAP1 SWAP3 MSTORE DUP3 KECCAK256 DUP1 SLOAD SWAP2 SWAP3 SWAP1 SWAP2 PUSH3 0x116D SWAP1 DUP5 SWAP1 PUSH3 0x3D81 JUMP JUMPDEST SWAP1 SWAP2 SSTORE POP POP PUSH1 0x1 PUSH1 0x1 PUSH1 0xA0 SHL SUB DUP3 AND PUSH1 0x0 DUP2 DUP2 MSTORE PUSH1 0x17 PUSH1 0x20 SWAP1 DUP2 MSTORE PUSH1 0x40 DUP1 DUP4 KECCAK256 DUP1 SLOAD PUSH1 0x1 DUP2 ADD DUP3 SSTORE SWAP1 DUP5 MSTORE DUP3 DUP5 KECCAK256 ADD DUP6 SWAP1 SSTORE SWAP3 DUP3 MSTORE PUSH1 0x18 SWAP1 MSTORE SWAP1 DUP2 KECCAK256 DUP1 SLOAD SWAP2 PUSH3 0x11B7 DUP4 PUSH3 0x3D63 JUMP JUMPDEST SWAP1 SWAP2 SSTORE POP POP PUSH1 0x8 DUP1 SLOAD SWAP1 PUSH1 0x0 PUSH3 0x11CE DUP4 PUSH3 0x3D63 JUMP JUMPDEST SWAP1 SWAP2 SSTORE POP POP PUSH1 0x0 DUP2 DUP2 MSTORE PUSH1 0x4 PUSH1 0x20 SWAP1 DUP2 MSTORE PUSH1 0x40 DUP1 DUP4 KECCAK256 PUSH1 0x1 DUP2 ADD SLOAD PUSH1 0x2 SWAP1 SWAP2 ADD SLOAD PUSH1 0x1 PUSH1 0x1 PUSH1 0xA0 SHL SUB AND DUP5 MSTORE PUSH1 0x12 SWAP1 SWAP3 MSTORE DUP3 KECCAK256 DUP1 SLOAD SWAP2 SWAP3 SWAP1 SWAP2 PUSH3 0x1214 SWAP1 DUP5 SWAP1 PUSH3 0x3D81 JUMP JUMPDEST SWAP1 SWAP2 SSTORE POP POP PUSH1 0x0 DUP2 DUP2 MSTORE PUSH1 0x4 PUSH1 0x20 MSTORE PUSH1 0x40 DUP2 KECCAK256 PUSH1 0x1 ADD SLOAD PUSH1 0xA DUP1 SLOAD SWAP2 SWAP3 SWAP1 SWAP2 PUSH3 0x1240 SWAP1 DUP5 SWAP1 PUSH3 0x3D81 JUMP JUMPDEST SWAP1 SWAP2 SSTORE POP POP PUSH1 0x0 DUP2 DUP2 MSTORE PUSH1 0x4 PUSH1 0x20 DUP2 SWAP1 MSTORE PUSH1 0x40 SWAP2 DUP3 SWAP1 KECCAK256 PUSH1 0x3 DUP2 ADD DUP1 SLOAD PUSH1 0x1 PUSH1 0x1 PUSH1 0xA0 SHL SUB NOT AND PUSH1 0x1 PUSH1 0x1 PUSH1 0xA0 SHL SUB DUP8 AND OR SWAP1 SSTORE NUMBER PUSH1 0x5 SWAP1 SWAP2 ADD SSTORE SWAP1 MLOAD PUSH4 0x9F75F0A3 PUSH1 0xE0 SHL DUP2 MSTORE PUSH20 0x0 SWAP2 PUSH4 0x9F75F0A3 SWAP2 PUSH3 0x12B4 SWAP2 PUSH1 0x14 SWAP2 DUP8 SWAP2 ADD PUSH3 0x3C9B JUMP JUMPDEST PUSH1 0x0 PUSH1 0x40 MLOAD DUP1 DUP4 SUB DUP2 DUP7 DUP1 EXTCODESIZE ISZERO DUP1 ISZERO PUSH3 0x12CD JUMPI PUSH1 0x0 DUP1 REVERT JUMPDEST POP GAS DELEGATECALL ISZERO DUP1 ISZERO PUSH3 0x12E2 JUMPI RETURNDATASIZE PUSH1 0x0 DUP1 RETURNDATACOPY RETURNDATASIZE PUSH1 0x0 REVERT JUMPDEST POP POP PUSH1 0x1 DUP1 SLOAD PUSH1 0x0 DUP6 DUP2 MSTORE PUSH1 0x4 PUSH1 0x20 DUP2 SWAP1 MSTORE PUSH1 0x40 SWAP2 DUP3 SWAP1 KECCAK256 SWAP1 SWAP4 ADD SLOAD SWAP1 MLOAD PUSH4 0xA9059CBB PUSH1 0xE0 SHL DUP2 MSTORE PUSH1 0x1 PUSH1 0x1 PUSH1 0xA0 SHL SUB SWAP1 SWAP3 AND SWAP5 POP PUSH4 0xA9059CBB SWAP4 POP PUSH3 0x133F SWAP3 DUP8 SWAP3 ADD PUSH1 0x1 PUSH1 0x1 PUSH1 0xA0 SHL SUB SWAP3 SWAP1 SWAP3 AND DUP3 MSTORE PUSH1 0x20 DUP3 ADD MSTORE PUSH1 0x40 ADD SWAP1 JUMP JUMPDEST PUSH1 0x20 PUSH1 0x40 MLOAD DUP1 DUP4 SUB DUP2 PUSH1 0x0 DUP8 GAS CALL ISZERO DUP1 ISZERO PUSH3 0x135F JUMPI RETURNDATASIZE PUSH1 0x0 DUP1 RETURNDATACOPY RETURNDATASIZE PUSH1 0x0 REVERT JUMPDEST POP POP POP POP PUSH1 0x40 MLOAD RETURNDATASIZE PUSH1 0x1F NOT PUSH1 0x1F DUP3 ADD AND DUP3 ADD DUP1 PUSH1 0x40 MSTORE POP DUP2 ADD SWAP1 PUSH3 0x1385 SWAP2 SWAP1 PUSH3 0x3CB2 JUMP JUMPDEST POP PUSH1 0x3 SLOAD PUSH1 0x1 PUSH1 0x1 PUSH1 0xA0 SHL SUB DUP4 AND BALANCE SWAP1 DUP2 LT ISZERO PUSH3 0x1458 JUMPI PUSH1 0x0 DUP4 PUSH1 0x1 PUSH1 0x1 PUSH1 0xA0 SHL SUB AND BALANCE PUSH1 0x3 SLOAD PUSH3 0x13B9 SWAP2 SWAP1 PUSH3 0x3D9C JUMP JUMPDEST SWAP1 POP DUP1 PUSH1 0xB PUSH1 0x0 DUP3 DUP3 SLOAD PUSH3 0x13CF SWAP2 SWAP1 PUSH3 0x3D81 JUMP JUMPDEST SWAP1 SWAP2 SSTORE POP POP PUSH1 0x1 PUSH1 0x1 PUSH1 0xA0 SHL SUB DUP5 AND PUSH1 0x0 SWAP1 DUP2 MSTORE PUSH1 0x19 PUSH1 0x20 MSTORE PUSH1 0x40 DUP2 KECCAK256 DUP1 SLOAD DUP4 SWAP3 SWAP1 PUSH3 0x13FE SWAP1 DUP5 SWAP1 PUSH3 0x3D81 JUMP JUMPDEST SWAP1 SWAP2 SSTORE POP POP PUSH1 0x40 MLOAD PUSH1 0x1 PUSH1 0x1 PUSH1 0xA0 SHL SUB DUP6 AND SWAP1 DUP3 SWAP1 PUSH1 0x0 DUP2 DUP2 DUP2 DUP6 DUP8 GAS CALL SWAP3 POP POP POP RETURNDATASIZE DUP1 PUSH1 0x0 DUP2 EQ PUSH3 0x144E JUMPI PUSH1 0x40 MLOAD SWAP2 POP PUSH1 0x1F NOT PUSH1 0x3F RETURNDATASIZE ADD AND DUP3 ADD PUSH1 0x40 MSTORE RETURNDATASIZE DUP3 MSTORE RETURNDATASIZE PUSH1 0x0 PUSH1 0x20 DUP5 ADD RETURNDATACOPY PUSH3 0x1453 JUMP JUMPDEST PUSH1 0x60 SWAP2 POP JUMPDEST POP POP POP POP JUMPDEST POP POP POP JUMP JUMPDEST PUSH1 0x10 PUSH1 0x20 MSTORE DUP2 PUSH1 0x0 MSTORE PUSH1 0x40 PUSH1 0x0 KECCAK256 DUP2 DUP2 SLOAD DUP2 LT PUSH3 0x147A JUMPI PUSH1 0x0 DUP1 REVERT JUMPDEST SWAP1 PUSH1 0x0 MSTORE PUSH1 0x20 PUSH1 0x0 KECCAK256 ADD PUSH1 0x0 SWAP2 POP SWAP2 POP POP SLOAD DUP2 JUMP JUMPDEST PUSH1 0x1 SLOAD PUSH1 0x40 DUP1 MLOAD PUSH4 0x313CE567 PUSH1 0xE0 SHL DUP2 MSTORE SWAP1 MLOAD PUSH1 0x0 SWAP3 PUSH1 0x1 PUSH1 0x1 PUSH1 0xA0 SHL SUB AND SWAP2 PUSH4 0x313CE567 SWAP2 PUSH1 0x4 DUP1 DUP4 ADD SWAP3 PUSH1 0x20 SWAP3 SWAP2 SWAP1 DUP3 SWAP1 SUB ADD DUP2 DUP7 GAS STATICCALL ISZERO DUP1 ISZERO PUSH3 0x14DA JUMPI RETURNDATASIZE PUSH1 0x0 DUP1 RETURNDATACOPY RETURNDATASIZE PUSH1 0x0 REVERT JUMPDEST POP POP POP POP PUSH1 0x40 MLOAD RETURNDATASIZE PUSH1 0x1F NOT PUSH1 0x1F DUP3 ADD AND DUP3 ADD DUP1 PUSH1 0x40 MSTORE POP DUP2 ADD SWAP1 PUSH3 0x1500 SWAP2 SWAP1 PUSH3 0x3DB6 JUMP JUMPDEST PUSH1 0xFF AND SWAP1 POP SWAP1 JUMP JUMPDEST PUSH1 0x0 SLOAD PUSH1 0x1 PUSH1 0x1 PUSH1 0xA0 SHL SUB AND CALLER EQ PUSH3 0x1535 JUMPI PUSH1 0x40 MLOAD PUSH3 0x461BCD PUSH1 0xE5 SHL DUP2 MSTORE PUSH1 0x4 ADD PUSH3 0xCB6 SWAP1 PUSH3 0x3DDB JUMP JUMPDEST DUP1 ISZERO PUSH3 0x15AE JUMPI PUSH1 0x40 MLOAD PUSH4 0x9F75F0A3 PUSH1 0xE0 SHL DUP2 MSTORE PUSH20 0x0 SWAP1 PUSH4 0x9F75F0A3 SWAP1 PUSH3 0x1578 SWAP1 PUSH1 0x1C SWAP1 DUP7 SWAP1 PUSH1 0x4 ADD PUSH3 0x3C9B JUMP JUMPDEST PUSH1 0x0 PUSH1 0x40 MLOAD DUP1 DUP4 SUB DUP2 DUP7 DUP1 EXTCODESIZE ISZERO DUP1 ISZERO PUSH3 0x1591 JUMPI PUSH1 0x0 DUP1 REVERT JUMPDEST POP GAS DELEGATECALL ISZERO DUP1 ISZERO PUSH3 0x15A6 JUMPI RETURNDATASIZE PUSH1 0x0 DUP1 RETURNDATACOPY RETURNDATASIZE PUSH1 0x0 REVERT JUMPDEST POP POP POP POP POP POP JUMP JUMPDEST PUSH1 0x40 MLOAD PUSH4 0xA8AFEF95 PUSH1 0xE0 SHL DUP2 MSTORE PUSH20 0x0 SWAP1 PUSH4 0xA8AFEF95 SWAP1 PUSH3 0x1578 SWAP1 PUSH1 0x1C SWAP1 DUP7 SWAP1 PUSH1 0x4 ADD PUSH3 0x3C9B JUMP JUMPDEST PUSH1 0x1 PUSH1 0x1 PUSH1 0xA0 SHL SUB DUP2 AND PUSH1 0x0 SWAP1 DUP2 MSTORE PUSH1 0x5 PUSH1 0x20 MSTORE PUSH1 0x40 DUP2 KECCAK256 SLOAD ISZERO PUSH3 0x163F JUMPI PUSH1 0x1 PUSH1 0x1 PUSH1 0xA0 SHL SUB DUP3 AND PUSH1 0x0 SWAP1 DUP2 MSTORE PUSH1 0x5 PUSH1 0x20 DUP2 DUP2 MSTORE PUSH1 0x40 DUP1 DUP5 KECCAK256 SLOAD DUP5 MSTORE PUSH1 0x4 SWAP1 SWAP2 MSTORE SWAP1 SWAP2 KECCAK256 ADD SLOAD ISZERO PUSH3 0x163F JUMPI PUSH1 0x1 PUSH3 0xF60 JUMP JUMPDEST PUSH1 0x0 SWAP3 SWAP2 POP POP JUMP JUMPDEST PUSH1 0x40 MLOAD PUSH4 0x17E26BC9 PUSH1 0xE1 SHL DUP2 MSTORE PUSH20 0x0 SWAP1 PUSH4 0x2FC4D792 SWAP1 PUSH3 0x1683 SWAP1 PUSH1 0x1C SWAP1 CALLER SWAP1 PUSH1 0x4 ADD PUSH3 0x3C9B JUMP JUMPDEST PUSH1 0x20 PUSH1 0x40 MLOAD DUP1 DUP4 SUB DUP2 DUP7 GAS DELEGATECALL ISZERO DUP1 ISZERO PUSH3 0x16A1 JUMPI RETURNDATASIZE PUSH1 0x0 DUP1 RETURNDATACOPY RETURNDATASIZE PUSH1 0x0 REVERT JUMPDEST POP POP POP POP PUSH1 0x40 MLOAD RETURNDATASIZE PUSH1 0x1F NOT PUSH1 0x1F DUP3 ADD AND DUP3 ADD DUP1 PUSH1 0x40 MSTORE POP DUP2 ADD SWAP1 PUSH3 0x16C7 SWAP2 SWAP1 PUSH3 0x3CB2 JUMP JUMPDEST ISZERO ISZERO PUSH1 0x1 EQ PUSH3 0x16EB JUMPI PUSH1 0x40 MLOAD PUSH3 0x461BCD PUSH1 0xE5 SHL DUP2 MSTORE PUSH1 0x4 ADD PUSH3 0xCB6 SWAP1 PUSH3 0x3CD2 JUMP JUMPDEST PUSH1 0x1 PUSH1 0x1 PUSH1 0xA0 SHL SUB DUP3 AND PUSH1 0x0 SWAP1 DUP2 MSTORE PUSH1 0x13 PUSH1 0x20 MSTORE PUSH1 0x40 SWAP1 KECCAK256 SLOAD PUSH3 0x1711 SWAP1 DUP3 SWAP1 PUSH3 0x3D81 JUMP JUMPDEST PUSH1 0x1 PUSH1 0x1 PUSH1 0xA0 SHL SUB SWAP1 SWAP3 AND PUSH1 0x0 SWAP1 DUP2 MSTORE PUSH1 0x13 PUSH1 0x20 MSTORE PUSH1 0x40 SWAP1 KECCAK256 SWAP2 SWAP1 SWAP2 SSTORE POP JUMP JUMPDEST PUSH1 0x40 MLOAD PUSH4 0x17E26BC9 PUSH1 0xE1 SHL DUP2 MSTORE PUSH20 0x0 SWAP1 PUSH4 0x2FC4D792 SWAP1 PUSH3 0x176D SWAP1 PUSH1 0x1C SWAP1 CALLER SWAP1 PUSH1 0x4 ADD PUSH3 0x3C9B JUMP JUMPDEST PUSH1 0x20 PUSH1 0x40 MLOAD DUP1 DUP4 SUB DUP2 DUP7 GAS DELEGATECALL ISZERO DUP1 ISZERO PUSH3 0x178B JUMPI RETURNDATASIZE PUSH1 0x0 DUP1 RETURNDATACOPY RETURNDATASIZE PUSH1 0x0 REVERT JUMPDEST POP POP POP POP PUSH1 0x40 MLOAD RETURNDATASIZE PUSH1 0x1F NOT PUSH1 0x1F DUP3 ADD AND DUP3 ADD DUP1 PUSH1 0x40 MSTORE POP DUP2 ADD SWAP1 PUSH3 0x17B1 SWAP2 SWAP1 PUSH3 0x3CB2 JUMP JUMPDEST ISZERO ISZERO PUSH1 0x1 EQ PUSH3 0x17D5 JUMPI PUSH1 0x40 MLOAD PUSH3 0x461BCD PUSH1 0xE5 SHL DUP2 MSTORE PUSH1 0x4 ADD PUSH3 0xCB6 SWAP1 PUSH3 0x3CD2 JUMP JUMPDEST PUSH1 0x40 MLOAD PUSH4 0x9F75F0A3 PUSH1 0xE0 SHL DUP2 MSTORE PUSH20 0x0 SWAP1 PUSH4 0x9F75F0A3 SWAP1 PUSH3 0x1811 SWAP1 PUSH1 0xC SWAP1 DUP7 SWAP1 PUSH1 0x4 ADD PUSH3 0x3C9B JUMP JUMPDEST PUSH1 0x0 PUSH1 0x40 MLOAD DUP1 DUP4 SUB DUP2 DUP7 DUP1 EXTCODESIZE ISZERO DUP1 ISZERO PUSH3 0x182A JUMPI PUSH1 0x0 DUP1 REVERT JUMPDEST POP GAS DELEGATECALL ISZERO DUP1 ISZERO PUSH3 0x183F JUMPI RETURNDATASIZE PUSH1 0x0 DUP1 RETURNDATACOPY RETURNDATASIZE PUSH1 0x0 REVERT JUMPDEST POP POP POP POP PUSH1 0x1 PUSH1 0x1 PUSH1 0xA0 SHL SUB DUP3 AND PUSH1 0x0 SWAP1 DUP2 MSTORE PUSH1 0xE PUSH1 0x20 SWAP1 DUP2 MSTORE PUSH1 0x40 SWAP1 SWAP2 KECCAK256 DUP3 MLOAD PUSH3 0x1458 SWAP3 DUP5 ADD SWAP1 PUSH3 0x347A JUMP JUMPDEST PUSH1 0x40 MLOAD PUSH4 0xC3D3C75 PUSH1 0xE4 SHL DUP2 MSTORE PUSH1 0x14 PUSH1 0x4 DUP3 ADD MSTORE PUSH1 0x60 SWAP1 PUSH1 0x0 SWAP1 PUSH20 0x0 SWAP1 PUSH4 0xC3D3C750 SWAP1 PUSH1 0x24 ADD PUSH1 0x20 PUSH1 0x40 MLOAD DUP1 DUP4 SUB DUP2 DUP7 GAS DELEGATECALL ISZERO DUP1 ISZERO PUSH3 0x18C5 JUMPI RETURNDATASIZE PUSH1 0x0 DUP1 RETURNDATACOPY RETURNDATASIZE PUSH1 0x0 REVERT JUMPDEST POP POP POP POP PUSH1 0x40 MLOAD RETURNDATASIZE PUSH1 0x1F NOT PUSH1 0x1F DUP3 ADD AND DUP3 ADD DUP1 PUSH1 0x40 MSTORE POP DUP2 ADD SWAP1 PUSH3 0x18EB SWAP2 SWAP1 PUSH3 0x3CFD JUMP JUMPDEST PUSH8 0xFFFFFFFFFFFFFFFF DUP2 GT ISZERO PUSH3 0x1906 JUMPI PUSH3 0x1906 PUSH3 0x3819 JUMP JUMPDEST PUSH1 0x40 MLOAD SWAP1 DUP1 DUP3 MSTORE DUP1 PUSH1 0x20 MUL PUSH1 0x20 ADD DUP3 ADD PUSH1 0x40 MSTORE DUP1 ISZERO PUSH3 0x1943 JUMPI DUP2 PUSH1 0x20 ADD JUMPDEST PUSH3 0x192F PUSH3 0x3509 JUMP JUMPDEST DUP2 MSTORE PUSH1 0x20 ADD SWAP1 PUSH1 0x1 SWAP1 SUB SWAP1 DUP2 PUSH3 0x1925 JUMPI SWAP1 POP JUMPDEST POP SWAP1 POP PUSH1 0x0 JUMPDEST PUSH1 0x40 MLOAD PUSH4 0xC3D3C75 PUSH1 0xE4 SHL DUP2 MSTORE PUSH1 0x14 PUSH1 0x4 DUP3 ADD MSTORE PUSH20 0x0 SWAP1 PUSH4 0xC3D3C750 SWAP1 PUSH1 0x24 ADD PUSH1 0x20 PUSH1 0x40 MLOAD DUP1 DUP4 SUB DUP2 DUP7 GAS DELEGATECALL ISZERO DUP1 ISZERO PUSH3 0x199A JUMPI RETURNDATASIZE PUSH1 0x0 DUP1 RETURNDATACOPY RETURNDATASIZE PUSH1 0x0 REVERT JUMPDEST POP POP POP POP PUSH1 0x40 MLOAD RETURNDATASIZE PUSH1 0x1F NOT PUSH1 0x1F DUP3 ADD AND DUP3 ADD DUP1 PUSH1 0x40 MSTORE POP DUP2 ADD SWAP1 PUSH3 0x19C0 SWAP2 SWAP1 PUSH3 0x3CFD JUMP JUMPDEST DUP2 LT ISZERO PUSH3 0xED7 JUMPI PUSH1 0x40 MLOAD PUSH4 0x182C6DB PUSH1 0xE3 SHL DUP2 MSTORE PUSH1 0x14 PUSH1 0x4 DUP3 ADD MSTORE PUSH1 0x24 DUP2 ADD DUP3 SWAP1 MSTORE PUSH3 0x1A4B SWAP1 PUSH20 0x0 SWAP1 PUSH4 0xC1636D8 SWAP1 PUSH1 0x44 ADD PUSH1 0x20 PUSH1 0x40 MLOAD DUP1 DUP4 SUB DUP2 DUP7 GAS DELEGATECALL ISZERO DUP1 ISZERO PUSH3 0x1A25 JUMPI RETURNDATASIZE PUSH1 0x0 DUP1 RETURNDATACOPY RETURNDATASIZE PUSH1 0x0 REVERT JUMPDEST POP POP POP POP PUSH1 0x40 MLOAD RETURNDATASIZE PUSH1 0x1F NOT PUSH1 0x1F DUP3 ADD AND DUP3 ADD DUP1 PUSH1 0x40 MSTORE POP DUP2 ADD SWAP1 PUSH3 0x897 SWAP2 SWAP1 PUSH3 0x3D17 JUMP JUMPDEST DUP3 DUP3 DUP2 MLOAD DUP2 LT PUSH3 0x1A60 JUMPI PUSH3 0x1A60 PUSH3 0x3D37 JUMP JUMPDEST PUSH1 0x20 MUL PUSH1 0x20 ADD ADD DUP2 SWAP1 MSTORE POP DUP1 DUP1 PUSH3 0x1A78 SWAP1 PUSH3 0x3D63 JUMP JUMPDEST SWAP2 POP POP PUSH3 0x1949 JUMP JUMPDEST PUSH1 0x17 PUSH1 0x20 MSTORE DUP2 PUSH1 0x0 MSTORE PUSH1 0x40 PUSH1 0x0 KECCAK256 DUP2 DUP2 SLOAD DUP2 LT PUSH3 0x147A JUMPI PUSH1 0x0 DUP1 REVERT JUMPDEST PUSH1 0x1 PUSH1 0x1 PUSH1 0xA0 SHL SUB DUP4 AND PUSH1 0x0 SWAP1 DUP2 MSTORE PUSH1 0x17 PUSH1 0x20 MSTORE PUSH1 0x40 SWAP1 KECCAK256 SLOAD PUSH1 0x60 SWAP1 DUP3 ISZERO PUSH3 0x1AC4 JUMPI POP DUP2 JUMPDEST PUSH1 0x0 PUSH3 0x1AD2 DUP3 DUP7 PUSH3 0x3D81 JUMP JUMPDEST PUSH1 0x1 PUSH1 0x1 PUSH1 0xA0 SHL SUB DUP8 AND PUSH1 0x0 SWAP1 DUP2 MSTORE PUSH1 0x17 PUSH1 0x20 MSTORE PUSH1 0x40 SWAP1 KECCAK256 SLOAD SWAP1 SWAP2 POP DUP2 GT ISZERO PUSH3 0x1B11 JUMPI POP PUSH1 0x1 PUSH1 0x1 PUSH1 0xA0 SHL SUB DUP6 AND PUSH1 0x0 SWAP1 DUP2 MSTORE PUSH1 0x17 PUSH1 0x20 MSTORE PUSH1 0x40 SWAP1 KECCAK256 SLOAD JUMPDEST PUSH1 0x0 PUSH3 0x1B1F DUP7 DUP4 PUSH3 0x3D9C JUMP JUMPDEST PUSH8 0xFFFFFFFFFFFFFFFF DUP2 GT ISZERO PUSH3 0x1B3A JUMPI PUSH3 0x1B3A PUSH3 0x3819 JUMP JUMPDEST PUSH1 0x40 MLOAD SWAP1 DUP1 DUP3 MSTORE DUP1 PUSH1 0x20 MUL PUSH1 0x20 ADD DUP3 ADD PUSH1 0x40 MSTORE DUP1 ISZERO PUSH3 0x1B77 JUMPI DUP2 PUSH1 0x20 ADD JUMPDEST PUSH3 0x1B63 PUSH3 0x3541 JUMP JUMPDEST DUP2 MSTORE PUSH1 0x20 ADD SWAP1 PUSH1 0x1 SWAP1 SUB SWAP1 DUP2 PUSH3 0x1B59 JUMPI SWAP1 POP JUMPDEST POP SWAP1 POP PUSH1 0x0 JUMPDEST PUSH3 0x1B89 DUP8 DUP5 PUSH3 0x3D9C JUMP JUMPDEST DUP2 LT ISZERO PUSH3 0x1D48 JUMPI PUSH1 0x1 PUSH1 0x1 PUSH1 0xA0 SHL SUB DUP9 AND PUSH1 0x0 SWAP1 DUP2 MSTORE PUSH1 0x17 PUSH1 0x20 MSTORE PUSH1 0x40 DUP2 KECCAK256 DUP1 SLOAD PUSH1 0x4 SWAP3 SWAP2 SWAP1 PUSH1 0x1 SWAP1 DUP12 SWAP1 PUSH3 0x1BC2 SWAP1 DUP8 SWAP1 PUSH3 0x3D9C JUMP JUMPDEST PUSH3 0x1BCE SWAP2 SWAP1 PUSH3 0x3D9C JUMP JUMPDEST PUSH3 0x1BDA SWAP2 SWAP1 PUSH3 0x3D9C JUMP JUMPDEST DUP2 SLOAD DUP2 LT PUSH3 0x1BED JUMPI PUSH3 0x1BED PUSH3 0x3D37 JUMP JUMPDEST PUSH1 0x0 SWAP2 DUP3 MSTORE PUSH1 0x20 DUP1 DUP4 KECCAK256 SWAP1 SWAP2 ADD SLOAD DUP4 MSTORE DUP3 DUP2 ADD SWAP4 SWAP1 SWAP4 MSTORE PUSH1 0x40 SWAP2 DUP3 ADD SWAP1 KECCAK256 DUP2 MLOAD PUSH2 0x120 DUP2 ADD DUP4 MSTORE DUP2 SLOAD DUP2 MSTORE PUSH1 0x1 DUP3 ADD SLOAD SWAP4 DUP2 ADD SWAP4 SWAP1 SWAP4 MSTORE PUSH1 0x2 DUP2 ADD SLOAD PUSH1 0x1 PUSH1 0x1 PUSH1 0xA0 SHL SUB SWAP1 DUP2 AND SWAP3 DUP5 ADD SWAP3 SWAP1 SWAP3 MSTORE PUSH1 0x3 DUP2 ADD SLOAD DUP3 AND PUSH1 0x60 DUP5 ADD MSTORE PUSH1 0x4 DUP2 ADD SLOAD PUSH1 0x80 DUP5 ADD MSTORE PUSH1 0x5 DUP2 ADD SLOAD PUSH1 0xA0 DUP5 ADD MSTORE PUSH1 0x6 DUP2 ADD SLOAD PUSH1 0xC0 DUP5 ADD MSTORE PUSH1 0x7 DUP2 ADD SLOAD SWAP1 SWAP2 AND PUSH1 0xE0 DUP4 ADD MSTORE PUSH1 0x8 DUP2 ADD DUP1 SLOAD PUSH2 0x100 DUP5 ADD SWAP2 SWAP1 PUSH3 0x1C8A SWAP1 PUSH3 0x3E03 JUMP JUMPDEST DUP1 PUSH1 0x1F ADD PUSH1 0x20 DUP1 SWAP2 DIV MUL PUSH1 0x20 ADD PUSH1 0x40 MLOAD SWAP1 DUP2 ADD PUSH1 0x40 MSTORE DUP1 SWAP3 SWAP2 SWAP1 DUP2 DUP2 MSTORE PUSH1 0x20 ADD DUP3 DUP1 SLOAD PUSH3 0x1CB8 SWAP1 PUSH3 0x3E03 JUMP JUMPDEST DUP1 ISZERO PUSH3 0x1D09 JUMPI DUP1 PUSH1 0x1F LT PUSH3 0x1CDD JUMPI PUSH2 0x100 DUP1 DUP4 SLOAD DIV MUL DUP4 MSTORE SWAP2 PUSH1 0x20 ADD SWAP2 PUSH3 0x1D09 JUMP JUMPDEST DUP3 ADD SWAP2 SWAP1 PUSH1 0x0 MSTORE PUSH1 0x20 PUSH1 0x0 KECCAK256 SWAP1 JUMPDEST DUP2 SLOAD DUP2 MSTORE SWAP1 PUSH1 0x1 ADD SWAP1 PUSH1 0x20 ADD DUP1 DUP4 GT PUSH3 0x1CEB JUMPI DUP3 SWAP1 SUB PUSH1 0x1F AND DUP3 ADD SWAP2 JUMPDEST POP POP POP POP POP DUP2 MSTORE POP POP DUP3 DUP3 DUP2 MLOAD DUP2 LT PUSH3 0x1D27 JUMPI PUSH3 0x1D27 PUSH3 0x3D37 JUMP JUMPDEST PUSH1 0x20 MUL PUSH1 0x20 ADD ADD DUP2 SWAP1 MSTORE POP DUP1 DUP1 PUSH3 0x1D3F SWAP1 PUSH3 0x3D63 JUMP JUMPDEST SWAP2 POP POP PUSH3 0x1B7D JUMP JUMPDEST POP SWAP7 SWAP6 POP POP POP POP POP POP JUMP JUMPDEST PUSH1 0x60 PUSH1 0x0 PUSH1 0x7 SLOAD PUSH8 0xFFFFFFFFFFFFFFFF DUP2 GT ISZERO PUSH3 0x1D75 JUMPI PUSH3 0x1D75 PUSH3 0x3819 JUMP JUMPDEST PUSH1 0x40 MLOAD SWAP1 DUP1 DUP3 MSTORE DUP1 PUSH1 0x20 MUL PUSH1 0x20 ADD DUP3 ADD PUSH1 0x40 MSTORE DUP1 ISZERO PUSH3 0x1DB2 JUMPI DUP2 PUSH1 0x20 ADD JUMPDEST PUSH3 0x1D9E PUSH3 0x3541 JUMP JUMPDEST DUP2 MSTORE PUSH1 0x20 ADD SWAP1 PUSH1 0x1 SWAP1 SUB SWAP1 DUP2 PUSH3 0x1D94 JUMPI SWAP1 POP JUMPDEST POP SWAP1 POP PUSH1 0x1 JUMPDEST PUSH1 0x6 SLOAD DUP2 GT PUSH3 0xED7 JUMPI PUSH1 0x0 DUP2 DUP2 MSTORE PUSH1 0x4 PUSH1 0x20 DUP2 DUP2 MSTORE PUSH1 0x40 SWAP3 DUP4 SWAP1 KECCAK256 DUP4 MLOAD PUSH2 0x120 DUP2 ADD DUP6 MSTORE DUP2 SLOAD DUP2 MSTORE PUSH1 0x1 DUP3 ADD SLOAD SWAP3 DUP2 ADD SWAP3 SWAP1 SWAP3 MSTORE PUSH1 0x2 DUP2 ADD SLOAD PUSH1 0x1 PUSH1 0x1 PUSH1 0xA0 SHL SUB SWAP1 DUP2 AND SWAP5 DUP4 ADD SWAP5 SWAP1 SWAP5 MSTORE PUSH1 0x3 DUP2 ADD SLOAD DUP5 AND PUSH1 0x60 DUP4 ADD MSTORE SWAP2 DUP3 ADD SLOAD PUSH1 0x80 DUP3 ADD MSTORE PUSH1 0x5 DUP3 ADD SLOAD PUSH1 0xA0 DUP3 ADD MSTORE PUSH1 0x6 DUP3 ADD SLOAD PUSH1 0xC0 DUP3 ADD MSTORE PUSH1 0x7 DUP3 ADD SLOAD SWAP1 SWAP3 AND PUSH1 0xE0 DUP4 ADD MSTORE PUSH1 0x8 DUP2 ADD DUP1 SLOAD PUSH2 0x100 DUP5 ADD SWAP2 SWAP1 PUSH3 0x1E52 SWAP1 PUSH3 0x3E03 JUMP JUMPDEST DUP1 PUSH1 0x1F ADD PUSH1 0x20 DUP1 SWAP2 DIV MUL PUSH1 0x20 ADD PUSH1 0x40 MLOAD SWAP1 DUP2 ADD PUSH1 0x40 MSTORE DUP1 SWAP3 SWAP2 SWAP1 DUP2 DUP2 MSTORE PUSH1 0x20 ADD DUP3 DUP1 SLOAD PUSH3 0x1E80 SWAP1 PUSH3 0x3E03 JUMP JUMPDEST DUP1 ISZERO PUSH3 0x1ED1 JUMPI DUP1 PUSH1 0x1F LT PUSH3 0x1EA5 JUMPI PUSH2 0x100 DUP1 DUP4 SLOAD DIV MUL DUP4 MSTORE SWAP2 PUSH1 0x20 ADD SWAP2 PUSH3 0x1ED1 JUMP JUMPDEST DUP3 ADD SWAP2 SWAP1 PUSH1 0x0 MSTORE PUSH1 0x20 PUSH1 0x0 KECCAK256 SWAP1 JUMPDEST DUP2 SLOAD DUP2 MSTORE SWAP1 PUSH1 0x1 ADD SWAP1 PUSH1 0x20 ADD DUP1 DUP4 GT PUSH3 0x1EB3 JUMPI DUP3 SWAP1 SUB PUSH1 0x1F AND DUP3 ADD SWAP2 JUMPDEST POP POP POP POP POP DUP2 MSTORE POP POP DUP3 PUSH1 0x1 DUP4 PUSH3 0x1EEA SWAP2 SWAP1 PUSH3 0x3D9C JUMP JUMPDEST DUP2 MLOAD DUP2 LT PUSH3 0x1EFD JUMPI PUSH3 0x1EFD PUSH3 0x3D37 JUMP JUMPDEST PUSH1 0x20 MUL PUSH1 0x20 ADD ADD DUP2 SWAP1 MSTORE POP DUP1 DUP1 PUSH3 0x1F15 SWAP1 PUSH3 0x3D63 JUMP JUMPDEST SWAP2 POP POP PUSH3 0x1DB8 JUMP JUMPDEST PUSH1 0x40 MLOAD PUSH4 0x17E26BC9 PUSH1 0xE1 SHL DUP2 MSTORE PUSH20 0x0 SWAP1 PUSH4 0x2FC4D792 SWAP1 PUSH3 0x1F5A SWAP1 PUSH1 0x1C SWAP1 CALLER SWAP1 PUSH1 0x4 ADD PUSH3 0x3C9B JUMP JUMPDEST PUSH1 0x20 PUSH1 0x40 MLOAD DUP1 DUP4 SUB DUP2 DUP7 GAS DELEGATECALL ISZERO DUP1 ISZERO PUSH3 0x1F78 JUMPI RETURNDATASIZE PUSH1 0x0 DUP1 RETURNDATACOPY RETURNDATASIZE PUSH1 0x0 REVERT JUMPDEST POP POP POP POP PUSH1 0x40 MLOAD RETURNDATASIZE PUSH1 0x1F NOT PUSH1 0x1F DUP3 ADD AND DUP3 ADD DUP1 PUSH1 0x40 MSTORE POP DUP2 ADD SWAP1 PUSH3 0x1F9E SWAP2 SWAP1 PUSH3 0x3CB2 JUMP JUMPDEST ISZERO ISZERO PUSH1 0x1 EQ PUSH3 0x1FC2 JUMPI PUSH1 0x40 MLOAD PUSH3 0x461BCD PUSH1 0xE5 SHL DUP2 MSTORE PUSH1 0x4 ADD PUSH3 0xCB6 SWAP1 PUSH3 0x3CD2 JUMP JUMPDEST PUSH1 0x1 PUSH1 0x1 PUSH1 0xA0 SHL SUB SWAP1 SWAP2 AND PUSH1 0x0 SWAP1 DUP2 MSTORE PUSH1 0x1B PUSH1 0x20 MSTORE PUSH1 0x40 SWAP1 KECCAK256 SSTORE JUMP JUMPDEST PUSH1 0x40 MLOAD PUSH4 0x17E26BC9 PUSH1 0xE1 SHL DUP2 MSTORE PUSH20 0x0 SWAP1 PUSH4 0x2FC4D792 SWAP1 PUSH3 0x201A SWAP1 PUSH1 0x1C SWAP1 CALLER SWAP1 PUSH1 0x4 ADD PUSH3 0x3C9B JUMP JUMPDEST PUSH1 0x20 PUSH1 0x40 MLOAD DUP1 DUP4 SUB DUP2 DUP7 GAS DELEGATECALL ISZERO DUP1 ISZERO PUSH3 0x2038 JUMPI RETURNDATASIZE PUSH1 0x0 DUP1 RETURNDATACOPY RETURNDATASIZE PUSH1 0x0 REVERT JUMPDEST POP POP POP POP PUSH1 0x40 MLOAD RETURNDATASIZE PUSH1 0x1F NOT PUSH1 0x1F DUP3 ADD AND DUP3 ADD DUP1 PUSH1 0x40 MSTORE POP DUP2 ADD SWAP1 PUSH3 0x205E SWAP2 SWAP1 PUSH3 0x3CB2 JUMP JUMPDEST ISZERO ISZERO PUSH1 0x1 EQ PUSH3 0x2082 JUMPI PUSH1 0x40 MLOAD PUSH3 0x461BCD PUSH1 0xE5 SHL DUP2 MSTORE PUSH1 0x4 ADD PUSH3 0xCB6 SWAP1 PUSH3 0x3CD2 JUMP JUMPDEST PUSH1 0x1 PUSH1 0x1 PUSH1 0xA0 SHL SUB SWAP1 SWAP2 AND PUSH1 0x0 SWAP1 DUP2 MSTORE PUSH1 0x13 PUSH1 0x20 MSTORE PUSH1 0x40 SWAP1 KECCAK256 SSTORE JUMP JUMPDEST PUSH1 0x40 MLOAD PUSH4 0x17E26BC9 PUSH1 0xE1 SHL DUP2 MSTORE PUSH20 0x0 SWAP1 PUSH4 0x2FC4D792 SWAP1 PUSH3 0x20DA SWAP1 PUSH1 0x1C SWAP1 CALLER SWAP1 PUSH1 0x4 ADD PUSH3 0x3C9B JUMP JUMPDEST PUSH1 0x20 PUSH1 0x40 MLOAD DUP1 DUP4 SUB DUP2 DUP7 GAS DELEGATECALL ISZERO DUP1 ISZERO PUSH3 0x20F8 JUMPI RETURNDATASIZE PUSH1 0x0 DUP1 RETURNDATACOPY RETURNDATASIZE PUSH1 0x0 REVERT JUMPDEST POP POP POP POP PUSH1 0x40 MLOAD RETURNDATASIZE PUSH1 0x1F NOT PUSH1 0x1F DUP3 ADD AND DUP3 ADD DUP1 PUSH1 0x40 MSTORE POP DUP2 ADD SWAP1 PUSH3 0x211E SWAP2 SWAP1 PUSH3 0x3CB2 JUMP JUMPDEST ISZERO ISZERO PUSH1 0x1 EQ PUSH3 0x2142 JUMPI PUSH1 0x40 MLOAD PUSH3 0x461BCD PUSH1 0xE5 SHL DUP2 MSTORE PUSH1 0x4 ADD PUSH3 0xCB6 SWAP1 PUSH3 0x3CD2 JUMP JUMPDEST DUP1 ISZERO PUSH3 0x2185 JUMPI PUSH1 0x40 MLOAD PUSH4 0x9F75F0A3 PUSH1 0xE0 SHL DUP2 MSTORE PUSH20 0x0 SWAP1 PUSH4 0x9F75F0A3 SWAP1 PUSH3 0x1578 SWAP1 PUSH1 0xC SWAP1 DUP7 SWAP1 PUSH1 0x4 ADD PUSH3 0x3C9B JUMP JUMPDEST PUSH1 0x40 MLOAD PUSH4 0xA8AFEF95 PUSH1 0xE0 SHL DUP2 MSTORE PUSH20 0x0 SWAP1 PUSH4 0xA8AFEF95 SWAP1 PUSH3 0x1578 SWAP1 PUSH1 0xC SWAP1 DUP7 SWAP1 PUSH1 0x4 ADD PUSH3 0x3C9B JUMP JUMPDEST PUSH1 0x40 MLOAD PUSH4 0x11C9AF77 PUSH1 0xE1 SHL DUP2 MSTORE PUSH1 0xC PUSH1 0x4 DUP3 ADD MSTORE PUSH1 0x0 PUSH1 0x24 DUP3 ADD DUP2 SWAP1 MSTORE PUSH1 0x44 DUP3 ADD MSTORE PUSH1 0x60 SWAP1 PUSH20 0x0 SWAP1 PUSH4 0x23935EEE SWAP1 PUSH1 0x64 ADD JUMPDEST PUSH1 0x0 PUSH1 0x40 MLOAD DUP1 DUP4 SUB DUP2 DUP7 GAS DELEGATECALL ISZERO DUP1 ISZERO PUSH3 0x2224 JUMPI RETURNDATASIZE PUSH1 0x0 DUP1 RETURNDATACOPY RETURNDATASIZE PUSH1 0x0 REVERT JUMPDEST POP POP POP POP PUSH1 0x40 MLOAD RETURNDATASIZE PUSH1 0x0 DUP3 RETURNDATACOPY PUSH1 0x1F RETURNDATASIZE SWAP1 DUP2 ADD PUSH1 0x1F NOT AND DUP3 ADD PUSH1 0x40 MSTORE PUSH3 0x224E SWAP2 SWAP1 DUP2 ADD SWAP1 PUSH3 0x3E3A JUMP JUMPDEST SWAP1 POP SWAP1 JUMP JUMPDEST PUSH1 0x4 PUSH1 0x20 DUP2 SWAP1 MSTORE PUSH1 0x0 SWAP2 DUP3 MSTORE PUSH1 0x40 SWAP1 SWAP2 KECCAK256 DUP1 SLOAD PUSH1 0x1 DUP3 ADD SLOAD PUSH1 0x2 DUP4 ADD SLOAD PUSH1 0x3 DUP5 ADD SLOAD SWAP5 DUP5 ADD SLOAD PUSH1 0x5 DUP6 ADD SLOAD PUSH1 0x6 DUP7 ADD SLOAD PUSH1 0x7 DUP8 ADD SLOAD PUSH1 0x8 DUP9 ADD DUP1 SLOAD SWAP8 SWAP10 SWAP7 SWAP9 PUSH1 0x1 PUSH1 0x1 PUSH1 0xA0 SHL SUB SWAP7 DUP8 AND SWAP9 SWAP8 DUP8 AND SWAP8 SWAP6 SWAP7 SWAP5 SWAP6 SWAP4 SWAP5 SWAP1 SWAP3 AND SWAP3 PUSH3 0x22B7 SWAP1 PUSH3 0x3E03 JUMP JUMPDEST DUP1 PUSH1 0x1F ADD PUSH1 0x20 DUP1 SWAP2 DIV MUL PUSH1 0x20 ADD PUSH1 0x40 MLOAD SWAP1 DUP2 ADD PUSH1 0x40 MSTORE DUP1 SWAP3 SWAP2 SWAP1 DUP2 DUP2 MSTORE PUSH1 0x20 ADD DUP3 DUP1 SLOAD PUSH3 0x22E5 SWAP1 PUSH3 0x3E03 JUMP JUMPDEST DUP1 ISZERO PUSH3 0x2336 JUMPI DUP1 PUSH1 0x1F LT PUSH3 0x230A JUMPI PUSH2 0x100 DUP1 DUP4 SLOAD DIV MUL DUP4 MSTORE SWAP2 PUSH1 0x20 ADD SWAP2 PUSH3 0x2336 JUMP JUMPDEST DUP3 ADD SWAP2 SWAP1 PUSH1 0x0 MSTORE PUSH1 0x20 PUSH1 0x0 KECCAK256 SWAP1 JUMPDEST DUP2 SLOAD DUP2 MSTORE SWAP1 PUSH1 0x1 ADD SWAP1 PUSH1 0x20 ADD DUP1 DUP4 GT PUSH3 0x2318 JUMPI DUP3 SWAP1 SUB PUSH1 0x1F AND DUP3 ADD SWAP2 JUMPDEST POP POP POP POP POP SWAP1 POP DUP10 JUMP JUMPDEST PUSH3 0x234A PUSH3 0x3541 JUMP JUMPDEST PUSH1 0x0 DUP3 DUP2 MSTORE PUSH1 0x4 PUSH1 0x20 DUP2 DUP2 MSTORE PUSH1 0x40 SWAP3 DUP4 SWAP1 KECCAK256 DUP4 MLOAD PUSH2 0x120 DUP2 ADD DUP6 MSTORE DUP2 SLOAD DUP2 MSTORE PUSH1 0x1 DUP3 ADD SLOAD SWAP3 DUP2 ADD SWAP3 SWAP1 SWAP3 MSTORE PUSH1 0x2 DUP2 ADD SLOAD PUSH1 0x1 PUSH1 0x1 PUSH1 0xA0 SHL SUB SWAP1 DUP2 AND SWAP5 DUP4 ADD SWAP5 SWAP1 SWAP5 MSTORE PUSH1 0x3 DUP2 ADD SLOAD DUP5 AND PUSH1 0x60 DUP4 ADD MSTORE SWAP2 DUP3 ADD SLOAD PUSH1 0x80 DUP3 ADD MSTORE PUSH1 0x5 DUP3 ADD SLOAD PUSH1 0xA0 DUP3 ADD MSTORE PUSH1 0x6 DUP3 ADD SLOAD PUSH1 0xC0 DUP3 ADD MSTORE PUSH1 0x7 DUP3 ADD SLOAD SWAP1 SWAP3 AND PUSH1 0xE0 DUP4 ADD MSTORE PUSH1 0x8 DUP2 ADD DUP1 SLOAD PUSH2 0x100 DUP5 ADD SWAP2 SWAP1 PUSH3 0x23DA SWAP1 PUSH3 0x3E03 JUMP JUMPDEST DUP1 PUSH1 0x1F ADD PUSH1 0x20 DUP1 SWAP2 DIV MUL PUSH1 0x20 ADD PUSH1 0x40 MLOAD SWAP1 DUP2 ADD PUSH1 0x40 MSTORE DUP1 SWAP3 SWAP2 SWAP1 DUP2 DUP2 MSTORE PUSH1 0x20 ADD DUP3 DUP1 SLOAD PUSH3 0x2408 SWAP1 PUSH3 0x3E03 JUMP JUMPDEST DUP1 ISZERO PUSH3 0x2459 JUMPI DUP1 PUSH1 0x1F LT PUSH3 0x242D JUMPI PUSH2 0x100 DUP1 DUP4 SLOAD DIV MUL DUP4 MSTORE SWAP2 PUSH1 0x20 ADD SWAP2 PUSH3 0x2459 JUMP JUMPDEST DUP3 ADD SWAP2 SWAP1 PUSH1 0x0 MSTORE PUSH1 0x20 PUSH1 0x0 KECCAK256 SWAP1 JUMPDEST DUP2 SLOAD DUP2 MSTORE SWAP1 PUSH1 0x1 ADD SWAP1 PUSH1 0x20 ADD DUP1 DUP4 GT PUSH3 0x243B JUMPI DUP3 SWAP1 SUB PUSH1 0x1F AND DUP3 ADD SWAP2 JUMPDEST POP POP POP POP POP DUP2 MSTORE POP POP SWAP1 POP SWAP2 SWAP1 POP JUMP JUMPDEST PUSH3 0x2473 PUSH3 0x3541 JUMP JUMPDEST PUSH1 0x1 PUSH1 0x1 PUSH1 0xA0 SHL SUB DUP3 AND PUSH1 0x0 SWAP1 DUP2 MSTORE PUSH1 0x5 PUSH1 0x20 MSTORE PUSH1 0x40 SWAP1 KECCAK256 SLOAD ISZERO PUSH3 0x252E JUMPI PUSH1 0x1 PUSH1 0x1 PUSH1 0xA0 SHL SUB DUP1 DUP4 AND PUSH1 0x0 SWAP1 DUP2 MSTORE PUSH1 0x5 PUSH1 0x20 DUP2 DUP2 MSTORE PUSH1 0x40 DUP1 DUP5 KECCAK256 SLOAD DUP5 MSTORE PUSH1 0x4 DUP1 DUP4 MSTORE SWAP4 DUP2 SWAP1 KECCAK256 DUP2 MLOAD PUSH2 0x120 DUP2 ADD DUP4 MSTORE DUP2 SLOAD DUP2 MSTORE PUSH1 0x1 DUP3 ADD SLOAD SWAP4 DUP2 ADD SWAP4 SWAP1 SWAP4 MSTORE PUSH1 0x2 DUP2 ADD SLOAD DUP7 AND SWAP2 DUP4 ADD SWAP2 SWAP1 SWAP2 MSTORE PUSH1 0x3 DUP2 ADD SLOAD DUP6 AND PUSH1 0x60 DUP4 ADD MSTORE SWAP3 DUP4 ADD SLOAD PUSH1 0x80 DUP3 ADD MSTORE SWAP1 DUP3 ADD SLOAD PUSH1 0xA0 DUP3 ADD MSTORE PUSH1 0x6 DUP3 ADD SLOAD PUSH1 0xC0 DUP3 ADD MSTORE PUSH1 0x7 DUP3 ADD SLOAD SWAP1 SWAP3 AND PUSH1 0xE0 DUP4 ADD MSTORE PUSH1 0x8 DUP2 ADD DUP1 SLOAD PUSH2 0x100 DUP5 ADD SWAP2 SWAP1 PUSH3 0x23DA SWAP1 PUSH3 0x3E03 JUMP JUMPDEST SWAP2 SWAP1 POP JUMP JUMPDEST PUSH1 0x0 SLOAD PUSH1 0x1 PUSH1 0x1 PUSH1 0xA0 SHL SUB AND CALLER EQ PUSH3 0x2560 JUMPI PUSH1 0x40 MLOAD PUSH3 0x461BCD PUSH1 0xE5 SHL DUP2 MSTORE PUSH1 0x4 ADD PUSH3 0xCB6 SWAP1 PUSH3 0x3DDB JUMP JUMPDEST PUSH1 0x3 SSTORE JUMP JUMPDEST PUSH1 0x1 SLOAD PUSH1 0x40 MLOAD PUSH4 0x70A08231 PUSH1 0xE0 SHL DUP2 MSTORE ADDRESS PUSH1 0x4 DUP3 ADD MSTORE PUSH1 0x0 SWAP2 PUSH1 0x1 PUSH1 0x1 PUSH1 0xA0 SHL SUB AND SWAP1 PUSH4 0x70A08231 SWAP1 PUSH1 0x24 ADD PUSH1 0x20 PUSH1 0x40 MLOAD DUP1 DUP4 SUB DUP2 DUP7 GAS STATICCALL ISZERO DUP1 ISZERO PUSH3 0x25AF JUMPI RETURNDATASIZE PUSH1 0x0 DUP1 RETURNDATACOPY RETURNDATASIZE PUSH1 0x0 REVERT JUMPDEST POP POP POP POP PUSH1 0x40 MLOAD RETURNDATASIZE PUSH1 0x1F NOT PUSH1 0x1F DUP3 ADD AND DUP3 ADD DUP1 PUSH1 0x40 MSTORE POP DUP2 ADD SWAP1 PUSH3 0x224E SWAP2 SWAP1 PUSH3 0x3CFD JUMP JUMPDEST PUSH1 0x1 SLOAD PUSH1 0x40 DUP1 MLOAD PUSH4 0x6FDDE03 PUSH1 0xE0 SHL DUP2 MSTORE SWAP1 MLOAD PUSH1 0x60 SWAP3 PUSH1 0x1 PUSH1 0x1 PUSH1 0xA0 SHL SUB AND SWAP2 PUSH4 0x6FDDE03 SWAP2 PUSH1 0x4 DUP1 DUP4 ADD SWAP3 PUSH1 0x0 SWAP3 SWAP2 SWAP1 DUP3 SWAP1 SUB ADD DUP2 DUP7 GAS STATICCALL ISZERO DUP1 ISZERO PUSH3 0x2620 JUMPI RETURNDATASIZE PUSH1 0x0 DUP1 RETURNDATACOPY RETURNDATASIZE PUSH1 0x0 REVERT JUMPDEST POP POP POP POP PUSH1 0x40 MLOAD RETURNDATASIZE PUSH1 0x0 DUP3 RETURNDATACOPY PUSH1 0x1F RETURNDATASIZE SWAP1 DUP2 ADD PUSH1 0x1F NOT AND DUP3 ADD PUSH1 0x40 MSTORE PUSH3 0x224E SWAP2 SWAP1 DUP2 ADD SWAP1 PUSH3 0x3EF9 JUMP JUMPDEST PUSH3 0x2654 PUSH3 0x3509 JUMP JUMPDEST PUSH1 0x40 MLOAD PUSH4 0x17E26BC9 PUSH1 0xE1 SHL DUP2 MSTORE PUSH20 0x0 SWAP1 PUSH4 0x2FC4D792 SWAP1 PUSH3 0x2690 SWAP1 PUSH1 0x14 SWAP1 DUP7 SWAP1 PUSH1 0x4 ADD PUSH3 0x3C9B JUMP JUMPDEST PUSH1 0x20 PUSH1 0x40 MLOAD DUP1 DUP4 SUB DUP2 DUP7 GAS DELEGATECALL ISZERO DUP1 ISZERO PUSH3 0x26AE JUMPI RETURNDATASIZE PUSH1 0x0 DUP1 RETURNDATACOPY RETURNDATASIZE PUSH1 0x0 REVERT JUMPDEST POP POP POP POP PUSH1 0x40 MLOAD RETURNDATASIZE PUSH1 0x1F NOT PUSH1 0x1F DUP3 ADD AND DUP3 ADD DUP1 PUSH1 0x40 MSTORE POP DUP2 ADD SWAP1 PUSH3 0x26D4 SWAP2 SWAP1 PUSH3 0x3CB2 JUMP JUMPDEST ISZERO PUSH3 0x252E JUMPI PUSH1 0x40 DUP1 MLOAD PUSH1 0xA0 DUP2 ADD DUP3 MSTORE PUSH1 0x1 PUSH1 0x1 PUSH1 0xA0 SHL SUB DUP5 AND DUP1 DUP3 MSTORE PUSH1 0x0 DUP2 DUP2 MSTORE PUSH1 0x16 PUSH1 0x20 SWAP1 DUP2 MSTORE DUP5 DUP3 KECCAK256 SLOAD DUP2 DUP6 ADD MSTORE SWAP2 DUP2 MSTORE PUSH1 0x17 DUP3 MSTORE DUP4 SWAP1 KECCAK256 DUP1 SLOAD DUP5 MLOAD DUP2 DUP5 MUL DUP2 ADD DUP5 ADD DUP7 MSTORE DUP2 DUP2 MSTORE SWAP4 SWAP5 DUP6 ADD SWAP4 SWAP3 DUP4 ADD DUP3 DUP3 DUP1 ISZERO PUSH3 0x2756 JUMPI PUSH1 0x20 MUL DUP3 ADD SWAP2 SWAP1 PUSH1 0x0 MSTORE PUSH1 0x20 PUSH1 0x0 KECCAK256 SWAP1 JUMPDEST DUP2 SLOAD DUP2 MSTORE PUSH1 0x20 ADD SWAP1 PUSH1 0x1 ADD SWAP1 DUP1 DUP4 GT PUSH3 0x2741 JUMPI JUMPDEST POP POP POP SWAP2 DUP4 MSTORE POP POP PUSH1 0x1 PUSH1 0x1 PUSH1 0xA0 SHL SUB SWAP1 SWAP4 AND PUSH1 0x0 DUP2 DUP2 MSTORE PUSH1 0x18 PUSH1 0x20 SWAP1 DUP2 MSTORE PUSH1 0x40 DUP1 DUP4 KECCAK256 SLOAD DUP3 DUP9 ADD MSTORE SWAP3 DUP3 MSTORE PUSH1 0x19 SWAP1 MSTORE DUP2 SWAP1 KECCAK256 SLOAD SWAP4 ADD SWAP3 SWAP1 SWAP3 MSTORE POP SWAP1 JUMP JUMPDEST PUSH1 0x40 MLOAD PUSH4 0x11C9AF77 PUSH1 0xE1 SHL DUP2 MSTORE PUSH1 0x14 PUSH1 0x4 DUP3 ADD MSTORE PUSH1 0x24 DUP2 ADD DUP4 SWAP1 MSTORE PUSH1 0x44 DUP2 ADD DUP3 SWAP1 MSTORE PUSH1 0x60 SWAP1 PUSH20 0x0 SWAP1 PUSH4 0x23935EEE SWAP1 PUSH1 0x64 ADD PUSH1 0x0 PUSH1 0x40 MLOAD DUP1 DUP4 SUB DUP2 DUP7 GAS DELEGATECALL ISZERO DUP1 ISZERO PUSH3 0x27F6 JUMPI RETURNDATASIZE PUSH1 0x0 DUP1 RETURNDATACOPY RETURNDATASIZE PUSH1 0x0 REVERT JUMPDEST POP POP POP POP PUSH1 0x40 MLOAD RETURNDATASIZE PUSH1 0x0 DUP3 RETURNDATACOPY PUSH1 0x1F RETURNDATASIZE SWAP1 DUP2 ADD PUSH1 0x1F NOT AND DUP3 ADD PUSH1 0x40 MSTORE PUSH3 0x2820 SWAP2 SWAP1 DUP2 ADD SWAP1 PUSH3 0x3E3A JUMP JUMPDEST SWAP4 SWAP3 POP POP POP JUMP JUMPDEST PUSH1 0x0 SLOAD PUSH1 0x1 PUSH1 0x1 PUSH1 0xA0 SHL SUB AND CALLER EQ PUSH3 0x2854 JUMPI PUSH1 0x40 MLOAD PUSH3 0x461BCD PUSH1 0xE5 SHL DUP2 MSTORE PUSH1 0x4 ADD PUSH3 0xCB6 SWAP1 PUSH3 0x3DDB JUMP JUMPDEST PUSH1 0x2 SSTORE JUMP JUMPDEST PUSH1 0x1 SLOAD PUSH1 0x40 MLOAD PUSH4 0x70A08231 PUSH1 0xE0 SHL DUP2 MSTORE PUSH1 0x1 PUSH1 0x1 PUSH1 0xA0 SHL SUB DUP4 DUP2 AND PUSH1 0x4 DUP4 ADD MSTORE PUSH1 0x0 SWAP3 AND SWAP1 PUSH4 0x70A08231 SWAP1 PUSH1 0x24 ADD PUSH1 0x20 PUSH1 0x40 MLOAD DUP1 DUP4 SUB DUP2 DUP7 GAS STATICCALL ISZERO DUP1 ISZERO PUSH3 0x28A5 JUMPI RETURNDATASIZE PUSH1 0x0 DUP1 RETURNDATACOPY RETURNDATASIZE PUSH1 0x0 REVERT JUMPDEST POP POP POP POP PUSH1 0x40 MLOAD RETURNDATASIZE PUSH1 0x1F NOT PUSH1 0x1F DUP3 ADD AND DUP3 ADD DUP1 PUSH1 0x40 MSTORE POP DUP2 ADD SWAP1 PUSH3 0xF60 SWAP2 SWAP1 PUSH3 0x3CFD JUMP JUMPDEST PUSH1 0x40 MLOAD PUSH4 0x11C9AF77 PUSH1 0xE1 SHL DUP2 MSTORE PUSH1 0x1C PUSH1 0x4 DUP3 ADD MSTORE PUSH1 0x0 PUSH1 0x24 DUP3 ADD DUP2 SWAP1 MSTORE PUSH1 0x44 DUP3 ADD MSTORE PUSH1 0x60 SWAP1 PUSH20 0x0 SWAP1 PUSH4 0x23935EEE SWAP1 PUSH1 0x64 ADD PUSH3 0x2206 JUMP JUMPDEST PUSH1 0x40 MLOAD PUSH4 0x17E26BC9 PUSH1 0xE1 SHL DUP2 MSTORE PUSH1 0x0 SWAP1 PUSH20 0x0 SWAP1 PUSH4 0x2FC4D792 SWAP1 PUSH3 0x2954 SWAP1 PUSH1 0xC SWAP1 CALLER SWAP1 PUSH1 0x4 ADD PUSH3 0x3C9B JUMP JUMPDEST PUSH1 0x20 PUSH1 0x40 MLOAD DUP1 DUP4 SUB DUP2 DUP7 GAS DELEGATECALL ISZERO DUP1 ISZERO PUSH3 0x2972 JUMPI RETURNDATASIZE PUSH1 0x0 DUP1 RETURNDATACOPY RETURNDATASIZE PUSH1 0x0 REVERT JUMPDEST POP POP POP POP PUSH1 0x40 MLOAD RETURNDATASIZE PUSH1 0x1F NOT PUSH1 0x1F DUP3 ADD AND DUP3 ADD DUP1 PUSH1 0x40 MSTORE POP DUP2 ADD SWAP1 PUSH3 0x2998 SWAP2 SWAP1 PUSH3 0x3CB2 JUMP JUMPDEST ISZERO ISZERO PUSH1 0x1 EQ PUSH3 0x29DE JUMPI PUSH1 0x40 MLOAD PUSH3 0x461BCD PUSH1 0xE5 SHL DUP2 MSTORE PUSH1 0x20 PUSH1 0x4 DUP3 ADD MSTORE PUSH1 0x10 PUSH1 0x24 DUP3 ADD MSTORE PUSH16 0x4F6E6C7920666F72206D696E74657273 PUSH1 0x80 SHL PUSH1 0x44 DUP3 ADD MSTORE PUSH1 0x64 ADD PUSH3 0xCB6 JUMP JUMPDEST PUSH1 0x0 DUP5 GT PUSH3 0x2A30 JUMPI PUSH1 0x40 MLOAD PUSH3 0x461BCD PUSH1 0xE5 SHL DUP2 MSTORE PUSH1 0x20 PUSH1 0x4 DUP3 ADD MSTORE PUSH1 0x1B PUSH1 0x24 DUP3 ADD MSTORE PUSH32 0x416D6F756E74206D7573742062652067726561746572207A65726F0000000000 PUSH1 0x44 DUP3 ADD MSTORE PUSH1 0x64 ADD PUSH3 0xCB6 JUMP JUMPDEST PUSH1 0x0 DUP4 ISZERO PUSH3 0x2A40 JUMPI DUP4 PUSH3 0x2A44 JUMP JUMPDEST PUSH1 0x2 SLOAD JUMPDEST PUSH1 0x1 SLOAD CALLER PUSH1 0x0 DUP2 DUP2 MSTORE PUSH1 0xE PUSH1 0x20 MSTORE PUSH1 0x40 DUP1 DUP3 KECCAK256 SWAP1 MLOAD SWAP5 SWAP6 POP SWAP1 SWAP4 PUSH1 0x1 PUSH1 0x1 PUSH1 0xA0 SHL SUB SWAP1 SWAP4 AND SWAP3 DUP10 SWAP2 TIMESTAMP SWAP2 DUP8 SWAP2 SWAP1 DUP11 SWAP1 PUSH3 0x2A7E SWAP1 PUSH3 0x35A8 JUMP JUMPDEST PUSH3 0x2A90 SWAP8 SWAP7 SWAP6 SWAP5 SWAP4 SWAP3 SWAP2 SWAP1 PUSH3 0x3F79 JUMP JUMPDEST PUSH1 0x40 MLOAD DUP1 SWAP2 SUB SWAP1 PUSH1 0x0 CREATE DUP1 ISZERO DUP1 ISZERO PUSH3 0x2AAD JUMPI RETURNDATASIZE PUSH1 0x0 DUP1 RETURNDATACOPY RETURNDATASIZE PUSH1 0x0 REVERT JUMPDEST POP PUSH1 0x6 DUP1 SLOAD SWAP2 SWAP3 POP PUSH1 0x0 PUSH3 0x2AC2 DUP4 PUSH3 0x3D63 JUMP JUMPDEST SWAP2 SWAP1 POP SSTORE POP PUSH1 0x40 MLOAD DUP1 PUSH2 0x120 ADD PUSH1 0x40 MSTORE DUP1 PUSH1 0x6 SLOAD DUP2 MSTORE PUSH1 0x20 ADD DUP8 DUP2 MSTORE PUSH1 0x20 ADD CALLER PUSH1 0x1 PUSH1 0x1 PUSH1 0xA0 SHL SUB AND DUP2 MSTORE PUSH1 0x20 ADD PUSH1 0x0 PUSH1 0x1 PUSH1 0x1 PUSH1 0xA0 SHL SUB AND DUP2 MSTORE PUSH1 0x20 ADD TIMESTAMP DUP2 MSTORE PUSH1 0x20 ADD PUSH1 0x0 DUP2 MSTORE PUSH1 0x20 ADD DUP4 DUP2 MSTORE PUSH1 0x20 ADD DUP3 PUSH1 0x1 PUSH1 0x1 PUSH1 0xA0 SHL SUB AND DUP2 MSTORE PUSH1 0x20 ADD DUP6 DUP2 MSTORE POP PUSH1 0x4 PUSH1 0x0 PUSH1 0x6 SLOAD DUP2 MSTORE PUSH1 0x20 ADD SWAP1 DUP2 MSTORE PUSH1 0x20 ADD PUSH1 0x0 KECCAK256 PUSH1 0x0 DUP3 ADD MLOAD DUP2 PUSH1 0x0 ADD SSTORE PUSH1 0x20 DUP3 ADD MLOAD DUP2 PUSH1 0x1 ADD SSTORE PUSH1 0x40 DUP3 ADD MLOAD DUP2 PUSH1 0x2 ADD PUSH1 0x0 PUSH2 0x100 EXP DUP2 SLOAD DUP2 PUSH1 0x1 PUSH1 0x1 PUSH1 0xA0 SHL SUB MUL NOT AND SWAP1 DUP4 PUSH1 0x1 PUSH1 0x1 PUSH1 0xA0 SHL SUB AND MUL OR SWAP1 SSTORE POP PUSH1 0x60 DUP3 ADD MLOAD DUP2 PUSH1 0x3 ADD PUSH1 0x0 PUSH2 0x100 EXP DUP2 SLOAD DUP2 PUSH1 0x1 PUSH1 0x1 PUSH1 0xA0 SHL SUB MUL NOT AND SWAP1 DUP4 PUSH1 0x1 PUSH1 0x1 PUSH1 0xA0 SHL SUB AND MUL OR SWAP1 SSTORE POP PUSH1 0x80 DUP3 ADD MLOAD DUP2 PUSH1 0x4 ADD SSTORE PUSH1 0xA0 DUP3 ADD MLOAD DUP2 PUSH1 0x5 ADD SSTORE PUSH1 0xC0 DUP3 ADD MLOAD DUP2 PUSH1 0x6 ADD SSTORE PUSH1 0xE0 DUP3 ADD MLOAD DUP2 PUSH1 0x7 ADD PUSH1 0x0 PUSH2 0x100 EXP DUP2 SLOAD DUP2 PUSH1 0x1 PUSH1 0x1 PUSH1 0xA0 SHL SUB MUL NOT AND SWAP1 DUP4 PUSH1 0x1 PUSH1 0x1 PUSH1 0xA0 SHL SUB AND MUL OR SWAP1 SSTORE POP PUSH2 0x100 DUP3 ADD MLOAD DUP2 PUSH1 0x8 ADD SWAP1 DUP1 MLOAD SWAP1 PUSH1 0x20 ADD SWAP1 PUSH3 0x2C13 SWAP3 SWAP2 SWAP1 PUSH3 0x347A JUMP JUMPDEST POP POP PUSH1 0x6 SLOAD PUSH1 0x1 PUSH1 0x1 PUSH1 0xA0 SHL SUB DUP4 AND PUSH1 0x0 SWAP1 DUP2 MSTORE PUSH1 0x5 PUSH1 0x20 SWAP1 DUP2 MSTORE PUSH1 0x40 DUP1 DUP4 KECCAK256 SWAP4 SWAP1 SWAP4 SSTORE CALLER DUP3 MSTORE PUSH1 0xF SWAP1 MSTORE SWAP1 DUP2 KECCAK256 DUP1 SLOAD DUP10 SWAP4 POP SWAP1 SWAP2 SWAP1 PUSH3 0x2C56 SWAP1 DUP5 SWAP1 PUSH3 0x3D81 JUMP JUMPDEST SWAP3 POP POP DUP2 SWAP1 SSTORE POP DUP6 PUSH1 0x9 PUSH1 0x0 DUP3 DUP3 SLOAD PUSH3 0x2C71 SWAP2 SWAP1 PUSH3 0x3D81 JUMP JUMPDEST SWAP1 SWAP2 SSTORE POP POP CALLER PUSH1 0x0 DUP2 DUP2 MSTORE PUSH1 0x10 PUSH1 0x20 SWAP1 DUP2 MSTORE PUSH1 0x40 DUP1 DUP4 KECCAK256 PUSH1 0x6 SLOAD DUP2 SLOAD PUSH1 0x1 DUP2 ADD DUP4 SSTORE SWAP2 DUP6 MSTORE DUP4 DUP6 KECCAK256 SWAP1 SWAP2 ADD SSTORE SWAP3 DUP3 MSTORE PUSH1 0x11 SWAP1 MSTORE SWAP1 DUP2 KECCAK256 DUP1 SLOAD SWAP2 PUSH3 0x2CB5 DUP4 PUSH3 0x3D63 JUMP JUMPDEST SWAP1 SWAP2 SSTORE POP POP PUSH1 0x7 DUP1 SLOAD SWAP1 PUSH1 0x0 PUSH3 0x2CCC DUP4 PUSH3 0x3D63 JUMP JUMPDEST SWAP1 SWAP2 SSTORE POP POP PUSH1 0x40 MLOAD PUSH1 0x1 PUSH1 0x1 PUSH1 0xA0 SHL SUB DUP3 AND DUP2 MSTORE PUSH32 0x12A2DCD8D60F7D320A97F9B2F6BCA5B67C1BB9808B27C28915C541EED450D05F SWAP1 PUSH1 0x20 ADD PUSH1 0x40 MLOAD DUP1 SWAP2 SUB SWAP1 LOG1 SWAP6 SWAP5 POP POP POP POP POP JUMP JUMPDEST PUSH1 0xE PUSH1 0x20 MSTORE PUSH1 0x0 SWAP1 DUP2 MSTORE PUSH1 0x40 SWAP1 KECCAK256 DUP1 SLOAD PUSH3 0x2D31 SWAP1 PUSH3 0x3E03 JUMP JUMPDEST DUP1 PUSH1 0x1F ADD PUSH1 0x20 DUP1 SWAP2 DIV MUL PUSH1 0x20 ADD PUSH1 0x40 MLOAD SWAP1 DUP2 ADD PUSH1 0x40 MSTORE DUP1 SWAP3 SWAP2 SWAP1 DUP2 DUP2 MSTORE PUSH1 0x20 ADD DUP3 DUP1 SLOAD PUSH3 0x2D5F SWAP1 PUSH3 0x3E03 JUMP JUMPDEST DUP1 ISZERO PUSH3 0x2DB0 JUMPI DUP1 PUSH1 0x1F LT PUSH3 0x2D84 JUMPI PUSH2 0x100 DUP1 DUP4 SLOAD DIV MUL DUP4 MSTORE SWAP2 PUSH1 0x20 ADD SWAP2 PUSH3 0x2DB0 JUMP JUMPDEST DUP3 ADD SWAP2 SWAP1 PUSH1 0x0 MSTORE PUSH1 0x20 PUSH1 0x0 KECCAK256 SWAP1 JUMPDEST DUP2 SLOAD DUP2 MSTORE SWAP1 PUSH1 0x1 ADD SWAP1 PUSH1 0x20 ADD DUP1 DUP4 GT PUSH3 0x2D92 JUMPI DUP3 SWAP1 SUB PUSH1 0x1F AND DUP3 ADD SWAP2 JUMPDEST POP POP POP POP POP DUP2 JUMP JUMPDEST PUSH1 0x1 PUSH1 0x1 PUSH1 0xA0 SHL SUB DUP4 AND PUSH1 0x0 SWAP1 DUP2 MSTORE PUSH1 0x10 PUSH1 0x20 MSTORE PUSH1 0x40 SWAP1 KECCAK256 SLOAD PUSH1 0x60 SWAP1 DUP3 ISZERO PUSH3 0x2DDE JUMPI POP DUP2 JUMPDEST PUSH1 0x0 PUSH3 0x2DEC DUP3 DUP7 PUSH3 0x3D81 JUMP JUMPDEST PUSH1 0x1 PUSH1 0x1 PUSH1 0xA0 SHL SUB DUP8 AND PUSH1 0x0 SWAP1 DUP2 MSTORE PUSH1 0x10 PUSH1 0x20 MSTORE PUSH1 0x40 SWAP1 KECCAK256 SLOAD SWAP1 SWAP2 POP DUP2 GT ISZERO PUSH3 0x2E2B JUMPI POP PUSH1 0x1 PUSH1 0x1 PUSH1 0xA0 SHL SUB DUP6 AND PUSH1 0x0 SWAP1 DUP2 MSTORE PUSH1 0x10 PUSH1 0x20 MSTORE PUSH1 0x40 SWAP1 KECCAK256 SLOAD JUMPDEST PUSH1 0x0 PUSH3 0x2E39 DUP7 DUP4 PUSH3 0x3D9C JUMP JUMPDEST PUSH8 0xFFFFFFFFFFFFFFFF DUP2 GT ISZERO PUSH3 0x2E54 JUMPI PUSH3 0x2E54 PUSH3 0x3819 JUMP JUMPDEST PUSH1 0x40 MLOAD SWAP1 DUP1 DUP3 MSTORE DUP1 PUSH1 0x20 MUL PUSH1 0x20 ADD DUP3 ADD PUSH1 0x40 MSTORE DUP1 ISZERO PUSH3 0x2E91 JUMPI DUP2 PUSH1 0x20 ADD JUMPDEST PUSH3 0x2E7D PUSH3 0x3541 JUMP JUMPDEST DUP2 MSTORE PUSH1 0x20 ADD SWAP1 PUSH1 0x1 SWAP1 SUB SWAP1 DUP2 PUSH3 0x2E73 JUMPI SWAP1 POP JUMPDEST POP SWAP1 POP PUSH1 0x0 JUMPDEST PUSH3 0x2EA3 DUP8 DUP5 PUSH3 0x3D9C JUMP JUMPDEST DUP2 LT ISZERO PUSH3 0x1D48 JUMPI PUSH1 0x1 PUSH1 0x1 PUSH1 0xA0 SHL SUB DUP9 AND PUSH1 0x0 SWAP1 DUP2 MSTORE PUSH1 0x10 PUSH1 0x20 MSTORE PUSH1 0x40 DUP2 KECCAK256 DUP1 SLOAD PUSH1 0x4 SWAP3 SWAP2 SWAP1 PUSH1 0x1 SWAP1 DUP12 SWAP1 PUSH3 0x2EDC SWAP1 DUP8 SWAP1 PUSH3 0x3D9C JUMP JUMPDEST PUSH3 0x2EE8 SWAP2 SWAP1 PUSH3 0x3D9C JUMP JUMPDEST PUSH3 0x2EF4 SWAP2 SWAP1 PUSH3 0x3D9C JUMP JUMPDEST DUP2 SLOAD DUP2 LT PUSH3 0x2F07 JUMPI PUSH3 0x2F07 PUSH3 0x3D37 JUMP JUMPDEST PUSH1 0x0 SWAP2 DUP3 MSTORE PUSH1 0x20 DUP1 DUP4 KECCAK256 SWAP1 SWAP2 ADD SLOAD DUP4 MSTORE DUP3 DUP2 ADD SWAP4 SWAP1 SWAP4 MSTORE PUSH1 0x40 SWAP2 DUP3 ADD SWAP1 KECCAK256 DUP2 MLOAD PUSH2 0x120 DUP2 ADD DUP4 MSTORE DUP2 SLOAD DUP2 MSTORE PUSH1 0x1 DUP3 ADD SLOAD SWAP4 DUP2 ADD SWAP4 SWAP1 SWAP4 MSTORE PUSH1 0x2 DUP2 ADD SLOAD PUSH1 0x1 PUSH1 0x1 PUSH1 0xA0 SHL SUB SWAP1 DUP2 AND SWAP3 DUP5 ADD SWAP3 SWAP1 SWAP3 MSTORE PUSH1 0x3 DUP2 ADD SLOAD DUP3 AND PUSH1 0x60 DUP5 ADD MSTORE PUSH1 0x4 DUP2 ADD SLOAD PUSH1 0x80 DUP5 ADD MSTORE PUSH1 0x5 DUP2 ADD SLOAD PUSH1 0xA0 DUP5 ADD MSTORE PUSH1 0x6 DUP2 ADD SLOAD PUSH1 0xC0 DUP5 ADD MSTORE PUSH1 0x7 DUP2 ADD SLOAD SWAP1 SWAP2 AND PUSH1 0xE0 DUP4 ADD MSTORE PUSH1 0x8 DUP2 ADD DUP1 SLOAD PUSH2 0x100 DUP5 ADD SWAP2 SWAP1 PUSH3 0x2FA4 SWAP1 PUSH3 0x3E03 JUMP JUMPDEST DUP1 PUSH1 0x1F ADD PUSH1 0x20 DUP1 SWAP2 DIV MUL PUSH1 0x20 ADD PUSH1 0x40 MLOAD SWAP1 DUP2 ADD PUSH1 0x40 MSTORE DUP1 SWAP3 SWAP2 SWAP1 DUP2 DUP2 MSTORE PUSH1 0x20 ADD DUP3 DUP1 SLOAD PUSH3 0x2FD2 SWAP1 PUSH3 0x3E03 JUMP JUMPDEST DUP1 ISZERO PUSH3 0x3023 JUMPI DUP1 PUSH1 0x1F LT PUSH3 0x2FF7 JUMPI PUSH2 0x100 DUP1 DUP4 SLOAD DIV MUL DUP4 MSTORE SWAP2 PUSH1 0x20 ADD SWAP2 PUSH3 0x3023 JUMP JUMPDEST DUP3 ADD SWAP2 SWAP1 PUSH1 0x0 MSTORE PUSH1 0x20 PUSH1 0x0 KECCAK256 SWAP1 JUMPDEST DUP2 SLOAD DUP2 MSTORE SWAP1 PUSH1 0x1 ADD SWAP1 PUSH1 0x20 ADD DUP1 DUP4 GT PUSH3 0x3005 JUMPI DUP3 SWAP1 SUB PUSH1 0x1F AND DUP3 ADD SWAP2 JUMPDEST POP POP POP POP POP DUP2 MSTORE POP POP DUP3 DUP3 DUP2 MLOAD DUP2 LT PUSH3 0x3041 JUMPI PUSH3 0x3041 PUSH3 0x3D37 JUMP JUMPDEST PUSH1 0x20 MUL PUSH1 0x20 ADD ADD DUP2 SWAP1 MSTORE POP DUP1 DUP1 PUSH3 0x3059 SWAP1 PUSH3 0x3D63 JUMP JUMPDEST SWAP2 POP POP PUSH3 0x2E97 JUMP JUMPDEST PUSH1 0x40 MLOAD PUSH4 0x17E26BC9 PUSH1 0xE1 SHL DUP2 MSTORE PUSH20 0x0 SWAP1 PUSH4 0x2FC4D792 SWAP1 PUSH3 0x309E SWAP1 PUSH1 0x1C SWAP1 CALLER SWAP1 PUSH1 0x4 ADD PUSH3 0x3C9B JUMP JUMPDEST PUSH1 0x20 PUSH1 0x40 MLOAD DUP1 DUP4 SUB DUP2 DUP7 GAS DELEGATECALL ISZERO DUP1 ISZERO PUSH3 0x30BC JUMPI RETURNDATASIZE PUSH1 0x0 DUP1 RETURNDATACOPY RETURNDATASIZE PUSH1 0x0 REVERT JUMPDEST POP POP POP POP PUSH1 0x40 MLOAD RETURNDATASIZE PUSH1 0x1F NOT PUSH1 0x1F DUP3 ADD AND DUP3 ADD DUP1 PUSH1 0x40 MSTORE POP DUP2 ADD SWAP1 PUSH3 0x30E2 SWAP2 SWAP1 PUSH3 0x3CB2 JUMP JUMPDEST ISZERO ISZERO PUSH1 0x1 EQ PUSH3 0x3106 JUMPI PUSH1 0x40 MLOAD PUSH3 0x461BCD PUSH1 0xE5 SHL DUP2 MSTORE PUSH1 0x4 ADD PUSH3 0xCB6 SWAP1 PUSH3 0x3CD2 JUMP JUMPDEST PUSH1 0x1 PUSH1 0x1 PUSH1 0xA0 SHL SUB DUP3 AND PUSH1 0x0 SWAP1 DUP2 MSTORE PUSH1 0xE PUSH1 0x20 SWAP1 DUP2 MSTORE PUSH1 0x40 SWAP1 SWAP2 KECCAK256 DUP3 MLOAD PUSH3 0x1458 SWAP3 DUP5 ADD SWAP1 PUSH3 0x347A JUMP JUMPDEST PUSH3 0x313B PUSH3 0x3434 JUMP JUMPDEST PUSH1 0x40 MLOAD PUSH4 0x17E26BC9 PUSH1 0xE1 SHL DUP2 MSTORE PUSH20 0x0 SWAP1 PUSH4 0x2FC4D792 SWAP1 PUSH3 0x3177 SWAP1 PUSH1 0xC SWAP1 DUP7 SWAP1 PUSH1 0x4 ADD PUSH3 0x3C9B JUMP JUMPDEST PUSH1 0x20 PUSH1 0x40 MLOAD DUP1 DUP4 SUB DUP2 DUP7 GAS DELEGATECALL ISZERO DUP1 ISZERO PUSH3 0x3195 JUMPI RETURNDATASIZE PUSH1 0x0 DUP1 RETURNDATACOPY RETURNDATASIZE PUSH1 0x0 REVERT JUMPDEST POP POP POP POP PUSH1 0x40 MLOAD RETURNDATASIZE PUSH1 0x1F NOT PUSH1 0x1F DUP3 ADD AND DUP3 ADD DUP1 PUSH1 0x40 MSTORE POP DUP2 ADD SWAP1 PUSH3 0x31BB SWAP2 SWAP1 PUSH3 0x3CB2 JUMP JUMPDEST ISZERO PUSH3 0x252E JUMPI PUSH1 0x40 DUP1 MLOAD PUSH1 0xE0 DUP2 ADD DUP3 MSTORE PUSH1 0x1 PUSH1 0x1 PUSH1 0xA0 SHL SUB DUP5 AND DUP1 DUP3 MSTORE PUSH1 0x0 SWAP1 DUP2 MSTORE PUSH1 0xE PUSH1 0x20 SWAP1 DUP2 MSTORE SWAP3 SWAP1 KECCAK256 DUP1 SLOAD SWAP2 SWAP3 DUP4 ADD SWAP2 PUSH3 0x31F9 SWAP1 PUSH3 0x3E03 JUMP JUMPDEST DUP1 PUSH1 0x1F ADD PUSH1 0x20 DUP1 SWAP2 DIV MUL PUSH1 0x20 ADD PUSH1 0x40 MLOAD SWAP1 DUP2 ADD PUSH1 0x40 MSTORE DUP1 SWAP3 SWAP2 SWAP1 DUP2 DUP2 MSTORE PUSH1 0x20 ADD DUP3 DUP1 SLOAD PUSH3 0x3227 SWAP1 PUSH3 0x3E03 JUMP JUMPDEST DUP1 ISZERO PUSH3 0x3278 JUMPI DUP1 PUSH1 0x1F LT PUSH3 0x324C JUMPI PUSH2 0x100 DUP1 DUP4 SLOAD DIV MUL DUP4 MSTORE SWAP2 PUSH1 0x20 ADD SWAP2 PUSH3 0x3278 JUMP JUMPDEST DUP3 ADD SWAP2 SWAP1 PUSH1 0x0 MSTORE PUSH1 0x20 PUSH1 0x0 KECCAK256 SWAP1 JUMPDEST DUP2 SLOAD DUP2 MSTORE SWAP1 PUSH1 0x1 ADD SWAP1 PUSH1 0x20 ADD DUP1 DUP4 GT PUSH3 0x325A JUMPI DUP3 SWAP1 SUB PUSH1 0x1F AND DUP3 ADD SWAP2 JUMPDEST POP POP POP SWAP2 DUP4 MSTORE POP POP PUSH1 0x1 PUSH1 0x1 PUSH1 0xA0 SHL SUB DUP5 AND PUSH1 0x0 DUP2 DUP2 MSTORE PUSH1 0xF PUSH1 0x20 SWAP1 DUP2 MSTORE PUSH1 0x40 DUP1 DUP4 KECCAK256 SLOAD DUP3 DUP7 ADD MSTORE DUP4 DUP4 MSTORE PUSH1 0x12 DUP3 MSTORE DUP1 DUP4 KECCAK256 SLOAD DUP2 DUP7 ADD MSTORE SWAP3 DUP3 MSTORE PUSH1 0x10 DUP2 MSTORE SWAP1 DUP3 SWAP1 KECCAK256 DUP1 SLOAD DUP4 MLOAD DUP2 DUP5 MUL DUP2 ADD DUP5 ADD SWAP1 SWAP5 MSTORE DUP1 DUP5 MSTORE PUSH1 0x60 SWAP1 SWAP5 ADD SWAP4 SWAP1 SWAP2 DUP4 ADD DUP3 DUP3 DUP1 ISZERO PUSH3 0x3304 JUMPI PUSH1 0x20 MUL DUP3 ADD SWAP2 SWAP1 PUSH1 0x0 MSTORE PUSH1 0x20 PUSH1 0x0 KECCAK256 SWAP1 JUMPDEST DUP2 SLOAD DUP2 MSTORE PUSH1 0x20 ADD SWAP1 PUSH1 0x1 ADD SWAP1 DUP1 DUP4 GT PUSH3 0x32EF JUMPI JUMPDEST POP POP POP SWAP2 DUP4 MSTORE POP POP PUSH1 0x1 PUSH1 0x1 PUSH1 0xA0 SHL SUB SWAP1 SWAP4 AND PUSH1 0x0 DUP2 DUP2 MSTORE PUSH1 0x11 PUSH1 0x20 SWAP1 DUP2 MSTORE PUSH1 0x40 DUP1 DUP4 KECCAK256 SLOAD DUP3 DUP9 ADD MSTORE SWAP3 DUP3 MSTORE PUSH1 0x13 SWAP1 MSTORE DUP2 SWAP1 KECCAK256 SLOAD SWAP4 ADD SWAP3 SWAP1 SWAP3 MSTORE POP SWAP1 JUMP JUMPDEST PUSH1 0x1 SLOAD PUSH1 0x40 DUP1 MLOAD PUSH4 0x95D89B41 PUSH1 0xE0 SHL DUP2 MSTORE SWAP1 MLOAD PUSH1 0x60 SWAP3 PUSH1 0x1 PUSH1 0x1 PUSH1 0xA0 SHL SUB AND SWAP2 PUSH4 0x95D89B41 SWAP2 PUSH1 0x4 DUP1 DUP4 ADD SWAP3 PUSH1 0x0 SWAP3 SWAP2 SWAP1 DUP3 SWAP1 SUB ADD DUP2 DUP7 GAS STATICCALL ISZERO DUP1 ISZERO PUSH3 0x2620 JUMPI RETURNDATASIZE PUSH1 0x0 DUP1 RETURNDATACOPY RETURNDATASIZE PUSH1 0x0 REVERT JUMPDEST PUSH1 0x0 SLOAD PUSH1 0x1 PUSH1 0x1 PUSH1 0xA0 SHL SUB AND CALLER EQ PUSH3 0x33BA JUMPI PUSH1 0x40 MLOAD PUSH3 0x461BCD PUSH1 0xE5 SHL DUP2 MSTORE PUSH1 0x4 ADD PUSH3 0xCB6 SWAP1 PUSH3 0x3DDB JUMP JUMPDEST PUSH1 0x1 PUSH1 0x1 PUSH1 0xA0 SHL SUB DUP2 AND PUSH3 0x3412 JUMPI PUSH1 0x40 MLOAD PUSH3 0x461BCD PUSH1 0xE5 SHL DUP2 MSTORE PUSH1 0x20 PUSH1 0x4 DUP3 ADD MSTORE PUSH1 0x1A PUSH1 0x24 DUP3 ADD MSTORE PUSH32 0x4F776E657220616464726573732063616E74206265207A65726F000000000000 PUSH1 0x44 DUP3 ADD MSTORE PUSH1 0x64 ADD PUSH3 0xCB6 JUMP JUMPDEST PUSH1 0x0 DUP1 SLOAD PUSH1 0x1 PUSH1 0x1 PUSH1 0xA0 SHL SUB NOT AND PUSH1 0x1 PUSH1 0x1 PUSH1 0xA0 SHL SUB SWAP3 SWAP1 SWAP3 AND SWAP2 SWAP1 SWAP2 OR SWAP1 SSTORE JUMP JUMPDEST PUSH1 0x40 MLOAD DUP1 PUSH1 0xE0 ADD PUSH1 0x40 MSTORE DUP1 PUSH1 0x0 PUSH1 0x1 PUSH1 0x1 PUSH1 0xA0 SHL SUB AND DUP2 MSTORE PUSH1 0x20 ADD PUSH1 0x60 DUP2 MSTORE PUSH1 0x20 ADD PUSH1 0x0 DUP2 MSTORE PUSH1 0x20 ADD PUSH1 0x0 DUP2 MSTORE PUSH1 0x20 ADD PUSH1 0x60 DUP2 MSTORE PUSH1 0x20 ADD PUSH1 0x0 DUP2 MSTORE PUSH1 0x20 ADD PUSH1 0x0 DUP2 MSTORE POP SWAP1 JUMP JUMPDEST DUP3 DUP1 SLOAD PUSH3 0x3488 SWAP1 PUSH3 0x3E03 JUMP JUMPDEST SWAP1 PUSH1 0x0 MSTORE PUSH1 0x20 PUSH1 0x0 KECCAK256 SWAP1 PUSH1 0x1F ADD PUSH1 0x20 SWAP1 DIV DUP2 ADD SWAP3 DUP3 PUSH3 0x34AC JUMPI PUSH1 0x0 DUP6 SSTORE PUSH3 0x34F7 JUMP JUMPDEST DUP3 PUSH1 0x1F LT PUSH3 0x34C7 JUMPI DUP1 MLOAD PUSH1 0xFF NOT AND DUP4 DUP1 ADD OR DUP6 SSTORE PUSH3 0x34F7 JUMP JUMPDEST DUP3 DUP1 ADD PUSH1 0x1 ADD DUP6 SSTORE DUP3 ISZERO PUSH3 0x34F7 JUMPI SWAP2 DUP3 ADD JUMPDEST DUP3 DUP2 GT ISZERO PUSH3 0x34F7 JUMPI DUP3 MLOAD DUP3 SSTORE SWAP2 PUSH1 0x20 ADD SWAP2 SWAP1 PUSH1 0x1 ADD SWAP1 PUSH3 0x34DA JUMP JUMPDEST POP PUSH3 0x3505 SWAP3 SWAP2 POP PUSH3 0x35B6 JUMP JUMPDEST POP SWAP1 JUMP JUMPDEST PUSH1 0x40 MLOAD DUP1 PUSH1 0xA0 ADD PUSH1 0x40 MSTORE DUP1 PUSH1 0x0 PUSH1 0x1 PUSH1 0x1 PUSH1 0xA0 SHL SUB AND DUP2 MSTORE PUSH1 0x20 ADD PUSH1 0x0 DUP2 MSTORE PUSH1 0x20 ADD PUSH1 0x60 DUP2 MSTORE PUSH1 0x20 ADD PUSH1 0x0 DUP2 MSTORE PUSH1 0x20 ADD PUSH1 0x0 DUP2 MSTORE POP SWAP1 JUMP JUMPDEST PUSH1 0x40 MLOAD DUP1 PUSH2 0x120 ADD PUSH1 0x40 MSTORE DUP1 PUSH1 0x0 DUP2 MSTORE PUSH1 0x20 ADD PUSH1 0x0 DUP2 MSTORE PUSH1 0x20 ADD PUSH1 0x0 PUSH1 0x1 PUSH1 0x1 PUSH1 0xA0 SHL SUB AND DUP2 MSTORE PUSH1 0x20 ADD PUSH1 0x0 PUSH1 0x1 PUSH1 0x1 PUSH1 0xA0 SHL SUB AND DUP2 MSTORE PUSH1 0x20 ADD PUSH1 0x0 DUP2 MSTORE PUSH1 0x20 ADD PUSH1 0x0 DUP2 MSTORE PUSH1 0x20 ADD PUSH1 0x0 DUP2 MSTORE PUSH1 0x20 ADD PUSH1 0x0 PUSH1 0x1 PUSH1 0x1 PUSH1 0xA0 SHL SUB AND DUP2 MSTORE PUSH1 0x20 ADD PUSH1 0x60 DUP2 MSTORE POP SWAP1 JUMP JUMPDEST PUSH2 0xA47 DUP1 PUSH3 0x4075 DUP4 CODECOPY ADD SWAP1 JUMP JUMPDEST JUMPDEST DUP1 DUP3 GT ISZERO PUSH3 0x3505 JUMPI PUSH1 0x0 DUP2 SSTORE PUSH1 0x1 ADD PUSH3 0x35B7 JUMP JUMPDEST PUSH1 0x1 PUSH1 0x1 PUSH1 0xA0 SHL SUB DUP2 AND DUP2 EQ PUSH3 0x35E3 JUMPI PUSH1 0x0 DUP1 REVERT JUMPDEST POP JUMP JUMPDEST PUSH1 0x0 PUSH1 0x20 DUP3 DUP5 SUB SLT ISZERO PUSH3 0x35F9 JUMPI PUSH1 0x0 DUP1 REVERT JUMPDEST DUP2 CALLDATALOAD PUSH3 0x2820 DUP2 PUSH3 0x35CD JUMP JUMPDEST PUSH1 0x0 PUSH1 0x20 DUP3 DUP5 SUB SLT ISZERO PUSH3 0x3619 JUMPI PUSH1 0x0 DUP1 REVERT JUMPDEST POP CALLDATALOAD SWAP2 SWAP1 POP JUMP JUMPDEST PUSH1 0x0 JUMPDEST DUP4 DUP2 LT ISZERO PUSH3 0x363D JUMPI DUP2 DUP2 ADD MLOAD DUP4 DUP3 ADD MSTORE PUSH1 0x20 ADD PUSH3 0x3623 JUMP JUMPDEST DUP4 DUP2 GT ISZERO PUSH3 0x364D JUMPI PUSH1 0x0 DUP5 DUP5 ADD MSTORE JUMPDEST POP POP POP POP JUMP JUMPDEST PUSH1 0x0 DUP2 MLOAD DUP1 DUP5 MSTORE PUSH3 0x366D DUP2 PUSH1 0x20 DUP7 ADD PUSH1 0x20 DUP7 ADD PUSH3 0x3620 JUMP JUMPDEST PUSH1 0x1F ADD PUSH1 0x1F NOT AND SWAP3 SWAP1 SWAP3 ADD PUSH1 0x20 ADD SWAP3 SWAP2 POP POP JUMP JUMPDEST PUSH1 0x0 DUP2 MLOAD DUP1 DUP5 MSTORE PUSH1 0x20 DUP1 DUP6 ADD SWAP5 POP DUP1 DUP5 ADD PUSH1 0x0 JUMPDEST DUP4 DUP2 LT ISZERO PUSH3 0x36B3 JUMPI DUP2 MLOAD DUP8 MSTORE SWAP6 DUP3 ADD SWAP6 SWAP1 DUP3 ADD SWAP1 PUSH1 0x1 ADD PUSH3 0x3695 JUMP JUMPDEST POP SWAP5 SWAP6 SWAP5 POP POP POP POP POP JUMP JUMPDEST PUSH1 0x1 DUP1 PUSH1 0xA0 SHL SUB DUP2 MLOAD AND DUP3 MSTORE PUSH1 0x0 PUSH1 0x20 DUP3 ADD MLOAD PUSH1 0xE0 PUSH1 0x20 DUP6 ADD MSTORE PUSH3 0x36E7 PUSH1 0xE0 DUP6 ADD DUP3 PUSH3 0x3653 JUMP JUMPDEST SWAP1 POP PUSH1 0x40 DUP4 ADD MLOAD PUSH1 0x40 DUP6 ADD MSTORE PUSH1 0x60 DUP4 ADD MLOAD PUSH1 0x60 DUP6 ADD MSTORE PUSH1 0x80 DUP4 ADD MLOAD DUP5 DUP3 SUB PUSH1 0x80 DUP7 ADD MSTORE PUSH3 0x3716 DUP3 DUP3 PUSH3 0x3681 JUMP JUMPDEST SWAP2 POP POP PUSH1 0xA0 DUP4 ADD MLOAD PUSH1 0xA0 DUP6 ADD MSTORE PUSH1 0xC0 DUP4 ADD MLOAD PUSH1 0xC0 DUP6 ADD MSTORE DUP1 SWAP2 POP POP SWAP3 SWAP2 POP POP JUMP JUMPDEST PUSH1 0x0 PUSH1 0x20 DUP1 DUP4 ADD DUP2 DUP5 MSTORE DUP1 DUP6 MLOAD DUP1 DUP4 MSTORE PUSH1 0x40 DUP7 ADD SWAP2 POP PUSH1 0x40 DUP2 PUSH1 0x5 SHL DUP8 ADD ADD SWAP3 POP DUP4 DUP8 ADD PUSH1 0x0 JUMPDEST DUP3 DUP2 LT ISZERO PUSH3 0x3790 JUMPI PUSH1 0x3F NOT DUP9 DUP7 SUB ADD DUP5 MSTORE PUSH3 0x377D DUP6 DUP4 MLOAD PUSH3 0x36BE JUMP JUMPDEST SWAP5 POP SWAP3 DUP6 ADD SWAP3 SWAP1 DUP6 ADD SWAP1 PUSH1 0x1 ADD PUSH3 0x375E JUMP JUMPDEST POP SWAP3 SWAP8 SWAP7 POP POP POP POP POP POP POP JUMP JUMPDEST PUSH1 0x0 DUP1 PUSH1 0x40 DUP4 DUP6 SUB SLT ISZERO PUSH3 0x37B1 JUMPI PUSH1 0x0 DUP1 REVERT JUMPDEST DUP3 CALLDATALOAD PUSH3 0x37BE DUP2 PUSH3 0x35CD JUMP JUMPDEST SWAP5 PUSH1 0x20 SWAP4 SWAP1 SWAP4 ADD CALLDATALOAD SWAP4 POP POP POP JUMP JUMPDEST DUP1 ISZERO ISZERO DUP2 EQ PUSH3 0x35E3 JUMPI PUSH1 0x0 DUP1 REVERT JUMPDEST PUSH1 0x0 DUP1 PUSH1 0x40 DUP4 DUP6 SUB SLT ISZERO PUSH3 0x37EF JUMPI PUSH1 0x0 DUP1 REVERT JUMPDEST DUP3 CALLDATALOAD PUSH3 0x37FC DUP2 PUSH3 0x35CD JUMP JUMPDEST SWAP2 POP PUSH1 0x20 DUP4 ADD CALLDATALOAD PUSH3 0x380E DUP2 PUSH3 0x37CC JUMP JUMPDEST DUP1 SWAP2 POP POP SWAP3 POP SWAP3 SWAP1 POP JUMP JUMPDEST PUSH4 0x4E487B71 PUSH1 0xE0 SHL PUSH1 0x0 MSTORE PUSH1 0x41 PUSH1 0x4 MSTORE PUSH1 0x24 PUSH1 0x0 REVERT JUMPDEST PUSH1 0x40 MLOAD PUSH1 0x1F DUP3 ADD PUSH1 0x1F NOT AND DUP2 ADD PUSH8 0xFFFFFFFFFFFFFFFF DUP2 GT DUP3 DUP3 LT OR ISZERO PUSH3 0x385B JUMPI PUSH3 0x385B PUSH3 0x3819 JUMP JUMPDEST PUSH1 0x40 MSTORE SWAP2 SWAP1 POP JUMP JUMPDEST PUSH1 0x0 PUSH8 0xFFFFFFFFFFFFFFFF DUP3 GT ISZERO PUSH3 0x3880 JUMPI PUSH3 0x3880 PUSH3 0x3819 JUMP JUMPDEST POP PUSH1 0x1F ADD PUSH1 0x1F NOT AND PUSH1 0x20 ADD SWAP1 JUMP JUMPDEST PUSH1 0x0 DUP3 PUSH1 0x1F DUP4 ADD SLT PUSH3 0x38A0 JUMPI PUSH1 0x0 DUP1 REVERT JUMPDEST DUP2 CALLDATALOAD PUSH3 0x38B7 PUSH3 0x38B1 DUP3 PUSH3 0x3863 JUMP JUMPDEST PUSH3 0x382F JUMP JUMPDEST DUP2 DUP2 MSTORE DUP5 PUSH1 0x20 DUP4 DUP7 ADD ADD GT ISZERO PUSH3 0x38CD JUMPI PUSH1 0x0 DUP1 REVERT JUMPDEST DUP2 PUSH1 0x20 DUP6 ADD PUSH1 0x20 DUP4 ADD CALLDATACOPY PUSH1 0x0 SWAP2 DUP2 ADD PUSH1 0x20 ADD SWAP2 SWAP1 SWAP2 MSTORE SWAP4 SWAP3 POP POP POP JUMP JUMPDEST PUSH1 0x0 DUP1 PUSH1 0x40 DUP4 DUP6 SUB SLT ISZERO PUSH3 0x38FE JUMPI PUSH1 0x0 DUP1 REVERT JUMPDEST DUP3 CALLDATALOAD PUSH3 0x390B DUP2 PUSH3 0x35CD JUMP JUMPDEST SWAP2 POP PUSH1 0x20 DUP4 ADD CALLDATALOAD PUSH8 0xFFFFFFFFFFFFFFFF DUP2 GT ISZERO PUSH3 0x3928 JUMPI PUSH1 0x0 DUP1 REVERT JUMPDEST PUSH3 0x3936 DUP6 DUP3 DUP7 ADD PUSH3 0x388E JUMP JUMPDEST SWAP2 POP POP SWAP3 POP SWAP3 SWAP1 POP JUMP JUMPDEST PUSH1 0x1 DUP1 PUSH1 0xA0 SHL SUB DUP2 MLOAD AND DUP3 MSTORE PUSH1 0x20 DUP2 ADD MLOAD PUSH1 0x20 DUP4 ADD MSTORE PUSH1 0x0 PUSH1 0x40 DUP3 ADD MLOAD PUSH1 0xA0 PUSH1 0x40 DUP6 ADD MSTORE PUSH3 0x3973 PUSH1 0xA0 DUP6 ADD DUP3 PUSH3 0x3681 JUMP JUMPDEST SWAP1 POP PUSH1 0x60 DUP4 ADD MLOAD PUSH1 0x60 DUP6 ADD MSTORE PUSH1 0x80 DUP4 ADD MLOAD PUSH1 0x80 DUP6 ADD MSTORE DUP1 SWAP2 POP POP SWAP3 SWAP2 POP POP JUMP JUMPDEST PUSH1 0x0 PUSH1 0x20 DUP1 DUP4 ADD DUP2 DUP5 MSTORE DUP1 DUP6 MLOAD DUP1 DUP4 MSTORE PUSH1 0x40 DUP7 ADD SWAP2 POP PUSH1 0x40 DUP2 PUSH1 0x5 SHL DUP8 ADD ADD SWAP3 POP DUP4 DUP8 ADD PUSH1 0x0 JUMPDEST DUP3 DUP2 LT ISZERO PUSH3 0x3790 JUMPI PUSH1 0x3F NOT DUP9 DUP7 SUB ADD DUP5 MSTORE PUSH3 0x39D9 DUP6 DUP4 MLOAD PUSH3 0x3940 JUMP JUMPDEST SWAP5 POP SWAP3 DUP6 ADD SWAP3 SWAP1 DUP6 ADD SWAP1 PUSH1 0x1 ADD PUSH3 0x39BA JUMP JUMPDEST PUSH1 0x0 DUP1 PUSH1 0x0 PUSH1 0x60 DUP5 DUP7 SUB SLT ISZERO PUSH3 0x3A02 JUMPI PUSH1 0x0 DUP1 REVERT JUMPDEST DUP4 CALLDATALOAD PUSH3 0x3A0F DUP2 PUSH3 0x35CD JUMP JUMPDEST SWAP6 PUSH1 0x20 DUP6 ADD CALLDATALOAD SWAP6 POP PUSH1 0x40 SWAP1 SWAP5 ADD CALLDATALOAD SWAP4 SWAP3 POP POP POP JUMP JUMPDEST PUSH1 0x0 PUSH2 0x120 DUP3 MLOAD DUP5 MSTORE PUSH1 0x20 DUP4 ADD MLOAD PUSH1 0x20 DUP6 ADD MSTORE PUSH1 0x1 DUP1 PUSH1 0xA0 SHL SUB PUSH1 0x40 DUP5 ADD MLOAD AND PUSH1 0x40 DUP6 ADD MSTORE PUSH1 0x60 DUP4 ADD MLOAD PUSH3 0x3A64 PUSH1 0x60 DUP7 ADD DUP3 PUSH1 0x1 PUSH1 0x1 PUSH1 0xA0 SHL SUB AND SWAP1 MSTORE JUMP JUMPDEST POP PUSH1 0x80 DUP4 ADD MLOAD PUSH1 0x80 DUP6 ADD MSTORE PUSH1 0xA0 DUP4 ADD MLOAD PUSH1 0xA0 DUP6 ADD MSTORE PUSH1 0xC0 DUP4 ADD MLOAD PUSH1 0xC0 DUP6 ADD MSTORE PUSH1 0xE0 DUP4 ADD MLOAD PUSH3 0x3A9E PUSH1 0xE0 DUP7 ADD DUP3 PUSH1 0x1 PUSH1 0x1 PUSH1 0xA0 SHL SUB AND SWAP1 MSTORE JUMP JUMPDEST POP PUSH2 0x100 DUP1 DUP5 ADD MLOAD DUP3 DUP3 DUP8 ADD MSTORE PUSH3 0x3AB9 DUP4 DUP8 ADD DUP3 PUSH3 0x3653 JUMP JUMPDEST SWAP7 SWAP6 POP POP POP POP POP POP JUMP JUMPDEST PUSH1 0x0 PUSH1 0x20 DUP1 DUP4 ADD DUP2 DUP5 MSTORE DUP1 DUP6 MLOAD DUP1 DUP4 MSTORE PUSH1 0x40 DUP7 ADD SWAP2 POP PUSH1 0x40 DUP2 PUSH1 0x5 SHL DUP8 ADD ADD SWAP3 POP DUP4 DUP8 ADD PUSH1 0x0 JUMPDEST DUP3 DUP2 LT ISZERO PUSH3 0x3790 JUMPI PUSH1 0x3F NOT DUP9 DUP7 SUB ADD DUP5 MSTORE PUSH3 0x3B09 DUP6 DUP4 MLOAD PUSH3 0x3A24 JUMP JUMPDEST SWAP5 POP SWAP3 DUP6 ADD SWAP3 SWAP1 DUP6 ADD SWAP1 PUSH1 0x1 ADD PUSH3 0x3AEA JUMP JUMPDEST PUSH1 0x20 DUP1 DUP3 MSTORE DUP3 MLOAD DUP3 DUP3 ADD DUP2 SWAP1 MSTORE PUSH1 0x0 SWAP2 SWAP1 DUP5 DUP3 ADD SWAP1 PUSH1 0x40 DUP6 ADD SWAP1 DUP5 JUMPDEST DUP2 DUP2 LT ISZERO PUSH3 0x3B5F JUMPI DUP4 MLOAD PUSH1 0x1 PUSH1 0x1 PUSH1 0xA0 SHL SUB AND DUP4 MSTORE SWAP3 DUP5 ADD SWAP3 SWAP2 DUP5 ADD SWAP2 PUSH1 0x1 ADD PUSH3 0x3B38 JUMP JUMPDEST POP SWAP1 SWAP7 SWAP6 POP POP POP POP POP POP JUMP JUMPDEST PUSH1 0x0 PUSH2 0x120 DUP12 DUP4 MSTORE DUP11 PUSH1 0x20 DUP5 ADD MSTORE PUSH1 0x1 DUP1 PUSH1 0xA0 SHL SUB DUP1 DUP12 AND PUSH1 0x40 DUP6 ADD MSTORE DUP1 DUP11 AND PUSH1 0x60 DUP6 ADD MSTORE DUP9 PUSH1 0x80 DUP6 ADD MSTORE DUP8 PUSH1 0xA0 DUP6 ADD MSTORE DUP7 PUSH1 0xC0 DUP6 ADD MSTORE DUP1 DUP7 AND PUSH1 0xE0 DUP6 ADD MSTORE POP DUP1 PUSH2 0x100 DUP5 ADD MSTORE PUSH3 0x3BC0 DUP2 DUP5 ADD DUP6 PUSH3 0x3653 JUMP JUMPDEST SWAP13 SWAP12 POP POP POP POP POP POP POP POP POP POP POP POP JUMP JUMPDEST PUSH1 0x20 DUP2 MSTORE PUSH1 0x0 PUSH3 0x2820 PUSH1 0x20 DUP4 ADD DUP5 PUSH3 0x3A24 JUMP JUMPDEST PUSH1 0x20 DUP2 MSTORE PUSH1 0x0 PUSH3 0x2820 PUSH1 0x20 DUP4 ADD DUP5 PUSH3 0x3653 JUMP JUMPDEST PUSH1 0x20 DUP2 MSTORE PUSH1 0x0 PUSH3 0x2820 PUSH1 0x20 DUP4 ADD DUP5 PUSH3 0x3940 JUMP JUMPDEST PUSH1 0x0 DUP1 PUSH1 0x40 DUP4 DUP6 SUB SLT ISZERO PUSH3 0x3C23 JUMPI PUSH1 0x0 DUP1 REVERT JUMPDEST POP POP DUP1 CALLDATALOAD SWAP3 PUSH1 0x20 SWAP1 SWAP2 ADD CALLDATALOAD SWAP2 POP JUMP JUMPDEST PUSH1 0x0 DUP1 PUSH1 0x0 PUSH1 0x60 DUP5 DUP7 SUB SLT ISZERO PUSH3 0x3C48 JUMPI PUSH1 0x0 DUP1 REVERT JUMPDEST DUP4 CALLDATALOAD SWAP3 POP PUSH1 0x20 DUP5 ADD CALLDATALOAD SWAP2 POP PUSH1 0x40 DUP5 ADD CALLDATALOAD PUSH8 0xFFFFFFFFFFFFFFFF DUP2 GT ISZERO PUSH3 0x3C6E JUMPI PUSH1 0x0 DUP1 REVERT JUMPDEST PUSH3 0x3C7C DUP7 DUP3 DUP8 ADD PUSH3 0x388E JUMP JUMPDEST SWAP2 POP POP SWAP3 POP SWAP3 POP SWAP3 JUMP JUMPDEST PUSH1 0x20 DUP2 MSTORE PUSH1 0x0 PUSH3 0x2820 PUSH1 0x20 DUP4 ADD DUP5 PUSH3 0x36BE JUMP JUMPDEST SWAP2 DUP3 MSTORE PUSH1 0x1 PUSH1 0x1 PUSH1 0xA0 SHL SUB AND PUSH1 0x20 DUP3 ADD MSTORE PUSH1 0x40 ADD SWAP1 JUMP JUMPDEST PUSH1 0x0 PUSH1 0x20 DUP3 DUP5 SUB SLT ISZERO PUSH3 0x3CC5 JUMPI PUSH1 0x0 DUP1 REVERT JUMPDEST DUP2 MLOAD PUSH3 0x2820 DUP2 PUSH3 0x37CC JUMP JUMPDEST PUSH1 0x20 DUP1 DUP3 MSTORE PUSH1 0x11 SWAP1 DUP3 ADD MSTORE PUSH17 0x4F6E6C7920666F72206D616E6167657273 PUSH1 0x78 SHL PUSH1 0x40 DUP3 ADD MSTORE PUSH1 0x60 ADD SWAP1 JUMP JUMPDEST PUSH1 0x0 PUSH1 0x20 DUP3 DUP5 SUB SLT ISZERO PUSH3 0x3D10 JUMPI PUSH1 0x0 DUP1 REVERT JUMPDEST POP MLOAD SWAP2 SWAP1 POP JUMP JUMPDEST PUSH1 0x0 PUSH1 0x20 DUP3 DUP5 SUB SLT ISZERO PUSH3 0x3D2A JUMPI PUSH1 0x0 DUP1 REVERT JUMPDEST DUP2 MLOAD PUSH3 0x2820 DUP2 PUSH3 0x35CD JUMP JUMPDEST PUSH4 0x4E487B71 PUSH1 0xE0 SHL PUSH1 0x0 MSTORE PUSH1 0x32 PUSH1 0x4 MSTORE PUSH1 0x24 PUSH1 0x0 REVERT JUMPDEST PUSH4 0x4E487B71 PUSH1 0xE0 SHL PUSH1 0x0 MSTORE PUSH1 0x11 PUSH1 0x4 MSTORE PUSH1 0x24 PUSH1 0x0 REVERT JUMPDEST PUSH1 0x0 PUSH1 0x0 NOT DUP3 EQ ISZERO PUSH3 0x3D7A JUMPI PUSH3 0x3D7A PUSH3 0x3D4D JUMP JUMPDEST POP PUSH1 0x1 ADD SWAP1 JUMP JUMPDEST PUSH1 0x0 DUP3 NOT DUP3 GT ISZERO PUSH3 0x3D97 JUMPI PUSH3 0x3D97 PUSH3 0x3D4D JUMP JUMPDEST POP ADD SWAP1 JUMP JUMPDEST PUSH1 0x0 DUP3 DUP3 LT ISZERO PUSH3 0x3DB1 JUMPI PUSH3 0x3DB1 PUSH3 0x3D4D JUMP JUMPDEST POP SUB SWAP1 JUMP JUMPDEST PUSH1 0x0 PUSH1 0x20 DUP3 DUP5 SUB SLT ISZERO PUSH3 0x3DC9 JUMPI PUSH1 0x0 DUP1 REVERT JUMPDEST DUP2 MLOAD PUSH1 0xFF DUP2 AND DUP2 EQ PUSH3 0x2820 JUMPI PUSH1 0x0 DUP1 REVERT JUMPDEST PUSH1 0x20 DUP1 DUP3 MSTORE PUSH1 0xE SWAP1 DUP3 ADD MSTORE PUSH14 0x27B7363C903337B91037BBB732B9 PUSH1 0x91 SHL PUSH1 0x40 DUP3 ADD MSTORE PUSH1 0x60 ADD SWAP1 JUMP JUMPDEST PUSH1 0x1 DUP2 DUP2 SHR SWAP1 DUP3 AND DUP1 PUSH3 0x3E18 JUMPI PUSH1 0x7F DUP3 AND SWAP2 POP JUMPDEST PUSH1 0x20 DUP3 LT DUP2 EQ ISZERO PUSH3 0xED7 JUMPI PUSH4 0x4E487B71 PUSH1 0xE0 SHL PUSH1 0x0 MSTORE PUSH1 0x22 PUSH1 0x4 MSTORE PUSH1 0x24 PUSH1 0x0 REVERT JUMPDEST PUSH1 0x0 PUSH1 0x20 DUP1 DUP4 DUP6 SUB SLT ISZERO PUSH3 0x3E4E JUMPI PUSH1 0x0 DUP1 REVERT JUMPDEST DUP3 MLOAD PUSH8 0xFFFFFFFFFFFFFFFF DUP1 DUP3 GT ISZERO PUSH3 0x3E67 JUMPI PUSH1 0x0 DUP1 REVERT JUMPDEST DUP2 DUP6 ADD SWAP2 POP DUP6 PUSH1 0x1F DUP4 ADD SLT PUSH3 0x3E7C JUMPI PUSH1 0x0 DUP1 REVERT JUMPDEST DUP2 MLOAD DUP2 DUP2 GT ISZERO PUSH3 0x3E91 JUMPI PUSH3 0x3E91 PUSH3 0x3819 JUMP JUMPDEST DUP1 PUSH1 0x5 SHL SWAP2 POP PUSH3 0x3EA4 DUP5 DUP4 ADD PUSH3 0x382F JUMP JUMPDEST DUP2 DUP2 MSTORE SWAP2 DUP4 ADD DUP5 ADD SWAP2 DUP5 DUP2 ADD SWAP1 DUP9 DUP5 GT ISZERO PUSH3 0x3EBF JUMPI PUSH1 0x0 DUP1 REVERT JUMPDEST SWAP4 DUP6 ADD SWAP4 JUMPDEST DUP4 DUP6 LT ISZERO PUSH3 0x3EED JUMPI DUP5 MLOAD SWAP3 POP PUSH3 0x3EDC DUP4 PUSH3 0x35CD JUMP JUMPDEST DUP3 DUP3 MSTORE SWAP4 DUP6 ADD SWAP4 SWAP1 DUP6 ADD SWAP1 PUSH3 0x3EC4 JUMP JUMPDEST SWAP9 SWAP8 POP POP POP POP POP POP POP POP JUMP JUMPDEST PUSH1 0x0 PUSH1 0x20 DUP3 DUP5 SUB SLT ISZERO PUSH3 0x3F0C JUMPI PUSH1 0x0 DUP1 REVERT JUMPDEST DUP2 MLOAD PUSH8 0xFFFFFFFFFFFFFFFF DUP2 GT ISZERO PUSH3 0x3F24 JUMPI PUSH1 0x0 DUP1 REVERT JUMPDEST DUP3 ADD PUSH1 0x1F DUP2 ADD DUP5 SGT PUSH3 0x3F36 JUMPI PUSH1 0x0 DUP1 REVERT JUMPDEST DUP1 MLOAD PUSH3 0x3F47 PUSH3 0x38B1 DUP3 PUSH3 0x3863 JUMP JUMPDEST DUP2 DUP2 MSTORE DUP6 PUSH1 0x20 DUP4 DUP6 ADD ADD GT ISZERO PUSH3 0x3F5D JUMPI PUSH1 0x0 DUP1 REVERT JUMPDEST PUSH3 0x3F70 DUP3 PUSH1 0x20 DUP4 ADD PUSH1 0x20 DUP7 ADD PUSH3 0x3620 JUMP JUMPDEST SWAP6 SWAP5 POP POP POP POP POP JUMP JUMPDEST PUSH1 0x1 PUSH1 0x1 PUSH1 0xA0 SHL SUB DUP9 DUP2 AND DUP3 MSTORE DUP8 AND PUSH1 0x20 DUP1 DUP4 ADD SWAP2 SWAP1 SWAP2 MSTORE PUSH1 0x40 DUP3 ADD DUP8 SWAP1 MSTORE PUSH1 0x60 DUP3 ADD DUP7 SWAP1 MSTORE PUSH1 0x80 DUP3 ADD DUP6 SWAP1 MSTORE PUSH1 0xE0 PUSH1 0xA0 DUP4 ADD MSTORE DUP4 SLOAD PUSH1 0x0 SWAP2 DUP3 SWAP2 PUSH1 0x1 DUP2 DUP2 SHR SWAP1 DUP3 DUP2 AND DUP1 PUSH3 0x3FCA JUMPI PUSH1 0x7F DUP4 AND SWAP3 POP JUMPDEST DUP5 DUP4 LT DUP2 EQ ISZERO PUSH3 0x3FE9 JUMPI PUSH4 0x4E487B71 PUSH1 0xE0 SHL DUP7 MSTORE PUSH1 0x22 PUSH1 0x4 MSTORE PUSH1 0x24 DUP7 REVERT JUMPDEST PUSH1 0xE0 DUP9 ADD DUP4 SWAP1 MSTORE PUSH2 0x100 DUP9 ADD DUP2 DUP1 ISZERO PUSH3 0x400C JUMPI PUSH1 0x1 DUP2 EQ PUSH3 0x401E JUMPI PUSH3 0x404B JUMP JUMPDEST PUSH1 0xFF NOT DUP7 AND DUP3 MSTORE DUP7 DUP3 ADD SWAP8 POP PUSH3 0x404B JUMP JUMPDEST PUSH1 0x0 DUP13 DUP2 MSTORE PUSH1 0x20 SWAP1 KECCAK256 PUSH1 0x0 JUMPDEST DUP7 DUP2 LT ISZERO PUSH3 0x4045 JUMPI DUP2 SLOAD DUP5 DUP3 ADD MSTORE SWAP1 DUP6 ADD SWAP1 DUP9 ADD PUSH3 0x402A JUMP JUMPDEST DUP4 ADD SWAP9 POP POP JUMPDEST POP POP POP POP POP POP POP DUP3 DUP2 SUB PUSH1 0xC0 DUP5 ADD MSTORE PUSH3 0x4066 DUP2 DUP6 PUSH3 0x3653 JUMP JUMPDEST SWAP11 SWAP10 POP POP POP POP POP POP POP POP POP POP JUMP INVALID PUSH1 0x80 PUSH1 0x40 MSTORE CALLVALUE DUP1 ISZERO PUSH3 0x11 JUMPI PUSH1 0x0 DUP1 REVERT JUMPDEST POP PUSH1 0x40 MLOAD PUSH3 0xA47 CODESIZE SUB DUP1 PUSH3 0xA47 DUP4 CODECOPY DUP2 ADD PUSH1 0x40 DUP2 SWAP1 MSTORE PUSH3 0x34 SWAP2 PUSH3 0x3E4 JUMP JUMPDEST PUSH1 0x0 DUP1 SLOAD CALLER PUSH1 0x1 PUSH1 0x1 PUSH1 0xA0 SHL SUB NOT SWAP2 DUP3 AND OR DUP3 SSTORE PUSH1 0x2 DUP1 SLOAD DUP3 AND PUSH1 0x1 PUSH1 0x1 PUSH1 0xA0 SHL SUB DUP11 DUP2 AND SWAP2 SWAP1 SWAP2 OR SWAP1 SWAP2 SSTORE PUSH1 0x3 DUP9 SWAP1 SSTORE PUSH1 0x9 DUP8 SWAP1 SSTORE PUSH1 0xA DUP7 SWAP1 SSTORE PUSH1 0x1 DUP1 SLOAD SWAP1 SWAP3 AND SWAP1 DUP11 AND SWAP1 DUP2 OR SWAP1 SWAP2 SSTORE PUSH1 0x40 DUP1 MLOAD PUSH4 0x6FDDE03 PUSH1 0xE0 SHL DUP2 MSTORE SWAP1 MLOAD SWAP2 SWAP3 PUSH4 0x6FDDE03 SWAP3 PUSH1 0x4 DUP1 DUP5 ADD SWAP4 DUP3 SWAP1 SUB ADD DUP2 DUP7 GAS STATICCALL ISZERO DUP1 ISZERO PUSH3 0xB7 JUMPI RETURNDATASIZE PUSH1 0x0 DUP1 RETURNDATACOPY RETURNDATASIZE PUSH1 0x0 REVERT JUMPDEST POP POP POP POP PUSH1 0x40 MLOAD RETURNDATASIZE PUSH1 0x0 DUP3 RETURNDATACOPY PUSH1 0x1F RETURNDATASIZE SWAP1 DUP2 ADD PUSH1 0x1F NOT AND DUP3 ADD PUSH1 0x40 MSTORE PUSH3 0xE1 SWAP2 SWAP1 DUP2 ADD SWAP1 PUSH3 0x492 JUMP JUMPDEST DUP1 MLOAD PUSH3 0xF7 SWAP2 PUSH1 0x4 SWAP2 PUSH1 0x20 SWAP1 SWAP2 ADD SWAP1 PUSH3 0x254 JUMP JUMPDEST POP PUSH1 0x1 PUSH1 0x0 SWAP1 SLOAD SWAP1 PUSH2 0x100 EXP SWAP1 DIV PUSH1 0x1 PUSH1 0x1 PUSH1 0xA0 SHL SUB AND PUSH1 0x1 PUSH1 0x1 PUSH1 0xA0 SHL SUB AND PUSH4 0x95D89B41 PUSH1 0x40 MLOAD DUP2 PUSH4 0xFFFFFFFF AND PUSH1 0xE0 SHL DUP2 MSTORE PUSH1 0x4 ADD PUSH1 0x0 PUSH1 0x40 MLOAD DUP1 DUP4 SUB DUP2 DUP7 GAS STATICCALL ISZERO DUP1 ISZERO PUSH3 0x14C JUMPI RETURNDATASIZE PUSH1 0x0 DUP1 RETURNDATACOPY RETURNDATASIZE PUSH1 0x0 REVERT JUMPDEST POP POP POP POP PUSH1 0x40 MLOAD RETURNDATASIZE PUSH1 0x0 DUP3 RETURNDATACOPY PUSH1 0x1F RETURNDATASIZE SWAP1 DUP2 ADD PUSH1 0x1F NOT AND DUP3 ADD PUSH1 0x40 MSTORE PUSH3 0x176 SWAP2 SWAP1 DUP2 ADD SWAP1 PUSH3 0x492 JUMP JUMPDEST DUP1 MLOAD PUSH3 0x18C SWAP2 PUSH1 0x5 SWAP2 PUSH1 0x20 SWAP1 SWAP2 ADD SWAP1 PUSH3 0x254 JUMP JUMPDEST POP PUSH1 0x1 PUSH1 0x0 SWAP1 SLOAD SWAP1 PUSH2 0x100 EXP SWAP1 DIV PUSH1 0x1 PUSH1 0x1 PUSH1 0xA0 SHL SUB AND PUSH1 0x1 PUSH1 0x1 PUSH1 0xA0 SHL SUB AND PUSH4 0x313CE567 PUSH1 0x40 MLOAD DUP2 PUSH4 0xFFFFFFFF AND PUSH1 0xE0 SHL DUP2 MSTORE PUSH1 0x4 ADD PUSH1 0x20 PUSH1 0x40 MLOAD DUP1 DUP4 SUB DUP2 DUP7 GAS STATICCALL ISZERO DUP1 ISZERO PUSH3 0x1E1 JUMPI RETURNDATASIZE PUSH1 0x0 DUP1 RETURNDATACOPY RETURNDATASIZE PUSH1 0x0 REVERT JUMPDEST POP POP POP POP PUSH1 0x40 MLOAD RETURNDATASIZE PUSH1 0x1F NOT PUSH1 0x1F DUP3 ADD AND DUP3 ADD DUP1 PUSH1 0x40 MSTORE POP DUP2 ADD SWAP1 PUSH3 0x207 SWAP2 SWAP1 PUSH3 0x4D2 JUMP JUMPDEST PUSH1 0x6 DUP1 SLOAD PUSH1 0xFF NOT AND PUSH1 0xFF SWAP3 SWAP1 SWAP3 AND SWAP2 SWAP1 SWAP2 OR SWAP1 SSTORE DUP2 MLOAD PUSH3 0x230 SWAP1 PUSH1 0x7 SWAP1 PUSH1 0x20 DUP6 ADD SWAP1 PUSH3 0x254 JUMP JUMPDEST POP DUP1 MLOAD PUSH3 0x246 SWAP1 PUSH1 0x8 SWAP1 PUSH1 0x20 DUP5 ADD SWAP1 PUSH3 0x254 JUMP JUMPDEST POP POP POP POP POP POP POP POP PUSH3 0x53B JUMP JUMPDEST DUP3 DUP1 SLOAD PUSH3 0x262 SWAP1 PUSH3 0x4FE JUMP JUMPDEST SWAP1 PUSH1 0x0 MSTORE PUSH1 0x20 PUSH1 0x0 KECCAK256 SWAP1 PUSH1 0x1F ADD PUSH1 0x20 SWAP1 DIV DUP2 ADD SWAP3 DUP3 PUSH3 0x286 JUMPI PUSH1 0x0 DUP6 SSTORE PUSH3 0x2D1 JUMP JUMPDEST DUP3 PUSH1 0x1F LT PUSH3 0x2A1 JUMPI DUP1 MLOAD PUSH1 0xFF NOT AND DUP4 DUP1 ADD OR DUP6 SSTORE PUSH3 0x2D1 JUMP JUMPDEST DUP3 DUP1 ADD PUSH1 0x1 ADD DUP6 SSTORE DUP3 ISZERO PUSH3 0x2D1 JUMPI SWAP2 DUP3 ADD JUMPDEST DUP3 DUP2 GT ISZERO PUSH3 0x2D1 JUMPI DUP3 MLOAD DUP3 SSTORE SWAP2 PUSH1 0x20 ADD SWAP2 SWAP1 PUSH1 0x1 ADD SWAP1 PUSH3 0x2B4 JUMP JUMPDEST POP PUSH3 0x2DF SWAP3 SWAP2 POP PUSH3 0x2E3 JUMP JUMPDEST POP SWAP1 JUMP JUMPDEST JUMPDEST DUP1 DUP3 GT ISZERO PUSH3 0x2DF JUMPI PUSH1 0x0 DUP2 SSTORE PUSH1 0x1 ADD PUSH3 0x2E4 JUMP JUMPDEST DUP1 MLOAD PUSH1 0x1 PUSH1 0x1 PUSH1 0xA0 SHL SUB DUP2 AND DUP2 EQ PUSH3 0x312 JUMPI PUSH1 0x0 DUP1 REVERT JUMPDEST SWAP2 SWAP1 POP JUMP JUMPDEST PUSH4 0x4E487B71 PUSH1 0xE0 SHL PUSH1 0x0 MSTORE PUSH1 0x41 PUSH1 0x4 MSTORE PUSH1 0x24 PUSH1 0x0 REVERT JUMPDEST PUSH1 0x0 DUP3 PUSH1 0x1F DUP4 ADD SLT PUSH3 0x33F JUMPI PUSH1 0x0 DUP1 REVERT JUMPDEST DUP2 MLOAD PUSH1 0x1 PUSH1 0x1 PUSH1 0x40 SHL SUB DUP1 DUP3 GT ISZERO PUSH3 0x35C JUMPI PUSH3 0x35C PUSH3 0x317 JUMP JUMPDEST PUSH1 0x40 MLOAD PUSH1 0x1F DUP4 ADD PUSH1 0x1F NOT SWAP1 DUP2 AND PUSH1 0x3F ADD AND DUP2 ADD SWAP1 DUP3 DUP3 GT DUP2 DUP4 LT OR ISZERO PUSH3 0x387 JUMPI PUSH3 0x387 PUSH3 0x317 JUMP JUMPDEST DUP2 PUSH1 0x40 MSTORE DUP4 DUP2 MSTORE PUSH1 0x20 SWAP3 POP DUP7 DUP4 DUP6 DUP9 ADD ADD GT ISZERO PUSH3 0x3A4 JUMPI PUSH1 0x0 DUP1 REVERT JUMPDEST PUSH1 0x0 SWAP2 POP JUMPDEST DUP4 DUP3 LT ISZERO PUSH3 0x3C8 JUMPI DUP6 DUP3 ADD DUP4 ADD MLOAD DUP2 DUP4 ADD DUP5 ADD MSTORE SWAP1 DUP3 ADD SWAP1 PUSH3 0x3A9 JUMP JUMPDEST DUP4 DUP3 GT ISZERO PUSH3 0x3DA JUMPI PUSH1 0x0 DUP4 DUP6 DUP4 ADD ADD MSTORE JUMPDEST SWAP7 SWAP6 POP POP POP POP POP POP JUMP JUMPDEST PUSH1 0x0 DUP1 PUSH1 0x0 DUP1 PUSH1 0x0 DUP1 PUSH1 0x0 PUSH1 0xE0 DUP9 DUP11 SUB SLT ISZERO PUSH3 0x400 JUMPI PUSH1 0x0 DUP1 REVERT JUMPDEST PUSH3 0x40B DUP9 PUSH3 0x2FA JUMP JUMPDEST SWAP7 POP PUSH3 0x41B PUSH1 0x20 DUP10 ADD PUSH3 0x2FA JUMP JUMPDEST PUSH1 0x40 DUP10 ADD MLOAD PUSH1 0x60 DUP11 ADD MLOAD PUSH1 0x80 DUP12 ADD MLOAD PUSH1 0xA0 DUP13 ADD MLOAD SWAP4 SWAP10 POP SWAP2 SWAP8 POP SWAP6 POP SWAP4 POP PUSH1 0x1 PUSH1 0x1 PUSH1 0x40 SHL SUB DUP1 DUP3 GT ISZERO PUSH3 0x44F JUMPI PUSH1 0x0 DUP1 REVERT JUMPDEST PUSH3 0x45D DUP12 DUP4 DUP13 ADD PUSH3 0x32D JUMP JUMPDEST SWAP4 POP PUSH1 0xC0 DUP11 ADD MLOAD SWAP2 POP DUP1 DUP3 GT ISZERO PUSH3 0x474 JUMPI PUSH1 0x0 DUP1 REVERT JUMPDEST POP PUSH3 0x483 DUP11 DUP3 DUP12 ADD PUSH3 0x32D JUMP JUMPDEST SWAP2 POP POP SWAP3 SWAP6 SWAP9 SWAP2 SWAP5 SWAP8 POP SWAP3 SWAP6 POP JUMP JUMPDEST PUSH1 0x0 PUSH1 0x20 DUP3 DUP5 SUB SLT ISZERO PUSH3 0x4A5 JUMPI PUSH1 0x0 DUP1 REVERT JUMPDEST DUP2 MLOAD PUSH1 0x1 PUSH1 0x1 PUSH1 0x40 SHL SUB DUP2 GT ISZERO PUSH3 0x4BC JUMPI PUSH1 0x0 DUP1 REVERT JUMPDEST PUSH3 0x4CA DUP5 DUP3 DUP6 ADD PUSH3 0x32D JUMP JUMPDEST SWAP5 SWAP4 POP POP POP POP JUMP JUMPDEST PUSH1 0x0 PUSH1 0x20 DUP3 DUP5 SUB SLT ISZERO PUSH3 0x4E5 JUMPI PUSH1 0x0 DUP1 REVERT JUMPDEST DUP2 MLOAD PUSH1 0xFF DUP2 AND DUP2 EQ PUSH3 0x4F7 JUMPI PUSH1 0x0 DUP1 REVERT JUMPDEST SWAP4 SWAP3 POP POP POP JUMP JUMPDEST PUSH1 0x1 DUP2 DUP2 SHR SWAP1 DUP3 AND DUP1 PUSH3 0x513 JUMPI PUSH1 0x7F DUP3 AND SWAP2 POP JUMPDEST PUSH1 0x20 DUP3 LT DUP2 EQ ISZERO PUSH3 0x535 JUMPI PUSH4 0x4E487B71 PUSH1 0xE0 SHL PUSH1 0x0 MSTORE PUSH1 0x22 PUSH1 0x4 MSTORE PUSH1 0x24 PUSH1 0x0 REVERT JUMPDEST POP SWAP2 SWAP1 POP JUMP JUMPDEST PUSH2 0x4FC DUP1 PUSH3 0x54B PUSH1 0x0 CODECOPY PUSH1 0x0 RETURN INVALID PUSH1 0x80 PUSH1 0x40 MSTORE CALLVALUE DUP1 ISZERO PUSH2 0x10 JUMPI PUSH1 0x0 DUP1 REVERT JUMPDEST POP PUSH1 0x4 CALLDATASIZE LT PUSH2 0xEA JUMPI PUSH1 0x0 CALLDATALOAD PUSH1 0xE0 SHR DUP1 PUSH4 0x9C6F0D85 GT PUSH2 0x8C JUMPI DUP1 PUSH4 0xBB5D40EB GT PUSH2 0x66 JUMPI DUP1 PUSH4 0xBB5D40EB EQ PUSH2 0x1BD JUMPI DUP1 PUSH4 0xC45A0155 EQ PUSH2 0x1C5 JUMPI DUP1 PUSH4 0xE21F37CE EQ PUSH2 0x1D8 JUMPI DUP1 PUSH4 0xFC0C546A EQ PUSH2 0x1E0 JUMPI PUSH1 0x0 DUP1 REVERT JUMPDEST DUP1 PUSH4 0x9C6F0D85 EQ PUSH2 0x1A3 JUMPI DUP1 PUSH4 0xAA8C217C EQ PUSH2 0x1AC JUMPI DUP1 PUSH4 0xB39CB699 EQ PUSH2 0x1B5 JUMPI PUSH1 0x0 DUP1 REVERT JUMPDEST DUP1 PUSH4 0x313CE567 GT PUSH2 0xC8 JUMPI DUP1 PUSH4 0x313CE567 EQ PUSH2 0x14D JUMPI DUP1 PUSH4 0x57C9CA14 EQ PUSH2 0x16C JUMPI DUP1 PUSH4 0x7EB9385F EQ PUSH2 0x184 JUMPI DUP1 PUSH4 0x95D89B41 EQ PUSH2 0x19B JUMPI PUSH1 0x0 DUP1 REVERT JUMPDEST DUP1 PUSH4 0x6FDDE03 EQ PUSH2 0xEF JUMPI DUP1 PUSH4 0x7546172 EQ PUSH2 0x10D JUMPI DUP1 PUSH4 0x1E83409A EQ PUSH2 0x138 JUMPI JUMPDEST PUSH1 0x0 DUP1 REVERT JUMPDEST PUSH2 0xF7 PUSH2 0x1F3 JUMP JUMPDEST PUSH1 0x40 MLOAD PUSH2 0x104 SWAP2 SWAP1 PUSH2 0x3BE JUMP JUMPDEST PUSH1 0x40 MLOAD DUP1 SWAP2 SUB SWAP1 RETURN JUMPDEST PUSH1 0x2 SLOAD PUSH2 0x120 SWAP1 PUSH1 0x1 PUSH1 0x1 PUSH1 0xA0 SHL SUB AND DUP2 JUMP JUMPDEST PUSH1 0x40 MLOAD PUSH1 0x1 PUSH1 0x1 PUSH1 0xA0 SHL SUB SWAP1 SWAP2 AND DUP2 MSTORE PUSH1 0x20 ADD PUSH2 0x104 JUMP JUMPDEST PUSH2 0x14B PUSH2 0x146 CALLDATASIZE PUSH1 0x4 PUSH2 0x413 JUMP JUMPDEST PUSH2 0x281 JUMP JUMPDEST STOP JUMPDEST PUSH1 0x6 SLOAD PUSH2 0x15A SWAP1 PUSH1 0xFF AND DUP2 JUMP JUMPDEST PUSH1 0x40 MLOAD PUSH1 0xFF SWAP1 SWAP2 AND DUP2 MSTORE PUSH1 0x20 ADD PUSH2 0x104 JUMP JUMPDEST PUSH2 0x174 PUSH2 0x301 JUMP JUMPDEST PUSH1 0x40 MLOAD SWAP1 ISZERO ISZERO DUP2 MSTORE PUSH1 0x20 ADD PUSH2 0x104 JUMP JUMPDEST PUSH2 0x18D PUSH1 0xA SLOAD DUP2 JUMP JUMPDEST PUSH1 0x40 MLOAD SWAP1 DUP2 MSTORE PUSH1 0x20 ADD PUSH2 0x104 JUMP JUMPDEST PUSH2 0xF7 PUSH2 0x373 JUMP JUMPDEST PUSH2 0x18D PUSH1 0x9 SLOAD DUP2 JUMP JUMPDEST PUSH2 0x18D PUSH1 0x3 SLOAD DUP2 JUMP JUMPDEST PUSH2 0xF7 PUSH2 0x380 JUMP JUMPDEST PUSH2 0x174 PUSH2 0x38D JUMP JUMPDEST PUSH1 0x0 SLOAD PUSH2 0x120 SWAP1 PUSH1 0x1 PUSH1 0x1 PUSH1 0xA0 SHL SUB AND DUP2 JUMP JUMPDEST PUSH2 0xF7 PUSH2 0x3B1 JUMP JUMPDEST PUSH1 0x1 SLOAD PUSH2 0x120 SWAP1 PUSH1 0x1 PUSH1 0x1 PUSH1 0xA0 SHL SUB AND DUP2 JUMP JUMPDEST PUSH1 0x4 DUP1 SLOAD PUSH2 0x200 SWAP1 PUSH2 0x443 JUMP JUMPDEST DUP1 PUSH1 0x1F ADD PUSH1 0x20 DUP1 SWAP2 DIV MUL PUSH1 0x20 ADD PUSH1 0x40 MLOAD SWAP1 DUP2 ADD PUSH1 0x40 MSTORE DUP1 SWAP3 SWAP2 SWAP1 DUP2 DUP2 MSTORE PUSH1 0x20 ADD DUP3 DUP1 SLOAD PUSH2 0x22C SWAP1 PUSH2 0x443 JUMP JUMPDEST DUP1 ISZERO PUSH2 0x279 JUMPI DUP1 PUSH1 0x1F LT PUSH2 0x24E JUMPI PUSH2 0x100 DUP1 DUP4 SLOAD DIV MUL DUP4 MSTORE SWAP2 PUSH1 0x20 ADD SWAP2 PUSH2 0x279 JUMP JUMPDEST DUP3 ADD SWAP2 SWAP1 PUSH1 0x0 MSTORE PUSH1 0x20 PUSH1 0x0 KECCAK256 SWAP1 JUMPDEST DUP2 SLOAD DUP2 MSTORE SWAP1 PUSH1 0x1 ADD SWAP1 PUSH1 0x20 ADD DUP1 DUP4 GT PUSH2 0x25C JUMPI DUP3 SWAP1 SUB PUSH1 0x1F AND DUP3 ADD SWAP2 JUMPDEST POP POP POP POP POP DUP2 JUMP JUMPDEST PUSH1 0x0 SLOAD PUSH1 0x1 PUSH1 0x1 PUSH1 0xA0 SHL SUB SWAP1 DUP2 AND SWAP1 PUSH4 0x1E83409A SWAP1 DUP4 AND ISZERO PUSH2 0x2A3 JUMPI DUP3 PUSH2 0x2A5 JUMP JUMPDEST CALLER JUMPDEST PUSH1 0x40 MLOAD PUSH1 0x1 PUSH1 0x1 PUSH1 0xE0 SHL SUB NOT PUSH1 0xE0 DUP5 SWAP1 SHL AND DUP2 MSTORE PUSH1 0x1 PUSH1 0x1 PUSH1 0xA0 SHL SUB SWAP1 SWAP2 AND PUSH1 0x4 DUP3 ADD MSTORE PUSH1 0x24 ADD PUSH1 0x0 PUSH1 0x40 MLOAD DUP1 DUP4 SUB DUP2 PUSH1 0x0 DUP8 DUP1 EXTCODESIZE ISZERO DUP1 ISZERO PUSH2 0x2E6 JUMPI PUSH1 0x0 DUP1 REVERT JUMPDEST POP GAS CALL ISZERO DUP1 ISZERO PUSH2 0x2FA JUMPI RETURNDATASIZE PUSH1 0x0 DUP1 RETURNDATACOPY RETURNDATASIZE PUSH1 0x0 REVERT JUMPDEST POP POP POP POP POP JUMP JUMPDEST PUSH1 0x0 DUP1 SLOAD PUSH1 0x40 MLOAD PUSH4 0x2A4E4553 PUSH1 0xE0 SHL DUP2 MSTORE ADDRESS PUSH1 0x4 DUP3 ADD MSTORE PUSH1 0x1 PUSH1 0x1 PUSH1 0xA0 SHL SUB SWAP1 SWAP2 AND SWAP1 PUSH4 0x2A4E4553 SWAP1 PUSH1 0x24 ADD PUSH1 0x20 PUSH1 0x40 MLOAD DUP1 DUP4 SUB DUP2 DUP7 GAS STATICCALL ISZERO DUP1 ISZERO PUSH2 0x34A JUMPI RETURNDATASIZE PUSH1 0x0 DUP1 RETURNDATACOPY RETURNDATASIZE PUSH1 0x0 REVERT JUMPDEST POP POP POP POP PUSH1 0x40 MLOAD RETURNDATASIZE PUSH1 0x1F NOT PUSH1 0x1F DUP3 ADD AND DUP3 ADD DUP1 PUSH1 0x40 MSTORE POP DUP2 ADD SWAP1 PUSH2 0x36E SWAP2 SWAP1 PUSH2 0x47E JUMP JUMPDEST SWAP1 POP SWAP1 JUMP JUMPDEST PUSH1 0x5 DUP1 SLOAD PUSH2 0x200 SWAP1 PUSH2 0x443 JUMP JUMPDEST PUSH1 0x7 DUP1 SLOAD PUSH2 0x200 SWAP1 PUSH2 0x443 JUMP JUMPDEST PUSH1 0x0 TIMESTAMP PUSH1 0xA SLOAD PUSH1 0x9 SLOAD PUSH2 0x3A0 SWAP2 SWAP1 PUSH2 0x4A0 JUMP JUMPDEST GT PUSH2 0x3AB JUMPI POP PUSH1 0x0 SWAP1 JUMP JUMPDEST POP PUSH1 0x1 SWAP1 JUMP JUMPDEST PUSH1 0x8 DUP1 SLOAD PUSH2 0x200 SWAP1 PUSH2 0x443 JUMP JUMPDEST PUSH1 0x0 PUSH1 0x20 DUP1 DUP4 MSTORE DUP4 MLOAD DUP1 DUP3 DUP6 ADD MSTORE PUSH1 0x0 JUMPDEST DUP2 DUP2 LT ISZERO PUSH2 0x3EB JUMPI DUP6 DUP2 ADD DUP4 ADD MLOAD DUP6 DUP3 ADD PUSH1 0x40 ADD MSTORE DUP3 ADD PUSH2 0x3CF JUMP JUMPDEST DUP2 DUP2 GT ISZERO PUSH2 0x3FD JUMPI PUSH1 0x0 PUSH1 0x40 DUP4 DUP8 ADD ADD MSTORE JUMPDEST POP PUSH1 0x1F ADD PUSH1 0x1F NOT AND SWAP3 SWAP1 SWAP3 ADD PUSH1 0x40 ADD SWAP4 SWAP3 POP POP POP JUMP JUMPDEST PUSH1 0x0 PUSH1 0x20 DUP3 DUP5 SUB SLT ISZERO PUSH2 0x425 JUMPI PUSH1 0x0 DUP1 REVERT JUMPDEST DUP2 CALLDATALOAD PUSH1 0x1 PUSH1 0x1 PUSH1 0xA0 SHL SUB DUP2 AND DUP2 EQ PUSH2 0x43C JUMPI PUSH1 0x0 DUP1 REVERT JUMPDEST SWAP4 SWAP3 POP POP POP JUMP JUMPDEST PUSH1 0x1 DUP2 DUP2 SHR SWAP1 DUP3 AND DUP1 PUSH2 0x457 JUMPI PUSH1 0x7F DUP3 AND SWAP2 POP JUMPDEST PUSH1 0x20 DUP3 LT DUP2 EQ ISZERO PUSH2 0x478 JUMPI PUSH4 0x4E487B71 PUSH1 0xE0 SHL PUSH1 0x0 MSTORE PUSH1 0x22 PUSH1 0x4 MSTORE PUSH1 0x24 PUSH1 0x0 REVERT JUMPDEST POP SWAP2 SWAP1 POP JUMP JUMPDEST PUSH1 0x0 PUSH1 0x20 DUP3 DUP5 SUB SLT ISZERO PUSH2 0x490 JUMPI PUSH1 0x0 DUP1 REVERT JUMPDEST DUP2 MLOAD DUP1 ISZERO ISZERO DUP2 EQ PUSH2 0x43C JUMPI PUSH1 0x0 DUP1 REVERT JUMPDEST PUSH1 0x0 DUP3 NOT DUP3 GT ISZERO PUSH2 0x4C1 JUMPI PUSH4 0x4E487B71 PUSH1 0xE0 SHL PUSH1 0x0 MSTORE PUSH1 0x11 PUSH1 0x4 MSTORE PUSH1 0x24 PUSH1 0x0 REVERT JUMPDEST POP ADD SWAP1 JUMP INVALID LOG2 PUSH5 0x6970667358 0x22 SLT KECCAK256 0xB5 RETURNDATASIZE 0xD0 PUSH17 0x8331869CC60DACD6E02783129AE73535F5 0xE6 0xB3 SSTORE PUSH5 0x6DCCA264C2 0x25 0x2B PUSH5 0x736F6C6343 STOP ADDMOD 0xC STOP CALLER LOG2 PUSH5 0x6970667358 0x22 SLT KECCAK256 0xB6 0xE6 CODECOPY PUSH1 0x66 0x2B 0xB1 0xC8 MUL INVALID 0xB1 PUSH30 0x3A52D73C279BE5A4EF07BF7F526CF50DF356C1AF64736F6C634300080C00 CALLER "
		},
		"gasEstimates": {
			"creation": {
				"codeDepositCost": "3837000",
				"executionCost": "infinite",
				"totalCost": "infinite"
			},
			"external": {
				"addMinter(address,string)": "infinite",
				"addMinterBalance(address,uint256)": "infinite",
				"claim(address)": "infinite",
				"claimedAmount(address)": "2572",
				"claimedByMinter(address)": "2636",
				"claimedFaucetUsed(address)": "2592",
				"claimedQrCodes(address,uint256)": "4840",
				"claimedQrCodesCount(address)": "2570",
				"codeTL()": "2374",
				"faucetAmount()": "2374",
				"getAddressNativeBalance(address)": "3040",
				"getAddressTokenBalance(address)": "infinite",
				"getAllQrCodes()": "infinite",
				"getClaimedQrCodes(address,uint256,uint256)": "infinite",
				"getClaimerInfo(address)": "infinite",
				"getClaimers(uint256,uint256)": "infinite",
				"getClaimersInfo()": "infinite",
				"getFaucetBalance()": "271",
				"getIsManager(address)": "infinite",
				"getIsMinter(address)": "infinite",
				"getManagers()": "infinite",
				"getMinterInfo(address)": "infinite",
				"getMinterQrCodes(address,uint256,uint256)": "infinite",
				"getMinters()": "infinite",
				"getMintersInfo()": "infinite",
				"getQrCode(uint256)": "infinite",
				"getQrCodeByAddress(address)": "infinite",
				"getTokenBalance()": "infinite",
				"getTokenDecimals()": "infinite",
				"getTokenName()": "infinite",
				"getTokenSymbol()": "infinite",
				"isQrCodeClaimed(address)": "7042",
				"maxMintAmountPerQrCodeGlobal()": "2374",
				"mint(uint256,uint256,string)": "infinite",
				"mintedAmount(address)": "2634",
				"mintedQrCodes(address,uint256)": "4796",
				"mintedQrCodesCount(address)": "2592",
				"mintersName(address)": "infinite",
				"owner()": "2449",
				"qrCodes(uint256)": "infinite",
				"qrCodesLength()": "2353",
				"qrCodesRouters(address)": "2613",
				"setCodeTL(uint256)": "24553",
				"setFaucetAmount(uint256)": "24533",
				"setIsManager(address,bool)": "infinite",
				"setIsMinter(address,bool)": "infinite",
				"setMaxMintAmountPerQrCode(address,uint256)": "infinite",
				"setMaxMintAmountPerQrCodeGlobal(uint256)": "infinite",
				"setMinterBalance(address,uint256)": "infinite",
				"setMinterName(address,string)": "infinite",
				"tokenAddress()": "2449",
				"totalClaimedAmount()": "2418",
				"totalFaucetAmount()": "2395",
				"totalMintedAmount()": "2395",
				"totalQrCodesClaimed()": "2351",
				"transferOwnership(address)": "26850"
			}
		},
		"methodIdentifiers": {
			"addMinter(address,string)": "424f3c8e",
			"addMinterBalance(address,uint256)": "384e491d",
			"claim(address)": "1e83409a",
			"claimedAmount(address)": "04e86903",
			"claimedByMinter(address)": "3e70703e",
			"claimedFaucetUsed(address)": "2e42add7",
			"claimedQrCodes(address,uint256)": "44e2ad99",
			"claimedQrCodesCount(address)": "ad4ad7ca",
			"codeTL()": "563d3ca3",
			"faucetAmount()": "9c281430",
			"getAddressNativeBalance(address)": "d846ceae",
			"getAddressTokenBalance(address)": "a50ffda5",
			"getAllQrCodes()": "572d4721",
			"getClaimedQrCodes(address,uint256,uint256)": "4f513277",
			"getClaimerInfo(address)": "878d7d87",
			"getClaimers(uint256,uint256)": "98adcc97",
			"getClaimersInfo()": "440d712b",
			"getFaucetBalance()": "f1f959a6",
			"getIsManager(address)": "198e14f8",
			"getIsMinter(address)": "17fc30d4",
			"getManagers()": "a8d088bb",
			"getMinterInfo(address)": "f09b2203",
			"getMinterQrCodes(address,uint256,uint256)": "e43e5541",
			"getMinters()": "6b32810b",
			"getMintersInfo()": "143f338c",
			"getQrCode(uint256)": "6f7ab8d1",
			"getQrCodeByAddress(address)": "81b5479d",
			"getTokenBalance()": "82b2e257",
			"getTokenDecimals()": "24f65ee7",
			"getTokenName()": "862b092b",
			"getTokenSymbol()": "f1850af8",
			"isQrCodeClaimed(address)": "2a4e4553",
			"maxMintAmountPerQrCodeGlobal()": "892ff8bd",
			"mint(uint256,uint256,string)": "c6e64e53",
			"mintedAmount(address)": "fbbf8cc3",
			"mintedQrCodes(address,uint256)": "206855d0",
			"mintedQrCodesCount(address)": "b862251f",
			"mintersName(address)": "d3a51ff2",
			"owner()": "8da5cb5b",
			"qrCodes(uint256)": "6ca80026",
			"qrCodesLength()": "1654d42c",
			"qrCodesRouters(address)": "dccb445b",
			"setCodeTL(uint256)": "a01bad52",
			"setFaucetAmount(uint256)": "81d2fd9c",
			"setIsManager(address,bool)": "26767f90",
			"setIsMinter(address,bool)": "66eb399f",
			"setMaxMintAmountPerQrCode(address,uint256)": "59d1bd80",
			"setMaxMintAmountPerQrCodeGlobal(uint256)": "04f32a1d",
			"setMinterBalance(address,uint256)": "66059a16",
			"setMinterName(address,string)": "ece76435",
			"tokenAddress()": "9d76ea58",
			"totalClaimedAmount()": "9661cb0d",
			"totalFaucetAmount()": "f1294ef6",
			"totalMintedAmount()": "6f865e6f",
			"totalQrCodesClaimed()": "9db1ff16",
			"transferOwnership(address)": "f2fde38b"
		}
	},
	"abi": [
		{
			"inputs": [
				{
					"internalType": "address",
					"name": "_tokenAddress",
					"type": "address"
				}
			],
			"stateMutability": "nonpayable",
			"type": "constructor"
		},
		{
			"anonymous": false,
			"inputs": [
				{
					"indexed": false,
					"internalType": "address",
					"name": "qrcode",
					"type": "address"
				}
			],
			"name": "QrCodeMinted",
			"type": "event"
		},
		{
			"inputs": [
				{
					"internalType": "address",
					"name": "minter",
					"type": "address"
				},
				{
					"internalType": "string",
					"name": "name",
					"type": "string"
				}
			],
			"name": "addMinter",
			"outputs": [],
			"stateMutability": "nonpayable",
			"type": "function"
		},
		{
			"inputs": [
				{
					"internalType": "address",
					"name": "minter",
					"type": "address"
				},
				{
					"internalType": "uint256",
					"name": "amount",
					"type": "uint256"
				}
			],
			"name": "addMinterBalance",
			"outputs": [],
			"stateMutability": "nonpayable",
			"type": "function"
		},
		{
			"inputs": [
				{
					"internalType": "address",
					"name": "claimer",
					"type": "address"
				}
			],
			"name": "claim",
			"outputs": [],
			"stateMutability": "nonpayable",
			"type": "function"
		},
		{
			"inputs": [
				{
					"internalType": "address",
					"name": "",
					"type": "address"
				}
			],
			"name": "claimedAmount",
			"outputs": [
				{
					"internalType": "uint256",
					"name": "",
					"type": "uint256"
				}
			],
			"stateMutability": "view",
			"type": "function"
		},
		{
			"inputs": [
				{
					"internalType": "address",
					"name": "",
					"type": "address"
				}
			],
			"name": "claimedByMinter",
			"outputs": [
				{
					"internalType": "uint256",
					"name": "",
					"type": "uint256"
				}
			],
			"stateMutability": "view",
			"type": "function"
		},
		{
			"inputs": [
				{
					"internalType": "address",
					"name": "",
					"type": "address"
				}
			],
			"name": "claimedFaucetUsed",
			"outputs": [
				{
					"internalType": "uint256",
					"name": "",
					"type": "uint256"
				}
			],
			"stateMutability": "view",
			"type": "function"
		},
		{
			"inputs": [
				{
					"internalType": "address",
					"name": "",
					"type": "address"
				},
				{
					"internalType": "uint256",
					"name": "",
					"type": "uint256"
				}
			],
			"name": "claimedQrCodes",
			"outputs": [
				{
					"internalType": "uint256",
					"name": "",
					"type": "uint256"
				}
			],
			"stateMutability": "view",
			"type": "function"
		},
		{
			"inputs": [
				{
					"internalType": "address",
					"name": "",
					"type": "address"
				}
			],
			"name": "claimedQrCodesCount",
			"outputs": [
				{
					"internalType": "uint256",
					"name": "",
					"type": "uint256"
				}
			],
			"stateMutability": "view",
			"type": "function"
		},
		{
			"inputs": [],
			"name": "codeTL",
			"outputs": [
				{
					"internalType": "uint256",
					"name": "",
					"type": "uint256"
				}
			],
			"stateMutability": "view",
			"type": "function"
		},
		{
			"inputs": [],
			"name": "faucetAmount",
			"outputs": [
				{
					"internalType": "uint256",
					"name": "",
					"type": "uint256"
				}
			],
			"stateMutability": "view",
			"type": "function"
		},
		{
			"inputs": [
				{
					"internalType": "address",
					"name": "_address",
					"type": "address"
				}
			],
			"name": "getAddressNativeBalance",
			"outputs": [
				{
					"internalType": "uint256",
					"name": "",
					"type": "uint256"
				}
			],
			"stateMutability": "view",
			"type": "function"
		},
		{
			"inputs": [
				{
					"internalType": "address",
					"name": "_address",
					"type": "address"
				}
			],
			"name": "getAddressTokenBalance",
			"outputs": [
				{
					"internalType": "uint256",
					"name": "",
					"type": "uint256"
				}
			],
			"stateMutability": "view",
			"type": "function"
		},
		{
			"inputs": [],
			"name": "getAllQrCodes",
			"outputs": [
				{
					"components": [
						{
							"internalType": "uint256",
							"name": "id",
							"type": "uint256"
						},
						{
							"internalType": "uint256",
							"name": "amount",
							"type": "uint256"
						},
						{
							"internalType": "address",
							"name": "minter",
							"type": "address"
						},
						{
							"internalType": "address",
							"name": "claimer",
							"type": "address"
						},
						{
							"internalType": "uint256",
							"name": "minted_at",
							"type": "uint256"
						},
						{
							"internalType": "uint256",
							"name": "claimed_at",
							"type": "uint256"
						},
						{
							"internalType": "uint256",
							"name": "timelife",
							"type": "uint256"
						},
						{
							"internalType": "address",
							"name": "router",
							"type": "address"
						},
						{
							"internalType": "string",
							"name": "message",
							"type": "string"
						}
					],
					"internalType": "struct QRCodeFactory.QRCODE[]",
					"name": "",
					"type": "tuple[]"
				}
			],
			"stateMutability": "view",
			"type": "function"
		},
		{
			"inputs": [
				{
					"internalType": "address",
					"name": "claimer",
					"type": "address"
				},
				{
					"internalType": "uint256",
					"name": "offset",
					"type": "uint256"
				},
				{
					"internalType": "uint256",
					"name": "limit",
					"type": "uint256"
				}
			],
			"name": "getClaimedQrCodes",
			"outputs": [
				{
					"components": [
						{
							"internalType": "uint256",
							"name": "id",
							"type": "uint256"
						},
						{
							"internalType": "uint256",
							"name": "amount",
							"type": "uint256"
						},
						{
							"internalType": "address",
							"name": "minter",
							"type": "address"
						},
						{
							"internalType": "address",
							"name": "claimer",
							"type": "address"
						},
						{
							"internalType": "uint256",
							"name": "minted_at",
							"type": "uint256"
						},
						{
							"internalType": "uint256",
							"name": "claimed_at",
							"type": "uint256"
						},
						{
							"internalType": "uint256",
							"name": "timelife",
							"type": "uint256"
						},
						{
							"internalType": "address",
							"name": "router",
							"type": "address"
						},
						{
							"internalType": "string",
							"name": "message",
							"type": "string"
						}
					],
					"internalType": "struct QRCodeFactory.QRCODE[]",
					"name": "",
					"type": "tuple[]"
				}
			],
			"stateMutability": "view",
			"type": "function"
		},
		{
			"inputs": [
				{
					"internalType": "address",
					"name": "claimer",
					"type": "address"
				}
			],
			"name": "getClaimerInfo",
			"outputs": [
				{
					"components": [
						{
							"internalType": "address",
							"name": "claimerAddress",
							"type": "address"
						},
						{
							"internalType": "uint256",
							"name": "claimedAmount",
							"type": "uint256"
						},
						{
							"internalType": "uint256[]",
							"name": "claimedQrCodes",
							"type": "uint256[]"
						},
						{
							"internalType": "uint256",
							"name": "claimedQrCodesCount",
							"type": "uint256"
						},
						{
							"internalType": "uint256",
							"name": "faucetUsed",
							"type": "uint256"
						}
					],
					"internalType": "struct QRCodeFactory.ClaimerInfo",
					"name": "ret",
					"type": "tuple"
				}
			],
			"stateMutability": "view",
			"type": "function"
		},
		{
			"inputs": [
				{
					"internalType": "uint256",
					"name": "offset",
					"type": "uint256"
				},
				{
					"internalType": "uint256",
					"name": "limit",
					"type": "uint256"
				}
			],
			"name": "getClaimers",
			"outputs": [
				{
					"internalType": "address[]",
					"name": "",
					"type": "address[]"
				}
			],
			"stateMutability": "view",
			"type": "function"
		},
		{
			"inputs": [],
			"name": "getClaimersInfo",
			"outputs": [
				{
					"components": [
						{
							"internalType": "address",
							"name": "claimerAddress",
							"type": "address"
						},
						{
							"internalType": "uint256",
							"name": "claimedAmount",
							"type": "uint256"
						},
						{
							"internalType": "uint256[]",
							"name": "claimedQrCodes",
							"type": "uint256[]"
						},
						{
							"internalType": "uint256",
							"name": "claimedQrCodesCount",
							"type": "uint256"
						},
						{
							"internalType": "uint256",
							"name": "faucetUsed",
							"type": "uint256"
						}
					],
					"internalType": "struct QRCodeFactory.ClaimerInfo[]",
					"name": "",
					"type": "tuple[]"
				}
			],
			"stateMutability": "view",
			"type": "function"
		},
		{
			"inputs": [],
			"name": "getFaucetBalance",
			"outputs": [
				{
					"internalType": "uint256",
					"name": "",
					"type": "uint256"
				}
			],
			"stateMutability": "view",
			"type": "function"
		},
		{
			"inputs": [
				{
					"internalType": "address",
					"name": "check",
					"type": "address"
				}
			],
			"name": "getIsManager",
			"outputs": [
				{
					"internalType": "bool",
					"name": "",
					"type": "bool"
				}
			],
			"stateMutability": "view",
			"type": "function"
		},
		{
			"inputs": [
				{
					"internalType": "address",
					"name": "check",
					"type": "address"
				}
			],
			"name": "getIsMinter",
			"outputs": [
				{
					"internalType": "bool",
					"name": "",
					"type": "bool"
				}
			],
			"stateMutability": "view",
			"type": "function"
		},
		{
			"inputs": [],
			"name": "getManagers",
			"outputs": [
				{
					"internalType": "address[]",
					"name": "",
					"type": "address[]"
				}
			],
			"stateMutability": "view",
			"type": "function"
		},
		{
			"inputs": [
				{
					"internalType": "address",
					"name": "minter",
					"type": "address"
				}
			],
			"name": "getMinterInfo",
			"outputs": [
				{
					"components": [
						{
							"internalType": "address",
							"name": "minterAddress",
							"type": "address"
						},
						{
							"internalType": "string",
							"name": "name",
							"type": "string"
						},
						{
							"internalType": "uint256",
							"name": "mintedAmount",
							"type": "uint256"
						},
						{
							"internalType": "uint256",
							"name": "claimedAmount",
							"type": "uint256"
						},
						{
							"internalType": "uint256[]",
							"name": "mintedQrCodes",
							"type": "uint256[]"
						},
						{
							"internalType": "uint256",
							"name": "mintedQrCodesCount",
							"type": "uint256"
						},
						{
							"internalType": "uint256",
							"name": "balance",
							"type": "uint256"
						}
					],
					"internalType": "struct QRCodeFactory.MinterInfo",
					"name": "ret",
					"type": "tuple"
				}
			],
			"stateMutability": "view",
			"type": "function"
		},
		{
			"inputs": [
				{
					"internalType": "address",
					"name": "minter",
					"type": "address"
				},
				{
					"internalType": "uint256",
					"name": "offset",
					"type": "uint256"
				},
				{
					"internalType": "uint256",
					"name": "limit",
					"type": "uint256"
				}
			],
			"name": "getMinterQrCodes",
			"outputs": [
				{
					"components": [
						{
							"internalType": "uint256",
							"name": "id",
							"type": "uint256"
						},
						{
							"internalType": "uint256",
							"name": "amount",
							"type": "uint256"
						},
						{
							"internalType": "address",
							"name": "minter",
							"type": "address"
						},
						{
							"internalType": "address",
							"name": "claimer",
							"type": "address"
						},
						{
							"internalType": "uint256",
							"name": "minted_at",
							"type": "uint256"
						},
						{
							"internalType": "uint256",
							"name": "claimed_at",
							"type": "uint256"
						},
						{
							"internalType": "uint256",
							"name": "timelife",
							"type": "uint256"
						},
						{
							"internalType": "address",
							"name": "router",
							"type": "address"
						},
						{
							"internalType": "string",
							"name": "message",
							"type": "string"
						}
					],
					"internalType": "struct QRCodeFactory.QRCODE[]",
					"name": "",
					"type": "tuple[]"
				}
			],
			"stateMutability": "view",
			"type": "function"
		},
		{
			"inputs": [],
			"name": "getMinters",
			"outputs": [
				{
					"internalType": "address[]",
					"name": "",
					"type": "address[]"
				}
			],
			"stateMutability": "view",
			"type": "function"
		},
		{
			"inputs": [],
			"name": "getMintersInfo",
			"outputs": [
				{
					"components": [
						{
							"internalType": "address",
							"name": "minterAddress",
							"type": "address"
						},
						{
							"internalType": "string",
							"name": "name",
							"type": "string"
						},
						{
							"internalType": "uint256",
							"name": "mintedAmount",
							"type": "uint256"
						},
						{
							"internalType": "uint256",
							"name": "claimedAmount",
							"type": "uint256"
						},
						{
							"internalType": "uint256[]",
							"name": "mintedQrCodes",
							"type": "uint256[]"
						},
						{
							"internalType": "uint256",
							"name": "mintedQrCodesCount",
							"type": "uint256"
						},
						{
							"internalType": "uint256",
							"name": "balance",
							"type": "uint256"
						}
					],
					"internalType": "struct QRCodeFactory.MinterInfo[]",
					"name": "",
					"type": "tuple[]"
				}
			],
			"stateMutability": "view",
			"type": "function"
		},
		{
			"inputs": [
				{
					"internalType": "uint256",
					"name": "index",
					"type": "uint256"
				}
			],
			"name": "getQrCode",
			"outputs": [
				{
					"components": [
						{
							"internalType": "uint256",
							"name": "id",
							"type": "uint256"
						},
						{
							"internalType": "uint256",
							"name": "amount",
							"type": "uint256"
						},
						{
							"internalType": "address",
							"name": "minter",
							"type": "address"
						},
						{
							"internalType": "address",
							"name": "claimer",
							"type": "address"
						},
						{
							"internalType": "uint256",
							"name": "minted_at",
							"type": "uint256"
						},
						{
							"internalType": "uint256",
							"name": "claimed_at",
							"type": "uint256"
						},
						{
							"internalType": "uint256",
							"name": "timelife",
							"type": "uint256"
						},
						{
							"internalType": "address",
							"name": "router",
							"type": "address"
						},
						{
							"internalType": "string",
							"name": "message",
							"type": "string"
						}
					],
					"internalType": "struct QRCodeFactory.QRCODE",
					"name": "",
					"type": "tuple"
				}
			],
			"stateMutability": "view",
			"type": "function"
		},
		{
			"inputs": [
				{
					"internalType": "address",
					"name": "router",
					"type": "address"
				}
			],
			"name": "getQrCodeByAddress",
			"outputs": [
				{
					"components": [
						{
							"internalType": "uint256",
							"name": "id",
							"type": "uint256"
						},
						{
							"internalType": "uint256",
							"name": "amount",
							"type": "uint256"
						},
						{
							"internalType": "address",
							"name": "minter",
							"type": "address"
						},
						{
							"internalType": "address",
							"name": "claimer",
							"type": "address"
						},
						{
							"internalType": "uint256",
							"name": "minted_at",
							"type": "uint256"
						},
						{
							"internalType": "uint256",
							"name": "claimed_at",
							"type": "uint256"
						},
						{
							"internalType": "uint256",
							"name": "timelife",
							"type": "uint256"
						},
						{
							"internalType": "address",
							"name": "router",
							"type": "address"
						},
						{
							"internalType": "string",
							"name": "message",
							"type": "string"
						}
					],
					"internalType": "struct QRCodeFactory.QRCODE",
					"name": "ret",
					"type": "tuple"
				}
			],
			"stateMutability": "view",
			"type": "function"
		},
		{
			"inputs": [],
			"name": "getTokenBalance",
			"outputs": [
				{
					"internalType": "uint256",
					"name": "",
					"type": "uint256"
				}
			],
			"stateMutability": "view",
			"type": "function"
		},
		{
			"inputs": [],
			"name": "getTokenDecimals",
			"outputs": [
				{
					"internalType": "uint256",
					"name": "",
					"type": "uint256"
				}
			],
			"stateMutability": "view",
			"type": "function"
		},
		{
			"inputs": [],
			"name": "getTokenName",
			"outputs": [
				{
					"internalType": "string",
					"name": "",
					"type": "string"
				}
			],
			"stateMutability": "view",
			"type": "function"
		},
		{
			"inputs": [],
			"name": "getTokenSymbol",
			"outputs": [
				{
					"internalType": "string",
					"name": "",
					"type": "string"
				}
			],
			"stateMutability": "view",
			"type": "function"
		},
		{
			"inputs": [
				{
					"internalType": "address",
					"name": "router",
					"type": "address"
				}
			],
			"name": "isQrCodeClaimed",
			"outputs": [
				{
					"internalType": "bool",
					"name": "",
					"type": "bool"
				}
			],
			"stateMutability": "view",
			"type": "function"
		},
		{
			"inputs": [],
			"name": "maxMintAmountPerQrCodeGlobal",
			"outputs": [
				{
					"internalType": "uint256",
					"name": "",
					"type": "uint256"
				}
			],
			"stateMutability": "view",
			"type": "function"
		},
		{
			"inputs": [
				{
					"internalType": "uint256",
					"name": "_amount",
					"type": "uint256"
				},
				{
					"internalType": "uint256",
					"name": "_timelife",
					"type": "uint256"
				},
				{
					"internalType": "string",
					"name": "_message",
					"type": "string"
				}
			],
			"name": "mint",
			"outputs": [
				{
					"internalType": "address",
					"name": "",
					"type": "address"
				}
			],
			"stateMutability": "nonpayable",
			"type": "function"
		},
		{
			"inputs": [
				{
					"internalType": "address",
					"name": "",
					"type": "address"
				}
			],
			"name": "mintedAmount",
			"outputs": [
				{
					"internalType": "uint256",
					"name": "",
					"type": "uint256"
				}
			],
			"stateMutability": "view",
			"type": "function"
		},
		{
			"inputs": [
				{
					"internalType": "address",
					"name": "",
					"type": "address"
				},
				{
					"internalType": "uint256",
					"name": "",
					"type": "uint256"
				}
			],
			"name": "mintedQrCodes",
			"outputs": [
				{
					"internalType": "uint256",
					"name": "",
					"type": "uint256"
				}
			],
			"stateMutability": "view",
			"type": "function"
		},
		{
			"inputs": [
				{
					"internalType": "address",
					"name": "",
					"type": "address"
				}
			],
			"name": "mintedQrCodesCount",
			"outputs": [
				{
					"internalType": "uint256",
					"name": "",
					"type": "uint256"
				}
			],
			"stateMutability": "view",
			"type": "function"
		},
		{
			"inputs": [
				{
					"internalType": "address",
					"name": "",
					"type": "address"
				}
			],
			"name": "mintersName",
			"outputs": [
				{
					"internalType": "string",
					"name": "",
					"type": "string"
				}
			],
			"stateMutability": "view",
			"type": "function"
		},
		{
			"inputs": [],
			"name": "owner",
			"outputs": [
				{
					"internalType": "address",
					"name": "",
					"type": "address"
				}
			],
			"stateMutability": "view",
			"type": "function"
		},
		{
			"inputs": [
				{
					"internalType": "uint256",
					"name": "",
					"type": "uint256"
				}
			],
			"name": "qrCodes",
			"outputs": [
				{
					"internalType": "uint256",
					"name": "id",
					"type": "uint256"
				},
				{
					"internalType": "uint256",
					"name": "amount",
					"type": "uint256"
				},
				{
					"internalType": "address",
					"name": "minter",
					"type": "address"
				},
				{
					"internalType": "address",
					"name": "claimer",
					"type": "address"
				},
				{
					"internalType": "uint256",
					"name": "minted_at",
					"type": "uint256"
				},
				{
					"internalType": "uint256",
					"name": "claimed_at",
					"type": "uint256"
				},
				{
					"internalType": "uint256",
					"name": "timelife",
					"type": "uint256"
				},
				{
					"internalType": "address",
					"name": "router",
					"type": "address"
				},
				{
					"internalType": "string",
					"name": "message",
					"type": "string"
				}
			],
			"stateMutability": "view",
			"type": "function"
		},
		{
			"inputs": [],
			"name": "qrCodesLength",
			"outputs": [
				{
					"internalType": "uint256",
					"name": "",
					"type": "uint256"
				}
			],
			"stateMutability": "view",
			"type": "function"
		},
		{
			"inputs": [
				{
					"internalType": "address",
					"name": "",
					"type": "address"
				}
			],
			"name": "qrCodesRouters",
			"outputs": [
				{
					"internalType": "uint256",
					"name": "",
					"type": "uint256"
				}
			],
			"stateMutability": "view",
			"type": "function"
		},
		{
			"inputs": [
				{
					"internalType": "uint256",
					"name": "_codeTL",
					"type": "uint256"
				}
			],
			"name": "setCodeTL",
			"outputs": [],
			"stateMutability": "nonpayable",
			"type": "function"
		},
		{
			"inputs": [
				{
					"internalType": "uint256",
					"name": "_faucetAmount",
					"type": "uint256"
				}
			],
			"name": "setFaucetAmount",
			"outputs": [],
			"stateMutability": "nonpayable",
			"type": "function"
		},
		{
			"inputs": [
				{
					"internalType": "address",
					"name": "who",
					"type": "address"
				},
				{
					"internalType": "bool",
					"name": "isManager",
					"type": "bool"
				}
			],
			"name": "setIsManager",
			"outputs": [],
			"stateMutability": "nonpayable",
			"type": "function"
		},
		{
			"inputs": [
				{
					"internalType": "address",
					"name": "who",
					"type": "address"
				},
				{
					"internalType": "bool",
					"name": "isMinter",
					"type": "bool"
				}
			],
			"name": "setIsMinter",
			"outputs": [],
			"stateMutability": "nonpayable",
			"type": "function"
		},
		{
			"inputs": [
				{
					"internalType": "address",
					"name": "minter",
					"type": "address"
				},
				{
					"internalType": "uint256",
					"name": "newLimit",
					"type": "uint256"
				}
			],
			"name": "setMaxMintAmountPerQrCode",
			"outputs": [],
			"stateMutability": "nonpayable",
			"type": "function"
		},
		{
			"inputs": [
				{
					"internalType": "uint256",
					"name": "newLimit",
					"type": "uint256"
				}
			],
			"name": "setMaxMintAmountPerQrCodeGlobal",
			"outputs": [],
			"stateMutability": "nonpayable",
			"type": "function"
		},
		{
			"inputs": [
				{
					"internalType": "address",
					"name": "minter",
					"type": "address"
				},
				{
					"internalType": "uint256",
					"name": "newBalance",
					"type": "uint256"
				}
			],
			"name": "setMinterBalance",
			"outputs": [],
			"stateMutability": "nonpayable",
			"type": "function"
		},
		{
			"inputs": [
				{
					"internalType": "address",
					"name": "minter",
					"type": "address"
				},
				{
					"internalType": "string",
					"name": "name",
					"type": "string"
				}
			],
			"name": "setMinterName",
			"outputs": [],
			"stateMutability": "nonpayable",
			"type": "function"
		},
		{
			"inputs": [],
			"name": "tokenAddress",
			"outputs": [
				{
					"internalType": "address",
					"name": "",
					"type": "address"
				}
			],
			"stateMutability": "view",
			"type": "function"
		},
		{
			"inputs": [],
			"name": "totalClaimedAmount",
			"outputs": [
				{
					"internalType": "uint256",
					"name": "",
					"type": "uint256"
				}
			],
			"stateMutability": "view",
			"type": "function"
		},
		{
			"inputs": [],
			"name": "totalFaucetAmount",
			"outputs": [
				{
					"internalType": "uint256",
					"name": "",
					"type": "uint256"
				}
			],
			"stateMutability": "view",
			"type": "function"
		},
		{
			"inputs": [],
			"name": "totalMintedAmount",
			"outputs": [
				{
					"internalType": "uint256",
					"name": "",
					"type": "uint256"
				}
			],
			"stateMutability": "view",
			"type": "function"
		},
		{
			"inputs": [],
			"name": "totalQrCodesClaimed",
			"outputs": [
				{
					"internalType": "uint256",
					"name": "",
					"type": "uint256"
				}
			],
			"stateMutability": "view",
			"type": "function"
		},
		{
			"inputs": [
				{
					"internalType": "address",
					"name": "newOwner",
					"type": "address"
				}
			],
			"name": "transferOwnership",
			"outputs": [],
			"stateMutability": "nonpayable",
			"type": "function"
		},
		{
			"stateMutability": "payable",
			"type": "receive"
		}
	]
}