{
	"data": {
		"bytecode": {
			"linkReferences": {
				"AddressSet.sol": {
					"AddressSet": [
						{
							"length": 20,
							"start": 160
						},
						{
							"length": 20,
							"start": 265
						},
						{
							"length": 20,
							"start": 4054
						},
						{
							"length": 20,
							"start": 4227
						},
						{
							"length": 20,
							"start": 4340
						},
						{
							"length": 20,
							"start": 4522
						},
						{
							"length": 20,
							"start": 4735
						},
						{
							"length": 20,
							"start": 4874
						},
						{
							"length": 20,
							"start": 5049
						},
						{
							"length": 20,
							"start": 5186
						},
						{
							"length": 20,
							"start": 5971
						},
						{
							"length": 20,
							"start": 6647
						},
						{
							"length": 20,
							"start": 6761
						},
						{
							"length": 20,
							"start": 6914
						},
						{
							"length": 20,
							"start": 7158
						},
						{
							"length": 20,
							"start": 7303
						},
						{
							"length": 20,
							"start": 7631
						},
						{
							"length": 20,
							"start": 7795
						},
						{
							"length": 20,
							"start": 9129
						},
						{
							"length": 20,
							"start": 9348
						},
						{
							"length": 20,
							"start": 10117
						},
						{
							"length": 20,
							"start": 10319
						},
						{
							"length": 20,
							"start": 10369
						},
						{
							"length": 20,
							"start": 10540
						},
						{
							"length": 20,
							"start": 10600
						},
						{
							"length": 20,
							"start": 10684
						},
						{
							"length": 20,
							"start": 11335
						},
						{
							"length": 20,
							"start": 11499
						},
						{
							"length": 20,
							"start": 12159
						},
						{
							"length": 20,
							"start": 12476
						},
						{
							"length": 20,
							"start": 12638
						},
						{
							"length": 20,
							"start": 13111
						},
						{
							"length": 20,
							"start": 13164
						},
						{
							"length": 20,
							"start": 14196
						},
						{
							"length": 20,
							"start": 14955
						},
						{
							"length": 20,
							"start": 15172
						},
						{
							"length": 20,
							"start": 15232
						}
					]
				}
			},
			"object": "6080604052610708600255662386f26fc1000060035560006006556000600755600060085560006009556000600a556000600b55655af3107a4000601a553480156200004a57600080fd5b50604051620056aa380380620056aa8339810160408190526200006d9162000182565b600080546001600160a01b03191633908117909155604051639f75f0a360e01b815260216004820152602481019190915273__$1c537defa8d8abb880144579cecc12eeda$__90639f75f0a39060440160006040518083038186803b158015620000d657600080fd5b505af4158015620000eb573d6000803e3d6000fd5b5050604051639f75f0a360e01b8152600c600482015233602482015273__$1c537defa8d8abb880144579cecc12eeda$__9250639f75f0a3915060440160006040518083038186803b1580156200014157600080fd5b505af415801562000156573d6000803e3d6000fd5b5050600180546001600160a01b0319166001600160a01b03949094169390931790925550620001b49050565b6000602082840312156200019557600080fd5b81516001600160a01b0381168114620001ad57600080fd5b9392505050565b6154e680620001c46000396000f3fe6080604052600436106200042e5760003560e01c806376678d841162000227578063a8d088bb116200012f578063e43e554111620000b9578063f1294ef61162000084578063f1294ef61462000d68578063f1850af81462000d80578063f1f959a61462000d98578063f2fde38b1462000dad578063fbbf8cc31462000dd257600080fd5b8063e43e55411462000cd2578063ece764351462000cf7578063eed319861462000d1c578063f09b22031462000d3457600080fd5b8063ceeabbf611620000fa578063ceeabbf61462000c38578063d3a51ff21462000c50578063d846ceae1462000c75578063dccb445b1462000ca157600080fd5b8063a8d088bb1462000b99578063ad4ad7ca1462000bb1578063b862251f1462000be2578063c6e64e531462000c1357600080fd5b80639661cb0d11620001b15780639d76ea58116200017c5780639d76ea581462000b155780639db1ff161462000b37578063a01bad521462000b4f578063a50ffda51462000b7457600080fd5b80639661cb0d1462000a9b57806398adcc971462000ab357806398d7a1521462000ad85780639c2814301462000afd57600080fd5b8063862b092b11620001f2578063862b092b1462000a06578063878d7d871462000a2d578063892ff8bd1462000a615780638da5cb5b1462000a7957600080fd5b806376678d84146200097f57806381b5479d14620009a457806381d2fd9c14620009c957806382b2e25714620009ee57600080fd5b80634078eeb211620003375780635a2f713311620002c15780636b32810b116200028c5780636b32810b146200087d5780636ca8002614620008a45780636e54f5a614620008e05780636f7ab8d114620009335780636f865e6f146200096757600080fd5b80635a2f713314620007e757806366059a16146200081b57806366800995146200084057806366eb399f146200085857600080fd5b80634f51327711620003025780634f513277146200075e578063563d3ca31462000792578063572d472114620007aa57806359d1bd8014620007c257600080fd5b80634078eeb214620006c857806341be8b9414620006e0578063424f3c8e146200071457806344e2ad99146200073957600080fd5b8063206855d011620003b95780632ba33db411620003845780632ba33db414620006115780632e42add71462000641578063384e491d14620006725780633e70703e146200069757600080fd5b8063206855d0146200058a57806324f65ee714620005af57806326767f9014620005c75780632a4e455314620005ec57600080fd5b80631654d42c11620003fa5780631654d42c14620004f257806317fc30d4146200050a578063198e14f814620005405780631e83409a146200056557600080fd5b806275c377146200043b57806304e86903146200046257806304f32a1d14620004a6578063143f338c14620004cb57600080fd5b366200043657005b600080fd5b3480156200044857600080fd5b50620004606200045a36600462003e61565b62000e03565b005b3480156200046f57600080fd5b50620004936200048136600462003e61565b60166020526000908152604090205481565b6040519081526020015b60405180910390f35b348015620004b357600080fd5b5062000460620004c536600462003e81565b62000f21565b348015620004d857600080fd5b50620004e362000fca565b6040516200049d919062003fb2565b348015620004ff57600080fd5b506200049360075481565b3480156200051757600080fd5b506200052f6200052936600462003e61565b620011e3565b60405190151581526020016200049d565b3480156200054d57600080fd5b506200052f6200055f36600462003e61565b6200126c565b3480156200057257600080fd5b50620004606200058436600462003e61565b620012ab565b3480156200059757600080fd5b5062000493620005a936600462004018565b62001745565b348015620005bc57600080fd5b506200049362001777565b348015620005d457600080fd5b5062000460620005e636600462004056565b620017f0565b348015620005f957600080fd5b506200052f6200060b36600462003e61565b620018d2565b3480156200061e57600080fd5b50620004936200063036600462003e61565b602080526000908152604090205481565b3480156200064e57600080fd5b50620004936200066036600462003e61565b60196020526000908152604090205481565b3480156200067f57600080fd5b50620004606200069136600462004018565b6200192f565b348015620006a457600080fd5b5062000493620006b636600462003e61565b60126020526000908152604090205481565b348015620006d557600080fd5b506200049362001a19565b348015620006ed57600080fd5b5062000705620006ff36600462004094565b62001a99565b6040516200049d919062004116565b3480156200072157600080fd5b50620004606200073336600462004240565b62001bfc565b3480156200074657600080fd5b50620004936200075836600462004018565b62001d39565b3480156200076b57600080fd5b50620007836200077d36600462004296565b62001d56565b6040516200049d91906200436d565b3480156200079f57600080fd5b506200049360025481565b348015620007b757600080fd5b50620007836200200b565b348015620007cf57600080fd5b5062000460620007e136600462004018565b620021d6565b348015620007f457600080fd5b506200080c6200080636600462004094565b62002296565b6040516200049d9190620043c6565b3480156200082857600080fd5b50620004606200083a36600462004018565b620025b2565b3480156200084d57600080fd5b506200049362002672565b3480156200086557600080fd5b50620004606200087736600462004056565b620026ae565b3480156200088a57600080fd5b5062000895620027d1565b6040516200049d919062004464565b348015620008b157600080fd5b50620008c9620008c336600462003e81565b6200285e565b6040516200049d99989796959493929190620044b3565b348015620008ed57600080fd5b506200091a620008ff36600462003e61565b601e602052600090815260409020546001600160a01b031681565b6040516001600160a01b0390911681526020016200049d565b3480156200094057600080fd5b50620009586200095236600462003e81565b6200294b565b6040516200049d919062004518565b3480156200097457600080fd5b506200049360095481565b3480156200098c57600080fd5b50620004606200099e36600462004240565b62002a74565b348015620009b157600080fd5b5062000958620009c336600462003e61565b62002be7565b348015620009d657600080fd5b5062000460620009e836600462003e81565b62002cb1565b348015620009fb57600080fd5b506200049362002ce3565b34801562000a1357600080fd5b5062000a1e62002d2d565b6040516200049d91906200452d565b34801562000a3a57600080fd5b5062000a5262000a4c36600462003e61565b62002da2565b6040516200049d919062004542565b34801562000a6e57600080fd5b5062000493601a5481565b34801562000a8657600080fd5b506000546200091a906001600160a01b031681565b34801562000aa857600080fd5b5062000493600a5481565b34801562000ac057600080fd5b506200089562000ad236600462004094565b62002f73565b34801562000ae557600080fd5b5062000a1e62000af736600462003e61565b62003006565b34801562000b0a57600080fd5b506200049360035481565b34801562000b2257600080fd5b506001546200091a906001600160a01b031681565b34801562000b4457600080fd5b506200049360085481565b34801562000b5c57600080fd5b506200046062000b6e36600462003e81565b620030a8565b34801562000b8157600080fd5b506200049362000b9336600462003e61565b620030da565b34801562000ba657600080fd5b50620008956200314c565b34801562000bbe57600080fd5b506200049362000bd036600462003e61565b60186020526000908152604090205481565b34801562000bef57600080fd5b506200049362000c0136600462003e61565b60116020526000908152604090205481565b34801562000c2057600080fd5b506200091a62000c3236600462004557565b62003196565b34801562000c4557600080fd5b506200049362003597565b34801562000c5d57600080fd5b5062000a1e62000c6f36600462003e61565b620035d3565b34801562000c8257600080fd5b506200049362000c9436600462003e61565b6001600160a01b03163190565b34801562000cae57600080fd5b506200049362000cc036600462003e61565b60056020526000908152604090205481565b34801562000cdf57600080fd5b506200078362000cf136600462004296565b620035ee565b34801562000d0457600080fd5b506200046062000d1636600462004240565b62003898565b34801562000d2957600080fd5b506200049362003967565b34801562000d4157600080fd5b5062000d5962000d5336600462003e61565b620039a3565b6040516200049d9190620045ab565b34801562000d7557600080fd5b5062000493600b5481565b34801562000d8d57600080fd5b5062000a1e62003bb4565b34801562000da557600080fd5b504762000493565b34801562000dba57600080fd5b506200046062000dcc36600462003e61565b62003bff565b34801562000ddf57600080fd5b506200049362000df136600462003e61565b600f6020526000908152604090205481565b6040516317e26bc960e11b815273__$1c537defa8d8abb880144579cecc12eeda$__90632fc4d7929062000e3f906021903390600401620045c0565b602060405180830381865af415801562000e5d573d6000803e3d6000fd5b505050506040513d601f19601f8201168201806040525081019062000e839190620045d7565b151560011462000eb05760405162461bcd60e51b815260040162000ea790620045f7565b60405180910390fd5b60405163a8afef9560e01b815273__$1c537defa8d8abb880144579cecc12eeda$__9063a8afef959062000eec90601c908590600401620045c0565b60006040518083038186803b15801562000f0557600080fd5b505af415801562000f1a573d6000803e3d6000fd5b5050505050565b6040516317e26bc960e11b815273__$1c537defa8d8abb880144579cecc12eeda$__90632fc4d7929062000f5d906021903390600401620045c0565b602060405180830381865af415801562000f7b573d6000803e3d6000fd5b505050506040513d601f19601f8201168201806040525081019062000fa19190620045d7565b151560011462000fc55760405162461bcd60e51b815260040162000ea790620045f7565b601a55565b604051630c3d3c7560e41b8152600c600482015260609060009073__$1c537defa8d8abb880144579cecc12eeda$__9063c3d3c75090602401602060405180830381865af415801562001021573d6000803e3d6000fd5b505050506040513d601f19601f8201168201806040525081019062001047919062004622565b67ffffffffffffffff8111156200106257620010626200416f565b6040519080825280602002602001820160405280156200109f57816020015b6200108b62003ca6565b815260200190600190039081620010815790505b50905060005b604051630c3d3c7560e41b8152600c600482015273__$1c537defa8d8abb880144579cecc12eeda$__9063c3d3c75090602401602060405180830381865af4158015620010f6573d6000803e3d6000fd5b505050506040513d601f19601f820116820180604052508101906200111c919062004622565b811015620011dd57604051630182c6db60e31b8152600c600482015260248101829052620011a79073__$1c537defa8d8abb880144579cecc12eeda$__90630c1636d890604401602060405180830381865af415801562001181573d6000803e3d6000fd5b505050506040513d601f19601f8201168201806040525081019062000d5391906200463c565b828281518110620011bc57620011bc6200465c565b60200260200101819052508080620011d49062004688565b915050620010a5565b50919050565b6040516317e26bc960e11b815260009073__$1c537defa8d8abb880144579cecc12eeda$__90632fc4d792906200122290600c908690600401620045c0565b602060405180830381865af415801562001240573d6000803e3d6000fd5b505050506040513d601f19601f82011682018060405250810190620012669190620045d7565b92915050565b6040516317e26bc960e11b815260009073__$1c537defa8d8abb880144579cecc12eeda$__90632fc4d7929062001222906021908690600401620045c0565b33600090815260056020526040902054620013005760405162461bcd60e51b815260206004820152601460248201527321b0b636103737ba10333937b6903937baba32b960611b604482015260640162000ea7565b33600090815260056020908152604080832054808452600492839052922001546200136e5760405162461bcd60e51b815260206004820152601860248201527f5468697320636f6465206e6f74206d696e746564207965740000000000000000604482015260640162000ea7565b60008181526004602052604090206005015415620013cf5760405162461bcd60e51b815260206004820152601960248201527f5468697320636f646520616c726561647920636c61696d656400000000000000604482015260640162000ea7565b600081815260046020819052604090912060068101549101544291620013f591620046a6565b11620014385760405162461bcd60e51b8152602060048201526011602482015270145c90dbd919481a5cc8195e1c1a5c9959607a1b604482015260640162000ea7565b6000818152600460209081526040808320600101546001600160a01b03861684526016909252822080549192909162001473908490620046a6565b90915550506001600160a01b038216600081815260176020908152604080832080546001810182559084528284200185905592825260189052908120805491620014bd8362004688565b909155505060088054906000620014d48362004688565b9091555050600081815260046020908152604080832060018101546002909101546001600160a01b03168452601290925282208054919290916200151a908490620046a6565b9091555050600081815260046020526040812060010154600a80549192909162001546908490620046a6565b90915550506000818152600460208190526040918290206003810180546001600160a01b0319166001600160a01b038716179055436005909101559051639f75f0a360e01b815273__$1c537defa8d8abb880144579cecc12eeda$__91639f75f0a391620015ba91601491879101620045c0565b60006040518083038186803b158015620015d357600080fd5b505af4158015620015e8573d6000803e3d6000fd5b50506001805460008581526004602081905260409182902090930154905163a9059cbb60e01b81526001600160a01b03909216945063a9059cbb935062001645928792016001600160a01b03929092168252602082015260400190565b6020604051808303816000875af115801562001665573d6000803e3d6000fd5b505050506040513d601f19601f820116820180604052508101906200168b9190620045d7565b506003546001600160a01b038316319081101562001740576000836001600160a01b031631600354620016bf9190620046c1565b905080600b6000828254620016d59190620046a6565b90915550506001600160a01b0384166000908152601960205260408120805483929062001704908490620046a6565b90915550506040516001600160a01b0385169082156108fc029083906000818181858888f1935050505015801562000f1a573d6000803e3d6000fd5b505050565b601060205281600052604060002081815481106200176257600080fd5b90600052602060002001600091509150505481565b6001546040805163313ce56760e01b815290516000926001600160a01b03169163313ce5679160048083019260209291908290030181865afa158015620017c2573d6000803e3d6000fd5b505050506040513d601f19601f82011682018060405250810190620017e89190620046db565b60ff16905090565b6000546001600160a01b031633146200181d5760405162461bcd60e51b815260040162000ea79062004700565b80156200189657604051639f75f0a360e01b815273__$1c537defa8d8abb880144579cecc12eeda$__90639f75f0a39062001860906021908690600401620045c0565b60006040518083038186803b1580156200187957600080fd5b505af41580156200188e573d6000803e3d6000fd5b505050505050565b60405163a8afef9560e01b815273__$1c537defa8d8abb880144579cecc12eeda$__9063a8afef959062001860906021908690600401620045c0565b6001600160a01b0381166000908152600560205260408120541562001927576001600160a01b038216600090815260056020818152604080842054845260049091529091200154156200192757600162001266565b600092915050565b6040516317e26bc960e11b815273__$1c537defa8d8abb880144579cecc12eeda$__90632fc4d792906200196b906021903390600401620045c0565b602060405180830381865af415801562001989573d6000803e3d6000fd5b505050506040513d601f19601f82011682018060405250810190620019af9190620045d7565b1515600114620019d35760405162461bcd60e51b815260040162000ea790620045f7565b6001600160a01b038216600090815260136020526040902054620019f9908290620046a6565b6001600160a01b0390921660009081526013602052604090209190915550565b604051630c3d3c7560e41b81526014600482015260009073__$1c537defa8d8abb880144579cecc12eeda$__9063c3d3c750906024015b602060405180830381865af415801562001a6e573d6000803e3d6000fd5b505050506040513d601f19601f8201168201806040525081019062001a94919062004622565b905090565b6040516311c9af7760e11b815260146004820152602481018390526044810182905260609060009073__$1c537defa8d8abb880144579cecc12eeda$__906323935eee90606401600060405180830381865af415801562001afe573d6000803e3d6000fd5b505050506040513d6000823e601f3d908101601f1916820160405262001b28919081019062004728565b90506000815167ffffffffffffffff81111562001b495762001b496200416f565b60405190808252806020026020018201604052801562001b8657816020015b62001b7262003cec565b81526020019060019003908162001b685790505b50905060005b825181101562001bf35762001bbd83828151811062001baf5762001baf6200465c565b602002602001015162002da2565b82828151811062001bd25762001bd26200465c565b6020026020010181905250808062001bea9062004688565b91505062001b8c565b50949350505050565b6040516317e26bc960e11b815273__$1c537defa8d8abb880144579cecc12eeda$__90632fc4d7929062001c38906021903390600401620045c0565b602060405180830381865af415801562001c56573d6000803e3d6000fd5b505050506040513d601f19601f8201168201806040525081019062001c7c9190620045d7565b151560011462001ca05760405162461bcd60e51b815260040162000ea790620045f7565b604051639f75f0a360e01b815273__$1c537defa8d8abb880144579cecc12eeda$__90639f75f0a39062001cdc90600c908690600401620045c0565b60006040518083038186803b15801562001cf557600080fd5b505af415801562001d0a573d6000803e3d6000fd5b505050506001600160a01b0382166000908152600e602090815260409091208251620017409284019062003d2d565b601760205281600052604060002081815481106200176257600080fd5b6001600160a01b038316600090815260176020526040902054606090821562001d7c5750815b600062001d8a8286620046a6565b6001600160a01b03871660009081526017602052604090205490915081111562001dc957506001600160a01b0385166000908152601760205260409020545b600062001dd78683620046c1565b67ffffffffffffffff81111562001df25762001df26200416f565b60405190808252806020026020018201604052801562001e2f57816020015b62001e1b62003dbc565b81526020019060019003908162001e115790505b50905060005b62001e418784620046c1565b81101562002000576001600160a01b0388166000908152601760205260408120805460049291906001908b9062001e7a908790620046c1565b62001e869190620046c1565b62001e929190620046c1565b8154811062001ea55762001ea56200465c565b6000918252602080832090910154835282810193909352604091820190208151610120810183528154815260018201549381019390935260028101546001600160a01b039081169284019290925260038101548216606084015260048101546080840152600581015460a0840152600681015460c0840152600781015490911660e08301526008810180546101008401919062001f4290620047e7565b80601f016020809104026020016040519081016040528092919081815260200182805462001f7090620047e7565b801562001fc15780601f1062001f955761010080835404028352916020019162001fc1565b820191906000526020600020905b81548152906001019060200180831162001fa357829003601f168201915b50505050508152505082828151811062001fdf5762001fdf6200465c565b6020026020010181905250808062001ff79062004688565b91505062001e35565b509695505050505050565b6060600060075467ffffffffffffffff8111156200202d576200202d6200416f565b6040519080825280602002602001820160405280156200206a57816020015b6200205662003dbc565b8152602001906001900390816200204c5790505b50905060015b6006548111620011dd576000818152600460208181526040928390208351610120810185528154815260018201549281019290925260028101546001600160a01b0390811694830194909452600381015484166060830152918201546080820152600582015460a0820152600682015460c0820152600782015490921660e0830152600881018054610100840191906200210a90620047e7565b80601f01602080910402602001604051908101604052809291908181526020018280546200213890620047e7565b8015620021895780601f106200215d5761010080835404028352916020019162002189565b820191906000526020600020905b8154815290600101906020018083116200216b57829003601f168201915b50505050508152505082600183620021a29190620046c1565b81518110620021b557620021b56200465c565b60200260200101819052508080620021cd9062004688565b91505062002070565b6040516317e26bc960e11b815273__$1c537defa8d8abb880144579cecc12eeda$__90632fc4d7929062002212906021903390600401620045c0565b602060405180830381865af415801562002230573d6000803e3d6000fd5b505050506040513d601f19601f82011682018060405250810190620022569190620045d7565b15156001146200227a5760405162461bcd60e51b815260040162000ea790620045f7565b6001600160a01b039091166000908152601b6020526040902055565b6040516311c9af7760e11b8152601c6004820152602481018390526044810182905260609060009073__$1c537defa8d8abb880144579cecc12eeda$__906323935eee90606401600060405180830381865af4158015620022fb573d6000803e3d6000fd5b505050506040513d6000823e601f3d908101601f1916820160405262002325919081019062004728565b90506000815167ffffffffffffffff8111156200234657620023466200416f565b604051908082528060200260200182016040528015620023b757816020015b620023a3604051806080016040528060006001600160a01b0316815260200160006001600160a01b0316815260200160608152602001600081525090565b815260200190600190039081620023655790505b50905060005b825181101562001bf3576040518060800160405280848381518110620023e757620023e76200465c565b60200260200101516001600160a01b03168152602001601e60008685815181106200241657620024166200465c565b60200260200101516001600160a01b03166001600160a01b0316815260200190815260200160002060009054906101000a90046001600160a01b03166001600160a01b03168152602001601f60008685815181106200247957620024796200465c565b60200260200101516001600160a01b03166001600160a01b031681526020019081526020016000208054620024ae90620047e7565b80601f0160208091040260200160405190810160405280929190818152602001828054620024dc90620047e7565b80156200252d5780601f1062002501576101008083540402835291602001916200252d565b820191906000526020600020905b8154815290600101906020018083116200250f57829003601f168201915b50505050508152602001602060008685815181106200255057620025506200465c565b60200260200101516001600160a01b03166001600160a01b03168152602001908152602001600020548152508282815181106200259157620025916200465c565b60200260200101819052508080620025a99062004688565b915050620023bd565b6040516317e26bc960e11b815273__$1c537defa8d8abb880144579cecc12eeda$__90632fc4d79290620025ee906021903390600401620045c0565b602060405180830381865af41580156200260c573d6000803e3d6000fd5b505050506040513d601f19601f82011682018060405250810190620026329190620045d7565b1515600114620026565760405162461bcd60e51b815260040162000ea790620045f7565b6001600160a01b03909116600090815260136020526040902055565b604051630c3d3c7560e41b8152601c600482015260009073__$1c537defa8d8abb880144579cecc12eeda$__9063c3d3c7509060240162001a50565b6040516317e26bc960e11b815273__$1c537defa8d8abb880144579cecc12eeda$__90632fc4d79290620026ea906021903390600401620045c0565b602060405180830381865af415801562002708573d6000803e3d6000fd5b505050506040513d601f19601f820116820180604052508101906200272e9190620045d7565b1515600114620027525760405162461bcd60e51b815260040162000ea790620045f7565b80156200279557604051639f75f0a360e01b815273__$1c537defa8d8abb880144579cecc12eeda$__90639f75f0a3906200186090600c908690600401620045c0565b60405163a8afef9560e01b815273__$1c537defa8d8abb880144579cecc12eeda$__9063a8afef95906200186090600c908690600401620045c0565b6040516311c9af7760e11b8152600c6004820152600060248201819052604482015260609073__$1c537defa8d8abb880144579cecc12eeda$__906323935eee906064015b600060405180830381865af415801562002834573d6000803e3d6000fd5b505050506040513d6000823e601f3d908101601f1916820160405262001a94919081019062004728565b6004602081905260009182526040909120805460018201546002830154600384015494840154600585015460068601546007870154600888018054979996986001600160a01b03968716989787169795969495939490921692620028c290620047e7565b80601f0160208091040260200160405190810160405280929190818152602001828054620028f090620047e7565b8015620029415780601f10620029155761010080835404028352916020019162002941565b820191906000526020600020905b8154815290600101906020018083116200292357829003601f168201915b5050505050905089565b6200295562003dbc565b6000828152600460208181526040928390208351610120810185528154815260018201549281019290925260028101546001600160a01b0390811694830194909452600381015484166060830152918201546080820152600582015460a0820152600682015460c0820152600782015490921660e083015260088101805461010084019190620029e590620047e7565b80601f016020809104026020016040519081016040528092919081815260200182805462002a1390620047e7565b801562002a645780601f1062002a385761010080835404028352916020019162002a64565b820191906000526020600020905b81548152906001019060200180831162002a4657829003601f168201915b5050505050815250509050919050565b6040516317e26bc960e11b815273__$1c537defa8d8abb880144579cecc12eeda$__90632fc4d7929062002ab0906021903390600401620045c0565b602060405180830381865af415801562002ace573d6000803e3d6000fd5b505050506040513d601f19601f8201168201806040525081019062002af49190620045d7565b151560011462002b185760405162461bcd60e51b815260040162000ea790620045f7565b604051639f75f0a360e01b815273__$1c537defa8d8abb880144579cecc12eeda$__90639f75f0a39062002b5490601c908690600401620045c0565b60006040518083038186803b15801562002b6d57600080fd5b505af415801562002b82573d6000803e3d6000fd5b5050506001600160a01b0383166000908152601e6020908152604080832080546001600160a01b03191633179055601f8252909120835162002bca9350909184019062003d2d565b50506001600160a01b031660009081526020805260409020429055565b62002bf162003dbc565b6001600160a01b0382166000908152600560205260409020541562002cac576001600160a01b0380831660009081526005602081815260408084205484526004808352938190208151610120810183528154815260018201549381019390935260028101548616918301919091526003810154851660608301529283015460808201529082015460a0820152600682015460c0820152600782015490921660e083015260088101805461010084019190620029e590620047e7565b919050565b6000546001600160a01b0316331462002cde5760405162461bcd60e51b815260040162000ea79062004700565b600355565b6001546040516370a0823160e01b81523060048201526000916001600160a01b0316906370a0823190602401602060405180830381865afa15801562001a6e573d6000803e3d6000fd5b600154604080516306fdde0360e01b815290516060926001600160a01b0316916306fdde039160048083019260009291908290030181865afa15801562002d78573d6000803e3d6000fd5b505050506040513d6000823e601f3d908101601f1916820160405262001a9491908101906200481e565b62002dac62003cec565b6040516317e26bc960e11b815273__$1c537defa8d8abb880144579cecc12eeda$__90632fc4d7929062002de8906014908690600401620045c0565b602060405180830381865af415801562002e06573d6000803e3d6000fd5b505050506040513d601f19601f8201168201806040525081019062002e2c9190620045d7565b1562002cac576040805160c0810182526001600160a01b0384168082526000818152601660209081528482205481850152918152601782528390208054845181840281018401865281815293948501939283018282801562002eae57602002820191906000526020600020905b81548152602001906001019080831162002e99575b50505091835250506001600160a01b03841660008181526018602090815260408083205482860152928252601990528190205481830152516317e26bc960e11b815260609091019073__$1c537defa8d8abb880144579cecc12eeda$__90632fc4d7929062002f2590601c908890600401620045c0565b602060405180830381865af415801562002f43573d6000803e3d6000fd5b505050506040513d601f19601f8201168201806040525081019062002f699190620045d7565b1515905292915050565b6040516311c9af7760e11b815260146004820152602481018390526044810182905260609073__$1c537defa8d8abb880144579cecc12eeda$__906323935eee90606401600060405180830381865af415801562002fd5573d6000803e3d6000fd5b505050506040513d6000823e601f3d908101601f1916820160405262002fff919081019062004728565b9392505050565b601f60205260009081526040902080546200302190620047e7565b80601f01602080910402602001604051908101604052809291908181526020018280546200304f90620047e7565b8015620030a05780601f106200307457610100808354040283529160200191620030a0565b820191906000526020600020905b8154815290600101906020018083116200308257829003601f168201915b505050505081565b6000546001600160a01b03163314620030d55760405162461bcd60e51b815260040162000ea79062004700565b600255565b6001546040516370a0823160e01b81526001600160a01b03838116600483015260009216906370a0823190602401602060405180830381865afa15801562003126573d6000803e3d6000fd5b505050506040513d601f19601f8201168201806040525081019062001266919062004622565b6040516311c9af7760e11b815260216004820152600060248201819052604482015260609073__$1c537defa8d8abb880144579cecc12eeda$__906323935eee9060640162002816565b6040516317e26bc960e11b815260009073__$1c537defa8d8abb880144579cecc12eeda$__90632fc4d79290620031d590600c903390600401620045c0565b602060405180830381865af4158015620031f3573d6000803e3d6000fd5b505050506040513d601f19601f82011682018060405250810190620032199190620045d7565b15156001146200325f5760405162461bcd60e51b815260206004820152601060248201526f4f6e6c7920666f72206d696e7465727360801b604482015260640162000ea7565b60008411620032b15760405162461bcd60e51b815260206004820152601b60248201527f416d6f756e74206d7573742062652067726561746572207a65726f0000000000604482015260640162000ea7565b60008315620032c15783620032c5565b6002545b600154336000818152600e6020526040808220905194955090936001600160a01b0390931692899142918791908a90620032ff9062003e23565b6200331197969594939291906200489e565b604051809103906000f0801580156200332e573d6000803e3d6000fd5b50600680549192506000620033438362004688565b91905055506040518061012001604052806006548152602001878152602001336001600160a01b0316815260200160006001600160a01b0316815260200142815260200160008152602001838152602001826001600160a01b0316815260200185815250600460006006548152602001908152602001600020600082015181600001556020820151816001015560408201518160020160006101000a8154816001600160a01b0302191690836001600160a01b0316021790555060608201518160030160006101000a8154816001600160a01b0302191690836001600160a01b031602179055506080820151816004015560a0820151816005015560c0820151816006015560e08201518160070160006101000a8154816001600160a01b0302191690836001600160a01b031602179055506101008201518160080190805190602001906200349492919062003d2d565b50506006546001600160a01b038316600090815260056020908152604080832093909355338252600f90529081208054899350909190620034d7908490620046a6565b925050819055508560096000828254620034f29190620046a6565b909155505033600081815260106020908152604080832060065481546001810183559185528385209091015592825260119052908120805491620035368362004688565b9091555050600780549060006200354d8362004688565b90915550506040516001600160a01b03821681527f12a2dcd8d60f7d320a97f9b2f6bca5b67c1bb9808b27c28915c541eed450d05f9060200160405180910390a195945050505050565b604051630c3d3c7560e41b81526021600482015260009073__$1c537defa8d8abb880144579cecc12eeda$__9063c3d3c7509060240162001a50565b600e60205260009081526040902080546200302190620047e7565b6001600160a01b0383166000908152601060205260409020546060908215620036145750815b6000620036228286620046a6565b6001600160a01b0387166000908152601060205260409020549091508111156200366157506001600160a01b0385166000908152601060205260409020545b60006200366f8683620046c1565b67ffffffffffffffff8111156200368a576200368a6200416f565b604051908082528060200260200182016040528015620036c757816020015b620036b362003dbc565b815260200190600190039081620036a95790505b50905060005b620036d98784620046c1565b81101562002000576001600160a01b0388166000908152601060205260408120805460049291906001908b9062003712908790620046c1565b6200371e9190620046c1565b6200372a9190620046c1565b815481106200373d576200373d6200465c565b6000918252602080832090910154835282810193909352604091820190208151610120810183528154815260018201549381019390935260028101546001600160a01b039081169284019290925260038101548216606084015260048101546080840152600581015460a0840152600681015460c0840152600781015490911660e083015260088101805461010084019190620037da90620047e7565b80601f01602080910402602001604051908101604052809291908181526020018280546200380890620047e7565b8015620038595780601f106200382d5761010080835404028352916020019162003859565b820191906000526020600020905b8154815290600101906020018083116200383b57829003601f168201915b5050505050815250508282815181106200387757620038776200465c565b602002602001018190525080806200388f9062004688565b915050620036cd565b6040516317e26bc960e11b815273__$1c537defa8d8abb880144579cecc12eeda$__90632fc4d79290620038d4906021903390600401620045c0565b602060405180830381865af4158015620038f2573d6000803e3d6000fd5b505050506040513d601f19601f82011682018060405250810190620039189190620045d7565b15156001146200393c5760405162461bcd60e51b815260040162000ea790620045f7565b6001600160a01b0382166000908152600e602090815260409091208251620017409284019062003d2d565b604051630c3d3c7560e41b8152600c600482015260009073__$1c537defa8d8abb880144579cecc12eeda$__9063c3d3c7509060240162001a50565b620039ad62003ca6565b6040516317e26bc960e11b815273__$1c537defa8d8abb880144579cecc12eeda$__90632fc4d79290620039e990600c908690600401620045c0565b602060405180830381865af415801562003a07573d6000803e3d6000fd5b505050506040513d601f19601f8201168201806040525081019062003a2d9190620045d7565b1562002cac576040805160e0810182526001600160a01b0384168082526000908152600e60209081529290208054919283019162003a6b90620047e7565b80601f016020809104026020016040519081016040528092919081815260200182805462003a9990620047e7565b801562003aea5780601f1062003abe5761010080835404028352916020019162003aea565b820191906000526020600020905b81548152906001019060200180831162003acc57829003601f168201915b50505091835250506001600160a01b0384166000818152600f60209081526040808320548286015283835260128252808320548186015292825260108152908290208054835181840281018401909452808452606090940193909183018282801562003b7657602002820191906000526020600020905b81548152602001906001019080831162003b61575b50505091835250506001600160a01b039093166000818152601160209081526040808320548288015292825260139052819020549301929092525090565b600154604080516395d89b4160e01b815290516060926001600160a01b0316916395d89b419160048083019260009291908290030181865afa15801562002d78573d6000803e3d6000fd5b6000546001600160a01b0316331462003c2c5760405162461bcd60e51b815260040162000ea79062004700565b6001600160a01b03811662003c845760405162461bcd60e51b815260206004820152601a60248201527f4f776e657220616464726573732063616e74206265207a65726f000000000000604482015260640162000ea7565b600080546001600160a01b0319166001600160a01b0392909216919091179055565b6040518060e0016040528060006001600160a01b031681526020016060815260200160008152602001600081526020016060815260200160008152602001600081525090565b6040518060c0016040528060006001600160a01b03168152602001600081526020016060815260200160008152602001600081526020016000151581525090565b82805462003d3b90620047e7565b90600052602060002090601f01602090048101928262003d5f576000855562003daa565b82601f1062003d7a57805160ff191683800117855562003daa565b8280016001018555821562003daa579182015b8281111562003daa57825182559160200191906001019062003d8d565b5062003db892915062003e31565b5090565b604051806101200160405280600081526020016000815260200160006001600160a01b0316815260200160006001600160a01b0316815260200160008152602001600081526020016000815260200160006001600160a01b03168152602001606081525090565b610b17806200499a83390190565b5b8082111562003db8576000815560010162003e32565b6001600160a01b038116811462003e5e57600080fd5b50565b60006020828403121562003e7457600080fd5b813562002fff8162003e48565b60006020828403121562003e9457600080fd5b5035919050565b60005b8381101562003eb857818101518382015260200162003e9e565b8381111562003ec8576000848401525b50505050565b6000815180845262003ee881602086016020860162003e9b565b601f01601f19169290920160200192915050565b600081518084526020808501945080840160005b8381101562003f2e5781518752958201959082019060010162003f10565b509495945050505050565b60018060a01b0381511682526000602082015160e0602085015262003f6260e085018262003ece565b905060408301516040850152606083015160608501526080830151848203608086015262003f91828262003efc565b91505060a083015160a085015260c083015160c08501528091505092915050565b6000602080830181845280855180835260408601915060408160051b870101925083870160005b828110156200400b57603f1988860301845262003ff885835162003f39565b9450928501929085019060010162003fd9565b5092979650505050505050565b600080604083850312156200402c57600080fd5b8235620040398162003e48565b946020939093013593505050565b801515811462003e5e57600080fd5b600080604083850312156200406a57600080fd5b8235620040778162003e48565b91506020830135620040898162004047565b809150509250929050565b60008060408385031215620040a857600080fd5b50508035926020909101359150565b60018060a01b038151168252602081015160208301526000604082015160c06040850152620040ea60c085018262003efc565b9050606083015160608501526080830151608085015260a0830151151560a08501528091505092915050565b6000602080830181845280855180835260408601915060408160051b870101925083870160005b828110156200400b57603f198886030184526200415c858351620040b7565b945092850192908501906001016200413d565b634e487b7160e01b600052604160045260246000fd5b604051601f8201601f1916810167ffffffffffffffff81118282101715620041b157620041b16200416f565b604052919050565b600067ffffffffffffffff821115620041d657620041d66200416f565b50601f01601f191660200190565b600082601f830112620041f657600080fd5b81356200420d6200420782620041b9565b62004185565b8181528460208386010111156200422357600080fd5b816020850160208301376000918101602001919091529392505050565b600080604083850312156200425457600080fd5b8235620042618162003e48565b9150602083013567ffffffffffffffff8111156200427e57600080fd5b6200428c85828601620041e4565b9150509250929050565b600080600060608486031215620042ac57600080fd5b8335620042b98162003e48565b95602085013595506040909401359392505050565b6000610120825184526020830151602085015260018060a01b03604084015116604085015260608301516200430e60608601826001600160a01b03169052565b506080830151608085015260a083015160a085015260c083015160c085015260e08301516200434860e08601826001600160a01b03169052565b50610100808401518282870152620043638387018262003ece565b9695505050505050565b6000602080830181845280855180835260408601915060408160051b870101925083870160005b828110156200400b57603f19888603018452620043b3858351620042ce565b9450928501929085019060010162004394565b60006020808301818452808551808352604092508286019150828160051b87010184880160005b838110156200445657888303603f19018552815180516001600160a01b03908116855288820151168885015286810151608088860181905290620044348287018262003ece565b60609384015196909301959095525094870194925090860190600101620043ed565b509098975050505050505050565b6020808252825182820181905260009190848201906040850190845b81811015620044a75783516001600160a01b03168352928401929184019160010162004480565b50909695505050505050565b60006101208b83528a602084015260018060a01b03808b166040850152808a1660608501528860808501528760a08501528660c085015280861660e08501525080610100840152620045088184018562003ece565b9c9b505050505050505050505050565b60208152600062002fff6020830184620042ce565b60208152600062002fff602083018462003ece565b60208152600062002fff6020830184620040b7565b6000806000606084860312156200456d57600080fd5b8335925060208401359150604084013567ffffffffffffffff8111156200459357600080fd5b620045a186828701620041e4565b9150509250925092565b60208152600062002fff602083018462003f39565b9182526001600160a01b0316602082015260400190565b600060208284031215620045ea57600080fd5b815162002fff8162004047565b6020808252601190820152704f6e6c7920666f72206d616e616765727360781b604082015260600190565b6000602082840312156200463557600080fd5b5051919050565b6000602082840312156200464f57600080fd5b815162002fff8162003e48565b634e487b7160e01b600052603260045260246000fd5b634e487b7160e01b600052601160045260246000fd5b60006000198214156200469f576200469f62004672565b5060010190565b60008219821115620046bc57620046bc62004672565b500190565b600082821015620046d657620046d662004672565b500390565b600060208284031215620046ee57600080fd5b815160ff8116811462002fff57600080fd5b6020808252600e908201526d27b7363c903337b91037bbb732b960911b604082015260600190565b600060208083850312156200473c57600080fd5b825167ffffffffffffffff808211156200475557600080fd5b818501915085601f8301126200476a57600080fd5b8151818111156200477f576200477f6200416f565b8060051b91506200479284830162004185565b8181529183018401918481019088841115620047ad57600080fd5b938501935b83851015620047db5784519250620047ca8362003e48565b8282529385019390850190620047b2565b98975050505050505050565b600181811c90821680620047fc57607f821691505b60208210811415620011dd57634e487b7160e01b600052602260045260246000fd5b6000602082840312156200483157600080fd5b815167ffffffffffffffff8111156200484957600080fd5b8201601f810184136200485b57600080fd5b80516200486c6200420782620041b9565b8181528560208385010111156200488257600080fd5b6200489582602083016020860162003e9b565b95945050505050565b6001600160a01b038881168252871660208083019190915260408201879052606082018690526080820185905260e060a083015283546000918291600181811c9082811680620048ef57607f831692505b8483108114156200490e57634e487b7160e01b86526022600452602486fd5b60e088018390526101008801818015620049315760018114620049435762004970565b60ff1986168252868201975062004970565b60008c81526020902060005b868110156200496a578154848201529085019088016200494f565b83019850505b5050505050505082810360c08401526200498b818562003ece565b9a995050505050505050505056fe6080604052600b805460ff191690553480156200001b57600080fd5b5060405162000b1738038062000b178339810160408190526200003e91620003ee565b60008054336001600160a01b03199182161782556002805482166001600160a01b038a81169190911790915560038890556009879055600a86905560018054909216908a16908117909155604080516306fdde0360e01b8152905191926306fdde03926004808401938290030181865afa158015620000c1573d6000803e3d6000fd5b505050506040513d6000823e601f3d908101601f19168201604052620000eb91908101906200049c565b805162000101916004916020909101906200025e565b50600160009054906101000a90046001600160a01b03166001600160a01b03166395d89b416040518163ffffffff1660e01b8152600401600060405180830381865afa15801562000156573d6000803e3d6000fd5b505050506040513d6000823e601f3d908101601f191682016040526200018091908101906200049c565b805162000196916005916020909101906200025e565b50600160009054906101000a90046001600160a01b03166001600160a01b031663313ce5676040518163ffffffff1660e01b8152600401602060405180830381865afa158015620001eb573d6000803e3d6000fd5b505050506040513d601f19601f82011682018060405250810190620002119190620004dc565b6006805460ff191660ff9290921691909117905581516200023a9060079060208501906200025e565b508051620002509060089060208401906200025e565b505050505050505062000545565b8280546200026c9062000508565b90600052602060002090601f016020900481019282620002905760008555620002db565b82601f10620002ab57805160ff1916838001178555620002db565b82800160010185558215620002db579182015b82811115620002db578251825591602001919060010190620002be565b50620002e9929150620002ed565b5090565b5b80821115620002e95760008155600101620002ee565b80516001600160a01b03811681146200031c57600080fd5b919050565b634e487b7160e01b600052604160045260246000fd5b600082601f8301126200034957600080fd5b81516001600160401b038082111562000366576200036662000321565b604051601f8301601f19908116603f0116810190828211818310171562000391576200039162000321565b81604052838152602092508683858801011115620003ae57600080fd5b600091505b83821015620003d25785820183015181830184015290820190620003b3565b83821115620003e45760008385830101525b9695505050505050565b600080600080600080600060e0888a0312156200040a57600080fd5b620004158862000304565b9650620004256020890162000304565b604089015160608a015160808b015160a08c0151939950919750955093506001600160401b03808211156200045957600080fd5b620004678b838c0162000337565b935060c08a01519150808211156200047e57600080fd5b506200048d8a828b0162000337565b91505092959891949750929550565b600060208284031215620004af57600080fd5b81516001600160401b03811115620004c657600080fd5b620004d48482850162000337565b949350505050565b600060208284031215620004ef57600080fd5b815160ff811681146200050157600080fd5b9392505050565b600181811c908216806200051d57607f821691505b602082108114156200053f57634e487b7160e01b600052602260045260246000fd5b50919050565b6105c280620005556000396000f3fe608060405234801561001057600080fd5b50600436106100f55760003560e01c806395d89b4111610097578063bb5d40eb11610066578063bb5d40eb146101d0578063c45a0155146101d8578063e21f37ce146101eb578063fc0c546a146101f357600080fd5b806395d89b41146101ae5780639c6f0d85146101b6578063aa8c217c146101bf578063b39cb699146101c857600080fd5b80631e83409a116100d35780631e83409a1461014d578063313ce5671461016057806357c9ca141461017f5780637eb9385f1461019757600080fd5b806306fdde03146100fa5780630754617214610118578063162992c814610143575b600080fd5b610102610206565b60405161010f9190610484565b60405180910390f35b60025461012b906001600160a01b031681565b6040516001600160a01b03909116815260200161010f565b61014b610294565b005b61014b61015b3660046104d9565b6102f0565b60065461016d9060ff1681565b60405160ff909116815260200161010f565b6101876103b6565b604051901515815260200161010f565b6101a0600a5481565b60405190815260200161010f565b610102610428565b6101a060095481565b6101a060035481565b610102610435565b610187610442565b60005461012b906001600160a01b031681565b610102610477565b60015461012b906001600160a01b031681565b6004805461021390610509565b80601f016020809104026020016040519081016040528092919081815260200182805461023f90610509565b801561028c5780601f106102615761010080835404028352916020019161028c565b820191906000526020600020905b81548152906001019060200180831161026f57829003601f168201915b505050505081565b6000546001600160a01b031633146102e15760405162461bcd60e51b815260206004820152600b60248201526a139bdd08185b1b1bddd95960aa1b60448201526064015b60405180910390fd5b600b805460ff19166001179055565b600b5460ff16156103365760405162461bcd60e51b815260206004820152601060248201526f145490dbd919481b9bdd081d985b1a5960821b60448201526064016102d8565b6000546001600160a01b0390811690631e83409a90831615610358578261035a565b335b6040516001600160e01b031960e084901b1681526001600160a01b039091166004820152602401600060405180830381600087803b15801561039b57600080fd5b505af11580156103af573d6000803e3d6000fd5b5050505050565b60008054604051632a4e455360e01b81523060048201526001600160a01b0390911690632a4e455390602401602060405180830381865afa1580156103ff573d6000803e3d6000fd5b505050506040513d601f19601f820116820180604052508101906104239190610544565b905090565b6005805461021390610509565b6007805461021390610509565b600b5460009060ff166104555750600090565b42600a546009546104669190610566565b116104715750600090565b50600190565b6008805461021390610509565b600060208083528351808285015260005b818110156104b157858101830151858201604001528201610495565b818111156104c3576000604083870101525b50601f01601f1916929092016040019392505050565b6000602082840312156104eb57600080fd5b81356001600160a01b038116811461050257600080fd5b9392505050565b600181811c9082168061051d57607f821691505b6020821081141561053e57634e487b7160e01b600052602260045260246000fd5b50919050565b60006020828403121561055657600080fd5b8151801515811461050257600080fd5b6000821982111561058757634e487b7160e01b600052601160045260246000fd5b50019056fea2646970667358221220e7417847993029006cd89766a31a35610d0145a93aa8476d1123e0a882101c8f64736f6c634300080c0033a2646970667358221220e1e98e4ca3b33b97e07abe037b94296a10324733eaddba1af71ed531f16b9b6464736f6c634300080c0033",
			"opcodes": "PUSH1 0x80 PUSH1 0x40 MSTORE PUSH2 0x708 PUSH1 0x2 SSTORE PUSH7 0x2386F26FC10000 PUSH1 0x3 SSTORE PUSH1 0x0 PUSH1 0x6 SSTORE PUSH1 0x0 PUSH1 0x7 SSTORE PUSH1 0x0 PUSH1 0x8 SSTORE PUSH1 0x0 PUSH1 0x9 SSTORE PUSH1 0x0 PUSH1 0xA SSTORE PUSH1 0x0 PUSH1 0xB SSTORE PUSH6 0x5AF3107A4000 PUSH1 0x1A SSTORE CALLVALUE DUP1 ISZERO PUSH3 0x4A JUMPI PUSH1 0x0 DUP1 REVERT JUMPDEST POP PUSH1 0x40 MLOAD PUSH3 0x56AA CODESIZE SUB DUP1 PUSH3 0x56AA DUP4 CODECOPY DUP2 ADD PUSH1 0x40 DUP2 SWAP1 MSTORE PUSH3 0x6D SWAP2 PUSH3 0x182 JUMP JUMPDEST PUSH1 0x0 DUP1 SLOAD PUSH1 0x1 PUSH1 0x1 PUSH1 0xA0 SHL SUB NOT AND CALLER SWAP1 DUP2 OR SWAP1 SWAP2 SSTORE PUSH1 0x40 MLOAD PUSH4 0x9F75F0A3 PUSH1 0xE0 SHL DUP2 MSTORE PUSH1 0x21 PUSH1 0x4 DUP3 ADD MSTORE PUSH1 0x24 DUP2 ADD SWAP2 SWAP1 SWAP2 MSTORE PUSH20 0x0 SWAP1 PUSH4 0x9F75F0A3 SWAP1 PUSH1 0x44 ADD PUSH1 0x0 PUSH1 0x40 MLOAD DUP1 DUP4 SUB DUP2 DUP7 DUP1 EXTCODESIZE ISZERO DUP1 ISZERO PUSH3 0xD6 JUMPI PUSH1 0x0 DUP1 REVERT JUMPDEST POP GAS DELEGATECALL ISZERO DUP1 ISZERO PUSH3 0xEB JUMPI RETURNDATASIZE PUSH1 0x0 DUP1 RETURNDATACOPY RETURNDATASIZE PUSH1 0x0 REVERT JUMPDEST POP POP PUSH1 0x40 MLOAD PUSH4 0x9F75F0A3 PUSH1 0xE0 SHL DUP2 MSTORE PUSH1 0xC PUSH1 0x4 DUP3 ADD MSTORE CALLER PUSH1 0x24 DUP3 ADD MSTORE PUSH20 0x0 SWAP3 POP PUSH4 0x9F75F0A3 SWAP2 POP PUSH1 0x44 ADD PUSH1 0x0 PUSH1 0x40 MLOAD DUP1 DUP4 SUB DUP2 DUP7 DUP1 EXTCODESIZE ISZERO DUP1 ISZERO PUSH3 0x141 JUMPI PUSH1 0x0 DUP1 REVERT JUMPDEST POP GAS DELEGATECALL ISZERO DUP1 ISZERO PUSH3 0x156 JUMPI RETURNDATASIZE PUSH1 0x0 DUP1 RETURNDATACOPY RETURNDATASIZE PUSH1 0x0 REVERT JUMPDEST POP POP PUSH1 0x1 DUP1 SLOAD PUSH1 0x1 PUSH1 0x1 PUSH1 0xA0 SHL SUB NOT AND PUSH1 0x1 PUSH1 0x1 PUSH1 0xA0 SHL SUB SWAP5 SWAP1 SWAP5 AND SWAP4 SWAP1 SWAP4 OR SWAP1 SWAP3 SSTORE POP PUSH3 0x1B4 SWAP1 POP JUMP JUMPDEST PUSH1 0x0 PUSH1 0x20 DUP3 DUP5 SUB SLT ISZERO PUSH3 0x195 JUMPI PUSH1 0x0 DUP1 REVERT JUMPDEST DUP2 MLOAD PUSH1 0x1 PUSH1 0x1 PUSH1 0xA0 SHL SUB DUP2 AND DUP2 EQ PUSH3 0x1AD JUMPI PUSH1 0x0 DUP1 REVERT JUMPDEST SWAP4 SWAP3 POP POP POP JUMP JUMPDEST PUSH2 0x54E6 DUP1 PUSH3 0x1C4 PUSH1 0x0 CODECOPY PUSH1 0x0 RETURN INVALID PUSH1 0x80 PUSH1 0x40 MSTORE PUSH1 0x4 CALLDATASIZE LT PUSH3 0x42E JUMPI PUSH1 0x0 CALLDATALOAD PUSH1 0xE0 SHR DUP1 PUSH4 0x76678D84 GT PUSH3 0x227 JUMPI DUP1 PUSH4 0xA8D088BB GT PUSH3 0x12F JUMPI DUP1 PUSH4 0xE43E5541 GT PUSH3 0xB9 JUMPI DUP1 PUSH4 0xF1294EF6 GT PUSH3 0x84 JUMPI DUP1 PUSH4 0xF1294EF6 EQ PUSH3 0xD68 JUMPI DUP1 PUSH4 0xF1850AF8 EQ PUSH3 0xD80 JUMPI DUP1 PUSH4 0xF1F959A6 EQ PUSH3 0xD98 JUMPI DUP1 PUSH4 0xF2FDE38B EQ PUSH3 0xDAD JUMPI DUP1 PUSH4 0xFBBF8CC3 EQ PUSH3 0xDD2 JUMPI PUSH1 0x0 DUP1 REVERT JUMPDEST DUP1 PUSH4 0xE43E5541 EQ PUSH3 0xCD2 JUMPI DUP1 PUSH4 0xECE76435 EQ PUSH3 0xCF7 JUMPI DUP1 PUSH4 0xEED31986 EQ PUSH3 0xD1C JUMPI DUP1 PUSH4 0xF09B2203 EQ PUSH3 0xD34 JUMPI PUSH1 0x0 DUP1 REVERT JUMPDEST DUP1 PUSH4 0xCEEABBF6 GT PUSH3 0xFA JUMPI DUP1 PUSH4 0xCEEABBF6 EQ PUSH3 0xC38 JUMPI DUP1 PUSH4 0xD3A51FF2 EQ PUSH3 0xC50 JUMPI DUP1 PUSH4 0xD846CEAE EQ PUSH3 0xC75 JUMPI DUP1 PUSH4 0xDCCB445B EQ PUSH3 0xCA1 JUMPI PUSH1 0x0 DUP1 REVERT JUMPDEST DUP1 PUSH4 0xA8D088BB EQ PUSH3 0xB99 JUMPI DUP1 PUSH4 0xAD4AD7CA EQ PUSH3 0xBB1 JUMPI DUP1 PUSH4 0xB862251F EQ PUSH3 0xBE2 JUMPI DUP1 PUSH4 0xC6E64E53 EQ PUSH3 0xC13 JUMPI PUSH1 0x0 DUP1 REVERT JUMPDEST DUP1 PUSH4 0x9661CB0D GT PUSH3 0x1B1 JUMPI DUP1 PUSH4 0x9D76EA58 GT PUSH3 0x17C JUMPI DUP1 PUSH4 0x9D76EA58 EQ PUSH3 0xB15 JUMPI DUP1 PUSH4 0x9DB1FF16 EQ PUSH3 0xB37 JUMPI DUP1 PUSH4 0xA01BAD52 EQ PUSH3 0xB4F JUMPI DUP1 PUSH4 0xA50FFDA5 EQ PUSH3 0xB74 JUMPI PUSH1 0x0 DUP1 REVERT JUMPDEST DUP1 PUSH4 0x9661CB0D EQ PUSH3 0xA9B JUMPI DUP1 PUSH4 0x98ADCC97 EQ PUSH3 0xAB3 JUMPI DUP1 PUSH4 0x98D7A152 EQ PUSH3 0xAD8 JUMPI DUP1 PUSH4 0x9C281430 EQ PUSH3 0xAFD JUMPI PUSH1 0x0 DUP1 REVERT JUMPDEST DUP1 PUSH4 0x862B092B GT PUSH3 0x1F2 JUMPI DUP1 PUSH4 0x862B092B EQ PUSH3 0xA06 JUMPI DUP1 PUSH4 0x878D7D87 EQ PUSH3 0xA2D JUMPI DUP1 PUSH4 0x892FF8BD EQ PUSH3 0xA61 JUMPI DUP1 PUSH4 0x8DA5CB5B EQ PUSH3 0xA79 JUMPI PUSH1 0x0 DUP1 REVERT JUMPDEST DUP1 PUSH4 0x76678D84 EQ PUSH3 0x97F JUMPI DUP1 PUSH4 0x81B5479D EQ PUSH3 0x9A4 JUMPI DUP1 PUSH4 0x81D2FD9C EQ PUSH3 0x9C9 JUMPI DUP1 PUSH4 0x82B2E257 EQ PUSH3 0x9EE JUMPI PUSH1 0x0 DUP1 REVERT JUMPDEST DUP1 PUSH4 0x4078EEB2 GT PUSH3 0x337 JUMPI DUP1 PUSH4 0x5A2F7133 GT PUSH3 0x2C1 JUMPI DUP1 PUSH4 0x6B32810B GT PUSH3 0x28C JUMPI DUP1 PUSH4 0x6B32810B EQ PUSH3 0x87D JUMPI DUP1 PUSH4 0x6CA80026 EQ PUSH3 0x8A4 JUMPI DUP1 PUSH4 0x6E54F5A6 EQ PUSH3 0x8E0 JUMPI DUP1 PUSH4 0x6F7AB8D1 EQ PUSH3 0x933 JUMPI DUP1 PUSH4 0x6F865E6F EQ PUSH3 0x967 JUMPI PUSH1 0x0 DUP1 REVERT JUMPDEST DUP1 PUSH4 0x5A2F7133 EQ PUSH3 0x7E7 JUMPI DUP1 PUSH4 0x66059A16 EQ PUSH3 0x81B JUMPI DUP1 PUSH4 0x66800995 EQ PUSH3 0x840 JUMPI DUP1 PUSH4 0x66EB399F EQ PUSH3 0x858 JUMPI PUSH1 0x0 DUP1 REVERT JUMPDEST DUP1 PUSH4 0x4F513277 GT PUSH3 0x302 JUMPI DUP1 PUSH4 0x4F513277 EQ PUSH3 0x75E JUMPI DUP1 PUSH4 0x563D3CA3 EQ PUSH3 0x792 JUMPI DUP1 PUSH4 0x572D4721 EQ PUSH3 0x7AA JUMPI DUP1 PUSH4 0x59D1BD80 EQ PUSH3 0x7C2 JUMPI PUSH1 0x0 DUP1 REVERT JUMPDEST DUP1 PUSH4 0x4078EEB2 EQ PUSH3 0x6C8 JUMPI DUP1 PUSH4 0x41BE8B94 EQ PUSH3 0x6E0 JUMPI DUP1 PUSH4 0x424F3C8E EQ PUSH3 0x714 JUMPI DUP1 PUSH4 0x44E2AD99 EQ PUSH3 0x739 JUMPI PUSH1 0x0 DUP1 REVERT JUMPDEST DUP1 PUSH4 0x206855D0 GT PUSH3 0x3B9 JUMPI DUP1 PUSH4 0x2BA33DB4 GT PUSH3 0x384 JUMPI DUP1 PUSH4 0x2BA33DB4 EQ PUSH3 0x611 JUMPI DUP1 PUSH4 0x2E42ADD7 EQ PUSH3 0x641 JUMPI DUP1 PUSH4 0x384E491D EQ PUSH3 0x672 JUMPI DUP1 PUSH4 0x3E70703E EQ PUSH3 0x697 JUMPI PUSH1 0x0 DUP1 REVERT JUMPDEST DUP1 PUSH4 0x206855D0 EQ PUSH3 0x58A JUMPI DUP1 PUSH4 0x24F65EE7 EQ PUSH3 0x5AF JUMPI DUP1 PUSH4 0x26767F90 EQ PUSH3 0x5C7 JUMPI DUP1 PUSH4 0x2A4E4553 EQ PUSH3 0x5EC JUMPI PUSH1 0x0 DUP1 REVERT JUMPDEST DUP1 PUSH4 0x1654D42C GT PUSH3 0x3FA JUMPI DUP1 PUSH4 0x1654D42C EQ PUSH3 0x4F2 JUMPI DUP1 PUSH4 0x17FC30D4 EQ PUSH3 0x50A JUMPI DUP1 PUSH4 0x198E14F8 EQ PUSH3 0x540 JUMPI DUP1 PUSH4 0x1E83409A EQ PUSH3 0x565 JUMPI PUSH1 0x0 DUP1 REVERT JUMPDEST DUP1 PUSH3 0x75C377 EQ PUSH3 0x43B JUMPI DUP1 PUSH4 0x4E86903 EQ PUSH3 0x462 JUMPI DUP1 PUSH4 0x4F32A1D EQ PUSH3 0x4A6 JUMPI DUP1 PUSH4 0x143F338C EQ PUSH3 0x4CB JUMPI PUSH1 0x0 DUP1 REVERT JUMPDEST CALLDATASIZE PUSH3 0x436 JUMPI STOP JUMPDEST PUSH1 0x0 DUP1 REVERT JUMPDEST CALLVALUE DUP1 ISZERO PUSH3 0x448 JUMPI PUSH1 0x0 DUP1 REVERT JUMPDEST POP PUSH3 0x460 PUSH3 0x45A CALLDATASIZE PUSH1 0x4 PUSH3 0x3E61 JUMP JUMPDEST PUSH3 0xE03 JUMP JUMPDEST STOP JUMPDEST CALLVALUE DUP1 ISZERO PUSH3 0x46F JUMPI PUSH1 0x0 DUP1 REVERT JUMPDEST POP PUSH3 0x493 PUSH3 0x481 CALLDATASIZE PUSH1 0x4 PUSH3 0x3E61 JUMP JUMPDEST PUSH1 0x16 PUSH1 0x20 MSTORE PUSH1 0x0 SWAP1 DUP2 MSTORE PUSH1 0x40 SWAP1 KECCAK256 SLOAD DUP2 JUMP JUMPDEST PUSH1 0x40 MLOAD SWAP1 DUP2 MSTORE PUSH1 0x20 ADD JUMPDEST PUSH1 0x40 MLOAD DUP1 SWAP2 SUB SWAP1 RETURN JUMPDEST CALLVALUE DUP1 ISZERO PUSH3 0x4B3 JUMPI PUSH1 0x0 DUP1 REVERT JUMPDEST POP PUSH3 0x460 PUSH3 0x4C5 CALLDATASIZE PUSH1 0x4 PUSH3 0x3E81 JUMP JUMPDEST PUSH3 0xF21 JUMP JUMPDEST CALLVALUE DUP1 ISZERO PUSH3 0x4D8 JUMPI PUSH1 0x0 DUP1 REVERT JUMPDEST POP PUSH3 0x4E3 PUSH3 0xFCA JUMP JUMPDEST PUSH1 0x40 MLOAD PUSH3 0x49D SWAP2 SWAP1 PUSH3 0x3FB2 JUMP JUMPDEST CALLVALUE DUP1 ISZERO PUSH3 0x4FF JUMPI PUSH1 0x0 DUP1 REVERT JUMPDEST POP PUSH3 0x493 PUSH1 0x7 SLOAD DUP2 JUMP JUMPDEST CALLVALUE DUP1 ISZERO PUSH3 0x517 JUMPI PUSH1 0x0 DUP1 REVERT JUMPDEST POP PUSH3 0x52F PUSH3 0x529 CALLDATASIZE PUSH1 0x4 PUSH3 0x3E61 JUMP JUMPDEST PUSH3 0x11E3 JUMP JUMPDEST PUSH1 0x40 MLOAD SWAP1 ISZERO ISZERO DUP2 MSTORE PUSH1 0x20 ADD PUSH3 0x49D JUMP JUMPDEST CALLVALUE DUP1 ISZERO PUSH3 0x54D JUMPI PUSH1 0x0 DUP1 REVERT JUMPDEST POP PUSH3 0x52F PUSH3 0x55F CALLDATASIZE PUSH1 0x4 PUSH3 0x3E61 JUMP JUMPDEST PUSH3 0x126C JUMP JUMPDEST CALLVALUE DUP1 ISZERO PUSH3 0x572 JUMPI PUSH1 0x0 DUP1 REVERT JUMPDEST POP PUSH3 0x460 PUSH3 0x584 CALLDATASIZE PUSH1 0x4 PUSH3 0x3E61 JUMP JUMPDEST PUSH3 0x12AB JUMP JUMPDEST CALLVALUE DUP1 ISZERO PUSH3 0x597 JUMPI PUSH1 0x0 DUP1 REVERT JUMPDEST POP PUSH3 0x493 PUSH3 0x5A9 CALLDATASIZE PUSH1 0x4 PUSH3 0x4018 JUMP JUMPDEST PUSH3 0x1745 JUMP JUMPDEST CALLVALUE DUP1 ISZERO PUSH3 0x5BC JUMPI PUSH1 0x0 DUP1 REVERT JUMPDEST POP PUSH3 0x493 PUSH3 0x1777 JUMP JUMPDEST CALLVALUE DUP1 ISZERO PUSH3 0x5D4 JUMPI PUSH1 0x0 DUP1 REVERT JUMPDEST POP PUSH3 0x460 PUSH3 0x5E6 CALLDATASIZE PUSH1 0x4 PUSH3 0x4056 JUMP JUMPDEST PUSH3 0x17F0 JUMP JUMPDEST CALLVALUE DUP1 ISZERO PUSH3 0x5F9 JUMPI PUSH1 0x0 DUP1 REVERT JUMPDEST POP PUSH3 0x52F PUSH3 0x60B CALLDATASIZE PUSH1 0x4 PUSH3 0x3E61 JUMP JUMPDEST PUSH3 0x18D2 JUMP JUMPDEST CALLVALUE DUP1 ISZERO PUSH3 0x61E JUMPI PUSH1 0x0 DUP1 REVERT JUMPDEST POP PUSH3 0x493 PUSH3 0x630 CALLDATASIZE PUSH1 0x4 PUSH3 0x3E61 JUMP JUMPDEST PUSH1 0x20 DUP1 MSTORE PUSH1 0x0 SWAP1 DUP2 MSTORE PUSH1 0x40 SWAP1 KECCAK256 SLOAD DUP2 JUMP JUMPDEST CALLVALUE DUP1 ISZERO PUSH3 0x64E JUMPI PUSH1 0x0 DUP1 REVERT JUMPDEST POP PUSH3 0x493 PUSH3 0x660 CALLDATASIZE PUSH1 0x4 PUSH3 0x3E61 JUMP JUMPDEST PUSH1 0x19 PUSH1 0x20 MSTORE PUSH1 0x0 SWAP1 DUP2 MSTORE PUSH1 0x40 SWAP1 KECCAK256 SLOAD DUP2 JUMP JUMPDEST CALLVALUE DUP1 ISZERO PUSH3 0x67F JUMPI PUSH1 0x0 DUP1 REVERT JUMPDEST POP PUSH3 0x460 PUSH3 0x691 CALLDATASIZE PUSH1 0x4 PUSH3 0x4018 JUMP JUMPDEST PUSH3 0x192F JUMP JUMPDEST CALLVALUE DUP1 ISZERO PUSH3 0x6A4 JUMPI PUSH1 0x0 DUP1 REVERT JUMPDEST POP PUSH3 0x493 PUSH3 0x6B6 CALLDATASIZE PUSH1 0x4 PUSH3 0x3E61 JUMP JUMPDEST PUSH1 0x12 PUSH1 0x20 MSTORE PUSH1 0x0 SWAP1 DUP2 MSTORE PUSH1 0x40 SWAP1 KECCAK256 SLOAD DUP2 JUMP JUMPDEST CALLVALUE DUP1 ISZERO PUSH3 0x6D5 JUMPI PUSH1 0x0 DUP1 REVERT JUMPDEST POP PUSH3 0x493 PUSH3 0x1A19 JUMP JUMPDEST CALLVALUE DUP1 ISZERO PUSH3 0x6ED JUMPI PUSH1 0x0 DUP1 REVERT JUMPDEST POP PUSH3 0x705 PUSH3 0x6FF CALLDATASIZE PUSH1 0x4 PUSH3 0x4094 JUMP JUMPDEST PUSH3 0x1A99 JUMP JUMPDEST PUSH1 0x40 MLOAD PUSH3 0x49D SWAP2 SWAP1 PUSH3 0x4116 JUMP JUMPDEST CALLVALUE DUP1 ISZERO PUSH3 0x721 JUMPI PUSH1 0x0 DUP1 REVERT JUMPDEST POP PUSH3 0x460 PUSH3 0x733 CALLDATASIZE PUSH1 0x4 PUSH3 0x4240 JUMP JUMPDEST PUSH3 0x1BFC JUMP JUMPDEST CALLVALUE DUP1 ISZERO PUSH3 0x746 JUMPI PUSH1 0x0 DUP1 REVERT JUMPDEST POP PUSH3 0x493 PUSH3 0x758 CALLDATASIZE PUSH1 0x4 PUSH3 0x4018 JUMP JUMPDEST PUSH3 0x1D39 JUMP JUMPDEST CALLVALUE DUP1 ISZERO PUSH3 0x76B JUMPI PUSH1 0x0 DUP1 REVERT JUMPDEST POP PUSH3 0x783 PUSH3 0x77D CALLDATASIZE PUSH1 0x4 PUSH3 0x4296 JUMP JUMPDEST PUSH3 0x1D56 JUMP JUMPDEST PUSH1 0x40 MLOAD PUSH3 0x49D SWAP2 SWAP1 PUSH3 0x436D JUMP JUMPDEST CALLVALUE DUP1 ISZERO PUSH3 0x79F JUMPI PUSH1 0x0 DUP1 REVERT JUMPDEST POP PUSH3 0x493 PUSH1 0x2 SLOAD DUP2 JUMP JUMPDEST CALLVALUE DUP1 ISZERO PUSH3 0x7B7 JUMPI PUSH1 0x0 DUP1 REVERT JUMPDEST POP PUSH3 0x783 PUSH3 0x200B JUMP JUMPDEST CALLVALUE DUP1 ISZERO PUSH3 0x7CF JUMPI PUSH1 0x0 DUP1 REVERT JUMPDEST POP PUSH3 0x460 PUSH3 0x7E1 CALLDATASIZE PUSH1 0x4 PUSH3 0x4018 JUMP JUMPDEST PUSH3 0x21D6 JUMP JUMPDEST CALLVALUE DUP1 ISZERO PUSH3 0x7F4 JUMPI PUSH1 0x0 DUP1 REVERT JUMPDEST POP PUSH3 0x80C PUSH3 0x806 CALLDATASIZE PUSH1 0x4 PUSH3 0x4094 JUMP JUMPDEST PUSH3 0x2296 JUMP JUMPDEST PUSH1 0x40 MLOAD PUSH3 0x49D SWAP2 SWAP1 PUSH3 0x43C6 JUMP JUMPDEST CALLVALUE DUP1 ISZERO PUSH3 0x828 JUMPI PUSH1 0x0 DUP1 REVERT JUMPDEST POP PUSH3 0x460 PUSH3 0x83A CALLDATASIZE PUSH1 0x4 PUSH3 0x4018 JUMP JUMPDEST PUSH3 0x25B2 JUMP JUMPDEST CALLVALUE DUP1 ISZERO PUSH3 0x84D JUMPI PUSH1 0x0 DUP1 REVERT JUMPDEST POP PUSH3 0x493 PUSH3 0x2672 JUMP JUMPDEST CALLVALUE DUP1 ISZERO PUSH3 0x865 JUMPI PUSH1 0x0 DUP1 REVERT JUMPDEST POP PUSH3 0x460 PUSH3 0x877 CALLDATASIZE PUSH1 0x4 PUSH3 0x4056 JUMP JUMPDEST PUSH3 0x26AE JUMP JUMPDEST CALLVALUE DUP1 ISZERO PUSH3 0x88A JUMPI PUSH1 0x0 DUP1 REVERT JUMPDEST POP PUSH3 0x895 PUSH3 0x27D1 JUMP JUMPDEST PUSH1 0x40 MLOAD PUSH3 0x49D SWAP2 SWAP1 PUSH3 0x4464 JUMP JUMPDEST CALLVALUE DUP1 ISZERO PUSH3 0x8B1 JUMPI PUSH1 0x0 DUP1 REVERT JUMPDEST POP PUSH3 0x8C9 PUSH3 0x8C3 CALLDATASIZE PUSH1 0x4 PUSH3 0x3E81 JUMP JUMPDEST PUSH3 0x285E JUMP JUMPDEST PUSH1 0x40 MLOAD PUSH3 0x49D SWAP10 SWAP9 SWAP8 SWAP7 SWAP6 SWAP5 SWAP4 SWAP3 SWAP2 SWAP1 PUSH3 0x44B3 JUMP JUMPDEST CALLVALUE DUP1 ISZERO PUSH3 0x8ED JUMPI PUSH1 0x0 DUP1 REVERT JUMPDEST POP PUSH3 0x91A PUSH3 0x8FF CALLDATASIZE PUSH1 0x4 PUSH3 0x3E61 JUMP JUMPDEST PUSH1 0x1E PUSH1 0x20 MSTORE PUSH1 0x0 SWAP1 DUP2 MSTORE PUSH1 0x40 SWAP1 KECCAK256 SLOAD PUSH1 0x1 PUSH1 0x1 PUSH1 0xA0 SHL SUB AND DUP2 JUMP JUMPDEST PUSH1 0x40 MLOAD PUSH1 0x1 PUSH1 0x1 PUSH1 0xA0 SHL SUB SWAP1 SWAP2 AND DUP2 MSTORE PUSH1 0x20 ADD PUSH3 0x49D JUMP JUMPDEST CALLVALUE DUP1 ISZERO PUSH3 0x940 JUMPI PUSH1 0x0 DUP1 REVERT JUMPDEST POP PUSH3 0x958 PUSH3 0x952 CALLDATASIZE PUSH1 0x4 PUSH3 0x3E81 JUMP JUMPDEST PUSH3 0x294B JUMP JUMPDEST PUSH1 0x40 MLOAD PUSH3 0x49D SWAP2 SWAP1 PUSH3 0x4518 JUMP JUMPDEST CALLVALUE DUP1 ISZERO PUSH3 0x974 JUMPI PUSH1 0x0 DUP1 REVERT JUMPDEST POP PUSH3 0x493 PUSH1 0x9 SLOAD DUP2 JUMP JUMPDEST CALLVALUE DUP1 ISZERO PUSH3 0x98C JUMPI PUSH1 0x0 DUP1 REVERT JUMPDEST POP PUSH3 0x460 PUSH3 0x99E CALLDATASIZE PUSH1 0x4 PUSH3 0x4240 JUMP JUMPDEST PUSH3 0x2A74 JUMP JUMPDEST CALLVALUE DUP1 ISZERO PUSH3 0x9B1 JUMPI PUSH1 0x0 DUP1 REVERT JUMPDEST POP PUSH3 0x958 PUSH3 0x9C3 CALLDATASIZE PUSH1 0x4 PUSH3 0x3E61 JUMP JUMPDEST PUSH3 0x2BE7 JUMP JUMPDEST CALLVALUE DUP1 ISZERO PUSH3 0x9D6 JUMPI PUSH1 0x0 DUP1 REVERT JUMPDEST POP PUSH3 0x460 PUSH3 0x9E8 CALLDATASIZE PUSH1 0x4 PUSH3 0x3E81 JUMP JUMPDEST PUSH3 0x2CB1 JUMP JUMPDEST CALLVALUE DUP1 ISZERO PUSH3 0x9FB JUMPI PUSH1 0x0 DUP1 REVERT JUMPDEST POP PUSH3 0x493 PUSH3 0x2CE3 JUMP JUMPDEST CALLVALUE DUP1 ISZERO PUSH3 0xA13 JUMPI PUSH1 0x0 DUP1 REVERT JUMPDEST POP PUSH3 0xA1E PUSH3 0x2D2D JUMP JUMPDEST PUSH1 0x40 MLOAD PUSH3 0x49D SWAP2 SWAP1 PUSH3 0x452D JUMP JUMPDEST CALLVALUE DUP1 ISZERO PUSH3 0xA3A JUMPI PUSH1 0x0 DUP1 REVERT JUMPDEST POP PUSH3 0xA52 PUSH3 0xA4C CALLDATASIZE PUSH1 0x4 PUSH3 0x3E61 JUMP JUMPDEST PUSH3 0x2DA2 JUMP JUMPDEST PUSH1 0x40 MLOAD PUSH3 0x49D SWAP2 SWAP1 PUSH3 0x4542 JUMP JUMPDEST CALLVALUE DUP1 ISZERO PUSH3 0xA6E JUMPI PUSH1 0x0 DUP1 REVERT JUMPDEST POP PUSH3 0x493 PUSH1 0x1A SLOAD DUP2 JUMP JUMPDEST CALLVALUE DUP1 ISZERO PUSH3 0xA86 JUMPI PUSH1 0x0 DUP1 REVERT JUMPDEST POP PUSH1 0x0 SLOAD PUSH3 0x91A SWAP1 PUSH1 0x1 PUSH1 0x1 PUSH1 0xA0 SHL SUB AND DUP2 JUMP JUMPDEST CALLVALUE DUP1 ISZERO PUSH3 0xAA8 JUMPI PUSH1 0x0 DUP1 REVERT JUMPDEST POP PUSH3 0x493 PUSH1 0xA SLOAD DUP2 JUMP JUMPDEST CALLVALUE DUP1 ISZERO PUSH3 0xAC0 JUMPI PUSH1 0x0 DUP1 REVERT JUMPDEST POP PUSH3 0x895 PUSH3 0xAD2 CALLDATASIZE PUSH1 0x4 PUSH3 0x4094 JUMP JUMPDEST PUSH3 0x2F73 JUMP JUMPDEST CALLVALUE DUP1 ISZERO PUSH3 0xAE5 JUMPI PUSH1 0x0 DUP1 REVERT JUMPDEST POP PUSH3 0xA1E PUSH3 0xAF7 CALLDATASIZE PUSH1 0x4 PUSH3 0x3E61 JUMP JUMPDEST PUSH3 0x3006 JUMP JUMPDEST CALLVALUE DUP1 ISZERO PUSH3 0xB0A JUMPI PUSH1 0x0 DUP1 REVERT JUMPDEST POP PUSH3 0x493 PUSH1 0x3 SLOAD DUP2 JUMP JUMPDEST CALLVALUE DUP1 ISZERO PUSH3 0xB22 JUMPI PUSH1 0x0 DUP1 REVERT JUMPDEST POP PUSH1 0x1 SLOAD PUSH3 0x91A SWAP1 PUSH1 0x1 PUSH1 0x1 PUSH1 0xA0 SHL SUB AND DUP2 JUMP JUMPDEST CALLVALUE DUP1 ISZERO PUSH3 0xB44 JUMPI PUSH1 0x0 DUP1 REVERT JUMPDEST POP PUSH3 0x493 PUSH1 0x8 SLOAD DUP2 JUMP JUMPDEST CALLVALUE DUP1 ISZERO PUSH3 0xB5C JUMPI PUSH1 0x0 DUP1 REVERT JUMPDEST POP PUSH3 0x460 PUSH3 0xB6E CALLDATASIZE PUSH1 0x4 PUSH3 0x3E81 JUMP JUMPDEST PUSH3 0x30A8 JUMP JUMPDEST CALLVALUE DUP1 ISZERO PUSH3 0xB81 JUMPI PUSH1 0x0 DUP1 REVERT JUMPDEST POP PUSH3 0x493 PUSH3 0xB93 CALLDATASIZE PUSH1 0x4 PUSH3 0x3E61 JUMP JUMPDEST PUSH3 0x30DA JUMP JUMPDEST CALLVALUE DUP1 ISZERO PUSH3 0xBA6 JUMPI PUSH1 0x0 DUP1 REVERT JUMPDEST POP PUSH3 0x895 PUSH3 0x314C JUMP JUMPDEST CALLVALUE DUP1 ISZERO PUSH3 0xBBE JUMPI PUSH1 0x0 DUP1 REVERT JUMPDEST POP PUSH3 0x493 PUSH3 0xBD0 CALLDATASIZE PUSH1 0x4 PUSH3 0x3E61 JUMP JUMPDEST PUSH1 0x18 PUSH1 0x20 MSTORE PUSH1 0x0 SWAP1 DUP2 MSTORE PUSH1 0x40 SWAP1 KECCAK256 SLOAD DUP2 JUMP JUMPDEST CALLVALUE DUP1 ISZERO PUSH3 0xBEF JUMPI PUSH1 0x0 DUP1 REVERT JUMPDEST POP PUSH3 0x493 PUSH3 0xC01 CALLDATASIZE PUSH1 0x4 PUSH3 0x3E61 JUMP JUMPDEST PUSH1 0x11 PUSH1 0x20 MSTORE PUSH1 0x0 SWAP1 DUP2 MSTORE PUSH1 0x40 SWAP1 KECCAK256 SLOAD DUP2 JUMP JUMPDEST CALLVALUE DUP1 ISZERO PUSH3 0xC20 JUMPI PUSH1 0x0 DUP1 REVERT JUMPDEST POP PUSH3 0x91A PUSH3 0xC32 CALLDATASIZE PUSH1 0x4 PUSH3 0x4557 JUMP JUMPDEST PUSH3 0x3196 JUMP JUMPDEST CALLVALUE DUP1 ISZERO PUSH3 0xC45 JUMPI PUSH1 0x0 DUP1 REVERT JUMPDEST POP PUSH3 0x493 PUSH3 0x3597 JUMP JUMPDEST CALLVALUE DUP1 ISZERO PUSH3 0xC5D JUMPI PUSH1 0x0 DUP1 REVERT JUMPDEST POP PUSH3 0xA1E PUSH3 0xC6F CALLDATASIZE PUSH1 0x4 PUSH3 0x3E61 JUMP JUMPDEST PUSH3 0x35D3 JUMP JUMPDEST CALLVALUE DUP1 ISZERO PUSH3 0xC82 JUMPI PUSH1 0x0 DUP1 REVERT JUMPDEST POP PUSH3 0x493 PUSH3 0xC94 CALLDATASIZE PUSH1 0x4 PUSH3 0x3E61 JUMP JUMPDEST PUSH1 0x1 PUSH1 0x1 PUSH1 0xA0 SHL SUB AND BALANCE SWAP1 JUMP JUMPDEST CALLVALUE DUP1 ISZERO PUSH3 0xCAE JUMPI PUSH1 0x0 DUP1 REVERT JUMPDEST POP PUSH3 0x493 PUSH3 0xCC0 CALLDATASIZE PUSH1 0x4 PUSH3 0x3E61 JUMP JUMPDEST PUSH1 0x5 PUSH1 0x20 MSTORE PUSH1 0x0 SWAP1 DUP2 MSTORE PUSH1 0x40 SWAP1 KECCAK256 SLOAD DUP2 JUMP JUMPDEST CALLVALUE DUP1 ISZERO PUSH3 0xCDF JUMPI PUSH1 0x0 DUP1 REVERT JUMPDEST POP PUSH3 0x783 PUSH3 0xCF1 CALLDATASIZE PUSH1 0x4 PUSH3 0x4296 JUMP JUMPDEST PUSH3 0x35EE JUMP JUMPDEST CALLVALUE DUP1 ISZERO PUSH3 0xD04 JUMPI PUSH1 0x0 DUP1 REVERT JUMPDEST POP PUSH3 0x460 PUSH3 0xD16 CALLDATASIZE PUSH1 0x4 PUSH3 0x4240 JUMP JUMPDEST PUSH3 0x3898 JUMP JUMPDEST CALLVALUE DUP1 ISZERO PUSH3 0xD29 JUMPI PUSH1 0x0 DUP1 REVERT JUMPDEST POP PUSH3 0x493 PUSH3 0x3967 JUMP JUMPDEST CALLVALUE DUP1 ISZERO PUSH3 0xD41 JUMPI PUSH1 0x0 DUP1 REVERT JUMPDEST POP PUSH3 0xD59 PUSH3 0xD53 CALLDATASIZE PUSH1 0x4 PUSH3 0x3E61 JUMP JUMPDEST PUSH3 0x39A3 JUMP JUMPDEST PUSH1 0x40 MLOAD PUSH3 0x49D SWAP2 SWAP1 PUSH3 0x45AB JUMP JUMPDEST CALLVALUE DUP1 ISZERO PUSH3 0xD75 JUMPI PUSH1 0x0 DUP1 REVERT JUMPDEST POP PUSH3 0x493 PUSH1 0xB SLOAD DUP2 JUMP JUMPDEST CALLVALUE DUP1 ISZERO PUSH3 0xD8D JUMPI PUSH1 0x0 DUP1 REVERT JUMPDEST POP PUSH3 0xA1E PUSH3 0x3BB4 JUMP JUMPDEST CALLVALUE DUP1 ISZERO PUSH3 0xDA5 JUMPI PUSH1 0x0 DUP1 REVERT JUMPDEST POP SELFBALANCE PUSH3 0x493 JUMP JUMPDEST CALLVALUE DUP1 ISZERO PUSH3 0xDBA JUMPI PUSH1 0x0 DUP1 REVERT JUMPDEST POP PUSH3 0x460 PUSH3 0xDCC CALLDATASIZE PUSH1 0x4 PUSH3 0x3E61 JUMP JUMPDEST PUSH3 0x3BFF JUMP JUMPDEST CALLVALUE DUP1 ISZERO PUSH3 0xDDF JUMPI PUSH1 0x0 DUP1 REVERT JUMPDEST POP PUSH3 0x493 PUSH3 0xDF1 CALLDATASIZE PUSH1 0x4 PUSH3 0x3E61 JUMP JUMPDEST PUSH1 0xF PUSH1 0x20 MSTORE PUSH1 0x0 SWAP1 DUP2 MSTORE PUSH1 0x40 SWAP1 KECCAK256 SLOAD DUP2 JUMP JUMPDEST PUSH1 0x40 MLOAD PUSH4 0x17E26BC9 PUSH1 0xE1 SHL DUP2 MSTORE PUSH20 0x0 SWAP1 PUSH4 0x2FC4D792 SWAP1 PUSH3 0xE3F SWAP1 PUSH1 0x21 SWAP1 CALLER SWAP1 PUSH1 0x4 ADD PUSH3 0x45C0 JUMP JUMPDEST PUSH1 0x20 PUSH1 0x40 MLOAD DUP1 DUP4 SUB DUP2 DUP7 GAS DELEGATECALL ISZERO DUP1 ISZERO PUSH3 0xE5D JUMPI RETURNDATASIZE PUSH1 0x0 DUP1 RETURNDATACOPY RETURNDATASIZE PUSH1 0x0 REVERT JUMPDEST POP POP POP POP PUSH1 0x40 MLOAD RETURNDATASIZE PUSH1 0x1F NOT PUSH1 0x1F DUP3 ADD AND DUP3 ADD DUP1 PUSH1 0x40 MSTORE POP DUP2 ADD SWAP1 PUSH3 0xE83 SWAP2 SWAP1 PUSH3 0x45D7 JUMP JUMPDEST ISZERO ISZERO PUSH1 0x1 EQ PUSH3 0xEB0 JUMPI PUSH1 0x40 MLOAD PUSH3 0x461BCD PUSH1 0xE5 SHL DUP2 MSTORE PUSH1 0x4 ADD PUSH3 0xEA7 SWAP1 PUSH3 0x45F7 JUMP JUMPDEST PUSH1 0x40 MLOAD DUP1 SWAP2 SUB SWAP1 REVERT JUMPDEST PUSH1 0x40 MLOAD PUSH4 0xA8AFEF95 PUSH1 0xE0 SHL DUP2 MSTORE PUSH20 0x0 SWAP1 PUSH4 0xA8AFEF95 SWAP1 PUSH3 0xEEC SWAP1 PUSH1 0x1C SWAP1 DUP6 SWAP1 PUSH1 0x4 ADD PUSH3 0x45C0 JUMP JUMPDEST PUSH1 0x0 PUSH1 0x40 MLOAD DUP1 DUP4 SUB DUP2 DUP7 DUP1 EXTCODESIZE ISZERO DUP1 ISZERO PUSH3 0xF05 JUMPI PUSH1 0x0 DUP1 REVERT JUMPDEST POP GAS DELEGATECALL ISZERO DUP1 ISZERO PUSH3 0xF1A JUMPI RETURNDATASIZE PUSH1 0x0 DUP1 RETURNDATACOPY RETURNDATASIZE PUSH1 0x0 REVERT JUMPDEST POP POP POP POP POP JUMP JUMPDEST PUSH1 0x40 MLOAD PUSH4 0x17E26BC9 PUSH1 0xE1 SHL DUP2 MSTORE PUSH20 0x0 SWAP1 PUSH4 0x2FC4D792 SWAP1 PUSH3 0xF5D SWAP1 PUSH1 0x21 SWAP1 CALLER SWAP1 PUSH1 0x4 ADD PUSH3 0x45C0 JUMP JUMPDEST PUSH1 0x20 PUSH1 0x40 MLOAD DUP1 DUP4 SUB DUP2 DUP7 GAS DELEGATECALL ISZERO DUP1 ISZERO PUSH3 0xF7B JUMPI RETURNDATASIZE PUSH1 0x0 DUP1 RETURNDATACOPY RETURNDATASIZE PUSH1 0x0 REVERT JUMPDEST POP POP POP POP PUSH1 0x40 MLOAD RETURNDATASIZE PUSH1 0x1F NOT PUSH1 0x1F DUP3 ADD AND DUP3 ADD DUP1 PUSH1 0x40 MSTORE POP DUP2 ADD SWAP1 PUSH3 0xFA1 SWAP2 SWAP1 PUSH3 0x45D7 JUMP JUMPDEST ISZERO ISZERO PUSH1 0x1 EQ PUSH3 0xFC5 JUMPI PUSH1 0x40 MLOAD PUSH3 0x461BCD PUSH1 0xE5 SHL DUP2 MSTORE PUSH1 0x4 ADD PUSH3 0xEA7 SWAP1 PUSH3 0x45F7 JUMP JUMPDEST PUSH1 0x1A SSTORE JUMP JUMPDEST PUSH1 0x40 MLOAD PUSH4 0xC3D3C75 PUSH1 0xE4 SHL DUP2 MSTORE PUSH1 0xC PUSH1 0x4 DUP3 ADD MSTORE PUSH1 0x60 SWAP1 PUSH1 0x0 SWAP1 PUSH20 0x0 SWAP1 PUSH4 0xC3D3C750 SWAP1 PUSH1 0x24 ADD PUSH1 0x20 PUSH1 0x40 MLOAD DUP1 DUP4 SUB DUP2 DUP7 GAS DELEGATECALL ISZERO DUP1 ISZERO PUSH3 0x1021 JUMPI RETURNDATASIZE PUSH1 0x0 DUP1 RETURNDATACOPY RETURNDATASIZE PUSH1 0x0 REVERT JUMPDEST POP POP POP POP PUSH1 0x40 MLOAD RETURNDATASIZE PUSH1 0x1F NOT PUSH1 0x1F DUP3 ADD AND DUP3 ADD DUP1 PUSH1 0x40 MSTORE POP DUP2 ADD SWAP1 PUSH3 0x1047 SWAP2 SWAP1 PUSH3 0x4622 JUMP JUMPDEST PUSH8 0xFFFFFFFFFFFFFFFF DUP2 GT ISZERO PUSH3 0x1062 JUMPI PUSH3 0x1062 PUSH3 0x416F JUMP JUMPDEST PUSH1 0x40 MLOAD SWAP1 DUP1 DUP3 MSTORE DUP1 PUSH1 0x20 MUL PUSH1 0x20 ADD DUP3 ADD PUSH1 0x40 MSTORE DUP1 ISZERO PUSH3 0x109F JUMPI DUP2 PUSH1 0x20 ADD JUMPDEST PUSH3 0x108B PUSH3 0x3CA6 JUMP JUMPDEST DUP2 MSTORE PUSH1 0x20 ADD SWAP1 PUSH1 0x1 SWAP1 SUB SWAP1 DUP2 PUSH3 0x1081 JUMPI SWAP1 POP JUMPDEST POP SWAP1 POP PUSH1 0x0 JUMPDEST PUSH1 0x40 MLOAD PUSH4 0xC3D3C75 PUSH1 0xE4 SHL DUP2 MSTORE PUSH1 0xC PUSH1 0x4 DUP3 ADD MSTORE PUSH20 0x0 SWAP1 PUSH4 0xC3D3C750 SWAP1 PUSH1 0x24 ADD PUSH1 0x20 PUSH1 0x40 MLOAD DUP1 DUP4 SUB DUP2 DUP7 GAS DELEGATECALL ISZERO DUP1 ISZERO PUSH3 0x10F6 JUMPI RETURNDATASIZE PUSH1 0x0 DUP1 RETURNDATACOPY RETURNDATASIZE PUSH1 0x0 REVERT JUMPDEST POP POP POP POP PUSH1 0x40 MLOAD RETURNDATASIZE PUSH1 0x1F NOT PUSH1 0x1F DUP3 ADD AND DUP3 ADD DUP1 PUSH1 0x40 MSTORE POP DUP2 ADD SWAP1 PUSH3 0x111C SWAP2 SWAP1 PUSH3 0x4622 JUMP JUMPDEST DUP2 LT ISZERO PUSH3 0x11DD JUMPI PUSH1 0x40 MLOAD PUSH4 0x182C6DB PUSH1 0xE3 SHL DUP2 MSTORE PUSH1 0xC PUSH1 0x4 DUP3 ADD MSTORE PUSH1 0x24 DUP2 ADD DUP3 SWAP1 MSTORE PUSH3 0x11A7 SWAP1 PUSH20 0x0 SWAP1 PUSH4 0xC1636D8 SWAP1 PUSH1 0x44 ADD PUSH1 0x20 PUSH1 0x40 MLOAD DUP1 DUP4 SUB DUP2 DUP7 GAS DELEGATECALL ISZERO DUP1 ISZERO PUSH3 0x1181 JUMPI RETURNDATASIZE PUSH1 0x0 DUP1 RETURNDATACOPY RETURNDATASIZE PUSH1 0x0 REVERT JUMPDEST POP POP POP POP PUSH1 0x40 MLOAD RETURNDATASIZE PUSH1 0x1F NOT PUSH1 0x1F DUP3 ADD AND DUP3 ADD DUP1 PUSH1 0x40 MSTORE POP DUP2 ADD SWAP1 PUSH3 0xD53 SWAP2 SWAP1 PUSH3 0x463C JUMP JUMPDEST DUP3 DUP3 DUP2 MLOAD DUP2 LT PUSH3 0x11BC JUMPI PUSH3 0x11BC PUSH3 0x465C JUMP JUMPDEST PUSH1 0x20 MUL PUSH1 0x20 ADD ADD DUP2 SWAP1 MSTORE POP DUP1 DUP1 PUSH3 0x11D4 SWAP1 PUSH3 0x4688 JUMP JUMPDEST SWAP2 POP POP PUSH3 0x10A5 JUMP JUMPDEST POP SWAP2 SWAP1 POP JUMP JUMPDEST PUSH1 0x40 MLOAD PUSH4 0x17E26BC9 PUSH1 0xE1 SHL DUP2 MSTORE PUSH1 0x0 SWAP1 PUSH20 0x0 SWAP1 PUSH4 0x2FC4D792 SWAP1 PUSH3 0x1222 SWAP1 PUSH1 0xC SWAP1 DUP7 SWAP1 PUSH1 0x4 ADD PUSH3 0x45C0 JUMP JUMPDEST PUSH1 0x20 PUSH1 0x40 MLOAD DUP1 DUP4 SUB DUP2 DUP7 GAS DELEGATECALL ISZERO DUP1 ISZERO PUSH3 0x1240 JUMPI RETURNDATASIZE PUSH1 0x0 DUP1 RETURNDATACOPY RETURNDATASIZE PUSH1 0x0 REVERT JUMPDEST POP POP POP POP PUSH1 0x40 MLOAD RETURNDATASIZE PUSH1 0x1F NOT PUSH1 0x1F DUP3 ADD AND DUP3 ADD DUP1 PUSH1 0x40 MSTORE POP DUP2 ADD SWAP1 PUSH3 0x1266 SWAP2 SWAP1 PUSH3 0x45D7 JUMP JUMPDEST SWAP3 SWAP2 POP POP JUMP JUMPDEST PUSH1 0x40 MLOAD PUSH4 0x17E26BC9 PUSH1 0xE1 SHL DUP2 MSTORE PUSH1 0x0 SWAP1 PUSH20 0x0 SWAP1 PUSH4 0x2FC4D792 SWAP1 PUSH3 0x1222 SWAP1 PUSH1 0x21 SWAP1 DUP7 SWAP1 PUSH1 0x4 ADD PUSH3 0x45C0 JUMP JUMPDEST CALLER PUSH1 0x0 SWAP1 DUP2 MSTORE PUSH1 0x5 PUSH1 0x20 MSTORE PUSH1 0x40 SWAP1 KECCAK256 SLOAD PUSH3 0x1300 JUMPI PUSH1 0x40 MLOAD PUSH3 0x461BCD PUSH1 0xE5 SHL DUP2 MSTORE PUSH1 0x20 PUSH1 0x4 DUP3 ADD MSTORE PUSH1 0x14 PUSH1 0x24 DUP3 ADD MSTORE PUSH20 0x21B0B636103737BA10333937B6903937BABA32B9 PUSH1 0x61 SHL PUSH1 0x44 DUP3 ADD MSTORE PUSH1 0x64 ADD PUSH3 0xEA7 JUMP JUMPDEST CALLER PUSH1 0x0 SWAP1 DUP2 MSTORE PUSH1 0x5 PUSH1 0x20 SWAP1 DUP2 MSTORE PUSH1 0x40 DUP1 DUP4 KECCAK256 SLOAD DUP1 DUP5 MSTORE PUSH1 0x4 SWAP3 DUP4 SWAP1 MSTORE SWAP3 KECCAK256 ADD SLOAD PUSH3 0x136E JUMPI PUSH1 0x40 MLOAD PUSH3 0x461BCD PUSH1 0xE5 SHL DUP2 MSTORE PUSH1 0x20 PUSH1 0x4 DUP3 ADD MSTORE PUSH1 0x18 PUSH1 0x24 DUP3 ADD MSTORE PUSH32 0x5468697320636F6465206E6F74206D696E746564207965740000000000000000 PUSH1 0x44 DUP3 ADD MSTORE PUSH1 0x64 ADD PUSH3 0xEA7 JUMP JUMPDEST PUSH1 0x0 DUP2 DUP2 MSTORE PUSH1 0x4 PUSH1 0x20 MSTORE PUSH1 0x40 SWAP1 KECCAK256 PUSH1 0x5 ADD SLOAD ISZERO PUSH3 0x13CF JUMPI PUSH1 0x40 MLOAD PUSH3 0x461BCD PUSH1 0xE5 SHL DUP2 MSTORE PUSH1 0x20 PUSH1 0x4 DUP3 ADD MSTORE PUSH1 0x19 PUSH1 0x24 DUP3 ADD MSTORE PUSH32 0x5468697320636F646520616C726561647920636C61696D656400000000000000 PUSH1 0x44 DUP3 ADD MSTORE PUSH1 0x64 ADD PUSH3 0xEA7 JUMP JUMPDEST PUSH1 0x0 DUP2 DUP2 MSTORE PUSH1 0x4 PUSH1 0x20 DUP2 SWAP1 MSTORE PUSH1 0x40 SWAP1 SWAP2 KECCAK256 PUSH1 0x6 DUP2 ADD SLOAD SWAP2 ADD SLOAD TIMESTAMP SWAP2 PUSH3 0x13F5 SWAP2 PUSH3 0x46A6 JUMP JUMPDEST GT PUSH3 0x1438 JUMPI PUSH1 0x40 MLOAD PUSH3 0x461BCD PUSH1 0xE5 SHL DUP2 MSTORE PUSH1 0x20 PUSH1 0x4 DUP3 ADD MSTORE PUSH1 0x11 PUSH1 0x24 DUP3 ADD MSTORE PUSH17 0x145C90DBD919481A5CC8195E1C1A5C9959 PUSH1 0x7A SHL PUSH1 0x44 DUP3 ADD MSTORE PUSH1 0x64 ADD PUSH3 0xEA7 JUMP JUMPDEST PUSH1 0x0 DUP2 DUP2 MSTORE PUSH1 0x4 PUSH1 0x20 SWAP1 DUP2 MSTORE PUSH1 0x40 DUP1 DUP4 KECCAK256 PUSH1 0x1 ADD SLOAD PUSH1 0x1 PUSH1 0x1 PUSH1 0xA0 SHL SUB DUP7 AND DUP5 MSTORE PUSH1 0x16 SWAP1 SWAP3 MSTORE DUP3 KECCAK256 DUP1 SLOAD SWAP2 SWAP3 SWAP1 SWAP2 PUSH3 0x1473 SWAP1 DUP5 SWAP1 PUSH3 0x46A6 JUMP JUMPDEST SWAP1 SWAP2 SSTORE POP POP PUSH1 0x1 PUSH1 0x1 PUSH1 0xA0 SHL SUB DUP3 AND PUSH1 0x0 DUP2 DUP2 MSTORE PUSH1 0x17 PUSH1 0x20 SWAP1 DUP2 MSTORE PUSH1 0x40 DUP1 DUP4 KECCAK256 DUP1 SLOAD PUSH1 0x1 DUP2 ADD DUP3 SSTORE SWAP1 DUP5 MSTORE DUP3 DUP5 KECCAK256 ADD DUP6 SWAP1 SSTORE SWAP3 DUP3 MSTORE PUSH1 0x18 SWAP1 MSTORE SWAP1 DUP2 KECCAK256 DUP1 SLOAD SWAP2 PUSH3 0x14BD DUP4 PUSH3 0x4688 JUMP JUMPDEST SWAP1 SWAP2 SSTORE POP POP PUSH1 0x8 DUP1 SLOAD SWAP1 PUSH1 0x0 PUSH3 0x14D4 DUP4 PUSH3 0x4688 JUMP JUMPDEST SWAP1 SWAP2 SSTORE POP POP PUSH1 0x0 DUP2 DUP2 MSTORE PUSH1 0x4 PUSH1 0x20 SWAP1 DUP2 MSTORE PUSH1 0x40 DUP1 DUP4 KECCAK256 PUSH1 0x1 DUP2 ADD SLOAD PUSH1 0x2 SWAP1 SWAP2 ADD SLOAD PUSH1 0x1 PUSH1 0x1 PUSH1 0xA0 SHL SUB AND DUP5 MSTORE PUSH1 0x12 SWAP1 SWAP3 MSTORE DUP3 KECCAK256 DUP1 SLOAD SWAP2 SWAP3 SWAP1 SWAP2 PUSH3 0x151A SWAP1 DUP5 SWAP1 PUSH3 0x46A6 JUMP JUMPDEST SWAP1 SWAP2 SSTORE POP POP PUSH1 0x0 DUP2 DUP2 MSTORE PUSH1 0x4 PUSH1 0x20 MSTORE PUSH1 0x40 DUP2 KECCAK256 PUSH1 0x1 ADD SLOAD PUSH1 0xA DUP1 SLOAD SWAP2 SWAP3 SWAP1 SWAP2 PUSH3 0x1546 SWAP1 DUP5 SWAP1 PUSH3 0x46A6 JUMP JUMPDEST SWAP1 SWAP2 SSTORE POP POP PUSH1 0x0 DUP2 DUP2 MSTORE PUSH1 0x4 PUSH1 0x20 DUP2 SWAP1 MSTORE PUSH1 0x40 SWAP2 DUP3 SWAP1 KECCAK256 PUSH1 0x3 DUP2 ADD DUP1 SLOAD PUSH1 0x1 PUSH1 0x1 PUSH1 0xA0 SHL SUB NOT AND PUSH1 0x1 PUSH1 0x1 PUSH1 0xA0 SHL SUB DUP8 AND OR SWAP1 SSTORE NUMBER PUSH1 0x5 SWAP1 SWAP2 ADD SSTORE SWAP1 MLOAD PUSH4 0x9F75F0A3 PUSH1 0xE0 SHL DUP2 MSTORE PUSH20 0x0 SWAP2 PUSH4 0x9F75F0A3 SWAP2 PUSH3 0x15BA SWAP2 PUSH1 0x14 SWAP2 DUP8 SWAP2 ADD PUSH3 0x45C0 JUMP JUMPDEST PUSH1 0x0 PUSH1 0x40 MLOAD DUP1 DUP4 SUB DUP2 DUP7 DUP1 EXTCODESIZE ISZERO DUP1 ISZERO PUSH3 0x15D3 JUMPI PUSH1 0x0 DUP1 REVERT JUMPDEST POP GAS DELEGATECALL ISZERO DUP1 ISZERO PUSH3 0x15E8 JUMPI RETURNDATASIZE PUSH1 0x0 DUP1 RETURNDATACOPY RETURNDATASIZE PUSH1 0x0 REVERT JUMPDEST POP POP PUSH1 0x1 DUP1 SLOAD PUSH1 0x0 DUP6 DUP2 MSTORE PUSH1 0x4 PUSH1 0x20 DUP2 SWAP1 MSTORE PUSH1 0x40 SWAP2 DUP3 SWAP1 KECCAK256 SWAP1 SWAP4 ADD SLOAD SWAP1 MLOAD PUSH4 0xA9059CBB PUSH1 0xE0 SHL DUP2 MSTORE PUSH1 0x1 PUSH1 0x1 PUSH1 0xA0 SHL SUB SWAP1 SWAP3 AND SWAP5 POP PUSH4 0xA9059CBB SWAP4 POP PUSH3 0x1645 SWAP3 DUP8 SWAP3 ADD PUSH1 0x1 PUSH1 0x1 PUSH1 0xA0 SHL SUB SWAP3 SWAP1 SWAP3 AND DUP3 MSTORE PUSH1 0x20 DUP3 ADD MSTORE PUSH1 0x40 ADD SWAP1 JUMP JUMPDEST PUSH1 0x20 PUSH1 0x40 MLOAD DUP1 DUP4 SUB DUP2 PUSH1 0x0 DUP8 GAS CALL ISZERO DUP1 ISZERO PUSH3 0x1665 JUMPI RETURNDATASIZE PUSH1 0x0 DUP1 RETURNDATACOPY RETURNDATASIZE PUSH1 0x0 REVERT JUMPDEST POP POP POP POP PUSH1 0x40 MLOAD RETURNDATASIZE PUSH1 0x1F NOT PUSH1 0x1F DUP3 ADD AND DUP3 ADD DUP1 PUSH1 0x40 MSTORE POP DUP2 ADD SWAP1 PUSH3 0x168B SWAP2 SWAP1 PUSH3 0x45D7 JUMP JUMPDEST POP PUSH1 0x3 SLOAD PUSH1 0x1 PUSH1 0x1 PUSH1 0xA0 SHL SUB DUP4 AND BALANCE SWAP1 DUP2 LT ISZERO PUSH3 0x1740 JUMPI PUSH1 0x0 DUP4 PUSH1 0x1 PUSH1 0x1 PUSH1 0xA0 SHL SUB AND BALANCE PUSH1 0x3 SLOAD PUSH3 0x16BF SWAP2 SWAP1 PUSH3 0x46C1 JUMP JUMPDEST SWAP1 POP DUP1 PUSH1 0xB PUSH1 0x0 DUP3 DUP3 SLOAD PUSH3 0x16D5 SWAP2 SWAP1 PUSH3 0x46A6 JUMP JUMPDEST SWAP1 SWAP2 SSTORE POP POP PUSH1 0x1 PUSH1 0x1 PUSH1 0xA0 SHL SUB DUP5 AND PUSH1 0x0 SWAP1 DUP2 MSTORE PUSH1 0x19 PUSH1 0x20 MSTORE PUSH1 0x40 DUP2 KECCAK256 DUP1 SLOAD DUP4 SWAP3 SWAP1 PUSH3 0x1704 SWAP1 DUP5 SWAP1 PUSH3 0x46A6 JUMP JUMPDEST SWAP1 SWAP2 SSTORE POP POP PUSH1 0x40 MLOAD PUSH1 0x1 PUSH1 0x1 PUSH1 0xA0 SHL SUB DUP6 AND SWAP1 DUP3 ISZERO PUSH2 0x8FC MUL SWAP1 DUP4 SWAP1 PUSH1 0x0 DUP2 DUP2 DUP2 DUP6 DUP9 DUP9 CALL SWAP4 POP POP POP POP ISZERO DUP1 ISZERO PUSH3 0xF1A JUMPI RETURNDATASIZE PUSH1 0x0 DUP1 RETURNDATACOPY RETURNDATASIZE PUSH1 0x0 REVERT JUMPDEST POP POP POP JUMP JUMPDEST PUSH1 0x10 PUSH1 0x20 MSTORE DUP2 PUSH1 0x0 MSTORE PUSH1 0x40 PUSH1 0x0 KECCAK256 DUP2 DUP2 SLOAD DUP2 LT PUSH3 0x1762 JUMPI PUSH1 0x0 DUP1 REVERT JUMPDEST SWAP1 PUSH1 0x0 MSTORE PUSH1 0x20 PUSH1 0x0 KECCAK256 ADD PUSH1 0x0 SWAP2 POP SWAP2 POP POP SLOAD DUP2 JUMP JUMPDEST PUSH1 0x1 SLOAD PUSH1 0x40 DUP1 MLOAD PUSH4 0x313CE567 PUSH1 0xE0 SHL DUP2 MSTORE SWAP1 MLOAD PUSH1 0x0 SWAP3 PUSH1 0x1 PUSH1 0x1 PUSH1 0xA0 SHL SUB AND SWAP2 PUSH4 0x313CE567 SWAP2 PUSH1 0x4 DUP1 DUP4 ADD SWAP3 PUSH1 0x20 SWAP3 SWAP2 SWAP1 DUP3 SWAP1 SUB ADD DUP2 DUP7 GAS STATICCALL ISZERO DUP1 ISZERO PUSH3 0x17C2 JUMPI RETURNDATASIZE PUSH1 0x0 DUP1 RETURNDATACOPY RETURNDATASIZE PUSH1 0x0 REVERT JUMPDEST POP POP POP POP PUSH1 0x40 MLOAD RETURNDATASIZE PUSH1 0x1F NOT PUSH1 0x1F DUP3 ADD AND DUP3 ADD DUP1 PUSH1 0x40 MSTORE POP DUP2 ADD SWAP1 PUSH3 0x17E8 SWAP2 SWAP1 PUSH3 0x46DB JUMP JUMPDEST PUSH1 0xFF AND SWAP1 POP SWAP1 JUMP JUMPDEST PUSH1 0x0 SLOAD PUSH1 0x1 PUSH1 0x1 PUSH1 0xA0 SHL SUB AND CALLER EQ PUSH3 0x181D JUMPI PUSH1 0x40 MLOAD PUSH3 0x461BCD PUSH1 0xE5 SHL DUP2 MSTORE PUSH1 0x4 ADD PUSH3 0xEA7 SWAP1 PUSH3 0x4700 JUMP JUMPDEST DUP1 ISZERO PUSH3 0x1896 JUMPI PUSH1 0x40 MLOAD PUSH4 0x9F75F0A3 PUSH1 0xE0 SHL DUP2 MSTORE PUSH20 0x0 SWAP1 PUSH4 0x9F75F0A3 SWAP1 PUSH3 0x1860 SWAP1 PUSH1 0x21 SWAP1 DUP7 SWAP1 PUSH1 0x4 ADD PUSH3 0x45C0 JUMP JUMPDEST PUSH1 0x0 PUSH1 0x40 MLOAD DUP1 DUP4 SUB DUP2 DUP7 DUP1 EXTCODESIZE ISZERO DUP1 ISZERO PUSH3 0x1879 JUMPI PUSH1 0x0 DUP1 REVERT JUMPDEST POP GAS DELEGATECALL ISZERO DUP1 ISZERO PUSH3 0x188E JUMPI RETURNDATASIZE PUSH1 0x0 DUP1 RETURNDATACOPY RETURNDATASIZE PUSH1 0x0 REVERT JUMPDEST POP POP POP POP POP POP JUMP JUMPDEST PUSH1 0x40 MLOAD PUSH4 0xA8AFEF95 PUSH1 0xE0 SHL DUP2 MSTORE PUSH20 0x0 SWAP1 PUSH4 0xA8AFEF95 SWAP1 PUSH3 0x1860 SWAP1 PUSH1 0x21 SWAP1 DUP7 SWAP1 PUSH1 0x4 ADD PUSH3 0x45C0 JUMP JUMPDEST PUSH1 0x1 PUSH1 0x1 PUSH1 0xA0 SHL SUB DUP2 AND PUSH1 0x0 SWAP1 DUP2 MSTORE PUSH1 0x5 PUSH1 0x20 MSTORE PUSH1 0x40 DUP2 KECCAK256 SLOAD ISZERO PUSH3 0x1927 JUMPI PUSH1 0x1 PUSH1 0x1 PUSH1 0xA0 SHL SUB DUP3 AND PUSH1 0x0 SWAP1 DUP2 MSTORE PUSH1 0x5 PUSH1 0x20 DUP2 DUP2 MSTORE PUSH1 0x40 DUP1 DUP5 KECCAK256 SLOAD DUP5 MSTORE PUSH1 0x4 SWAP1 SWAP2 MSTORE SWAP1 SWAP2 KECCAK256 ADD SLOAD ISZERO PUSH3 0x1927 JUMPI PUSH1 0x1 PUSH3 0x1266 JUMP JUMPDEST PUSH1 0x0 SWAP3 SWAP2 POP POP JUMP JUMPDEST PUSH1 0x40 MLOAD PUSH4 0x17E26BC9 PUSH1 0xE1 SHL DUP2 MSTORE PUSH20 0x0 SWAP1 PUSH4 0x2FC4D792 SWAP1 PUSH3 0x196B SWAP1 PUSH1 0x21 SWAP1 CALLER SWAP1 PUSH1 0x4 ADD PUSH3 0x45C0 JUMP JUMPDEST PUSH1 0x20 PUSH1 0x40 MLOAD DUP1 DUP4 SUB DUP2 DUP7 GAS DELEGATECALL ISZERO DUP1 ISZERO PUSH3 0x1989 JUMPI RETURNDATASIZE PUSH1 0x0 DUP1 RETURNDATACOPY RETURNDATASIZE PUSH1 0x0 REVERT JUMPDEST POP POP POP POP PUSH1 0x40 MLOAD RETURNDATASIZE PUSH1 0x1F NOT PUSH1 0x1F DUP3 ADD AND DUP3 ADD DUP1 PUSH1 0x40 MSTORE POP DUP2 ADD SWAP1 PUSH3 0x19AF SWAP2 SWAP1 PUSH3 0x45D7 JUMP JUMPDEST ISZERO ISZERO PUSH1 0x1 EQ PUSH3 0x19D3 JUMPI PUSH1 0x40 MLOAD PUSH3 0x461BCD PUSH1 0xE5 SHL DUP2 MSTORE PUSH1 0x4 ADD PUSH3 0xEA7 SWAP1 PUSH3 0x45F7 JUMP JUMPDEST PUSH1 0x1 PUSH1 0x1 PUSH1 0xA0 SHL SUB DUP3 AND PUSH1 0x0 SWAP1 DUP2 MSTORE PUSH1 0x13 PUSH1 0x20 MSTORE PUSH1 0x40 SWAP1 KECCAK256 SLOAD PUSH3 0x19F9 SWAP1 DUP3 SWAP1 PUSH3 0x46A6 JUMP JUMPDEST PUSH1 0x1 PUSH1 0x1 PUSH1 0xA0 SHL SUB SWAP1 SWAP3 AND PUSH1 0x0 SWAP1 DUP2 MSTORE PUSH1 0x13 PUSH1 0x20 MSTORE PUSH1 0x40 SWAP1 KECCAK256 SWAP2 SWAP1 SWAP2 SSTORE POP JUMP JUMPDEST PUSH1 0x40 MLOAD PUSH4 0xC3D3C75 PUSH1 0xE4 SHL DUP2 MSTORE PUSH1 0x14 PUSH1 0x4 DUP3 ADD MSTORE PUSH1 0x0 SWAP1 PUSH20 0x0 SWAP1 PUSH4 0xC3D3C750 SWAP1 PUSH1 0x24 ADD JUMPDEST PUSH1 0x20 PUSH1 0x40 MLOAD DUP1 DUP4 SUB DUP2 DUP7 GAS DELEGATECALL ISZERO DUP1 ISZERO PUSH3 0x1A6E JUMPI RETURNDATASIZE PUSH1 0x0 DUP1 RETURNDATACOPY RETURNDATASIZE PUSH1 0x0 REVERT JUMPDEST POP POP POP POP PUSH1 0x40 MLOAD RETURNDATASIZE PUSH1 0x1F NOT PUSH1 0x1F DUP3 ADD AND DUP3 ADD DUP1 PUSH1 0x40 MSTORE POP DUP2 ADD SWAP1 PUSH3 0x1A94 SWAP2 SWAP1 PUSH3 0x4622 JUMP JUMPDEST SWAP1 POP SWAP1 JUMP JUMPDEST PUSH1 0x40 MLOAD PUSH4 0x11C9AF77 PUSH1 0xE1 SHL DUP2 MSTORE PUSH1 0x14 PUSH1 0x4 DUP3 ADD MSTORE PUSH1 0x24 DUP2 ADD DUP4 SWAP1 MSTORE PUSH1 0x44 DUP2 ADD DUP3 SWAP1 MSTORE PUSH1 0x60 SWAP1 PUSH1 0x0 SWAP1 PUSH20 0x0 SWAP1 PUSH4 0x23935EEE SWAP1 PUSH1 0x64 ADD PUSH1 0x0 PUSH1 0x40 MLOAD DUP1 DUP4 SUB DUP2 DUP7 GAS DELEGATECALL ISZERO DUP1 ISZERO PUSH3 0x1AFE JUMPI RETURNDATASIZE PUSH1 0x0 DUP1 RETURNDATACOPY RETURNDATASIZE PUSH1 0x0 REVERT JUMPDEST POP POP POP POP PUSH1 0x40 MLOAD RETURNDATASIZE PUSH1 0x0 DUP3 RETURNDATACOPY PUSH1 0x1F RETURNDATASIZE SWAP1 DUP2 ADD PUSH1 0x1F NOT AND DUP3 ADD PUSH1 0x40 MSTORE PUSH3 0x1B28 SWAP2 SWAP1 DUP2 ADD SWAP1 PUSH3 0x4728 JUMP JUMPDEST SWAP1 POP PUSH1 0x0 DUP2 MLOAD PUSH8 0xFFFFFFFFFFFFFFFF DUP2 GT ISZERO PUSH3 0x1B49 JUMPI PUSH3 0x1B49 PUSH3 0x416F JUMP JUMPDEST PUSH1 0x40 MLOAD SWAP1 DUP1 DUP3 MSTORE DUP1 PUSH1 0x20 MUL PUSH1 0x20 ADD DUP3 ADD PUSH1 0x40 MSTORE DUP1 ISZERO PUSH3 0x1B86 JUMPI DUP2 PUSH1 0x20 ADD JUMPDEST PUSH3 0x1B72 PUSH3 0x3CEC JUMP JUMPDEST DUP2 MSTORE PUSH1 0x20 ADD SWAP1 PUSH1 0x1 SWAP1 SUB SWAP1 DUP2 PUSH3 0x1B68 JUMPI SWAP1 POP JUMPDEST POP SWAP1 POP PUSH1 0x0 JUMPDEST DUP3 MLOAD DUP2 LT ISZERO PUSH3 0x1BF3 JUMPI PUSH3 0x1BBD DUP4 DUP3 DUP2 MLOAD DUP2 LT PUSH3 0x1BAF JUMPI PUSH3 0x1BAF PUSH3 0x465C JUMP JUMPDEST PUSH1 0x20 MUL PUSH1 0x20 ADD ADD MLOAD PUSH3 0x2DA2 JUMP JUMPDEST DUP3 DUP3 DUP2 MLOAD DUP2 LT PUSH3 0x1BD2 JUMPI PUSH3 0x1BD2 PUSH3 0x465C JUMP JUMPDEST PUSH1 0x20 MUL PUSH1 0x20 ADD ADD DUP2 SWAP1 MSTORE POP DUP1 DUP1 PUSH3 0x1BEA SWAP1 PUSH3 0x4688 JUMP JUMPDEST SWAP2 POP POP PUSH3 0x1B8C JUMP JUMPDEST POP SWAP5 SWAP4 POP POP POP POP JUMP JUMPDEST PUSH1 0x40 MLOAD PUSH4 0x17E26BC9 PUSH1 0xE1 SHL DUP2 MSTORE PUSH20 0x0 SWAP1 PUSH4 0x2FC4D792 SWAP1 PUSH3 0x1C38 SWAP1 PUSH1 0x21 SWAP1 CALLER SWAP1 PUSH1 0x4 ADD PUSH3 0x45C0 JUMP JUMPDEST PUSH1 0x20 PUSH1 0x40 MLOAD DUP1 DUP4 SUB DUP2 DUP7 GAS DELEGATECALL ISZERO DUP1 ISZERO PUSH3 0x1C56 JUMPI RETURNDATASIZE PUSH1 0x0 DUP1 RETURNDATACOPY RETURNDATASIZE PUSH1 0x0 REVERT JUMPDEST POP POP POP POP PUSH1 0x40 MLOAD RETURNDATASIZE PUSH1 0x1F NOT PUSH1 0x1F DUP3 ADD AND DUP3 ADD DUP1 PUSH1 0x40 MSTORE POP DUP2 ADD SWAP1 PUSH3 0x1C7C SWAP2 SWAP1 PUSH3 0x45D7 JUMP JUMPDEST ISZERO ISZERO PUSH1 0x1 EQ PUSH3 0x1CA0 JUMPI PUSH1 0x40 MLOAD PUSH3 0x461BCD PUSH1 0xE5 SHL DUP2 MSTORE PUSH1 0x4 ADD PUSH3 0xEA7 SWAP1 PUSH3 0x45F7 JUMP JUMPDEST PUSH1 0x40 MLOAD PUSH4 0x9F75F0A3 PUSH1 0xE0 SHL DUP2 MSTORE PUSH20 0x0 SWAP1 PUSH4 0x9F75F0A3 SWAP1 PUSH3 0x1CDC SWAP1 PUSH1 0xC SWAP1 DUP7 SWAP1 PUSH1 0x4 ADD PUSH3 0x45C0 JUMP JUMPDEST PUSH1 0x0 PUSH1 0x40 MLOAD DUP1 DUP4 SUB DUP2 DUP7 DUP1 EXTCODESIZE ISZERO DUP1 ISZERO PUSH3 0x1CF5 JUMPI PUSH1 0x0 DUP1 REVERT JUMPDEST POP GAS DELEGATECALL ISZERO DUP1 ISZERO PUSH3 0x1D0A JUMPI RETURNDATASIZE PUSH1 0x0 DUP1 RETURNDATACOPY RETURNDATASIZE PUSH1 0x0 REVERT JUMPDEST POP POP POP POP PUSH1 0x1 PUSH1 0x1 PUSH1 0xA0 SHL SUB DUP3 AND PUSH1 0x0 SWAP1 DUP2 MSTORE PUSH1 0xE PUSH1 0x20 SWAP1 DUP2 MSTORE PUSH1 0x40 SWAP1 SWAP2 KECCAK256 DUP3 MLOAD PUSH3 0x1740 SWAP3 DUP5 ADD SWAP1 PUSH3 0x3D2D JUMP JUMPDEST PUSH1 0x17 PUSH1 0x20 MSTORE DUP2 PUSH1 0x0 MSTORE PUSH1 0x40 PUSH1 0x0 KECCAK256 DUP2 DUP2 SLOAD DUP2 LT PUSH3 0x1762 JUMPI PUSH1 0x0 DUP1 REVERT JUMPDEST PUSH1 0x1 PUSH1 0x1 PUSH1 0xA0 SHL SUB DUP4 AND PUSH1 0x0 SWAP1 DUP2 MSTORE PUSH1 0x17 PUSH1 0x20 MSTORE PUSH1 0x40 SWAP1 KECCAK256 SLOAD PUSH1 0x60 SWAP1 DUP3 ISZERO PUSH3 0x1D7C JUMPI POP DUP2 JUMPDEST PUSH1 0x0 PUSH3 0x1D8A DUP3 DUP7 PUSH3 0x46A6 JUMP JUMPDEST PUSH1 0x1 PUSH1 0x1 PUSH1 0xA0 SHL SUB DUP8 AND PUSH1 0x0 SWAP1 DUP2 MSTORE PUSH1 0x17 PUSH1 0x20 MSTORE PUSH1 0x40 SWAP1 KECCAK256 SLOAD SWAP1 SWAP2 POP DUP2 GT ISZERO PUSH3 0x1DC9 JUMPI POP PUSH1 0x1 PUSH1 0x1 PUSH1 0xA0 SHL SUB DUP6 AND PUSH1 0x0 SWAP1 DUP2 MSTORE PUSH1 0x17 PUSH1 0x20 MSTORE PUSH1 0x40 SWAP1 KECCAK256 SLOAD JUMPDEST PUSH1 0x0 PUSH3 0x1DD7 DUP7 DUP4 PUSH3 0x46C1 JUMP JUMPDEST PUSH8 0xFFFFFFFFFFFFFFFF DUP2 GT ISZERO PUSH3 0x1DF2 JUMPI PUSH3 0x1DF2 PUSH3 0x416F JUMP JUMPDEST PUSH1 0x40 MLOAD SWAP1 DUP1 DUP3 MSTORE DUP1 PUSH1 0x20 MUL PUSH1 0x20 ADD DUP3 ADD PUSH1 0x40 MSTORE DUP1 ISZERO PUSH3 0x1E2F JUMPI DUP2 PUSH1 0x20 ADD JUMPDEST PUSH3 0x1E1B PUSH3 0x3DBC JUMP JUMPDEST DUP2 MSTORE PUSH1 0x20 ADD SWAP1 PUSH1 0x1 SWAP1 SUB SWAP1 DUP2 PUSH3 0x1E11 JUMPI SWAP1 POP JUMPDEST POP SWAP1 POP PUSH1 0x0 JUMPDEST PUSH3 0x1E41 DUP8 DUP5 PUSH3 0x46C1 JUMP JUMPDEST DUP2 LT ISZERO PUSH3 0x2000 JUMPI PUSH1 0x1 PUSH1 0x1 PUSH1 0xA0 SHL SUB DUP9 AND PUSH1 0x0 SWAP1 DUP2 MSTORE PUSH1 0x17 PUSH1 0x20 MSTORE PUSH1 0x40 DUP2 KECCAK256 DUP1 SLOAD PUSH1 0x4 SWAP3 SWAP2 SWAP1 PUSH1 0x1 SWAP1 DUP12 SWAP1 PUSH3 0x1E7A SWAP1 DUP8 SWAP1 PUSH3 0x46C1 JUMP JUMPDEST PUSH3 0x1E86 SWAP2 SWAP1 PUSH3 0x46C1 JUMP JUMPDEST PUSH3 0x1E92 SWAP2 SWAP1 PUSH3 0x46C1 JUMP JUMPDEST DUP2 SLOAD DUP2 LT PUSH3 0x1EA5 JUMPI PUSH3 0x1EA5 PUSH3 0x465C JUMP JUMPDEST PUSH1 0x0 SWAP2 DUP3 MSTORE PUSH1 0x20 DUP1 DUP4 KECCAK256 SWAP1 SWAP2 ADD SLOAD DUP4 MSTORE DUP3 DUP2 ADD SWAP4 SWAP1 SWAP4 MSTORE PUSH1 0x40 SWAP2 DUP3 ADD SWAP1 KECCAK256 DUP2 MLOAD PUSH2 0x120 DUP2 ADD DUP4 MSTORE DUP2 SLOAD DUP2 MSTORE PUSH1 0x1 DUP3 ADD SLOAD SWAP4 DUP2 ADD SWAP4 SWAP1 SWAP4 MSTORE PUSH1 0x2 DUP2 ADD SLOAD PUSH1 0x1 PUSH1 0x1 PUSH1 0xA0 SHL SUB SWAP1 DUP2 AND SWAP3 DUP5 ADD SWAP3 SWAP1 SWAP3 MSTORE PUSH1 0x3 DUP2 ADD SLOAD DUP3 AND PUSH1 0x60 DUP5 ADD MSTORE PUSH1 0x4 DUP2 ADD SLOAD PUSH1 0x80 DUP5 ADD MSTORE PUSH1 0x5 DUP2 ADD SLOAD PUSH1 0xA0 DUP5 ADD MSTORE PUSH1 0x6 DUP2 ADD SLOAD PUSH1 0xC0 DUP5 ADD MSTORE PUSH1 0x7 DUP2 ADD SLOAD SWAP1 SWAP2 AND PUSH1 0xE0 DUP4 ADD MSTORE PUSH1 0x8 DUP2 ADD DUP1 SLOAD PUSH2 0x100 DUP5 ADD SWAP2 SWAP1 PUSH3 0x1F42 SWAP1 PUSH3 0x47E7 JUMP JUMPDEST DUP1 PUSH1 0x1F ADD PUSH1 0x20 DUP1 SWAP2 DIV MUL PUSH1 0x20 ADD PUSH1 0x40 MLOAD SWAP1 DUP2 ADD PUSH1 0x40 MSTORE DUP1 SWAP3 SWAP2 SWAP1 DUP2 DUP2 MSTORE PUSH1 0x20 ADD DUP3 DUP1 SLOAD PUSH3 0x1F70 SWAP1 PUSH3 0x47E7 JUMP JUMPDEST DUP1 ISZERO PUSH3 0x1FC1 JUMPI DUP1 PUSH1 0x1F LT PUSH3 0x1F95 JUMPI PUSH2 0x100 DUP1 DUP4 SLOAD DIV MUL DUP4 MSTORE SWAP2 PUSH1 0x20 ADD SWAP2 PUSH3 0x1FC1 JUMP JUMPDEST DUP3 ADD SWAP2 SWAP1 PUSH1 0x0 MSTORE PUSH1 0x20 PUSH1 0x0 KECCAK256 SWAP1 JUMPDEST DUP2 SLOAD DUP2 MSTORE SWAP1 PUSH1 0x1 ADD SWAP1 PUSH1 0x20 ADD DUP1 DUP4 GT PUSH3 0x1FA3 JUMPI DUP3 SWAP1 SUB PUSH1 0x1F AND DUP3 ADD SWAP2 JUMPDEST POP POP POP POP POP DUP2 MSTORE POP POP DUP3 DUP3 DUP2 MLOAD DUP2 LT PUSH3 0x1FDF JUMPI PUSH3 0x1FDF PUSH3 0x465C JUMP JUMPDEST PUSH1 0x20 MUL PUSH1 0x20 ADD ADD DUP2 SWAP1 MSTORE POP DUP1 DUP1 PUSH3 0x1FF7 SWAP1 PUSH3 0x4688 JUMP JUMPDEST SWAP2 POP POP PUSH3 0x1E35 JUMP JUMPDEST POP SWAP7 SWAP6 POP POP POP POP POP POP JUMP JUMPDEST PUSH1 0x60 PUSH1 0x0 PUSH1 0x7 SLOAD PUSH8 0xFFFFFFFFFFFFFFFF DUP2 GT ISZERO PUSH3 0x202D JUMPI PUSH3 0x202D PUSH3 0x416F JUMP JUMPDEST PUSH1 0x40 MLOAD SWAP1 DUP1 DUP3 MSTORE DUP1 PUSH1 0x20 MUL PUSH1 0x20 ADD DUP3 ADD PUSH1 0x40 MSTORE DUP1 ISZERO PUSH3 0x206A JUMPI DUP2 PUSH1 0x20 ADD JUMPDEST PUSH3 0x2056 PUSH3 0x3DBC JUMP JUMPDEST DUP2 MSTORE PUSH1 0x20 ADD SWAP1 PUSH1 0x1 SWAP1 SUB SWAP1 DUP2 PUSH3 0x204C JUMPI SWAP1 POP JUMPDEST POP SWAP1 POP PUSH1 0x1 JUMPDEST PUSH1 0x6 SLOAD DUP2 GT PUSH3 0x11DD JUMPI PUSH1 0x0 DUP2 DUP2 MSTORE PUSH1 0x4 PUSH1 0x20 DUP2 DUP2 MSTORE PUSH1 0x40 SWAP3 DUP4 SWAP1 KECCAK256 DUP4 MLOAD PUSH2 0x120 DUP2 ADD DUP6 MSTORE DUP2 SLOAD DUP2 MSTORE PUSH1 0x1 DUP3 ADD SLOAD SWAP3 DUP2 ADD SWAP3 SWAP1 SWAP3 MSTORE PUSH1 0x2 DUP2 ADD SLOAD PUSH1 0x1 PUSH1 0x1 PUSH1 0xA0 SHL SUB SWAP1 DUP2 AND SWAP5 DUP4 ADD SWAP5 SWAP1 SWAP5 MSTORE PUSH1 0x3 DUP2 ADD SLOAD DUP5 AND PUSH1 0x60 DUP4 ADD MSTORE SWAP2 DUP3 ADD SLOAD PUSH1 0x80 DUP3 ADD MSTORE PUSH1 0x5 DUP3 ADD SLOAD PUSH1 0xA0 DUP3 ADD MSTORE PUSH1 0x6 DUP3 ADD SLOAD PUSH1 0xC0 DUP3 ADD MSTORE PUSH1 0x7 DUP3 ADD SLOAD SWAP1 SWAP3 AND PUSH1 0xE0 DUP4 ADD MSTORE PUSH1 0x8 DUP2 ADD DUP1 SLOAD PUSH2 0x100 DUP5 ADD SWAP2 SWAP1 PUSH3 0x210A SWAP1 PUSH3 0x47E7 JUMP JUMPDEST DUP1 PUSH1 0x1F ADD PUSH1 0x20 DUP1 SWAP2 DIV MUL PUSH1 0x20 ADD PUSH1 0x40 MLOAD SWAP1 DUP2 ADD PUSH1 0x40 MSTORE DUP1 SWAP3 SWAP2 SWAP1 DUP2 DUP2 MSTORE PUSH1 0x20 ADD DUP3 DUP1 SLOAD PUSH3 0x2138 SWAP1 PUSH3 0x47E7 JUMP JUMPDEST DUP1 ISZERO PUSH3 0x2189 JUMPI DUP1 PUSH1 0x1F LT PUSH3 0x215D JUMPI PUSH2 0x100 DUP1 DUP4 SLOAD DIV MUL DUP4 MSTORE SWAP2 PUSH1 0x20 ADD SWAP2 PUSH3 0x2189 JUMP JUMPDEST DUP3 ADD SWAP2 SWAP1 PUSH1 0x0 MSTORE PUSH1 0x20 PUSH1 0x0 KECCAK256 SWAP1 JUMPDEST DUP2 SLOAD DUP2 MSTORE SWAP1 PUSH1 0x1 ADD SWAP1 PUSH1 0x20 ADD DUP1 DUP4 GT PUSH3 0x216B JUMPI DUP3 SWAP1 SUB PUSH1 0x1F AND DUP3 ADD SWAP2 JUMPDEST POP POP POP POP POP DUP2 MSTORE POP POP DUP3 PUSH1 0x1 DUP4 PUSH3 0x21A2 SWAP2 SWAP1 PUSH3 0x46C1 JUMP JUMPDEST DUP2 MLOAD DUP2 LT PUSH3 0x21B5 JUMPI PUSH3 0x21B5 PUSH3 0x465C JUMP JUMPDEST PUSH1 0x20 MUL PUSH1 0x20 ADD ADD DUP2 SWAP1 MSTORE POP DUP1 DUP1 PUSH3 0x21CD SWAP1 PUSH3 0x4688 JUMP JUMPDEST SWAP2 POP POP PUSH3 0x2070 JUMP JUMPDEST PUSH1 0x40 MLOAD PUSH4 0x17E26BC9 PUSH1 0xE1 SHL DUP2 MSTORE PUSH20 0x0 SWAP1 PUSH4 0x2FC4D792 SWAP1 PUSH3 0x2212 SWAP1 PUSH1 0x21 SWAP1 CALLER SWAP1 PUSH1 0x4 ADD PUSH3 0x45C0 JUMP JUMPDEST PUSH1 0x20 PUSH1 0x40 MLOAD DUP1 DUP4 SUB DUP2 DUP7 GAS DELEGATECALL ISZERO DUP1 ISZERO PUSH3 0x2230 JUMPI RETURNDATASIZE PUSH1 0x0 DUP1 RETURNDATACOPY RETURNDATASIZE PUSH1 0x0 REVERT JUMPDEST POP POP POP POP PUSH1 0x40 MLOAD RETURNDATASIZE PUSH1 0x1F NOT PUSH1 0x1F DUP3 ADD AND DUP3 ADD DUP1 PUSH1 0x40 MSTORE POP DUP2 ADD SWAP1 PUSH3 0x2256 SWAP2 SWAP1 PUSH3 0x45D7 JUMP JUMPDEST ISZERO ISZERO PUSH1 0x1 EQ PUSH3 0x227A JUMPI PUSH1 0x40 MLOAD PUSH3 0x461BCD PUSH1 0xE5 SHL DUP2 MSTORE PUSH1 0x4 ADD PUSH3 0xEA7 SWAP1 PUSH3 0x45F7 JUMP JUMPDEST PUSH1 0x1 PUSH1 0x1 PUSH1 0xA0 SHL SUB SWAP1 SWAP2 AND PUSH1 0x0 SWAP1 DUP2 MSTORE PUSH1 0x1B PUSH1 0x20 MSTORE PUSH1 0x40 SWAP1 KECCAK256 SSTORE JUMP JUMPDEST PUSH1 0x40 MLOAD PUSH4 0x11C9AF77 PUSH1 0xE1 SHL DUP2 MSTORE PUSH1 0x1C PUSH1 0x4 DUP3 ADD MSTORE PUSH1 0x24 DUP2 ADD DUP4 SWAP1 MSTORE PUSH1 0x44 DUP2 ADD DUP3 SWAP1 MSTORE PUSH1 0x60 SWAP1 PUSH1 0x0 SWAP1 PUSH20 0x0 SWAP1 PUSH4 0x23935EEE SWAP1 PUSH1 0x64 ADD PUSH1 0x0 PUSH1 0x40 MLOAD DUP1 DUP4 SUB DUP2 DUP7 GAS DELEGATECALL ISZERO DUP1 ISZERO PUSH3 0x22FB JUMPI RETURNDATASIZE PUSH1 0x0 DUP1 RETURNDATACOPY RETURNDATASIZE PUSH1 0x0 REVERT JUMPDEST POP POP POP POP PUSH1 0x40 MLOAD RETURNDATASIZE PUSH1 0x0 DUP3 RETURNDATACOPY PUSH1 0x1F RETURNDATASIZE SWAP1 DUP2 ADD PUSH1 0x1F NOT AND DUP3 ADD PUSH1 0x40 MSTORE PUSH3 0x2325 SWAP2 SWAP1 DUP2 ADD SWAP1 PUSH3 0x4728 JUMP JUMPDEST SWAP1 POP PUSH1 0x0 DUP2 MLOAD PUSH8 0xFFFFFFFFFFFFFFFF DUP2 GT ISZERO PUSH3 0x2346 JUMPI PUSH3 0x2346 PUSH3 0x416F JUMP JUMPDEST PUSH1 0x40 MLOAD SWAP1 DUP1 DUP3 MSTORE DUP1 PUSH1 0x20 MUL PUSH1 0x20 ADD DUP3 ADD PUSH1 0x40 MSTORE DUP1 ISZERO PUSH3 0x23B7 JUMPI DUP2 PUSH1 0x20 ADD JUMPDEST PUSH3 0x23A3 PUSH1 0x40 MLOAD DUP1 PUSH1 0x80 ADD PUSH1 0x40 MSTORE DUP1 PUSH1 0x0 PUSH1 0x1 PUSH1 0x1 PUSH1 0xA0 SHL SUB AND DUP2 MSTORE PUSH1 0x20 ADD PUSH1 0x0 PUSH1 0x1 PUSH1 0x1 PUSH1 0xA0 SHL SUB AND DUP2 MSTORE PUSH1 0x20 ADD PUSH1 0x60 DUP2 MSTORE PUSH1 0x20 ADD PUSH1 0x0 DUP2 MSTORE POP SWAP1 JUMP JUMPDEST DUP2 MSTORE PUSH1 0x20 ADD SWAP1 PUSH1 0x1 SWAP1 SUB SWAP1 DUP2 PUSH3 0x2365 JUMPI SWAP1 POP JUMPDEST POP SWAP1 POP PUSH1 0x0 JUMPDEST DUP3 MLOAD DUP2 LT ISZERO PUSH3 0x1BF3 JUMPI PUSH1 0x40 MLOAD DUP1 PUSH1 0x80 ADD PUSH1 0x40 MSTORE DUP1 DUP5 DUP4 DUP2 MLOAD DUP2 LT PUSH3 0x23E7 JUMPI PUSH3 0x23E7 PUSH3 0x465C JUMP JUMPDEST PUSH1 0x20 MUL PUSH1 0x20 ADD ADD MLOAD PUSH1 0x1 PUSH1 0x1 PUSH1 0xA0 SHL SUB AND DUP2 MSTORE PUSH1 0x20 ADD PUSH1 0x1E PUSH1 0x0 DUP7 DUP6 DUP2 MLOAD DUP2 LT PUSH3 0x2416 JUMPI PUSH3 0x2416 PUSH3 0x465C JUMP JUMPDEST PUSH1 0x20 MUL PUSH1 0x20 ADD ADD MLOAD PUSH1 0x1 PUSH1 0x1 PUSH1 0xA0 SHL SUB AND PUSH1 0x1 PUSH1 0x1 PUSH1 0xA0 SHL SUB AND DUP2 MSTORE PUSH1 0x20 ADD SWAP1 DUP2 MSTORE PUSH1 0x20 ADD PUSH1 0x0 KECCAK256 PUSH1 0x0 SWAP1 SLOAD SWAP1 PUSH2 0x100 EXP SWAP1 DIV PUSH1 0x1 PUSH1 0x1 PUSH1 0xA0 SHL SUB AND PUSH1 0x1 PUSH1 0x1 PUSH1 0xA0 SHL SUB AND DUP2 MSTORE PUSH1 0x20 ADD PUSH1 0x1F PUSH1 0x0 DUP7 DUP6 DUP2 MLOAD DUP2 LT PUSH3 0x2479 JUMPI PUSH3 0x2479 PUSH3 0x465C JUMP JUMPDEST PUSH1 0x20 MUL PUSH1 0x20 ADD ADD MLOAD PUSH1 0x1 PUSH1 0x1 PUSH1 0xA0 SHL SUB AND PUSH1 0x1 PUSH1 0x1 PUSH1 0xA0 SHL SUB AND DUP2 MSTORE PUSH1 0x20 ADD SWAP1 DUP2 MSTORE PUSH1 0x20 ADD PUSH1 0x0 KECCAK256 DUP1 SLOAD PUSH3 0x24AE SWAP1 PUSH3 0x47E7 JUMP JUMPDEST DUP1 PUSH1 0x1F ADD PUSH1 0x20 DUP1 SWAP2 DIV MUL PUSH1 0x20 ADD PUSH1 0x40 MLOAD SWAP1 DUP2 ADD PUSH1 0x40 MSTORE DUP1 SWAP3 SWAP2 SWAP1 DUP2 DUP2 MSTORE PUSH1 0x20 ADD DUP3 DUP1 SLOAD PUSH3 0x24DC SWAP1 PUSH3 0x47E7 JUMP JUMPDEST DUP1 ISZERO PUSH3 0x252D JUMPI DUP1 PUSH1 0x1F LT PUSH3 0x2501 JUMPI PUSH2 0x100 DUP1 DUP4 SLOAD DIV MUL DUP4 MSTORE SWAP2 PUSH1 0x20 ADD SWAP2 PUSH3 0x252D JUMP JUMPDEST DUP3 ADD SWAP2 SWAP1 PUSH1 0x0 MSTORE PUSH1 0x20 PUSH1 0x0 KECCAK256 SWAP1 JUMPDEST DUP2 SLOAD DUP2 MSTORE SWAP1 PUSH1 0x1 ADD SWAP1 PUSH1 0x20 ADD DUP1 DUP4 GT PUSH3 0x250F JUMPI DUP3 SWAP1 SUB PUSH1 0x1F AND DUP3 ADD SWAP2 JUMPDEST POP POP POP POP POP DUP2 MSTORE PUSH1 0x20 ADD PUSH1 0x20 PUSH1 0x0 DUP7 DUP6 DUP2 MLOAD DUP2 LT PUSH3 0x2550 JUMPI PUSH3 0x2550 PUSH3 0x465C JUMP JUMPDEST PUSH1 0x20 MUL PUSH1 0x20 ADD ADD MLOAD PUSH1 0x1 PUSH1 0x1 PUSH1 0xA0 SHL SUB AND PUSH1 0x1 PUSH1 0x1 PUSH1 0xA0 SHL SUB AND DUP2 MSTORE PUSH1 0x20 ADD SWAP1 DUP2 MSTORE PUSH1 0x20 ADD PUSH1 0x0 KECCAK256 SLOAD DUP2 MSTORE POP DUP3 DUP3 DUP2 MLOAD DUP2 LT PUSH3 0x2591 JUMPI PUSH3 0x2591 PUSH3 0x465C JUMP JUMPDEST PUSH1 0x20 MUL PUSH1 0x20 ADD ADD DUP2 SWAP1 MSTORE POP DUP1 DUP1 PUSH3 0x25A9 SWAP1 PUSH3 0x4688 JUMP JUMPDEST SWAP2 POP POP PUSH3 0x23BD JUMP JUMPDEST PUSH1 0x40 MLOAD PUSH4 0x17E26BC9 PUSH1 0xE1 SHL DUP2 MSTORE PUSH20 0x0 SWAP1 PUSH4 0x2FC4D792 SWAP1 PUSH3 0x25EE SWAP1 PUSH1 0x21 SWAP1 CALLER SWAP1 PUSH1 0x4 ADD PUSH3 0x45C0 JUMP JUMPDEST PUSH1 0x20 PUSH1 0x40 MLOAD DUP1 DUP4 SUB DUP2 DUP7 GAS DELEGATECALL ISZERO DUP1 ISZERO PUSH3 0x260C JUMPI RETURNDATASIZE PUSH1 0x0 DUP1 RETURNDATACOPY RETURNDATASIZE PUSH1 0x0 REVERT JUMPDEST POP POP POP POP PUSH1 0x40 MLOAD RETURNDATASIZE PUSH1 0x1F NOT PUSH1 0x1F DUP3 ADD AND DUP3 ADD DUP1 PUSH1 0x40 MSTORE POP DUP2 ADD SWAP1 PUSH3 0x2632 SWAP2 SWAP1 PUSH3 0x45D7 JUMP JUMPDEST ISZERO ISZERO PUSH1 0x1 EQ PUSH3 0x2656 JUMPI PUSH1 0x40 MLOAD PUSH3 0x461BCD PUSH1 0xE5 SHL DUP2 MSTORE PUSH1 0x4 ADD PUSH3 0xEA7 SWAP1 PUSH3 0x45F7 JUMP JUMPDEST PUSH1 0x1 PUSH1 0x1 PUSH1 0xA0 SHL SUB SWAP1 SWAP2 AND PUSH1 0x0 SWAP1 DUP2 MSTORE PUSH1 0x13 PUSH1 0x20 MSTORE PUSH1 0x40 SWAP1 KECCAK256 SSTORE JUMP JUMPDEST PUSH1 0x40 MLOAD PUSH4 0xC3D3C75 PUSH1 0xE4 SHL DUP2 MSTORE PUSH1 0x1C PUSH1 0x4 DUP3 ADD MSTORE PUSH1 0x0 SWAP1 PUSH20 0x0 SWAP1 PUSH4 0xC3D3C750 SWAP1 PUSH1 0x24 ADD PUSH3 0x1A50 JUMP JUMPDEST PUSH1 0x40 MLOAD PUSH4 0x17E26BC9 PUSH1 0xE1 SHL DUP2 MSTORE PUSH20 0x0 SWAP1 PUSH4 0x2FC4D792 SWAP1 PUSH3 0x26EA SWAP1 PUSH1 0x21 SWAP1 CALLER SWAP1 PUSH1 0x4 ADD PUSH3 0x45C0 JUMP JUMPDEST PUSH1 0x20 PUSH1 0x40 MLOAD DUP1 DUP4 SUB DUP2 DUP7 GAS DELEGATECALL ISZERO DUP1 ISZERO PUSH3 0x2708 JUMPI RETURNDATASIZE PUSH1 0x0 DUP1 RETURNDATACOPY RETURNDATASIZE PUSH1 0x0 REVERT JUMPDEST POP POP POP POP PUSH1 0x40 MLOAD RETURNDATASIZE PUSH1 0x1F NOT PUSH1 0x1F DUP3 ADD AND DUP3 ADD DUP1 PUSH1 0x40 MSTORE POP DUP2 ADD SWAP1 PUSH3 0x272E SWAP2 SWAP1 PUSH3 0x45D7 JUMP JUMPDEST ISZERO ISZERO PUSH1 0x1 EQ PUSH3 0x2752 JUMPI PUSH1 0x40 MLOAD PUSH3 0x461BCD PUSH1 0xE5 SHL DUP2 MSTORE PUSH1 0x4 ADD PUSH3 0xEA7 SWAP1 PUSH3 0x45F7 JUMP JUMPDEST DUP1 ISZERO PUSH3 0x2795 JUMPI PUSH1 0x40 MLOAD PUSH4 0x9F75F0A3 PUSH1 0xE0 SHL DUP2 MSTORE PUSH20 0x0 SWAP1 PUSH4 0x9F75F0A3 SWAP1 PUSH3 0x1860 SWAP1 PUSH1 0xC SWAP1 DUP7 SWAP1 PUSH1 0x4 ADD PUSH3 0x45C0 JUMP JUMPDEST PUSH1 0x40 MLOAD PUSH4 0xA8AFEF95 PUSH1 0xE0 SHL DUP2 MSTORE PUSH20 0x0 SWAP1 PUSH4 0xA8AFEF95 SWAP1 PUSH3 0x1860 SWAP1 PUSH1 0xC SWAP1 DUP7 SWAP1 PUSH1 0x4 ADD PUSH3 0x45C0 JUMP JUMPDEST PUSH1 0x40 MLOAD PUSH4 0x11C9AF77 PUSH1 0xE1 SHL DUP2 MSTORE PUSH1 0xC PUSH1 0x4 DUP3 ADD MSTORE PUSH1 0x0 PUSH1 0x24 DUP3 ADD DUP2 SWAP1 MSTORE PUSH1 0x44 DUP3 ADD MSTORE PUSH1 0x60 SWAP1 PUSH20 0x0 SWAP1 PUSH4 0x23935EEE SWAP1 PUSH1 0x64 ADD JUMPDEST PUSH1 0x0 PUSH1 0x40 MLOAD DUP1 DUP4 SUB DUP2 DUP7 GAS DELEGATECALL ISZERO DUP1 ISZERO PUSH3 0x2834 JUMPI RETURNDATASIZE PUSH1 0x0 DUP1 RETURNDATACOPY RETURNDATASIZE PUSH1 0x0 REVERT JUMPDEST POP POP POP POP PUSH1 0x40 MLOAD RETURNDATASIZE PUSH1 0x0 DUP3 RETURNDATACOPY PUSH1 0x1F RETURNDATASIZE SWAP1 DUP2 ADD PUSH1 0x1F NOT AND DUP3 ADD PUSH1 0x40 MSTORE PUSH3 0x1A94 SWAP2 SWAP1 DUP2 ADD SWAP1 PUSH3 0x4728 JUMP JUMPDEST PUSH1 0x4 PUSH1 0x20 DUP2 SWAP1 MSTORE PUSH1 0x0 SWAP2 DUP3 MSTORE PUSH1 0x40 SWAP1 SWAP2 KECCAK256 DUP1 SLOAD PUSH1 0x1 DUP3 ADD SLOAD PUSH1 0x2 DUP4 ADD SLOAD PUSH1 0x3 DUP5 ADD SLOAD SWAP5 DUP5 ADD SLOAD PUSH1 0x5 DUP6 ADD SLOAD PUSH1 0x6 DUP7 ADD SLOAD PUSH1 0x7 DUP8 ADD SLOAD PUSH1 0x8 DUP9 ADD DUP1 SLOAD SWAP8 SWAP10 SWAP7 SWAP9 PUSH1 0x1 PUSH1 0x1 PUSH1 0xA0 SHL SUB SWAP7 DUP8 AND SWAP9 SWAP8 DUP8 AND SWAP8 SWAP6 SWAP7 SWAP5 SWAP6 SWAP4 SWAP5 SWAP1 SWAP3 AND SWAP3 PUSH3 0x28C2 SWAP1 PUSH3 0x47E7 JUMP JUMPDEST DUP1 PUSH1 0x1F ADD PUSH1 0x20 DUP1 SWAP2 DIV MUL PUSH1 0x20 ADD PUSH1 0x40 MLOAD SWAP1 DUP2 ADD PUSH1 0x40 MSTORE DUP1 SWAP3 SWAP2 SWAP1 DUP2 DUP2 MSTORE PUSH1 0x20 ADD DUP3 DUP1 SLOAD PUSH3 0x28F0 SWAP1 PUSH3 0x47E7 JUMP JUMPDEST DUP1 ISZERO PUSH3 0x2941 JUMPI DUP1 PUSH1 0x1F LT PUSH3 0x2915 JUMPI PUSH2 0x100 DUP1 DUP4 SLOAD DIV MUL DUP4 MSTORE SWAP2 PUSH1 0x20 ADD SWAP2 PUSH3 0x2941 JUMP JUMPDEST DUP3 ADD SWAP2 SWAP1 PUSH1 0x0 MSTORE PUSH1 0x20 PUSH1 0x0 KECCAK256 SWAP1 JUMPDEST DUP2 SLOAD DUP2 MSTORE SWAP1 PUSH1 0x1 ADD SWAP1 PUSH1 0x20 ADD DUP1 DUP4 GT PUSH3 0x2923 JUMPI DUP3 SWAP1 SUB PUSH1 0x1F AND DUP3 ADD SWAP2 JUMPDEST POP POP POP POP POP SWAP1 POP DUP10 JUMP JUMPDEST PUSH3 0x2955 PUSH3 0x3DBC JUMP JUMPDEST PUSH1 0x0 DUP3 DUP2 MSTORE PUSH1 0x4 PUSH1 0x20 DUP2 DUP2 MSTORE PUSH1 0x40 SWAP3 DUP4 SWAP1 KECCAK256 DUP4 MLOAD PUSH2 0x120 DUP2 ADD DUP6 MSTORE DUP2 SLOAD DUP2 MSTORE PUSH1 0x1 DUP3 ADD SLOAD SWAP3 DUP2 ADD SWAP3 SWAP1 SWAP3 MSTORE PUSH1 0x2 DUP2 ADD SLOAD PUSH1 0x1 PUSH1 0x1 PUSH1 0xA0 SHL SUB SWAP1 DUP2 AND SWAP5 DUP4 ADD SWAP5 SWAP1 SWAP5 MSTORE PUSH1 0x3 DUP2 ADD SLOAD DUP5 AND PUSH1 0x60 DUP4 ADD MSTORE SWAP2 DUP3 ADD SLOAD PUSH1 0x80 DUP3 ADD MSTORE PUSH1 0x5 DUP3 ADD SLOAD PUSH1 0xA0 DUP3 ADD MSTORE PUSH1 0x6 DUP3 ADD SLOAD PUSH1 0xC0 DUP3 ADD MSTORE PUSH1 0x7 DUP3 ADD SLOAD SWAP1 SWAP3 AND PUSH1 0xE0 DUP4 ADD MSTORE PUSH1 0x8 DUP2 ADD DUP1 SLOAD PUSH2 0x100 DUP5 ADD SWAP2 SWAP1 PUSH3 0x29E5 SWAP1 PUSH3 0x47E7 JUMP JUMPDEST DUP1 PUSH1 0x1F ADD PUSH1 0x20 DUP1 SWAP2 DIV MUL PUSH1 0x20 ADD PUSH1 0x40 MLOAD SWAP1 DUP2 ADD PUSH1 0x40 MSTORE DUP1 SWAP3 SWAP2 SWAP1 DUP2 DUP2 MSTORE PUSH1 0x20 ADD DUP3 DUP1 SLOAD PUSH3 0x2A13 SWAP1 PUSH3 0x47E7 JUMP JUMPDEST DUP1 ISZERO PUSH3 0x2A64 JUMPI DUP1 PUSH1 0x1F LT PUSH3 0x2A38 JUMPI PUSH2 0x100 DUP1 DUP4 SLOAD DIV MUL DUP4 MSTORE SWAP2 PUSH1 0x20 ADD SWAP2 PUSH3 0x2A64 JUMP JUMPDEST DUP3 ADD SWAP2 SWAP1 PUSH1 0x0 MSTORE PUSH1 0x20 PUSH1 0x0 KECCAK256 SWAP1 JUMPDEST DUP2 SLOAD DUP2 MSTORE SWAP1 PUSH1 0x1 ADD SWAP1 PUSH1 0x20 ADD DUP1 DUP4 GT PUSH3 0x2A46 JUMPI DUP3 SWAP1 SUB PUSH1 0x1F AND DUP3 ADD SWAP2 JUMPDEST POP POP POP POP POP DUP2 MSTORE POP POP SWAP1 POP SWAP2 SWAP1 POP JUMP JUMPDEST PUSH1 0x40 MLOAD PUSH4 0x17E26BC9 PUSH1 0xE1 SHL DUP2 MSTORE PUSH20 0x0 SWAP1 PUSH4 0x2FC4D792 SWAP1 PUSH3 0x2AB0 SWAP1 PUSH1 0x21 SWAP1 CALLER SWAP1 PUSH1 0x4 ADD PUSH3 0x45C0 JUMP JUMPDEST PUSH1 0x20 PUSH1 0x40 MLOAD DUP1 DUP4 SUB DUP2 DUP7 GAS DELEGATECALL ISZERO DUP1 ISZERO PUSH3 0x2ACE JUMPI RETURNDATASIZE PUSH1 0x0 DUP1 RETURNDATACOPY RETURNDATASIZE PUSH1 0x0 REVERT JUMPDEST POP POP POP POP PUSH1 0x40 MLOAD RETURNDATASIZE PUSH1 0x1F NOT PUSH1 0x1F DUP3 ADD AND DUP3 ADD DUP1 PUSH1 0x40 MSTORE POP DUP2 ADD SWAP1 PUSH3 0x2AF4 SWAP2 SWAP1 PUSH3 0x45D7 JUMP JUMPDEST ISZERO ISZERO PUSH1 0x1 EQ PUSH3 0x2B18 JUMPI PUSH1 0x40 MLOAD PUSH3 0x461BCD PUSH1 0xE5 SHL DUP2 MSTORE PUSH1 0x4 ADD PUSH3 0xEA7 SWAP1 PUSH3 0x45F7 JUMP JUMPDEST PUSH1 0x40 MLOAD PUSH4 0x9F75F0A3 PUSH1 0xE0 SHL DUP2 MSTORE PUSH20 0x0 SWAP1 PUSH4 0x9F75F0A3 SWAP1 PUSH3 0x2B54 SWAP1 PUSH1 0x1C SWAP1 DUP7 SWAP1 PUSH1 0x4 ADD PUSH3 0x45C0 JUMP JUMPDEST PUSH1 0x0 PUSH1 0x40 MLOAD DUP1 DUP4 SUB DUP2 DUP7 DUP1 EXTCODESIZE ISZERO DUP1 ISZERO PUSH3 0x2B6D JUMPI PUSH1 0x0 DUP1 REVERT JUMPDEST POP GAS DELEGATECALL ISZERO DUP1 ISZERO PUSH3 0x2B82 JUMPI RETURNDATASIZE PUSH1 0x0 DUP1 RETURNDATACOPY RETURNDATASIZE PUSH1 0x0 REVERT JUMPDEST POP POP POP PUSH1 0x1 PUSH1 0x1 PUSH1 0xA0 SHL SUB DUP4 AND PUSH1 0x0 SWAP1 DUP2 MSTORE PUSH1 0x1E PUSH1 0x20 SWAP1 DUP2 MSTORE PUSH1 0x40 DUP1 DUP4 KECCAK256 DUP1 SLOAD PUSH1 0x1 PUSH1 0x1 PUSH1 0xA0 SHL SUB NOT AND CALLER OR SWAP1 SSTORE PUSH1 0x1F DUP3 MSTORE SWAP1 SWAP2 KECCAK256 DUP4 MLOAD PUSH3 0x2BCA SWAP4 POP SWAP1 SWAP2 DUP5 ADD SWAP1 PUSH3 0x3D2D JUMP JUMPDEST POP POP PUSH1 0x1 PUSH1 0x1 PUSH1 0xA0 SHL SUB AND PUSH1 0x0 SWAP1 DUP2 MSTORE PUSH1 0x20 DUP1 MSTORE PUSH1 0x40 SWAP1 KECCAK256 TIMESTAMP SWAP1 SSTORE JUMP JUMPDEST PUSH3 0x2BF1 PUSH3 0x3DBC JUMP JUMPDEST PUSH1 0x1 PUSH1 0x1 PUSH1 0xA0 SHL SUB DUP3 AND PUSH1 0x0 SWAP1 DUP2 MSTORE PUSH1 0x5 PUSH1 0x20 MSTORE PUSH1 0x40 SWAP1 KECCAK256 SLOAD ISZERO PUSH3 0x2CAC JUMPI PUSH1 0x1 PUSH1 0x1 PUSH1 0xA0 SHL SUB DUP1 DUP4 AND PUSH1 0x0 SWAP1 DUP2 MSTORE PUSH1 0x5 PUSH1 0x20 DUP2 DUP2 MSTORE PUSH1 0x40 DUP1 DUP5 KECCAK256 SLOAD DUP5 MSTORE PUSH1 0x4 DUP1 DUP4 MSTORE SWAP4 DUP2 SWAP1 KECCAK256 DUP2 MLOAD PUSH2 0x120 DUP2 ADD DUP4 MSTORE DUP2 SLOAD DUP2 MSTORE PUSH1 0x1 DUP3 ADD SLOAD SWAP4 DUP2 ADD SWAP4 SWAP1 SWAP4 MSTORE PUSH1 0x2 DUP2 ADD SLOAD DUP7 AND SWAP2 DUP4 ADD SWAP2 SWAP1 SWAP2 MSTORE PUSH1 0x3 DUP2 ADD SLOAD DUP6 AND PUSH1 0x60 DUP4 ADD MSTORE SWAP3 DUP4 ADD SLOAD PUSH1 0x80 DUP3 ADD MSTORE SWAP1 DUP3 ADD SLOAD PUSH1 0xA0 DUP3 ADD MSTORE PUSH1 0x6 DUP3 ADD SLOAD PUSH1 0xC0 DUP3 ADD MSTORE PUSH1 0x7 DUP3 ADD SLOAD SWAP1 SWAP3 AND PUSH1 0xE0 DUP4 ADD MSTORE PUSH1 0x8 DUP2 ADD DUP1 SLOAD PUSH2 0x100 DUP5 ADD SWAP2 SWAP1 PUSH3 0x29E5 SWAP1 PUSH3 0x47E7 JUMP JUMPDEST SWAP2 SWAP1 POP JUMP JUMPDEST PUSH1 0x0 SLOAD PUSH1 0x1 PUSH1 0x1 PUSH1 0xA0 SHL SUB AND CALLER EQ PUSH3 0x2CDE JUMPI PUSH1 0x40 MLOAD PUSH3 0x461BCD PUSH1 0xE5 SHL DUP2 MSTORE PUSH1 0x4 ADD PUSH3 0xEA7 SWAP1 PUSH3 0x4700 JUMP JUMPDEST PUSH1 0x3 SSTORE JUMP JUMPDEST PUSH1 0x1 SLOAD PUSH1 0x40 MLOAD PUSH4 0x70A08231 PUSH1 0xE0 SHL DUP2 MSTORE ADDRESS PUSH1 0x4 DUP3 ADD MSTORE PUSH1 0x0 SWAP2 PUSH1 0x1 PUSH1 0x1 PUSH1 0xA0 SHL SUB AND SWAP1 PUSH4 0x70A08231 SWAP1 PUSH1 0x24 ADD PUSH1 0x20 PUSH1 0x40 MLOAD DUP1 DUP4 SUB DUP2 DUP7 GAS STATICCALL ISZERO DUP1 ISZERO PUSH3 0x1A6E JUMPI RETURNDATASIZE PUSH1 0x0 DUP1 RETURNDATACOPY RETURNDATASIZE PUSH1 0x0 REVERT JUMPDEST PUSH1 0x1 SLOAD PUSH1 0x40 DUP1 MLOAD PUSH4 0x6FDDE03 PUSH1 0xE0 SHL DUP2 MSTORE SWAP1 MLOAD PUSH1 0x60 SWAP3 PUSH1 0x1 PUSH1 0x1 PUSH1 0xA0 SHL SUB AND SWAP2 PUSH4 0x6FDDE03 SWAP2 PUSH1 0x4 DUP1 DUP4 ADD SWAP3 PUSH1 0x0 SWAP3 SWAP2 SWAP1 DUP3 SWAP1 SUB ADD DUP2 DUP7 GAS STATICCALL ISZERO DUP1 ISZERO PUSH3 0x2D78 JUMPI RETURNDATASIZE PUSH1 0x0 DUP1 RETURNDATACOPY RETURNDATASIZE PUSH1 0x0 REVERT JUMPDEST POP POP POP POP PUSH1 0x40 MLOAD RETURNDATASIZE PUSH1 0x0 DUP3 RETURNDATACOPY PUSH1 0x1F RETURNDATASIZE SWAP1 DUP2 ADD PUSH1 0x1F NOT AND DUP3 ADD PUSH1 0x40 MSTORE PUSH3 0x1A94 SWAP2 SWAP1 DUP2 ADD SWAP1 PUSH3 0x481E JUMP JUMPDEST PUSH3 0x2DAC PUSH3 0x3CEC JUMP JUMPDEST PUSH1 0x40 MLOAD PUSH4 0x17E26BC9 PUSH1 0xE1 SHL DUP2 MSTORE PUSH20 0x0 SWAP1 PUSH4 0x2FC4D792 SWAP1 PUSH3 0x2DE8 SWAP1 PUSH1 0x14 SWAP1 DUP7 SWAP1 PUSH1 0x4 ADD PUSH3 0x45C0 JUMP JUMPDEST PUSH1 0x20 PUSH1 0x40 MLOAD DUP1 DUP4 SUB DUP2 DUP7 GAS DELEGATECALL ISZERO DUP1 ISZERO PUSH3 0x2E06 JUMPI RETURNDATASIZE PUSH1 0x0 DUP1 RETURNDATACOPY RETURNDATASIZE PUSH1 0x0 REVERT JUMPDEST POP POP POP POP PUSH1 0x40 MLOAD RETURNDATASIZE PUSH1 0x1F NOT PUSH1 0x1F DUP3 ADD AND DUP3 ADD DUP1 PUSH1 0x40 MSTORE POP DUP2 ADD SWAP1 PUSH3 0x2E2C SWAP2 SWAP1 PUSH3 0x45D7 JUMP JUMPDEST ISZERO PUSH3 0x2CAC JUMPI PUSH1 0x40 DUP1 MLOAD PUSH1 0xC0 DUP2 ADD DUP3 MSTORE PUSH1 0x1 PUSH1 0x1 PUSH1 0xA0 SHL SUB DUP5 AND DUP1 DUP3 MSTORE PUSH1 0x0 DUP2 DUP2 MSTORE PUSH1 0x16 PUSH1 0x20 SWAP1 DUP2 MSTORE DUP5 DUP3 KECCAK256 SLOAD DUP2 DUP6 ADD MSTORE SWAP2 DUP2 MSTORE PUSH1 0x17 DUP3 MSTORE DUP4 SWAP1 KECCAK256 DUP1 SLOAD DUP5 MLOAD DUP2 DUP5 MUL DUP2 ADD DUP5 ADD DUP7 MSTORE DUP2 DUP2 MSTORE SWAP4 SWAP5 DUP6 ADD SWAP4 SWAP3 DUP4 ADD DUP3 DUP3 DUP1 ISZERO PUSH3 0x2EAE JUMPI PUSH1 0x20 MUL DUP3 ADD SWAP2 SWAP1 PUSH1 0x0 MSTORE PUSH1 0x20 PUSH1 0x0 KECCAK256 SWAP1 JUMPDEST DUP2 SLOAD DUP2 MSTORE PUSH1 0x20 ADD SWAP1 PUSH1 0x1 ADD SWAP1 DUP1 DUP4 GT PUSH3 0x2E99 JUMPI JUMPDEST POP POP POP SWAP2 DUP4 MSTORE POP POP PUSH1 0x1 PUSH1 0x1 PUSH1 0xA0 SHL SUB DUP5 AND PUSH1 0x0 DUP2 DUP2 MSTORE PUSH1 0x18 PUSH1 0x20 SWAP1 DUP2 MSTORE PUSH1 0x40 DUP1 DUP4 KECCAK256 SLOAD DUP3 DUP7 ADD MSTORE SWAP3 DUP3 MSTORE PUSH1 0x19 SWAP1 MSTORE DUP2 SWAP1 KECCAK256 SLOAD DUP2 DUP4 ADD MSTORE MLOAD PUSH4 0x17E26BC9 PUSH1 0xE1 SHL DUP2 MSTORE PUSH1 0x60 SWAP1 SWAP2 ADD SWAP1 PUSH20 0x0 SWAP1 PUSH4 0x2FC4D792 SWAP1 PUSH3 0x2F25 SWAP1 PUSH1 0x1C SWAP1 DUP9 SWAP1 PUSH1 0x4 ADD PUSH3 0x45C0 JUMP JUMPDEST PUSH1 0x20 PUSH1 0x40 MLOAD DUP1 DUP4 SUB DUP2 DUP7 GAS DELEGATECALL ISZERO DUP1 ISZERO PUSH3 0x2F43 JUMPI RETURNDATASIZE PUSH1 0x0 DUP1 RETURNDATACOPY RETURNDATASIZE PUSH1 0x0 REVERT JUMPDEST POP POP POP POP PUSH1 0x40 MLOAD RETURNDATASIZE PUSH1 0x1F NOT PUSH1 0x1F DUP3 ADD AND DUP3 ADD DUP1 PUSH1 0x40 MSTORE POP DUP2 ADD SWAP1 PUSH3 0x2F69 SWAP2 SWAP1 PUSH3 0x45D7 JUMP JUMPDEST ISZERO ISZERO SWAP1 MSTORE SWAP3 SWAP2 POP POP JUMP JUMPDEST PUSH1 0x40 MLOAD PUSH4 0x11C9AF77 PUSH1 0xE1 SHL DUP2 MSTORE PUSH1 0x14 PUSH1 0x4 DUP3 ADD MSTORE PUSH1 0x24 DUP2 ADD DUP4 SWAP1 MSTORE PUSH1 0x44 DUP2 ADD DUP3 SWAP1 MSTORE PUSH1 0x60 SWAP1 PUSH20 0x0 SWAP1 PUSH4 0x23935EEE SWAP1 PUSH1 0x64 ADD PUSH1 0x0 PUSH1 0x40 MLOAD DUP1 DUP4 SUB DUP2 DUP7 GAS DELEGATECALL ISZERO DUP1 ISZERO PUSH3 0x2FD5 JUMPI RETURNDATASIZE PUSH1 0x0 DUP1 RETURNDATACOPY RETURNDATASIZE PUSH1 0x0 REVERT JUMPDEST POP POP POP POP PUSH1 0x40 MLOAD RETURNDATASIZE PUSH1 0x0 DUP3 RETURNDATACOPY PUSH1 0x1F RETURNDATASIZE SWAP1 DUP2 ADD PUSH1 0x1F NOT AND DUP3 ADD PUSH1 0x40 MSTORE PUSH3 0x2FFF SWAP2 SWAP1 DUP2 ADD SWAP1 PUSH3 0x4728 JUMP JUMPDEST SWAP4 SWAP3 POP POP POP JUMP JUMPDEST PUSH1 0x1F PUSH1 0x20 MSTORE PUSH1 0x0 SWAP1 DUP2 MSTORE PUSH1 0x40 SWAP1 KECCAK256 DUP1 SLOAD PUSH3 0x3021 SWAP1 PUSH3 0x47E7 JUMP JUMPDEST DUP1 PUSH1 0x1F ADD PUSH1 0x20 DUP1 SWAP2 DIV MUL PUSH1 0x20 ADD PUSH1 0x40 MLOAD SWAP1 DUP2 ADD PUSH1 0x40 MSTORE DUP1 SWAP3 SWAP2 SWAP1 DUP2 DUP2 MSTORE PUSH1 0x20 ADD DUP3 DUP1 SLOAD PUSH3 0x304F SWAP1 PUSH3 0x47E7 JUMP JUMPDEST DUP1 ISZERO PUSH3 0x30A0 JUMPI DUP1 PUSH1 0x1F LT PUSH3 0x3074 JUMPI PUSH2 0x100 DUP1 DUP4 SLOAD DIV MUL DUP4 MSTORE SWAP2 PUSH1 0x20 ADD SWAP2 PUSH3 0x30A0 JUMP JUMPDEST DUP3 ADD SWAP2 SWAP1 PUSH1 0x0 MSTORE PUSH1 0x20 PUSH1 0x0 KECCAK256 SWAP1 JUMPDEST DUP2 SLOAD DUP2 MSTORE SWAP1 PUSH1 0x1 ADD SWAP1 PUSH1 0x20 ADD DUP1 DUP4 GT PUSH3 0x3082 JUMPI DUP3 SWAP1 SUB PUSH1 0x1F AND DUP3 ADD SWAP2 JUMPDEST POP POP POP POP POP DUP2 JUMP JUMPDEST PUSH1 0x0 SLOAD PUSH1 0x1 PUSH1 0x1 PUSH1 0xA0 SHL SUB AND CALLER EQ PUSH3 0x30D5 JUMPI PUSH1 0x40 MLOAD PUSH3 0x461BCD PUSH1 0xE5 SHL DUP2 MSTORE PUSH1 0x4 ADD PUSH3 0xEA7 SWAP1 PUSH3 0x4700 JUMP JUMPDEST PUSH1 0x2 SSTORE JUMP JUMPDEST PUSH1 0x1 SLOAD PUSH1 0x40 MLOAD PUSH4 0x70A08231 PUSH1 0xE0 SHL DUP2 MSTORE PUSH1 0x1 PUSH1 0x1 PUSH1 0xA0 SHL SUB DUP4 DUP2 AND PUSH1 0x4 DUP4 ADD MSTORE PUSH1 0x0 SWAP3 AND SWAP1 PUSH4 0x70A08231 SWAP1 PUSH1 0x24 ADD PUSH1 0x20 PUSH1 0x40 MLOAD DUP1 DUP4 SUB DUP2 DUP7 GAS STATICCALL ISZERO DUP1 ISZERO PUSH3 0x3126 JUMPI RETURNDATASIZE PUSH1 0x0 DUP1 RETURNDATACOPY RETURNDATASIZE PUSH1 0x0 REVERT JUMPDEST POP POP POP POP PUSH1 0x40 MLOAD RETURNDATASIZE PUSH1 0x1F NOT PUSH1 0x1F DUP3 ADD AND DUP3 ADD DUP1 PUSH1 0x40 MSTORE POP DUP2 ADD SWAP1 PUSH3 0x1266 SWAP2 SWAP1 PUSH3 0x4622 JUMP JUMPDEST PUSH1 0x40 MLOAD PUSH4 0x11C9AF77 PUSH1 0xE1 SHL DUP2 MSTORE PUSH1 0x21 PUSH1 0x4 DUP3 ADD MSTORE PUSH1 0x0 PUSH1 0x24 DUP3 ADD DUP2 SWAP1 MSTORE PUSH1 0x44 DUP3 ADD MSTORE PUSH1 0x60 SWAP1 PUSH20 0x0 SWAP1 PUSH4 0x23935EEE SWAP1 PUSH1 0x64 ADD PUSH3 0x2816 JUMP JUMPDEST PUSH1 0x40 MLOAD PUSH4 0x17E26BC9 PUSH1 0xE1 SHL DUP2 MSTORE PUSH1 0x0 SWAP1 PUSH20 0x0 SWAP1 PUSH4 0x2FC4D792 SWAP1 PUSH3 0x31D5 SWAP1 PUSH1 0xC SWAP1 CALLER SWAP1 PUSH1 0x4 ADD PUSH3 0x45C0 JUMP JUMPDEST PUSH1 0x20 PUSH1 0x40 MLOAD DUP1 DUP4 SUB DUP2 DUP7 GAS DELEGATECALL ISZERO DUP1 ISZERO PUSH3 0x31F3 JUMPI RETURNDATASIZE PUSH1 0x0 DUP1 RETURNDATACOPY RETURNDATASIZE PUSH1 0x0 REVERT JUMPDEST POP POP POP POP PUSH1 0x40 MLOAD RETURNDATASIZE PUSH1 0x1F NOT PUSH1 0x1F DUP3 ADD AND DUP3 ADD DUP1 PUSH1 0x40 MSTORE POP DUP2 ADD SWAP1 PUSH3 0x3219 SWAP2 SWAP1 PUSH3 0x45D7 JUMP JUMPDEST ISZERO ISZERO PUSH1 0x1 EQ PUSH3 0x325F JUMPI PUSH1 0x40 MLOAD PUSH3 0x461BCD PUSH1 0xE5 SHL DUP2 MSTORE PUSH1 0x20 PUSH1 0x4 DUP3 ADD MSTORE PUSH1 0x10 PUSH1 0x24 DUP3 ADD MSTORE PUSH16 0x4F6E6C7920666F72206D696E74657273 PUSH1 0x80 SHL PUSH1 0x44 DUP3 ADD MSTORE PUSH1 0x64 ADD PUSH3 0xEA7 JUMP JUMPDEST PUSH1 0x0 DUP5 GT PUSH3 0x32B1 JUMPI PUSH1 0x40 MLOAD PUSH3 0x461BCD PUSH1 0xE5 SHL DUP2 MSTORE PUSH1 0x20 PUSH1 0x4 DUP3 ADD MSTORE PUSH1 0x1B PUSH1 0x24 DUP3 ADD MSTORE PUSH32 0x416D6F756E74206D7573742062652067726561746572207A65726F0000000000 PUSH1 0x44 DUP3 ADD MSTORE PUSH1 0x64 ADD PUSH3 0xEA7 JUMP JUMPDEST PUSH1 0x0 DUP4 ISZERO PUSH3 0x32C1 JUMPI DUP4 PUSH3 0x32C5 JUMP JUMPDEST PUSH1 0x2 SLOAD JUMPDEST PUSH1 0x1 SLOAD CALLER PUSH1 0x0 DUP2 DUP2 MSTORE PUSH1 0xE PUSH1 0x20 MSTORE PUSH1 0x40 DUP1 DUP3 KECCAK256 SWAP1 MLOAD SWAP5 SWAP6 POP SWAP1 SWAP4 PUSH1 0x1 PUSH1 0x1 PUSH1 0xA0 SHL SUB SWAP1 SWAP4 AND SWAP3 DUP10 SWAP2 TIMESTAMP SWAP2 DUP8 SWAP2 SWAP1 DUP11 SWAP1 PUSH3 0x32FF SWAP1 PUSH3 0x3E23 JUMP JUMPDEST PUSH3 0x3311 SWAP8 SWAP7 SWAP6 SWAP5 SWAP4 SWAP3 SWAP2 SWAP1 PUSH3 0x489E JUMP JUMPDEST PUSH1 0x40 MLOAD DUP1 SWAP2 SUB SWAP1 PUSH1 0x0 CREATE DUP1 ISZERO DUP1 ISZERO PUSH3 0x332E JUMPI RETURNDATASIZE PUSH1 0x0 DUP1 RETURNDATACOPY RETURNDATASIZE PUSH1 0x0 REVERT JUMPDEST POP PUSH1 0x6 DUP1 SLOAD SWAP2 SWAP3 POP PUSH1 0x0 PUSH3 0x3343 DUP4 PUSH3 0x4688 JUMP JUMPDEST SWAP2 SWAP1 POP SSTORE POP PUSH1 0x40 MLOAD DUP1 PUSH2 0x120 ADD PUSH1 0x40 MSTORE DUP1 PUSH1 0x6 SLOAD DUP2 MSTORE PUSH1 0x20 ADD DUP8 DUP2 MSTORE PUSH1 0x20 ADD CALLER PUSH1 0x1 PUSH1 0x1 PUSH1 0xA0 SHL SUB AND DUP2 MSTORE PUSH1 0x20 ADD PUSH1 0x0 PUSH1 0x1 PUSH1 0x1 PUSH1 0xA0 SHL SUB AND DUP2 MSTORE PUSH1 0x20 ADD TIMESTAMP DUP2 MSTORE PUSH1 0x20 ADD PUSH1 0x0 DUP2 MSTORE PUSH1 0x20 ADD DUP4 DUP2 MSTORE PUSH1 0x20 ADD DUP3 PUSH1 0x1 PUSH1 0x1 PUSH1 0xA0 SHL SUB AND DUP2 MSTORE PUSH1 0x20 ADD DUP6 DUP2 MSTORE POP PUSH1 0x4 PUSH1 0x0 PUSH1 0x6 SLOAD DUP2 MSTORE PUSH1 0x20 ADD SWAP1 DUP2 MSTORE PUSH1 0x20 ADD PUSH1 0x0 KECCAK256 PUSH1 0x0 DUP3 ADD MLOAD DUP2 PUSH1 0x0 ADD SSTORE PUSH1 0x20 DUP3 ADD MLOAD DUP2 PUSH1 0x1 ADD SSTORE PUSH1 0x40 DUP3 ADD MLOAD DUP2 PUSH1 0x2 ADD PUSH1 0x0 PUSH2 0x100 EXP DUP2 SLOAD DUP2 PUSH1 0x1 PUSH1 0x1 PUSH1 0xA0 SHL SUB MUL NOT AND SWAP1 DUP4 PUSH1 0x1 PUSH1 0x1 PUSH1 0xA0 SHL SUB AND MUL OR SWAP1 SSTORE POP PUSH1 0x60 DUP3 ADD MLOAD DUP2 PUSH1 0x3 ADD PUSH1 0x0 PUSH2 0x100 EXP DUP2 SLOAD DUP2 PUSH1 0x1 PUSH1 0x1 PUSH1 0xA0 SHL SUB MUL NOT AND SWAP1 DUP4 PUSH1 0x1 PUSH1 0x1 PUSH1 0xA0 SHL SUB AND MUL OR SWAP1 SSTORE POP PUSH1 0x80 DUP3 ADD MLOAD DUP2 PUSH1 0x4 ADD SSTORE PUSH1 0xA0 DUP3 ADD MLOAD DUP2 PUSH1 0x5 ADD SSTORE PUSH1 0xC0 DUP3 ADD MLOAD DUP2 PUSH1 0x6 ADD SSTORE PUSH1 0xE0 DUP3 ADD MLOAD DUP2 PUSH1 0x7 ADD PUSH1 0x0 PUSH2 0x100 EXP DUP2 SLOAD DUP2 PUSH1 0x1 PUSH1 0x1 PUSH1 0xA0 SHL SUB MUL NOT AND SWAP1 DUP4 PUSH1 0x1 PUSH1 0x1 PUSH1 0xA0 SHL SUB AND MUL OR SWAP1 SSTORE POP PUSH2 0x100 DUP3 ADD MLOAD DUP2 PUSH1 0x8 ADD SWAP1 DUP1 MLOAD SWAP1 PUSH1 0x20 ADD SWAP1 PUSH3 0x3494 SWAP3 SWAP2 SWAP1 PUSH3 0x3D2D JUMP JUMPDEST POP POP PUSH1 0x6 SLOAD PUSH1 0x1 PUSH1 0x1 PUSH1 0xA0 SHL SUB DUP4 AND PUSH1 0x0 SWAP1 DUP2 MSTORE PUSH1 0x5 PUSH1 0x20 SWAP1 DUP2 MSTORE PUSH1 0x40 DUP1 DUP4 KECCAK256 SWAP4 SWAP1 SWAP4 SSTORE CALLER DUP3 MSTORE PUSH1 0xF SWAP1 MSTORE SWAP1 DUP2 KECCAK256 DUP1 SLOAD DUP10 SWAP4 POP SWAP1 SWAP2 SWAP1 PUSH3 0x34D7 SWAP1 DUP5 SWAP1 PUSH3 0x46A6 JUMP JUMPDEST SWAP3 POP POP DUP2 SWAP1 SSTORE POP DUP6 PUSH1 0x9 PUSH1 0x0 DUP3 DUP3 SLOAD PUSH3 0x34F2 SWAP2 SWAP1 PUSH3 0x46A6 JUMP JUMPDEST SWAP1 SWAP2 SSTORE POP POP CALLER PUSH1 0x0 DUP2 DUP2 MSTORE PUSH1 0x10 PUSH1 0x20 SWAP1 DUP2 MSTORE PUSH1 0x40 DUP1 DUP4 KECCAK256 PUSH1 0x6 SLOAD DUP2 SLOAD PUSH1 0x1 DUP2 ADD DUP4 SSTORE SWAP2 DUP6 MSTORE DUP4 DUP6 KECCAK256 SWAP1 SWAP2 ADD SSTORE SWAP3 DUP3 MSTORE PUSH1 0x11 SWAP1 MSTORE SWAP1 DUP2 KECCAK256 DUP1 SLOAD SWAP2 PUSH3 0x3536 DUP4 PUSH3 0x4688 JUMP JUMPDEST SWAP1 SWAP2 SSTORE POP POP PUSH1 0x7 DUP1 SLOAD SWAP1 PUSH1 0x0 PUSH3 0x354D DUP4 PUSH3 0x4688 JUMP JUMPDEST SWAP1 SWAP2 SSTORE POP POP PUSH1 0x40 MLOAD PUSH1 0x1 PUSH1 0x1 PUSH1 0xA0 SHL SUB DUP3 AND DUP2 MSTORE PUSH32 0x12A2DCD8D60F7D320A97F9B2F6BCA5B67C1BB9808B27C28915C541EED450D05F SWAP1 PUSH1 0x20 ADD PUSH1 0x40 MLOAD DUP1 SWAP2 SUB SWAP1 LOG1 SWAP6 SWAP5 POP POP POP POP POP JUMP JUMPDEST PUSH1 0x40 MLOAD PUSH4 0xC3D3C75 PUSH1 0xE4 SHL DUP2 MSTORE PUSH1 0x21 PUSH1 0x4 DUP3 ADD MSTORE PUSH1 0x0 SWAP1 PUSH20 0x0 SWAP1 PUSH4 0xC3D3C750 SWAP1 PUSH1 0x24 ADD PUSH3 0x1A50 JUMP JUMPDEST PUSH1 0xE PUSH1 0x20 MSTORE PUSH1 0x0 SWAP1 DUP2 MSTORE PUSH1 0x40 SWAP1 KECCAK256 DUP1 SLOAD PUSH3 0x3021 SWAP1 PUSH3 0x47E7 JUMP JUMPDEST PUSH1 0x1 PUSH1 0x1 PUSH1 0xA0 SHL SUB DUP4 AND PUSH1 0x0 SWAP1 DUP2 MSTORE PUSH1 0x10 PUSH1 0x20 MSTORE PUSH1 0x40 SWAP1 KECCAK256 SLOAD PUSH1 0x60 SWAP1 DUP3 ISZERO PUSH3 0x3614 JUMPI POP DUP2 JUMPDEST PUSH1 0x0 PUSH3 0x3622 DUP3 DUP7 PUSH3 0x46A6 JUMP JUMPDEST PUSH1 0x1 PUSH1 0x1 PUSH1 0xA0 SHL SUB DUP8 AND PUSH1 0x0 SWAP1 DUP2 MSTORE PUSH1 0x10 PUSH1 0x20 MSTORE PUSH1 0x40 SWAP1 KECCAK256 SLOAD SWAP1 SWAP2 POP DUP2 GT ISZERO PUSH3 0x3661 JUMPI POP PUSH1 0x1 PUSH1 0x1 PUSH1 0xA0 SHL SUB DUP6 AND PUSH1 0x0 SWAP1 DUP2 MSTORE PUSH1 0x10 PUSH1 0x20 MSTORE PUSH1 0x40 SWAP1 KECCAK256 SLOAD JUMPDEST PUSH1 0x0 PUSH3 0x366F DUP7 DUP4 PUSH3 0x46C1 JUMP JUMPDEST PUSH8 0xFFFFFFFFFFFFFFFF DUP2 GT ISZERO PUSH3 0x368A JUMPI PUSH3 0x368A PUSH3 0x416F JUMP JUMPDEST PUSH1 0x40 MLOAD SWAP1 DUP1 DUP3 MSTORE DUP1 PUSH1 0x20 MUL PUSH1 0x20 ADD DUP3 ADD PUSH1 0x40 MSTORE DUP1 ISZERO PUSH3 0x36C7 JUMPI DUP2 PUSH1 0x20 ADD JUMPDEST PUSH3 0x36B3 PUSH3 0x3DBC JUMP JUMPDEST DUP2 MSTORE PUSH1 0x20 ADD SWAP1 PUSH1 0x1 SWAP1 SUB SWAP1 DUP2 PUSH3 0x36A9 JUMPI SWAP1 POP JUMPDEST POP SWAP1 POP PUSH1 0x0 JUMPDEST PUSH3 0x36D9 DUP8 DUP5 PUSH3 0x46C1 JUMP JUMPDEST DUP2 LT ISZERO PUSH3 0x2000 JUMPI PUSH1 0x1 PUSH1 0x1 PUSH1 0xA0 SHL SUB DUP9 AND PUSH1 0x0 SWAP1 DUP2 MSTORE PUSH1 0x10 PUSH1 0x20 MSTORE PUSH1 0x40 DUP2 KECCAK256 DUP1 SLOAD PUSH1 0x4 SWAP3 SWAP2 SWAP1 PUSH1 0x1 SWAP1 DUP12 SWAP1 PUSH3 0x3712 SWAP1 DUP8 SWAP1 PUSH3 0x46C1 JUMP JUMPDEST PUSH3 0x371E SWAP2 SWAP1 PUSH3 0x46C1 JUMP JUMPDEST PUSH3 0x372A SWAP2 SWAP1 PUSH3 0x46C1 JUMP JUMPDEST DUP2 SLOAD DUP2 LT PUSH3 0x373D JUMPI PUSH3 0x373D PUSH3 0x465C JUMP JUMPDEST PUSH1 0x0 SWAP2 DUP3 MSTORE PUSH1 0x20 DUP1 DUP4 KECCAK256 SWAP1 SWAP2 ADD SLOAD DUP4 MSTORE DUP3 DUP2 ADD SWAP4 SWAP1 SWAP4 MSTORE PUSH1 0x40 SWAP2 DUP3 ADD SWAP1 KECCAK256 DUP2 MLOAD PUSH2 0x120 DUP2 ADD DUP4 MSTORE DUP2 SLOAD DUP2 MSTORE PUSH1 0x1 DUP3 ADD SLOAD SWAP4 DUP2 ADD SWAP4 SWAP1 SWAP4 MSTORE PUSH1 0x2 DUP2 ADD SLOAD PUSH1 0x1 PUSH1 0x1 PUSH1 0xA0 SHL SUB SWAP1 DUP2 AND SWAP3 DUP5 ADD SWAP3 SWAP1 SWAP3 MSTORE PUSH1 0x3 DUP2 ADD SLOAD DUP3 AND PUSH1 0x60 DUP5 ADD MSTORE PUSH1 0x4 DUP2 ADD SLOAD PUSH1 0x80 DUP5 ADD MSTORE PUSH1 0x5 DUP2 ADD SLOAD PUSH1 0xA0 DUP5 ADD MSTORE PUSH1 0x6 DUP2 ADD SLOAD PUSH1 0xC0 DUP5 ADD MSTORE PUSH1 0x7 DUP2 ADD SLOAD SWAP1 SWAP2 AND PUSH1 0xE0 DUP4 ADD MSTORE PUSH1 0x8 DUP2 ADD DUP1 SLOAD PUSH2 0x100 DUP5 ADD SWAP2 SWAP1 PUSH3 0x37DA SWAP1 PUSH3 0x47E7 JUMP JUMPDEST DUP1 PUSH1 0x1F ADD PUSH1 0x20 DUP1 SWAP2 DIV MUL PUSH1 0x20 ADD PUSH1 0x40 MLOAD SWAP1 DUP2 ADD PUSH1 0x40 MSTORE DUP1 SWAP3 SWAP2 SWAP1 DUP2 DUP2 MSTORE PUSH1 0x20 ADD DUP3 DUP1 SLOAD PUSH3 0x3808 SWAP1 PUSH3 0x47E7 JUMP JUMPDEST DUP1 ISZERO PUSH3 0x3859 JUMPI DUP1 PUSH1 0x1F LT PUSH3 0x382D JUMPI PUSH2 0x100 DUP1 DUP4 SLOAD DIV MUL DUP4 MSTORE SWAP2 PUSH1 0x20 ADD SWAP2 PUSH3 0x3859 JUMP JUMPDEST DUP3 ADD SWAP2 SWAP1 PUSH1 0x0 MSTORE PUSH1 0x20 PUSH1 0x0 KECCAK256 SWAP1 JUMPDEST DUP2 SLOAD DUP2 MSTORE SWAP1 PUSH1 0x1 ADD SWAP1 PUSH1 0x20 ADD DUP1 DUP4 GT PUSH3 0x383B JUMPI DUP3 SWAP1 SUB PUSH1 0x1F AND DUP3 ADD SWAP2 JUMPDEST POP POP POP POP POP DUP2 MSTORE POP POP DUP3 DUP3 DUP2 MLOAD DUP2 LT PUSH3 0x3877 JUMPI PUSH3 0x3877 PUSH3 0x465C JUMP JUMPDEST PUSH1 0x20 MUL PUSH1 0x20 ADD ADD DUP2 SWAP1 MSTORE POP DUP1 DUP1 PUSH3 0x388F SWAP1 PUSH3 0x4688 JUMP JUMPDEST SWAP2 POP POP PUSH3 0x36CD JUMP JUMPDEST PUSH1 0x40 MLOAD PUSH4 0x17E26BC9 PUSH1 0xE1 SHL DUP2 MSTORE PUSH20 0x0 SWAP1 PUSH4 0x2FC4D792 SWAP1 PUSH3 0x38D4 SWAP1 PUSH1 0x21 SWAP1 CALLER SWAP1 PUSH1 0x4 ADD PUSH3 0x45C0 JUMP JUMPDEST PUSH1 0x20 PUSH1 0x40 MLOAD DUP1 DUP4 SUB DUP2 DUP7 GAS DELEGATECALL ISZERO DUP1 ISZERO PUSH3 0x38F2 JUMPI RETURNDATASIZE PUSH1 0x0 DUP1 RETURNDATACOPY RETURNDATASIZE PUSH1 0x0 REVERT JUMPDEST POP POP POP POP PUSH1 0x40 MLOAD RETURNDATASIZE PUSH1 0x1F NOT PUSH1 0x1F DUP3 ADD AND DUP3 ADD DUP1 PUSH1 0x40 MSTORE POP DUP2 ADD SWAP1 PUSH3 0x3918 SWAP2 SWAP1 PUSH3 0x45D7 JUMP JUMPDEST ISZERO ISZERO PUSH1 0x1 EQ PUSH3 0x393C JUMPI PUSH1 0x40 MLOAD PUSH3 0x461BCD PUSH1 0xE5 SHL DUP2 MSTORE PUSH1 0x4 ADD PUSH3 0xEA7 SWAP1 PUSH3 0x45F7 JUMP JUMPDEST PUSH1 0x1 PUSH1 0x1 PUSH1 0xA0 SHL SUB DUP3 AND PUSH1 0x0 SWAP1 DUP2 MSTORE PUSH1 0xE PUSH1 0x20 SWAP1 DUP2 MSTORE PUSH1 0x40 SWAP1 SWAP2 KECCAK256 DUP3 MLOAD PUSH3 0x1740 SWAP3 DUP5 ADD SWAP1 PUSH3 0x3D2D JUMP JUMPDEST PUSH1 0x40 MLOAD PUSH4 0xC3D3C75 PUSH1 0xE4 SHL DUP2 MSTORE PUSH1 0xC PUSH1 0x4 DUP3 ADD MSTORE PUSH1 0x0 SWAP1 PUSH20 0x0 SWAP1 PUSH4 0xC3D3C750 SWAP1 PUSH1 0x24 ADD PUSH3 0x1A50 JUMP JUMPDEST PUSH3 0x39AD PUSH3 0x3CA6 JUMP JUMPDEST PUSH1 0x40 MLOAD PUSH4 0x17E26BC9 PUSH1 0xE1 SHL DUP2 MSTORE PUSH20 0x0 SWAP1 PUSH4 0x2FC4D792 SWAP1 PUSH3 0x39E9 SWAP1 PUSH1 0xC SWAP1 DUP7 SWAP1 PUSH1 0x4 ADD PUSH3 0x45C0 JUMP JUMPDEST PUSH1 0x20 PUSH1 0x40 MLOAD DUP1 DUP4 SUB DUP2 DUP7 GAS DELEGATECALL ISZERO DUP1 ISZERO PUSH3 0x3A07 JUMPI RETURNDATASIZE PUSH1 0x0 DUP1 RETURNDATACOPY RETURNDATASIZE PUSH1 0x0 REVERT JUMPDEST POP POP POP POP PUSH1 0x40 MLOAD RETURNDATASIZE PUSH1 0x1F NOT PUSH1 0x1F DUP3 ADD AND DUP3 ADD DUP1 PUSH1 0x40 MSTORE POP DUP2 ADD SWAP1 PUSH3 0x3A2D SWAP2 SWAP1 PUSH3 0x45D7 JUMP JUMPDEST ISZERO PUSH3 0x2CAC JUMPI PUSH1 0x40 DUP1 MLOAD PUSH1 0xE0 DUP2 ADD DUP3 MSTORE PUSH1 0x1 PUSH1 0x1 PUSH1 0xA0 SHL SUB DUP5 AND DUP1 DUP3 MSTORE PUSH1 0x0 SWAP1 DUP2 MSTORE PUSH1 0xE PUSH1 0x20 SWAP1 DUP2 MSTORE SWAP3 SWAP1 KECCAK256 DUP1 SLOAD SWAP2 SWAP3 DUP4 ADD SWAP2 PUSH3 0x3A6B SWAP1 PUSH3 0x47E7 JUMP JUMPDEST DUP1 PUSH1 0x1F ADD PUSH1 0x20 DUP1 SWAP2 DIV MUL PUSH1 0x20 ADD PUSH1 0x40 MLOAD SWAP1 DUP2 ADD PUSH1 0x40 MSTORE DUP1 SWAP3 SWAP2 SWAP1 DUP2 DUP2 MSTORE PUSH1 0x20 ADD DUP3 DUP1 SLOAD PUSH3 0x3A99 SWAP1 PUSH3 0x47E7 JUMP JUMPDEST DUP1 ISZERO PUSH3 0x3AEA JUMPI DUP1 PUSH1 0x1F LT PUSH3 0x3ABE JUMPI PUSH2 0x100 DUP1 DUP4 SLOAD DIV MUL DUP4 MSTORE SWAP2 PUSH1 0x20 ADD SWAP2 PUSH3 0x3AEA JUMP JUMPDEST DUP3 ADD SWAP2 SWAP1 PUSH1 0x0 MSTORE PUSH1 0x20 PUSH1 0x0 KECCAK256 SWAP1 JUMPDEST DUP2 SLOAD DUP2 MSTORE SWAP1 PUSH1 0x1 ADD SWAP1 PUSH1 0x20 ADD DUP1 DUP4 GT PUSH3 0x3ACC JUMPI DUP3 SWAP1 SUB PUSH1 0x1F AND DUP3 ADD SWAP2 JUMPDEST POP POP POP SWAP2 DUP4 MSTORE POP POP PUSH1 0x1 PUSH1 0x1 PUSH1 0xA0 SHL SUB DUP5 AND PUSH1 0x0 DUP2 DUP2 MSTORE PUSH1 0xF PUSH1 0x20 SWAP1 DUP2 MSTORE PUSH1 0x40 DUP1 DUP4 KECCAK256 SLOAD DUP3 DUP7 ADD MSTORE DUP4 DUP4 MSTORE PUSH1 0x12 DUP3 MSTORE DUP1 DUP4 KECCAK256 SLOAD DUP2 DUP7 ADD MSTORE SWAP3 DUP3 MSTORE PUSH1 0x10 DUP2 MSTORE SWAP1 DUP3 SWAP1 KECCAK256 DUP1 SLOAD DUP4 MLOAD DUP2 DUP5 MUL DUP2 ADD DUP5 ADD SWAP1 SWAP5 MSTORE DUP1 DUP5 MSTORE PUSH1 0x60 SWAP1 SWAP5 ADD SWAP4 SWAP1 SWAP2 DUP4 ADD DUP3 DUP3 DUP1 ISZERO PUSH3 0x3B76 JUMPI PUSH1 0x20 MUL DUP3 ADD SWAP2 SWAP1 PUSH1 0x0 MSTORE PUSH1 0x20 PUSH1 0x0 KECCAK256 SWAP1 JUMPDEST DUP2 SLOAD DUP2 MSTORE PUSH1 0x20 ADD SWAP1 PUSH1 0x1 ADD SWAP1 DUP1 DUP4 GT PUSH3 0x3B61 JUMPI JUMPDEST POP POP POP SWAP2 DUP4 MSTORE POP POP PUSH1 0x1 PUSH1 0x1 PUSH1 0xA0 SHL SUB SWAP1 SWAP4 AND PUSH1 0x0 DUP2 DUP2 MSTORE PUSH1 0x11 PUSH1 0x20 SWAP1 DUP2 MSTORE PUSH1 0x40 DUP1 DUP4 KECCAK256 SLOAD DUP3 DUP9 ADD MSTORE SWAP3 DUP3 MSTORE PUSH1 0x13 SWAP1 MSTORE DUP2 SWAP1 KECCAK256 SLOAD SWAP4 ADD SWAP3 SWAP1 SWAP3 MSTORE POP SWAP1 JUMP JUMPDEST PUSH1 0x1 SLOAD PUSH1 0x40 DUP1 MLOAD PUSH4 0x95D89B41 PUSH1 0xE0 SHL DUP2 MSTORE SWAP1 MLOAD PUSH1 0x60 SWAP3 PUSH1 0x1 PUSH1 0x1 PUSH1 0xA0 SHL SUB AND SWAP2 PUSH4 0x95D89B41 SWAP2 PUSH1 0x4 DUP1 DUP4 ADD SWAP3 PUSH1 0x0 SWAP3 SWAP2 SWAP1 DUP3 SWAP1 SUB ADD DUP2 DUP7 GAS STATICCALL ISZERO DUP1 ISZERO PUSH3 0x2D78 JUMPI RETURNDATASIZE PUSH1 0x0 DUP1 RETURNDATACOPY RETURNDATASIZE PUSH1 0x0 REVERT JUMPDEST PUSH1 0x0 SLOAD PUSH1 0x1 PUSH1 0x1 PUSH1 0xA0 SHL SUB AND CALLER EQ PUSH3 0x3C2C JUMPI PUSH1 0x40 MLOAD PUSH3 0x461BCD PUSH1 0xE5 SHL DUP2 MSTORE PUSH1 0x4 ADD PUSH3 0xEA7 SWAP1 PUSH3 0x4700 JUMP JUMPDEST PUSH1 0x1 PUSH1 0x1 PUSH1 0xA0 SHL SUB DUP2 AND PUSH3 0x3C84 JUMPI PUSH1 0x40 MLOAD PUSH3 0x461BCD PUSH1 0xE5 SHL DUP2 MSTORE PUSH1 0x20 PUSH1 0x4 DUP3 ADD MSTORE PUSH1 0x1A PUSH1 0x24 DUP3 ADD MSTORE PUSH32 0x4F776E657220616464726573732063616E74206265207A65726F000000000000 PUSH1 0x44 DUP3 ADD MSTORE PUSH1 0x64 ADD PUSH3 0xEA7 JUMP JUMPDEST PUSH1 0x0 DUP1 SLOAD PUSH1 0x1 PUSH1 0x1 PUSH1 0xA0 SHL SUB NOT AND PUSH1 0x1 PUSH1 0x1 PUSH1 0xA0 SHL SUB SWAP3 SWAP1 SWAP3 AND SWAP2 SWAP1 SWAP2 OR SWAP1 SSTORE JUMP JUMPDEST PUSH1 0x40 MLOAD DUP1 PUSH1 0xE0 ADD PUSH1 0x40 MSTORE DUP1 PUSH1 0x0 PUSH1 0x1 PUSH1 0x1 PUSH1 0xA0 SHL SUB AND DUP2 MSTORE PUSH1 0x20 ADD PUSH1 0x60 DUP2 MSTORE PUSH1 0x20 ADD PUSH1 0x0 DUP2 MSTORE PUSH1 0x20 ADD PUSH1 0x0 DUP2 MSTORE PUSH1 0x20 ADD PUSH1 0x60 DUP2 MSTORE PUSH1 0x20 ADD PUSH1 0x0 DUP2 MSTORE PUSH1 0x20 ADD PUSH1 0x0 DUP2 MSTORE POP SWAP1 JUMP JUMPDEST PUSH1 0x40 MLOAD DUP1 PUSH1 0xC0 ADD PUSH1 0x40 MSTORE DUP1 PUSH1 0x0 PUSH1 0x1 PUSH1 0x1 PUSH1 0xA0 SHL SUB AND DUP2 MSTORE PUSH1 0x20 ADD PUSH1 0x0 DUP2 MSTORE PUSH1 0x20 ADD PUSH1 0x60 DUP2 MSTORE PUSH1 0x20 ADD PUSH1 0x0 DUP2 MSTORE PUSH1 0x20 ADD PUSH1 0x0 DUP2 MSTORE PUSH1 0x20 ADD PUSH1 0x0 ISZERO ISZERO DUP2 MSTORE POP SWAP1 JUMP JUMPDEST DUP3 DUP1 SLOAD PUSH3 0x3D3B SWAP1 PUSH3 0x47E7 JUMP JUMPDEST SWAP1 PUSH1 0x0 MSTORE PUSH1 0x20 PUSH1 0x0 KECCAK256 SWAP1 PUSH1 0x1F ADD PUSH1 0x20 SWAP1 DIV DUP2 ADD SWAP3 DUP3 PUSH3 0x3D5F JUMPI PUSH1 0x0 DUP6 SSTORE PUSH3 0x3DAA JUMP JUMPDEST DUP3 PUSH1 0x1F LT PUSH3 0x3D7A JUMPI DUP1 MLOAD PUSH1 0xFF NOT AND DUP4 DUP1 ADD OR DUP6 SSTORE PUSH3 0x3DAA JUMP JUMPDEST DUP3 DUP1 ADD PUSH1 0x1 ADD DUP6 SSTORE DUP3 ISZERO PUSH3 0x3DAA JUMPI SWAP2 DUP3 ADD JUMPDEST DUP3 DUP2 GT ISZERO PUSH3 0x3DAA JUMPI DUP3 MLOAD DUP3 SSTORE SWAP2 PUSH1 0x20 ADD SWAP2 SWAP1 PUSH1 0x1 ADD SWAP1 PUSH3 0x3D8D JUMP JUMPDEST POP PUSH3 0x3DB8 SWAP3 SWAP2 POP PUSH3 0x3E31 JUMP JUMPDEST POP SWAP1 JUMP JUMPDEST PUSH1 0x40 MLOAD DUP1 PUSH2 0x120 ADD PUSH1 0x40 MSTORE DUP1 PUSH1 0x0 DUP2 MSTORE PUSH1 0x20 ADD PUSH1 0x0 DUP2 MSTORE PUSH1 0x20 ADD PUSH1 0x0 PUSH1 0x1 PUSH1 0x1 PUSH1 0xA0 SHL SUB AND DUP2 MSTORE PUSH1 0x20 ADD PUSH1 0x0 PUSH1 0x1 PUSH1 0x1 PUSH1 0xA0 SHL SUB AND DUP2 MSTORE PUSH1 0x20 ADD PUSH1 0x0 DUP2 MSTORE PUSH1 0x20 ADD PUSH1 0x0 DUP2 MSTORE PUSH1 0x20 ADD PUSH1 0x0 DUP2 MSTORE PUSH1 0x20 ADD PUSH1 0x0 PUSH1 0x1 PUSH1 0x1 PUSH1 0xA0 SHL SUB AND DUP2 MSTORE PUSH1 0x20 ADD PUSH1 0x60 DUP2 MSTORE POP SWAP1 JUMP JUMPDEST PUSH2 0xB17 DUP1 PUSH3 0x499A DUP4 CODECOPY ADD SWAP1 JUMP JUMPDEST JUMPDEST DUP1 DUP3 GT ISZERO PUSH3 0x3DB8 JUMPI PUSH1 0x0 DUP2 SSTORE PUSH1 0x1 ADD PUSH3 0x3E32 JUMP JUMPDEST PUSH1 0x1 PUSH1 0x1 PUSH1 0xA0 SHL SUB DUP2 AND DUP2 EQ PUSH3 0x3E5E JUMPI PUSH1 0x0 DUP1 REVERT JUMPDEST POP JUMP JUMPDEST PUSH1 0x0 PUSH1 0x20 DUP3 DUP5 SUB SLT ISZERO PUSH3 0x3E74 JUMPI PUSH1 0x0 DUP1 REVERT JUMPDEST DUP2 CALLDATALOAD PUSH3 0x2FFF DUP2 PUSH3 0x3E48 JUMP JUMPDEST PUSH1 0x0 PUSH1 0x20 DUP3 DUP5 SUB SLT ISZERO PUSH3 0x3E94 JUMPI PUSH1 0x0 DUP1 REVERT JUMPDEST POP CALLDATALOAD SWAP2 SWAP1 POP JUMP JUMPDEST PUSH1 0x0 JUMPDEST DUP4 DUP2 LT ISZERO PUSH3 0x3EB8 JUMPI DUP2 DUP2 ADD MLOAD DUP4 DUP3 ADD MSTORE PUSH1 0x20 ADD PUSH3 0x3E9E JUMP JUMPDEST DUP4 DUP2 GT ISZERO PUSH3 0x3EC8 JUMPI PUSH1 0x0 DUP5 DUP5 ADD MSTORE JUMPDEST POP POP POP POP JUMP JUMPDEST PUSH1 0x0 DUP2 MLOAD DUP1 DUP5 MSTORE PUSH3 0x3EE8 DUP2 PUSH1 0x20 DUP7 ADD PUSH1 0x20 DUP7 ADD PUSH3 0x3E9B JUMP JUMPDEST PUSH1 0x1F ADD PUSH1 0x1F NOT AND SWAP3 SWAP1 SWAP3 ADD PUSH1 0x20 ADD SWAP3 SWAP2 POP POP JUMP JUMPDEST PUSH1 0x0 DUP2 MLOAD DUP1 DUP5 MSTORE PUSH1 0x20 DUP1 DUP6 ADD SWAP5 POP DUP1 DUP5 ADD PUSH1 0x0 JUMPDEST DUP4 DUP2 LT ISZERO PUSH3 0x3F2E JUMPI DUP2 MLOAD DUP8 MSTORE SWAP6 DUP3 ADD SWAP6 SWAP1 DUP3 ADD SWAP1 PUSH1 0x1 ADD PUSH3 0x3F10 JUMP JUMPDEST POP SWAP5 SWAP6 SWAP5 POP POP POP POP POP JUMP JUMPDEST PUSH1 0x1 DUP1 PUSH1 0xA0 SHL SUB DUP2 MLOAD AND DUP3 MSTORE PUSH1 0x0 PUSH1 0x20 DUP3 ADD MLOAD PUSH1 0xE0 PUSH1 0x20 DUP6 ADD MSTORE PUSH3 0x3F62 PUSH1 0xE0 DUP6 ADD DUP3 PUSH3 0x3ECE JUMP JUMPDEST SWAP1 POP PUSH1 0x40 DUP4 ADD MLOAD PUSH1 0x40 DUP6 ADD MSTORE PUSH1 0x60 DUP4 ADD MLOAD PUSH1 0x60 DUP6 ADD MSTORE PUSH1 0x80 DUP4 ADD MLOAD DUP5 DUP3 SUB PUSH1 0x80 DUP7 ADD MSTORE PUSH3 0x3F91 DUP3 DUP3 PUSH3 0x3EFC JUMP JUMPDEST SWAP2 POP POP PUSH1 0xA0 DUP4 ADD MLOAD PUSH1 0xA0 DUP6 ADD MSTORE PUSH1 0xC0 DUP4 ADD MLOAD PUSH1 0xC0 DUP6 ADD MSTORE DUP1 SWAP2 POP POP SWAP3 SWAP2 POP POP JUMP JUMPDEST PUSH1 0x0 PUSH1 0x20 DUP1 DUP4 ADD DUP2 DUP5 MSTORE DUP1 DUP6 MLOAD DUP1 DUP4 MSTORE PUSH1 0x40 DUP7 ADD SWAP2 POP PUSH1 0x40 DUP2 PUSH1 0x5 SHL DUP8 ADD ADD SWAP3 POP DUP4 DUP8 ADD PUSH1 0x0 JUMPDEST DUP3 DUP2 LT ISZERO PUSH3 0x400B JUMPI PUSH1 0x3F NOT DUP9 DUP7 SUB ADD DUP5 MSTORE PUSH3 0x3FF8 DUP6 DUP4 MLOAD PUSH3 0x3F39 JUMP JUMPDEST SWAP5 POP SWAP3 DUP6 ADD SWAP3 SWAP1 DUP6 ADD SWAP1 PUSH1 0x1 ADD PUSH3 0x3FD9 JUMP JUMPDEST POP SWAP3 SWAP8 SWAP7 POP POP POP POP POP POP POP JUMP JUMPDEST PUSH1 0x0 DUP1 PUSH1 0x40 DUP4 DUP6 SUB SLT ISZERO PUSH3 0x402C JUMPI PUSH1 0x0 DUP1 REVERT JUMPDEST DUP3 CALLDATALOAD PUSH3 0x4039 DUP2 PUSH3 0x3E48 JUMP JUMPDEST SWAP5 PUSH1 0x20 SWAP4 SWAP1 SWAP4 ADD CALLDATALOAD SWAP4 POP POP POP JUMP JUMPDEST DUP1 ISZERO ISZERO DUP2 EQ PUSH3 0x3E5E JUMPI PUSH1 0x0 DUP1 REVERT JUMPDEST PUSH1 0x0 DUP1 PUSH1 0x40 DUP4 DUP6 SUB SLT ISZERO PUSH3 0x406A JUMPI PUSH1 0x0 DUP1 REVERT JUMPDEST DUP3 CALLDATALOAD PUSH3 0x4077 DUP2 PUSH3 0x3E48 JUMP JUMPDEST SWAP2 POP PUSH1 0x20 DUP4 ADD CALLDATALOAD PUSH3 0x4089 DUP2 PUSH3 0x4047 JUMP JUMPDEST DUP1 SWAP2 POP POP SWAP3 POP SWAP3 SWAP1 POP JUMP JUMPDEST PUSH1 0x0 DUP1 PUSH1 0x40 DUP4 DUP6 SUB SLT ISZERO PUSH3 0x40A8 JUMPI PUSH1 0x0 DUP1 REVERT JUMPDEST POP POP DUP1 CALLDATALOAD SWAP3 PUSH1 0x20 SWAP1 SWAP2 ADD CALLDATALOAD SWAP2 POP JUMP JUMPDEST PUSH1 0x1 DUP1 PUSH1 0xA0 SHL SUB DUP2 MLOAD AND DUP3 MSTORE PUSH1 0x20 DUP2 ADD MLOAD PUSH1 0x20 DUP4 ADD MSTORE PUSH1 0x0 PUSH1 0x40 DUP3 ADD MLOAD PUSH1 0xC0 PUSH1 0x40 DUP6 ADD MSTORE PUSH3 0x40EA PUSH1 0xC0 DUP6 ADD DUP3 PUSH3 0x3EFC JUMP JUMPDEST SWAP1 POP PUSH1 0x60 DUP4 ADD MLOAD PUSH1 0x60 DUP6 ADD MSTORE PUSH1 0x80 DUP4 ADD MLOAD PUSH1 0x80 DUP6 ADD MSTORE PUSH1 0xA0 DUP4 ADD MLOAD ISZERO ISZERO PUSH1 0xA0 DUP6 ADD MSTORE DUP1 SWAP2 POP POP SWAP3 SWAP2 POP POP JUMP JUMPDEST PUSH1 0x0 PUSH1 0x20 DUP1 DUP4 ADD DUP2 DUP5 MSTORE DUP1 DUP6 MLOAD DUP1 DUP4 MSTORE PUSH1 0x40 DUP7 ADD SWAP2 POP PUSH1 0x40 DUP2 PUSH1 0x5 SHL DUP8 ADD ADD SWAP3 POP DUP4 DUP8 ADD PUSH1 0x0 JUMPDEST DUP3 DUP2 LT ISZERO PUSH3 0x400B JUMPI PUSH1 0x3F NOT DUP9 DUP7 SUB ADD DUP5 MSTORE PUSH3 0x415C DUP6 DUP4 MLOAD PUSH3 0x40B7 JUMP JUMPDEST SWAP5 POP SWAP3 DUP6 ADD SWAP3 SWAP1 DUP6 ADD SWAP1 PUSH1 0x1 ADD PUSH3 0x413D JUMP JUMPDEST PUSH4 0x4E487B71 PUSH1 0xE0 SHL PUSH1 0x0 MSTORE PUSH1 0x41 PUSH1 0x4 MSTORE PUSH1 0x24 PUSH1 0x0 REVERT JUMPDEST PUSH1 0x40 MLOAD PUSH1 0x1F DUP3 ADD PUSH1 0x1F NOT AND DUP2 ADD PUSH8 0xFFFFFFFFFFFFFFFF DUP2 GT DUP3 DUP3 LT OR ISZERO PUSH3 0x41B1 JUMPI PUSH3 0x41B1 PUSH3 0x416F JUMP JUMPDEST PUSH1 0x40 MSTORE SWAP2 SWAP1 POP JUMP JUMPDEST PUSH1 0x0 PUSH8 0xFFFFFFFFFFFFFFFF DUP3 GT ISZERO PUSH3 0x41D6 JUMPI PUSH3 0x41D6 PUSH3 0x416F JUMP JUMPDEST POP PUSH1 0x1F ADD PUSH1 0x1F NOT AND PUSH1 0x20 ADD SWAP1 JUMP JUMPDEST PUSH1 0x0 DUP3 PUSH1 0x1F DUP4 ADD SLT PUSH3 0x41F6 JUMPI PUSH1 0x0 DUP1 REVERT JUMPDEST DUP2 CALLDATALOAD PUSH3 0x420D PUSH3 0x4207 DUP3 PUSH3 0x41B9 JUMP JUMPDEST PUSH3 0x4185 JUMP JUMPDEST DUP2 DUP2 MSTORE DUP5 PUSH1 0x20 DUP4 DUP7 ADD ADD GT ISZERO PUSH3 0x4223 JUMPI PUSH1 0x0 DUP1 REVERT JUMPDEST DUP2 PUSH1 0x20 DUP6 ADD PUSH1 0x20 DUP4 ADD CALLDATACOPY PUSH1 0x0 SWAP2 DUP2 ADD PUSH1 0x20 ADD SWAP2 SWAP1 SWAP2 MSTORE SWAP4 SWAP3 POP POP POP JUMP JUMPDEST PUSH1 0x0 DUP1 PUSH1 0x40 DUP4 DUP6 SUB SLT ISZERO PUSH3 0x4254 JUMPI PUSH1 0x0 DUP1 REVERT JUMPDEST DUP3 CALLDATALOAD PUSH3 0x4261 DUP2 PUSH3 0x3E48 JUMP JUMPDEST SWAP2 POP PUSH1 0x20 DUP4 ADD CALLDATALOAD PUSH8 0xFFFFFFFFFFFFFFFF DUP2 GT ISZERO PUSH3 0x427E JUMPI PUSH1 0x0 DUP1 REVERT JUMPDEST PUSH3 0x428C DUP6 DUP3 DUP7 ADD PUSH3 0x41E4 JUMP JUMPDEST SWAP2 POP POP SWAP3 POP SWAP3 SWAP1 POP JUMP JUMPDEST PUSH1 0x0 DUP1 PUSH1 0x0 PUSH1 0x60 DUP5 DUP7 SUB SLT ISZERO PUSH3 0x42AC JUMPI PUSH1 0x0 DUP1 REVERT JUMPDEST DUP4 CALLDATALOAD PUSH3 0x42B9 DUP2 PUSH3 0x3E48 JUMP JUMPDEST SWAP6 PUSH1 0x20 DUP6 ADD CALLDATALOAD SWAP6 POP PUSH1 0x40 SWAP1 SWAP5 ADD CALLDATALOAD SWAP4 SWAP3 POP POP POP JUMP JUMPDEST PUSH1 0x0 PUSH2 0x120 DUP3 MLOAD DUP5 MSTORE PUSH1 0x20 DUP4 ADD MLOAD PUSH1 0x20 DUP6 ADD MSTORE PUSH1 0x1 DUP1 PUSH1 0xA0 SHL SUB PUSH1 0x40 DUP5 ADD MLOAD AND PUSH1 0x40 DUP6 ADD MSTORE PUSH1 0x60 DUP4 ADD MLOAD PUSH3 0x430E PUSH1 0x60 DUP7 ADD DUP3 PUSH1 0x1 PUSH1 0x1 PUSH1 0xA0 SHL SUB AND SWAP1 MSTORE JUMP JUMPDEST POP PUSH1 0x80 DUP4 ADD MLOAD PUSH1 0x80 DUP6 ADD MSTORE PUSH1 0xA0 DUP4 ADD MLOAD PUSH1 0xA0 DUP6 ADD MSTORE PUSH1 0xC0 DUP4 ADD MLOAD PUSH1 0xC0 DUP6 ADD MSTORE PUSH1 0xE0 DUP4 ADD MLOAD PUSH3 0x4348 PUSH1 0xE0 DUP7 ADD DUP3 PUSH1 0x1 PUSH1 0x1 PUSH1 0xA0 SHL SUB AND SWAP1 MSTORE JUMP JUMPDEST POP PUSH2 0x100 DUP1 DUP5 ADD MLOAD DUP3 DUP3 DUP8 ADD MSTORE PUSH3 0x4363 DUP4 DUP8 ADD DUP3 PUSH3 0x3ECE JUMP JUMPDEST SWAP7 SWAP6 POP POP POP POP POP POP JUMP JUMPDEST PUSH1 0x0 PUSH1 0x20 DUP1 DUP4 ADD DUP2 DUP5 MSTORE DUP1 DUP6 MLOAD DUP1 DUP4 MSTORE PUSH1 0x40 DUP7 ADD SWAP2 POP PUSH1 0x40 DUP2 PUSH1 0x5 SHL DUP8 ADD ADD SWAP3 POP DUP4 DUP8 ADD PUSH1 0x0 JUMPDEST DUP3 DUP2 LT ISZERO PUSH3 0x400B JUMPI PUSH1 0x3F NOT DUP9 DUP7 SUB ADD DUP5 MSTORE PUSH3 0x43B3 DUP6 DUP4 MLOAD PUSH3 0x42CE JUMP JUMPDEST SWAP5 POP SWAP3 DUP6 ADD SWAP3 SWAP1 DUP6 ADD SWAP1 PUSH1 0x1 ADD PUSH3 0x4394 JUMP JUMPDEST PUSH1 0x0 PUSH1 0x20 DUP1 DUP4 ADD DUP2 DUP5 MSTORE DUP1 DUP6 MLOAD DUP1 DUP4 MSTORE PUSH1 0x40 SWAP3 POP DUP3 DUP7 ADD SWAP2 POP DUP3 DUP2 PUSH1 0x5 SHL DUP8 ADD ADD DUP5 DUP9 ADD PUSH1 0x0 JUMPDEST DUP4 DUP2 LT ISZERO PUSH3 0x4456 JUMPI DUP9 DUP4 SUB PUSH1 0x3F NOT ADD DUP6 MSTORE DUP2 MLOAD DUP1 MLOAD PUSH1 0x1 PUSH1 0x1 PUSH1 0xA0 SHL SUB SWAP1 DUP2 AND DUP6 MSTORE DUP9 DUP3 ADD MLOAD AND DUP9 DUP6 ADD MSTORE DUP7 DUP2 ADD MLOAD PUSH1 0x80 DUP9 DUP7 ADD DUP2 SWAP1 MSTORE SWAP1 PUSH3 0x4434 DUP3 DUP8 ADD DUP3 PUSH3 0x3ECE JUMP JUMPDEST PUSH1 0x60 SWAP4 DUP5 ADD MLOAD SWAP7 SWAP1 SWAP4 ADD SWAP6 SWAP1 SWAP6 MSTORE POP SWAP5 DUP8 ADD SWAP5 SWAP3 POP SWAP1 DUP7 ADD SWAP1 PUSH1 0x1 ADD PUSH3 0x43ED JUMP JUMPDEST POP SWAP1 SWAP9 SWAP8 POP POP POP POP POP POP POP POP JUMP JUMPDEST PUSH1 0x20 DUP1 DUP3 MSTORE DUP3 MLOAD DUP3 DUP3 ADD DUP2 SWAP1 MSTORE PUSH1 0x0 SWAP2 SWAP1 DUP5 DUP3 ADD SWAP1 PUSH1 0x40 DUP6 ADD SWAP1 DUP5 JUMPDEST DUP2 DUP2 LT ISZERO PUSH3 0x44A7 JUMPI DUP4 MLOAD PUSH1 0x1 PUSH1 0x1 PUSH1 0xA0 SHL SUB AND DUP4 MSTORE SWAP3 DUP5 ADD SWAP3 SWAP2 DUP5 ADD SWAP2 PUSH1 0x1 ADD PUSH3 0x4480 JUMP JUMPDEST POP SWAP1 SWAP7 SWAP6 POP POP POP POP POP POP JUMP JUMPDEST PUSH1 0x0 PUSH2 0x120 DUP12 DUP4 MSTORE DUP11 PUSH1 0x20 DUP5 ADD MSTORE PUSH1 0x1 DUP1 PUSH1 0xA0 SHL SUB DUP1 DUP12 AND PUSH1 0x40 DUP6 ADD MSTORE DUP1 DUP11 AND PUSH1 0x60 DUP6 ADD MSTORE DUP9 PUSH1 0x80 DUP6 ADD MSTORE DUP8 PUSH1 0xA0 DUP6 ADD MSTORE DUP7 PUSH1 0xC0 DUP6 ADD MSTORE DUP1 DUP7 AND PUSH1 0xE0 DUP6 ADD MSTORE POP DUP1 PUSH2 0x100 DUP5 ADD MSTORE PUSH3 0x4508 DUP2 DUP5 ADD DUP6 PUSH3 0x3ECE JUMP JUMPDEST SWAP13 SWAP12 POP POP POP POP POP POP POP POP POP POP POP POP JUMP JUMPDEST PUSH1 0x20 DUP2 MSTORE PUSH1 0x0 PUSH3 0x2FFF PUSH1 0x20 DUP4 ADD DUP5 PUSH3 0x42CE JUMP JUMPDEST PUSH1 0x20 DUP2 MSTORE PUSH1 0x0 PUSH3 0x2FFF PUSH1 0x20 DUP4 ADD DUP5 PUSH3 0x3ECE JUMP JUMPDEST PUSH1 0x20 DUP2 MSTORE PUSH1 0x0 PUSH3 0x2FFF PUSH1 0x20 DUP4 ADD DUP5 PUSH3 0x40B7 JUMP JUMPDEST PUSH1 0x0 DUP1 PUSH1 0x0 PUSH1 0x60 DUP5 DUP7 SUB SLT ISZERO PUSH3 0x456D JUMPI PUSH1 0x0 DUP1 REVERT JUMPDEST DUP4 CALLDATALOAD SWAP3 POP PUSH1 0x20 DUP5 ADD CALLDATALOAD SWAP2 POP PUSH1 0x40 DUP5 ADD CALLDATALOAD PUSH8 0xFFFFFFFFFFFFFFFF DUP2 GT ISZERO PUSH3 0x4593 JUMPI PUSH1 0x0 DUP1 REVERT JUMPDEST PUSH3 0x45A1 DUP7 DUP3 DUP8 ADD PUSH3 0x41E4 JUMP JUMPDEST SWAP2 POP POP SWAP3 POP SWAP3 POP SWAP3 JUMP JUMPDEST PUSH1 0x20 DUP2 MSTORE PUSH1 0x0 PUSH3 0x2FFF PUSH1 0x20 DUP4 ADD DUP5 PUSH3 0x3F39 JUMP JUMPDEST SWAP2 DUP3 MSTORE PUSH1 0x1 PUSH1 0x1 PUSH1 0xA0 SHL SUB AND PUSH1 0x20 DUP3 ADD MSTORE PUSH1 0x40 ADD SWAP1 JUMP JUMPDEST PUSH1 0x0 PUSH1 0x20 DUP3 DUP5 SUB SLT ISZERO PUSH3 0x45EA JUMPI PUSH1 0x0 DUP1 REVERT JUMPDEST DUP2 MLOAD PUSH3 0x2FFF DUP2 PUSH3 0x4047 JUMP JUMPDEST PUSH1 0x20 DUP1 DUP3 MSTORE PUSH1 0x11 SWAP1 DUP3 ADD MSTORE PUSH17 0x4F6E6C7920666F72206D616E6167657273 PUSH1 0x78 SHL PUSH1 0x40 DUP3 ADD MSTORE PUSH1 0x60 ADD SWAP1 JUMP JUMPDEST PUSH1 0x0 PUSH1 0x20 DUP3 DUP5 SUB SLT ISZERO PUSH3 0x4635 JUMPI PUSH1 0x0 DUP1 REVERT JUMPDEST POP MLOAD SWAP2 SWAP1 POP JUMP JUMPDEST PUSH1 0x0 PUSH1 0x20 DUP3 DUP5 SUB SLT ISZERO PUSH3 0x464F JUMPI PUSH1 0x0 DUP1 REVERT JUMPDEST DUP2 MLOAD PUSH3 0x2FFF DUP2 PUSH3 0x3E48 JUMP JUMPDEST PUSH4 0x4E487B71 PUSH1 0xE0 SHL PUSH1 0x0 MSTORE PUSH1 0x32 PUSH1 0x4 MSTORE PUSH1 0x24 PUSH1 0x0 REVERT JUMPDEST PUSH4 0x4E487B71 PUSH1 0xE0 SHL PUSH1 0x0 MSTORE PUSH1 0x11 PUSH1 0x4 MSTORE PUSH1 0x24 PUSH1 0x0 REVERT JUMPDEST PUSH1 0x0 PUSH1 0x0 NOT DUP3 EQ ISZERO PUSH3 0x469F JUMPI PUSH3 0x469F PUSH3 0x4672 JUMP JUMPDEST POP PUSH1 0x1 ADD SWAP1 JUMP JUMPDEST PUSH1 0x0 DUP3 NOT DUP3 GT ISZERO PUSH3 0x46BC JUMPI PUSH3 0x46BC PUSH3 0x4672 JUMP JUMPDEST POP ADD SWAP1 JUMP JUMPDEST PUSH1 0x0 DUP3 DUP3 LT ISZERO PUSH3 0x46D6 JUMPI PUSH3 0x46D6 PUSH3 0x4672 JUMP JUMPDEST POP SUB SWAP1 JUMP JUMPDEST PUSH1 0x0 PUSH1 0x20 DUP3 DUP5 SUB SLT ISZERO PUSH3 0x46EE JUMPI PUSH1 0x0 DUP1 REVERT JUMPDEST DUP2 MLOAD PUSH1 0xFF DUP2 AND DUP2 EQ PUSH3 0x2FFF JUMPI PUSH1 0x0 DUP1 REVERT JUMPDEST PUSH1 0x20 DUP1 DUP3 MSTORE PUSH1 0xE SWAP1 DUP3 ADD MSTORE PUSH14 0x27B7363C903337B91037BBB732B9 PUSH1 0x91 SHL PUSH1 0x40 DUP3 ADD MSTORE PUSH1 0x60 ADD SWAP1 JUMP JUMPDEST PUSH1 0x0 PUSH1 0x20 DUP1 DUP4 DUP6 SUB SLT ISZERO PUSH3 0x473C JUMPI PUSH1 0x0 DUP1 REVERT JUMPDEST DUP3 MLOAD PUSH8 0xFFFFFFFFFFFFFFFF DUP1 DUP3 GT ISZERO PUSH3 0x4755 JUMPI PUSH1 0x0 DUP1 REVERT JUMPDEST DUP2 DUP6 ADD SWAP2 POP DUP6 PUSH1 0x1F DUP4 ADD SLT PUSH3 0x476A JUMPI PUSH1 0x0 DUP1 REVERT JUMPDEST DUP2 MLOAD DUP2 DUP2 GT ISZERO PUSH3 0x477F JUMPI PUSH3 0x477F PUSH3 0x416F JUMP JUMPDEST DUP1 PUSH1 0x5 SHL SWAP2 POP PUSH3 0x4792 DUP5 DUP4 ADD PUSH3 0x4185 JUMP JUMPDEST DUP2 DUP2 MSTORE SWAP2 DUP4 ADD DUP5 ADD SWAP2 DUP5 DUP2 ADD SWAP1 DUP9 DUP5 GT ISZERO PUSH3 0x47AD JUMPI PUSH1 0x0 DUP1 REVERT JUMPDEST SWAP4 DUP6 ADD SWAP4 JUMPDEST DUP4 DUP6 LT ISZERO PUSH3 0x47DB JUMPI DUP5 MLOAD SWAP3 POP PUSH3 0x47CA DUP4 PUSH3 0x3E48 JUMP JUMPDEST DUP3 DUP3 MSTORE SWAP4 DUP6 ADD SWAP4 SWAP1 DUP6 ADD SWAP1 PUSH3 0x47B2 JUMP JUMPDEST SWAP9 SWAP8 POP POP POP POP POP POP POP POP JUMP JUMPDEST PUSH1 0x1 DUP2 DUP2 SHR SWAP1 DUP3 AND DUP1 PUSH3 0x47FC JUMPI PUSH1 0x7F DUP3 AND SWAP2 POP JUMPDEST PUSH1 0x20 DUP3 LT DUP2 EQ ISZERO PUSH3 0x11DD JUMPI PUSH4 0x4E487B71 PUSH1 0xE0 SHL PUSH1 0x0 MSTORE PUSH1 0x22 PUSH1 0x4 MSTORE PUSH1 0x24 PUSH1 0x0 REVERT JUMPDEST PUSH1 0x0 PUSH1 0x20 DUP3 DUP5 SUB SLT ISZERO PUSH3 0x4831 JUMPI PUSH1 0x0 DUP1 REVERT JUMPDEST DUP2 MLOAD PUSH8 0xFFFFFFFFFFFFFFFF DUP2 GT ISZERO PUSH3 0x4849 JUMPI PUSH1 0x0 DUP1 REVERT JUMPDEST DUP3 ADD PUSH1 0x1F DUP2 ADD DUP5 SGT PUSH3 0x485B JUMPI PUSH1 0x0 DUP1 REVERT JUMPDEST DUP1 MLOAD PUSH3 0x486C PUSH3 0x4207 DUP3 PUSH3 0x41B9 JUMP JUMPDEST DUP2 DUP2 MSTORE DUP6 PUSH1 0x20 DUP4 DUP6 ADD ADD GT ISZERO PUSH3 0x4882 JUMPI PUSH1 0x0 DUP1 REVERT JUMPDEST PUSH3 0x4895 DUP3 PUSH1 0x20 DUP4 ADD PUSH1 0x20 DUP7 ADD PUSH3 0x3E9B JUMP JUMPDEST SWAP6 SWAP5 POP POP POP POP POP JUMP JUMPDEST PUSH1 0x1 PUSH1 0x1 PUSH1 0xA0 SHL SUB DUP9 DUP2 AND DUP3 MSTORE DUP8 AND PUSH1 0x20 DUP1 DUP4 ADD SWAP2 SWAP1 SWAP2 MSTORE PUSH1 0x40 DUP3 ADD DUP8 SWAP1 MSTORE PUSH1 0x60 DUP3 ADD DUP7 SWAP1 MSTORE PUSH1 0x80 DUP3 ADD DUP6 SWAP1 MSTORE PUSH1 0xE0 PUSH1 0xA0 DUP4 ADD MSTORE DUP4 SLOAD PUSH1 0x0 SWAP2 DUP3 SWAP2 PUSH1 0x1 DUP2 DUP2 SHR SWAP1 DUP3 DUP2 AND DUP1 PUSH3 0x48EF JUMPI PUSH1 0x7F DUP4 AND SWAP3 POP JUMPDEST DUP5 DUP4 LT DUP2 EQ ISZERO PUSH3 0x490E JUMPI PUSH4 0x4E487B71 PUSH1 0xE0 SHL DUP7 MSTORE PUSH1 0x22 PUSH1 0x4 MSTORE PUSH1 0x24 DUP7 REVERT JUMPDEST PUSH1 0xE0 DUP9 ADD DUP4 SWAP1 MSTORE PUSH2 0x100 DUP9 ADD DUP2 DUP1 ISZERO PUSH3 0x4931 JUMPI PUSH1 0x1 DUP2 EQ PUSH3 0x4943 JUMPI PUSH3 0x4970 JUMP JUMPDEST PUSH1 0xFF NOT DUP7 AND DUP3 MSTORE DUP7 DUP3 ADD SWAP8 POP PUSH3 0x4970 JUMP JUMPDEST PUSH1 0x0 DUP13 DUP2 MSTORE PUSH1 0x20 SWAP1 KECCAK256 PUSH1 0x0 JUMPDEST DUP7 DUP2 LT ISZERO PUSH3 0x496A JUMPI DUP2 SLOAD DUP5 DUP3 ADD MSTORE SWAP1 DUP6 ADD SWAP1 DUP9 ADD PUSH3 0x494F JUMP JUMPDEST DUP4 ADD SWAP9 POP POP JUMPDEST POP POP POP POP POP POP POP DUP3 DUP2 SUB PUSH1 0xC0 DUP5 ADD MSTORE PUSH3 0x498B DUP2 DUP6 PUSH3 0x3ECE JUMP JUMPDEST SWAP11 SWAP10 POP POP POP POP POP POP POP POP POP POP JUMP INVALID PUSH1 0x80 PUSH1 0x40 MSTORE PUSH1 0xB DUP1 SLOAD PUSH1 0xFF NOT AND SWAP1 SSTORE CALLVALUE DUP1 ISZERO PUSH3 0x1B JUMPI PUSH1 0x0 DUP1 REVERT JUMPDEST POP PUSH1 0x40 MLOAD PUSH3 0xB17 CODESIZE SUB DUP1 PUSH3 0xB17 DUP4 CODECOPY DUP2 ADD PUSH1 0x40 DUP2 SWAP1 MSTORE PUSH3 0x3E SWAP2 PUSH3 0x3EE JUMP JUMPDEST PUSH1 0x0 DUP1 SLOAD CALLER PUSH1 0x1 PUSH1 0x1 PUSH1 0xA0 SHL SUB NOT SWAP2 DUP3 AND OR DUP3 SSTORE PUSH1 0x2 DUP1 SLOAD DUP3 AND PUSH1 0x1 PUSH1 0x1 PUSH1 0xA0 SHL SUB DUP11 DUP2 AND SWAP2 SWAP1 SWAP2 OR SWAP1 SWAP2 SSTORE PUSH1 0x3 DUP9 SWAP1 SSTORE PUSH1 0x9 DUP8 SWAP1 SSTORE PUSH1 0xA DUP7 SWAP1 SSTORE PUSH1 0x1 DUP1 SLOAD SWAP1 SWAP3 AND SWAP1 DUP11 AND SWAP1 DUP2 OR SWAP1 SWAP2 SSTORE PUSH1 0x40 DUP1 MLOAD PUSH4 0x6FDDE03 PUSH1 0xE0 SHL DUP2 MSTORE SWAP1 MLOAD SWAP2 SWAP3 PUSH4 0x6FDDE03 SWAP3 PUSH1 0x4 DUP1 DUP5 ADD SWAP4 DUP3 SWAP1 SUB ADD DUP2 DUP7 GAS STATICCALL ISZERO DUP1 ISZERO PUSH3 0xC1 JUMPI RETURNDATASIZE PUSH1 0x0 DUP1 RETURNDATACOPY RETURNDATASIZE PUSH1 0x0 REVERT JUMPDEST POP POP POP POP PUSH1 0x40 MLOAD RETURNDATASIZE PUSH1 0x0 DUP3 RETURNDATACOPY PUSH1 0x1F RETURNDATASIZE SWAP1 DUP2 ADD PUSH1 0x1F NOT AND DUP3 ADD PUSH1 0x40 MSTORE PUSH3 0xEB SWAP2 SWAP1 DUP2 ADD SWAP1 PUSH3 0x49C JUMP JUMPDEST DUP1 MLOAD PUSH3 0x101 SWAP2 PUSH1 0x4 SWAP2 PUSH1 0x20 SWAP1 SWAP2 ADD SWAP1 PUSH3 0x25E JUMP JUMPDEST POP PUSH1 0x1 PUSH1 0x0 SWAP1 SLOAD SWAP1 PUSH2 0x100 EXP SWAP1 DIV PUSH1 0x1 PUSH1 0x1 PUSH1 0xA0 SHL SUB AND PUSH1 0x1 PUSH1 0x1 PUSH1 0xA0 SHL SUB AND PUSH4 0x95D89B41 PUSH1 0x40 MLOAD DUP2 PUSH4 0xFFFFFFFF AND PUSH1 0xE0 SHL DUP2 MSTORE PUSH1 0x4 ADD PUSH1 0x0 PUSH1 0x40 MLOAD DUP1 DUP4 SUB DUP2 DUP7 GAS STATICCALL ISZERO DUP1 ISZERO PUSH3 0x156 JUMPI RETURNDATASIZE PUSH1 0x0 DUP1 RETURNDATACOPY RETURNDATASIZE PUSH1 0x0 REVERT JUMPDEST POP POP POP POP PUSH1 0x40 MLOAD RETURNDATASIZE PUSH1 0x0 DUP3 RETURNDATACOPY PUSH1 0x1F RETURNDATASIZE SWAP1 DUP2 ADD PUSH1 0x1F NOT AND DUP3 ADD PUSH1 0x40 MSTORE PUSH3 0x180 SWAP2 SWAP1 DUP2 ADD SWAP1 PUSH3 0x49C JUMP JUMPDEST DUP1 MLOAD PUSH3 0x196 SWAP2 PUSH1 0x5 SWAP2 PUSH1 0x20 SWAP1 SWAP2 ADD SWAP1 PUSH3 0x25E JUMP JUMPDEST POP PUSH1 0x1 PUSH1 0x0 SWAP1 SLOAD SWAP1 PUSH2 0x100 EXP SWAP1 DIV PUSH1 0x1 PUSH1 0x1 PUSH1 0xA0 SHL SUB AND PUSH1 0x1 PUSH1 0x1 PUSH1 0xA0 SHL SUB AND PUSH4 0x313CE567 PUSH1 0x40 MLOAD DUP2 PUSH4 0xFFFFFFFF AND PUSH1 0xE0 SHL DUP2 MSTORE PUSH1 0x4 ADD PUSH1 0x20 PUSH1 0x40 MLOAD DUP1 DUP4 SUB DUP2 DUP7 GAS STATICCALL ISZERO DUP1 ISZERO PUSH3 0x1EB JUMPI RETURNDATASIZE PUSH1 0x0 DUP1 RETURNDATACOPY RETURNDATASIZE PUSH1 0x0 REVERT JUMPDEST POP POP POP POP PUSH1 0x40 MLOAD RETURNDATASIZE PUSH1 0x1F NOT PUSH1 0x1F DUP3 ADD AND DUP3 ADD DUP1 PUSH1 0x40 MSTORE POP DUP2 ADD SWAP1 PUSH3 0x211 SWAP2 SWAP1 PUSH3 0x4DC JUMP JUMPDEST PUSH1 0x6 DUP1 SLOAD PUSH1 0xFF NOT AND PUSH1 0xFF SWAP3 SWAP1 SWAP3 AND SWAP2 SWAP1 SWAP2 OR SWAP1 SSTORE DUP2 MLOAD PUSH3 0x23A SWAP1 PUSH1 0x7 SWAP1 PUSH1 0x20 DUP6 ADD SWAP1 PUSH3 0x25E JUMP JUMPDEST POP DUP1 MLOAD PUSH3 0x250 SWAP1 PUSH1 0x8 SWAP1 PUSH1 0x20 DUP5 ADD SWAP1 PUSH3 0x25E JUMP JUMPDEST POP POP POP POP POP POP POP POP PUSH3 0x545 JUMP JUMPDEST DUP3 DUP1 SLOAD PUSH3 0x26C SWAP1 PUSH3 0x508 JUMP JUMPDEST SWAP1 PUSH1 0x0 MSTORE PUSH1 0x20 PUSH1 0x0 KECCAK256 SWAP1 PUSH1 0x1F ADD PUSH1 0x20 SWAP1 DIV DUP2 ADD SWAP3 DUP3 PUSH3 0x290 JUMPI PUSH1 0x0 DUP6 SSTORE PUSH3 0x2DB JUMP JUMPDEST DUP3 PUSH1 0x1F LT PUSH3 0x2AB JUMPI DUP1 MLOAD PUSH1 0xFF NOT AND DUP4 DUP1 ADD OR DUP6 SSTORE PUSH3 0x2DB JUMP JUMPDEST DUP3 DUP1 ADD PUSH1 0x1 ADD DUP6 SSTORE DUP3 ISZERO PUSH3 0x2DB JUMPI SWAP2 DUP3 ADD JUMPDEST DUP3 DUP2 GT ISZERO PUSH3 0x2DB JUMPI DUP3 MLOAD DUP3 SSTORE SWAP2 PUSH1 0x20 ADD SWAP2 SWAP1 PUSH1 0x1 ADD SWAP1 PUSH3 0x2BE JUMP JUMPDEST POP PUSH3 0x2E9 SWAP3 SWAP2 POP PUSH3 0x2ED JUMP JUMPDEST POP SWAP1 JUMP JUMPDEST JUMPDEST DUP1 DUP3 GT ISZERO PUSH3 0x2E9 JUMPI PUSH1 0x0 DUP2 SSTORE PUSH1 0x1 ADD PUSH3 0x2EE JUMP JUMPDEST DUP1 MLOAD PUSH1 0x1 PUSH1 0x1 PUSH1 0xA0 SHL SUB DUP2 AND DUP2 EQ PUSH3 0x31C JUMPI PUSH1 0x0 DUP1 REVERT JUMPDEST SWAP2 SWAP1 POP JUMP JUMPDEST PUSH4 0x4E487B71 PUSH1 0xE0 SHL PUSH1 0x0 MSTORE PUSH1 0x41 PUSH1 0x4 MSTORE PUSH1 0x24 PUSH1 0x0 REVERT JUMPDEST PUSH1 0x0 DUP3 PUSH1 0x1F DUP4 ADD SLT PUSH3 0x349 JUMPI PUSH1 0x0 DUP1 REVERT JUMPDEST DUP2 MLOAD PUSH1 0x1 PUSH1 0x1 PUSH1 0x40 SHL SUB DUP1 DUP3 GT ISZERO PUSH3 0x366 JUMPI PUSH3 0x366 PUSH3 0x321 JUMP JUMPDEST PUSH1 0x40 MLOAD PUSH1 0x1F DUP4 ADD PUSH1 0x1F NOT SWAP1 DUP2 AND PUSH1 0x3F ADD AND DUP2 ADD SWAP1 DUP3 DUP3 GT DUP2 DUP4 LT OR ISZERO PUSH3 0x391 JUMPI PUSH3 0x391 PUSH3 0x321 JUMP JUMPDEST DUP2 PUSH1 0x40 MSTORE DUP4 DUP2 MSTORE PUSH1 0x20 SWAP3 POP DUP7 DUP4 DUP6 DUP9 ADD ADD GT ISZERO PUSH3 0x3AE JUMPI PUSH1 0x0 DUP1 REVERT JUMPDEST PUSH1 0x0 SWAP2 POP JUMPDEST DUP4 DUP3 LT ISZERO PUSH3 0x3D2 JUMPI DUP6 DUP3 ADD DUP4 ADD MLOAD DUP2 DUP4 ADD DUP5 ADD MSTORE SWAP1 DUP3 ADD SWAP1 PUSH3 0x3B3 JUMP JUMPDEST DUP4 DUP3 GT ISZERO PUSH3 0x3E4 JUMPI PUSH1 0x0 DUP4 DUP6 DUP4 ADD ADD MSTORE JUMPDEST SWAP7 SWAP6 POP POP POP POP POP POP JUMP JUMPDEST PUSH1 0x0 DUP1 PUSH1 0x0 DUP1 PUSH1 0x0 DUP1 PUSH1 0x0 PUSH1 0xE0 DUP9 DUP11 SUB SLT ISZERO PUSH3 0x40A JUMPI PUSH1 0x0 DUP1 REVERT JUMPDEST PUSH3 0x415 DUP9 PUSH3 0x304 JUMP JUMPDEST SWAP7 POP PUSH3 0x425 PUSH1 0x20 DUP10 ADD PUSH3 0x304 JUMP JUMPDEST PUSH1 0x40 DUP10 ADD MLOAD PUSH1 0x60 DUP11 ADD MLOAD PUSH1 0x80 DUP12 ADD MLOAD PUSH1 0xA0 DUP13 ADD MLOAD SWAP4 SWAP10 POP SWAP2 SWAP8 POP SWAP6 POP SWAP4 POP PUSH1 0x1 PUSH1 0x1 PUSH1 0x40 SHL SUB DUP1 DUP3 GT ISZERO PUSH3 0x459 JUMPI PUSH1 0x0 DUP1 REVERT JUMPDEST PUSH3 0x467 DUP12 DUP4 DUP13 ADD PUSH3 0x337 JUMP JUMPDEST SWAP4 POP PUSH1 0xC0 DUP11 ADD MLOAD SWAP2 POP DUP1 DUP3 GT ISZERO PUSH3 0x47E JUMPI PUSH1 0x0 DUP1 REVERT JUMPDEST POP PUSH3 0x48D DUP11 DUP3 DUP12 ADD PUSH3 0x337 JUMP JUMPDEST SWAP2 POP POP SWAP3 SWAP6 SWAP9 SWAP2 SWAP5 SWAP8 POP SWAP3 SWAP6 POP JUMP JUMPDEST PUSH1 0x0 PUSH1 0x20 DUP3 DUP5 SUB SLT ISZERO PUSH3 0x4AF JUMPI PUSH1 0x0 DUP1 REVERT JUMPDEST DUP2 MLOAD PUSH1 0x1 PUSH1 0x1 PUSH1 0x40 SHL SUB DUP2 GT ISZERO PUSH3 0x4C6 JUMPI PUSH1 0x0 DUP1 REVERT JUMPDEST PUSH3 0x4D4 DUP5 DUP3 DUP6 ADD PUSH3 0x337 JUMP JUMPDEST SWAP5 SWAP4 POP POP POP POP JUMP JUMPDEST PUSH1 0x0 PUSH1 0x20 DUP3 DUP5 SUB SLT ISZERO PUSH3 0x4EF JUMPI PUSH1 0x0 DUP1 REVERT JUMPDEST DUP2 MLOAD PUSH1 0xFF DUP2 AND DUP2 EQ PUSH3 0x501 JUMPI PUSH1 0x0 DUP1 REVERT JUMPDEST SWAP4 SWAP3 POP POP POP JUMP JUMPDEST PUSH1 0x1 DUP2 DUP2 SHR SWAP1 DUP3 AND DUP1 PUSH3 0x51D JUMPI PUSH1 0x7F DUP3 AND SWAP2 POP JUMPDEST PUSH1 0x20 DUP3 LT DUP2 EQ ISZERO PUSH3 0x53F JUMPI PUSH4 0x4E487B71 PUSH1 0xE0 SHL PUSH1 0x0 MSTORE PUSH1 0x22 PUSH1 0x4 MSTORE PUSH1 0x24 PUSH1 0x0 REVERT JUMPDEST POP SWAP2 SWAP1 POP JUMP JUMPDEST PUSH2 0x5C2 DUP1 PUSH3 0x555 PUSH1 0x0 CODECOPY PUSH1 0x0 RETURN INVALID PUSH1 0x80 PUSH1 0x40 MSTORE CALLVALUE DUP1 ISZERO PUSH2 0x10 JUMPI PUSH1 0x0 DUP1 REVERT JUMPDEST POP PUSH1 0x4 CALLDATASIZE LT PUSH2 0xF5 JUMPI PUSH1 0x0 CALLDATALOAD PUSH1 0xE0 SHR DUP1 PUSH4 0x95D89B41 GT PUSH2 0x97 JUMPI DUP1 PUSH4 0xBB5D40EB GT PUSH2 0x66 JUMPI DUP1 PUSH4 0xBB5D40EB EQ PUSH2 0x1D0 JUMPI DUP1 PUSH4 0xC45A0155 EQ PUSH2 0x1D8 JUMPI DUP1 PUSH4 0xE21F37CE EQ PUSH2 0x1EB JUMPI DUP1 PUSH4 0xFC0C546A EQ PUSH2 0x1F3 JUMPI PUSH1 0x0 DUP1 REVERT JUMPDEST DUP1 PUSH4 0x95D89B41 EQ PUSH2 0x1AE JUMPI DUP1 PUSH4 0x9C6F0D85 EQ PUSH2 0x1B6 JUMPI DUP1 PUSH4 0xAA8C217C EQ PUSH2 0x1BF JUMPI DUP1 PUSH4 0xB39CB699 EQ PUSH2 0x1C8 JUMPI PUSH1 0x0 DUP1 REVERT JUMPDEST DUP1 PUSH4 0x1E83409A GT PUSH2 0xD3 JUMPI DUP1 PUSH4 0x1E83409A EQ PUSH2 0x14D JUMPI DUP1 PUSH4 0x313CE567 EQ PUSH2 0x160 JUMPI DUP1 PUSH4 0x57C9CA14 EQ PUSH2 0x17F JUMPI DUP1 PUSH4 0x7EB9385F EQ PUSH2 0x197 JUMPI PUSH1 0x0 DUP1 REVERT JUMPDEST DUP1 PUSH4 0x6FDDE03 EQ PUSH2 0xFA JUMPI DUP1 PUSH4 0x7546172 EQ PUSH2 0x118 JUMPI DUP1 PUSH4 0x162992C8 EQ PUSH2 0x143 JUMPI JUMPDEST PUSH1 0x0 DUP1 REVERT JUMPDEST PUSH2 0x102 PUSH2 0x206 JUMP JUMPDEST PUSH1 0x40 MLOAD PUSH2 0x10F SWAP2 SWAP1 PUSH2 0x484 JUMP JUMPDEST PUSH1 0x40 MLOAD DUP1 SWAP2 SUB SWAP1 RETURN JUMPDEST PUSH1 0x2 SLOAD PUSH2 0x12B SWAP1 PUSH1 0x1 PUSH1 0x1 PUSH1 0xA0 SHL SUB AND DUP2 JUMP JUMPDEST PUSH1 0x40 MLOAD PUSH1 0x1 PUSH1 0x1 PUSH1 0xA0 SHL SUB SWAP1 SWAP2 AND DUP2 MSTORE PUSH1 0x20 ADD PUSH2 0x10F JUMP JUMPDEST PUSH2 0x14B PUSH2 0x294 JUMP JUMPDEST STOP JUMPDEST PUSH2 0x14B PUSH2 0x15B CALLDATASIZE PUSH1 0x4 PUSH2 0x4D9 JUMP JUMPDEST PUSH2 0x2F0 JUMP JUMPDEST PUSH1 0x6 SLOAD PUSH2 0x16D SWAP1 PUSH1 0xFF AND DUP2 JUMP JUMPDEST PUSH1 0x40 MLOAD PUSH1 0xFF SWAP1 SWAP2 AND DUP2 MSTORE PUSH1 0x20 ADD PUSH2 0x10F JUMP JUMPDEST PUSH2 0x187 PUSH2 0x3B6 JUMP JUMPDEST PUSH1 0x40 MLOAD SWAP1 ISZERO ISZERO DUP2 MSTORE PUSH1 0x20 ADD PUSH2 0x10F JUMP JUMPDEST PUSH2 0x1A0 PUSH1 0xA SLOAD DUP2 JUMP JUMPDEST PUSH1 0x40 MLOAD SWAP1 DUP2 MSTORE PUSH1 0x20 ADD PUSH2 0x10F JUMP JUMPDEST PUSH2 0x102 PUSH2 0x428 JUMP JUMPDEST PUSH2 0x1A0 PUSH1 0x9 SLOAD DUP2 JUMP JUMPDEST PUSH2 0x1A0 PUSH1 0x3 SLOAD DUP2 JUMP JUMPDEST PUSH2 0x102 PUSH2 0x435 JUMP JUMPDEST PUSH2 0x187 PUSH2 0x442 JUMP JUMPDEST PUSH1 0x0 SLOAD PUSH2 0x12B SWAP1 PUSH1 0x1 PUSH1 0x1 PUSH1 0xA0 SHL SUB AND DUP2 JUMP JUMPDEST PUSH2 0x102 PUSH2 0x477 JUMP JUMPDEST PUSH1 0x1 SLOAD PUSH2 0x12B SWAP1 PUSH1 0x1 PUSH1 0x1 PUSH1 0xA0 SHL SUB AND DUP2 JUMP JUMPDEST PUSH1 0x4 DUP1 SLOAD PUSH2 0x213 SWAP1 PUSH2 0x509 JUMP JUMPDEST DUP1 PUSH1 0x1F ADD PUSH1 0x20 DUP1 SWAP2 DIV MUL PUSH1 0x20 ADD PUSH1 0x40 MLOAD SWAP1 DUP2 ADD PUSH1 0x40 MSTORE DUP1 SWAP3 SWAP2 SWAP1 DUP2 DUP2 MSTORE PUSH1 0x20 ADD DUP3 DUP1 SLOAD PUSH2 0x23F SWAP1 PUSH2 0x509 JUMP JUMPDEST DUP1 ISZERO PUSH2 0x28C JUMPI DUP1 PUSH1 0x1F LT PUSH2 0x261 JUMPI PUSH2 0x100 DUP1 DUP4 SLOAD DIV MUL DUP4 MSTORE SWAP2 PUSH1 0x20 ADD SWAP2 PUSH2 0x28C JUMP JUMPDEST DUP3 ADD SWAP2 SWAP1 PUSH1 0x0 MSTORE PUSH1 0x20 PUSH1 0x0 KECCAK256 SWAP1 JUMPDEST DUP2 SLOAD DUP2 MSTORE SWAP1 PUSH1 0x1 ADD SWAP1 PUSH1 0x20 ADD DUP1 DUP4 GT PUSH2 0x26F JUMPI DUP3 SWAP1 SUB PUSH1 0x1F AND DUP3 ADD SWAP2 JUMPDEST POP POP POP POP POP DUP2 JUMP JUMPDEST PUSH1 0x0 SLOAD PUSH1 0x1 PUSH1 0x1 PUSH1 0xA0 SHL SUB AND CALLER EQ PUSH2 0x2E1 JUMPI PUSH1 0x40 MLOAD PUSH3 0x461BCD PUSH1 0xE5 SHL DUP2 MSTORE PUSH1 0x20 PUSH1 0x4 DUP3 ADD MSTORE PUSH1 0xB PUSH1 0x24 DUP3 ADD MSTORE PUSH11 0x139BDD08185B1B1BDDD959 PUSH1 0xAA SHL PUSH1 0x44 DUP3 ADD MSTORE PUSH1 0x64 ADD JUMPDEST PUSH1 0x40 MLOAD DUP1 SWAP2 SUB SWAP1 REVERT JUMPDEST PUSH1 0xB DUP1 SLOAD PUSH1 0xFF NOT AND PUSH1 0x1 OR SWAP1 SSTORE JUMP JUMPDEST PUSH1 0xB SLOAD PUSH1 0xFF AND ISZERO PUSH2 0x336 JUMPI PUSH1 0x40 MLOAD PUSH3 0x461BCD PUSH1 0xE5 SHL DUP2 MSTORE PUSH1 0x20 PUSH1 0x4 DUP3 ADD MSTORE PUSH1 0x10 PUSH1 0x24 DUP3 ADD MSTORE PUSH16 0x145490DBD919481B9BDD081D985B1A59 PUSH1 0x82 SHL PUSH1 0x44 DUP3 ADD MSTORE PUSH1 0x64 ADD PUSH2 0x2D8 JUMP JUMPDEST PUSH1 0x0 SLOAD PUSH1 0x1 PUSH1 0x1 PUSH1 0xA0 SHL SUB SWAP1 DUP2 AND SWAP1 PUSH4 0x1E83409A SWAP1 DUP4 AND ISZERO PUSH2 0x358 JUMPI DUP3 PUSH2 0x35A JUMP JUMPDEST CALLER JUMPDEST PUSH1 0x40 MLOAD PUSH1 0x1 PUSH1 0x1 PUSH1 0xE0 SHL SUB NOT PUSH1 0xE0 DUP5 SWAP1 SHL AND DUP2 MSTORE PUSH1 0x1 PUSH1 0x1 PUSH1 0xA0 SHL SUB SWAP1 SWAP2 AND PUSH1 0x4 DUP3 ADD MSTORE PUSH1 0x24 ADD PUSH1 0x0 PUSH1 0x40 MLOAD DUP1 DUP4 SUB DUP2 PUSH1 0x0 DUP8 DUP1 EXTCODESIZE ISZERO DUP1 ISZERO PUSH2 0x39B JUMPI PUSH1 0x0 DUP1 REVERT JUMPDEST POP GAS CALL ISZERO DUP1 ISZERO PUSH2 0x3AF JUMPI RETURNDATASIZE PUSH1 0x0 DUP1 RETURNDATACOPY RETURNDATASIZE PUSH1 0x0 REVERT JUMPDEST POP POP POP POP POP JUMP JUMPDEST PUSH1 0x0 DUP1 SLOAD PUSH1 0x40 MLOAD PUSH4 0x2A4E4553 PUSH1 0xE0 SHL DUP2 MSTORE ADDRESS PUSH1 0x4 DUP3 ADD MSTORE PUSH1 0x1 PUSH1 0x1 PUSH1 0xA0 SHL SUB SWAP1 SWAP2 AND SWAP1 PUSH4 0x2A4E4553 SWAP1 PUSH1 0x24 ADD PUSH1 0x20 PUSH1 0x40 MLOAD DUP1 DUP4 SUB DUP2 DUP7 GAS STATICCALL ISZERO DUP1 ISZERO PUSH2 0x3FF JUMPI RETURNDATASIZE PUSH1 0x0 DUP1 RETURNDATACOPY RETURNDATASIZE PUSH1 0x0 REVERT JUMPDEST POP POP POP POP PUSH1 0x40 MLOAD RETURNDATASIZE PUSH1 0x1F NOT PUSH1 0x1F DUP3 ADD AND DUP3 ADD DUP1 PUSH1 0x40 MSTORE POP DUP2 ADD SWAP1 PUSH2 0x423 SWAP2 SWAP1 PUSH2 0x544 JUMP JUMPDEST SWAP1 POP SWAP1 JUMP JUMPDEST PUSH1 0x5 DUP1 SLOAD PUSH2 0x213 SWAP1 PUSH2 0x509 JUMP JUMPDEST PUSH1 0x7 DUP1 SLOAD PUSH2 0x213 SWAP1 PUSH2 0x509 JUMP JUMPDEST PUSH1 0xB SLOAD PUSH1 0x0 SWAP1 PUSH1 0xFF AND PUSH2 0x455 JUMPI POP PUSH1 0x0 SWAP1 JUMP JUMPDEST TIMESTAMP PUSH1 0xA SLOAD PUSH1 0x9 SLOAD PUSH2 0x466 SWAP2 SWAP1 PUSH2 0x566 JUMP JUMPDEST GT PUSH2 0x471 JUMPI POP PUSH1 0x0 SWAP1 JUMP JUMPDEST POP PUSH1 0x1 SWAP1 JUMP JUMPDEST PUSH1 0x8 DUP1 SLOAD PUSH2 0x213 SWAP1 PUSH2 0x509 JUMP JUMPDEST PUSH1 0x0 PUSH1 0x20 DUP1 DUP4 MSTORE DUP4 MLOAD DUP1 DUP3 DUP6 ADD MSTORE PUSH1 0x0 JUMPDEST DUP2 DUP2 LT ISZERO PUSH2 0x4B1 JUMPI DUP6 DUP2 ADD DUP4 ADD MLOAD DUP6 DUP3 ADD PUSH1 0x40 ADD MSTORE DUP3 ADD PUSH2 0x495 JUMP JUMPDEST DUP2 DUP2 GT ISZERO PUSH2 0x4C3 JUMPI PUSH1 0x0 PUSH1 0x40 DUP4 DUP8 ADD ADD MSTORE JUMPDEST POP PUSH1 0x1F ADD PUSH1 0x1F NOT AND SWAP3 SWAP1 SWAP3 ADD PUSH1 0x40 ADD SWAP4 SWAP3 POP POP POP JUMP JUMPDEST PUSH1 0x0 PUSH1 0x20 DUP3 DUP5 SUB SLT ISZERO PUSH2 0x4EB JUMPI PUSH1 0x0 DUP1 REVERT JUMPDEST DUP2 CALLDATALOAD PUSH1 0x1 PUSH1 0x1 PUSH1 0xA0 SHL SUB DUP2 AND DUP2 EQ PUSH2 0x502 JUMPI PUSH1 0x0 DUP1 REVERT JUMPDEST SWAP4 SWAP3 POP POP POP JUMP JUMPDEST PUSH1 0x1 DUP2 DUP2 SHR SWAP1 DUP3 AND DUP1 PUSH2 0x51D JUMPI PUSH1 0x7F DUP3 AND SWAP2 POP JUMPDEST PUSH1 0x20 DUP3 LT DUP2 EQ ISZERO PUSH2 0x53E JUMPI PUSH4 0x4E487B71 PUSH1 0xE0 SHL PUSH1 0x0 MSTORE PUSH1 0x22 PUSH1 0x4 MSTORE PUSH1 0x24 PUSH1 0x0 REVERT JUMPDEST POP SWAP2 SWAP1 POP JUMP JUMPDEST PUSH1 0x0 PUSH1 0x20 DUP3 DUP5 SUB SLT ISZERO PUSH2 0x556 JUMPI PUSH1 0x0 DUP1 REVERT JUMPDEST DUP2 MLOAD DUP1 ISZERO ISZERO DUP2 EQ PUSH2 0x502 JUMPI PUSH1 0x0 DUP1 REVERT JUMPDEST PUSH1 0x0 DUP3 NOT DUP3 GT ISZERO PUSH2 0x587 JUMPI PUSH4 0x4E487B71 PUSH1 0xE0 SHL PUSH1 0x0 MSTORE PUSH1 0x11 PUSH1 0x4 MSTORE PUSH1 0x24 PUSH1 0x0 REVERT JUMPDEST POP ADD SWAP1 JUMP INVALID LOG2 PUSH5 0x6970667358 0x22 SLT KECCAK256 0xE7 COINBASE PUSH25 0x47993029006CD89766A31A35610D0145A93AA8476D1123E0A8 DUP3 LT SHR DUP16 PUSH5 0x736F6C6343 STOP ADDMOD 0xC STOP CALLER LOG2 PUSH5 0x6970667358 0x22 SLT KECCAK256 0xE1 0xE9 DUP15 0x4C LOG3 0xB3 EXTCODESIZE SWAP8 0xE0 PUSH27 0xBE037B94296A10324733EADDBA1AF71ED531F16B9B6464736F6C63 NUMBER STOP ADDMOD 0xC STOP CALLER "
		},
		"gasEstimates": {
			"creation": {
				"codeDepositCost": "4346800",
				"executionCost": "infinite",
				"totalCost": "infinite"
			},
			"external": {
				"addClaimerBan(address,string)": "infinite",
				"addMinter(address,string)": "infinite",
				"addMinterBalance(address,uint256)": "infinite",
				"bannedClaimersWhen(address)": "2570",
				"bannedClaimersWho(address)": "2663",
				"bannedClaimersWhy(address)": "infinite",
				"claim(address)": "infinite",
				"claimedAmount(address)": "2594",
				"claimedByMinter(address)": "2636",
				"claimedFaucetUsed(address)": "2592",
				"claimedQrCodes(address,uint256)": "4862",
				"claimedQrCodesCount(address)": "2592",
				"codeTL()": "2374",
				"delClaimerBan(address)": "infinite",
				"faucetAmount()": "2418",
				"getAddressNativeBalance(address)": "3062",
				"getAddressTokenBalance(address)": "infinite",
				"getAllQrCodes()": "infinite",
				"getBannedClaimers(uint256,uint256)": "infinite",
				"getBannedClaimersCount()": "infinite",
				"getClaimedQrCodes(address,uint256,uint256)": "infinite",
				"getClaimerInfo(address)": "infinite",
				"getClaimers(uint256,uint256)": "infinite",
				"getClaimersCount()": "infinite",
				"getClaimersInfo(uint256,uint256)": "infinite",
				"getFaucetBalance()": "293",
				"getIsManager(address)": "infinite",
				"getIsMinter(address)": "infinite",
				"getManagers()": "infinite",
				"getManagersCount()": "infinite",
				"getMinterInfo(address)": "infinite",
				"getMinterQrCodes(address,uint256,uint256)": "infinite",
				"getMinters()": "infinite",
				"getMintersCount()": "infinite",
				"getMintersInfo()": "infinite",
				"getQrCode(uint256)": "infinite",
				"getQrCodeByAddress(address)": "infinite",
				"getTokenBalance()": "infinite",
				"getTokenDecimals()": "infinite",
				"getTokenName()": "infinite",
				"getTokenSymbol()": "infinite",
				"isQrCodeClaimed(address)": "7109",
				"maxMintAmountPerQrCodeGlobal()": "2396",
				"mint(uint256,uint256,string)": "infinite",
				"mintedAmount(address)": "2656",
				"mintedQrCodes(address,uint256)": "4796",
				"mintedQrCodesCount(address)": "2614",
				"mintersName(address)": "infinite",
				"owner()": "2471",
				"qrCodes(uint256)": "infinite",
				"qrCodesLength()": "2353",
				"qrCodesRouters(address)": "2635",
				"setCodeTL(uint256)": "24575",
				"setFaucetAmount(uint256)": "24577",
				"setIsManager(address,bool)": "infinite",
				"setIsMinter(address,bool)": "infinite",
				"setMaxMintAmountPerQrCode(address,uint256)": "infinite",
				"setMaxMintAmountPerQrCodeGlobal(uint256)": "infinite",
				"setMinterBalance(address,uint256)": "infinite",
				"setMinterName(address,string)": "infinite",
				"tokenAddress()": "2404",
				"totalClaimedAmount()": "2352",
				"totalFaucetAmount()": "2350",
				"totalMintedAmount()": "2439",
				"totalQrCodesClaimed()": "2373",
				"transferOwnership(address)": "26872"
			}
		},
		"methodIdentifiers": {
			"addClaimerBan(address,string)": "76678d84",
			"addMinter(address,string)": "424f3c8e",
			"addMinterBalance(address,uint256)": "384e491d",
			"bannedClaimersWhen(address)": "2ba33db4",
			"bannedClaimersWho(address)": "6e54f5a6",
			"bannedClaimersWhy(address)": "98d7a152",
			"claim(address)": "1e83409a",
			"claimedAmount(address)": "04e86903",
			"claimedByMinter(address)": "3e70703e",
			"claimedFaucetUsed(address)": "2e42add7",
			"claimedQrCodes(address,uint256)": "44e2ad99",
			"claimedQrCodesCount(address)": "ad4ad7ca",
			"codeTL()": "563d3ca3",
			"delClaimerBan(address)": "0075c377",
			"faucetAmount()": "9c281430",
			"getAddressNativeBalance(address)": "d846ceae",
			"getAddressTokenBalance(address)": "a50ffda5",
			"getAllQrCodes()": "572d4721",
			"getBannedClaimers(uint256,uint256)": "5a2f7133",
			"getBannedClaimersCount()": "66800995",
			"getClaimedQrCodes(address,uint256,uint256)": "4f513277",
			"getClaimerInfo(address)": "878d7d87",
			"getClaimers(uint256,uint256)": "98adcc97",
			"getClaimersCount()": "4078eeb2",
			"getClaimersInfo(uint256,uint256)": "41be8b94",
			"getFaucetBalance()": "f1f959a6",
			"getIsManager(address)": "198e14f8",
			"getIsMinter(address)": "17fc30d4",
			"getManagers()": "a8d088bb",
			"getManagersCount()": "ceeabbf6",
			"getMinterInfo(address)": "f09b2203",
			"getMinterQrCodes(address,uint256,uint256)": "e43e5541",
			"getMinters()": "6b32810b",
			"getMintersCount()": "eed31986",
			"getMintersInfo()": "143f338c",
			"getQrCode(uint256)": "6f7ab8d1",
			"getQrCodeByAddress(address)": "81b5479d",
			"getTokenBalance()": "82b2e257",
			"getTokenDecimals()": "24f65ee7",
			"getTokenName()": "862b092b",
			"getTokenSymbol()": "f1850af8",
			"isQrCodeClaimed(address)": "2a4e4553",
			"maxMintAmountPerQrCodeGlobal()": "892ff8bd",
			"mint(uint256,uint256,string)": "c6e64e53",
			"mintedAmount(address)": "fbbf8cc3",
			"mintedQrCodes(address,uint256)": "206855d0",
			"mintedQrCodesCount(address)": "b862251f",
			"mintersName(address)": "d3a51ff2",
			"owner()": "8da5cb5b",
			"qrCodes(uint256)": "6ca80026",
			"qrCodesLength()": "1654d42c",
			"qrCodesRouters(address)": "dccb445b",
			"setCodeTL(uint256)": "a01bad52",
			"setFaucetAmount(uint256)": "81d2fd9c",
			"setIsManager(address,bool)": "26767f90",
			"setIsMinter(address,bool)": "66eb399f",
			"setMaxMintAmountPerQrCode(address,uint256)": "59d1bd80",
			"setMaxMintAmountPerQrCodeGlobal(uint256)": "04f32a1d",
			"setMinterBalance(address,uint256)": "66059a16",
			"setMinterName(address,string)": "ece76435",
			"tokenAddress()": "9d76ea58",
			"totalClaimedAmount()": "9661cb0d",
			"totalFaucetAmount()": "f1294ef6",
			"totalMintedAmount()": "6f865e6f",
			"totalQrCodesClaimed()": "9db1ff16",
			"transferOwnership(address)": "f2fde38b"
		}
	},
	"abi": [
		{
			"inputs": [
				{
					"internalType": "address",
					"name": "_tokenAddress",
					"type": "address"
				}
			],
			"stateMutability": "nonpayable",
			"type": "constructor"
		},
		{
			"anonymous": false,
			"inputs": [
				{
					"indexed": false,
					"internalType": "address",
					"name": "qrcode",
					"type": "address"
				}
			],
			"name": "QrCodeMinted",
			"type": "event"
		},
		{
			"inputs": [
				{
					"internalType": "address",
					"name": "claimer",
					"type": "address"
				},
				{
					"internalType": "string",
					"name": "why",
					"type": "string"
				}
			],
			"name": "addClaimerBan",
			"outputs": [],
			"stateMutability": "nonpayable",
			"type": "function"
		},
		{
			"inputs": [
				{
					"internalType": "address",
					"name": "minter",
					"type": "address"
				},
				{
					"internalType": "string",
					"name": "name",
					"type": "string"
				}
			],
			"name": "addMinter",
			"outputs": [],
			"stateMutability": "nonpayable",
			"type": "function"
		},
		{
			"inputs": [
				{
					"internalType": "address",
					"name": "minter",
					"type": "address"
				},
				{
					"internalType": "uint256",
					"name": "amount",
					"type": "uint256"
				}
			],
			"name": "addMinterBalance",
			"outputs": [],
			"stateMutability": "nonpayable",
			"type": "function"
		},
		{
			"inputs": [
				{
					"internalType": "address",
					"name": "",
					"type": "address"
				}
			],
			"name": "bannedClaimersWhen",
			"outputs": [
				{
					"internalType": "uint256",
					"name": "",
					"type": "uint256"
				}
			],
			"stateMutability": "view",
			"type": "function"
		},
		{
			"inputs": [
				{
					"internalType": "address",
					"name": "",
					"type": "address"
				}
			],
			"name": "bannedClaimersWho",
			"outputs": [
				{
					"internalType": "address",
					"name": "",
					"type": "address"
				}
			],
			"stateMutability": "view",
			"type": "function"
		},
		{
			"inputs": [
				{
					"internalType": "address",
					"name": "",
					"type": "address"
				}
			],
			"name": "bannedClaimersWhy",
			"outputs": [
				{
					"internalType": "string",
					"name": "",
					"type": "string"
				}
			],
			"stateMutability": "view",
			"type": "function"
		},
		{
			"inputs": [
				{
					"internalType": "address",
					"name": "claimer",
					"type": "address"
				}
			],
			"name": "claim",
			"outputs": [],
			"stateMutability": "nonpayable",
			"type": "function"
		},
		{
			"inputs": [
				{
					"internalType": "address",
					"name": "",
					"type": "address"
				}
			],
			"name": "claimedAmount",
			"outputs": [
				{
					"internalType": "uint256",
					"name": "",
					"type": "uint256"
				}
			],
			"stateMutability": "view",
			"type": "function"
		},
		{
			"inputs": [
				{
					"internalType": "address",
					"name": "",
					"type": "address"
				}
			],
			"name": "claimedByMinter",
			"outputs": [
				{
					"internalType": "uint256",
					"name": "",
					"type": "uint256"
				}
			],
			"stateMutability": "view",
			"type": "function"
		},
		{
			"inputs": [
				{
					"internalType": "address",
					"name": "",
					"type": "address"
				}
			],
			"name": "claimedFaucetUsed",
			"outputs": [
				{
					"internalType": "uint256",
					"name": "",
					"type": "uint256"
				}
			],
			"stateMutability": "view",
			"type": "function"
		},
		{
			"inputs": [
				{
					"internalType": "address",
					"name": "",
					"type": "address"
				},
				{
					"internalType": "uint256",
					"name": "",
					"type": "uint256"
				}
			],
			"name": "claimedQrCodes",
			"outputs": [
				{
					"internalType": "uint256",
					"name": "",
					"type": "uint256"
				}
			],
			"stateMutability": "view",
			"type": "function"
		},
		{
			"inputs": [
				{
					"internalType": "address",
					"name": "",
					"type": "address"
				}
			],
			"name": "claimedQrCodesCount",
			"outputs": [
				{
					"internalType": "uint256",
					"name": "",
					"type": "uint256"
				}
			],
			"stateMutability": "view",
			"type": "function"
		},
		{
			"inputs": [],
			"name": "codeTL",
			"outputs": [
				{
					"internalType": "uint256",
					"name": "",
					"type": "uint256"
				}
			],
			"stateMutability": "view",
			"type": "function"
		},
		{
			"inputs": [
				{
					"internalType": "address",
					"name": "claimer",
					"type": "address"
				}
			],
			"name": "delClaimerBan",
			"outputs": [],
			"stateMutability": "nonpayable",
			"type": "function"
		},
		{
			"inputs": [],
			"name": "faucetAmount",
			"outputs": [
				{
					"internalType": "uint256",
					"name": "",
					"type": "uint256"
				}
			],
			"stateMutability": "view",
			"type": "function"
		},
		{
			"inputs": [
				{
					"internalType": "address",
					"name": "_address",
					"type": "address"
				}
			],
			"name": "getAddressNativeBalance",
			"outputs": [
				{
					"internalType": "uint256",
					"name": "",
					"type": "uint256"
				}
			],
			"stateMutability": "view",
			"type": "function"
		},
		{
			"inputs": [
				{
					"internalType": "address",
					"name": "_address",
					"type": "address"
				}
			],
			"name": "getAddressTokenBalance",
			"outputs": [
				{
					"internalType": "uint256",
					"name": "",
					"type": "uint256"
				}
			],
			"stateMutability": "view",
			"type": "function"
		},
		{
			"inputs": [],
			"name": "getAllQrCodes",
			"outputs": [
				{
					"components": [
						{
							"internalType": "uint256",
							"name": "id",
							"type": "uint256"
						},
						{
							"internalType": "uint256",
							"name": "amount",
							"type": "uint256"
						},
						{
							"internalType": "address",
							"name": "minter",
							"type": "address"
						},
						{
							"internalType": "address",
							"name": "claimer",
							"type": "address"
						},
						{
							"internalType": "uint256",
							"name": "minted_at",
							"type": "uint256"
						},
						{
							"internalType": "uint256",
							"name": "claimed_at",
							"type": "uint256"
						},
						{
							"internalType": "uint256",
							"name": "timelife",
							"type": "uint256"
						},
						{
							"internalType": "address",
							"name": "router",
							"type": "address"
						},
						{
							"internalType": "string",
							"name": "message",
							"type": "string"
						}
					],
					"internalType": "struct QRCodeFactory.QRCODE[]",
					"name": "",
					"type": "tuple[]"
				}
			],
			"stateMutability": "view",
			"type": "function"
		},
		{
			"inputs": [
				{
					"internalType": "uint256",
					"name": "offset",
					"type": "uint256"
				},
				{
					"internalType": "uint256",
					"name": "limit",
					"type": "uint256"
				}
			],
			"name": "getBannedClaimers",
			"outputs": [
				{
					"components": [
						{
							"internalType": "address",
							"name": "claimer",
							"type": "address"
						},
						{
							"internalType": "address",
							"name": "who",
							"type": "address"
						},
						{
							"internalType": "string",
							"name": "why",
							"type": "string"
						},
						{
							"internalType": "uint256",
							"name": "when",
							"type": "uint256"
						}
					],
					"internalType": "struct QRCodeFactory.BannedClaimer[]",
					"name": "",
					"type": "tuple[]"
				}
			],
			"stateMutability": "view",
			"type": "function"
		},
		{
			"inputs": [],
			"name": "getBannedClaimersCount",
			"outputs": [
				{
					"internalType": "uint256",
					"name": "",
					"type": "uint256"
				}
			],
			"stateMutability": "view",
			"type": "function"
		},
		{
			"inputs": [
				{
					"internalType": "address",
					"name": "claimer",
					"type": "address"
				},
				{
					"internalType": "uint256",
					"name": "offset",
					"type": "uint256"
				},
				{
					"internalType": "uint256",
					"name": "limit",
					"type": "uint256"
				}
			],
			"name": "getClaimedQrCodes",
			"outputs": [
				{
					"components": [
						{
							"internalType": "uint256",
							"name": "id",
							"type": "uint256"
						},
						{
							"internalType": "uint256",
							"name": "amount",
							"type": "uint256"
						},
						{
							"internalType": "address",
							"name": "minter",
							"type": "address"
						},
						{
							"internalType": "address",
							"name": "claimer",
							"type": "address"
						},
						{
							"internalType": "uint256",
							"name": "minted_at",
							"type": "uint256"
						},
						{
							"internalType": "uint256",
							"name": "claimed_at",
							"type": "uint256"
						},
						{
							"internalType": "uint256",
							"name": "timelife",
							"type": "uint256"
						},
						{
							"internalType": "address",
							"name": "router",
							"type": "address"
						},
						{
							"internalType": "string",
							"name": "message",
							"type": "string"
						}
					],
					"internalType": "struct QRCodeFactory.QRCODE[]",
					"name": "",
					"type": "tuple[]"
				}
			],
			"stateMutability": "view",
			"type": "function"
		},
		{
			"inputs": [
				{
					"internalType": "address",
					"name": "claimer",
					"type": "address"
				}
			],
			"name": "getClaimerInfo",
			"outputs": [
				{
					"components": [
						{
							"internalType": "address",
							"name": "claimerAddress",
							"type": "address"
						},
						{
							"internalType": "uint256",
							"name": "claimedAmount",
							"type": "uint256"
						},
						{
							"internalType": "uint256[]",
							"name": "claimedQrCodes",
							"type": "uint256[]"
						},
						{
							"internalType": "uint256",
							"name": "claimedQrCodesCount",
							"type": "uint256"
						},
						{
							"internalType": "uint256",
							"name": "faucetUsed",
							"type": "uint256"
						},
						{
							"internalType": "bool",
							"name": "isBanned",
							"type": "bool"
						}
					],
					"internalType": "struct QRCodeFactory.ClaimerInfo",
					"name": "ret",
					"type": "tuple"
				}
			],
			"stateMutability": "view",
			"type": "function"
		},
		{
			"inputs": [
				{
					"internalType": "uint256",
					"name": "offset",
					"type": "uint256"
				},
				{
					"internalType": "uint256",
					"name": "limit",
					"type": "uint256"
				}
			],
			"name": "getClaimers",
			"outputs": [
				{
					"internalType": "address[]",
					"name": "",
					"type": "address[]"
				}
			],
			"stateMutability": "view",
			"type": "function"
		},
		{
			"inputs": [],
			"name": "getClaimersCount",
			"outputs": [
				{
					"internalType": "uint256",
					"name": "",
					"type": "uint256"
				}
			],
			"stateMutability": "view",
			"type": "function"
		},
		{
			"inputs": [
				{
					"internalType": "uint256",
					"name": "offset",
					"type": "uint256"
				},
				{
					"internalType": "uint256",
					"name": "limit",
					"type": "uint256"
				}
			],
			"name": "getClaimersInfo",
			"outputs": [
				{
					"components": [
						{
							"internalType": "address",
							"name": "claimerAddress",
							"type": "address"
						},
						{
							"internalType": "uint256",
							"name": "claimedAmount",
							"type": "uint256"
						},
						{
							"internalType": "uint256[]",
							"name": "claimedQrCodes",
							"type": "uint256[]"
						},
						{
							"internalType": "uint256",
							"name": "claimedQrCodesCount",
							"type": "uint256"
						},
						{
							"internalType": "uint256",
							"name": "faucetUsed",
							"type": "uint256"
						},
						{
							"internalType": "bool",
							"name": "isBanned",
							"type": "bool"
						}
					],
					"internalType": "struct QRCodeFactory.ClaimerInfo[]",
					"name": "",
					"type": "tuple[]"
				}
			],
			"stateMutability": "view",
			"type": "function"
		},
		{
			"inputs": [],
			"name": "getFaucetBalance",
			"outputs": [
				{
					"internalType": "uint256",
					"name": "",
					"type": "uint256"
				}
			],
			"stateMutability": "view",
			"type": "function"
		},
		{
			"inputs": [
				{
					"internalType": "address",
					"name": "check",
					"type": "address"
				}
			],
			"name": "getIsManager",
			"outputs": [
				{
					"internalType": "bool",
					"name": "",
					"type": "bool"
				}
			],
			"stateMutability": "view",
			"type": "function"
		},
		{
			"inputs": [
				{
					"internalType": "address",
					"name": "check",
					"type": "address"
				}
			],
			"name": "getIsMinter",
			"outputs": [
				{
					"internalType": "bool",
					"name": "",
					"type": "bool"
				}
			],
			"stateMutability": "view",
			"type": "function"
		},
		{
			"inputs": [],
			"name": "getManagers",
			"outputs": [
				{
					"internalType": "address[]",
					"name": "",
					"type": "address[]"
				}
			],
			"stateMutability": "view",
			"type": "function"
		},
		{
			"inputs": [],
			"name": "getManagersCount",
			"outputs": [
				{
					"internalType": "uint256",
					"name": "",
					"type": "uint256"
				}
			],
			"stateMutability": "view",
			"type": "function"
		},
		{
			"inputs": [
				{
					"internalType": "address",
					"name": "minter",
					"type": "address"
				}
			],
			"name": "getMinterInfo",
			"outputs": [
				{
					"components": [
						{
							"internalType": "address",
							"name": "minterAddress",
							"type": "address"
						},
						{
							"internalType": "string",
							"name": "name",
							"type": "string"
						},
						{
							"internalType": "uint256",
							"name": "mintedAmount",
							"type": "uint256"
						},
						{
							"internalType": "uint256",
							"name": "claimedAmount",
							"type": "uint256"
						},
						{
							"internalType": "uint256[]",
							"name": "mintedQrCodes",
							"type": "uint256[]"
						},
						{
							"internalType": "uint256",
							"name": "mintedQrCodesCount",
							"type": "uint256"
						},
						{
							"internalType": "uint256",
							"name": "balance",
							"type": "uint256"
						}
					],
					"internalType": "struct QRCodeFactory.MinterInfo",
					"name": "ret",
					"type": "tuple"
				}
			],
			"stateMutability": "view",
			"type": "function"
		},
		{
			"inputs": [
				{
					"internalType": "address",
					"name": "minter",
					"type": "address"
				},
				{
					"internalType": "uint256",
					"name": "offset",
					"type": "uint256"
				},
				{
					"internalType": "uint256",
					"name": "limit",
					"type": "uint256"
				}
			],
			"name": "getMinterQrCodes",
			"outputs": [
				{
					"components": [
						{
							"internalType": "uint256",
							"name": "id",
							"type": "uint256"
						},
						{
							"internalType": "uint256",
							"name": "amount",
							"type": "uint256"
						},
						{
							"internalType": "address",
							"name": "minter",
							"type": "address"
						},
						{
							"internalType": "address",
							"name": "claimer",
							"type": "address"
						},
						{
							"internalType": "uint256",
							"name": "minted_at",
							"type": "uint256"
						},
						{
							"internalType": "uint256",
							"name": "claimed_at",
							"type": "uint256"
						},
						{
							"internalType": "uint256",
							"name": "timelife",
							"type": "uint256"
						},
						{
							"internalType": "address",
							"name": "router",
							"type": "address"
						},
						{
							"internalType": "string",
							"name": "message",
							"type": "string"
						}
					],
					"internalType": "struct QRCodeFactory.QRCODE[]",
					"name": "",
					"type": "tuple[]"
				}
			],
			"stateMutability": "view",
			"type": "function"
		},
		{
			"inputs": [],
			"name": "getMinters",
			"outputs": [
				{
					"internalType": "address[]",
					"name": "",
					"type": "address[]"
				}
			],
			"stateMutability": "view",
			"type": "function"
		},
		{
			"inputs": [],
			"name": "getMintersCount",
			"outputs": [
				{
					"internalType": "uint256",
					"name": "",
					"type": "uint256"
				}
			],
			"stateMutability": "view",
			"type": "function"
		},
		{
			"inputs": [],
			"name": "getMintersInfo",
			"outputs": [
				{
					"components": [
						{
							"internalType": "address",
							"name": "minterAddress",
							"type": "address"
						},
						{
							"internalType": "string",
							"name": "name",
							"type": "string"
						},
						{
							"internalType": "uint256",
							"name": "mintedAmount",
							"type": "uint256"
						},
						{
							"internalType": "uint256",
							"name": "claimedAmount",
							"type": "uint256"
						},
						{
							"internalType": "uint256[]",
							"name": "mintedQrCodes",
							"type": "uint256[]"
						},
						{
							"internalType": "uint256",
							"name": "mintedQrCodesCount",
							"type": "uint256"
						},
						{
							"internalType": "uint256",
							"name": "balance",
							"type": "uint256"
						}
					],
					"internalType": "struct QRCodeFactory.MinterInfo[]",
					"name": "",
					"type": "tuple[]"
				}
			],
			"stateMutability": "view",
			"type": "function"
		},
		{
			"inputs": [
				{
					"internalType": "uint256",
					"name": "index",
					"type": "uint256"
				}
			],
			"name": "getQrCode",
			"outputs": [
				{
					"components": [
						{
							"internalType": "uint256",
							"name": "id",
							"type": "uint256"
						},
						{
							"internalType": "uint256",
							"name": "amount",
							"type": "uint256"
						},
						{
							"internalType": "address",
							"name": "minter",
							"type": "address"
						},
						{
							"internalType": "address",
							"name": "claimer",
							"type": "address"
						},
						{
							"internalType": "uint256",
							"name": "minted_at",
							"type": "uint256"
						},
						{
							"internalType": "uint256",
							"name": "claimed_at",
							"type": "uint256"
						},
						{
							"internalType": "uint256",
							"name": "timelife",
							"type": "uint256"
						},
						{
							"internalType": "address",
							"name": "router",
							"type": "address"
						},
						{
							"internalType": "string",
							"name": "message",
							"type": "string"
						}
					],
					"internalType": "struct QRCodeFactory.QRCODE",
					"name": "",
					"type": "tuple"
				}
			],
			"stateMutability": "view",
			"type": "function"
		},
		{
			"inputs": [
				{
					"internalType": "address",
					"name": "router",
					"type": "address"
				}
			],
			"name": "getQrCodeByAddress",
			"outputs": [
				{
					"components": [
						{
							"internalType": "uint256",
							"name": "id",
							"type": "uint256"
						},
						{
							"internalType": "uint256",
							"name": "amount",
							"type": "uint256"
						},
						{
							"internalType": "address",
							"name": "minter",
							"type": "address"
						},
						{
							"internalType": "address",
							"name": "claimer",
							"type": "address"
						},
						{
							"internalType": "uint256",
							"name": "minted_at",
							"type": "uint256"
						},
						{
							"internalType": "uint256",
							"name": "claimed_at",
							"type": "uint256"
						},
						{
							"internalType": "uint256",
							"name": "timelife",
							"type": "uint256"
						},
						{
							"internalType": "address",
							"name": "router",
							"type": "address"
						},
						{
							"internalType": "string",
							"name": "message",
							"type": "string"
						}
					],
					"internalType": "struct QRCodeFactory.QRCODE",
					"name": "ret",
					"type": "tuple"
				}
			],
			"stateMutability": "view",
			"type": "function"
		},
		{
			"inputs": [],
			"name": "getTokenBalance",
			"outputs": [
				{
					"internalType": "uint256",
					"name": "",
					"type": "uint256"
				}
			],
			"stateMutability": "view",
			"type": "function"
		},
		{
			"inputs": [],
			"name": "getTokenDecimals",
			"outputs": [
				{
					"internalType": "uint256",
					"name": "",
					"type": "uint256"
				}
			],
			"stateMutability": "view",
			"type": "function"
		},
		{
			"inputs": [],
			"name": "getTokenName",
			"outputs": [
				{
					"internalType": "string",
					"name": "",
					"type": "string"
				}
			],
			"stateMutability": "view",
			"type": "function"
		},
		{
			"inputs": [],
			"name": "getTokenSymbol",
			"outputs": [
				{
					"internalType": "string",
					"name": "",
					"type": "string"
				}
			],
			"stateMutability": "view",
			"type": "function"
		},
		{
			"inputs": [
				{
					"internalType": "address",
					"name": "router",
					"type": "address"
				}
			],
			"name": "isQrCodeClaimed",
			"outputs": [
				{
					"internalType": "bool",
					"name": "",
					"type": "bool"
				}
			],
			"stateMutability": "view",
			"type": "function"
		},
		{
			"inputs": [],
			"name": "maxMintAmountPerQrCodeGlobal",
			"outputs": [
				{
					"internalType": "uint256",
					"name": "",
					"type": "uint256"
				}
			],
			"stateMutability": "view",
			"type": "function"
		},
		{
			"inputs": [
				{
					"internalType": "uint256",
					"name": "_amount",
					"type": "uint256"
				},
				{
					"internalType": "uint256",
					"name": "_timelife",
					"type": "uint256"
				},
				{
					"internalType": "string",
					"name": "_message",
					"type": "string"
				}
			],
			"name": "mint",
			"outputs": [
				{
					"internalType": "address",
					"name": "",
					"type": "address"
				}
			],
			"stateMutability": "nonpayable",
			"type": "function"
		},
		{
			"inputs": [
				{
					"internalType": "address",
					"name": "",
					"type": "address"
				}
			],
			"name": "mintedAmount",
			"outputs": [
				{
					"internalType": "uint256",
					"name": "",
					"type": "uint256"
				}
			],
			"stateMutability": "view",
			"type": "function"
		},
		{
			"inputs": [
				{
					"internalType": "address",
					"name": "",
					"type": "address"
				},
				{
					"internalType": "uint256",
					"name": "",
					"type": "uint256"
				}
			],
			"name": "mintedQrCodes",
			"outputs": [
				{
					"internalType": "uint256",
					"name": "",
					"type": "uint256"
				}
			],
			"stateMutability": "view",
			"type": "function"
		},
		{
			"inputs": [
				{
					"internalType": "address",
					"name": "",
					"type": "address"
				}
			],
			"name": "mintedQrCodesCount",
			"outputs": [
				{
					"internalType": "uint256",
					"name": "",
					"type": "uint256"
				}
			],
			"stateMutability": "view",
			"type": "function"
		},
		{
			"inputs": [
				{
					"internalType": "address",
					"name": "",
					"type": "address"
				}
			],
			"name": "mintersName",
			"outputs": [
				{
					"internalType": "string",
					"name": "",
					"type": "string"
				}
			],
			"stateMutability": "view",
			"type": "function"
		},
		{
			"inputs": [],
			"name": "owner",
			"outputs": [
				{
					"internalType": "address",
					"name": "",
					"type": "address"
				}
			],
			"stateMutability": "view",
			"type": "function"
		},
		{
			"inputs": [
				{
					"internalType": "uint256",
					"name": "",
					"type": "uint256"
				}
			],
			"name": "qrCodes",
			"outputs": [
				{
					"internalType": "uint256",
					"name": "id",
					"type": "uint256"
				},
				{
					"internalType": "uint256",
					"name": "amount",
					"type": "uint256"
				},
				{
					"internalType": "address",
					"name": "minter",
					"type": "address"
				},
				{
					"internalType": "address",
					"name": "claimer",
					"type": "address"
				},
				{
					"internalType": "uint256",
					"name": "minted_at",
					"type": "uint256"
				},
				{
					"internalType": "uint256",
					"name": "claimed_at",
					"type": "uint256"
				},
				{
					"internalType": "uint256",
					"name": "timelife",
					"type": "uint256"
				},
				{
					"internalType": "address",
					"name": "router",
					"type": "address"
				},
				{
					"internalType": "string",
					"name": "message",
					"type": "string"
				}
			],
			"stateMutability": "view",
			"type": "function"
		},
		{
			"inputs": [],
			"name": "qrCodesLength",
			"outputs": [
				{
					"internalType": "uint256",
					"name": "",
					"type": "uint256"
				}
			],
			"stateMutability": "view",
			"type": "function"
		},
		{
			"inputs": [
				{
					"internalType": "address",
					"name": "",
					"type": "address"
				}
			],
			"name": "qrCodesRouters",
			"outputs": [
				{
					"internalType": "uint256",
					"name": "",
					"type": "uint256"
				}
			],
			"stateMutability": "view",
			"type": "function"
		},
		{
			"inputs": [
				{
					"internalType": "uint256",
					"name": "_codeTL",
					"type": "uint256"
				}
			],
			"name": "setCodeTL",
			"outputs": [],
			"stateMutability": "nonpayable",
			"type": "function"
		},
		{
			"inputs": [
				{
					"internalType": "uint256",
					"name": "_faucetAmount",
					"type": "uint256"
				}
			],
			"name": "setFaucetAmount",
			"outputs": [],
			"stateMutability": "nonpayable",
			"type": "function"
		},
		{
			"inputs": [
				{
					"internalType": "address",
					"name": "who",
					"type": "address"
				},
				{
					"internalType": "bool",
					"name": "isManager",
					"type": "bool"
				}
			],
			"name": "setIsManager",
			"outputs": [],
			"stateMutability": "nonpayable",
			"type": "function"
		},
		{
			"inputs": [
				{
					"internalType": "address",
					"name": "who",
					"type": "address"
				},
				{
					"internalType": "bool",
					"name": "isMinter",
					"type": "bool"
				}
			],
			"name": "setIsMinter",
			"outputs": [],
			"stateMutability": "nonpayable",
			"type": "function"
		},
		{
			"inputs": [
				{
					"internalType": "address",
					"name": "minter",
					"type": "address"
				},
				{
					"internalType": "uint256",
					"name": "newLimit",
					"type": "uint256"
				}
			],
			"name": "setMaxMintAmountPerQrCode",
			"outputs": [],
			"stateMutability": "nonpayable",
			"type": "function"
		},
		{
			"inputs": [
				{
					"internalType": "uint256",
					"name": "newLimit",
					"type": "uint256"
				}
			],
			"name": "setMaxMintAmountPerQrCodeGlobal",
			"outputs": [],
			"stateMutability": "nonpayable",
			"type": "function"
		},
		{
			"inputs": [
				{
					"internalType": "address",
					"name": "minter",
					"type": "address"
				},
				{
					"internalType": "uint256",
					"name": "newBalance",
					"type": "uint256"
				}
			],
			"name": "setMinterBalance",
			"outputs": [],
			"stateMutability": "nonpayable",
			"type": "function"
		},
		{
			"inputs": [
				{
					"internalType": "address",
					"name": "minter",
					"type": "address"
				},
				{
					"internalType": "string",
					"name": "name",
					"type": "string"
				}
			],
			"name": "setMinterName",
			"outputs": [],
			"stateMutability": "nonpayable",
			"type": "function"
		},
		{
			"inputs": [],
			"name": "tokenAddress",
			"outputs": [
				{
					"internalType": "address",
					"name": "",
					"type": "address"
				}
			],
			"stateMutability": "view",
			"type": "function"
		},
		{
			"inputs": [],
			"name": "totalClaimedAmount",
			"outputs": [
				{
					"internalType": "uint256",
					"name": "",
					"type": "uint256"
				}
			],
			"stateMutability": "view",
			"type": "function"
		},
		{
			"inputs": [],
			"name": "totalFaucetAmount",
			"outputs": [
				{
					"internalType": "uint256",
					"name": "",
					"type": "uint256"
				}
			],
			"stateMutability": "view",
			"type": "function"
		},
		{
			"inputs": [],
			"name": "totalMintedAmount",
			"outputs": [
				{
					"internalType": "uint256",
					"name": "",
					"type": "uint256"
				}
			],
			"stateMutability": "view",
			"type": "function"
		},
		{
			"inputs": [],
			"name": "totalQrCodesClaimed",
			"outputs": [
				{
					"internalType": "uint256",
					"name": "",
					"type": "uint256"
				}
			],
			"stateMutability": "view",
			"type": "function"
		},
		{
			"inputs": [
				{
					"internalType": "address",
					"name": "newOwner",
					"type": "address"
				}
			],
			"name": "transferOwnership",
			"outputs": [],
			"stateMutability": "nonpayable",
			"type": "function"
		},
		{
			"stateMutability": "payable",
			"type": "receive"
		}
	]
}